:020000040002F8
:10200000B04F00204D250200552502005725020043
:10201000592502005B2502005D250200000000003A
:102020000000000000000000000000005F2502002A
:102030006125020000000000632502006525020002
:102040003129020067250200BD2B0200672502002E
:1020500067250200672502000927020067250200A4
:102060006725020067250200672502006725020038
:102070006725020067250200672502006725020028
:1020800067250200892902006725020067250200F2
:10209000AD29020067250200B12902006725020070
:1020A00067250200672502006725020067250200F8
:1020B0006725020067250200000000000000000004
:1020C00067250200672502006725020067250200D8
:1020D00067250200672502006725020067250200C8
:1020E0006725020067250200672502000000000046
:1020F00000000000672502000000000067250200C4
:1021000000000000000000000000000000000000CF
:1021100000000000000000000000000000000000BF
:1021200000000000000000000000000000000000AF
:10213000000000000000000000000000000000009F
:10214000000000000000000000000000000000008F
:10215000000000000000000000000000000000007F
:10216000000000000000000000000000000000006F
:10217000000000000000000000000000000000005F
:10218000000000000000000000000000000000004F
:10219000000000000000000000000000000000003F
:1021A000000000000000000000000000000000002F
:1021B000000000000000000000000000000000001F
:1021C000000000000000000000000000000000000F
:1021D00000000000000000000000000000000000FF
:1021E00000000000000000000000000000000000EF
:1021F00000000000000000000000000000000000DF
:10220000DFF80CD000F042FA00480047F55C02000D
:10221000B04F002030B4044654E8000F0D4644E8A7
:102220000053002BF8D1156030BC704730B4044621
:1022300054E8000F40EA010544E80053002BF7D1B1
:10224000156030BC704730B4044654E8000F00EA13
:10225000010544E80053002BF7D1156030BC7047EE
:1022600030B4044654E8000F80EA010544E8005306
:10227000002BF7D1156030BC704730B4044654E8E9
:10228000000F00EB010544E80053002BF7D1156067
:1022900030BC704730B4044654E8000FA0EB010591
:1022A00044E80053002BF7D1156030BC70470000A4
:1022B00030B450E8012F93B2C48923448489A342E7
:1022C00028BF1B1B0489A34202BFBFF32F8F00202E
:1022D00007E0C3EA020340E80134002CE9D14FF0E3
:1022E00001000A6030BC704750E8012FC2EA024288
:1022F00040E801210029F7D1704730B450E8022F9F
:102300001FFAA2F3C488A34202BFBFF32F8F00209D
:102310000DE0C48923448489A34228BF1B1BC2EA61
:10232000034340E80234002CE8D14FF001000A607A
:1023300030BC704750E8022FC2EA224240E8022136
:102340000029F7D17047034653E8022FD988B2EB32
:10235000324F4FF0000017BF92B241EA014142EA0A
:10236000014104E05A68B2EB324F08BF012043E854
:102370000212002AE8D1704730B4044654E8000F36
:102380000D4644E80053002BF8D1156030BC70476F
:1023900030B4044654E8000F40EA010544E8005315
:1023A000002BF7D1156030BC704730B4044654E8B8
:1023B000000F00EA010544E80053002BF7D1156037
:1023C00030BC704730B4044654E8000F80EA010581
:1023D00044E80053002BF7D1156030BC704730B48F
:1023E000044654E8000F00EB010544E80053002BBD
:1023F000F7D1156030BC704730B4044654E8000F84
:10240000A0EB010544E80053002BF7D1156030BC68
:102410007047000030B4044654E8000F0D4644E80D
:102420000053002BF8D1156030BC704730B404461F
:1024300054E8000F40EA010544E80053002BF7D1AF
:10244000156030BC704730B4044654E8000F00EA11
:10245000010544E80053002BF7D1156030BC7047EC
:1024600030B4044654E8000F80EA010544E8005304
:10247000002BF7D1156030BC704730B4044654E8E7
:10248000000F00EB010544E80053002BF7D1156065
:1024900030BC704730B4044654E8000FA0EB01058F
:1024A00044E80053002BF7D1156030BC70470000A2
:1024B00030B4044654E8000F0D4644E80053002BA6
:1024C000F8D1156030BC704730B4044654E8000FB2
:1024D00040EA010544E80053002BF7D1156030BCF9
:1024E000704730B4044654E8000F00EA010544E8A0
:1024F0000053002BF7D1156030BC704730B4044650
:1025000054E8000F80EA010544E80053002BF7D19E
:10251000156030BC704730B4044654E8000F00EB3F
:10252000010544E80053002BF7D1156030BC70471B
:1025300030B4044654E8000FA0EB010544E8005312
:10254000002BF7D1156030BC70470000064880476B
:1025500006480047FEE7FEE7FEE7FEE7FEE7FEE788
:10256000FEE7FEE7FEE7FEE7B529020001220200D2
:102570002DE9F05F0546002092469B4688460646B8
:10258000814640241BE0284641464746224600F04B
:102590006CF853465A46C01A914110D3114618465A
:1025A000224600F053F82D1A67EB01084F462246E9
:1025B0000120002100F04AF817EB00094E41201ECF
:1025C000A4F10104DFDC484631462A464346BDE813
:1025D000F09F000000487047A8AC020040EA0103E9
:1025E0009B0703D009E008C9121F08C0042AFAD2C9
:1025F00003E011F8013B00F8013B521EF9D270478D
:10260000D2B201E000F8012B491EFBD27047002234
:10261000F6E710B513460A4604461946FFF7F0FFE1
:10262000204610BD421C10F8011B0029FBD1801A66
:10263000704730B504460020034600E05B1C93421F
:1026400003D2E05CCD5C401BF8D030BD202A04DB17
:10265000203A00FA02F1002070479140C2F12003B5
:1026600020FA03F3194390407047202A04DB203AF4
:1026700021FA02F00021704721FA02F3D040C2F1A2
:10268000200291400843194670470000064C074D50
:1026900006E0E06840F0010394E807009847103432
:1026A000AC42F6D3FFF7B0FD30B3020050B30200E6
:1026B00070B58C1810F8015B15F0070301D110F804
:1026C000013B2A1106D110F8012B03E010F8016B31
:1026D00001F8016B5B1EF9D12B0705D40023521EB4
:1026E0000DD401F8013BFAE710F8013BCB1A921C1C
:1026F00003E013F8015B01F8015B521EF9D5A1421A
:10270000D8D3002070BD00002DE9F04F00268FB017
:10271000DFF8B081B14602964FF480750124374648
:102720000396284604F0F8FB38B1D8F80403204299
:1027300003D0284604F0E6FB26432D1D64007F1CD1
:10274000ADB2082FEDD34FF4BE74204604F0E4FB85
:1027500048B1204604F0D6FB46F0004602AA02210A
:10276000002004F0B9FB584C16F0FF0F15D00127DC
:10277000002537420DD008EB8501D1F81005D1F8BE
:102780001015C0F3052054F82520C1F3014102B112
:1027900090477F006D1C082DEBD3002E7DDA0020C2
:1027A000CDF82890411E0DF1080B08AACDF82C9009
:1027B00042F82010401C91460228F9D300252E46ED
:1027C000A01910F8607F90F9000027F0C008401CA5
:1027D00049D008A9404603F039FD88B34FEA971A5B
:1027E000404601F063FD54F820701FB1BAF1030FA9
:1027F00003D00FE0BAF1030F35D10AA84FEAD8028F
:1028000008F00703815C4FF0010C0CFA03FC41EA6D
:102810000C01815406A8CDF8188004F019FB069924
:1028200000EB8100D0F8000702A9C0F30140069038
:10283000404603F00BFD0028069802D0022802D083
:1028400011E003280FD1BAF1030F08D1069802282E
:1028500032D00221404604F0D5FA6D1CEDB217B11A
:1028600051464046B847761C042EA9D3002D20D0EF
:1028700004AA0221002004F02FFB00205A4604A9DC
:1028800052F8206051F82030B34217D000200AAE31
:102890004FEA090351F8207000E00AE042F8207086
:1028A00056F8207043F82070401C0228F2D3002D07
:1028B00084D10FB0BDE8F08F0321CBE7401C022884
:1028C000DED3F6E7006000403027002000F01F0252
:1028D000012191404009800000F1E020C0F8801201
:1028E000704700F01F02012191404009800000F173
:1028F000E020C0F80011704700F01F020121914054
:102900004009800000F1E020C0F80012704749073C
:10291000090E002806DA00F00F0000F1E02080F830
:10292000141D704700F1E02080F80014704700008B
:102930002DE9F0414FF48077384603F045FD01243E
:10294000104EA50748B1384603F045FD0120C5F8F3
:1029500008037470002001F0CDFC4FF482773846F4
:1029600003F032FD00280BD0384603F034FD02207E
:10297000C5F80803B470BDE8F041012001F0BABC0D
:10298000BDE8F0811C27002007480021C0F8401155
:10299000C0F84411C0F84811C0F84C11C0F800113B
:1029A000C0F8041107F0AEBA0010014007F0F8B902
:1029B00004F084BF30B54FF080500022D0F83011C1
:1029C0000123082902D1D0F8344114B1082909D0D3
:1029D0000BE04FF08041C1F80C21C1F8102168498B
:1029E0000A6005E0D0F8344114B1082957D059E005
:1029F00064490968644C21606249091D0968241D05
:102A00002160604908310968241D21605D490C314D
:102A10000968241D21605B4910310968241D21606B
:102A2000584914310968241D216056491831096834
:102A3000554C2034216053491C310968241D216004
:102A4000504920310968241D21604E49243109680C
:102A5000241D21604B4928310968241D2160494902
:102A60002C310968241D2160464930310968464CE3
:102A700040342160434934310968241D21604149B3
:102A800038310968241D21603E493C310968241D04
:102A900021603C4940310968241D216005E0D0F8DF
:102AA000344114B1082904D006E0394C374921607B
:102AB00005E0D0F8344114B1082904D006E0354CC3
:102AC000FB21216005E0D0F8344114B1082908D079
:102AD0000AE090F858423048016864F3030101604D
:102AE00005E0D0F8344114B1082905D00EE02B4997
:102AF0004FF40070086002E0D0F8340130B9284883
:102B00000168C90702D06FF0010101602548016822
:102B100041F470010160BFF34F8FBFF36F8F4FF02F
:102B20001021D1F80002002803DBD1F804020028AC
:102B300022DA1D4C23601D480368002BFCD01223B1
:102B4000C1F800320568002DFCD0C1F804320168DC
:102B50000029FCD0226001680029FCD0BFF34F8F10
:102B600010487C380168124A01F4E06111430160A9
:102B7000BFF34F8F00BFFDE70F490E48086030BD1F
:102B8000380500400404001020C5004048810300BF
:102B90008C56004018F50040E40E0040409602407C
:102BA0000004004088ED00E004E5014000E401403D
:102BB0000400FA050090D003D02100200448017FD2
:102BC00004480029024901D007F0B1BA07F020BA41
:102BD000982700200020004002E008C8121F08C10A
:102BE000002AFAD170477047002001E001C1121F8E
:102BF000002AFBD1704700000121202803DA814020
:102C00000548014003E0402802DA2038814009B13C
:102C10000120704700207047FC06FFBD10B560B171
:102C200059B102780B785208B2EB530F05D1062246
:102C3000401C491CFFF7FDFC08B1002010BD01201D
:102C400010BD800701D00020704701207047C36885
:102C50008B4206D811440069491E814201D80120E7
:102C600070470020704710B501220221002001F0BA
:102C70003FF908B1072810D107220221012001F0F5
:102C800037F908B1072808D100210A22084601F0C7
:102C90002FF908B1072800D1002010BD10B550B1A0
:102CA0000A480321008801EB004009A104F008FB59
:102CB00005F0D6FF03E00321094800F065FC002879
:102CC00003D0BDE8104000F0C5B810BD3022002090
:102CD000457261736520626F6E64732100000000AD
:102CE0007422002070B58CB015460E4600236C4649
:102CF000C3F10F01415CE1545B1C102BF8D30D2193
:102D000004F11000FFF783FC0020C0F10F02315CDA
:102D10002244401C11740328F7D3684643DF002087
:102D2000C0F10F01214491F820102954401C0328C0
:102D3000F6D30CB070BD022000F0CABF014909797A
:102D400000F088BDEC20002070B50024064D06E0A0
:102D50006868012110F8340003F0F0FB641C287847
:102D60008442F5D3002070BD0C210020F8B5154633
:102D70000C460646052A01D20720F8BD03F0C0FC28
:102D800018B903F08FFC0028F7D1104900204E60DD
:102D90000C70C1E902500E4D08610DE006EBC40055
:102DA0006968009181788DF801100078094A6946B8
:102DB00003F010FC0028E0D1641EE4B2EED2BDE8BE
:102DC000F840054A0021024800F050B80C210020CC
:102DD000DCA90200A15002006145020004F028FBBA
:102DE00004F076F90028FBD1104C0121208801EB7A
:102DF00000400FA104F064FA10480068C00700D03A
:102E000000BE2088022101EB00400DA104F058FA19
:102E1000BFF34F8F0948E43801680D4A01F4E061BF
:102E200011430160BFF34F8F00BFFDE73022002048
:102E3000466174616C206572726F7200F0ED00E0A3
:102E400053797374656D20726573657400000000BA
:102E50000400FA050EB500210091CDE901106A4683
:102E600044F20100FFF7BAFF0EBD0000074B9B784C
:102E700023B12AB120B10068037C1BB10820704740
:102E8000072070474174426100207047D827002016
:102E900070B506F0B1F9104800240B21047044709D
:102EA0000E4D817014206C602C706C70FFF70EFD5D
:102EB00007211420FFF72BFD1420FFF712FD08480F
:102EC000046007211120FFF722FD0548001F00685C
:102ED000A860002070BD0000D8270020202100201D
:102EE000081501402DE9FC47DFF8789099F8023089
:102EF00073B368B3052902D20720BDE8FC87436994
:102F000033B3437C012B25D0002704460025884697
:102F100016468DF80050684600F038F801A807F012
:102F20002DFAC8B1012101700F4944600968C0E958
:102F30000218C0E904769DF8040089F801009DF8A4
:102F4000000000F047F81420FFF7D6FC2846D4E72D
:102F50000820D2E70F46D8E704259DF8000000F0CE
:102F600039F8F3E7D827002004150140064989788D
:102F700039B130B1416921B100210174022106F05B
:102F80009DBF082070470000D827002030B5EFF320
:102F9000108172B60D4A9468012324B10370002990
:102FA00000D162B630BD93604FF0E023D3F880517A
:102FB000074C25401560C3F88041D3F88441546024
:102FC0005A17C3F8842100220270E8E7E4280020A1
:102FD000FC06FFBD0B498A68002A11D000280FD1DA
:102FE000EFF3108072B60B684FF0E022C2F80031A8
:102FF0004B68C2F8043100228A60002800D162B612
:1030000070470000E428002070B5054608680C46AB
:10301000411C04D003F043FF206803F0CFFE60683A
:10302000411C02D0002103F0C0FE28791F4901EBAA
:1030300040102968007F0028A069C1F8240523D02A
:10304000607D227D29681043C1F86C05D4E9001227
:103050002868C0F80C15C0F8142522E0A068411CAF
:1030600002D0002103F0A1FEE068411C04D003F06F
:1030700016FFE06803F0A2FED4E902122868C0F847
:103080000825C0F8101570BD607D217D2A680843B1
:10309000C2F86C05D4E900122868C0F81425C0F8FD
:1030A0000C15207D0128D9D070BD00009827002084
:1030B0002DE9F047074600888EB0804600F08EFB71
:1030C0000646404602F06AFA824604462E4800252B
:1030D0002A460178404600F0D3FB002E50D0787984
:1030E000400734D501254FF6FF7603AB2A4607216A
:1030F000504604F02DFF010004D0404606F0D4FAFB
:1031000000252BE0B1463146049802F09BF90646B3
:1031100048450FD004460146404602F029FA404691
:10312000FFF70CFE30B9404606F090FA4046FFF734
:1031300005FE48B122460721504604F09FFF0100DA
:1031400003D0404606F0B0FA00254E4506D0404672
:1031500005F002F910B1504602F00CFA02208DF889
:103160001800ADF81A807879400701D5012000E0F9
:1031700002208DF820008DF8215006A801F03CFBBC
:103180000EB0BDE8F0870000EC2000202DE9FC47E0
:10319000002517880646158090F82D0014468946AC
:1031A00030B13A462146484600F082FB050009D17D
:1031B000B0784FF00C0A18B32088C846001DB842FA
:1031C00002D95046BDE8FC87684679DF0028F9D16E
:1031D0002088032108F8001020881921401C80B2A3
:1031E000208008F800102088401C80B2208000EB6E
:1031F0000801BDF8000007F012F82188084420807B
:10320000F0780222C8B1218896F9033001F1030C4D
:103210004846BC45D5D8425421884FF0010C491C82
:1032200089B2218000F801C02188491C89B221801F
:1032300009F801302088401C20807068B8B12188CE
:1032400090F9003001F1030C4846BC45B9D842540E
:1032500021880A22491C89B2218042542188491CB4
:1032600089B2218009F801302088401C20803089F3
:1032700050B1CDE900474B460622022106F1080075
:1032800007F094F805009DD1308A50B1CDE9004790
:103290004B460722032106F1100007F087F80500CE
:1032A00090D1308B50B1CDE900474B461522142107
:1032B00006F1180007F07AF8050083D1306A30B1C2
:1032C0003B462246494601F07FF80500DBD1706A93
:1032D00030B13B462246494602F0EEFD0500D2D110
:1032E00096F82C0038B13B4622464946304606F057
:1032F0006BFA0500C7D1307838B13B4622464946C3
:10330000304602F061FE0500BDD128465AE7F0B50F
:103310000C4693B01F210726ADF80010ADF804103D
:10332000002750B1C17849070DD56A4602A9FFF7B9
:103330002DFF002808D102AD02E00025ADF8007095
:103340006CB1E07810B1304613B0F0BD01AA0AA903
:103350002046FFF71BFF0028F6D10AAA02E0002250
:10336000ADF80470BDF80400C3B2BDF80000C1B2EE
:10337000284672DFE8E780F82410704770B50D002A
:10338000044653D0F4B3012020700026E6702022BA
:1033900005F17801201DFFF721F984F82460D5F8A4
:1033A0009800C4F8CC00D5F89C00C4F8D0004FF6C3
:1033B000FF70A4F8C800C4F82560A4F8296084F858
:1033C0002B6004F130003C210646FFF720F92878F5
:1033D00084F83000A87884F83200E87884F8330064
:1033E000687884F83100D5E90401C4E91001D5E911
:1033F0000201C4E90E01D5E90601C4E9120195F8FC
:103400002D0000E012E084F85D00686AD8B104F194
:10341000780104F16C0061676065696A0988018060
:10342000686A616D80888880002008E00E2070BD89
:10343000696A22188968095C82F87810401C616DFD
:1034400089888142F4D8A86AE8B104F1A400C4F8DC
:10345000A0000C38A065A96A89888180A86AA16D3E
:1034600000880880002006E0A96A22188968095CA3
:1034700082F8A410401CA16D89888142F4D895F887
:103480002C0084F85C00286A48B104F1C40020656F
:10349000296A49884180286A216D00880880686807
:1034A00000B1606305F13C013046BDE87040FFF7B4
:1034B0002EBF10B50288102A1AD0112A1FD01B2A3D
:1034C0001CD1007A0C46002818D1E0780521401C58
:1034D000B0FBF1F201FB1201204600F055F8002884
:1034E0000CD0D4F8D010002908D0BDE8104008470F
:1034F000C27B012A02D18088A1F8C80010BD0C4609
:10350000002184F8D4108088B4F8C8108842F5D11E
:1035100020790028F2D10121DEE710B50C460228FF
:1035200001D0032811D1607800280ED000206070EF
:10353000E178204600F028F8002806D0D4F8D01012
:10354000002902D0BDE81040084710BD10B5044660
:1035500074DF012084F8D400002084F8D60006200F
:1035600084F83300002104F13000FFF7D0FE00287A
:1035700009D1E178204600F007F818B1D4F8D0104E
:1035800001B18847002010BD2DE9FF4704460078AF
:103590000F4638B1E770002003F0EAFA012628B19F
:1035A0006670D2E0082004B0BDE8F0870025C4F8BA
:1035B0002550A4F8295084F82B50A07910B1E07858
:1035C000012806D0E07970B1E078012801D0022806
:1035D00009D1D4F8CC1021B184F82C600820884798
:1035E00001E084F82C5004F1260100200A5C0AB1A5
:1035F000304603E0401C0628F8D300204FF00208B4
:103600004FF0030A4FF00409012F06D0022F09D012
:10361000032F0CD0042F12D10DE0A17911B108B104
:1036200030460DE0E17911B108B1404608E0207A5A
:1036300008B1504604E0607A08B1484600E02846E8
:10364000E070D4F8CC1041B1032801D0042804D193
:10365000607910B194F8D400A8B184F8D5500095E1
:103660000295019503958DF800508DF80850E1788A
:1036700004F1250004F13002052958D2DFE801F0F9
:10368000670A131F3B0084F8D65084F8D5600720E2
:103690008847E4E7A67001908DF80060ADF80C5003
:1036A000ADF80A5043E084F8028001908DF8006084
:1036B000208AADF80C00A089ADF80A0037E0A08A96
:1036C000ADF80A00208BADF80C00607980B194F859
:1036D000D40068B994F8D60050B18DF8088084F809
:1036E000339000211046FFF712FE00BB05211AE0BF
:1036F00084F802A01BE0A08BADF80A00208CADF886
:103700000C00607988B194F8D40070B994F8D600B0
:1037100058B18DF8088084F8339000211046FFF7E7
:10372000F6FD20B90621A17001E084F80290E0784E
:1037300030B194F82410684673DF00287FF433AF6B
:10374000D4F8CC1009B1A078884700202BE7A570E9
:10375000F6E7000070B5040012D001461C221448A0
:10376000FEF73CFF1248134D0560206850B17ADF28
:10377000002806D12068016829604068686005E07B
:103780000E2070BD0B487BDF0028FAD108484FF6A9
:10379000FF711438084A20F8041B054934390160C8
:1037A0000021FFF763FB0028EBD0032070BD000071
:1037B000EC230020A8200020FDA2020002494A6C50
:1037C000091D05F003BE000008240020024602483F
:1037D000016D001D05F0E7BD0824002070B50A4EFC
:1037E000054600242A46301D716C05F0DCFD40B111
:1037F0002A46301DF16C05F0D6FD08B1022400E028
:103800000124204670BD00000824002010B50024CB
:10381000204606F0A7FD28B1641CE4B2182CF7D3AB
:10382000182010BD03480122A24001681143016025
:10383000204610BD0824002010B5044606F092FD75
:10384000002803D0024800EB8400806D10BD00000A
:103850000824002070B505460C46084606F082FD97
:10386000002809D005482A4600EB8401001D896D17
:10387000BDE8704005F097BD70BD00000824002031
:1038800070B5064615460C46084606F06BFD002846
:103890000AD006482B4600EB84013246BDE8704052
:1038A000001D583105F0B7BD70BD00000824002090
:1038B0007CB5054608880C460930904201D90C2099
:1038C0007CBD68466DDF0028FAD121880820685445
:1038D00020881B21401C80B2208029542088401C55
:1038E00080B220802844DDF801100160BDF8051089
:1038F00081802088801D80B220809DF800104908BA
:1039000000D0012129542088401C208000207CBD4B
:1039100010B5028888B004463B2A2DD010DC012A5D
:103920002ED02B480321102A008801EB004015D02F
:10393000112A1FD108B027A1BDE8104003F0C0BC78
:10394000512A21D0562A15D18088132176DF0028EC
:1039500010D008B0BDE81040FFF77CBA21A103F0F9
:10396000AFFC072000F0E6FA08B1FFF773FA204930
:10397000A088088008B010BD8088132176DFE6E7B4
:103980008088002166DFE2E71022A11D04A8FEF76F
:1039900025FE9DF810100029ECD09DF81800042891
:1039A00003D0062801D00528E4D102290ED0012039
:1039B0008DF800004FF4C170ADF80400A08869468E
:1039C000A8DF0028D6D0FFF745FAD3E70220EFE7BB
:1039D00030220020446973636F6E6E6563746564A2
:1039E0002E000000436F6E6E65637465642E0000E8
:1039F0008820002010B51A4C0188606810290ED06C
:103A000011292BD1401E606028D1FFF72CF9002826
:103A100024D02168002921D0BDE810400847D0B942
:103A200000210122084600F063FA08B107280FD1EF
:103A300007220221012000F05BFA08B1072807D114
:103A400004220221002000F053FA20B1072802D0FE
:103A5000216801B188476068401C606010BD0000AB
:103A6000A02000202DE9F04701883B4E40F2F319D9
:103A70004FF6FF7510291BD011293ED0122954D0C2
:103A8000502946D1C188F289841D914241D1618972
:103A900002293ED18688304601F02EFE050038D03E
:103AA00004F10C0000F0F6F8A8B3294630464EE0C9
:103AB000C17B8788044601292BD1A846284601F0FE
:103AC0001BFE050017D02F80002028722348434694
:103AD0004A460168C5F80A104068C5F80E0004F1AE
:103AE000100105F10A0001F0A9FE6872F0890028B2
:103AF0000FD129462AE0042013E0808801F0FCFD64
:103B0000040006D06068FFF731FA08B105F0B0FD97
:103B10002580BDE8F087FFE76868FFF727FA0028EF
:103B2000F7D0BDE8F04705F0A3BD878806463846C4
:103B300001F0E2FD0400ECD02B464A4606F10801F4
:103B400004F10A0001F07AFE607221463846BDE8B1
:103B5000F04700F07FBC0000EC230020A8200020EC
:103B60002DE9F047044603883F480122A4B000F144
:103B7000480A102B09D0112B54D01A2B70D1217A5E
:103B8000B2EB111F53D2012352E0D0E911218A4335
:103B90000546011D12A805F019FC442212A901A82E
:103BA000FEF71CFDDFF8C0900026374609F14409F6
:103BB0000DF104080AE000BF08EB46001D228388CF
:103BC0004946281D009705F0B3FB761C0198B042CA
:103BD000F2D8686CA688C04305F0CCFBA0F57F4105
:103BE000FF3917D005EB400001238680324651464D
:103BF000281D05F010FC012332464946281D05F01A
:103C00000AFCE07B02280BD000231749A2884C3124
:103C1000281D20E024B00420BDE8F047FFF71AB9C2
:103C20000123F2E70023A2885146001D13E0002380
:103C30000D490546A2885031001D05F0ECFB207AA5
:103C40000221B1EB101F01D2012300E0002306493D
:103C5000A2885431281D24B0BDE8F04705F0DBBB35
:103C600024B0BDE8F08700000824002010B5044609
:103C70000748007800280AD0204601F069FB20465A
:103C800005F0FAFD2046BDE8104001F0E3B810BD94
:103C9000DC200020007800F0010070470149085C3A
:103CA000704700008CA80200084908B5085C009025
:103CB000684603F0BFF8D0F810050099C84010F02E
:103CC000010000D0012080F0010008BD8CA8020096
:103CD000094908B5085C0090684603F0ABF8D0F8D5
:103CE0000425009B0121994021EA0203C0F8083510
:103CF0001140C0F80C1508BD88A802000249085CF4
:103D0000012103F0D6B8000088A802000249085C2F
:103D1000002103F0CEB8000088A80200084908B5C9
:103D2000085C0090684603F085F8D0F80405009917
:103D3000C84010F0010000D0012080F0010008BD53
:103D400088A802007CB50024084E25460122305D7B
:103D5000009500231146019502F0D3FF641C042C4A
:103D6000F4D3BDE87C4000F003B8000088A802004E
:103D700010B500242046FFF7C1FF641C042CF9D3C2
:103D800010BD10B500242046FFF7C0FF641C042CB2
:103D9000F9D310BD10B50246064B4FF0FF3000219D
:103DA0005C5C944201D1084610BD491C0429F7D33C
:103DB00010BD00008CA8020070B50C4E0C004FF036
:103DC000000530600BD0012000F06AF808B1022035
:103DD00004E0002000F064F800B10B20207070684F
:103DE00010B9FEF740FF0546284670BDA020002010
:103DF00010B5002000F0D0F908B1062806D1012046
:103E000000F0CAF908B1062800D1002010BD00005A
:103E10002DE9F0470D468146FFF7BCFF0446042814
:103E200036D2DFF874801B481C4EA8F10C0725B36E
:103E3000012D0ED0022D2BD104EB440030444578E7
:103E4000002D25D0B968002922D02846BDE8F047CA
:103E5000084704EB4401755C0E44717849B10E4A81
:103E60004FF40041093A8068FFF73CF808B987F839
:103E70000390B17808F80410E2E78068FFF776F85D
:103E800004EB4401314418F804008D78A842D7D0DF
:103E9000BDE8F08790A802009C2000208C23002021
:103EA000FFF702BF0146104810B50088042907D06B
:103EB00007290ED00A2915D1BDE8104005F0C8BC6D
:103EC000132176DF0CE000280CD0BDE81040FEF78F
:103ED000C1BFA0F57F41FF3904D10448FFF736FB8D
:103EE0000828F0D110BD0000882000207422002096
:103EF00070B50023042810D20D4D00EB4004012AB8
:103F000002D101290CD00022094E00EB40003044C0
:103F100061B1012906D0022906D00723184670BDD9
:103F20000E30C2B22A55F9E74270F7E78270F5E722
:103F30008C230020044A014600201279D20702D0C7
:103F4000084600F04DB870479020002070B5064636
:103F50001E480024C0E90161B00720D500250122D8
:103F600011462846FFF7C4FF6D1C0446042D02D2FB
:103F7000002CF4D013E094B940F266620421144896
:103F8000FEF7F4FE04000AD1FEF7DEFE040006D1BF
:103F90000F48104A0021001FFEF768FF0446F00793
:103FA00001D0FFF7CFFE74B909480B4A00210C3845
:103FB000FEF75CFF040006D10548084A01210838D5
:103FC000FEF754FF0446204670BD000090200020FC
:103FD0009CA8020041420200D1580200372D020085
:103FE0002DE9F05F6A4C054600266078B34618B1AB
:103FF00084F801B001F054FC664F4FF47A694FF435
:10400000C87A4FF00108182D62D2DFE805F0AC0C39
:104010000C31404D62676B746B74BE7D7D7D7D7D20
:10402000ACAFB2B5BEBE0020FFF778FE00284FF05F
:10403000000008D0FFF762FE022D02D14FF4E160CC
:1040400008E0484606E0FFF761FE022D01D1C820D6
:1040500000E05046410CC0034FF4FA72801841F161
:104060000001257052000023FEF782FA01462AE083
:104070000020FFF753FE00284FF0000004D0FFF7A8
:104080003DFE4FF44870E5E7FFF740FEDFE7002014
:10409000FFF744FE00284FF0000002D0FFF72EFE8D
:1040A000CFE7FFF733FED4E70020FFF737FE002805
:1040B0004FF0000002D0FFF721FE01E0FFF726FEDF
:1040C000257041F69A1100223868FEF70BFF06466C
:1040D00046E00020FFF7FCFD257008E0002051E0DD
:1040E00025703DE084F801800120FFF7F1FD0022FA
:1040F00040F6CD41E8E784F801800120FFF7E8FDB4
:1041000000224FF48041DFE77868FEF72FFF064674
:10411000D5F1110000D02EB10220FFF7EFFD84F899
:1041200002B01DE0012816D980B2C8214843C1174A
:10413000C90341EA5041C0034FF4FA72801841F1BB
:10414000000152000023FEF713FA014600227868AE
:10415000FEF7C8FE06460220FFF7D8FD84F802806D
:104160003046BDE8F09F01F09BFBB9E701F098FBFA
:10417000B4E701F095FB04E001F092FB0020FFF7AB
:10418000C5FD0120FFF7C2FDAAE7FFF7FAFDA7E78B
:104190009020002090A8020010B5FFF77FFD0321BA
:1041A00002F016FE002010BDF8B5871C00208DF827
:1041B00000000E4601256846FEF7E8FE124C206816
:1041C0003060D4E90001401AA168091ABE1C06E05B
:1041D00001F046FDD4E90001401AA168091A491C02
:1041E0008E42F5D8A1682068084004EB8000C168C1
:1041F00041F00301C1602068384420609DF8000050
:10420000FEF7E8FE2846F8BD902B002030B4826807
:104210000468531C8360A154D0E901128A4202D37E
:1042200030BC02F07CBB30BC70470000034803C8C0
:10423000814201D10120704700207047902B00205F
:1042400000780221FFF7E4BD05494FF0FF3208284E
:1042500041F8202002D3084480F85820704700001D
:1042600030270020F0B54FF0FF3512B100230826AB
:1042700001E008230C260C4C05E000BF54F8237025
:104280007F1C04D05B1CB342F8D32846F0BD26182F
:104290005DB286F8305044F82310002AF5D1E118B9
:1042A00081F85800F1E70000302700200249084457
:1042B00090F93000704700003027002070B50446A8
:1042C0004FF6FF750A462846AC4208D14FF4807479
:1042D0002146104604F08EFBA04209D070BDFF2C91
:1042E000FCD82146104604F078FB08B1204670BD8A
:1042F000284670BD70B5084C050009D010342168FF
:10430000002907D008682060496828468847F6E7F2
:104310000834F4E770BD00001C2700202DE9F05F91
:1043200026484168F1B3DFF898B00E688146DBF8A3
:10433000004087688078E11B21F07F45ED1CB0B913
:10434000DFF880804FF48030C8F84403C8F80403D5
:104350001120FEF7BBFA1120FEF7C3FA4FF0010A55
:10436000C8F800A02F2002F03FF889F802A0B5425B
:1043700000D23546124BE8193C3320F07F401860DC
:10438000DBF800105A46091B21F07F41001B20F08A
:104390007F40C91C81420FD9106818602F2002F09D
:1043A00023F800E004E0BDE8F05F1120FEF7A4BAB6
:1043B000BDE8F05F04F020BFBDE8F09F20210020A1
:1043C00004150140001001402DE9F0411788064610
:1043D000B81D14460D46984202D90C20BDE8F08164
:1043E0003188072206290AD34FF4486C4FF6FF7331
:1043F000614501D9994202D17088062801D2104640
:10440000ECE7604501D99842F9D1994203D098422E
:1044100001D08142F3D80520E85520881221401CA4
:1044200080B2208029542088401C80B2208041190D
:10443000308805F0F4FE2188084480B220804119BC
:10444000708805F0ECFE2188084420800020C5E734
:10445000FEF700BD38B54A7A0F4B62B100220A72EE
:104460005969002906D001228DF80020ADF802001C
:104470006846884738BD0A7A62B19B684C68024634
:1044800019462046FEF72EFD0028F3D0BDE838403F
:1044900005F0EEB85B68F1E7EC230020F0B585B0DD
:1044A00016460F4604461D4614220B496846FEF781
:1044B00095F80A488DF80870ADF80240ADF80A602A
:1044C0008DF80C50017800222046FFF7D9F9684694
:1044D00000F092F905B0F0BDA8A90200EC20002080
:1044E0007FB50C4610B1012004B070BD20790026C4
:1044F00038B141F61D5501281BD0022826D00F20C7
:10450000F2E70220207102960396E0680190694666
:1045100001A804F0CDFD50B102988188E1800088A7
:104520002081BDF80010029804F040FEDCE70A206C
:10453000DAE70A4B6A460021A01D04F075FD38B188
:10454000064918398E61CE610A28CDD12846CBE7BD
:1045500002488188019804F029FEF5E74C210020EB
:104560002DE9F04100260125144C22E06068226903
:1045700000EBC607387805FA00F1114217D08A43DC
:10458000226102F087F802463878E36805FA00F104
:10459000194002FA00F3994209D17978012901D032
:1045A000012100E0002151407A6802B19047761C59
:1045B000F6B220788642D9D3BDE8F0810C210020E4
:1045C0000E4910B50A784C780023A24212D0521C32
:1045D000D2B20A70022A00D10B70084A0B780C3252
:1045E00052F8232002608868104420F07F408860E1
:1045F000012010BD0360002010BD0000202100201C
:1046000013460A460021FFF749BF00002DE9F84391
:10461000104D0F4680461E4691466946286801F0B7
:104620008AFD040014D01C21FDF7F1FF0120207148
:10463000C4F81490380BC4F80080C4E902606946DD
:10464000286801F099FD04F08BFC0020BDE8F88398
:104650000420FBE70CAA020010B503780022072B08
:1046600006D2DFE803F005040610202930000A70A6
:1046700010BD01230B7003898B818388CB81C068B7
:1046800088600A7410BD02220A7002898A818288B9
:10469000CA81C2688A60807D062802D00020087422
:1046A00010BD0120FBE703220A70C2888A810289BB
:1046B000CA81C068886010BD04230B70C0888881DF
:1046C000CA818A6010BD0520087010BD70B5064D06
:1046D0000646002455F8241009B130468847641C6A
:1046E000042CF7D370BD0000FC28002030B5044630
:1046F000006885B00D46806800281CD014216846EB
:10470000FDF785FF0195A0680490207910B101287C
:104710000DD104E001208DF80000206904E00220A2
:104720008DF80000E0680003029060690390206843
:1047300081686846884705B030BD70B586B01546BB
:104740000C00064619D0112C17D0082C15D01421B6
:104750006846FDF75CFFADF80260304600F01EFFD2
:10476000ADF804000D2C0AD0862C1CD007208DF843
:1047700000000294684600F04DF806B070BD0320BA
:104780008DF8000025B12878C00701D0012000E095
:1047900002208DF8080000208DF80C0041F2011075
:1047A000ADF80A00E6E706208DF80000E2E7000019
:1047B00010B50446408800F0F1FEA0800248016870
:1047C0002046BDE810400847B82000202DE9F04100
:1047D00007460024064E074D05E000BF56F824109A
:1047E00038468847641CE8788442F7DBBDE8F081EE
:1047F000D0260020DC20002010B50446408800F0C0
:10480000CDFEA080024801682046BDE81040084760
:104810007CA902000149096808470000D0A90200EC
:1048200070B586B0044614216846FDF7F0FEA089F5
:104830000026A0F54040ADF8040020782D4D062854
:1048400035D2DFE800F0340303032E4EA08900F0D8
:10485000C7F9012130B9E08943F6FE72A0F5404066
:10486000904224D8A07B8DF808002078032810D02F
:104870005FF000008DF80900A0680390606850B1F7
:1048800009208DF8000060680490684603F03EFC43
:104890000DE00120EEE708208DF800008DF81010E3
:1048A000F3E7A08900F09CF908B1E08938B1687895
:1048B000002802D06E7003F059FD06B070BD60682C
:1048C00038B10B208DF800006E70AE7003F04EFD15
:1048D000DBE70A208DF80000BDF8040003F0D6FDE8
:1048E000F2E713208DF800004FF6FF70ADF80400DA
:1048F000CBE70000C820002038B504460E480078F9
:10490000A8B1A4F57F40FF380FD0684604F062FAE2
:1049100078B10521017001210171C480684604F05D
:1049200067FA04F00DFB002038BD042038BD0220DA
:1049300038BD082038BD0000542100200C4808B5BF
:10494000007888B1684604F045FA78B10621017014
:10495000684604F04DFA0748017809B10121017356
:1049600004F0EEFA002008BD022008BD082008BDB2
:1049700054210020C0290020F0B589B014216846D8
:10498000FDF745FE2C4C207818B16846FFF79EFED7
:1049900050E0201D012105AAFDF748FCB8BB4FF0EF
:1049A000102041690004026940694B1C01D100FBE1
:1049B00002F1224800220161A1F54051C160204965
:1049C00002F0CDF8002820D11F481C238C221D495D
:1049D000006801F09DFB03F04DF9050014D0022D95
:1049E00012D000270126062D12D006A804F0F2F9F5
:1049F00088B106700C2D18D2DFE805F0170F170FDD
:104A000017161716171113110B2009B0F0BD11E07E
:104A100026706760B9E70820F7E7077105E0032112
:104A200000E00221017100E0067106A804F0E0F93F
:104A300004F086FA0020E8E754210020D421002069
:104A40001CAA02000C290020E4A9020038B50400C9
:104A500014D0694604F02CFBA0B1BDF8000000EBB7
:104A60008001094800EB8100C16849B1A17A39B1E0
:104A7000C168491EC1600020A07238BD052038BD44
:104A8000062038BD0A2038BD982900201FB501A98D
:104A9000684604F0C9FA04B010BD07B513460A46CB
:104AA0006946002004F0C0FA0EBD07B513460A4659
:104AB0000021684604F0B8FA0EBD20B119B10068B3
:104AC0000860002070470520704700007CB50D4647
:104AD000040019D0C5B1694604F0EAFAB0B1BDF8D6
:104AE00000000B4900EB800001EB8000012101AACE
:104AF0000C306668FDF7C1FB2E6060680C306860A2
:104B00000120A07200207CBD05207CBD0A207CBD58
:104B10009829002018B10323002205F08DBD05203F
:104B200070470223002205F087BD12B1022305F071
:104B300083BD052070470000094908B50A69042AA9
:104B40000BD0084A096942F82100054801211030BC
:104B50006A46FDF792FB002008BD0C2008BD00004E
:104B600034210020FC28002038B5044609480D46B1
:104B7000007858B164B16946284605F057FE002810
:104B800003D1BDF800102180658038BD022038BDFA
:104B9000052038BD5421002010B504460E48007889
:104BA00098B1A4B12188022913D80C4A01EB8100E5
:104BB00002EB800260885289C31C934209D805F039
:104BC00029FE00202080608010BD022010BD05203D
:104BD00010BD042010BD00005421002098290020A1
:104BE00043F6FE71A0F54040884201D8012070478D
:104BF0000020704710B504460078182802D1FEF74F
:104C000005FE207010BD10B504460078182802D1AA
:104C1000FEF7FCFD207010BD70B51346002206465D
:104C20001546862902D0112902D002E0012200E0B7
:104C300001250D4C73B1A179FEF722FE2A46617958
:104C40003046FEF71DFE0022A1783046FEF718FE22
:104C5000002203E0A178FEF713FE2A466178304671
:104C6000BDE87040FEF70CBEF4200020406804F060
:104C7000C7B8000070B508B1012070BD194C0025FF
:104C8000207B08B1257301E000F0A0F82078082807
:104C900026D2DFE800F02504080C10251420BDE81A
:104CA000704000F021B8BDE8704000F07DB8BDE86C
:104CB000704000F05FB8BDE8704000F03BB860881D
:104CC000084900EB8000283901EB80004068BDE80E
:104CD000704002F0AFBF6560BDE8704002F0B8BF41
:104CE0000F2070BDC02900201149F0B48A1C00209B
:104CF0000346A1F128050C18A67A4EB1A37200EB69
:104D0000800405EB8404E66816B9247C012C0AD0E3
:104D1000401C80B20228EED30B704B804B60F0BC7D
:104D200041F61D5070471080F0BC00F03DB8000007
:104D3000C02900200C48418801EB8102A0F1280124
:104D400001EB8201CA6852B10521017007480221B6
:104D50008180016800230122054801F0D9BE0422A8
:104D600002704968F6E70000C02900205C2100209D
:104D7000D421002038B50A49084803240B6842684A
:104D8000898803EB810153880470DB1C00201B041D
:104D900000909B0B034801F081FF38BDC029002023
:104DA0005C210020D4210020074910B54888091D46
:104DB00004F0CEF918B1BDE81040FFF7DBBFBDE845
:104DC0001040FFF7B7BF0000C0290020F0B51F4812
:104DD0001F490125067802248B88A0F12802082E9D
:104DE00019D2DFE806F00418181B222F2F170189AB
:104DF000491C01810021418080F80C1001EB8103E6
:104E000012F8233043B100234418491C89B2A3721D
:104E10000229F3D30570F0BD0123F5E742685288FB
:104E2000D21C1A448A800470F0BD46880D6806EBD7
:104E3000860602EB860256680E60556013818C80F0
:104E4000062100E007210170F0BD0000C02900200C
:104E50005C21002030B501888588224C85B050291E
:104E600024D0522902D0542932D103E0284600F040
:104E7000A1FE2DE014221C496846FDF7AFFBADF8FA
:104E80000250284600F08AFBADF8040000F034F927
:104E9000002261792846FEF7F3FC0022217928469A
:104EA000FEF7EEFC6846FFF783FC11E0017B012969
:104EB0000ED1817A01290BD10089A0F52451023944
:104EC00006D10121284600F0A9FEA07803F076FB68
:104ED000E07803F073FB207905B0BDE8304003F0C3
:104EE0006DBB0000B0200020F8A8020010B50446F9
:104EF000007800280FD1608800F05CFE608800F028
:104F0000A3F9002807D00449608801220979BDE887
:104F10001040FEF7B5BC10BDB020002010B5124CFB
:104F200000202070FEF772FCA070FEF76FFCE070AE
:104F3000FEF76CFC2071FEF769FC6071A1781829FE
:104F40000FD0E17818290CD02179182909D0182818
:104F500007D00121601C03F039FD012020700020E2
:104F600010BD032010BD0000B02000202DE9F0414D
:104F700092B000F0D9F86846FEF720FC00246E4697
:104F80000D4D4FF6FF780DE006EB4407B88800F0B2
:104F900005FB404504D1B88801222979FEF770FC51
:104FA000641CA4B20098A042EED8287903F006FB56
:104FB00012B0BDE8F0810000B02000207CB50446AE
:104FC00000781C4D08282FD1607A38BB207A4FF624
:104FD000FF7601280DD0072802D0082824D11EE032
:104FE000A08800F019FAB0421ED0012100F016FE90
:104FF0001AE0A0886A46012102F080FF70B901988A
:10500000007858B1A08800F007FAB0420CD0012215
:105010002979FEF735FC287903F0D0FA04E0054839
:105020000021401C03F00DFDA878BDE87C4003F092
:10503000C5BA0000B020002010B504460A484178E7
:105040002046FEF707FC68B10848002101EB410249
:1050500000EB82025288A24201D1C8B210BD491CA5
:105060001429F3D3FF2010BDC2200020C02400204B
:1050700070B5094D094E002404EB440005EB800097
:1050800071784088FEF7E6FB20B1641C142CF3D342
:10509000FF2070BDE0B270BDC0240020C2200020FF
:1050A0002DE9F041124E07460125BD403068FDF75D
:1050B0005DFF00280DD10F4C2069284207D13846EA
:1050C00001F0E8FA0028E06805D0284304E0A8438E
:1050D0002061BDE8F081A843E06020692843206199
:1050E000A1683068BDE8F0410022FDF7FBBE00007A
:1050F000DCA902000C2100201CB5054AD2E90212ED
:10510000CDE900120022694602F01DFF1CBD00001F
:1051100010A9020003484FF6FF7181800121017040
:1051200000207047BC20002010B54FF6FF7002F041
:105130009DFE03498880BDE8104004F0DDBA000000
:10514000BC2000202DE9FC41804600F027FA002415
:1051500003250127A0F57F412646FF3908D06A467E
:10516000082102F0CBFE18B90198841D86880568D5
:1051700032462B4621464046A9DF042804D00828A1
:1051800004D00B2808D002E0112000E00020002FFE
:1051900000D10B20BDE8FC810027A80701D501251F
:1051A000E6E73443F5D0002426460325E0E72DE961
:1051B000FC41804600F0F2F90646A0F57F40FF383A
:1051C0000ED001252A466D1C0027ADB26B46082182
:1051D000304602F0BDFE040006D0072C25D025E0A5
:1051E00043F20200BDE8FC81019903230A1D0B6014
:1051F0004046891DAADF040004D00C2C09D0052CE0
:1052000009D009E032460821104602F037FF044673
:105210000CE0012700E000240821304602F01AFFCC
:1052200000B10324002FCDD100E00C242046D9E7A3
:1052300004488088A0F57F41FF3901D004F05CBAB2
:1052400070470000BC2000200EB502A9019100F0BB
:10525000A5F96A46012102F051FE08B100200EBDF9
:10526000019800780EBD00002DE9F04107464FF689
:10527000FF760A48ABDF10B10320BDE8F081074C90
:1052800043F20305A41E324661883846A7DFA842D0
:10529000F3D16088401C6080F5E70000BE2000204C
:1052A000428800EB82020C328A4201D90220704708
:1052B0008188A1F57F42FF3A03D0008808B1002021
:1052C000704701207047884204D20068401C01D01A
:1052D00001207047002070473EB5027802230C463B
:1052E000B3EB520F17D1B0F80110ADF80010C17830
:1052F0008DF802108188ADF8041080798DF80600D1
:1053000002AA01A92046FDF7EDFC032202A9684686
:10531000FDF78FF908B100203EBD01203EBD000021
:1053200010B50C46FFF788FEFF280CD0074900EBAC
:10533000400001EB8000416821600189A180807AF2
:10534000A071002010BD052010BD0000C024002069
:1053500070B5018892B0102959D1011D34226846D8
:10536000FDF73CF99DF804004FF6FF760321344623
:105370006D46B1EB500F2AD002F036FF9DF80400C5
:1053800040080ED001280CD0022820D118E00F9937
:10539000281D1131FDF742FC18B100BFBDF83440A3
:1053A00015E00EAA0DA9072002F0F2FE0028EED1AA
:1053B0000DE00F99281D491CFFF78EFF0028EDD145
:1053C0000EAA0DA9072002F0E3FE0028F1D1BDF8D6
:1053D0000000291D00F046FEB44218D0BDF80000C0
:1053E000214600F0C5F8BDF80000ADF836000020F9
:1053F000ADF83840074E8DF834000DAD044600BFBF
:1054000056F8241028468847641C022CF8D312B0A2
:1054100070BD000024A90200094A002101EB4103EC
:1054200032F82330834205D101EB410002EB8000CA
:1054300040887047491C1429F0D34FF6FF7070471D
:10544000C02400203EB50C46054602F0CDFE0BE020
:10545000BDF80000A04207D02846029900F02EF8BF
:1054600010B1BDF800003EBD01AA6946072002F058
:105470008FFE0028ECD14FF6FF703EBD10B50D4CED
:1054800018200D4A607000204FF6FF7100EB4003BA
:1054900002EB8303401C59801428F7D3FEF7B6F9BA
:1054A0006070182803D001202070002010BD032058
:1054B00010BD0000C2200020C02400202DE9F041D2
:1054C0000C46054600F1110701F111061022491C96
:1054D000401CFDF7AEF848B9681C00F0D1F928B1BE
:1054E000601C00F0CDF908B1012400E00024314631
:1054F0003846FDF793FB3B780222B2EB530F0CD0FA
:105500000321B1EB530F08D03378B2EB530F04D023
:10551000B1EB530F01D0012100E00021084201D17D
:105520008C4302D00120BDE8F0810020FBE7018818
:1055300011B9421892780AB101207047491C082914
:10554000F7D30020704710B50C460346FFF7EFFF76
:1055500000280AD018882188884205D10822A11C79
:10556000981CFDF766F808B1002010BD012010BDA1
:1055700002F0E0BF70B50446FFF74EFF0546204637
:1055800002F0BFFC4FF6FF7104468D4203D014B900
:10559000284602F0CFFF204670BD000010B5FFF78F
:1055A0004BFDFF2805D0044900EB400031F82000F6
:1055B00010BD4FF6FF7010BDC02400203EB504465C
:1055C00002F012FE0EE0019920464631FFF7BBFFC4
:1055D00028B9019920462A31FFF7B5FF10B1BDF86F
:1055E00008003EBD6A4602A9072002F0D1FD00284E
:1055F000E9D14FF6FF703EBD38B504460A48012197
:105600006A46FCF7C5FE68B90848606002F068F9B0
:1056100005491C238C22087404488C39001F00683B
:1056200000F076FD002038BD6C2A002010AA020090
:105630002DE9F0412D4F002518B17D600120BDE816
:10564000F0810879012258B1294E01280CD0274C4D
:105650004FF002080834022821D0032842D128E064
:105660000A7102F0F5FA3BE05FF0000000EB800108
:1056700016F82110022908D0401C80B20228F5D368
:105680003A707D6041F61D50D9E700EB800006F8C6
:10569000205006EB8000406802F0CCFA20E00D714B
:1056A000A4F80480002301221248216801F030FA96
:1056B00016E00D71206802F0BDFA0D49236828310B
:1056C000498801EB810206EB8201D1F804C0C4F8DD
:1056D00000C04B60A3880B81A4F8048006F8225018
:1056E0000028ACD07D600E20A9E7000054210020E6
:1056F00098290020D42100200146034802888A42CC
:1057000000D0002070470000D82300202DE9FC5F66
:105710000E008346DDE90C47C6F10000984692462C
:10572000814600D40846012503E000BF90FBFAF053
:105730006D1C5045FADAA84500D9454624B1002E23
:1057400001DB780700D5641EB80702D5B8F1000F59
:105750000AD0F80708D13CB1A54205D2202158460D
:10576000641EFEF753FDF6E7002E02DA4E462D21A9
:1057700002E0780703D52B215846FEF747FD07F0D6
:10578000030002280BD1B8F1000F08D13CB1A542AB
:1057900005D230215846641EFEF738FDF6E7CDE904
:1057A0000047434652463146584604F04DFDBDE899
:1057B000FC9F000070B50E460446007918494FF46E
:1057C000A27501EB4010017F2068A1B14FF48871F0
:1057D00002F01CF94FF49071206802F017F94FF4B1
:1057E0009271206802F012F92946206802F00EF941
:1057F0000C49206809E04FF48E7102F0F6F8294652
:10580000206802F0F2F808492068C0F80413206804
:1058100000F091FE3146BDE8704000F070BE00001F
:105820009827002010030200800002000248007A3E
:10583000002800D0012070476C2A0020F0B5848831
:10584000A518944200D82246A41AC288D6189A42B3
:1058500000D81346D21A4B880788BB420CD3408825
:10586000834209D88888A04206D3A84204D8C888B1
:10587000904201D3B04201D90020F0BD0120F0BD1B
:105880000021425C0AB101207047491C1029F8D35D
:1058900000207047800701D000207047012070472A
:1058A0000A4810B5807860B1002401E0022C06D0CF
:1058B0002046FEF723FA641C042CF7D310BD032402
:1058C000F6E7BDE81040FEF753BA00009020002034
:1058D00003480179C90702D00078FEF781BB704701
:1058E0009020002006490120086006480168C1F3A5
:1058F00000410029FAD10449002088707047000057
:105900000C000040180400401C27002017210180D3
:1059100041800021017141711B218171C17170476A
:105920002DE9FE4F2A4D984691460F00824601D040
:1059300000260DE0684600F0C1FB6A460021504693
:1059400002F04BFA2878009E10B99DF8090098B132
:105950004A463146504604F0DBF804460146002230
:105960005046FFF759F9112C1AD008DC74B3082CF3
:105970002CD00D2C09D129E00520BDE8FE8F862C06
:105980001AD0A4F54050023820D00325B8F1000FFA
:1059900004D0324621465046FEF7CFFE2846ECE7BB
:1059A0003A4629795046FDF76BFF4A46E97850465A
:1059B000FDF766FF0025E9E73A4629795046FDF7ED
:1059C0005FFF4A46E9785046FDF75AFF2546DDE776
:1059D000F42000202DE9F041204F0E4615460446E4
:1059E0003978FDF737FF002835D0204602F0D0F98E
:1059F00050B32046FFF7D2FD80462046B978FDF728
:105A000029FF08B1012700E00227204602F0A4FC8C
:105A10000028404602D0FFF7ADFD0DE0A8F57F411C
:105A2000FF3909D0072102F015FB010004D0052938
:105A300002D0204603F038FE2B4632463946204637
:105A4000BDE8F041FEF72ABD2A4631462046BDE8B2
:105A5000F041FEF7D5BDBDE8F0810000EC2000204C
:105A60002DE9F04391B08146FDF7E6FE002820D0F5
:105A70006846FDF7A3FE00246E4617E006EB4405DA
:105A80004946A888FDF7E6FE78B10B4FA888F9785B
:105A9000FDF7E0FE8046A8883979FDF7DBFE014678
:105AA000A88801234246FFF73BFF641C0098A042F0
:105AB000E4D811B0BDE8F083F42000202DE9F047D0
:105AC000394E002780463D46DFF8E090D6F804A026
:105AD00057E003D00446D0F81C8035E099F8002048
:105AE00002EB4201521CD2B289F8002009EBC1013D
:105AF00099F80230091D9A4201D189F8005048688E
:105B00000A780446012A12D0022A02D0032A3BD185
:105B100008E004F0A3F900B10127257434E005740E
:105B2000C06900E070680028F9D170602CE0207C2A
:105B300050BB88686060C868A0600869E060486918
:105B4000A061F07800B165606268B168184B501AC6
:105B500020F07F40984202D2A168084406E0881AEB
:105B6000A16820F07F40814202D9081A206000E03D
:105B7000256065600120A56020742046E56104F081
:105B80004FF9B8F10000A4D199F8001099F801007C
:105B90008142A3D117B97168514502D00120BDE8F7
:105BA000F0870020FBE7000020210020D8270020FC
:105BB000FFFF7F0030B585B00546002414216846FC
:105BC000FCF725FDA5F57F40ADF80250FF3815D054
:105BD0002846FFF7B7FA98B10B2815D0112811D035
:105BE000A0F54051023903D00146284603F048FD94
:105BF00009482246C1782846FDF742FE05B030BD6F
:105C00000E2002E00124F3E70F208DF80000684623
:105C1000FEF7CEFDECE70000B02000200A46024966
:105C20008978FDF72DBE0000B0200020F8B50546AC
:105C300000780C46002620420FD100208DF800008D
:105C40006846FDF7A3F92878204202D12043287046
:105C500001269DF80000FDF7BDF93046F8BD0000B3
:105C600070B588B0214800F092FA2048001F06461F
:105C700000F08DFA1E4DD5E9014105E0C0F389120F
:105C800002EB9050641C044404EA010005EB800020
:105C9000C0688207F2D000200DF1080204EA010377
:105CA00005EB8303641CDB6842F82030401C0228AB
:105CB000F4D3029800F00300012808D002280AD18A
:105CC0000298032101EB905004EB900403E002984A
:105CD000C0F3831004443046002101AAFCF701FC04
:105CE000002800D06C6008B070BD0000A82F002014
:105CF000902B0020A8B0002001F054FB08B1FDF764
:105D0000A9F801F0D7F9FDF7C3F808B1FDF7A2F83B
:105D100057490320FEF71AF908B1FDF79BF86946C9
:105D20000020FEF749F808B1FDF794F89DF800004F
:105D300002287DD05FF0000501F098FD08B1FDF765
:105D400089F8002469460120009401F059FC08B14B
:105D5000FDF780F8684601F0D7FC08B1FDF77AF846
:105D60009DF8080043A120F00F00401C20F0F00037
:105D700010308DF808000F2202A87CDF08B1FDF773
:105D800069F800945020ADF80000A0200194ADF80F
:105D90000200ADF804404FF4C870ADF80600684644
:105DA0007ADF08B1FDF756F80021364800F056FAC0
:105DB00008B1FDF74FF8A0216846FCF728FC022047
:105DC0008DF8000001208DF802000621ADF81000CA
:105DD0008DF87C008DF803104FF496702A492290BC
:105DE0000591B4202390294826902648694614300E
:105DF000FDF7C4FA08B1FDF72DF82248012114304F
:105E0000FDF7B9FA1C216846FCF701FC4FF420307D
:105E1000CDE900404FF47020029003261C488DF815
:105E20000C600590ADF80E408DF81040194800E068
:105E30001CE006906846FDF78DFC08B1FDF70AF8F6
:105E400002F086FB144815A1008806EB004001F023
:105E500037FA2846FCF722FF01F03AF90028FBD177
:105E60003EDF0028F8D0FCF7F5FFF5E7012563E7F2
:105E7000A53E02004E6F726469635F54656D706C7D
:105E800061746500602200208A200020197A0200D7
:105E9000657A0200514402003022002054656D7082
:105EA0006C617465206578616D706C6520737461D8
:105EB000727465642E00000070B5144682880E4628
:105EC00005462088111D0144921C994201D8FE2AE2
:105ED00001D90C2070BD521C32542088FF21401C77
:105EE00080B2208031542088401C80B220808119EB
:105EF000288804F094F92188084480B22080AA8878
:105F000042B1A96841B13044FCF768FB2088A988F8
:105F100008442080002070BD072070BD2DE9F047A7
:105F2000C7880446181D16468946B0FBF7F1B0FB3A
:105F3000F7F207FB12009A193A44D21CB2FBF7F2AF
:105F4000DDF820A001E02468491E0029FBD13D1A9C
:105F50008846B54216D818E0BAF1000F05D02118CE
:105F600009EB08002A46091D04E0204409EB08015A
:105F70002A46001DFCF732FB00202468761BA8444B
:105F8000B74201D9354600E03D46002EE4D1BDE8D8
:105F9000F087000030B5024669B101F031FA002106
:105FA000084C0BE001EB410304EB830315685B88AD
:105FB000AB4202D11160002030BD491C8142F1D3B7
:105FC000052030BDE8210020F8B50E4601781446C2
:105FD0000546012901D1687830B12088821C9A4297
:105FE0002DD8012902D006E00720F8BD69780144C8
:105FF000891C994223D8181A801E87B2ADF8007008
:106000002188B01C084469467DDF0028EDD128783E
:10601000022805D1BDF80010B94201D809210AE0D3
:106020000821012805D16878B84202D8ADF80000EF
:1060300001E0ADF80070BDF80000FE2801D90C2089
:10604000F8BD2288401CB0542088401C80B22080BB
:1060500031542088401C2080BDF800100844208066
:106060000020F8BD70B505460C004FF0FF0020D0B1
:106070004FF6FF76B5421CD00E48012241782846E3
:10608000FDF7FEFB2846FEF7D7FFFF2803D1FEF7FA
:10609000EFFFFF280DD0084B00EB400203EB82011D
:1060A0004D8023F8226022684A60A2880A81A27982
:1060B0008A7270BDC2200020C0240020034A002143
:1060C0009268C0E90021816070470000F420002040
:1060D00070B54FF6FF750E46A84201D1002000E0D2
:1060E000401C84B208E02146304602F09EFC08B114
:1060F000204670BD641CA4B2FF2CF4D9284670BDA4
:1061000010B5FCF720F908B1002010BD112010BD1A
:1061100010B531B1B2FBF3F403FB14241CB1092018
:1061200010BD0E2010BD01600021416081608281A0
:10613000C381084610BD70B50C460546FCF7B8F89B
:10614000002802D021882868084470BD10B50A884C
:1061500049888A4203D1FCF7EDF8012010BD0020E8
:1061600010BD70B50C460546FCF7C7F8002802D0F4
:1061700061882868084470BD10B50A8849888A4239
:1061800003D1FCF7B1F8012010BD002010BD08B507
:1061900001216A46FCF798F9009808BD08B56A46DF
:1061A000FCF76BF8009808BD38B5044600258DF85B
:1061B00000506846FCF7EAFE216862680868904271
:1061C0000ED9401E08600178238AE26801FB03258E
:1061D000227A2168101AC0B20A79824200D208716C
:1061E0009DF80000FCF7F6FE284638BD38B5054698
:1061F00000208DF800000C466846FCF7C7FEE868F2
:10620000298A201AB0FBF1F12A681068431C136038
:1062100001709DF80000FCF7DDFE38BD10B530B10F
:10622000017A42680368891AC9B21A6006E00E2032
:1062300010BD03681A68541C1C601170491EC9B255
:10624000F7D2006800210171084610BDC20800F0B5
:1062500007030120895C98400840704710B560B181
:106260000161172120F8021B20F8021B1B2100F8F6
:10627000021BFFF74BFB002010BD0E2010BD0000DD
:106280002DE9F043858895B00C46002D3DD101885D
:10629000DFF824810026DFF82491012723293CD050
:1062A00006DC102909D011290CD022296DD150E02B
:1062B0003A290BD0552968D12AE00146204601F041
:1062C000DFFB62E0A01DFFF721FB5EE02246408974
:1062D00034F8061F814200D808466080172800D293
:1062E00017206080106970B1607960B1D8E9001042
:1062F000CDE90310ADF80E506088ADF810001369B9
:1063000003A9104698476671267115B0BDE8F08361
:106310000146204601F002FC37E0011D342206A8A8
:10632000FCF75CF9BDF81800BDF81C2004EBC001B7
:106330004A7322694AB3D8E90432CDE90432ADF890
:106340001200487B8DF814002269204604A990476A
:106350001BE00496059630F8041F04EBC102017996
:10636000127B8A4200D21146ADF81010ADF812101F
:106370000088002204A990DF020006D0B9F80000CE
:106380000F4907EB004000F09FFFA07A0028BCD027
:10639000E18828469EDF02000BD0112AB5D0B9F85B
:1063A000000015B007EB0040BDE8F043054900F0E0
:1063B0008BBFA672E772A8E72CA90200E821002093
:1063C00034AD0200ACAC020000F18040006800284F
:1063D00000D00120704708B500F180400021016025
:1063E0000068009008BD000000283ED01F49204AE8
:1063F000096800BF00BF00BF00BF00BF00BF00BFF3
:1064000000BF91422FD000BF00BF00BF00BF00BF40
:1064100000BF00BF00BF00BF00BF00BF00BF00BF84
:1064200000BF00BF00BF00BF00BF00BF00BF00BF74
:1064300000BF00BF00BF00BF00BF00BF00BF00BF64
:1064400000BF00BF00BF00BF00BF00BF00BF00BF54
:1064500000BF00BF00BF00BF00BF00BF00BF00BF44
:1064600000BF00BF00BF0138C3D17047D02100205A
:106470000024F40070B50F4C0025207808B1852564
:1064800016E00021A16061602161E1604FF0E02031
:10649000D0F80001012610F0010F03D107210020E0
:1064A00000F02DF801F01CFA08B9034806602670C8
:1064B000284670BD1C2700201805004008B50020A4
:1064C0008DF800006846FCF761FD0648C168491E6A
:1064D000C160C06808B9FFF705FA9DF80000FCF735
:1064E00079FD08BD1C27002000F01F02012191400A
:1064F0004009800000F1E020C0F880117047490792
:10650000090E002806DA00F00F0202F1E02282F8FC
:10651000141D03E000F1E02282F8001400F01F02D5
:10652000012191404009800000F1E020C0F8801274
:10653000C0F800117047000B40B270472DE9F041E0
:106540000E46804602F0A6F8204D0028404616D0A0
:10655000FDF7ACFE284490F858008009032802D0CB
:1065600001280AD003E0404600F08EFC28B1032148
:106570004046BDE8F04100F045BC0221F8E702F0DA
:1065800095F8002820D04046FDF790FE0446104FB5
:106590004FF4807007EB840100EB8400D1F81025E4
:1065A00080B242F00102C1F8102500F0ABFC002ED1
:1065B0000AD04046FDF77AFE55F82000002803D0A7
:1065C0000120A040C7F80403BDE8F0813027002077
:1065D000006000402DE9FC41DFF8AC80044608EB88
:1065E0000400002790F930001346C0170E46401CE7
:1065F00001D0082744E0F27819462046FDF732FE24
:106600000546401C3BD0B07868B16846009400F065
:106610001FFC009900EB8100D0F8001721F0020167
:10662000C0F8001707E000217378204600910A4661
:10663000019100F07FFBF078C0B11448317800EB95
:106640008500D0F81025124B1A40C0F810254FF4E1
:106650007C524FF4403302EA042203EA01410A4328
:10666000D0F810150A43C0F8102509E008EB050022
:10667000327810F8581F41EA8211017000E00427B7
:106680003846BDE8FC810000302700200060004053
:10669000FFC0FCFF10B500F0F7FB002800D0012080
:1066A00010BD000070B5144D95F8640008B10820C5
:1066B00070BD0020411E2A18401CC0B282F8301064
:1066C0003028F8D300242046FDF7BEFD641CE4B258
:1066D0000C2CF8D307210620FFF711FF4FF4BE70F2
:1066E00000F010FC05494FF00040C1F80403012000
:1066F00085F86400002070BD302700200060004055
:10670000034890F86400002800D001207047000082
:10671000302700200121B1EB507F01D101207047CB
:10672000002070472DE9F04105460079164F90464C
:1067300007EB40140E46E07E10B10820BDE8F08162
:10674000707F20772846FCF75FFC5FEA08006060F6
:106750003169216003D0317F2846FFF72BF8287973
:1067600007EB4010007F0028286801D0082100E0D6
:106770000421C0F800150020E0752076A0750121E5
:10678000E176A076DAE70000982700202DE9F047AF
:10679000054600793F4E904606EB40140F46207F99
:1067A00018B10846FFF7B6FF30B1284600F074F87C
:1067B00020B11120BDE8F0871020FBE784F8168097
:1067C000A7600027A78228794FF0010806EB401444
:1067D0003E46207F0028286825D04FF4907949460E
:1067E00001F014F94FF4AC7A5146286801F00EF923
:1067F0002868A17DA268C0F84425C0F8481528681B
:10680000C0F808806068F0B94946286801F0F9F8D6
:1068100080465146286801F0F4F858EA0001F3D0A8
:1068200058BBA7750FE04FF48E7A514601F0DDF8A2
:106830002868C0F808802146286803F09DFB61683D
:106840004FF4807089B13046B4E75146286801F0B2
:10685000C7F810B9A08A4845F7D1A08A484505D0A5
:106860002146286803F088FB00E08146A08AA17DCC
:106870008842EAD3A08A484501D10F26D1E7514684
:10688000286801F0ADF80028F9D02868C0F80C801D
:10689000C7E70000982700200079044901EB401069
:1068A000807D002800D0012070470000982700203C
:1068B00070B5044600791149002601EB40152068A7
:1068C0002A7FC0F80065686888B1207901EB401024
:1068D000007F0028206801D0094901E008498C396F
:1068E000C0F808132068FFF726FEFFF7FDFD2046DD
:1068F00001F0E8FEEE766E6070BD00009827002083
:10690000100302000FB408B50399002904D004AAAB
:1069100000926A4600F00FF801B05DF814FB10B564
:1069200082680446002A05D0D4E904032168984708
:106930000020A06010BD2DE9FC4791460C00804668
:1069400076D014F8011B39B125290ED04046FDF749
:106950005DFC20780028F4D198F80C00002867D05E
:106960004046BDE8FC47FFF7DABF0020012221784E
:106970002B291BD02D2902D0302908D102E040F06C
:10698000010001E040F00200641C002AEFD1002564
:106990002A290ED02178A1F130020A2A11D205EB62
:1069A000850201EB4205641C303DF1E740F0040034
:1069B000EAE7D9F800100B1DC9F800300968641C1B
:1069C0000D44217800232E290BD114F8011FA1F1C9
:1069D00030020A2A05D203EB830201EB4203303B6B
:1069E000F3E76C290DD068290BD0692921D00BDC85
:1069F000252918D0582931D063290ED0642915D102
:106A000017E014F8011FECE7702969D0732932D020
:106A100075291BD0782909D120E0D9F80000011D83
:106A2000C9F8001001784046FDF7F0FB641C90E7C0
:106A30006CE0D9F800100A1DC9F800200968CDE9FA
:106A400000500A224046FEF761FEEFE7D9F8001039
:106A50000A1DC9F8002009680A2206E0D9F80010CA
:106A60000A1DC9F8002009681022CDE900504046EF
:106A700003F0EAFBDAE7D9F8001000270A1DC9F88D
:106A800000200E68C00705D112E04046761C7F1C2E
:106A9000FDF7BCFB31780029F7D104E02021404606
:106AA0006D1EFDF7B3FBBD42C0D9002DF6D1BDE789
:106AB0004EB13046FBF7B6FD074604E020214046C4
:106AC0006D1EFDF7A3FBBD4206D9002DF6D103E0F4
:106AD0004046761CFDF79AFB31780029F8D1A5E7EE
:106AE000D9F80000011DC9F80010056830214046A2
:106AF000FDF78CFB78214046FDF788FB082000213C
:106B0000CDE90001034610222946B0E7BDE8FC8725
:106B10002DE9F0411F46154604000E4616D02068A8
:106B2000B8B1C5B160680268501E304215D16A43E1
:106B30002046FCF78CF880B120683B462A46D0F806
:106B400010C031462046BDE8F04160470E20BDE848
:106B5000F0810820FBE70920F9E71020F7E720B1D2
:106B600019B101600B68114618470E2070470000EC
:106B70002DE9F04128B1016819B1C969BDE8F041BA
:106B800008470D4D0D480024461B14270DE000BF9B
:106B900004EB840005EB8000016829B1C9698847CE
:106BA00010B10120BDE8F081641CB6FBF7F0A042F3
:106BB000EED80020F6E70000D4210020E8210020D4
:106BC000044801214174007A08B100207047012077
:106BD000704700006C2A0020012801D0032808D14A
:106BE0000449002201284A7400D00020087402F0F1
:106BF0005BB970476C2A002070B5254C0246207A9C
:106C0000012837D0022841D122480023022A0068F7
:106C100002D0032A2ED11BE0E360017911B10129D2
:106C200028D10DE0D0E90565711B4FF48056B142C3
:106C300000D33146294481614569A9420ED019E04B
:106C40000169491C01614269914213D1237217E025
:106C5000E168491CE16008290CD9E3602372022A2B
:106C60000ED00D21FDF742FD0B480A49091D0068B1
:106C7000FFF76CFA607C28B1BDE8704000F036BECA
:106C80000021EFE7BDE8704002F00EB970BD0000D2
:106C90006C2A0020642100200CAA02002DE9F84390
:106CA0001D46089F1646884604000DD066B1206830
:106CB00060B135B160684068B5FBF0F100FB115080
:106CC00030B10920BDE8F8830E20FBE70820F9E782
:106CD0004046FBF7B6FF90B13046FBF7B2FF70B10C
:106CE0002A4641462046FBF7B2FF40B10097206894
:106CF0002B463246C76841462046B847E2E7102097
:106D0000E0E72DE9FF411C46DDE90A7815460E460D
:106D1000684600F08FF846EA450141EA840141EAFD
:106D2000072242EA0841009A00EB8200C0F80017EF
:106D3000BDE8FF812DE9FF411C46DDE90A781546D3
:106D40000E46684600F084F846EA450141EA8401AF
:106D500041EA072242EA0841009A00EB8200C0F8AB
:106D60000017BDE8FF812DE9FF411C46DDE90A78E7
:106D700015460E46684600F079F846EA450141EAB4
:106D8000840141EA072242EA0841009A00EB8200AE
:106D9000C0F80017BDE8FF811CB5002100910B462B
:106DA00001220191FFF7DFFF1CBD1CB500220B463D
:106DB000009211460192FFF7D6FF1CBD1CB50021C1
:106DC00000910B46012201911146FFF7CCFF1CBD3B
:106DD000202802D24FF0A04202E0094A00F01F0032
:106DE00002EB8000D0F8002722F44032C0F80027E0
:106DF000D0F8002742EA0141C0F8001770470000B0
:106E00000003005013B50C46684600F021F80099C5
:106E100000EB8101D1F8002722F44032C1F80027AD
:106E2000009900EB8100D0F8001741EA0441C0F856
:106E300000171CBD0168202902D24FF0A040704706
:106E400001F01F010160014870470000000300507D
:106E50000168202902D24FF0A040704701F01F01C5
:106E600001600148704700000003005001682029BC
:106E700002D24FF0A040704701F01F0101600148AD
:106E8000704700000003005001B56846FFF7E0FFBF
:106E9000D0F810050099C84000F0010008BD01B508
:106EA0006846FFF7E3FF009A01219140C0F80815FA
:106EB00008BD38B501240090684631B1FFF7BAFF2C
:106EC00000998C40C0F8084538BDFFF7B3FF009922
:106ED0008C40C0F80C4538BD1CB5094C0144D4E9C0
:106EE0000034CDE900346C4606E000BF54F8203091
:106EF000D3F81035401C08C28142F7D81CBD0000F1
:106F0000D4A90200034908B50844002101600068C3
:106F1000009008BD0060004002494058012800D0A0
:106F2000002070470060004030B5124B0146002041
:106F3000D3F81044224609E0157A854205D1401C59
:106F40000A28F7DB4FF0FF3030BD5268002AF3D13A
:106F5000421CF9D00872D3F810242AB152684A6052
:106F6000D3F81024516030BD0022C3F810144A60D9
:106F700030BD0000902B0020F0B595B01C461546A2
:106F80000F4608461A9E00F00BFB182109A8FBF7D4
:106F90003EFB0E96CDE909540023082203A938468A
:106FA00000F018FB059806900498ADF81C0000202E
:106FB0008DF820000398082600F00300012802D075
:106FC00002281DD03CE003983346850AC0F3C20076
:106FD0008DF81E0003980FA9C0F380008DF81F00E4
:106FE0000398C0F38314A200384600F0F3FA09A80E
:106FF000009006AB22460FA9284600F02DFA1FE0AC
:107000000398840DC0F3C2008DF81E000398C0F3EE
:1070100080008DF81F00082C01D2254600E00825CD
:1070200033462A460FA9384600F0D4FA2E44641B92
:1070300009AB06AA29460FA800F05EF9002CEAD198
:10704000384600F0B6FA15B0F0BD7047012002F0E6
:10705000B7BF000010B50448FFF72AFCBDE8104098
:10706000002002F0ADBF00007021002008B5034AE7
:1070700000924023024AFFF77FFF08BDD19602002D
:10708000902A00200A4A012902EBC00007D00229F9
:1070900007D0032907D0042907D000207047022019
:1070A00070470420704700797047407970470000AE
:1070B00050B3020010B5FFF7C9FF04210348FFF7E2
:1070C00033FF02490120487210BD000078210020E2
:1070D0002DE9F04F8DB0FDF7A9F818B100200DB0E3
:1070E000BDE8F08F74480021C0F81814BFF34F8F2B
:1070F000D0E9014604EA060100EB81014FF00009E6
:107100000AE000BFC1F3891202EB9151641C0C44E8
:1071100004EA060100EB8101C9688A07F2D0002168
:1071200003AA804604EA060008EB8000641CC068DD
:1071300042F82100491C43460229F3D3039800F08A
:107140000300022806D0012803984FD0C0438007CF
:107150007ED0ACE003985022810D8A46B2EB905F5E
:1071600000D850210D4665F39F50039008315348D5
:1071700000F0CDF907006CD000F012FA4B4608225F
:1071800003A9384600F02CFA04EA0601701A8000C0
:10719000001D09F1080B854221D9474E0C3630B14C
:1071A000C2B208EB8101281A91460C3104E0314645
:1071B000EAB2002691463046C5B25B46384600F03A
:1071C0000FFA0BEB09032EB12A4631464FEA0700AE
:1071D00000F006FA0AF1030004EB90043BE008EB30
:1071E00081015B462A4638460C31F1E7C0F3831033
:1071F000062800D30620039960F38911C1F3831098
:10720000801C039181002D4800F081F907004ED0C9
:1072100000F0C6F94B46082203A9384600F0E0F911
:1072200009F1080900250DE004EA060008EB8001D9
:107230004B46042238460C31641C00F0D1F909F1A8
:1072400004096D1C0398C0F38310A842ECD801E038
:107250000BE02CE05FB3D8F81054D8F81804464679
:1072600090B1384600F0A5F921E0D3F818040028C1
:107270003FF435AF1BE0687A012804D1296828461D
:107280000A68394690476D68002DF4D1384600F001
:1072900090F900208DF800006846FBF777FED6F8DD
:1072A000180400B974609DF80000FBF793FEFCF72A
:1072B000BDFF80F0010012E7902B00206CAB0200B4
:1072C00000231A4602F024BD08B5012300926A4645
:1072D00002F01EFD08BD1CB5CDE9002302236A465D
:1072E00002F016FD1CBD3EB5069C8DE81C00032374
:1072F0006A4602F00DFD3EBD2DE9F0470E46804680
:107300001C46924608293ED894F80C900020207321
:107310001946104601F030FD0025B54206D218F896
:1073200005201AA12046FFF7EDFA03E019A1204637
:10733000FFF7E8FA6D1C082DEFD317A12046FFF7E1
:10734000E1FA0025B54210D218F80570FBF742F9B2
:107350000068C05D10F03E0F01D03A4600E02E22DA
:107360000EA12046FFF7CEFA03E00DA12046FFF75D
:10737000C9FA6D1C082DE5D301222146504601F0C3
:10738000DDFC84F80C90BDE8F08700002025303249
:1073900078000000202020007C0000002563000011
:1073A00020000000114810B5FF218160002101601C
:1073B0004160C0F81814C0F8141480F81C140C486C
:1073C00000F0F5F800280FD10A480B490B4B401A82
:1073D000C108002005E000BF00EB400223F82200B6
:1073E000401C8842F8D3002010BD0000902B0020E4
:1073F0006CAB0200A0B3020050B30200E8210020F1
:1074000002480349401AC00870470000A0B30200B8
:1074100050B3020013B56846FEF7BCFD08B100206A
:107420001CBD0248009950F831001CBD50B3020049
:1074300070B508480125D0F8104480F81C5405E0C8
:10744000657221682046496888476468002CF7D136
:1074500070BD0000902B00202DE9FF4781460C9D58
:1074600000200C462F7B287398461646294618465E
:1074700001F082FC072E42D2DFE806F004090F1665
:107480001F2A360049462846FFF73CFA37E04946AE
:1074900028462268FFF736FA31E0D4E9002349464E
:1074A0002846FFF72FFA2AE0A0680090D4E90023CD
:1074B00049462846FFF726FA21E0D4E90201CDE942
:1074C0000001D4E9002349462846FFF71BFA16E0DD
:1074D00004F1080007C88DE80700D4E900234946F5
:1074E0002846FFF70FFA0AE004F108000FC88DE8FC
:1074F0000F00D4E9002349462846FFF703FA00228B
:107500002946404601F01AFC2F73BDE8FF872DE99C
:10751000F041058A80462D1F4819C01CB0FBF5F0CC
:10752000C6B24046FEF740FE041E19D0002020716E
:1075300001206071E58000272546761EC4F8008092
:107540000BE04046FEF730FE60B16179491C617185
:10755000286005467F1CC0F80080B742F1D3204662
:10756000BDE8F081204600F002F80020F8E72DE9A0
:10757000F041457901466B1E002201E00968521C6A
:107580009A42FBD30F680146002605E038460C6896
:10759000FEF72CFE2146761CAE42F7D3BDE8F08103
:1075A00008B501216A46001DFAF767FF08BDFEF71E
:1075B00035BE38B50446001D01216A46FAF76AFF58
:1075C000009810F0FF0F04D12046BDE83840FFF7C7
:1075D000CEBF38BD38B501240094FEF79FFC38BDFE
:1075E00038B500240094FEF799FC38BD20B103495A
:1075F00009680160002070470E207047F8AB020058
:10760000FEB502460E460846FFF7F0FF00286ED191
:10761000002400940194012503208DF80020ADF88A
:10762000040002948DF8025069462020326869DF18
:107630002F4F48B100F0CAF93988024605EB0143E3
:107640002C491846FFF740FE00948DF800508DF845
:107650000140019402948DF802406946402032684E
:1076600069DF40B100F0B2F902463888224905EBE3
:107670000040FFF729FE0094019402948DF8004029
:1076800069460120326869DF48B100F09FF9398806
:10769000024605EB014319491846FFF715FE4FF462
:1076A000B0600090019402946946A120326869DFBD
:1076B00048B100F08BF93988024605EB01431049C7
:1076C0001846FFF701FE0094019402948DF80050D3
:1076D0006946A020326869DF40B100F077F90246C0
:1076E0003888084905EB0040FFF7EEFD0020FEBD9D
:1076F0004822002040B2020088B20200A0B102007D
:10770000ECB102004CB102002DE9F0410446D0F882
:1077100000E060DF2368144D0646734515D02888C5
:10772000022707EB0040724610A1FFF7D4FDF806D0
:10773000D0F80C012168800200F10050421A28881C
:1077400016A107EB0040FFF7BFFD56B1304600F031
:107750003DF902462888012101EB004018A1FFF7FE
:10776000B3FD3046BDE8F0814822002052414D2053
:1077700073746172747320617420307825782C20C2
:1077800063616E2062652061646A7573746564204C
:10779000746F20307825782E0000000052414D2073
:1077A00073697A652063616E2062652061646A7521
:1077B0007374656420746F20307825782E00000083
:1077C00073645F626C655F656E61626C6528292019
:1077D00072657475726E65642025732E000000005A
:1077E00030B593B05FF03805ADF8445011A903A847
:1077F00061DF30B1052816D013B0BDE83040FBF78B
:1078000029BB03AC0949684600F09CF807E000BFBB
:10781000D0E9002120469047684600F0AAF8029877
:107820000028E1D0F4E713B030BD0000FCAB02004B
:1078300010B50D4C2078A0B10120A07001F04AFDD8
:1078400011280CD0022001F05DFD11DF002807D1C6
:107850002070A07002F012FA032001F053FD002006
:1078600010BD082010BD0000CC21002038B5104C00
:10787000207808B1082038BD0125A570002001F04E
:1078800029FD112812D0002001F03CFD09480A49C9
:1078900000680090684610DF0028ECD12570A070C9
:1078A000607002F007FA012001F02CFD002038BDC5
:1078B000CC21002090AB0200DD2D02000EB507495F
:1078C000684600F03FF805E0D0E9001088476846B8
:1078D00000F04FF802980028F6D10EBDACAB0200C4
:1078E0000148007870470000CC21002005488178CD
:1078F00019B1007818B1FFF79BBF08207047FFF758
:10790000B5BF0000CC2100201FB5684648DF30B16C
:10791000052814D004B0BDE81040FBF79BBA084915
:1079200001A800F00FF806E0D0E900210098904788
:1079300001A800F01EF803980028E6D0F4E71FBD68
:1079400018AC0200016009684160AFF3008010B517
:10795000D0E900215368994201D1002104E0D1E926
:107960000034A34202D01946816010BD0831416045
:10797000F0E7816800290BD0026892680A448260AF
:1079800041684B689A4203D108314160FFF7DFBF7D
:10799000704700000C4A10B502F1F0030EE0991A8E
:1079A000C91001EBD171491002EBC1010C6884428E
:1079B00001D90B4602E005D201F108029A42EED34A
:1079C000002010BD486810BD50AA020000B5FFF7A6
:1079D000E1FF002800D1014800BD00003CAA0200E0
:1079E0004058002800D00120704708B500224250BE
:1079F0004058009008BDD0F80403084000D0012092
:107A000070474058002800D00120704708B5002278
:107A100042504058009008BD10B590B1032814D1D1
:107A20000A480321008801EB004009A1FFF748FC48
:107A30000220FCF77FFA002807D0BDE81040FBF7D2
:107A400009BABDE8104001F003BF10BD302200208C
:107A500046617374206164766572746973696E67D8
:107A60002E0000000078002807D104483B21008840
:107A700076DF002801D0FBF7EDB9704788200020A1
:107A80002DE9FC418E88027900EBC605AC1D2A73F6
:107A9000C97B012902D0022904D101E0008800E05D
:107AA00040882080218860880127DFF86480814237
:107AB0000CD930469EDF020025D0112A25D0B8F817
:107AC0000000144907EB0040FFF7FEFBA079E179C5
:107AD000884216D9002000900190287BADF8000064
:107AE000287BADF8020000226946304690DF030093
:107AF00007D0B8F80000324607EB00400649FFF710
:107B0000EAFBBDE8FC816771E0E72771DEE7000072
:107B1000E8210020ACAC02007CAD02007CB506463A
:107B20008D88C88806EBC504A41D172800D217202D
:107B30002188814200D80846608000202071218879
:107B40002846ADDF020007D00E480121008801EB76
:107B500000400D49FFF7B8FB6079002810D130696B
:107B600000280DD00948D0E90210CDE90010ADF889
:107B700002506088ADF8040032696946304690478B
:107B80007CBD0000E8210020F0AC02002CA902001E
:107B900048B1064A0168914205D14068044940183D
:107BA00002D0012800D0032070470000DEC0ADDE07
:107BB00002FEE10E0389CA1C1A4402814289511A4D
:107BC000C91E4181704700002DE9F0410D46022198
:107BD000904600F58056298000F10804144F1BE000
:107BE00031462046FDF75CFB40B1B8F1000F02D0F2
:107BF000012288F80020022816D004E0A0687969E4
:107C0000884200D97861288861880844C01C28808F
:107C1000608804EB80040C3431462046FDF753FBAA
:107C20000028DDD1BDE8F0814FF480602880F9E7BD
:107C30003421002008B50021009101460823024AA2
:107C40000248FFF72BF808BDF4A90200D421002058
:107C500008B50020009004480823044A016804483D
:107C6000FFF71CF808BD00005C210020ECA9020011
:107C7000D42100202DE9F05F0025DFF80891DFF81E
:107C800008B12C464FF00308AA462F46D9F80C003D
:107C900000EB07363046FFF77BFF78B3012847D06B
:107CA000032862D100204FF4806200BF56F82010F4
:107CB000491C0ED004EB84010BEB8102A8F10100FA
:107CC000566003221FFA80F80BF82120641CA4B22E
:107CD0004BE0401C9042E9D32C48016879B104EB99
:107CE000840102200BF821000BEB81014E6008811A
:107CF000254828304480641CA4B205E007E0022136
:107D0000066081804FF0010A45F001052DE004EB8B
:107D1000840100220BF821200BEB810101F11002FC
:107D20004E6030460831FFF74FFF45F00205CDE7C2
:107D3000BAF1000F0CD0022004EB8401134A0BF8B7
:107D400021000BEB810112684A60641C0881A4B217
:107D50000E480022011D06603046FFF735FF0B4834
:107D6000808802280CD0082005437F1CBFB2032F57
:107D70008CD3B8F1020F00D20025E8B2BDE8F09F25
:107D80000420F1E7D4210020982900205C21002064
:107D900001494978FBF75EBDEC200020F0B591B0B9
:107DA0000746FBF749FD002815D06846FBF706FD9E
:107DB00000246D460CE000BF05EB44063946B08850
:107DC000FBF748FD18B1B088002101F031FF641CB9
:107DD0000098A042F0D811B0F0BD30B585B00C4687
:107DE00005218DF800101546ADF80200FDF7D6FB11
:107DF000ADF804006846CDE90245FCF70BFD05B07F
:107E000030BD000070B5054D06460024304655F8DB
:107E100024108847641C042CF8D370BD5CA90200B0
:107E20003EB50F4D002400BF05EB041002F0DEFB51
:107E3000641C022CF8D30124502002210094CDE9C7
:107E400001100749074BB039A02201F1A00000F052
:107E5000A3FC08B103203EBD0248447000203EBD93
:107E600070260020D420002000F08EB900F08EB9DA
:107E700070B504460025C168194A284602EB001374
:107E80009B688B4202D102EB001003E0401C0228E9
:107E9000F4DB00202178082904D0092908D013290F
:107EA00015D113E0617A91B988B102F0AFFB0EE011
:107EB000617A61B958B10B494A68521C4A60002185
:107EC0008160817B41F00201817303E0012520463E
:107ED000FFF798FF2846BDE8704001F071B8000038
:107EE00070260020D420002000F005BA08B51388C1
:107EF0009B0000936B4600F07FF908BD002300F063
:107F00007BB938B505460024204609E0817828462B
:107F100000F0A0F810B1052800D003240098401C00
:107F200000906946284602F04DFB0028EED134B996
:107F3000284600F0E4F910B1072802D003242046B7
:107F400038BD0724FBE71346002200F089B9000082
:107F50002DE9F0475FEA030815460E46824604D035
:107F6000072E05D0082E17D102E00E20BDE8F087BD
:107F700095B1022D10D8504600F0CCF960B14FF009
:107F800000093146504602F003FB041E15D0207B49
:107F9000A8421DD24F460AE04FF00700E6E7607B9B
:107FA0003844C1B22A4800F02BFC7F1CFFB2207B72
:107FB000B842F4D8204602F019FB5746FF214FF68D
:107FC000FF7002F0E5FA041E14D00780A6700DE0E1
:107FD0000CD9EFB207E0607B3844C1B21C4800F016
:107FE0000FFC7F1CFFB2207BB842F4D8607BFF28D7
:107FF00002D00AE01120B9E72946154800F09EFB9F
:108000006073FF2813D04FF001092573617B10487E
:1080100000F0E2FB02000ED0ABB23146404600F069
:108020000FFAB9F1000F11D0082E06D00EE020464D
:1080300002F0DCFADEE7032098E7B8F800006FF002
:10804000050101EB8000D8F80410888000208DE73E
:108050006026002070B5002402F09AFA05000BD0CB
:10806000686820B100F06FF9040000D003242846AE
:1080700002F0CCFA204670BD052070BD70B51546E3
:108080000C46072903D0082C01D0072070BD02F050
:108090007FFA28B105808470BDE8704002F02ABAEA
:1080A000052070BD7CB50D46072903D0082D01D0F1
:1080B00007207CBD002602F06BFA040002D0606845
:1080C00010B11CE005207CBD617B0F4800F084FBF3
:1080D00002004FF00000009001908DF8025010D087
:1080E000237B2946684600F03DF9684602F0F0F926
:1080F000211D684600F010F90646092801D03046D7
:108100007CBD03207CBD0000602600204FF6FF717F
:10811000418001490968084744A9020030B587B089
:108120001748FCF709FD10B1032007B030BDFCF77C
:1081300023FC08B18620F8E700F0D4F90020029073
:108140004CF2070403900EE0694604A8FCF7BEFC5D
:1081500000988088A0F5404085B204A8FCF776FC22
:10816000284600F07BF902AA04A92046FCF795FCFA
:108170000028E9D00349012008700020D5E700005D
:1081800021480200C820002000F08EB900F092B90A
:1081900070B586B014460E46054600F041F940B170
:1081A00005F5404080B20F4A6946FCF776FC40B9BD
:1081B00002E0012006B070BD03A96846FCF786FC0A
:1081C00008B10020F6E7A570039840882080049845
:1081D000606003988088A0F5404030806846FCF7D6
:1081E00035FCE6E7CC200020024800214160816098
:1081F00070470000C8200020F0B587B01D46144627
:1082000007460E46FF280AD8084600F009F930B1A3
:1082100003AA3146384600F0EBF840B902E00720E7
:1082200007B0F0BD01A903A8FCF750FC08B1052078
:10823000F6E7A67001984088208045B18200286842
:1082400090420BD302996068FAF7C8F901E00298EE
:10825000606003A8FCF7FAFB0020E1E70420DFE7F9
:108260007FB586B01E460D460446FF282AD8A8785A
:1082700000F0D6F830B304F54040ADF80000A8781F
:1082800003AA00F54040ADF8020068680190288814
:108290000290A978204600F0ABF80528089813D082
:1082A00010B108A8FCF778FC694603A8FCF732FC7B
:1082B000B0B107281DD0082819D00E2817D00320E8
:1082C0000AB070BD0720FBE728B108AA694603A8D9
:1082D000FCF72BFCECE7694603A8FCF722FCE7E778
:1082E0001EB1314603A8FCF7E8FB0020E8E71120A7
:1082F000E6E78620E4E74FF6FF7000F0AFB810B570
:10830000FF2801D9072010BD00F0AEF800F02EF8CC
:10831000002010BD00F0FAB870B504460D46807814
:1083200000F07EF858B121882846FCF71DFC002893
:1083300004D0072805D0092800D0032070BD0720ED
:1083400070BD862070BD01B56846FCF725FC00288D
:1083500000D0032008BD00000149C978FBF77ABAB4
:10836000EC2000209BB200F06BB80000F0B58BB0A1
:1083700000264FF6FF7701963846029603E0204626
:1083800000F084F8204600F08FF80446B84208D088
:1083900004F5404080B201AA03A9FCF786FB0A2835
:1083A000EDD0114DA878002819D1BC4217D0012773
:1083B00004F54040AF7080B2FCF79EFA082810D058
:1083C00000280CD0AE7005461422084906A8FAF71A
:1083D00005F9ADF81C4006A80895FFF797FE0BB00D
:1083E000F0BD6F70FBE70000C820002048A9020024
:1083F0007CB5054616460C46084600F011F80020EC
:10840000009005F54045019004F54044A8B2A1B2A2
:108410006B463246FCF73AFB002800D005207CBDB5
:1084200007280BD0012809D0082807D0052805D037
:10843000062803D0042801D000207047012070478F
:1084400010B503EB83034FF6FF7404EA0313817046
:10845000DB1C99084260018010BD00000149FBF758
:108460002DBF00009026002010B50446A0F57F40E7
:10847000FF3807D004492046FBF720FFA04201D176
:10848000012010BD002010BDB026002010B504460C
:10849000044900F0A7FE03492046BDE81040203102
:1084A00000F0A0BE902600200149FDF711BE00009B
:1084B000B026002070B50A49FDF70AFE04464FF6C3
:1084C000FF7507E000F02CF838B105492046FDF7AC
:1084D000FFFD0446AC42F5D170BD204670BD0000E2
:1084E0009026002010B508484021FAF790F84FF484
:1084F00080742146044800F069FA21460248BDE82C
:108500001040203000F062BA90260020FF2803D8E7
:108510000146024800F089BA0020704790260020EA
:10852000FF2803D80146024800F07FBA00207047B8
:10853000B026002010B50C46FCF77EFDFF2804D0C5
:10854000024900EB400021F8204010BDC02400206B
:108550001CB500F005FA08B1FAF77CFC0020009089
:1085600001909DF8000020F07E0040F001003030C6
:1085700020F080008DF8000007208DF80100102009
:108580008DF802009DF8030040F003008DF8030011
:108590009DF8040040F003008DF80400684600F0E8
:1085A000A9FB08B1FAF756FC034800F08DFB002840
:1085B00001D0FAF74FFC1CBD398802002DE9F041CB
:1085C00096B00746FBF738F9002836D06846FBF727
:1085D000F5F800242D4D54E0684600EB4400394680
:1085E00086883046FBF736F998B3E878874203D19E
:1085F0003046FDF7DFFA43E0A878874235D12348BB
:108600000021401C00F0E9F918B34FF00008304693
:10861000FCF7CDFD01000CD0112911D0862919D00D
:10862000A1F54050023802D0304601F029F8414609
:1086300007E041463046FDF7F1FA16B0BDE8F0819B
:1086400001213046FDF7EAFA10480021401C00F0F5
:10865000F8F915E014220E4911A8F9F7BFFFADF89B
:10866000466011A8FCF7A4F8E1E72879874207D112
:1086700069793046FBF7EEF810B9304601F05EF844
:10868000641C0098A042A7D8D7E70000B0200020C3
:10869000D0A802000449084490F93000082801DB02
:1086A000012070470020704730270020044908440B
:1086B00090F93000082801D201207047002070474F
:1086C0003027002070B5034600791B4901EB4010AC
:1086D0001968027F4FF0FF30002AD1F80C25D1F83D
:1086E0001465D1F80855D1F8104504D0C1F80C052F
:1086F000C1F8140503E0C1F81405C1F80C051968A8
:10870000C1F80805C1F81005501C02D01046FEF74C
:1087100043FB701C02D03046FEF73EFB601C02D0CB
:108720002046FEF739FB681C04D02846BDE870409F
:10873000FEF732BB70BD0000982700202DE9F04104
:108740000F46060026D0306820B3706810B3FF24AF
:1087500000251CE02946706800F03FF948B1FF2C65
:1087600000D12C46281B401CB8420ED12046BDE843
:10877000F081FF2C06D108E02146304600F040F899
:10878000641CE4B2AC42F7D3FF246D1CEDB2B068B8
:10879000A842DFD8FF20EAE72DE9F0410400DDE937
:1087A0000705069E16D0A9B1A3B100FB05F79742B5
:1087B00010D8C21DB6EBD20F0CD358B155B1E5603D
:1087C0002160C4E9013081B2184600F0FFF80020B2
:1087D000BDE8F0810720FBE770B504000D460DD021
:1087E000206858B1606848B1FF2D07D000F01DF92E
:1087F00020B1E168206805FB010070BD002070BD5C
:1088000070B504000D4611D0206800280ED06068B5
:1088100000280BD0FF2D09D000F007F9002805D063
:1088200029466068BDE8704000F00BB970BD0029B2
:1088300001D001F02DB87047F8B504460078224DFC
:10884000032610281ED2DFE800F0081D101D1E1D93
:10885000253C1D3A1D3C313C1D3628881BA106EBEA
:108860000040BDE8F840FEF72BBD6088FAF7B6FF80
:108870000246207A00902888638806EB00401EA1FB
:10888000FEF731FDF8BD0020009060886946FFF7D3
:10889000CEFFF8BDFCF752F80E28FAD00828F8D021
:1088A0000028F6D0BDE8F840FAF7D4BABDE8F840A1
:1088B0000020FAF7F3B9BDE8F84000F07DB8206970
:1088C000EEE7A068ECE7000030220020436F6E6EF8
:1088D000656374656420746F2061207072657669C9
:1088E0006F75736C7920626F6E6465642064657661
:1088F0006963652E00000000436F6E6E65637469E6
:108900006F6E20736563757265643A20726F6C6573
:108910003A2025642C20636F6E6E5F68616E646C14
:10892000653A20307825782C2070726F6365647505
:1089300072653A2025642E00FBF748BF10B5044647
:10894000007828B90549608801220979FAF798FF6B
:108950002046BDE81040FBF739BF0000DC200020B6
:1089600070B5FFF7DBFB18BBFFF75AFA00BB00F04E
:1089700091FFE8B901F0A0F8D0B9FCF7CFFAB8B987
:10898000FCF7C8FBA0B9FCF779FD88B9094C4FF694
:10899000FF700025E0801820A5602071FAF736FFEF
:1089A0002071182804D0657001202070002070BD4F
:1089B000032070BDDC20002003480078002801D08F
:1089C000FCF7D4BA70470000DC200020002803D058
:1089D000C91DC908F9F71BBE7047002809D001F06E
:1089E000070301229A40D2B200EBD1001146FDF7F5
:1089F0001DB970472DE9F0410D46060013D0002443
:108A000001270EE004F0070007FA00F0C1B206EB00
:108A1000D400FDF70BF910B12046BDE8F081641CCD
:108A2000A4B2AC42EED32846F7E740B100EBD10048
:108A300001F00702007801219140084000D0012098
:108A40007047F8B50400C1F3C70501F007014FF006
:108A5000010000FA01F0C6B20FD0605D30420CD0C8
:108A600000208DF800006846FAF790FA605DB04388
:108A700060559DF80000FAF7ADFAF8BD2DE9F04118
:108A8000044686B001278088FCF7C6FC6080207809
:108A900000263F4D082808D0092820D04FF6FF783F
:108AA0000A2829D00B2853D158E0607A10B1012848
:108AB00009D04DE0A86830B1E168814203D1AE60D1
:108AC000A088E88016E06878E8B3A088E988884242
:108AD0003ED1207A06283BD100F056FA38E0607A81
:108AE00088BBA86878B3E168814231D1AE60E8689C
:108AF000401EE860E6602BE0A878E8B14046FFF74A
:108B0000B5F94146404517D10846FFF7ADF9404554
:108B100012D1AE7014216846F9F779FD0C208DF85A
:108B20000000ADF80480ADF8028000272046FBF776
:108B30004DFE6846FBF74AFE687838B1A088E988A0
:108B4000884203D100E003E000F01EFA002F1CD0A1
:108B500006B02046BDE8F041FBF738BEA8780028F3
:108B6000F6D0AE7014216846F9F751FD0D208DF84E
:108B70000000ADF80480ADF80280A06802902046A5
:108B8000FBF724FE6846FBF721FE06B0BDE8F08146
:108B9000DC2000200349097809B1FCF7EBBC082070
:108BA00070470000DC2000202DE9FF4F2A4883B0E9
:108BB0009946007892468B46B8B14FF6FF7630461C
:108BC000FFF754F9804600200090244801AA0621AE
:108BD00000680190CDF808D04046FFF787F90025DE
:108BE0006C1E3746072804D017E0082007B0BDE800
:108BF000F08F0520FAE700200090A84201D3054637
:108C00004746A04201D2044646464046FFF72EF9A9
:108C1000804601AA0621FFF769F9D8B10528EAD0F4
:108C2000A8F57F41FF3901D00320DFE70399002039
:108C300001B10F80BBF1000F01D0CBF80050BAF1A9
:108C4000000F01D0AAF80060B9F1000FCED0C9F82A
:108C50000040CBE70098D0E7DC2000206CA90200A0
:108C600070B5184E86B03078D0B10120B0704FF694
:108C7000FF742046FFF7FAF80546A0421DD10020F8
:108C8000B07014216846F9F7C2FC0C208DF8000082
:108C9000ADF80440ADF802406846FBF797FD0EE0E2
:108CA000082006B070BD00BFFFF774FF08B10320B5
:108CB000F7E72846FFF7DAF80546A542F4D1002089
:108CC000EFE70000DC200020084A117821B1D178BC
:108CD000032903D30420704708207047044B43F84E
:108CE0002100491CD170002070470000DC200020CA
:108CF000D02600200349097809B100F011BE0820F0
:108D000070470000DC20002010B5040012D020784D
:108D1000022808D1207A01280AD00022064960885A
:108D20000979FAF7ADFD2046BDE81040FBF74EBDCE
:108D30000122F3E710BD0000DC20002010B50C4636
:108D4000C17949B11AB109A12046FDF7DBFD2046E2
:108D5000BDE81040FDF7E3BD007A0028F3D00448D9
:108D600004A102682046FDF7CDFDECE70D0A0000E6
:108D7000A82100202573000070B50446C0790D4677
:108D800000281CD1207A50B1A179A088FEF77AF989
:108D90000B4951F820200BA12846FDF7B3FDA08810
:108DA0000021FEF737FB03460549A079143951F835
:108DB00020202846BDE8704003A1FDF7A3BD70BD8B
:108DC000A8210020257300003C25733E2025733A1E
:108DD000200000000146054810B50068FDF7ABF91A
:108DE00004461C21F9F713FC204610BDE4A902003B
:108DF000014602480068FDF7BFB90000E4A902007F
:108E0000F0B5274D274E87B004460027686828B97B
:108E1000234930680831FDF7A4F9686001460078FD
:108E2000072817D2DFE800F0160408080E0E12001B
:108E30002046FCF7FDFB02E0204601F071FC040037
:108E400028D008E02046FBF74BFBF8E72046FBF76D
:108E500011FFF4E70F2414216846F9F7D8FBA4F5B5
:108E6000E8501D3818D0019469466868FBF7F4FB98
:108E70006846FBF72BFC0A496F6008313068FDF744
:108E800065F9074801210C3005AAF9F703FA05989E
:108E90000028BBD107B0F0BD00240197E4E7000033
:108EA00034210020E4A902002DE9F041214C0025E5
:108EB000214E207A012730B92048311D0068FDF786
:108EC00050F9306038B1022020723168087928B139
:108ED00001281ED116E06560BDE8F081D1E90503E7
:108EE000C01A4FF48052904200D31046B7EB900F57
:108EF00001D2820800E001220869C96818441944B7
:108F000029DF03E0D1E90301084428DF38B1112843
:108F10000ED003213068FBF7E9FB2572DBE7207CEC
:108F20000028D9D1BDE8F04100210220FDF764BE40
:108F30002772D1E76C2A0020642100200CAA0200CD
:108F400008B5064801216A46F9F797F9002803D1C8
:108F5000BDE80840FFF754BF08BD000040210020D5
:108F600038B5084C0121201D6A46F9F705FA009032
:108F7000002806D1607C002803D1BDE83840FFF707
:108F800093BF38BD6C2A0020084910B500231A464B
:108F9000881FFFF709FE30B1052804D000200349DF
:108FA0000C39487010BD0120F9E70000E8200020CE
:108FB00010B510461A46F9F711FB002010BD00004D
:108FC000F0B50746164885B0406800281DD0154EFC
:108FD000002400BF06EB0415A87B810701D43842AA
:108FE00019D0284601F086FAA8B14FF6FF71ADF806
:108FF00002102988ADF80410862808D007218DF8C2
:10900000001002906846FEF7FDFE05B0F0BD062098
:109010008DF80000F6E7641C022CDBD3F5E70000B6
:10902000D4200020702600202DE9F04707461E4876
:109030001C46154600780E4670B185B17CB1DFF84C
:109040006C804FF00009A08802282BD200EB800131
:1090500018F8210010BB19E00220BDE8F0870520B8
:10906000FBE720681FB181883A8891420ED11EB17A
:1090700001883288914209D1806828602068686040
:109080000A482830008928810020E6E7A088214688
:1090900000F05EF80028E4D1C4F80090A088401CDD
:1090A000A080D0E70A20D8E754210020982900208A
:1090B000F8B505464068244F0C46002648B32349BE
:1090C000CA68824225D80969814222D3FCF7E2FBB3
:1090D000F8B12889398988421BD1D5E900018A680D
:1090E000904216D10020A7F1280200BF00EB8003B8
:1090F00002EB83035B688B4205D203F580538B42FE
:1091000001D9208011E0401C80B20228EED300205B
:10911000F8BD268000960AE0009829688068884299
:1091200005D100986860388928810120F8BD208821
:10913000694600F00DF80028EED12088401C80B26E
:1091400020800228E6D3E2E7C0290020D4210020B5
:1091500070B50E4600EB8001134800EB81004468B7
:10916000306804F5805518B1418800EB810411E0A6
:10917000083410E029462046FCF792F820B1012877
:1091800005D0022807D10DE00120346070BD608851
:1091900004EB80040C3429462046FCF794F80028A0
:1091A000E8D170BD002070BD9829002038B50C466C
:1091B0000021009101460423074A0848FDF76EFD8F
:1091C00008B10E2038BD064A04EB840102EB810190
:1091D00001200874002038BDE8A90200D421002035
:1091E000982900200A46FF2803D801461046FFF7B9
:1091F00028BC70470846704770B5012670044FF0D0
:10920000E0210025C1F88001084C4010C4F8480353
:10921000C4F8080366602F20FDF7E6F8A660044C4A
:109220002F20A560FDF7E0F8A57070BD001001408B
:109230002021002070B50546C87D0C4600284FF45B
:10924000847128460AD0FEF7D0FBD5F81805627E57
:10925000E1688854607E401C607670BDFEF7C5FBF7
:10926000D5F8180570BD1FB501238DF800308DF8B5
:1092700008100192D0E90012684690471FBD000017
:1092800038B50021012558B101280ED003280BD193
:1092900007210020FDF733F9BDE83840FDF70EB98E
:1092A0004FF0E020C0F8805138BD8DF800106846BE
:1092B000F9F76CFE064C207808B9FDF7DBF8E0689A
:1092C000401CE060A5709DF80000F9F783FE38BDF2
:1092D0001C2700203EB5044609496846FEF732FBCC
:1092E00008E000BFD0E900212046904730B1684631
:1092F000FEF73FFB02980028F4D13EBD11203EBD91
:1093000094AB02003EB5044608496846FEF71AFBD6
:1093100007E000BFD0E90021204690476846FEF7ED
:1093200028FB02980028F5D13EBD0000A0AB02004A
:1093300070B50028049D18D0002916D0002A14D03A
:109340005FF0000430F814609E420FD1002001232A
:10935000A34008E001EB800426680DB11E4300E045
:109360009E43401C26609042F4D370BD641C202CA8
:10937000E8D370BD70B5054600242146284600F0AC
:109380000AF808B1204670BD641CA4B2202CF4D3A6
:109390004FF6FF7070BD01228A40024201D00120C9
:1093A00070470020704730B40B4660B1002130F8A0
:1093B0001140944204D130BC89B21846FFF7EBBF8C
:1093C000491C2029F3D330BC002070472DE9F0411F
:1093D00092B080464FF0000017460D00009012D06A
:1093E00000246E46A1B23846FFF7D5FF40B1009980
:1093F00035F8140006EB410188800098401C00906D
:10940000641C202CEED3442269464046F9F7E6F866
:1094100012B0BDE8F08108B5009313460122FFF7B2
:1094200087FF08BD2DE9FC4104460C30002780462B
:10943000FCF7C4F84FF6FF750646A842208803D112
:10944000FCF7ACF8064602E03146FCF791F82088BC
:109450000022012100F0C6F8AE4212D06A46072170
:109460003046FEF74BFD60B9019D95F84400343558
:10947000C00705D1414605F11200FCF764F800B1C0
:109480002F46002320881A46394686DF05000BD078
:10949000002320881A46314600F088F820882946A3
:1094A00000F002F9BDE8FC81002FFBD100232088E9
:1094B0001A46314600F07AF82088002241F206016F
:1094C000FBF79EF8EEE700002DE9FC411D46089CE5
:1094D00016460F46804644B16B46012207213846A6
:1094E000FEF736FD112801D010B10320BDE8FC8144
:1094F00050210198F9F78BF8019806700198E56002
:10950000343020600198183020610198401C60615F
:109510000748E061019940461131FBF701FF00283F
:10952000E3D107213846FEF7BDFD0528DDD0DDE794
:10953000DC260020002835D00278910701D41106DE
:109540002FD4C2F3021104292BD8930703D5032982
:1095500001D1110625D5437881788B4221D8072B7C
:109560001FD310291DD8C1784B071AD4007943079F
:1095700017D40B0715D4030713D4D2074FEAC172CF
:1095800001D042B10FE062B989070AD4C10708D1FE
:10959000800706D407E0890705D4C10703D18007F7
:1095A00001D40020704701207047000070B50C46C0
:1095B00005466AB1002B12D009480122C17828461D
:1095C000FAF75EF921462846BDE87040FBF7D0BFA8
:1095D000002B04D0BDE870400846FBF7CBBF70BD40
:1095E000EC200020F0B5174D14460F460A4685B012
:1095F00006462978FAF744F9002F1FD00CB1012252
:1096000000E0002269783046FAF73AF9012C17D0C9
:109610000022A9783046FAF733F90022E97830467B
:10962000FAF72EF9142208496846F8F7D7FFADF883
:1096300002608DF808406846FBF7DEF805B0F0BD23
:109640000122E6E7EC20002080A9020010B586B0D8
:10965000044614216846F8F7DAFF04208DF800006C
:10966000ADF802406846FBF7C7F806B010BD000031
:1096700002498969002900D008477047EC2300207F
:1096800030B585B00C460546142206496846F8F701
:10969000A5FFADF8025068460294FBF789F805B0C3
:1096A00030BD0000BCA8020030B585B00C460546B0
:1096B000142206496846F8F791FFADF80250684653
:1096C0000294FBF799F805B030BD000094A90200A0
:1096D00010B5084C0020D2B22070201DFDF756F8BE
:1096E00008B1F9F7B7FB6078002802D0217800298B
:1096F000FAD010BD6C2100207CB50E490E4C002222
:10970000D1E90001CDE900016946A088FEF71BFC04
:109710004FF6FF7507E00846FEF7A8FBA080002281
:109720006946FEF710FCA188A94201D01128F2D1A8
:109730007CBD000010A90200BC20002070B586B0DE
:10974000064601250024FBF78FFD112812D005DC09
:10975000F0B1062828D0082808D125E0A0F540510E
:10976000023907D0A1F54071FF3924D001463046B7
:10977000FFF786FF2A46124D30462979FAF780F81E
:10978000697906B022463046BDE87040FAF778B8ED
:1097900014220C496846F8F721FFADF80260012455
:1097A0006846FBF705F8E5E700253046FBF7F6FECF
:1097B000FBF7A2FCDEE73046FCF7FCF9DAE7000035
:1097C000B0200020E4A802002DE9F0410746806A9D
:1097D00014468846C8B3002531E000BFB96A05EBDE
:1097E000450001EB8006B088801CFE2802D90C20C1
:1097F000BDE8F0812288401C08F80200208816226B
:10980000401C80B2208008F800202088401C80B2D4
:10981000208000EB0801308800F001FD2188084419
:1098200080B22080B28842B1B16871B14044F8F78B
:10983000D5FE2088B188084420806D1CEDB297F8D1
:109840002C00A842CAD80020D2E7FFE70720CFE7C4
:1098500010B50020FAF76EFB08B1F9F7FBFAFAF73A
:10986000C7FA08B1F9F7F6FA32DF002803D0BDE8ED
:109870001040F9F7EFBA10BD10B500F09BF803489F
:109880004078BDE81040FCF7EBB80000F420002061
:1098900000F00AB910B51148FBF7B5F90F48401CA4
:1098A000FBF7B1F90D48801CFBF7ADF90B48C01C64
:1098B000FBF7A9F90948001DFBF7A5F90748401D6A
:1098C000FBF7A1F90548401E8179182903D0012131
:1098D000C171002010BD032010BD0000F520002044
:1098E00010B500780D4C0A280FD004DC08280CD0E5
:1098F000092812D109E00B2807D013280DD1A0792F
:10990000FEF74CFAA078FCF7ABF86079FEF746FA60
:109910006078BDE81040FCF7A3B810BDF42000202B
:1099200070B50B4C05004FF001060CD0FFF702FE9E
:1099300058B1286820612879207504F11000A060D2
:109940002670002070BD0020F9E7072070BD0000E0
:10995000F420002010B504460078052802D0122813
:1099600021D105E06088A168BDE8104000F060B931
:109970000F480021806880B10D48237A10300078AC
:1099800000F0010203B101239A4206D3627AC0F3C8
:10999000400002B10122904200D2012160880123DF
:1099A0000022FBF7BDFF2046BDE81040FAF732BFAA
:1099B000F420002030B50446008885B014284FD02C
:1099C0000ADC11282CD0132828D134F8040FF9F719
:1099D00005FF01282FD038E0192847D01A281DD1BB
:1099E000A088FEF7D5F9002818D1A088F9F7EEFE77
:1099F0000028A0884BD02A4900220978F9F740FFB7
:109A000002208DF80000A088ADF8020000208DF83B
:109A100008008DF809006846FAF7EEFE05B030BD83
:109A2000207A3D2804D04FF48851A088002224E0F9
:109A300041F23D01F9E72079C00701D0012200E0A1
:109A4000022220880121FFF7CDFD34F8045B1422A7
:109A500014496846F8F7C2FDADF802500294DAE7FF
:109A600005B0201DBDE83040FFF7DCBC217A201D89
:109A700041B14279008802F0030205B0BDE83040F0
:109A8000FBF7A8BF05B0BDE83040F9F711BB05B042
:109A90000122BDE8304041F20601FAF7B1BD0000F5
:109AA000EC200020BCA902000A7802490979F9F7E4
:109AB000E7BE0000EC20002010B51448FBF79AF830
:109AC0001248401CFBF796F81048801CFBF792F8F0
:109AD0000E48C01CFBF78EF80C48001DFBF78AF8F7
:109AE0000A48017818290FD0417818290CD08178BC
:109AF000182909D0C178182906D00179182903D06E
:109B000001214171002010BD032010BDEC20002078
:109B100070B50C460546F9F761FE012802D043F204
:109B2000020070BD21004FF00000FAD028467EDF11
:109B300070BD00002DE9F74F8AB0924688460A981A
:109B4000F9F74CFE06464FF6FF7900244D462746AE
:109B50000A98FEF701FC8346202101A8F8F757FD7B
:109B6000012E01D0DEB105E02F48002201790A98CC
:109B7000F9F786FEB8F1000F16D098F80000C0077C
:109B800014D00A98FBF70AFD0546484516D1FEF7A2
:109B9000ABF9054648450ED04FF0010B0CE043F2FF
:109BA00002000DB0BDE8F08F852721E01F48CDF8F9
:109BB00010A008901CE003246CB121E0012E0AD112
:109BC0000A98F9F7BBF830B90A98FFF73FFD0A98F1
:109BD000F9F7B4F850B101A800905346324629462F
:109BE0000A98FFF771FC040002D009E0852712E013
:109BF000012E10D001AB002239460A987FDF0446BF
:109C000054EA07000DD000225B4629460A98FFF768
:109C1000CDFC2046C5E701AB424639460A987FDFB6
:109C2000EDE70122F0E70000EC200020DC26002018
:109C30003EB505460C466846FCF740FA6A462146A2
:109C40002846FEF7CAF809480099C2682846FFF777
:109C500071FF0446014601222846FAF7DDFF21463E
:109C60002846009AFAF769FD3EBD0000F420002066
:109C7000002801D1FAF73EBB7047000010B516204E
:109C8000F8F7BAFF48B10A4882684FF4800152B130
:109C9000016821F48001016010BDBDE8104042F26E
:109CA0000100F9F7D7B84FF0E020C0F8801110BDDF
:109CB000E428002010B51620F8F79EFFB0B1124836
:109CC00090F800044009082813D290B1012810D060
:109CD00004280ED005280CD00C4882684FF480016F
:109CE0006AB1016841F48001016010BD42F20100D7
:109CF00001E042F20200BDE81040F9F7ABB84FF0C6
:109D0000E020C0F8001110BD16E000E0E4280020BB
:109D10002DE9F843214C8846054691461F46694681
:109D20001846A668FAF740FA70B30098811C002222
:109D30000AE000BF01EA060C59F8223004EB8C0C53
:109D4000491C521CCCF80C30BA42F3D30246401CDA
:109D5000304004EB80002B0CC36002EA060004EBE9
:109D60008002E80652F80C0F02D540F0040001E032
:109D700020F0040065F3C50067F3891068F39F20A5
:109D800020F00300401C106094F81C0402E000BFA7
:109D9000FDF79EF90028FBD1BDE8F883902B002049
:109DA0002DE9F84F1D4C00256846D4E901A6FAF7C5
:109DB00007FC002738B30023009A61681CE0D1F843
:109DC00000C00846944503D9ACEB02020A6015E0D6
:109DD000A2EB0C0263440760D0F80CC0C169814655
:109DE000BCF1000F08D006EB030828F07F48C0E95B
:109DF000018CC9F81C5005460029E0D12846616055
:109E0000FBF75CFE03E02846FBF758FE10B1504616
:109E1000FAF784FAE770BDE8F88F000020210020EF
:109E20000D4B10B5596831B102680C68A24204D8D4
:109E3000A21A0A60C161586010BD0B4603E00B46D0
:109E4000C969121B21B10C689442F8D3A41A0C60A2
:109E50000260C161D86110BD202100202DE9F041D0
:109E6000144E77683D462C4603E0844204D02546D4
:109E7000E469002CF9D11BE0D4B1A5420BD1F869FB
:109E8000706040B90C49012088600021B160F07019
:109E90002F20FCF7A9FA2168E069E86110B1026897
:109EA000114401607068874202D00120BDE8F08152
:109EB0000020FBE720210020001001407CB5064671
:109EC00000240D468DF800406846F9F75FF801A8B8
:109ED00000F054FA70B10570094946609DF804001D
:109EE00048709DF80000F9F775F81420F8F704FDA4
:109EF00020467CBD04249DF80000F9F76BF8F7E7D5
:109F0000D82700202DE9F041194D6C68002C2CD089
:109F1000184800270068A968B846401A20F07F4614
:109F20002068B0420CD82146361A0744E469087C00
:109F300020B181F81080886949698847002CEFD1E9
:109F400029786878814206D1401CC0B26870022826
:109F500001D185F80180064869780C3040F82170FD
:109F6000BDE8F0411420F8F7C7BCBDE8F08100005F
:109F7000202100200415014070B50C4605464FF421
:109F80008E71FDF732FDA18AA068415CA08A401C59
:109F9000A082C5F81C1570BD1FB500228DF80020E9
:109FA0008DF80810816801918275D0E90012684629
:109FB00090471FBD01490120087070476C210020A7
:109FC00010B588B0044620220E496846F8F706FB13
:109FD00006200090C01F0190029003904FF0EB709C
:109FE00006900CB1084A00E0002269460748FCF7D9
:109FF00099FB08B1F8F72EFF0448001F447008B021
:10A0000010BD00004CAB0200B59F02007021002083
:10A010002DE9FF470C4605464FF40071FDF7EBFCB8
:10A0200001274FF40178002618B34FF4927949467E
:10A030002846FDF7D5FCE0B149462846FDF7D5FC9A
:10A04000C5F80883A07E00B96F6002208DF800007B
:10A05000D5F88004C5F880040390E07D8DF80800F1
:10A06000E0680190E6752676D4E9001268469047CC
:10A0700027E004212846FDF7BEFC10B34FF484719D
:10A080002846FDF7ADFCE0B121462846FFF7D2F89F
:10A09000E07D617E884214D1207E38B1617EE26825
:10A0A000E0752069E0602676667607E0A07E00B95C
:10A0B0006F60C5F80883E675617EE2682046FFF7A9
:10A0C000D2F84FF48E7841462846FDF789FC88B1D6
:10A0D000A08AA17D884204D221462846FFF74CFF82
:10A0E00008E041462846FDF780FCA17D11B12046DD
:10A0F000FFF752FF4FF4A27841462846FDF770FC67
:10A10000002812D041462846FDF76FFCA07E00B122
:10A110002F60E07D002808D0E675617EE26804B01B
:10A120002046BDE8F047FFF79EB8BDE8FF872DE960
:10A13000FF410C464FF4927705463946FDF761FC26
:10A140000026C0B139462846FDF760FC02208DF894
:10A150000000D5F88004C5F880040390D5F83C05CC
:10A160008DF80800E0680190E6752676D4E90012C3
:10A170006846904724E04FF4887739462846FDF733
:10A1800040FCE8B139462846FDF740FCD5F83C05CF
:10A19000C1B2E07D884213D1207E60B1E268D5F87B
:10A1A000000220F02000C5F80002207EE075206942
:10A1B000E060267601E0E675E2682046FFF753F896
:10A1C0004FF4A27739462846FDF71BFC68B13946A3
:10A1D0002846FDF71BFCE07D38B1E675D5F83C0557
:10A1E000E268C1B22046FFF73EF84FF49076314660
:10A1F0002846FDF706FC00280FD031462846FDF71B
:10A2000005FCA07D002808D0D5F84C0504B0C1B2EB
:10A210002046BDE8F041FFF7BFBEBDE8FF810870F2
:10A22000000A48700220704710B514210448F8F75E
:10A23000EEF904480068FBF763FF002010BD000042
:10A240006C2A00200CAA02002DE9F05F8346DDE9AC
:10A250000A4A994690460D460846012703E000BF8A
:10A26000B0FBF8F07F1C4045FAD2B94500D94F4603
:10A270005FEACA7012D18CB15FEA8A7002D5B9F177
:10A28000000F01D0202607E0302605E03146584671
:10A29000641EF9F7BBFF0CB1A742F7D35FF00106CC
:10A2A000B9F1010F02D9A9F1010903E0B5FBF6F0FC
:10A2B000404502D306FB08F6F2E7DFF83C9000BF0A
:10A2C000B5FBF6F000FB165519F800105846F9F7E3
:10A2D0009DFFB6FBF8F6002EF2D15FEACA7009D0F6
:10A2E000002C07D0A74205D220215846641EF9F75A
:10A2F0008DFFF5E7BDE8F09FFCA90200F8B5054623
:10A3000080B2FBF7F9F9040013D0154E207A00272C
:10A31000317B88420ED2A8B204F10A0175DF28B160
:10A32000112806D0BDE8F840FFF7A2B9207A401CFA
:10A330002072F8BD2772307C38B1A8B23B2176DF9D
:10A3400018B1082801D0FFF793F971690029F0D0FE
:10A350008DF80070ADF8025068468847F8BD0000DF
:10A36000EC2300200449012282400968114201D0F7
:10A370000120704700207047082400200A494A78CD
:10A380008B78521CD2B2934200D100220B789342B8
:10A3900001D1002070470270487800EB400001EBCB
:10A3A000C000001D70470000D82700202DE9FC41A7
:10A3B0001646DDE90854CDE900541F4680460222C6
:10A3C00000F00CF8002807D1CDE900543B461022DC
:10A3D0003146404600F002F8BDE8FC812DE9FC5F03
:10A3E0000026DDE90C4B994692468E46804627882A
:10A3F000354630E0D8F80400002200EB85006946BD
:10A400000068019001A864DF002830D19DF80000A9
:10A4100050451FD10EB1002100E0022122880844DE
:10A420001118594522D846B9521C90B2208009F81B
:10A4300000E02088401C20800126218801A801EB33
:10A440000902694664DF002811D120889DF80010B8
:10A45000084420806D1CB8F80000A842CADC56B140
:10A460002088C01B401E80B2FF2802D90C20BDE806
:10A47000FC9F09F807000020F9E700207047000062
:10A480002DE9F84F114D884681461E46174669460C
:10A49000DDF828A02868FBF74EFE040013D01C212D
:10A4A000F8F7B5F800202071C4F80090C4E90486DC
:10A4B000C4E902A769462868FBF75EFEFEF750FD77
:10A4C0000020BDE8F88F0420FBE700000CAA020082
:10A4D00082780121012A0BD0062A09D0072A06D04A
:10A4E000082A06D1416889880931890800E01421C9
:10A4F000018070471CB50446002000900190A078B0
:10A500008DF80200617B2048FEF766F9020022D038
:10A51000237BA1786846FDF725FF6846FFF7D8FF43
:10A52000208804F1080369466268FDF799FE024637
:10A53000A17B16488B0704D5CB0702D043685B1E6E
:10A54000436052B1072A04D0112A09D0862A11D0BB
:10A55000032210461CBD03201CBD21F0030010E0A7
:10A560004268521C426021F0010040F00200A073DA
:10A570000022EEE743685B1C436021F0020040F0DC
:10A580000100A073E5E7000060260020D420002031
:10A5900038B505460C46002001E00098401C0090AC
:10A5A0006946284600F00EF800280AD08178A142BA
:10A5B000F3D1817B8A07F0D4C907EED181680029E5
:10A5C000EBD138BD10B5084B0A6809E003EB021463
:10A5D0002488844203D103EB02100A6010BD521C90
:10A5E000022AF3D3002010BD702600204FF6FF7121
:10A5F0000180FF2181704173817B21F00301817310
:10A6000000210173416081607047000070B505460C
:10A61000002406E0687B2044C1B20648FEF7F0F84B
:10A62000641C287BA042F5D82846BDE87040FFF79F
:10A63000DDBF0000602600202DE9FC4706463648B5
:10A640009846144600780D464FF0000978B37DB364
:10A650002888A0F57F41FF3931D0688848B3686801
:10A66000FBF718F968B374B32088ADF80000678869
:10A6700001A8FEF7AFFB04002FD084F800804FF054
:10A68000000A84F816A0BDF80000A0826868206166
:10A69000214801210C38FBF781FDE06028882081EA
:10A6A0006888A080E780B8F1030F1DD020E001E0AA
:10A6B00003E004E00220BDE8FC870520FBE704205E
:10A6C000F9E70320F7E7FFE72889694687B23846AC
:10A6D00000F0ACF80028EED1CAE7BDF8001038460B
:10A6E00000F098F80820E6E70420A0753068A06123
:10A6F000A4F80A9001A8FEF77BFB46B1C6F804A0B7
:10A70000E1680648316086F80AA000893081FEF7CA
:10A7100017FC0020CFE7000054210020C0290020B2
:10A720002DE9F8430D46898A374A01EB810102EB96
:10A73000810630B1E9883046FDF73CFA0120BDE8DA
:10A74000F88331897068002400EB81072E48A97DC9
:10A75000A8384FF00E0807294ED2DFE801F00D2D82
:10A76000162404404A004460A9690160264827492C
:10A77000A838FEF79DFC30B10220A87504233946A5
:10A780002A1D009423E00A20D9E728692A4608B147
:10A79000032000E001209075042305F10C0207F16D
:10A7A0000801009413E00120A8750094E88807F1DF
:10A7B0000C0183002A690AE028782A4603280CD075
:10A7C00006209075042305F10802391D00941048F5
:10A7D000FCF764FAA8B144460FE00520F1E7062132
:10A7E000A9750A4940680988FEF7E0FC040004D115
:10A7F00007E041F61D5400E00F24E9883046FDF7DC
:10A80000D9F920469BE70000982900203421002038
:10A81000D421002001EB8102034901EB82014A8926
:10A82000101AC01E488170479829002070B5C01CBE
:10A8300082B240F2FE30824201D3092070BD114B3A
:10A8400000204FF4806500BF00EB800413F8246003
:10A8500096B903EB84063489768914443444A4B24F
:10A86000AC4209D2088000EB800003EB80004189F4
:10A8700011444181002070BD401C80B20228E3D306
:10A88000072070BD982900200D0E2A140B0C1819F2
:10A890004C2300206C230020982300200B00030091
:10A8A000113E02000C000300113E020018000300DC
:10A8B000113E020019000300113E020007000000D3
:10A8C0000000000000000000000000000000000088
:10A8D0000600000000000000000000000000000072
:10A8E0000000000010000000000000000000000058
:10A8F0000000000000000000110000000000000047
:10A900000000000000000000000000000100000046
:10A91000010001000CA902000100010020A90200B1
:10A92000000000003D890200ED4E0200770A0000A1
:10A9300000000000770A0000000000007ADA000042
:10A9400000000000717E020007000000000000000F
:10A950000000000000000000000000007D8A0200EE
:10A96000E198020031520200BD4F020001000000D8
:10A970000000000001000600E820002055990200B8
:10A9800001000000000000000000000000000000C6
:10A9900000000000070000000000000000000000B0
:10A9A00000000000000000000300000000000000A4
:10A9B0000000000000000000000000000500000092
:10A9C0000000000000000000000000000000000087
:10A9D000098D02000000005000030050B82700203D
:10A9E00003000000D02900200000FFFFDEC0ADDE24
:10A9F000FF011EF1DEC0ADDEFE011EF1303132334B
:10AA0000343536373839414243444546802A0020A0
:10AA1000001000000400000001000000F9550200D1
:10AA200029A20200B18F020081A402000D4602009B
:10AA3000F59102007BA402002D580200556E6B6E4A
:10AA40006F776E206572726F7220636F64650000AD
:10AA500000000000B4B002000100000074AF02006A
:10AA600002000000F4AD020003000000E8AF0200A5
:10AA7000040000003CB002000500000034AF0200FA
:10AA800006000000D4AE02000700000024B002005F
:10AA90000800000048AF02000900000094AF020067
:10AAA0000A0000009CB002000B000000DCAD0200B8
:10AAB0000C00000060AF02000D000000C0B00200FA
:10AAC0000E00000014B002000F00000050B00200A1
:10AAD0001000000084B0020011000000D4B0020099
:10AAE0008000000014AF02008100000098AE020058
:10AAF0008200000058AE02008300000038AE020061
:10AB00008400000074AE020085000000ECAE02007C
:10AB100086000000FCAF020090000000B4AE02000E
:10AB20009100000018AE02000082000064B0020034
:10AB300001820000B0AF020002820000CCAF020030
:10AB40006D700200557002004B700200FFFFFFFFA6
:10AB5000FFFFFFFFFFFFFFFFFFFFFFFF0000000001
:10AB6000000000000000D601070100008C21002039
:10AB7000842100208C210020D02A00201800000011
:10AB8000D8B30200E0B302000000000000000000A3
:10AB90000100000780AB020090AB0200080000003B
:10ABA000B8AB0200C8AB020008000000C8AB02004E
:10ABB000D8AB02000800000008B4020018B402007C
:10ABC0000000000000000000F8B3020008B402001A
:10ABD0000000000000000000A0B30200A8B30200C3
:10ABE000A8B30200D0B30200000000000000000083
:10ABF000D0B30200D8B3020088200020D8AB0200F6
:10AC0000F8AB020008000000E0B30200F0B302005D
:10AC1000F0B30200F8B3020008AC020018AC020066
:10AC2000080000000040404040404040404041415A
:10AC30004141414040404040404040404040404011
:10AC400040404040400502020202020202020202AB
:10AC500002020202022020202020202020202002A8
:10AC60000202020202029090909090901010101038
:10AC700010101010101010101010101010101010D4
:10AC80000202020202028888888888880808080868
:10AC90000808080808080808080808080808080834
:10ACA000020202024000000025AC020073645F62F1
:10ACB0006C655F67617474635F65786368616E6714
:10ACC000655F6D74755F7265717565737428292091
:10ACD00072657475726E656420756E6578706563F3
:10ACE0007465642076616C756520307825782E0057
:10ACF00073645F626C655F67617474735F657863CA
:10AD000068616E67655F6D74755F7265706C7928D8
:10AD1000292072657475726E656420756E65787031
:10AD200065637465642076616C756520307825787C
:10AD30002E00000073645F626C655F6761705F6422
:10AD40006174615F6C656E6774685F75706461746F
:10AD500065282920287265706C79292072657475C0
:10AD6000726E656420756E657870656374656420C5
:10AD700076616C756520307825782E0073645F628B
:10AD80006C655F6761705F646174615F6C656E675D
:10AD900074685F7570646174652829202872657114
:10ADA0007565737429206F6E20636F6E6E656374B2
:10ADB000696F6E20307825782072657475726E65C3
:10ADC0006420756E65787065637465642076616C67
:10ADD000756520307825782E000000004E52465FC1
:10ADE0004552524F525F494E56414C49445F44418F
:10ADF000544100004E52465F4552524F525F534FEE
:10AE000046544445564943455F4E4F545F454E4175
:10AE1000424C4544000000004E52465F4552524F9E
:10AE2000525F464541545552455F4E4F545F454E23
:10AE300041424C45440000004E52465F4552524F3D
:10AE4000525F4D555445585F554E4C4F434B5F46EE
:10AE500041494C45440000004E52465F4552524F16
:10AE6000525F4D555445585F4C4F434B5F464149E7
:10AE70004C4544004E52465F4552524F525F4D552D
:10AE80005445585F434F4E445F494E49545F4641D5
:10AE9000494C4544000000004E52465F4552524F17
:10AEA000525F4D555445585F494E49545F4641499C
:10AEB0004C4544004E52465F4552524F525F4150FE
:10AEC000495F4E4F545F494D504C454D454E54459A
:10AED000440000004E52465F4552524F525F4E4F63
:10AEE000545F535550504F52544544004E52465FA4
:10AEF0004552524F525F4D4F44554C455F414C5265
:10AF0000454144595F494E495449414C495A454489
:10AF1000000000004E52465F4552524F525F4D4F67
:10AF200044554C455F4E4F545F494E495449414C3E
:10AF30005A4544004E52465F4552524F525F4E4F63
:10AF4000545F464F554E44004E52465F4552524F55
:10AF5000525F494E56414C49445F53544154450059
:10AF60004E52465F4552524F525F444154415F53E7
:10AF7000495A45004E52465F4552524F525F535612
:10AF8000435F48414E444C45525F4D495353494EEF
:10AF9000470000004E52465F4552524F525F494EA5
:10AFA00056414C49445F4C454E4754480000000010
:10AFB0004E52465F4552524F525F4452565F54576D
:10AFC000495F4552525F414E41434B004E52465FEE
:10AFD0004552524F525F4452565F5457495F455253
:10AFE000525F444E41434B004E52465F4552524FD2
:10AFF000525F494E5445524E414C00004E52465FFE
:10B000004552524F525F53544F524147455F465548
:10B010004C4C00004E52465F4552524F525F4E55C7
:10B020004C4C00004E52465F4552524F525F494EC3
:10B0300056414C49445F504152414D004E52465F8B
:10B040004552524F525F4E4F5F4D454D000000003C
:10B050004E52465F4552524F525F464F524249440C
:10B0600044454E004E52465F4552524F525F445245
:10B07000565F5457495F4552525F4F56455252559D
:10B080004E0000004E52465F4552524F525F494EAD
:10B0900056414C49445F4144445200004E52465F81
:10B0A0004552524F525F494E56414C49445F464CBF
:10B0B000414753004E52465F535543434553530057
:10B0C0004E52465F4552524F525F54494D454F557F
:10B0D000540000004E52465F4552524F525F425557
:10B0E000535900007761726E696E6700646562751E
:10B0F000670000001B5B313B33306D001B5B306D24
:10B10000000000001B5B313B33316D001B5B313BAA
:10B1100033326D001B5B313B33336D001B5B313BC6
:10B1200033346D001B5B313B33356D001B5B313BB2
:10B1300033366D001B5B313B33376D00696E666FD4
:10B14000000000006572726F7200000073645F623D
:10B150006C655F6366675F73657428292072657428
:10B1600075726E6564202573207768656E20617442
:10B1700074656D7074696E6720746F2073657420D8
:10B18000424C455F47415454535F4346475F5345E4
:10B1900052564943455F4348414E4745442E0000BF
:10B1A00073645F626C655F6366675F7365742829AB
:10B1B0002072657475726E656420257320776865EA
:10B1C0006E20617474656D7074696E6720746F2091
:10B1D00073657420424C455F434F4D4D4F4E5F4366
:10B1E00046475F56535F555549442E0073645F626E
:10B1F0006C655F6366675F73657428292072657488
:10B2000075726E6564202573207768656E206174A1
:10B2100074656D7074696E6720746F207365742037
:10B22000424C455F47415454535F4346475F415446
:10B2300054525F5441425F53495A452E000000006A
:10B2400073645F626C655F6366675F73657428290A
:10B250002072657475726E65642025732077686549
:10B260006E20617474656D7074696E6720746F20F0
:10B2700073657420424C455F434F4E4E5F434647D3
:10B280005F4741502E00000073645F626C655F632E
:10B2900066675F73657428292072657475726E65C0
:10B2A00064202573207768656E20617474656D7005
:10B2B00074696E6720746F2073657420424C455F1B
:10B2C0004741505F4346475F524F4C455F434F55A0
:10B2D0004E542E00626C655F67617474000000005C
:10B2E000636C6F636B0000006770696F74650000CA
:10B2F000756172740000000062616C6C6F63000025
:10B300007077725F6D676D7400000000617070008F
:10B310006E72665F736468006E72665F7364685F06
:10B32000626C65006E72665F7364685F736F630062
:10B3300018B4020088200020D8010000B0260200C6
:10B340006CB4020060220020502D0000E82B0200A7
:10B35000D4B2020000000300E0B2020000000000CE
:10B36000E8B2020000000000F0B20200000000009D
:10B37000F8B202000000000000B30200000000006C
:10B380000CB302000000030010B302000000030031
:10B3900018B302000000030024B302000000030001
:10B3A000613B020000000000816202006022002078
:10B3B000B334020074220020F539020000000000BE
:10B3C000653A0200000000006D3C02000000000031
:10B3D0001139020000000000C16B020000000000F3
:10B3E000719C020000000000F96B020000000000E8
:10B3F0001B35020074220020E177020000000000EB
:10B4000009790200000000008192020000000000A3
:10B41000D96B020000000000062BFFFF0A18010490
:10B42000313989022A18017909390A017212204238
:10B43000400B1C40ABC01444B10214E4B0021A3CEF
:10B44000081AEC081AFC041AF4041A04101A0C0462
:10B450001A14041A1C041A24041A2C041A34045151
:0CB460008490D0030B1C6D4C6401640050
:0400000500022201D2
:00000001FF
