Component: ARM Compiler 5.06 update 5 (build 528) Tool: armlink [4d35e2]

==============================================================================

Section Cross References

    main.o(i.LM75B_reset) refers to nrf_log_frontend.o(i.nrf_log_frontend_std_0) for nrf_log_frontend_std_0
    main.o(i.LM75B_reset) refers to nrf_log_frontend.o(i.nrf_log_frontend_dequeue) for nrf_log_frontend_dequeue
    main.o(i.LM75B_reset) refers to main.o(i.nrf_drv_twi_tx) for nrf_drv_twi_tx
    main.o(i.LM75B_reset) refers to app_error.o(i.app_error_handler_bare) for app_error_handler_bare
    main.o(i.LM75B_reset) refers to main.o(.data) for m_xfer_done
    main.o(i.LM75B_reset) refers to nrf_log_frontend.o(log_dynamic_data) for m_nrf_log_app_logs_data_dynamic
    main.o(i.LM75B_reset) refers to main.o(.constdata) for m_twi
    main.o(i.SHTC1_set_mode) refers to nrf_log_frontend.o(i.nrf_log_frontend_std_0) for nrf_log_frontend_std_0
    main.o(i.SHTC1_set_mode) refers to nrf_log_frontend.o(i.nrf_log_frontend_dequeue) for nrf_log_frontend_dequeue
    main.o(i.SHTC1_set_mode) refers to main.o(i.nrf_drv_twi_tx) for nrf_drv_twi_tx
    main.o(i.SHTC1_set_mode) refers to app_error.o(i.app_error_handler_bare) for app_error_handler_bare
    main.o(i.SHTC1_set_mode) refers to main.o(.data) for m_xfer_done
    main.o(i.SHTC1_set_mode) refers to nrf_log_frontend.o(log_dynamic_data) for m_nrf_log_app_logs_data_dynamic
    main.o(i.SHTC1_set_mode) refers to main.o(.constdata) for m_twi
    main.o(i.main) refers to nrf_log_frontend.o(i.nrf_log_init) for nrf_log_init
    main.o(i.main) refers to app_error.o(i.app_error_handler_bare) for app_error_handler_bare
    main.o(i.main) refers to nrf_log_default_backends.o(i.nrf_log_default_backends_init) for nrf_log_default_backends_init
    main.o(i.main) refers to nrf_log_frontend.o(i.nrf_log_frontend_std_0) for nrf_log_frontend_std_0
==============================================================================

Removing Unused input sections from the image.

    Removing main.o(.rev16_text), (4 bytes).
    Removing main.o(.revsh_text), (4 bytes).
    Removing main.o(.rrx_text), (6 bytes).
    Removing main.o(i.LM75B_reset), (160 bytes).
    Removing main.o(i.read_sensor_id), (128 bytes).
    Removing boards.o(.rev16_text), (4 bytes).
    Removing boards.o(.revsh_text), (4 bytes).
    Removing boards.o(.rrx_text), (6 bytes).
    Removing boards.o(i.bsp_board_button_idx_to_pin), (12 bytes).
    Removing boards.o(i.bsp_board_button_state_get), (52 bytes).
    Removing boards.o(i.bsp_board_buttons_init), (44 bytes).
    Removing boards.o(i.bsp_board_init), (26 bytes).
    Removing boards.o(i.bsp_board_led_idx_to_pin), (12 bytes).
    Removing boards.o(i.bsp_board_led_invert), (56 bytes).
    Removing boards.o(i.bsp_board_led_off), (20 bytes).
    Removing boards.o(i.bsp_board_led_on), (20 bytes).
    Removing boards.o(i.bsp_board_led_state_get), (52 bytes).
    Removing boards.o(i.bsp_board_leds_init), (48 bytes).
==============================================================================

Image Symbol Table

    Local Symbols

    Symbol Name                              Value     Ov Type        Size  Object(Section)

    RESET                                    0x00000000   Section      512  arm_startup_nrf52840.o(RESET)
    ../clib/microlib/ctype/ctype.c           0x00000000   Number         0  isxdigit_o.o ABSOLUTE
    ../clib/microlib/ctype/ctype.c           0x00000000   Number         0  isupper_o.o ABSOLUTE
    ../clib/microlib/ctype/ctype.c           0x00000000   Number         0  isspace_o.o ABSOLUTE
    ../clib/microlib/ctype/ctype.c           0x00000000   Number         0  ctype_o.o ABSOLUTE
    ../clib/microlib/ctype/ctype.c           0x00000000   Number         0  ispunct_o.o ABSOLUTE
    ../clib/microlib/ctype/ctype.c           0x00000000   Number         0  isalnum_o.o ABSOLUTE
    ../clib/microlib/ctype/ctype.c           0x00000000   Number         0  isprint_o.o ABSOLUTE
    ../clib/microlib/ctype/ctype.c           0x00000000   Number         0  isalpha_o.o ABSOLUTE
    ../clib/microlib/ctype/ctype.c           0x00000000   Number         0  isblank_o.o ABSOLUTE
    ../clib/microlib/ctype/ctype.c           0x00000000   Number         0  iscntrl_o.o ABSOLUTE
    ../clib/microlib/ctype/ctype.c           0x00000000   Number         0  isdigit_o.o ABSOLUTE
    ../clib/microlib/ctype/ctype.c           0x00000000   Number         0  isgraph_o.o ABSOLUTE
    ../clib/microlib/ctype/ctype.c           0x00000000   Number         0  islower_o.o ABSOLUTE
    ../clib/microlib/init/entry.s            0x00000000   Number         0  entry11b.o ABSOLUTE
    ../clib/microlib/init/entry.s            0x00000000   Number         0  entry.o ABSOLUTE
    ../clib/microlib/init/entry.s            0x00000000   Number         0  entry8b.o ABSOLUTE
    ../clib/microlib/init/entry.s            0x00000000   Number         0  entry5.o ABSOLUTE
    ../clib/microlib/init/entry.s            0x00000000   Number         0  entry2.o ABSOLUTE
    ../clib/microlib/init/entry.s            0x00000000   Number         0  entry11a.o ABSOLUTE
    ../clib/microlib/init/entry.s            0x00000000   Number         0  entry10b.o ABSOLUTE
    ../clib/microlib/init/entry.s            0x00000000   Number         0  entry7a.o ABSOLUTE
    ../clib/microlib/init/entry.s            0x00000000   Number         0  entry10a.o ABSOLUTE
    ../clib/microlib/init/entry.s            0x00000000   Number         0  entry9b.o ABSOLUTE
    ../clib/microlib/init/entry.s            0x00000000   Number         0  entry9a.o ABSOLUTE
    ../clib/microlib/init/entry.s            0x00000000   Number         0  entry7b.o ABSOLUTE
    ../clib/microlib/init/entry.s            0x00000000   Number         0  entry8a.o ABSOLUTE
    ../clib/microlib/stdio/fflush.c          0x00000000   Number         0  fflush.o ABSOLUTE
    ../clib/microlib/stdio/fputc.c           0x00000000   Number         0  fputc.o ABSOLUTE
    ../clib/microlib/stdio/semi.s            0x00000000   Number         0  semi.o ABSOLUTE
    ../clib/microlib/stdio/streams.c         0x00000000   Number         0  stdout.o ABSOLUTE
    ../clib/microlib/string/memcpy.c         0x00000000   Number         0  memcpyb.o ABSOLUTE
    ../clib/microlib/string/memcpy.c         0x00000000   Number         0  memcpya.o ABSOLUTE
    ../clib/microlib/string/memset.c         0x00000000   Number         0  memseta.o ABSOLUTE
    ../clib/microlib/string/strcmp.c         0x00000000   Number         0  strcmp.o ABSOLUTE
    ../clib/microlib/string/strcpy.c         0x00000000   Number         0  strcpy.o ABSOLUTE
    ../clib/microlib/string/strlen.c         0x00000000   Number         0  strlen.o ABSOLUTE
    ../clib/microlib/stubs.s                 0x00000000   Number         0  iusesemip.o ABSOLUTE
    ../clib/microlib/stubs.s                 0x00000000   Number         0  useno.o ABSOLUTE
    ..\..\..\..\..\..\components\boards\boards.c 0x00000000   Number         0  boards.o ABSOLUTE
    ..\..\..\..\..\..\components\libraries\atomic\nrf_atomic.c 0x00000000   Number         0  nrf_atomic.o ABSOLUTE
    ..\..\..\..\..\..\components\libraries\balloc\nrf_balloc.c 0x00000000   Number         0  nrf_balloc.o ABSOLUTE
    ..\..\..\..\..\..\components\libraries\experimental_log\src\nrf_log_backend_rtt.c 0x00000000   Number         0  nrf_log_backend_rtt.o ABSOLUTE
    ..\..\..\..\..\..\components\libraries\experimental_log\src\nrf_log_backend_serial.c 0x00000000   Number         0  nrf_log_backend_serial.o ABSOLUTE
    ..\..\..\..\..\..\components\libraries\experimental_log\src\nrf_log_backend_uart.c 0x00000000   Number         0  nrf_log_backend_uart.o ABSOLUTE
    ..\..\..\..\..\..\components\libraries\experimental_log\src\nrf_log_default_backends.c 0x00000000   Number         0  nrf_log_default_backends.o ABSOLUTE
    ..\..\..\..\..\..\components\libraries\experimental_log\src\nrf_log_frontend.c 0x00000000   Number         0  nrf_log_frontend.o ABSOLUTE
    ..\..\..\..\..\..\components\libraries\experimental_log\src\nrf_log_str_formatter.c 0x00000000   Number         0  nrf_log_str_formatter.o ABSOLUTE
    ..\..\..\..\..\..\components\libraries\experimental_memobj\nrf_memobj.c 0x00000000   Number         0  nrf_memobj.o ABSOLUTE
    ..\..\..\..\..\..\components\libraries\strerror\nrf_strerror.c 0x00000000   Number         0  nrf_strerror.o ABSOLUTE
    ..\..\..\..\..\..\components\libraries\util\app_error.c 0x00000000   Number         0  app_error.o ABSOLUTE
    ..\..\..\..\..\..\components\libraries\util\app_error_handler_keil.c 0x00000000   Number         0  app_error_handler_keil.o ABSOLUTE
    ..\..\..\..\..\..\components\libraries\util\app_error_weak.c 0x00000000   Number         0  app_error_weak.o ABSOLUTE
    ..\..\..\..\..\..\components\libraries\util\app_util_platform.c 0x00000000   Number         0  app_util_platform.o ABSOLUTE
    ..\..\..\..\..\..\components\libraries\util\nrf_assert.c 0x00000000   Number         0  nrf_assert.o ABSOLUTE
    ..\..\..\..\..\..\external\fprintf\nrf_fprintf.c 0x00000000   Number         0  nrf_fprintf.o ABSOLUTE
    ..\..\..\..\..\..\external\fprintf\nrf_fprintf_format.c 0x00000000   Number         0  nrf_fprintf_format.o ABSOLUTE
    ..\..\..\..\..\..\external\segger_rtt\SEGGER_RTT.c 0x00000000   Number         0  segger_rtt.o ABSOLUTE
    ..\..\..\..\..\..\external\segger_rtt\SEGGER_RTT_Syscalls_KEIL.c 0x00000000   Number         0  segger_rtt_syscalls_keil.o ABSOLUTE
    ..\..\..\..\..\..\external\segger_rtt\SEGGER_RTT_printf.c 0x00000000   Number         0  segger_rtt_printf.o ABSOLUTE
    ..\..\..\..\..\..\integration\nrfx\legacy\nrf_drv_twi.c 0x00000000   Number         0  nrf_drv_twi.o ABSOLUTE
    ..\..\..\..\..\..\integration\nrfx\legacy\nrf_drv_uart.c 0x00000000   Number         0  nrf_drv_uart.o ABSOLUTE
    ..\..\..\..\..\..\modules\nrfx\drivers\src\nrfx_gpiote.c 0x00000000   Number         0  nrfx_gpiote.o ABSOLUTE
    ..\..\..\..\..\..\modules\nrfx\drivers\src\nrfx_twi.c 0x00000000   Number         0  nrfx_twi.o ABSOLUTE
    ..\..\..\..\..\..\modules\nrfx\drivers\src\nrfx_twim.c 0x00000000   Number         0  nrfx_twim.o ABSOLUTE
    ..\..\..\..\..\..\modules\nrfx\drivers\src\nrfx_uart.c 0x00000000   Number         0  nrfx_uart.o ABSOLUTE
    ..\..\..\..\..\..\modules\nrfx\drivers\src\nrfx_uarte.c 0x00000000   Number         0  nrfx_uarte.o ABSOLUTE
    ..\..\..\..\..\..\modules\nrfx\drivers\src\prs\nrfx_prs.c 0x00000000   Number         0  nrfx_prs.o ABSOLUTE
    ..\..\..\main.c                          0x00000000   Number         0  main.o ABSOLUTE
    ..\\..\\..\\..\\..\\..\\components\\boards\\boards.c 0x00000000   Number         0  boards.o ABSOLUTE
    ..\\..\\..\\..\\..\\..\\components\\libraries\\atomic\\nrf_atomic.c 0x00000000   Number         0  nrf_atomic.o ABSOLUTE
    ..\\..\\..\\..\\..\\..\\components\\libraries\\balloc\\nrf_balloc.c 0x00000000   Number         0  nrf_balloc.o ABSOLUTE
    ..\\..\\..\\..\\..\\..\\components\\libraries\\experimental_log\\src\\nrf_log_backend_rtt.c 0x00000000   Number         0  nrf_log_backend_rtt.o ABSOLUTE
    ..\\..\\..\\..\\..\\..\\components\\libraries\\experimental_log\\src\\nrf_log_backend_serial.c 0x00000000   Number         0  nrf_log_backend_serial.o ABSOLUTE
    ..\\..\\..\\..\\..\\..\\components\\libraries\\experimental_log\\src\\nrf_log_backend_uart.c 0x00000000   Number         0  nrf_log_backend_uart.o ABSOLUTE
    ..\\..\\..\\..\\..\\..\\components\\libraries\\experimental_log\\src\\nrf_log_default_backends.c 0x00000000   Number         0  nrf_log_default_backends.o ABSOLUTE
    ..\\..\\..\\..\\..\\..\\components\\libraries\\experimental_log\\src\\nrf_log_frontend.c 0x00000000   Number         0  nrf_log_frontend.o ABSOLUTE
    ..\\..\\..\\..\\..\\..\\components\\libraries\\experimental_log\\src\\nrf_log_str_formatter.c 0x00000000   Number         0  nrf_log_str_formatter.o ABSOLUTE
    ..\\..\\..\\..\\..\\..\\components\\libraries\\experimental_memobj\\nrf_memobj.c 0x00000000   Number         0  nrf_memobj.o ABSOLUTE
    ..\\..\\..\\..\\..\\..\\components\\libraries\\strerror\\nrf_strerror.c 0x00000000   Number         0  nrf_strerror.o ABSOLUTE
    ..\\..\\..\\..\\..\\..\\components\\libraries\\util\\app_error.c 0x00000000   Number         0  app_error.o ABSOLUTE
    ..\\..\\..\\..\\..\\..\\components\\libraries\\util\\app_error_handler_keil.c 0x00000000   Number         0  app_error_handler_keil.o ABSOLUTE
    ..\\..\\..\\..\\..\\..\\components\\libraries\\util\\app_error_weak.c 0x00000000   Number         0  app_error_weak.o ABSOLUTE
    ..\\..\\..\\..\\..\\..\\components\\libraries\\util\\app_util_platform.c 0x00000000   Number         0  app_util_platform.o ABSOLUTE
    ..\\..\\..\\..\\..\\..\\components\\libraries\\util\\nrf_assert.c 0x00000000   Number         0  nrf_assert.o ABSOLUTE
    ..\\..\\..\\..\\..\\..\\external\\fprintf\\nrf_fprintf.c 0x00000000   Number         0  nrf_fprintf.o ABSOLUTE
    ..\\..\\..\\..\\..\\..\\external\\fprintf\\nrf_fprintf_format.c 0x00000000   Number         0  nrf_fprintf_format.o ABSOLUTE
    ..\\..\\..\\..\\..\\..\\external\\segger_rtt\\SEGGER_RTT.c 0x00000000   Number         0  segger_rtt.o ABSOLUTE
    ..\\..\\..\\..\\..\\..\\external\\segger_rtt\\SEGGER_RTT_Syscalls_KEIL.c 0x00000000   Number         0  segger_rtt_syscalls_keil.o ABSOLUTE
    ..\\..\\..\\..\\..\\..\\external\\segger_rtt\\SEGGER_RTT_printf.c 0x00000000   Number         0  segger_rtt_printf.o ABSOLUTE
    ..\\..\\..\\..\\..\\..\\integration\\nrfx\\legacy\\nrf_drv_twi.c 0x00000000   Number         0  nrf_drv_twi.o ABSOLUTE
    ..\\..\\..\\..\\..\\..\\integration\\nrfx\\legacy\\nrf_drv_uart.c 0x00000000   Number         0  nrf_drv_uart.o ABSOLUTE
    ..\\..\\..\\..\\..\\..\\modules\\nrfx\\drivers\\src\\nrfx_gpiote.c 0x00000000   Number         0  nrfx_gpiote.o ABSOLUTE
    ..\\..\\..\\..\\..\\..\\modules\\nrfx\\drivers\\src\\nrfx_twi.c 0x00000000   Number         0  nrfx_twi.o ABSOLUTE
    ..\\..\\..\\..\\..\\..\\modules\\nrfx\\drivers\\src\\nrfx_twim.c 0x00000000   Number         0  nrfx_twim.o ABSOLUTE
    ..\\..\\..\\..\\..\\..\\modules\\nrfx\\drivers\\src\\nrfx_uart.c 0x00000000   Number         0  nrfx_uart.o ABSOLUTE
    ..\\..\\..\\..\\..\\..\\modules\\nrfx\\drivers\\src\\nrfx_uarte.c 0x00000000   Number         0  nrfx_uarte.o ABSOLUTE
    ..\\..\\..\\..\\..\\..\\modules\\nrfx\\drivers\\src\\prs\\nrfx_prs.c 0x00000000   Number         0  nrfx_prs.o ABSOLUTE
    ..\\..\\..\\main.c                       0x00000000   Number         0  main.o ABSOLUTE
    RTE\Device\nRF52840_xxAA\arm_startup_nrf52840.s 0x00000000   Number         0  arm_startup_nrf52840.o ABSOLUTE
    RTE\Device\nRF52840_xxAA\system_nrf52840.c 0x00000000   Number         0  system_nrf52840.o ABSOLUTE
    RTE\\Device\\nRF52840_xxAA\\system_nrf52840.c 0x00000000   Number         0  system_nrf52840.o ABSOLUTE
    dc.s                                     0x00000000   Number         0  dc.o ABSOLUTE
    handlers.s                               0x00000000   Number         0  handlers.o ABSOLUTE
    init.s                                   0x00000000   Number         0  init.o ABSOLUTE
    .ARM.Collect$$$$00000000                 0x00000200   Section        0  entry.o(.ARM.Collect$$$$00000000)
    .ARM.Collect$$$$00000001                 0x00000200   Section        4  entry2.o(.ARM.Collect$$$$00000001)
    .ARM.Collect$$$$00000004                 0x00000204   Section        4  entry5.o(.ARM.Collect$$$$00000004)
    .ARM.Collect$$$$00000008                 0x00000208   Section        0  entry7b.o(.ARM.Collect$$$$00000008)
    .ARM.Collect$$$$0000000A                 0x00000208   Section        0  entry8b.o(.ARM.Collect$$$$0000000A)
    .ARM.Collect$$$$0000000B                 0x00000208   Section        8  entry9a.o(.ARM.Collect$$$$0000000B)
    .ARM.Collect$$$$0000000D                 0x00000210   Section        0  entry10a.o(.ARM.Collect$$$$0000000D)
    .ARM.Collect$$$$0000000F                 0x00000210   Section        0  entry11a.o(.ARM.Collect$$$$0000000F)
    .ARM.Collect$$$$00002712                 0x00000210   Section        4  entry2.o(.ARM.Collect$$$$00002712)
    __lit__00000000                          0x00000210   Data           4  entry2.o(.ARM.Collect$$$$00002712)
    .emb_text                                0x00000214   Section      226  nrf_atomic.o(.emb_text)
    $v0                                      0x00000214   Number         0  nrf_atomic.o(.emb_text)
    .text                                    0x000002f8   Section       36  arm_startup_nrf52840.o(.text)
    $v0                                      0x000002f8   Number         0  arm_startup_nrf52840.o(.text)
    .text                                    0x0000031c   Section        0  ctype_o.o(.text)
    .text                                    0x00000324   Section        0  memcpya.o(.text)
    .text                                    0x00000348   Section        0  memseta.o(.text)
    .text                                    0x0000036c   Section        0  strlen.o(.text)
    .text                                    0x0000037a   Section        0  strcpy.o(.text)
    .text                                    0x0000038c   Section       36  init.o(.text)
    i.GPIOTE_IRQHandler                      0x000003b0   Section        0  nrfx_gpiote.o(i.GPIOTE_IRQHandler)
    i.SEGGER_RTT_Init                        0x000005dc   Section        0  segger_rtt.o(i.SEGGER_RTT_Init)
    i.SEGGER_RTT_WriteNoLock                 0x000005e4   Section        0  segger_rtt.o(i.SEGGER_RTT_WriteNoLock)
    i.SHTC1_set_mode                         0x00000668   Section        0  main.o(i.SHTC1_set_mode)
    i.SPIM0_SPIS0_TWIM0_TWIS0_SPI0_TWI0_IRQHandler 0x000008ec   Section        0  nrfx_twim.o(i.SPIM0_SPIS0_TWIM0_TWIS0_SPI0_TWI0_IRQHandler)
    i.SystemCoreClockUpdate                  0x00000900   Section        0  system_nrf52840.o(i.SystemCoreClockUpdate)
    i.SystemInit                             0x00000910   Section        0  system_nrf52840.o(i.SystemInit)
    i.UARTE0_UART0_IRQHandler                0x00000b40   Section        0  nrfx_prs.o(i.UARTE0_UART0_IRQHandler)
    i._DoInit                                0x00000b50   Section        0  segger_rtt.o(i._DoInit)
    _DoInit                                  0x00000b51   Thumb Code    74  segger_rtt.o(i._DoInit)
    i._GetAvailWriteSpace                    0x00000bc0   Section        0  segger_rtt.o(i._GetAvailWriteSpace)
    _GetAvailWriteSpace                      0x00000bc1   Thumb Code    28  segger_rtt.o(i._GetAvailWriteSpace)
    i._WriteBlocking                         0x00000bdc   Section        0  segger_rtt.o(i._WriteBlocking)
    _WriteBlocking                           0x00000bdd   Thumb Code   114  segger_rtt.o(i._WriteBlocking)
    i._WriteNoCheck                          0x00000c4e   Section        0  segger_rtt.o(i._WriteNoCheck)
    _WriteNoCheck                            0x00000c4f   Thumb Code    76  segger_rtt.o(i._WriteNoCheck)
    i.__scatterload_copy                     0x00000c9a   Section       14  handlers.o(i.__scatterload_copy)
    i.__scatterload_null                     0x00000ca8   Section        2  handlers.o(i.__scatterload_null)
    i.__scatterload_zeroinit                 0x00000caa   Section       14  handlers.o(i.__scatterload_zeroinit)
    i.app_error_fault_handler                0x00000cb8   Section        0  app_error_weak.o(i.app_error_fault_handler)
    i.app_error_handler_bare                 0x00000d68   Section        0  app_error.o(i.app_error_handler_bare)
    i.app_util_critical_region_enter         0x00000d84   Section        0  app_util_platform.o(i.app_util_critical_region_enter)
    i.app_util_critical_region_exit          0x00000d8e   Section        0  app_util_platform.o(i.app_util_critical_region_exit)
    i.app_util_disable_irq                   0x00000d98   Section        0  app_util_platform.o(i.app_util_disable_irq)
    i.app_util_enable_irq                    0x00000dac   Section        0  app_util_platform.o(i.app_util_enable_irq)
    i.backend_id_assign                      0x00000dc4   Section        0  nrf_log_frontend.o(i.backend_id_assign)
    backend_id_assign                        0x00000dc5   Thumb Code    52  nrf_log_frontend.o(i.backend_id_assign)
    i.buf_prealloc                           0x00000dfc   Section        0  nrf_log_frontend.o(i.buf_prealloc)
    buf_prealloc                             0x00000dfd   Thumb Code   214  nrf_log_frontend.o(i.buf_prealloc)
    i.buffer_add                             0x00000edc   Section        0  nrf_fprintf_format.o(i.buffer_add)
    buffer_add                               0x00000edd   Thumb Code    32  nrf_fprintf_format.o(i.buffer_add)
    i.buffer_is_empty                        0x00000efc   Section        0  nrf_log_frontend.o(i.buffer_is_empty)
    i.channel_handler_get                    0x00000f14   Section        0  nrfx_gpiote.o(i.channel_handler_get)
    channel_handler_get                      0x00000f15   Thumb Code    10  nrfx_gpiote.o(i.channel_handler_get)
    i.channel_port_get                       0x00000f24   Section        0  nrfx_gpiote.o(i.channel_port_get)
    channel_port_get                         0x00000f25   Thumb Code     8  nrfx_gpiote.o(i.channel_port_get)
    i.dropped_sat16_get                      0x00000f30   Section        0  nrf_log_frontend.o(i.dropped_sat16_get)
    dropped_sat16_get                        0x00000f31   Thumb Code    18  nrf_log_frontend.o(i.dropped_sat16_get)
    i.errata_103                             0x00000f48   Section        0  system_nrf52840.o(i.errata_103)
    errata_103                               0x00000f49   Thumb Code    24  system_nrf52840.o(i.errata_103)
    i.errata_115                             0x00000f64   Section        0  system_nrf52840.o(i.errata_115)
    errata_115                               0x00000f65   Thumb Code    24  system_nrf52840.o(i.errata_115)
    i.errata_120                             0x00000f80   Section        0  system_nrf52840.o(i.errata_120)
    errata_120                               0x00000f81   Thumb Code    24  system_nrf52840.o(i.errata_120)
    i.errata_136                             0x00000f9c   Section        0  system_nrf52840.o(i.errata_136)
    errata_136                               0x00000f9d   Thumb Code    50  system_nrf52840.o(i.errata_136)
    i.errata_36                              0x00000fd4   Section        0  system_nrf52840.o(i.errata_36)
    errata_36                                0x00000fd5   Thumb Code    50  system_nrf52840.o(i.errata_36)
    i.errata_66                              0x0000100c   Section        0  system_nrf52840.o(i.errata_66)
    errata_66                                0x0000100d   Thumb Code    50  system_nrf52840.o(i.errata_66)
    i.errata_98                              0x00001044   Section        0  system_nrf52840.o(i.errata_98)
    errata_98                                0x00001045   Thumb Code    24  system_nrf52840.o(i.errata_98)
    i.int_print                              0x00001060   Section        0  nrf_fprintf_format.o(i.int_print)
    int_print                                0x00001061   Thumb Code   190  nrf_fprintf_format.o(i.int_print)
    i.invalid_packets_pushed_str_omit        0x0000111e   Section        0  nrf_log_frontend.o(i.invalid_packets_pushed_str_omit)
    invalid_packets_pushed_str_omit          0x0000111f   Thumb Code   108  nrf_log_frontend.o(i.invalid_packets_pushed_str_omit)
    i.log_skip                               0x0000118c   Section        0  nrf_log_frontend.o(i.log_skip)
    log_skip                                 0x0000118d   Thumb Code   190  nrf_log_frontend.o(i.log_skip)
    i.main                                   0x00001254   Section        0  main.o(i.main)
    i.memobj_op                              0x000013c8   Section        0  nrf_memobj.o(i.memobj_op)
    memobj_op                                0x000013c9   Thumb Code   174  nrf_memobj.o(i.memobj_op)
    i.module_idx_get                         0x00001478   Section        0  nrf_log_frontend.o(i.module_idx_get)
    module_idx_get                           0x00001479   Thumb Code    52  nrf_log_frontend.o(i.module_idx_get)
    i.nrf_atomic_flag_clear_fetch            0x000014b0   Section        0  nrf_atomic.o(i.nrf_atomic_flag_clear_fetch)
    i.nrf_atomic_flag_set                    0x000014be   Section        0  nrf_atomic.o(i.nrf_atomic_flag_set)
    i.nrf_atomic_u32_add                     0x000014cc   Section        0  nrf_atomic.o(i.nrf_atomic_u32_add)
    i.nrf_atomic_u32_fetch_and               0x000014e2   Section        0  nrf_atomic.o(i.nrf_atomic_u32_fetch_and)
    i.nrf_atomic_u32_fetch_store             0x000014f8   Section        0  nrf_atomic.o(i.nrf_atomic_u32_fetch_store)
    i.nrf_atomic_u32_or                      0x0000150e   Section        0  nrf_atomic.o(i.nrf_atomic_u32_or)
    i.nrf_atomic_u32_sub                     0x00001524   Section        0  nrf_atomic.o(i.nrf_atomic_u32_sub)
    i.nrf_balloc_alloc                       0x0000153a   Section        0  nrf_balloc.o(i.nrf_balloc_alloc)
    i.nrf_balloc_block2idx                   0x00001586   Section        0  nrf_balloc.o(i.nrf_balloc_block2idx)
    nrf_balloc_block2idx                     0x00001587   Thumb Code    16  nrf_balloc.o(i.nrf_balloc_block2idx)
    i.nrf_balloc_free                        0x00001596   Section        0  nrf_balloc.o(i.nrf_balloc_free)
    i.nrf_balloc_idx2block                   0x000015c0   Section        0  nrf_balloc.o(i.nrf_balloc_idx2block)
    nrf_balloc_idx2block                     0x000015c1   Thumb Code    12  nrf_balloc.o(i.nrf_balloc_idx2block)
    i.nrf_balloc_init                        0x000015cc   Section        0  nrf_balloc.o(i.nrf_balloc_init)
    i.nrf_bitmask_bit_is_set                 0x00001608   Section        0  nrfx_gpiote.o(i.nrf_bitmask_bit_is_set)
    nrf_bitmask_bit_is_set                   0x00001609   Thumb Code    22  nrfx_gpiote.o(i.nrf_bitmask_bit_is_set)
    i.nrf_bitmask_bit_set                    0x0000161e   Section        0  nrfx_gpiote.o(i.nrf_bitmask_bit_set)
    nrf_bitmask_bit_set                      0x0000161f   Thumb Code    22  nrfx_gpiote.o(i.nrf_bitmask_bit_set)
    i.nrf_drv_twi_init                       0x00001634   Section        0  nrf_drv_twi.o(i.nrf_drv_twi_init)
    i.nrf_drv_twi_rx                         0x00001684   Section        0  main.o(i.nrf_drv_twi_rx)
    nrf_drv_twi_rx                           0x00001685   Thumb Code    36  main.o(i.nrf_drv_twi_rx)
    i.nrf_drv_twi_tx                         0x000016a8   Section        0  main.o(i.nrf_drv_twi_tx)
    nrf_drv_twi_tx                           0x000016a9   Thumb Code    44  main.o(i.nrf_drv_twi_tx)
    i.nrf_fprintf                            0x000016d4   Section        0  nrf_fprintf.o(i.nrf_fprintf)
    i.nrf_fprintf_buffer_flush               0x000016fe   Section        0  nrf_fprintf.o(i.nrf_fprintf_buffer_flush)
    i.nrf_fprintf_fmt                        0x0000171a   Section        0  nrf_fprintf_format.o(i.nrf_fprintf_fmt)
    i.nrf_gpio_cfg                           0x0000190c   Section        0  nrfx_twim.o(i.nrf_gpio_cfg)
    nrf_gpio_cfg                             0x0000190d   Thumb Code    52  nrfx_twim.o(i.nrf_gpio_cfg)
    i.nrf_gpio_cfg_sense_set                 0x00001944   Section        0  nrfx_gpiote.o(i.nrf_gpio_cfg_sense_set)
    nrf_gpio_cfg_sense_set                   0x00001945   Thumb Code    58  nrfx_gpiote.o(i.nrf_gpio_cfg_sense_set)
    i.nrf_gpio_pin_clear                     0x0000197e   Section        0  nrf_drv_twi.o(i.nrf_gpio_pin_clear)
    nrf_gpio_pin_clear                       0x0000197f   Thumb Code    26  nrf_drv_twi.o(i.nrf_gpio_pin_clear)
    i.nrf_gpio_pin_port_decode               0x00001998   Section        0  nrf_drv_twi.o(i.nrf_gpio_pin_port_decode)
    nrf_gpio_pin_port_decode                 0x00001999   Thumb Code    26  nrf_drv_twi.o(i.nrf_gpio_pin_port_decode)
    i.nrf_gpio_pin_port_decode               0x000019b8   Section        0  nrfx_gpiote.o(i.nrf_gpio_pin_port_decode)
    nrf_gpio_pin_port_decode                 0x000019b9   Thumb Code    26  nrfx_gpiote.o(i.nrf_gpio_pin_port_decode)
    i.nrf_gpio_pin_set                       0x000019d8   Section        0  nrf_drv_twi.o(i.nrf_gpio_pin_set)
    nrf_gpio_pin_set                         0x000019d9   Thumb Code    26  nrf_drv_twi.o(i.nrf_gpio_pin_set)
    i.nrf_gpio_ports_read                    0x000019f4   Section        0  nrfx_gpiote.o(i.nrf_gpio_ports_read)
    nrf_gpio_ports_read                      0x000019f5   Thumb Code    38  nrfx_gpiote.o(i.nrf_gpio_ports_read)
    i.nrf_gpiote_event_addr_get              0x00001a20   Section        0  nrfx_gpiote.o(i.nrf_gpiote_event_addr_get)
    nrf_gpiote_event_addr_get                0x00001a21   Thumb Code     8  nrfx_gpiote.o(i.nrf_gpiote_event_addr_get)
    i.nrf_gpiote_event_clear                 0x00001a2c   Section        0  nrfx_gpiote.o(i.nrf_gpiote_event_clear)
    nrf_gpiote_event_clear                   0x00001a2d   Thumb Code    28  nrfx_gpiote.o(i.nrf_gpiote_event_clear)
    i.nrf_gpiote_event_is_set                0x00001a48   Section        0  nrfx_gpiote.o(i.nrf_gpiote_event_is_set)
    nrf_gpiote_event_is_set                  0x00001a49   Thumb Code    22  nrfx_gpiote.o(i.nrf_gpiote_event_is_set)
    i.nrf_log_backend_add                    0x00001a60   Section        0  nrf_log_frontend.o(i.nrf_log_backend_add)
    i.nrf_log_backend_rtt_flush              0x00001aa8   Section        0  nrf_log_backend_rtt.o(i.nrf_log_backend_rtt_flush)
    nrf_log_backend_rtt_flush                0x00001aa9   Thumb Code     2  nrf_log_backend_rtt.o(i.nrf_log_backend_rtt_flush)
    i.nrf_log_backend_rtt_init               0x00001aaa   Section        0  nrf_log_backend_rtt.o(i.nrf_log_backend_rtt_init)
    i.nrf_log_backend_rtt_panic_set          0x00001ab2   Section        0  nrf_log_backend_rtt.o(i.nrf_log_backend_rtt_panic_set)
    nrf_log_backend_rtt_panic_set            0x00001ab3   Thumb Code     2  nrf_log_backend_rtt.o(i.nrf_log_backend_rtt_panic_set)
    i.nrf_log_backend_rtt_put                0x00001ab4   Section        0  nrf_log_backend_rtt.o(i.nrf_log_backend_rtt_put)
    nrf_log_backend_rtt_put                  0x00001ab5   Thumb Code    24  nrf_log_backend_rtt.o(i.nrf_log_backend_rtt_put)
    i.nrf_log_backend_serial_put             0x00001ad4   Section        0  nrf_log_backend_serial.o(i.nrf_log_backend_serial_put)
    i.nrf_log_color_id_get                   0x00001bc8   Section        0  nrf_log_frontend.o(i.nrf_log_color_id_get)
    i.nrf_log_default_backends_init          0x00001c00   Section        0  nrf_log_default_backends.o(i.nrf_log_default_backends_init)
    i.nrf_log_frontend_dequeue               0x00001c24   Section        0  nrf_log_frontend.o(i.nrf_log_frontend_dequeue)
    i.nrf_log_frontend_std_0                 0x00001f1c   Section        0  nrf_log_frontend.o(i.nrf_log_frontend_std_0)
    i.nrf_log_frontend_std_6                 0x00001f30   Section        0  nrf_log_frontend.o(i.nrf_log_frontend_std_6)
    i.nrf_log_hexdump_entry_process          0x00001f6c   Section        0  nrf_log_str_formatter.o(i.nrf_log_hexdump_entry_process)
    i.nrf_log_init                           0x00002024   Section        0  nrf_log_frontend.o(i.nrf_log_init)
    i.nrf_log_module_cnt_get                 0x00002088   Section        0  nrf_log_frontend.o(i.nrf_log_module_cnt_get)
    i.nrf_log_module_name_get                0x0000209c   Section        0  nrf_log_frontend.o(i.nrf_log_module_name_get)
    i.nrf_log_panic                          0x000020c0   Section        0  nrf_log_frontend.o(i.nrf_log_panic)
    i.nrf_log_std_entry_process              0x000020f4   Section        0  nrf_log_str_formatter.o(i.nrf_log_std_entry_process)
    i.nrf_memobj_alloc                       0x000021bc   Section        0  nrf_memobj.o(i.nrf_memobj_alloc)
    i.nrf_memobj_free                        0x00002236   Section        0  nrf_memobj.o(i.nrf_memobj_free)
    i.nrf_memobj_get                         0x00002276   Section        0  nrf_memobj.o(i.nrf_memobj_get)
    i.nrf_memobj_pool_init                   0x00002286   Section        0  nrf_memobj.o(i.nrf_memobj_pool_init)
    i.nrf_memobj_put                         0x00002292   Section        0  nrf_memobj.o(i.nrf_memobj_put)
    i.nrf_memobj_read                        0x000022b0   Section        0  nrf_memobj.o(i.nrf_memobj_read)
    i.nrf_memobj_write                       0x000022cc   Section        0  nrf_memobj.o(i.nrf_memobj_write)
    i.nrf_twim_errorsrc_get_and_clear        0x000022e8   Section        0  nrfx_twim.o(i.nrf_twim_errorsrc_get_and_clear)
    nrf_twim_errorsrc_get_and_clear          0x000022e9   Thumb Code    12  nrfx_twim.o(i.nrf_twim_errorsrc_get_and_clear)
    i.nrf_twim_event_check                   0x000022f4   Section        0  nrfx_twim.o(i.nrf_twim_event_check)
    nrf_twim_event_check                     0x000022f5   Thumb Code    14  nrfx_twim.o(i.nrf_twim_event_check)
    i.nrf_twim_event_clear                   0x00002302   Section        0  nrfx_twim.o(i.nrf_twim_event_clear)
    nrf_twim_event_clear                     0x00002303   Thumb Code    14  nrfx_twim.o(i.nrf_twim_event_clear)
    i.nrf_twim_int_disable                   0x00002310   Section        0  nrfx_twim.o(i.nrf_twim_int_disable)
    nrf_twim_int_disable                     0x00002311   Thumb Code     6  nrfx_twim.o(i.nrf_twim_int_disable)
    i.nrf_twim_int_enable                    0x00002316   Section        0  nrfx_twim.o(i.nrf_twim_int_enable)
    nrf_twim_int_enable                      0x00002317   Thumb Code     6  nrfx_twim.o(i.nrf_twim_int_enable)
    i.nrf_twim_rx_buffer_set                 0x0000231c   Section        0  nrfx_twim.o(i.nrf_twim_rx_buffer_set)
    nrf_twim_rx_buffer_set                   0x0000231d   Thumb Code    12  nrfx_twim.o(i.nrf_twim_rx_buffer_set)
    i.nrf_twim_rxd_amount_get                0x00002328   Section        0  nrfx_twim.o(i.nrf_twim_rxd_amount_get)
    nrf_twim_rxd_amount_get                  0x00002329   Thumb Code    10  nrfx_twim.o(i.nrf_twim_rxd_amount_get)
    i.nrf_twim_shorts_set                    0x00002332   Section        0  nrfx_twim.o(i.nrf_twim_shorts_set)
    nrf_twim_shorts_set                      0x00002333   Thumb Code     6  nrfx_twim.o(i.nrf_twim_shorts_set)
    i.nrf_twim_task_trigger                  0x00002338   Section        0  nrfx_twim.o(i.nrf_twim_task_trigger)
    nrf_twim_task_trigger                    0x00002339   Thumb Code     6  nrfx_twim.o(i.nrf_twim_task_trigger)
    i.nrf_twim_tx_buffer_set                 0x0000233e   Section        0  nrfx_twim.o(i.nrf_twim_tx_buffer_set)
    nrf_twim_tx_buffer_set                   0x0000233f   Thumb Code    12  nrfx_twim.o(i.nrf_twim_tx_buffer_set)
    i.nrf_twim_txd_amount_get                0x0000234a   Section        0  nrfx_twim.o(i.nrf_twim_txd_amount_get)
    nrf_twim_txd_amount_get                  0x0000234b   Thumb Code    10  nrfx_twim.o(i.nrf_twim_txd_amount_get)
    i.nrfx_coredep_delay_us                  0x00002354   Section        0  nrf_drv_twi.o(i.nrfx_coredep_delay_us)
    nrfx_coredep_delay_us                    0x00002355   Thumb Code    20  nrf_drv_twi.o(i.nrfx_coredep_delay_us)
    i.nrfx_get_irq_number                    0x0000236c   Section        0  nrfx_twim.o(i.nrfx_get_irq_number)
    nrfx_get_irq_number                      0x0000236d   Thumb Code    10  nrfx_twim.o(i.nrfx_get_irq_number)
    i.nrfx_is_in_ram                         0x00002376   Section        0  nrfx_twim.o(i.nrfx_is_in_ram)
    nrfx_is_in_ram                           0x00002377   Thumb Code    20  nrfx_twim.o(i.nrfx_is_in_ram)
    i.nrfx_prs_acquire                       0x0000238a   Section        0  nrfx_prs.o(i.nrfx_prs_acquire)
    i.nrfx_twim_enable                       0x000023d4   Section        0  nrfx_twim.o(i.nrfx_twim_enable)
    i.nrfx_twim_init                         0x000023fc   Section        0  nrfx_twim.o(i.nrfx_twim_init)
    i.nrfx_twim_rx                           0x00002534   Section        0  nrfx_twim.o(i.nrfx_twim_rx)
    i.nrfx_twim_tx                           0x00002564   Section        0  nrfx_twim.o(i.nrfx_twim_tx)
    i.nrfx_twim_xfer                         0x000025a4   Section        0  nrfx_twim.o(i.nrfx_twim_xfer)
    i.postfix_process                        0x000025d8   Section        0  nrf_log_str_formatter.o(i.postfix_process)
    postfix_process                          0x000025d9   Thumb Code    58  nrf_log_str_formatter.o(i.postfix_process)
    i.prefix_process                         0x00002620   Section        0  nrf_log_str_formatter.o(i.prefix_process)
    prefix_process                           0x00002621   Thumb Code    98  nrf_log_str_formatter.o(i.prefix_process)
    i.prs_box_get                            0x000026c4   Section        0  nrfx_prs.o(i.prs_box_get)
    prs_box_get                              0x000026c5   Thumb Code    16  nrfx_prs.o(i.prs_box_get)
    i.read_sensor_data                       0x000026dc   Section        0  main.o(i.read_sensor_data)
    read_sensor_data                         0x000026dd   Thumb Code    58  main.o(i.read_sensor_data)
    i.serial_tx                              0x0000273c   Section        0  nrf_log_backend_rtt.o(i.serial_tx)
    serial_tx                                0x0000273d   Thumb Code   124  nrf_log_backend_rtt.o(i.serial_tx)
    i.start_sensor                           0x000027c0   Section        0  main.o(i.start_sensor)
    start_sensor                             0x000027c1   Thumb Code    52  main.o(i.start_sensor)
    i.std_header_set                         0x00002800   Section        0  nrf_log_frontend.o(i.std_header_set)
    std_header_set                           0x00002801   Thumb Code    96  nrf_log_frontend.o(i.std_header_set)
    i.std_n                                  0x00002864   Section        0  nrf_log_frontend.o(i.std_n)
    std_n                                    0x00002865   Thumb Code   106  nrf_log_frontend.o(i.std_n)
    i.string_print                           0x000028d4   Section        0  nrf_fprintf_format.o(i.string_print)
    string_print                             0x000028d5   Thumb Code   116  nrf_fprintf_format.o(i.string_print)
    i.timestamp_print                        0x00002948   Section        0  nrf_log_str_formatter.o(i.timestamp_print)
    timestamp_print                          0x00002949   Thumb Code     2  nrf_log_str_formatter.o(i.timestamp_print)
    i.twi_clear_bus                          0x0000294c   Section        0  nrf_drv_twi.o(i.twi_clear_bus)
    twi_clear_bus                            0x0000294d   Thumb Code   150  nrf_drv_twi.o(i.twi_clear_bus)
    i.twi_handler                            0x000029e8   Section        0  main.o(i.twi_handler)
    i.twi_init                               0x00002adc   Section        0  main.o(i.twi_init)
    i.twi_process_error                      0x00002b20   Section        0  nrfx_twim.o(i.twi_process_error)
    twi_process_error                        0x00002b21   Thumb Code    26  nrfx_twim.o(i.twi_process_error)
    i.twim_evt_handler                       0x00002b3c   Section        0  nrf_drv_twi.o(i.twim_evt_handler)
    twim_evt_handler                         0x00002b3d   Thumb Code    64  nrf_drv_twi.o(i.twim_evt_handler)
    i.twim_irq_handler                       0x00002b84   Section        0  nrfx_twim.o(i.twim_irq_handler)
    twim_irq_handler                         0x00002b85   Thumb Code   394  nrfx_twim.o(i.twim_irq_handler)
    i.twim_xfer                              0x00002d14   Section        0  nrfx_twim.o(i.twim_xfer)
    twim_xfer                                0x00002d15   Thumb Code   672  nrfx_twim.o(i.twim_xfer)
    i.unsigned_print                         0x00002fbc   Section        0  nrf_fprintf_format.o(i.unsigned_print)
    unsigned_print                           0x00002fbd   Thumb Code   178  nrf_fprintf_format.o(i.unsigned_print)
    .constdata                               0x00003080   Section       40  main.o(.constdata)
    m_twi                                    0x00003080   Data          16  main.o(.constdata)
    delay_bytecode                           0x00003090   Data           6  main.o(.constdata)
    .constdata                               0x000030b0   Section        6  nrf_drv_twi.o(.constdata)
    delay_bytecode                           0x000030b0   Data           6  nrf_drv_twi.o(.constdata)
    .constdata                               0x000030b8   Section       68  nrfx_twim.o(.constdata)
    __func__                                 0x000030b8   Data          15  nrfx_twim.o(.constdata)
    irq_handlers                             0x000030c8   Data           4  nrfx_twim.o(.constdata)
    __func__                                 0x000030cc   Data          10  nrfx_twim.o(.constdata)
    __func__                                 0x000030d6   Data          15  nrfx_twim.o(.constdata)
    .constdata                               0x000030fc   Section       66  nrfx_gpiote.o(.constdata)
    __func__                                 0x00003104   Data          17  nrfx_gpiote.o(.constdata)
    __func__                                 0x00003115   Data          21  nrfx_gpiote.o(.constdata)
    __func__                                 0x0000312a   Data          20  nrfx_gpiote.o(.constdata)
    .constdata                               0x0000313e   Section       16  nrf_fprintf_format.o(.constdata)
    _aV2C                                    0x0000313e   Data          16  nrf_fprintf_format.o(.constdata)
    .constdata                               0x00003150   Section       22  nrf_log_backend_rtt.o(.constdata)
    delay_bytecode                           0x00003160   Data           6  nrf_log_backend_rtt.o(.constdata)
    .constdata                               0x00003166   Section      129  ctype_o.o(.constdata)
    .constdata                               0x000031e8   Section        4  ctype_o.o(.constdata)
    table                                    0x000031e8   Data           4  ctype_o.o(.constdata)
    .conststring                             0x000031ec   Section      102  nrf_log_str_formatter.o(.conststring)
    .conststrlit                             0x00003254   Section        4  nrfx_prs.o(.conststrlit)
    .conststrlit                             0x00003258   Section        5  nrfx_twim.o(.conststrlit)
    .conststrlit                             0x00003260   Section        5  nrfx_uart.o(.conststrlit)
    .conststrlit                             0x00003268   Section        6  nrfx_uarte.o(.conststrlit)
    .conststrlit                             0x00003270   Section        7  nrfx_gpiote.o(.conststrlit)
    .conststrlit                             0x00003278   Section       24  nrf_log_frontend.o(.conststrlit)
    log_const_data                           0x000032b0   Section        8  nrfx_prs.o(log_const_data)
    __tagsym$$used                           0x000032b0   Number         0  nrfx_prs.o(log_const_data)
    log_const_data                           0x000032b8   Section        8  nrfx_twim.o(log_const_data)
    __tagsym$$used                           0x000032b8   Number         0  nrfx_twim.o(log_const_data)
    log_const_data                           0x000032c0   Section        8  nrfx_uart.o(log_const_data)
    __tagsym$$used                           0x000032c0   Number         0  nrfx_uart.o(log_const_data)
    log_const_data                           0x000032c8   Section        8  nrfx_uarte.o(log_const_data)
    __tagsym$$used                           0x000032c8   Number         0  nrfx_uarte.o(log_const_data)
    log_const_data                           0x000032d0   Section        8  nrfx_gpiote.o(log_const_data)
    __tagsym$$used                           0x000032d0   Number         0  nrfx_gpiote.o(log_const_data)
    log_const_data                           0x000032d8   Section       16  nrf_log_frontend.o(log_const_data)
    __tagsym$$used                           0x000032d8   Number         0  nrf_log_frontend.o(log_const_data)
    __tagsym$$used                           0x000032e0   Number         0  nrf_log_frontend.o(log_const_data)
    nrf_balloc                               0x000032e8   Section       24  nrf_log_frontend.o(nrf_balloc)
    __tagsym$$used                           0x000032e8   Number         0  nrf_log_frontend.o(nrf_balloc)
    .data                                    0x20000000   Section       17  main.o(.data)
    mTemperature                             0x20000000   Data           4  main.o(.data)
    mHumidity                                0x20000004   Data           4  main.o(.data)
    counter                                  0x20000008   Data           1  main.o(.data)
    m_xfer_done                              0x20000009   Data           1  main.o(.data)
    m_sample                                 0x2000000a   Data           7  main.o(.data)
    .data                                    0x20000014   Section       16  nrf_drv_twi.o(.data)
    m_handlers                               0x20000014   Data           8  nrf_drv_twi.o(.data)
    m_contexts                               0x2000001c   Data           8  nrf_drv_twi.o(.data)
    .data                                    0x20000024   Section        8  nrfx_prs.o(.data)
    m_prs_box_4                              0x20000024   Data           8  nrfx_prs.o(.data)
    .data                                    0x2000002c   Section        4  app_util_platform.o(.data)
    m_in_critical_region                     0x2000002c   Data           4  app_util_platform.o(.data)
    .data                                    0x20000030   Section        1  nrf_log_backend_rtt.o(.data)
    m_host_present                           0x20000030   Data           1  nrf_log_backend_rtt.o(.data)
    .data                                    0x20000034   Section       12  nrf_log_default_backends.o(.data)
    rtt_log_backend                          0x20000034   Data          12  nrf_log_default_backends.o(.data)
    .data                                    0x20000040   Section       16  nrf_log_frontend.o(.data)
    log_mempool_nrf_balloc_pool_stack        0x20000040   Data           8  nrf_log_frontend.o(.data)
    log_mempool_nrf_balloc_cb                0x20000048   Data           8  nrf_log_frontend.o(.data)
    .data                                    0x20000050   Section       64  nrf_log_str_formatter.o(.data)
    severity_names                           0x20000050   Data          20  nrf_log_str_formatter.o(.data)
    m_colors                                 0x20000064   Data          36  nrf_log_str_formatter.o(.data)
    m_freq                                   0x20000088   Data           4  nrf_log_str_formatter.o(.data)
    m_timestamp_div                          0x2000008c   Data           4  nrf_log_str_formatter.o(.data)
    .data                                    0x20000090   Section        4  system_nrf52840.o(.data)
    __tagsym$$used                           0x20000090   Number         0  system_nrf52840.o(.data)
    log_dynamic_data                         0x20000094   Section        4  nrfx_prs.o(log_dynamic_data)
    __tagsym$$used                           0x20000094   Number         0  nrfx_prs.o(log_dynamic_data)
    log_dynamic_data                         0x20000098   Section        4  nrfx_twim.o(log_dynamic_data)
    __tagsym$$used                           0x20000098   Number         0  nrfx_twim.o(log_dynamic_data)
    log_dynamic_data                         0x2000009c   Section        4  nrfx_uart.o(log_dynamic_data)
    __tagsym$$used                           0x2000009c   Number         0  nrfx_uart.o(log_dynamic_data)
    log_dynamic_data                         0x200000a0   Section        4  nrfx_uarte.o(log_dynamic_data)
    __tagsym$$used                           0x200000a0   Number         0  nrfx_uarte.o(log_dynamic_data)
    log_dynamic_data                         0x200000a4   Section        4  nrfx_gpiote.o(log_dynamic_data)
    __tagsym$$used                           0x200000a4   Number         0  nrfx_gpiote.o(log_dynamic_data)
    log_dynamic_data                         0x200000a8   Section        8  nrf_log_frontend.o(log_dynamic_data)
    __tagsym$$used                           0x200000a8   Number         0  nrf_log_frontend.o(log_dynamic_data)
    __tagsym$$used                           0x200000ac   Number         0  nrf_log_frontend.o(log_dynamic_data)
    .bss                                     0x200000b0   Section       52  nrfx_twim.o(.bss)
    m_cb                                     0x200000b0   Data          52  nrfx_twim.o(.bss)
    .bss                                     0x200000e4   Section       92  nrfx_gpiote.o(.bss)
    m_cb                                     0x200000e4   Data          92  nrfx_gpiote.o(.bss)
    .bss                                     0x20000140   Section       64  nrf_log_backend_rtt.o(.bss)
    m_string_buff                            0x20000140   Data          64  nrf_log_backend_rtt.o(.bss)
    .bss                                     0x20000180   Section     1252  nrf_log_frontend.o(.bss)
    log_mempool_nrf_balloc_pool_mem          0x20000180   Data         192  nrf_log_frontend.o(.bss)
    m_log_data                               0x20000240   Data        1060  nrf_log_frontend.o(.bss)
    .bss                                     0x20000664   Section      648  segger_rtt.o(.bss)
    _acUpBuffer                              0x200006dc   Data         512  segger_rtt.o(.bss)
    _acDownBuffer                            0x200008dc   Data          16  segger_rtt.o(.bss)
    STACK                                    0x200008f0   Section     8192  arm_startup_nrf52840.o(STACK)

    Global Symbols

    Symbol Name                              Value     Ov Type        Size  Object(Section)

    BuildAttributes$$THM_ISAv4$E$P$D$K$B$S$7EM$VFPi3$EXTD16$VFPS$VFMA$PE$A:L22UL41UL21$X:L11$S22US41US21$IEEE1$IW$USESV6$~STKCKD$USESV7$~SHL$OSPACE$EBA8$MICROLIB$REQ8$EABIv2 0x00000000   Number         0  anon$$obj.o ABSOLUTE
    __ARM_use_no_argv                        0x00000000   Number         0  main.o ABSOLUTE
    __Vectors                                0x00000000   Data           4  arm_startup_nrf52840.o(RESET)
    __use_no_errno                           0x00000000   Number         0  useno.o ABSOLUTE
    __use_no_exception_handling              0x00000000   Number         0  useno.o ABSOLUTE
    __use_no_fp                              0x00000000   Number         0  useno.o ABSOLUTE
    __use_no_heap                            0x00000000   Number         0  useno.o ABSOLUTE
    __use_no_heap_region                     0x00000000   Number         0  useno.o ABSOLUTE
    __use_no_semihosting                     0x00000000   Number         0  useno.o ABSOLUTE
    __use_no_semihosting_swi                 0x00000000   Number         0  useno.o ABSOLUTE
    __use_no_signal_handling                 0x00000000   Number         0  useno.o ABSOLUTE
    __cpp_initialize__aeabi_                  - Undefined Weak Reference
    __cxa_finalize                            - Undefined Weak Reference
    __decompress                              - Undefined Weak Reference
    _clock_init                               - Undefined Weak Reference
    _microlib_exit                            - Undefined Weak Reference
    __Vectors_End                            0x00000200   Data           0  arm_startup_nrf52840.o(RESET)
    __Vectors_Size                           0x00000200   Number         0  arm_startup_nrf52840.o ABSOLUTE
    __main                                   0x00000201   Thumb Code     0  entry.o(.ARM.Collect$$$$00000000)
    _main_stk                                0x00000201   Thumb Code     0  entry2.o(.ARM.Collect$$$$00000001)
    _main_scatterload                        0x00000205   Thumb Code     0  entry5.o(.ARM.Collect$$$$00000004)
    __main_after_scatterload                 0x00000209   Thumb Code     0  entry5.o(.ARM.Collect$$$$00000004)
    _main_clock                              0x00000209   Thumb Code     0  entry7b.o(.ARM.Collect$$$$00000008)
    _main_cpp_init                           0x00000209   Thumb Code     0  entry8b.o(.ARM.Collect$$$$0000000A)
    _main_init                               0x00000209   Thumb Code     0  entry9a.o(.ARM.Collect$$$$0000000B)
    __rt_final_cpp                           0x00000211   Thumb Code     0  entry10a.o(.ARM.Collect$$$$0000000D)
    __rt_final_exit                          0x00000211   Thumb Code     0  entry11a.o(.ARM.Collect$$$$0000000F)
    __asm___12_nrf_atomic_c_85ca2469__nrf_atomic_internal_mov 0x00000215   Thumb Code    24  nrf_atomic.o(.emb_text)
    __asm___12_nrf_atomic_c_85ca2469__nrf_atomic_internal_orr 0x0000022d   Thumb Code    26  nrf_atomic.o(.emb_text)
    __asm___12_nrf_atomic_c_85ca2469__nrf_atomic_internal_and 0x00000247   Thumb Code    26  nrf_atomic.o(.emb_text)
    __asm___12_nrf_atomic_c_85ca2469__nrf_atomic_internal_eor 0x00000261   Thumb Code    26  nrf_atomic.o(.emb_text)
    __asm___12_nrf_atomic_c_85ca2469__nrf_atomic_internal_add 0x0000027b   Thumb Code    26  nrf_atomic.o(.emb_text)
    __asm___12_nrf_atomic_c_85ca2469__nrf_atomic_internal_sub 0x00000295   Thumb Code    26  nrf_atomic.o(.emb_text)
    __asm___12_nrf_atomic_c_85ca2469__nrf_atomic_internal_cmp_exch 0x000002af   Thumb Code    42  nrf_atomic.o(.emb_text)
    __asm___12_nrf_atomic_c_85ca2469__nrf_atomic_internal_sub_hs 0x000002d9   Thumb Code    30  nrf_atomic.o(.emb_text)
    Reset_Handler                            0x000002f9   Thumb Code     8  arm_startup_nrf52840.o(.text)
    NMI_Handler                              0x00000301   Thumb Code     2  arm_startup_nrf52840.o(.text)
    HardFault_Handler                        0x00000303   Thumb Code     2  arm_startup_nrf52840.o(.text)
    MemoryManagement_Handler                 0x00000305   Thumb Code     2  arm_startup_nrf52840.o(.text)
    BusFault_Handler                         0x00000307   Thumb Code     2  arm_startup_nrf52840.o(.text)
    UsageFault_Handler                       0x00000309   Thumb Code     2  arm_startup_nrf52840.o(.text)
    SVC_Handler                              0x0000030b   Thumb Code     2  arm_startup_nrf52840.o(.text)
    DebugMon_Handler                         0x0000030d   Thumb Code     2  arm_startup_nrf52840.o(.text)
    PendSV_Handler                           0x0000030f   Thumb Code     2  arm_startup_nrf52840.o(.text)
    SysTick_Handler                          0x00000311   Thumb Code     2  arm_startup_nrf52840.o(.text)
    CCM_AAR_IRQHandler                       0x00000313   Thumb Code     0  arm_startup_nrf52840.o(.text)
    COMP_LPCOMP_IRQHandler                   0x00000313   Thumb Code     0  arm_startup_nrf52840.o(.text)
    CRYPTOCELL_IRQHandler                    0x00000313   Thumb Code     0  arm_startup_nrf52840.o(.text)
    ECB_IRQHandler                           0x00000313   Thumb Code     0  arm_startup_nrf52840.o(.text)
    FPU_IRQHandler                           0x00000313   Thumb Code     0  arm_startup_nrf52840.o(.text)
    I2S_IRQHandler                           0x00000313   Thumb Code     0  arm_startup_nrf52840.o(.text)
    MWU_IRQHandler                           0x00000313   Thumb Code     0  arm_startup_nrf52840.o(.text)
    NFCT_IRQHandler                          0x00000313   Thumb Code     0  arm_startup_nrf52840.o(.text)
    PDM_IRQHandler                           0x00000313   Thumb Code     0  arm_startup_nrf52840.o(.text)
    POWER_CLOCK_IRQHandler                   0x00000313   Thumb Code     0  arm_startup_nrf52840.o(.text)
    PWM0_IRQHandler                          0x00000313   Thumb Code     0  arm_startup_nrf52840.o(.text)
    PWM1_IRQHandler                          0x00000313   Thumb Code     0  arm_startup_nrf52840.o(.text)
    PWM2_IRQHandler                          0x00000313   Thumb Code     0  arm_startup_nrf52840.o(.text)
    PWM3_IRQHandler                          0x00000313   Thumb Code     0  arm_startup_nrf52840.o(.text)
    QDEC_IRQHandler                          0x00000313   Thumb Code     0  arm_startup_nrf52840.o(.text)
    QSPI_IRQHandler                          0x00000313   Thumb Code     0  arm_startup_nrf52840.o(.text)
    RADIO_IRQHandler                         0x00000313   Thumb Code     0  arm_startup_nrf52840.o(.text)
    RNG_IRQHandler                           0x00000313   Thumb Code     0  arm_startup_nrf52840.o(.text)
    RTC0_IRQHandler                          0x00000313   Thumb Code     0  arm_startup_nrf52840.o(.text)
    RTC1_IRQHandler                          0x00000313   Thumb Code     0  arm_startup_nrf52840.o(.text)
    RTC2_IRQHandler                          0x00000313   Thumb Code     0  arm_startup_nrf52840.o(.text)
    SAADC_IRQHandler                         0x00000313   Thumb Code     0  arm_startup_nrf52840.o(.text)
    SPIM1_SPIS1_TWIM1_TWIS1_SPI1_TWI1_IRQHandler 0x00000313   Thumb Code     0  arm_startup_nrf52840.o(.text)
    SPIM2_SPIS2_SPI2_IRQHandler              0x00000313   Thumb Code     0  arm_startup_nrf52840.o(.text)
    SPIM3_IRQHandler                         0x00000313   Thumb Code     0  arm_startup_nrf52840.o(.text)
    SWI0_EGU0_IRQHandler                     0x00000313   Thumb Code     0  arm_startup_nrf52840.o(.text)
    SWI1_EGU1_IRQHandler                     0x00000313   Thumb Code     0  arm_startup_nrf52840.o(.text)
    SWI2_EGU2_IRQHandler                     0x00000313   Thumb Code     0  arm_startup_nrf52840.o(.text)
    SWI3_EGU3_IRQHandler                     0x00000313   Thumb Code     0  arm_startup_nrf52840.o(.text)
    SWI4_EGU4_IRQHandler                     0x00000313   Thumb Code     0  arm_startup_nrf52840.o(.text)
    SWI5_EGU5_IRQHandler                     0x00000313   Thumb Code     0  arm_startup_nrf52840.o(.text)
    TEMP_IRQHandler                          0x00000313   Thumb Code     0  arm_startup_nrf52840.o(.text)
    TIMER0_IRQHandler                        0x00000313   Thumb Code     0  arm_startup_nrf52840.o(.text)
    TIMER1_IRQHandler                        0x00000313   Thumb Code     0  arm_startup_nrf52840.o(.text)
    TIMER2_IRQHandler                        0x00000313   Thumb Code     0  arm_startup_nrf52840.o(.text)
    TIMER3_IRQHandler                        0x00000313   Thumb Code     0  arm_startup_nrf52840.o(.text)
    TIMER4_IRQHandler                        0x00000313   Thumb Code     0  arm_startup_nrf52840.o(.text)
    UARTE1_IRQHandler                        0x00000313   Thumb Code     0  arm_startup_nrf52840.o(.text)
    USBD_IRQHandler                          0x00000313   Thumb Code     0  arm_startup_nrf52840.o(.text)
    WDT_IRQHandler                           0x00000313   Thumb Code     0  arm_startup_nrf52840.o(.text)
    __rt_ctype_table                         0x0000031d   Thumb Code     4  ctype_o.o(.text)
    __aeabi_memcpy                           0x00000325   Thumb Code    36  memcpya.o(.text)
    __aeabi_memcpy4                          0x00000325   Thumb Code     0  memcpya.o(.text)
    __aeabi_memcpy8                          0x00000325   Thumb Code     0  memcpya.o(.text)
    __aeabi_memset                           0x00000349   Thumb Code    14  memseta.o(.text)
    __aeabi_memset4                          0x00000349   Thumb Code     0  memseta.o(.text)
    __aeabi_memset8                          0x00000349   Thumb Code     0  memseta.o(.text)
    __aeabi_memclr                           0x00000357   Thumb Code     4  memseta.o(.text)
    __aeabi_memclr4                          0x00000357   Thumb Code     0  memseta.o(.text)
    __aeabi_memclr8                          0x00000357   Thumb Code     0  memseta.o(.text)
    _memset$wrapper                          0x0000035b   Thumb Code    18  memseta.o(.text)
    strlen                                   0x0000036d   Thumb Code    14  strlen.o(.text)
    strcpy                                   0x0000037b   Thumb Code    18  strcpy.o(.text)
    __scatterload                            0x0000038d   Thumb Code    28  init.o(.text)
    __scatterload_rt2                        0x0000038d   Thumb Code     0  init.o(.text)
    GPIOTE_IRQHandler                        0x000003b1   Thumb Code   544  nrfx_gpiote.o(i.GPIOTE_IRQHandler)
    SEGGER_RTT_Init                          0x000005dd   Thumb Code     8  segger_rtt.o(i.SEGGER_RTT_Init)
    SEGGER_RTT_WriteNoLock                   0x000005e5   Thumb Code   126  segger_rtt.o(i.SEGGER_RTT_WriteNoLock)
    SHTC1_set_mode                           0x00000669   Thumb Code   580  main.o(i.SHTC1_set_mode)
    SPIM0_SPIS0_TWIM0_TWIS0_SPI0_TWI0_IRQHandler 0x000008ed   Thumb Code    12  nrfx_twim.o(i.SPIM0_SPIS0_TWIM0_TWIS0_SPI0_TWI0_IRQHandler)
    SystemCoreClockUpdate                    0x00000901   Thumb Code     8  system_nrf52840.o(i.SystemCoreClockUpdate)
    SystemInit                               0x00000911   Thumb Code   494  system_nrf52840.o(i.SystemInit)
    UARTE0_UART0_IRQHandler                  0x00000b41   Thumb Code    10  nrfx_prs.o(i.UARTE0_UART0_IRQHandler)
    __scatterload_copy                       0x00000c9b   Thumb Code    14  handlers.o(i.__scatterload_copy)
    __scatterload_null                       0x00000ca9   Thumb Code     2  handlers.o(i.__scatterload_null)
    __scatterload_zeroinit                   0x00000cab   Thumb Code    14  handlers.o(i.__scatterload_zeroinit)
    app_error_fault_handler                  0x00000cb9   Thumb Code   136  app_error_weak.o(i.app_error_fault_handler)
    app_error_handler_bare                   0x00000d69   Thumb Code    28  app_error.o(i.app_error_handler_bare)
    app_util_critical_region_enter           0x00000d85   Thumb Code    10  app_util_platform.o(i.app_util_critical_region_enter)
    app_util_critical_region_exit            0x00000d8f   Thumb Code    10  app_util_platform.o(i.app_util_critical_region_exit)
    app_util_disable_irq                     0x00000d99   Thumb Code    14  app_util_platform.o(i.app_util_disable_irq)
    app_util_enable_irq                      0x00000dad   Thumb Code    20  app_util_platform.o(i.app_util_enable_irq)
    buffer_is_empty                          0x00000efd   Thumb Code    20  nrf_log_frontend.o(i.buffer_is_empty)
    main                                     0x00001255   Thumb Code   264  main.o(i.main)
    nrf_atomic_flag_clear_fetch              0x000014b1   Thumb Code    14  nrf_atomic.o(i.nrf_atomic_flag_clear_fetch)
    nrf_atomic_flag_set                      0x000014bf   Thumb Code    14  nrf_atomic.o(i.nrf_atomic_flag_set)
    nrf_atomic_u32_add                       0x000014cd   Thumb Code    22  nrf_atomic.o(i.nrf_atomic_u32_add)
    nrf_atomic_u32_fetch_and                 0x000014e3   Thumb Code    22  nrf_atomic.o(i.nrf_atomic_u32_fetch_and)
    nrf_atomic_u32_fetch_store               0x000014f9   Thumb Code    22  nrf_atomic.o(i.nrf_atomic_u32_fetch_store)
    nrf_atomic_u32_or                        0x0000150f   Thumb Code    22  nrf_atomic.o(i.nrf_atomic_u32_or)
    nrf_atomic_u32_sub                       0x00001525   Thumb Code    22  nrf_atomic.o(i.nrf_atomic_u32_sub)
    nrf_balloc_alloc                         0x0000153b   Thumb Code    76  nrf_balloc.o(i.nrf_balloc_alloc)
    nrf_balloc_free                          0x00001597   Thumb Code    42  nrf_balloc.o(i.nrf_balloc_free)
    nrf_balloc_init                          0x000015cd   Thumb Code    60  nrf_balloc.o(i.nrf_balloc_init)
    nrf_drv_twi_init                         0x00001635   Thumb Code    68  nrf_drv_twi.o(i.nrf_drv_twi_init)
    nrf_fprintf                              0x000016d5   Thumb Code    42  nrf_fprintf.o(i.nrf_fprintf)
    nrf_fprintf_buffer_flush                 0x000016ff   Thumb Code    28  nrf_fprintf.o(i.nrf_fprintf_buffer_flush)
    nrf_fprintf_fmt                          0x0000171b   Thumb Code   496  nrf_fprintf_format.o(i.nrf_fprintf_fmt)
    nrf_log_backend_add                      0x00001a61   Thumb Code    68  nrf_log_frontend.o(i.nrf_log_backend_add)
    nrf_log_backend_rtt_init                 0x00001aab   Thumb Code     8  nrf_log_backend_rtt.o(i.nrf_log_backend_rtt_init)
    nrf_log_backend_serial_put               0x00001ad5   Thumb Code   242  nrf_log_backend_serial.o(i.nrf_log_backend_serial_put)
    nrf_log_color_id_get                     0x00001bc9   Thumb Code    52  nrf_log_frontend.o(i.nrf_log_color_id_get)
    nrf_log_default_backends_init            0x00001c01   Thumb Code    32  nrf_log_default_backends.o(i.nrf_log_default_backends_init)
    nrf_log_frontend_dequeue                 0x00001c25   Thumb Code   726  nrf_log_frontend.o(i.nrf_log_frontend_dequeue)
    nrf_log_frontend_std_0                   0x00001f1d   Thumb Code    20  nrf_log_frontend.o(i.nrf_log_frontend_std_0)
    nrf_log_frontend_std_6                   0x00001f31   Thumb Code    60  nrf_log_frontend.o(i.nrf_log_frontend_std_6)
    nrf_log_hexdump_entry_process            0x00001f6d   Thumb Code   158  nrf_log_str_formatter.o(i.nrf_log_hexdump_entry_process)
    nrf_log_init                             0x00002025   Thumb Code    80  nrf_log_frontend.o(i.nrf_log_init)
    nrf_log_module_cnt_get                   0x00002089   Thumb Code    10  nrf_log_frontend.o(i.nrf_log_module_cnt_get)
    nrf_log_module_name_get                  0x0000209d   Thumb Code    30  nrf_log_frontend.o(i.nrf_log_module_name_get)
    nrf_log_panic                            0x000020c1   Thumb Code    46  nrf_log_frontend.o(i.nrf_log_panic)
    nrf_log_std_entry_process                0x000020f5   Thumb Code   200  nrf_log_str_formatter.o(i.nrf_log_std_entry_process)
    nrf_memobj_alloc                         0x000021bd   Thumb Code   122  nrf_memobj.o(i.nrf_memobj_alloc)
    nrf_memobj_free                          0x00002237   Thumb Code    64  nrf_memobj.o(i.nrf_memobj_free)
    nrf_memobj_get                           0x00002277   Thumb Code    16  nrf_memobj.o(i.nrf_memobj_get)
    nrf_memobj_pool_init                     0x00002287   Thumb Code    12  nrf_memobj.o(i.nrf_memobj_pool_init)
    nrf_memobj_put                           0x00002293   Thumb Code    30  nrf_memobj.o(i.nrf_memobj_put)
    nrf_memobj_read                          0x000022b1   Thumb Code    28  nrf_memobj.o(i.nrf_memobj_read)
    nrf_memobj_write                         0x000022cd   Thumb Code    28  nrf_memobj.o(i.nrf_memobj_write)
    nrfx_prs_acquire                         0x0000238b   Thumb Code    72  nrfx_prs.o(i.nrfx_prs_acquire)
    nrfx_twim_enable                         0x000023d5   Thumb Code    34  nrfx_twim.o(i.nrfx_twim_enable)
    nrfx_twim_init                           0x000023fd   Thumb Code   292  nrfx_twim.o(i.nrfx_twim_init)
    nrfx_twim_rx                             0x00002535   Thumb Code    44  nrfx_twim.o(i.nrfx_twim_rx)
    nrfx_twim_tx                             0x00002565   Thumb Code    62  nrfx_twim.o(i.nrfx_twim_tx)
    nrfx_twim_xfer                           0x000025a5   Thumb Code    48  nrfx_twim.o(i.nrfx_twim_xfer)
    twi_handler                              0x000029e9   Thumb Code   154  main.o(i.twi_handler)
    twi_init                                 0x00002add   Thumb Code    54  main.o(i.twi_init)
    nrf_log_backend_rtt_api                  0x00003150   Data          12  nrf_log_backend_rtt.o(.constdata)
    __ctype_table                            0x00003166   Data         129  ctype_o.o(.constdata)
    Region$$Table$$Base                      0x00003290   Number         0  anon$$obj.o(Region$$Table)
    Region$$Table$$Limit                     0x000032b0   Number         0  anon$$obj.o(Region$$Table)
    log_const_data$$Base                     0x000032b0   Number         0  nrfx_prs.o(log_const_data)
    m_nrf_log_PRS_logs_data_const            0x000032b0   Data           8  nrfx_prs.o(log_const_data)
    m_nrf_log_TWIM_logs_data_const           0x000032b8   Data           8  nrfx_twim.o(log_const_data)
    m_nrf_log_UART_logs_data_const           0x000032c0   Data           8  nrfx_uart.o(log_const_data)
    m_nrf_log_UARTE_logs_data_const          0x000032c8   Data           8  nrfx_uarte.o(log_const_data)
    m_nrf_log_GPIOTE_logs_data_const         0x000032d0   Data           8  nrfx_gpiote.o(log_const_data)
    m_nrf_log_balloc_log_mempool_logs_data_const 0x000032d8   Data           8  nrf_log_frontend.o(log_const_data)
    m_nrf_log_app_logs_data_const            0x000032e0   Data           8  nrf_log_frontend.o(log_const_data)
    log_const_data$$Limit                    0x000032e8   Number         0  nrf_log_frontend.o(log_const_data)
    log_mempool                              0x000032e8   Data          24  nrf_log_frontend.o(nrf_balloc)
    SystemCoreClock                          0x20000090   Data           4  system_nrf52840.o(.data)
    log_dynamic_data$$Base                   0x20000094   Number         0  nrfx_prs.o(log_dynamic_data)
    m_nrf_log_PRS_logs_data_dynamic          0x20000094   Data           4  nrfx_prs.o(log_dynamic_data)
    m_nrf_log_TWIM_logs_data_dynamic         0x20000098   Data           4  nrfx_twim.o(log_dynamic_data)
    m_nrf_log_UART_logs_data_dynamic         0x2000009c   Data           4  nrfx_uart.o(log_dynamic_data)
    m_nrf_log_UARTE_logs_data_dynamic        0x200000a0   Data           4  nrfx_uarte.o(log_dynamic_data)
    m_nrf_log_GPIOTE_logs_data_dynamic       0x200000a4   Data           4  nrfx_gpiote.o(log_dynamic_data)
    m_nrf_log_balloc_log_mempool_logs_data_dynamic 0x200000a8   Data           4  nrf_log_frontend.o(log_dynamic_data)
    m_nrf_log_app_logs_data_dynamic          0x200000ac   Data           4  nrf_log_frontend.o(log_dynamic_data)
    _SEGGER_RTT                              0x20000664   Data         120  segger_rtt.o(.bss)
    __initial_sp                             0x200028f0   Data           0  arm_startup_nrf52840.o(STACK)



==============================================================================

Memory Map of the image

  Image Entry point : 0x00000201

  Load Region LR_IROM1 (Base: 0x00000000, Size: 0x000033b0, Max: 0x00100000, ABSOLUTE)

    Execution Region ER_IROM1 (Exec base: 0x00000000, Load base: 0x00000000, Size: 0x00003300, Max: 0x00100000, ABSOLUTE)

    Exec Addr    Load Addr    Size         Type   Attr      Idx    E Section Name        Object

    0x00000000   0x00000000   0x00000200   Data   RO         3029    RESET               arm_startup_nrf52840.o
    0x00000200   0x00000200   0x00000000   Code   RO         3109  * .ARM.Collect$$$$00000000  mc_w.l(entry.o)
    0x00000200   0x00000200   0x00000004   Code   RO         3157    .ARM.Collect$$$$00000001  mc_w.l(entry2.o)
    0x00000204   0x00000204   0x00000004   Code   RO         3160    .ARM.Collect$$$$00000004  mc_w.l(entry5.o)
    0x00000208   0x00000208   0x00000000   Code   RO         3162    .ARM.Collect$$$$00000008  mc_w.l(entry7b.o)
    0x00000208   0x00000208   0x00000000   Code   RO         3164    .ARM.Collect$$$$0000000A  mc_w.l(entry8b.o)
    0x00000208   0x00000208   0x00000008   Code   RO         3165    .ARM.Collect$$$$0000000B  mc_w.l(entry9a.o)
    0x00000210   0x00000210   0x00000000   Code   RO         3167    .ARM.Collect$$$$0000000D  mc_w.l(entry10a.o)
    0x00000210   0x00000210   0x00000000   Code   RO         3169    .ARM.Collect$$$$0000000F  mc_w.l(entry11a.o)
    0x00000210   0x00000210   0x00000004   Code   RO         3158    .ARM.Collect$$$$00002712  mc_w.l(entry2.o)
    0x00000214   0x00000214   0x000000e2   Code   RO         1850    .emb_text           nrf_atomic.o
    0x000002f6   0x000002f6   0x00000002   PAD
    0x000002f8   0x000002f8   0x00000024   Code   RO         3030    .text               arm_startup_nrf52840.o
    0x0000031c   0x0000031c   0x00000008   Code   RO         3117    .text               mc_w.l(ctype_o.o)
    0x00000324   0x00000324   0x00000024   Code   RO         3145    .text               mc_w.l(memcpya.o)
    0x00000348   0x00000348   0x00000024   Code   RO         3147    .text               mc_w.l(memseta.o)
    0x0000036c   0x0000036c   0x0000000e   Code   RO         3149    .text               mc_w.l(strlen.o)
    0x0000037a   0x0000037a   0x00000012   Code   RO         3153    .text               mc_w.l(strcpy.o)
    0x0000038c   0x0000038c   0x00000024   Code   RO         3173    .text               mc_w.l(init.o)
    0x000003b0   0x000003b0   0x0000022c   Code   RO         1290    i.GPIOTE_IRQHandler  nrfx_gpiote.o
    0x000005dc   0x000005dc   0x00000008   Code   RO         2681    i.SEGGER_RTT_Init   segger_rtt.o
    0x000005e4   0x000005e4   0x00000084   Code   RO         2695    i.SEGGER_RTT_WriteNoLock  segger_rtt.o
    0x00000668   0x00000668   0x00000284   Code   RO            5    i.SHTC1_set_mode    main.o
    0x000008ec   0x000008ec   0x00000014   Code   RO          632    i.SPIM0_SPIS0_TWIM0_TWIS0_SPI0_TWI0_IRQHandler  nrfx_twim.o
    0x00000900   0x00000900   0x00000010   Code   RO         3037    i.SystemCoreClockUpdate  system_nrf52840.o
    0x00000910   0x00000910   0x00000230   Code   RO         3038    i.SystemInit        system_nrf52840.o
    0x00000b40   0x00000b40   0x00000010   Code   RO          551    i.UARTE0_UART0_IRQHandler  nrfx_prs.o
    0x00000b50   0x00000b50   0x00000070   Code   RO         2699    i._DoInit           segger_rtt.o
    0x00000bc0   0x00000bc0   0x0000001c   Code   RO         2700    i._GetAvailWriteSpace  segger_rtt.o
    0x00000bdc   0x00000bdc   0x00000072   Code   RO         2702    i._WriteBlocking    segger_rtt.o
    0x00000c4e   0x00000c4e   0x0000004c   Code   RO         2703    i._WriteNoCheck     segger_rtt.o
    0x00000c9a   0x00000c9a   0x0000000e   Code   RO         3177    i.__scatterload_copy  mc_w.l(handlers.o)
    0x00000ca8   0x00000ca8   0x00000002   Code   RO         3178    i.__scatterload_null  mc_w.l(handlers.o)
    0x00000caa   0x00000caa   0x0000000e   Code   RO         3179    i.__scatterload_zeroinit  mc_w.l(handlers.o)
    0x00000cb8   0x00000cb8   0x000000b0   Code   RO         1720    i.app_error_fault_handler  app_error_weak.o
    0x00000d68   0x00000d68   0x0000001c   Code   RO         1613    i.app_error_handler_bare  app_error.o
    0x00000d84   0x00000d84   0x0000000a   Code   RO         1748    i.app_util_critical_region_enter  app_util_platform.o
    0x00000d8e   0x00000d8e   0x0000000a   Code   RO         1749    i.app_util_critical_region_exit  app_util_platform.o
    0x00000d98   0x00000d98   0x00000014   Code   RO         1750    i.app_util_disable_irq  app_util_platform.o
    0x00000dac   0x00000dac   0x00000018   Code   RO         1751    i.app_util_enable_irq  app_util_platform.o
    0x00000dc4   0x00000dc4   0x00000038   Code   RO         2409    i.backend_id_assign  nrf_log_frontend.o
    0x00000dfc   0x00000dfc   0x000000e0   Code   RO         2410    i.buf_prealloc      nrf_log_frontend.o
    0x00000edc   0x00000edc   0x00000020   Code   RO         2078    i.buffer_add        nrf_fprintf_format.o
    0x00000efc   0x00000efc   0x00000018   Code   RO         2411    i.buffer_is_empty   nrf_log_frontend.o
    0x00000f14   0x00000f14   0x00000010   Code   RO         1292    i.channel_handler_get  nrfx_gpiote.o
    0x00000f24   0x00000f24   0x0000000c   Code   RO         1294    i.channel_port_get  nrfx_gpiote.o
    0x00000f30   0x00000f30   0x00000018   Code   RO         2413    i.dropped_sat16_get  nrf_log_frontend.o
    0x00000f48   0x00000f48   0x0000001c   Code   RO         3039    i.errata_103        system_nrf52840.o
    0x00000f64   0x00000f64   0x0000001c   Code   RO         3040    i.errata_115        system_nrf52840.o
    0x00000f80   0x00000f80   0x0000001c   Code   RO         3041    i.errata_120        system_nrf52840.o
    0x00000f9c   0x00000f9c   0x00000038   Code   RO         3042    i.errata_136        system_nrf52840.o
    0x00000fd4   0x00000fd4   0x00000038   Code   RO         3043    i.errata_36         system_nrf52840.o
    0x0000100c   0x0000100c   0x00000038   Code   RO         3044    i.errata_66         system_nrf52840.o
    0x00001044   0x00001044   0x0000001c   Code   RO         3045    i.errata_98         system_nrf52840.o
    0x00001060   0x00001060   0x000000be   Code   RO         2079    i.int_print         nrf_fprintf_format.o
    0x0000111e   0x0000111e   0x0000006c   Code   RO         2415    i.invalid_packets_pushed_str_omit  nrf_log_frontend.o
    0x0000118a   0x0000118a   0x00000002   PAD
    0x0000118c   0x0000118c   0x000000c8   Code   RO         2416    i.log_skip          nrf_log_frontend.o
    0x00001254   0x00001254   0x00000174   Code   RO            6    i.main              main.o
    0x000013c8   0x000013c8   0x000000ae   Code   RO         2123    i.memobj_op         nrf_memobj.o
    0x00001476   0x00001476   0x00000002   PAD
    0x00001478   0x00001478   0x00000038   Code   RO         2417    i.module_idx_get    nrf_log_frontend.o
    0x000014b0   0x000014b0   0x0000000e   Code   RO         1852    i.nrf_atomic_flag_clear_fetch  nrf_atomic.o
    0x000014be   0x000014be   0x0000000e   Code   RO         1853    i.nrf_atomic_flag_set  nrf_atomic.o
    0x000014cc   0x000014cc   0x00000016   Code   RO         1855    i.nrf_atomic_u32_add  nrf_atomic.o
    0x000014e2   0x000014e2   0x00000016   Code   RO         1859    i.nrf_atomic_u32_fetch_and  nrf_atomic.o
    0x000014f8   0x000014f8   0x00000016   Code   RO         1861    i.nrf_atomic_u32_fetch_store  nrf_atomic.o
    0x0000150e   0x0000150e   0x00000016   Code   RO         1865    i.nrf_atomic_u32_or  nrf_atomic.o
    0x00001524   0x00001524   0x00000016   Code   RO         1867    i.nrf_atomic_u32_sub  nrf_atomic.o
    0x0000153a   0x0000153a   0x0000004c   Code   RO         1992    i.nrf_balloc_alloc  nrf_balloc.o
    0x00001586   0x00001586   0x00000010   Code   RO         1993    i.nrf_balloc_block2idx  nrf_balloc.o
    0x00001596   0x00001596   0x0000002a   Code   RO         1994    i.nrf_balloc_free   nrf_balloc.o
    0x000015c0   0x000015c0   0x0000000c   Code   RO         1995    i.nrf_balloc_idx2block  nrf_balloc.o
    0x000015cc   0x000015cc   0x0000003c   Code   RO         1996    i.nrf_balloc_init   nrf_balloc.o
    0x00001608   0x00001608   0x00000016   Code   RO         1295    i.nrf_bitmask_bit_is_set  nrfx_gpiote.o
    0x0000161e   0x0000161e   0x00000016   Code   RO         1296    i.nrf_bitmask_bit_set  nrfx_gpiote.o
    0x00001634   0x00001634   0x00000050   Code   RO          416    i.nrf_drv_twi_init  nrf_drv_twi.o
    0x00001684   0x00001684   0x00000024   Code   RO            7    i.nrf_drv_twi_rx    main.o
    0x000016a8   0x000016a8   0x0000002c   Code   RO            8    i.nrf_drv_twi_tx    main.o
    0x000016d4   0x000016d4   0x0000002a   Code   RO         2039    i.nrf_fprintf       nrf_fprintf.o
    0x000016fe   0x000016fe   0x0000001c   Code   RO         2040    i.nrf_fprintf_buffer_flush  nrf_fprintf.o
    0x0000171a   0x0000171a   0x000001f0   Code   RO         2080    i.nrf_fprintf_fmt   nrf_fprintf_format.o
    0x0000190a   0x0000190a   0x00000002   PAD
    0x0000190c   0x0000190c   0x00000038   Code   RO          633    i.nrf_gpio_cfg      nrfx_twim.o
    0x00001944   0x00001944   0x0000003a   Code   RO         1299    i.nrf_gpio_cfg_sense_set  nrfx_gpiote.o
    0x0000197e   0x0000197e   0x0000001a   Code   RO          417    i.nrf_gpio_pin_clear  nrf_drv_twi.o
    0x00001998   0x00001998   0x00000020   Code   RO          418    i.nrf_gpio_pin_port_decode  nrf_drv_twi.o
    0x000019b8   0x000019b8   0x00000020   Code   RO         1301    i.nrf_gpio_pin_port_decode  nrfx_gpiote.o
    0x000019d8   0x000019d8   0x0000001a   Code   RO          419    i.nrf_gpio_pin_set  nrf_drv_twi.o
    0x000019f2   0x000019f2   0x00000002   PAD
    0x000019f4   0x000019f4   0x0000002c   Code   RO         1304    i.nrf_gpio_ports_read  nrfx_gpiote.o
    0x00001a20   0x00001a20   0x0000000c   Code   RO         1305    i.nrf_gpiote_event_addr_get  nrfx_gpiote.o
    0x00001a2c   0x00001a2c   0x0000001c   Code   RO         1306    i.nrf_gpiote_event_clear  nrfx_gpiote.o
    0x00001a48   0x00001a48   0x00000016   Code   RO         1307    i.nrf_gpiote_event_is_set  nrfx_gpiote.o
    0x00001a5e   0x00001a5e   0x00000002   PAD
    0x00001a60   0x00001a60   0x00000048   Code   RO         2418    i.nrf_log_backend_add  nrf_log_frontend.o
    0x00001aa8   0x00001aa8   0x00000002   Code   RO         2234    i.nrf_log_backend_rtt_flush  nrf_log_backend_rtt.o
    0x00001aaa   0x00001aaa   0x00000008   Code   RO         2235    i.nrf_log_backend_rtt_init  nrf_log_backend_rtt.o
    0x00001ab2   0x00001ab2   0x00000002   Code   RO         2236    i.nrf_log_backend_rtt_panic_set  nrf_log_backend_rtt.o
    0x00001ab4   0x00001ab4   0x00000020   Code   RO         2237    i.nrf_log_backend_rtt_put  nrf_log_backend_rtt.o
    0x00001ad4   0x00001ad4   0x000000f2   Code   RO         2324    i.nrf_log_backend_serial_put  nrf_log_backend_serial.o
    0x00001bc6   0x00001bc6   0x00000002   PAD
    0x00001bc8   0x00001bc8   0x00000038   Code   RO         2420    i.nrf_log_color_id_get  nrf_log_frontend.o
    0x00001c00   0x00001c00   0x00000024   Code   RO         2376    i.nrf_log_default_backends_init  nrf_log_default_backends.o
    0x00001c24   0x00001c24   0x000002f8   Code   RO         2421    i.nrf_log_frontend_dequeue  nrf_log_frontend.o
    0x00001f1c   0x00001f1c   0x00000014   Code   RO         2423    i.nrf_log_frontend_std_0  nrf_log_frontend.o
    0x00001f30   0x00001f30   0x0000003c   Code   RO         2429    i.nrf_log_frontend_std_6  nrf_log_frontend.o
    0x00001f6c   0x00001f6c   0x000000b8   Code   RO         2617    i.nrf_log_hexdump_entry_process  nrf_log_str_formatter.o
    0x00002024   0x00002024   0x00000064   Code   RO         2430    i.nrf_log_init      nrf_log_frontend.o
    0x00002088   0x00002088   0x00000014   Code   RO         2431    i.nrf_log_module_cnt_get  nrf_log_frontend.o
    0x0000209c   0x0000209c   0x00000024   Code   RO         2435    i.nrf_log_module_name_get  nrf_log_frontend.o
    0x000020c0   0x000020c0   0x00000034   Code   RO         2436    i.nrf_log_panic     nrf_log_frontend.o
    0x000020f4   0x000020f4   0x000000c8   Code   RO         2618    i.nrf_log_std_entry_process  nrf_log_str_formatter.o
    0x000021bc   0x000021bc   0x0000007a   Code   RO         2124    i.nrf_memobj_alloc  nrf_memobj.o
    0x00002236   0x00002236   0x00000040   Code   RO         2125    i.nrf_memobj_free   nrf_memobj.o
    0x00002276   0x00002276   0x00000010   Code   RO         2126    i.nrf_memobj_get    nrf_memobj.o
    0x00002286   0x00002286   0x0000000c   Code   RO         2127    i.nrf_memobj_pool_init  nrf_memobj.o
    0x00002292   0x00002292   0x0000001e   Code   RO         2128    i.nrf_memobj_put    nrf_memobj.o
    0x000022b0   0x000022b0   0x0000001c   Code   RO         2129    i.nrf_memobj_read   nrf_memobj.o
    0x000022cc   0x000022cc   0x0000001c   Code   RO         2130    i.nrf_memobj_write  nrf_memobj.o
    0x000022e8   0x000022e8   0x0000000c   Code   RO          635    i.nrf_twim_errorsrc_get_and_clear  nrfx_twim.o
    0x000022f4   0x000022f4   0x0000000e   Code   RO          636    i.nrf_twim_event_check  nrfx_twim.o
    0x00002302   0x00002302   0x0000000e   Code   RO          637    i.nrf_twim_event_clear  nrfx_twim.o
    0x00002310   0x00002310   0x00000006   Code   RO          638    i.nrf_twim_int_disable  nrfx_twim.o
    0x00002316   0x00002316   0x00000006   Code   RO          639    i.nrf_twim_int_enable  nrfx_twim.o
    0x0000231c   0x0000231c   0x0000000c   Code   RO          640    i.nrf_twim_rx_buffer_set  nrfx_twim.o
    0x00002328   0x00002328   0x0000000a   Code   RO          641    i.nrf_twim_rxd_amount_get  nrfx_twim.o
    0x00002332   0x00002332   0x00000006   Code   RO          642    i.nrf_twim_shorts_set  nrfx_twim.o
    0x00002338   0x00002338   0x00000006   Code   RO          643    i.nrf_twim_task_trigger  nrfx_twim.o
    0x0000233e   0x0000233e   0x0000000c   Code   RO          644    i.nrf_twim_tx_buffer_set  nrfx_twim.o
    0x0000234a   0x0000234a   0x0000000a   Code   RO          645    i.nrf_twim_txd_amount_get  nrfx_twim.o
    0x00002354   0x00002354   0x00000018   Code   RO          420    i.nrfx_coredep_delay_us  nrf_drv_twi.o
    0x0000236c   0x0000236c   0x0000000a   Code   RO          646    i.nrfx_get_irq_number  nrfx_twim.o
    0x00002376   0x00002376   0x00000014   Code   RO          647    i.nrfx_is_in_ram    nrfx_twim.o
    0x0000238a   0x0000238a   0x00000048   Code   RO          552    i.nrfx_prs_acquire  nrfx_prs.o
    0x000023d2   0x000023d2   0x00000002   PAD
    0x000023d4   0x000023d4   0x00000028   Code   RO          649    i.nrfx_twim_enable  nrfx_twim.o
    0x000023fc   0x000023fc   0x00000138   Code   RO          650    i.nrfx_twim_init    nrfx_twim.o
    0x00002534   0x00002534   0x00000030   Code   RO          652    i.nrfx_twim_rx      nrfx_twim.o
    0x00002564   0x00002564   0x0000003e   Code   RO          655    i.nrfx_twim_tx      nrfx_twim.o
    0x000025a2   0x000025a2   0x00000002   PAD
    0x000025a4   0x000025a4   0x00000034   Code   RO          657    i.nrfx_twim_xfer    nrfx_twim.o
    0x000025d8   0x000025d8   0x00000048   Code   RO         2620    i.postfix_process   nrf_log_str_formatter.o
    0x00002620   0x00002620   0x000000a4   Code   RO         2621    i.prefix_process    nrf_log_str_formatter.o
    0x000026c4   0x000026c4   0x00000018   Code   RO          554    i.prs_box_get       nrfx_prs.o
    0x000026dc   0x000026dc   0x00000060   Code   RO            9    i.read_sensor_data  main.o
    0x0000273c   0x0000273c   0x00000084   Code   RO         2238    i.serial_tx         nrf_log_backend_rtt.o
    0x000027c0   0x000027c0   0x00000040   Code   RO           11    i.start_sensor      main.o
    0x00002800   0x00002800   0x00000064   Code   RO         2438    i.std_header_set    nrf_log_frontend.o
    0x00002864   0x00002864   0x00000070   Code   RO         2439    i.std_n             nrf_log_frontend.o
    0x000028d4   0x000028d4   0x00000074   Code   RO         2081    i.string_print      nrf_fprintf_format.o
    0x00002948   0x00002948   0x00000002   Code   RO         2622    i.timestamp_print   nrf_log_str_formatter.o
    0x0000294a   0x0000294a   0x00000002   PAD
    0x0000294c   0x0000294c   0x0000009c   Code   RO          421    i.twi_clear_bus     nrf_drv_twi.o
    0x000029e8   0x000029e8   0x000000f4   Code   RO           12    i.twi_handler       main.o
    0x00002adc   0x00002adc   0x00000044   Code   RO           13    i.twi_init          main.o
    0x00002b20   0x00002b20   0x0000001a   Code   RO          658    i.twi_process_error  nrfx_twim.o
    0x00002b3a   0x00002b3a   0x00000002   PAD
    0x00002b3c   0x00002b3c   0x00000048   Code   RO          423    i.twim_evt_handler  nrf_drv_twi.o
    0x00002b84   0x00002b84   0x00000190   Code   RO          659    i.twim_irq_handler  nrfx_twim.o
    0x00002d14   0x00002d14   0x000002a8   Code   RO          660    i.twim_xfer         nrfx_twim.o
    0x00002fbc   0x00002fbc   0x000000b8   Code   RO         2082    i.unsigned_print    nrf_fprintf_format.o
    0x00003074   0x00003074   0x0000000c   PAD
    0x00003080   0x00003080   0x00000028   Data   RO           14    .constdata          main.o
    0x000030a8   0x000030a8   0x00000008   PAD
    0x000030b0   0x000030b0   0x00000006   Data   RO          424    .constdata          nrf_drv_twi.o
    0x000030b6   0x000030b6   0x00000002   PAD
    0x000030b8   0x000030b8   0x00000044   Data   RO          662    .constdata          nrfx_twim.o
    0x000030fc   0x000030fc   0x00000042   Data   RO         1342    .constdata          nrfx_gpiote.o
    0x0000313e   0x0000313e   0x00000010   Data   RO         2083    .constdata          nrf_fprintf_format.o
    0x0000314e   0x0000314e   0x00000002   PAD
    0x00003150   0x00003150   0x00000016   Data   RO         2240    .constdata          nrf_log_backend_rtt.o
    0x00003166   0x00003166   0x00000081   Data   RO         3118    .constdata          mc_w.l(ctype_o.o)
    0x000031e7   0x000031e7   0x00000001   PAD
    0x000031e8   0x000031e8   0x00000004   Data   RO         3119    .constdata          mc_w.l(ctype_o.o)
    0x000031ec   0x000031ec   0x00000066   Data   RO         2623    .conststring        nrf_log_str_formatter.o
    0x00003252   0x00003252   0x00000002   PAD
    0x00003254   0x00003254   0x00000004   Data   RO          556    .conststrlit        nrfx_prs.o
    0x00003258   0x00003258   0x00000005   Data   RO          663    .conststrlit        nrfx_twim.o
    0x0000325d   0x0000325d   0x00000003   PAD
    0x00003260   0x00003260   0x00000005   Data   RO          876    .conststrlit        nrfx_uart.o
    0x00003265   0x00003265   0x00000003   PAD
    0x00003268   0x00003268   0x00000006   Data   RO         1115    .conststrlit        nrfx_uarte.o
    0x0000326e   0x0000326e   0x00000002   PAD
    0x00003270   0x00003270   0x00000007   Data   RO         1343    .conststrlit        nrfx_gpiote.o
    0x00003277   0x00003277   0x00000001   PAD
    0x00003278   0x00003278   0x00000018   Data   RO         2441    .conststrlit        nrf_log_frontend.o
    0x00003290   0x00003290   0x00000020   Data   RO         3175    Region$$Table       anon$$obj.o
    0x000032b0   0x000032b0   0x00000008   Data   RO          558    log_const_data      nrfx_prs.o
    0x000032b8   0x000032b8   0x00000008   Data   RO          664    log_const_data      nrfx_twim.o
    0x000032c0   0x000032c0   0x00000008   Data   RO          877    log_const_data      nrfx_uart.o
    0x000032c8   0x000032c8   0x00000008   Data   RO         1116    log_const_data      nrfx_uarte.o
    0x000032d0   0x000032d0   0x00000008   Data   RO         1344    log_const_data      nrfx_gpiote.o
    0x000032d8   0x000032d8   0x00000010   Data   RO         2443    log_const_data      nrf_log_frontend.o
    0x000032e8   0x000032e8   0x00000018   Data   RO         2445    nrf_balloc          nrf_log_frontend.o


    Execution Region RW_IRAM1 (Exec base: 0x20000000, Load base: 0x00003300, Size: 0x000028f0, Max: 0x00040000, ABSOLUTE)

    Exec Addr    Load Addr    Size         Type   Attr      Idx    E Section Name        Object

    0x20000000   0x00003300   0x00000011   Data   RW           15    .data               main.o
    0x20000011   0x00003311   0x00000003   PAD
    0x20000014   0x00003314   0x00000010   Data   RW          425    .data               nrf_drv_twi.o
    0x20000024   0x00003324   0x00000008   Data   RW          557    .data               nrfx_prs.o
    0x2000002c   0x0000332c   0x00000004   Data   RW         1754    .data               app_util_platform.o
    0x20000030   0x00003330   0x00000001   Data   RW         2241    .data               nrf_log_backend_rtt.o
    0x20000031   0x00003331   0x00000003   PAD
    0x20000034   0x00003334   0x0000000c   Data   RW         2377    .data               nrf_log_default_backends.o
    0x20000040   0x00003340   0x00000010   Data   RW         2442    .data               nrf_log_frontend.o
    0x20000050   0x00003350   0x00000040   Data   RW         2624    .data               nrf_log_str_formatter.o
    0x20000090   0x00003390   0x00000004   Data   RW         3046    .data               system_nrf52840.o
    0x20000094   0x00003394   0x00000004   Data   RW          559    log_dynamic_data    nrfx_prs.o
    0x20000098   0x00003398   0x00000004   Data   RW          665    log_dynamic_data    nrfx_twim.o
    0x2000009c   0x0000339c   0x00000004   Data   RW          878    log_dynamic_data    nrfx_uart.o
    0x200000a0   0x000033a0   0x00000004   Data   RW         1117    log_dynamic_data    nrfx_uarte.o
    0x200000a4   0x000033a4   0x00000004   Data   RW         1345    log_dynamic_data    nrfx_gpiote.o
    0x200000a8   0x000033a8   0x00000008   Data   RW         2444    log_dynamic_data    nrf_log_frontend.o
    0x200000b0        -       0x00000034   Zero   RW          661    .bss                nrfx_twim.o
    0x200000e4        -       0x0000005c   Zero   RW         1341    .bss                nrfx_gpiote.o
    0x20000140        -       0x00000040   Zero   RW         2239    .bss                nrf_log_backend_rtt.o
    0x20000180        -       0x000004e4   Zero   RW         2440    .bss                nrf_log_frontend.o
    0x20000664        -       0x00000288   Zero   RW         2704    .bss                segger_rtt.o
    0x200008ec   0x000033b0   0x00000004   PAD
    0x200008f0        -       0x00002000   Zero   RW         3027    STACK               arm_startup_nrf52840.o


==============================================================================

Image component sizes


      Code (inc. data)   RO Data    RW Data    ZI Data      Debug   Object Name

        28          0          0          0          0      39509   app_error.o
         0          0          0          0          0        392   app_error_handler_keil.o
       176         40          0          0          0      27529   app_error_weak.o
        64         10          0          4          0       3666   app_util_platform.o
        36          8        512          0       8192        972   arm_startup_nrf52840.o
         0          0          0          0          0        524   boards.o
      1568        326         40         17          0      80661   main.o
       364          0          0          0          0       8246   nrf_atomic.o
       206          0          0          0          0       3999   nrf_balloc.o
       416         36          6         16          0      24035   nrf_drv_twi.o
        70          0          0          0          0       3781   nrf_fprintf.o
      1018          6         16          0          0       6434   nrf_fprintf_format.o
       176         16         22          1         64       7169   nrf_log_backend_rtt.o
       242          0          0          0          0      11079   nrf_log_backend_serial.o
        36          4          0         12          0       3378   nrf_log_default_backends.o
      2080        132         64         24       1252      31590   nrf_log_frontend.o
       622        114        102         64          0       6540   nrf_log_str_formatter.o
       474          0          0          0          0      10191   nrf_memobj.o
       824         38         81          4         92      55609   nrfx_gpiote.o
       112         14         12         12          0       5433   nrfx_prs.o
      1834         60         81          4         52      63123   nrfx_twim.o
         0          0         13          4          0       8778   nrfx_uart.o
         0          0         14          4          0       8152   nrfx_uarte.o
       470         44          0          0        648       8945   segger_rtt.o
       856        108          0          4          0      33058   system_nrf52840.o

    ----------------------------------------------------------------------
     11706        968       1018        176      10304     452793   Object Totals
         0          0         32          0          0          0   (incl. Generated)
        34         12         23          6          4          0   (incl. Padding)

    ----------------------------------------------------------------------

      Code (inc. data)   RO Data    RW Data    ZI Data      Debug   Library Member Name

         8          4        133          0          0         68   ctype_o.o
         0          0          0          0          0          0   entry.o
         0          0          0          0          0          0   entry10a.o
         0          0          0          0          0          0   entry11a.o
         8          4          0          0          0          0   entry2.o
         4          0          0          0          0          0   entry5.o
         0          0          0          0          0          0   entry7b.o
         0          0          0          0          0          0   entry8b.o
         8          4          0          0          0          0   entry9a.o
        30          0          0          0          0          0   handlers.o
        36          8          0          0          0         68   init.o
        36          0          0          0          0         68   memcpya.o
        36          0          0          0          0        108   memseta.o
        18          0          0          0          0         68   strcpy.o
        14          0          0          0          0         68   strlen.o

    ----------------------------------------------------------------------
       198         20        134          0          0        448   Library Totals
         0          0          1          0          0          0   (incl. Padding)

    ----------------------------------------------------------------------

      Code (inc. data)   RO Data    RW Data    ZI Data      Debug   Library Name

       198         20        133          0          0        448   mc_w.l

    ----------------------------------------------------------------------
       198         20        134          0          0        448   Library Totals

    ----------------------------------------------------------------------

==============================================================================


      Code (inc. data)   RO Data    RW Data    ZI Data      Debug   

     11904        988       1152        176      10304     440641   Grand Totals
     11904        988       1152        176      10304     440641   ELF Image Totals
     11904        988       1152        176          0          0   ROM Totals

==============================================================================

    Total RO  Size (Code + RO Data)                13056 (  12.75kB)
    Total RW  Size (RW Data + ZI Data)             10480 (  10.23kB)
    Total ROM Size (Code + RO Data + RW Data)      13232 (  12.92kB)

==============================================================================

