:020000040002F8
:10200000785A002075B302007DB302007FB302004E
:1020100081B3020083B3020085B302000000000018
:1020200000000000000000000000000087B3020074
:1020300089B30200000000008BB302008DB30200E0
:10204000575A02008FB30200237002008FB30200C0
:102050008FB302008FB30200916202008FB30200BF
:102060008FB302008FB302008FB302008FB3020060
:102070008FB302008FB302008FB302008FB3020050
:102080008FB302001F7E02008FB302008FB30200E5
:102090004B7E02008FB30200A9AF02008FB3020093
:1020A0008FB302008FB302008FB302008FB3020020
:1020B0008FB302008FB30200000000000000000098
:1020C0008FB302008FB302008FB302008FB3020000
:1020D0008FB302008FB302008FB302008FB30200F0
:1020E0008FB302008FB302008FB302000000000024
:1020F000000000008FB30200000000008FB3020058
:1021000000000000000000000000000000000000CF
:1021100000000000000000000000000000000000BF
:1021200000000000000000000000000000000000AF
:10213000000000000000000000000000000000009F
:10214000000000000000000000000000000000008F
:10215000000000000000000000000000000000007F
:10216000000000000000000000000000000000006F
:10217000000000000000000000000000000000005F
:10218000000000000000000000000000000000004F
:10219000000000000000000000000000000000003F
:1021A000000000000000000000000000000000002F
:1021B000000000000000000000000000000000001F
:1021C000000000000000000000000000000000000F
:1021D00000000000000000000000000000000000FF
:1021E00000000000000000000000000000000000EF
:1021F00000000000000000000000000000000000DF
:10220000DFF80CD009F0C8FA00480047432C020060
:10221000785A002030B450E8012F93B2C489234487
:102220008489A34228BF1B1B0489A34202BFBFF3BA
:102230002F8F002007E0C3EA020340E80134002C9E
:10224000E9D14FF001000A6030BC704750E8012F1F
:10225000C2EA024240E801210029F7D1704730B4B8
:1022600050E8022F1FFAA2F3C488A34202BFBFF3B3
:102270002F8F00200DE0C48923448489A34228BF06
:102280001B1BC2EA034340E80234002CE8D14FF0A4
:1022900001000A6030BC704750E8022FC2EA2242B7
:1022A00040E802210029F7D17047034653E8022F86
:1022B000D988B2EB324F4FF0000017BF92B241EA1B
:1022C000014142EA014104E05A68B2EB324F08BFD3
:1022D000012043E80212002AE8D1704730B40446D6
:1022E00054E8000F0D4644E80053002BF8D1156068
:1022F00030BC704730B4044654E8000F40EA010592
:1023000044E80053002BF7D1156030BC704730B45F
:10231000044654E8000F00EA010544E80053002B8E
:10232000F7D1156030BC704730B4044654E8000F54
:1023300080EA010544E80053002BF7D1156030BC5A
:10234000704730B4044654E8000F00EB010544E840
:102350000053002BF7D1156030BC704730B40446F1
:1023600054E8000FA0EB010544E80053002BF7D11F
:10237000156030BC7047000030B4044654E8000FCC
:102380000D4644E80053002BF8D1156030BC70476F
:1023900030B4044654E8000F40EA010544E8005315
:1023A000002BF7D1156030BC704730B4044654E8B8
:1023B000000F00EA010544E80053002BF7D1156037
:1023C00030BC704730B4044654E8000F80EA010581
:1023D00044E80053002BF7D1156030BC704730B48F
:1023E000044654E8000F00EB010544E80053002BBD
:1023F000F7D1156030BC704730B4044654E8000F84
:10240000A0EB010544E80053002BF7D1156030BC68
:102410007047000030B4044654E8000F0D4644E80D
:102420000053002BF8D1156030BC704730B404461F
:1024300054E8000F40EA010544E80053002BF7D1AF
:10244000156030BC704730B4044654E8000F00EA11
:10245000010544E80053002BF7D1156030BC7047EC
:1024600030B4044654E8000F80EA010544E8005304
:10247000002BF7D1156030BC704730B4044654E8E7
:10248000000F00EB010544E80053002BF7D1156065
:1024900030BC704730B4044654E8000FA0EB01058F
:1024A00044E80053002BF7D1156030BC70470000A2
:1024B00070B504460D462A462146FE4805F044F80C
:1024C00070BD3EB500BF9DF8000020F00F00401C1D
:1024D00000909DF8000020F0F0001030009000BF48
:1024E0000B22F5A168467CDF044600BF254625B1D6
:1024F00000BF284605F038F800BF00BF002001905B
:1025000002901020ADF804003C20ADF80600002039
:10251000ADF808004FF4C870ADF80A0001A87ADFE2
:10252000044600BF254625B100BF284605F01CF82B
:1025300000BF00BF3EBD2DE9F041054628780028C8
:102540002FD100261DE000BFA968885D05F056FE6A
:1025500004469CB1112C11D0DA490988012242EAC3
:1025600001402246D8A107F0BCFB00BF274627B197
:1025700000BF384604F0F8FF00BF00BF112CE3D0C5
:10258000761CA889B042DED8A889401EA968085CDC
:102590000D2805D100BF0A2005F030FE1128FAD021
:1025A00000BFBDE8F08138B500200090D148009010
:1025B0006946D14803F07CF8044600BF254625B1A2
:1025C00000BF284604F0D0FF00BF00BF38BD70B583
:1025D0000546287868B93B21C848008876DF04465C
:1025E00000BF264626B100BF304604F0BDFF00BF45
:1025F00000BF70BD10B5044600BF204604F0B4FF14
:1026000000BF10BD30B587B01C21684609F089F8BD
:10261000002000904FF4203001904FF47020029081
:1026200003208DF80C000020ADF80E008DF810008E
:10263000B3480590B3480690684601F0AFFF0446E2
:1026400000BF254625B100BF284604F08DFF00BF1E
:1026500000BF07B030BD70B5002000F03FFF04465A
:1026600000BF254625B100BF284604F07DFF00BF0E
:1026700000BF01F04CF8044600BF254625B100BF5D
:10268000284604F071FF00BF00BF32DF044600BFE0
:10269000254625B100BF284604F066FF00BF00BFF5
:1026A00070BD70B505467DB1032D10D1022000F03C
:1026B00015FF044600BF264626B100BF304604F091
:1026C00053FF00BF00BF03E0FFF7C5FF00E000BFFE
:1026D00000BF70BDF0B589B005460F462888222896
:1026E00049D008DC012877D010280DD0112824D03B
:1026F000132872D12EE03B2860D051286ED052288A
:102700004BD05628F5D16AE06E490988032242EA87
:1027100001407DA107F0DBFA072000F0DFFE044650
:1027200000BF264626B100BF304604F01DFF00BFA3
:1027300000BFA888714908809EE062490988032289
:1027400042EA014073A107F0C2FA4FF6FF706B49ED
:10275000088091E000231A468521684800887FDFC1
:10276000044600BF264626B100BF304604F0FCFEFA
:1027700000BF00BF80E0002007900890A8880022DA
:1027800007A990DF044600BF264626B100BF3046A9
:1027900004F0EAFE00BF00BF6EE000231A461946AF
:1027A00056480088A9DF044600BF264626B100BF70
:1027B000304604F0D9FE00BF00BF5DE0A8881321B9
:1027C00076DF044600BF264626B100BF304604F03F
:1027D000CBFE00BF00BF4FE00FE04CE01BE0A8883D
:1027E000132176DF044600BF264626B100BF3046DF
:1027F00004F0BAFE00BF00BF3EE0A888002166DFFB
:10280000044600BF264626B100BF304604F0ACFEA9
:1028100000BF00BF30E01022A91D05A808F068FF26
:102820009DF8140030B39DF81C00042807D09DF8D3
:102830001C00062803D09DF81C0005281AD19DF81D
:102840001400022802D18DF8040002E001208DF866
:1028500004004FF4C170ADF80800A88801A9A8DFF2
:10286000044600BF264626B100BF304604F07CFE79
:1028700000BF00BF00E000BF00BF09B0F0BD38B529
:1028800008F0D8FA044600BF254625B100BF284607
:1028900004F06AFE00BF00BF0A490988032242EA29
:1028A000014022461FA107F01CFA00200090694653
:1028B00001203DE0EFBEADDE4E6F726469635F558F
:1028C00041525400482B00204661696C65642072B7
:1028D0006563656976696E67204E5553206D657333
:1028E000736167652E204572726F7220307825788B
:1028F0002E20000037250200782B0020182A002007
:10290000CF250200F5250200436F6E6E6563746586
:1029100064000000446973636F6E6E656374656480
:10292000000000006572726F7220697320256400D8
:1029300008F0ADFB0446FD490988032242EA014044
:102940002246AFF2200107F0CCF900BF254625B1A1
:1029500000BF284604F008FE00BF00BF684608F02C
:1029600032FC0446F1490988032242EA014022462A
:10297000AFF2500107F0B5F900BF254625B100BF01
:10298000284604F0F1FD00BF00BF38BD70B5054614
:102990000C466088E6490988884213D1208840F6B1
:1029A000772188420ED1A088C01EE2490880DF4905
:1029B0000988032242EA0140DE490B880A88DEA129
:1029C00007F09BF970BD70B5AFF23F01E14802F02E
:1029D00008FC044600BF254625B100BF284604F088
:1029E000C3FD00BF00BF1721DA4802F014FC044603
:1029F00000BF254625B100BF284604F0B5FD00BF45
:102A000000BF70BD70B50546042D06D0072D15D04A
:102A10000A2D29D1FFF71FFE27E01321C4480088A3
:102A200076DF0446082C08D000BF264626B100BF3A
:102A3000304604F099FD00BF00BF16E0BC48008896
:102A40004FF6FF7188420ED1C34801F0DAFC04460C
:102A5000082C08D000BF264626B100BF304604F03F
:102A600083FD00BF00BF00E000BF00BF70BDF8B530
:102A70000546287820B101283DD0022841D134E014
:102A8000B649B74A1278881805F097FBB448007821
:102A9000401CB349087008460078401EAF49085CE6
:102AA0000A2805D0AE480078A249098888421BDB75
:102AB00000BFAB48007800906A46A849A94802F0D8
:102AC00040FE0446082C0AD0112C08D000BF264630
:102AD00026B100BF304604F047FD00BF00BF112CF7
:102AE000E7D000209E4908700CE000BF686804F041
:102AF0003BFD00BF06E000BF686804F035FD00BF85
:102B000000E000BF00BFF8BD30B58BB01822964979
:102B100005A808F0EDFD00BF944801904FF48070C7
:102B20000290934803904FF4807004900723AFF213
:102B3000C10201A905A805F0C7FA044600BF00BFFD
:102B4000254625B100BF284604F00EFD00BF00BF9A
:102B50000BB030BD30B5A9B0A02101A808F0E1FD4F
:102B600002208DF8040000208DF8060005208DF865
:102B700007000121ADF850107E49159101218DF813
:102B8000801040212391B42124917B48279001A9F2
:102B9000714801F02FFB044600BF254625B100BF58
:102BA000284604F0E1FC00BF00BF01216A4801F0A3
:102BB0001EFB29B030BDF8B50546AFF2B7110320B2
:102BC00000F0C5FC044600BF264626B100BF3046D3
:102BD00004F0CAFC00BF00BF6946002000F0E8FD19
:102BE000044600BF264626B100BF304604F0BCFCB8
:102BF00000BF00BF9DF80000022801D1012000E0C5
:102C000000202870F8BD70B5002006F0EBFC0446EB
:102C100000BF254625B100BF284604F0A5FC00BF33
:102C200000BF06F0CDFC70BD70B53EDF044600BFAE
:102C3000254625B100BF284604F096FC00BF00BF22
:102C400070BD08B505F005F9044600BF254625B15D
:102C500000BF284604F088FC00BF00BFFFF754FF08
:102C6000FFF7D1FF31490988032242EA014043A11D
:102C700007F02DF86846FFF79EFF2C4909880322CC
:102C800042EA014040A107F022F8FFF7F8FD27498A
:102C90000988032242EA01403EA107F018F8FFF735
:102CA00010FC22490988032242EA01403CA107F0B6
:102CB0000EF8FFF788FE1D490988032242EA014009
:102CC0003AA107F004F8FFF76EFC184909880322BF
:102CD00042EA014038A106F0FAFFFFF73BFF134933
:102CE0000988032242EA014036A106F0F0FFFFF70F
:102CF00089FC0E490988032242EA014034A106F00A
:102D0000E6FF0321144801F0A8F9044600BF254658
:102D100025B100BF284604F027FC00BF00BF00BF5C
:102D200006F03BFEFFF780FFFAE70000482B00208B
:102D3000182A00201A2A002044617461206C656EF4
:102D40002069732073657420746F203078255828AB
:102D500025642900942B0020A82B0020802C002023
:102D6000202A0020782B0020A8B80200942C0020F4
:102D7000942D00201C2A0020A32602006C6F6720DF
:102D800053746172742100006C6F67205374617218
:102D9000743121006C6F67205374617274322100AA
:102DA0006C6F672053746172743321006C6F6720FD
:102DB00053746172743421006C6F672053746172B4
:102DC000743521006C6F6720537461727436210072
:102DD0005541525420537461727421002DE9FF470C
:102DE0000C4615461E46DDE90C78684600F0EFF803
:102DF000814644EA450040EA860040EA072040EA6E
:102E0000084109F5E060009A40F82210BDE8FF870C
:102E1000F8B504460D466DB90094684600F0D7F841
:102E200006460121009A01FA02F0C6F80C0500BF1F
:102E300000BF0DE00094684600F0C9F80646012185
:102E4000009A01FA02F0C6F8080500BF00BF00BFF3
:102E5000F8BDF8B504466448005D0090684600F08F
:102E6000B6F8064600BFD6F804050099C84000F041
:102E7000010008B1012000E00020054685F00100B6
:102E8000F8BD10B504465849085D0021FFF7C0FFA2
:102E900010BD10B504465449085D0121FFF7B8FF85
:102EA00010BD10B5002403E02046FFF7F2FF641CBC
:102EB000042CF9D310BD10B5002403E02046FFF721
:102EC000E0FF641C042CF9D310BDF8B50546464854
:102ED000405D0090684600F07AF80446D4F8046536
:102EE000012000998840B043C4F8080501200099EA
:102EF00088403040C4F80C0500BFF8BD7CB5002404
:102F00000CE03948055D002000900346012211467F
:102F100001902846FFF762FF00BF641C042CF0D329
:102F2000FFF7BFFF7CBD01462F48405C704702465B
:102F30004FF0FF30002106E02B4B5B5C934201D148
:102F4000084602E0491C0429F6D300BF7047F8B5D3
:102F500004462648005D0090684600F038F80646B2
:102F600000BFD6F810050099C84000F0010008B174
:102F7000012000E00020054685F00100F8BD7CB589
:102F800000240DE01948055D03260020009033461B
:102F90000246014601902846FFF720FF00BF641C4F
:102FA000042CEFD37CBD02464FF0FF30002106E039
:102FB0000E4B5B5C934201D1084602E0491C042998
:102FC000F6D300BF704701460848405C7047014691
:102FD0000868202802D24FF0A0407047087800F01F
:102FE0001F0008600248F8E7C0B80200C4B8020039
:102FF0000003005010B50A4600BF202802D24FF04F
:10300000A04302E000F01F00FE4B194601F5E0630B
:1030100053F8203023F4403401F5E06343F82040B6
:1030200053F8203043EA024401F5E06343F82040BE
:1030300010BD10B504462046FFF789FF10BD2DE9ED
:10304000F04106460F464FF0000800243046FFF7D7
:10305000AAFF0446042C3ED20FB3012F02D0022F48
:1030600038D130E004EB4400E74911F8008004EB6C
:1030700044000844407850B1E44A4FF40041E44829
:10308000006804F025FF05460DB9E048067004EB22
:103090004400DD4908448078DE4908551AE0DC48E0
:1030A000006804F03CFFDB48005D04EB4401D64AB5
:1030B00011448978884205D104EB44001146084444
:1030C00090F8028006E004EB4400CF49084490F8F1
:1030D000018000BF00BFB8F1000F06D0CE480068E5
:1030E00018B14046CC4909688847BDE8F08110B561
:1030F000044620780221FFF7A2FF10BD10B5C74893
:10310000007850B1002405E0022C02D02046FFF7E1
:10311000C0FE641C042CF7D301E0FFF7C2FE10BD13
:103120002DE9F047044600260025BD48007820B16F
:103130000020BB490870FFF7E1FF182C79D2DFE8C7
:1031400004F00C11124579ADF1FFEEEDECEBEAE97C
:10315000E8E7E6E5E4E3E2E1E0DFFFF7CFFFB148CF
:103160000470A5E100BF0020FFF773FE58B10020F6
:10317000FFF78FFE022C02D14FF4E16001E04FF423
:103180007A60054609E00020FFF77BFE022C01D1A2
:10319000C82001E04FF4C8700546A24804704FF4FF
:1031A0000040A5FB00204FF4FA73D71840F100014E
:1031B0005A000023384608F065FA81460022494645
:1031C0009948006804F084FE064671E10020FFF78C
:1031D00040FE58B10020FFF75CFE032C02D14FF4F3
:1031E000487001E04FF47A60054609E00020FFF7DF
:1031F00048FE032C01D1C82001E04FF4C8700546F9
:10320000884804704FF40040A5FB00204FF4FA7387
:10321000D71840F100015A000023384608F032FA6E
:103220008146002249468048006804F051FE064667
:103230003EE13CE10020FFF70CFE58B10020FFF713
:1032400028FE042C02D14FF47A6001E04FF47A603A
:1032500005460AE00020FFF714FE042C02D14FF4CB
:10326000C87001E04FF4C87005466E4804704FF412
:103270000040A5FB00104FF4FA73CF1840F1000195
:103280005A000023384608F0FDF9814600224946DD
:103290006548006804F01CFE064609E10020FFF7BF
:1032A000D8FD50B10020FFF7F4FD052C01D1C82056
:1032B00001E04FF47A60054609E00020FFF7E1FDE8
:1032C000052C01D1C82001E04FF4C87005465548CF
:1032D00004704FF40040A5FB00204FF4FA73D71898
:1032E00040F100015A000023384608F0CBF981462E
:1032F000002249464C48006804F0EAFD0646D7E043
:10330000D0E0CEE0C2E0B9E0B0E0AAE05FE05DE08E
:103310005BE059E057E051E042E033E024E015E0A3
:103320000EE0FFE70020FFF7D0FD3E4804700022CA
:1033300040F6CD413C48006804F0CAFD0646B7E0BF
:103340000020FFF79EFD37480470B1E001203449AA
:103350000870FFF7BAFD002240F6CD413248006800
:1033600004F0B6FD0646A3E001202D490870FFF7E2
:10337000ACFD00224FF480412B48006804F0A8FD0A
:10338000064695E0012026490870FFF79EFD0022C1
:1033900040F6CD412448006804F09AFD064687E0D7
:1033A00001201F490870FFF790FD00224FF4804173
:1033B0001D48006804F08CFD064679E0FFF77BFDB0
:1033C0001848047074E000BF00BF00BF00BF17487A
:1033D000006804F0A4FD0646C4F1110545B33EBBE8
:1033E000012D30D9A8B2C82148434FF4004180FBD9
:1033F00001304FF4FA729F1840F10001520000238F
:10340000384616E000030050D42E0020342A002055
:10341000D0B80200352A0020302A00202C2A0020B3
:10342000252A0020242A0020C8B80200CCB80200B7
:1034300010E008F027F981460022494674480068E8
:1034400004F046FD06460220FFF71BFD01207149EE
:10345000087005E00220FFF71CFD00206D49087090
:1034600026E0FFF74BFE6C48047021E0FFF746FEB4
:103470000020FFF706FD6848047019E0FFF73EFEE4
:103480000120FFF7FEFC6448047011E0FFF736FEF0
:103490000020FFF7F6FC0120FFF7F3FC5E48047004
:1034A00006E000BFFFF707FD5B48047000E000BFC7
:1034B00000BF3046BDE8F08710B504465748007895
:1034C00000F0010018B154480078FFF729FE10BD44
:1034D00010B504460220FFF7F8FC10BD70B5044695
:1034E00000254E48007800F0010018B12046FFF793
:1034F00017FE0546284670BD30B503460020042B54
:1035000023D2012A07D1012903D103F10E04E4B229
:1035100000E00024224679B1012902D0022911D10C
:1035200004E003EB43043E4D2A550DE003EB430456
:103530003B4D2C44627007E003EB4304384D2C44B0
:10354000A27001E0072000BF00E0072030BD2DE998
:10355000F04105460F4600243048056031480760B9
:1035600005F0020000B3002606E0012211463046B5
:10357000FFF7C2FF0446761C042E01D2002CF4D0C3
:1035800034B940F266620421274803F052FF044632
:1035900014B903F090FF04462CB9244A00212448B2
:1035A00004F07AFC044600BF05F0010008B1FFF703
:1035B000A5FC2CB91F4A00211F4804F06DFC0446ED
:1035C0002CB91E4A0121124804F066FC044620462C
:1035D000BDE8F08110B503F06EFF10BD10B503F02B
:1035E0007BFF10BD70B504462046FFF7ECFC054696
:1035F0000321FFF7FFFC002070BD70B50446204694
:10360000FFF7E1FC05460021FFF7F4FC002070BD48
:10361000CCB802002C2A0020242A0020282A0020CE
:10362000D42E0020302A0020D4B80200EF3002004F
:10363000D0B80200B9340200C8B80200D134020088
:1036400010B5012200210846FFF756FF044600BFCF
:103650001CB1072C01D0204610BD00BF072202215B
:103660000120FFF749FF044600BF1CB1072C01D021
:103670002046F1E700BF042202210020FFF73CFFB3
:10368000044600BF1CB1072C01D02046E4E700BF70
:103690000020E1E710B5012202210020FFF72CFFF6
:1036A000044600BF1CB1072C01D0204610BD00BF4E
:1036B000072202210120FFF71FFF044600BF1CB1B3
:1036C000072C01D02046F1E700BF0A22002108465E
:1036D000FFF712FF044600BF1CB1072C01D02046A3
:1036E000E4E700BF0020E1E710B504460120FFF742
:1036F000A0FC10B10220207008E00020FFF799FC28
:1037000010B10B20207001E00020207010BD10B51A
:103710000020FFF767FF044600BF1CB1062C01D054
:10372000204610BD00BF0120FFF75CFF044600BF2C
:103730001CB1062C01D02046F3E700BF0020F0E7C3
:1037400070B505460E462888102802D011282CD1C5
:1037500015E02048006860B9FFF772FF044600BF1B
:1037600034B11D48006818B120461B4909688847D4
:1037700000BF18480068401C1649086016E015484C
:103780000068401E134908600846006860B9FFF7EA
:1037900081FF044600BF34B10F48006818B12046CD
:1037A0000D490968884700BF00E000BF00BF70BD39
:1037B00070B505460C4600260748056014B1204642
:1037C000FFF792FF0348006810B9FFF763FF064652
:1037D000304670BD402A00203C2A00202DE9FC41E3
:1037E00005460C46174620880930B84202D90C20FD
:1037F000BDE8FC8168466DDF064600BF0EB130466D
:10380000F6E700BF0820218868542088401C2080EB
:103810001B20218868542088401C20802088284450
:10382000DDF801100160BDF8051081802088801D41
:1038300020809DF80000400818B9002021886854B5
:1038400002E00120218868542088401C208000204C
:10385000CEE72DE9F84F05460F46144698462878DE
:10386000012804D1687810B90720BDE8F88F2088B6
:10387000801C404508D82878012807D12088801C62
:1038800069780844404501D90C20EEE72088A8EB70
:103890000000801E86B200962188891CC8196946DE
:1038A0007DDF814600BFB9F1000F01D04846DCE75B
:1038B00000BF2878022806D1BDF80000B04202DC23
:1038C0004FF0090A0BE04FF0080A2878012805D1CB
:1038D0006878B04202DC6878009000E00096BDF89D
:1038E0000000FE2801D90C20BFE7BDF80000401CF5
:1038F000218878542088401C2080208807F800A068
:103900002088401C20802088BDF8001008442080BA
:103910000020AAE7F8B505460C4617462088001D8A
:10392000B84201D90C20F8BD684679DF064600BFD1
:103930000EB13046F7E700BF032021886854208885
:10394000401C20801920218868542088401C208039
:1039500020884119BDF8000000F0C7FA218808440A
:1039600020800020DFE730B504461088C01C984254
:1039700001D90C2030BD0220158848551088401C04
:1039800010800120158848551088401C108015882B
:103990004C551088401C10800020EBE730B50446E1
:1039A0001088C01C984201D90C2030BD0220158817
:1039B00048551088401C10800A20158848551088EA
:1039C000401C108015884C551088401C1080002029
:1039D000EBE72DE9FF5F06468B4696461D460E9C9B
:1039E0004FF000082088039000274AE0706800EB41
:1039F000870000680190002202A901A864DF8246C6
:103A000000BFBAF1000F03D0504604B0BDE8F09FEC
:103A100000BF9DF80800704532D1B8F1000F01D009
:103A2000002000E00220009020889DF8081001444A
:103A3000009801440F98814201DD0C20E5E7B8F1C0
:103A4000000F0AD12088401C2080208805F800B093
:103A50002088401C20804FF001082088421902A9CC
:103A600001A864DF824600BFBAF1000F01D05046C2
:103A7000CBE700BF20889DF808100844208000BFD5
:103A80007F1C3088B842B1DCB8F1000F0DD021881E
:103A90000398401C081A1FFA80F9B9F1FF0F01DDE5
:103AA0000C20B2E7039805F800900020ADE72DE95F
:103AB000FC478046894615469A46DDE90A67534623
:103AC000022249464046CDE90067FFF782FF0446DF
:103AD00000BF14B12046BDE8FC8700BF534610224A
:103AE00029464046CDE90067FFF773FF044600BF53
:103AF0000CB12046EFE700BF0020ECE70146088844
:103B0000062808DB0888B0F5486F06DD08884FF600
:103B1000FF72904201D0072070474888062808DBD2
:103B20004888B0F5486F06DD48884FF6FF7290422E
:103B300001D00720F0E708884FF6FF72904208D0C6
:103B40004888904205D008884A88904201DD0720C5
:103B5000E2E70020E0E72DE9F04106460D46144675
:103B600098462088801D404502D90C20BDE8F08190
:103B70003046FFF7C3FF074600BF0FB13846F5E7F1
:103B800000BF0520218868542088401C2080122016
:103B9000218868542088401C208022885119308850
:103BA00000F0A3F9218808442080228851197088E8
:103BB00000F09BF92188084420800020D6E72DE9F9
:103BC000F04105460E4614469846A888871C208872
:103BD000801C3844404502D90C20BDE8F081FE2FFE
:103BE00001D90C20F9E7781C218870542088401CEA
:103BF0002080FF20218870542088401C208022884B
:103C00009119288800F071F9218808442080A8883B
:103C100000280DDDA86808B90720DEE7AA882388F8
:103C20009819A96807F064FD2088A98808442080B5
:103C30000020D2E72DE9F04707460E4614469A4683
:103C4000B86A10B90720BDE8F0874FF0000836E0E9
:103C500008EB4801B86A00EB8105A88800F1020969
:103C6000B9F1FE0F01D90C20EDE709F1010021881F
:103C700070542088401C2080162021887054208891
:103C8000401C208022889119288800F02EF9218874
:103C900008442080A88800280DDDA86808B90720FE
:103CA000D1E7AA8823889819A96807F021FD208800
:103CB000A9880844208008F1010000F0FF0897F867
:103CC0002C004045C4DC0020BDE72DE9FC41044642
:103CD00088461646002537880020308094F82D004D
:103CE00058B13A4631464046FFF778FD054600BFD9
:103CF00015B12846BDE8FC8100BFA07850B13A4616
:103D000031464046FFF706FE054600BF0DB1284686
:103D1000F0E700BFE07860B1E17848B23B46324658
:103D20004146FFF720FE054600BF0DB12846E1E7FA
:103D300000BF606868B1616891F900003B46324697
:103D40004146FFF72BFE054600BF0DB12846D1E7DF
:103D500000BF208900280EDD43460622022104F11F
:103D60000800CDE90067FFF7A2FE054600BF0DB1D0
:103D70002846BFE700BF208A00280EDD4346072201
:103D8000032104F11000CDE90067FFF790FE05461E
:103D900000BF0DB12846ADE700BF208B00280EDD27
:103DA00043461522142104F11800CDE90067FFF7FE
:103DB0007EFE054600BF0DB128469BE700BF206A86
:103DC00058B13B4632464146206AFFF7C4FE0546DD
:103DD00000BF0DB128468DE700BF606A58B13B4671
:103DE00032464146606AFFF7EAFE054600BF0DB164
:103DF00028467FE700BF94F82C0000280BDD3B46E7
:103E0000324641462046FFF715FF054600BF0DB17B
:103E100028466FE700BF207858B13B4632464146FE
:103E20002046FFF716FD054600BF0DB1284661E7A5
:103E300000BF28465EE70146C87800F0040008B9D4
:103E4000072070470020FCE70146C87808B107202A
:103E500070470020FCE72DE9F04192B080460D4606
:103E60001F2011901090B8F1000F17D04046FFF7B7
:103E7000E2FF044600BF1CB1204612B0BDE8F0814D
:103E800000BF11AA08A94046FFF71FFF044600BF64
:103E90000CB12046F1E700BF08AE02E0002600208A
:103EA0001190ADB12846FFF7CFFF044600BF0CB11B
:103EB0002046E2E700BF10AA69462846FFF705FF43
:103EC000044600BF0CB12046D7E700BF6F4602E0B2
:103ED000002700201090BDF84000C3B2BDF8440098
:103EE000C1B23A46304672DFC7E702460A70100A8E
:103EF000487002207047014691F8D600704702468C
:103F0000002104E0505C08B101207047491C0629DB
:103F1000F8D30020F9E70146481C052290FBF2F394
:103F200002FB1300C0B27047CA7B012A02D18A8803
:103F3000A0F8C820704770B504460D46A08B688174
:103F4000208CA8816079B8B194F8D400A0B920463B
:103F5000FFF7D1FF80B102202872042133200155E0
:103F6000002104F13000FFF776FF06460EB130461F
:103F700070BD0620A07001E00420A0700020F7E7CB
:103F800070B504460D46A08A6881208BA8816079AF
:103F9000B8B194F8D400A0B92046FFF7ACFF80B1C7
:103FA00002202872042133200155002104F1300041
:103FB000FFF751FF06460EB1304670BD0520A070D8
:103FC00001E00320A0700020F7E702460220907075
:103FD00002F12500486001200870108A88819089CC
:103FE00048810020704702460120907002F12500B0
:103FF000486001200870002088814881704770B5B2
:1040000004460D4604F12600FFF779FF0646012D10
:1040100006D0022D0AD0032D0ED0042D16D110E0AB
:10402000A07910B10EB1012070BD00BFE07910B1D0
:104030000EB10220F8E700BF207A08B10320F3E7B1
:1040400000BF607A08B10420EEE700BF0020EBE774
:1040500010B5002004F09FFD10BD7FB504460E464C
:10406000207810B9082004B070BDE670FFF7F0FFAB
:1040700018B1012060700020F5E7002044F8250FFA
:10408000A080A071253CA07910B1E078012809D06A
:10409000E07910B1E078012804D0E07980B1E078CF
:1040A00002280DD1D4F8CC0038B1012084F82C00BE
:1040B0000820D4F8CC10884702E0002084F82C00B7
:1040C00031462046FFF79BFFE070D4F8CC00A0B14A
:1040D000E078032802D0E07804280ED1607960B13E
:1040E00094F8D40048B90020CC34A072012060724A
:1040F00054F8CC190720884702E0002084F8D50046
:10410000002000900190029003908DF800008DF83F
:104110000800E07805281FD2DFE800F01B03090F34
:10412000150069462046FFF75EFF054615E0694623
:104130002046FFF74AFF05460FE069462046FFF795
:104140001FFF054609E069462046FFF7F4FE0546D5
:1041500003E00020A07000E000BF00BFE07838B1AD
:1041600094F82410684673DF05460DB128467AE7B7
:10417000D4F8CC0018B1A078D4F8CC10884700202F
:1041800071E770B504460E46002084F8D400B0886C
:10419000B4F8C81088420ED1207960B901212046B8
:1041A000FFF75BFF054635B1D4F8D00018B12846BB
:1041B000D4F8D010884770BD2DE9F04104460E4672
:1041C000307A08B1BDE8F081E078FFF7A4FE074639
:1041D00039462046FFF741FF054635B1D4F8D000F7
:1041E00018B12846D4F8D010884700BFEAE780F815
:1041F0002410704770B504460D4605B10CB90E2069
:1042000070BD012020700020E070202205F17801AF
:10421000201D07F06DFA00208C3404F8680CD5F8E6
:1042200098002064D5F89C0060644FF6FF70A0876A
:10423000673C00202060A080A071253C3C2104F157
:10424000300007F06EFA287884F83000A978322020
:104250000155E97833200155697831200155D5E9B8
:104260000412C4E91012D5E90212C4E90E12D5E90C
:104270000612C4E9121295F82D1084F85D10686AD0
:10428000D0B104F16C00606504F178016167686A7F
:104290000188606D0180686A8188606D818000207E
:1042A00006E0696A89680A5C04F178010A54401CD6
:1042B000616D89888142F4D8A86A10B304F1A40121
:1042C000C4F8A01004F19800A0650C30A16D8860BE
:1042D000A86A8188A06D8180A86A0188A06D01808C
:1042E000002006E0A96A89680A5C04F1A4010A5466
:1042F000401CA16D89888142F4D895F82C1084F86F
:104300005C10286A50B104F1C4002065286A418815
:10431000206D4180286A0188206D0180686808B19D
:104320006968616305F13C0104F13000FFF793FD1A
:104330000646304664E770B504460D462E46208892
:10434000102804D0112807D01B280FD109E02146DE
:104350003046FFF7E9FD0AE021463046FFF711FF3E
:1043600005E021463046FFF727FF00E000BF00BF11
:1043700070BD2DE9F04105460E463446022D02D0AF
:10438000032D14D100E000BF607878B10020607088
:10439000E1782046FFF761FE074637B1D4F8D00038
:1043A00018B13846D4F8D010884700BF00E000BFED
:1043B00000BFBDE8F081024692F82C0008B9082041
:1043C000704700202532D07108681060888890807E
:1043D00088799071253A0020F2E730B50446039DB4
:1043E00094F8D50008B9082030BD002084F8D50025
:1043F00002B90DB1012000E0002084F8D6000020B1
:10440000F2E770B5044674DF012084F8D400002080
:1044100084F8D600062133200155002104F1300034
:10442000FFF719FD05460DB1284670BDE17820461D
:10443000FFF713FE054635B1D4F8D00018B1284671
:10444000D4F8D01088470020EFE770B504460D4639
:1044500020222946201D07F04BF970BD024600219D
:104460000CE001EB8100F94B33F82000904204D1BD
:1044700001EB810003EB80007047491C0029F0D05C
:104480000020F9E72DE9F0410446A08800EB020C7A
:10449000B4F80480904501DD104600E0A088A8EB48
:1044A0000005E088C618B4F80680984501DD184676
:1044B00000E0E088A8EB00074888B4F80080404599
:1044C00004DB4888B4F80280404502DD0020BDE8E6
:1044D000F0818888A84202D38888604501D90020ED
:1044E000F5E7C888B84202D3C888B04201D9002095
:1044F000EDE70120EBE710B50446D548806918B117
:10450000D34881692046884710BD70B505460E46E0
:104510003146284675DF044624B1112C02D02046CE
:10452000FFF7E9FF0CB9012070BD0020FCE7F8B5EA
:1045300006463546A8B2FFF791FF04466CB3207AD1
:10454000C349097B88420ADAA8B204F10A01FFF7DD
:10455000DCFF074617B1207A401C20721DE00020C6
:104560002072BB48007C50B1A8B23B2176DF0746E1
:1045700027B1082F02D03846FFF7BDFF00BFB4486F
:10458000406950B100208DF80000A8B2ADF80200DB
:10459000AF4841696846884700BFF8BD2DE9F04142
:1045A000044600BF14B90E20BDE8F08100BF1C22F4
:1045B0002146A74807F09CF8A648A549086020684E
:1045C00060B120687ADF05460DB12846ECE7A148C6
:1045D00021680A6802604968416005E09D487BDF08
:1045E00005460DB12846DFE7002617E006EB8600FA
:1045F000964901EB800700BF4FF6FF70388000BF7F
:10460000954800EB46107860944A0021381D03F06D
:1046100043FC05460DB10320C6E7761C002EE5D00D
:104620000020C1E770B5002519E005EB8501874A38
:1046300002EB8101486803F072FC044634B1042C9B
:1046400006D0072C07D0082C04D100E005E004E0D8
:10465000112070BD00BF0320FBE700BF6D1C002DC3
:10466000E3D00020F5E7F8B505460C46607A88B936
:10467000207A10B97648476801E0754887682A466D
:104680003946606803F024FC064616B13046FFF751
:1046900032FF0EE0002020726D48406948B10120D1
:1046A0008DF80000ADF802506948416968468847B6
:1046B00000BFF8BD2DE9F0410546EF7BAE88012F24
:1046C00001D0BDE8F0814FF6FF70FFF7C7FE04464A
:1046D0001CB90420FFF70FFFF3E700BF268000207E
:1046E00020725C480168C4F80A104068C4F80E00E3
:1046F00000BF4FF6FF7340F2F31205F1100104F111
:104700000A00FFF7BFFE60725148C08918B9214600
:104710003046FFF7A8FF00BFD3E72DE9F04106467A
:10472000B7883846FFF79AFE05466DB1686803F012
:10473000F6FB044614B12046FFF7DDFE00BF4FF63E
:10474000FF70288000BF00BFBDE8F0812DE9F04177
:104750000446A51D28883E49C98988421DD168891B
:1047600002281AD1B4F804804046FFF777FE0646C7
:1047700096B105F10C0000F01BFA20B1314640461D
:10478000FFF771FF08E0706803F0C9FB074617B137
:104790003846FFF7B0FE00BF00BFBDE8F08170B53E
:1047A0000546AE883046FFF759FE044674B14FF611
:1047B000FF7340F2F31205F1080104F10A00FFF75C
:1047C00061FE607221463046FFF74DFF70BD70B547
:1047D00004460D462088102806D0112808D012283B
:1047E0000ED0502810D107E02046FFF763FF0CE001
:1047F0002046FFF792FF08E02046FFF7A7FF04E0FE
:104800002046FFF7CCFF00E000BF00BF70BD2DE9E0
:10481000F04107460D4643F202063846FFF71EFEFA
:10482000044605B90B4D74B12946384675DF064676
:104830004EB900206072012020722868C4F80A0076
:104840006868C4F80E003046BDE8F081202F0020D3
:10485000342F0020442A0020002F00202F45020082
:1048600010B5B821D14806F05CFF10BD70B5044604
:10487000CE49496CC84304F021FD05464FF6FF7050
:10488000854213D0C948001D20F815400123224657
:1048900000F1440104F062FD01232246C349443182
:1048A000A1F1400004F05AFD012070BD0020FCE79A
:1048B00038B50446002023461D22BC4944310090EF
:1048C000A1F1400004F00CFD38BD10B504460023F2
:1048D0002246B6494831A1F1440004F03FFD10BD25
:1048E00010B5A2B0B148406CB049896C20EA010211
:1048F000AE49091D684604F072FD4422694611A8BC
:1049000006F0F6FE002405E012A931F81400FFF7C6
:10491000CFFF641C1198A042F6D822B010BD01460A
:10492000A248006801228A40104008B10120704767
:104930000020FCE79D4909680122824011439B4AFF
:104940001160704710B5FFF78BFF10BD70B50446BE
:104950000E462088102804D011281ED01A2841D1D4
:104960001FE0FFF7BDFFA088FFF780FF20B900BF61
:10497000042002F0F9FD0FE0E07B022801D10120C4
:1049800000E000200546A2882B4688494C31A1F161
:10499000480004F0E3FC00BF24E0A088FFF795FF87
:1049A00020E0207A0121B1EB101F01DA012000E0A4
:1049B00000200346A2887D495031A1F14C0004F04B
:1049C000CDFC207A0221B1EB101F01DA012000E0BA
:1049D00000200346A28875495431A1F1500004F02B
:1049E000BDFC00BF00BF70BD10B504466F48224635
:1049F000416C001D04F0DCFC10BD70B504460025C0
:104A00006A482246416C001D04F0D2FC60B1674840
:104A10002246C16C001D04F0CBFC06460EB10220FC
:104A200000E00120054600BF284670BD2DE9F04199
:104A3000044600255D482246416C001D04F0B8FC88
:104A4000064666B159482246816C001D04F0B0FC50
:104A500007460FB1022000E00120054600BF2846AE
:104A6000BDE8F08110B5044650482246016D001D96
:104A700004F09EFC10BD10B504464C482246416D22
:104A8000001D04F095FC10BD10B54849886C04F079
:104A9000C7FC10BD10B54549C96C444A926C01EA87
:104AA000020004F0BDFC10BD10B54049896C3F4ABE
:104AB000D26C21EA020004F0B3FC10BD10B504462C
:104AC0003A48011D426C204604F089FC10BD10B527
:104AD00004463648C06C3549896C00EA0102334906
:104AE000091D204604F07BFC10BD10B504462F487C
:104AF000806C2E49C96C20EA01022C49091D204610
:104B000004F06DFC10BD38B5044628486B462246BB
:104B1000416C001D04F02FFC10B19DF8000038BD61
:104B20001420FCE710B500240AE02046FFF7F7FE4A
:104B300020B92046FFF7FEFE204610BD601CC4B21F
:104B4000182CF2DB1820F8E770B505460C46204615
:104B5000FFF7E5FE40B11548583050F824102A46BA
:104B6000543804F025FC70BD0020FCE770B5054604
:104B70000C4616462046FFF7D2FE40B10B4858308F
:104B800000EB840133462A46543804F0E7FB70BD3D
:104B900010B504462046FFF7C2FE20B10348583046
:104BA00050F8240010BD0020FCE70000502F00202A
:104BB00070B50446204600F0D6F9054605F0010020
:104BC00070BD70B50446204600F0CDF90546C5F32A
:104BD000400070BD2DE9F04105460E4600243278B4
:104BE0002146641C6A5472782146641C6A5400BFD2
:104BF000022C01D1012000E00020074627B900BFA8
:104C0000002002F0B1FC00BF00BF2046BDE8F081EB
:104C100070B504460D46284606F08EFD208065607E
:104C200070BD00BF0A7822F00F020A700A7822F0E5
:104C3000F0020A7000BF062850D2DFE800F0030E31
:104C40001B28354200BF0A7822F00F020A700A784A
:104C500022F0F0020A7000BF40E000BF0A7822F0A4
:104C60000F02521C0A700A7822F0F00210320A7009
:104C700000BF33E000BF0A7822F00F02521C0A7016
:104C80000A7822F0F00220320A7000BF26E000BF4E
:104C90000A7822F00F02521C0A700A7822F0F00201
:104CA00030320A7000BF19E000BF0A7822F00F020C
:104CB000921C0A700A7822F0F00210320A7000BFCB
:104CC0000CE000BF0A7822F00F02921C0A700A78EA
:104CD00022F0F00220320A7000BF00BF00BF704710
:104CE00070B590B006460C461546A07818B901205C
:104CF0008DF80E0002E0A0788DF80E002088ADF847
:104D00000C0000200290607C02A9FFF78AFFA07CC3
:104D10000DF10901FFF785FFE07B08B1012000E0FC
:104D200000209DF80A1060F3C3018DF80A10207C62
:104D300008B1012000E000209DF80A1060F3041182
:104D40008DF80A10207B08B1012000E000209DF8BA
:104D50000A1060F300018DF80A10207D08B10220CE
:104D600000E001209DF80A1060F342018DF80A105E
:104D70001C2109A806F0D5FC607BC0F3001018B90F
:104D8000607BC0F34010F8B100200090E07C0DF192
:104D90000101FFF746FF00BF9DF8000020F00F0063
:104DA000401C8DF800009DF8000020F0F00010304D
:104DB0008DF8000000BF9DF8020020F00600801C66
:104DC0008DF80200CDF838D0607B8DF82400A07BF0
:104DD0008DF82500142104A806F0A3FC03A8049074
:104DE00002A80590A088ADF81C00A06820B1E0885A
:104DF000ADF81800A0680890A069002849D00020EC
:104E00000190A0690088ADF82C00A0694088ADF839
:104E10002E00A06940680A9001A80D90A169087B46
:104E200001A9FFF7FEFEA169487B0DF10501FFF71F
:104E3000F8FEA069807A08B1012000E000209DF80A
:104E4000061060F3C3018DF80610A069C07A08B19E
:104E5000012000E000209DF8061060F304118DF899
:104E60000610A069007A08B1012000E000209DF83A
:104E7000061060F300018DF80610A069807B08B170
:104E8000022000E001209DF8061060F342018DF839
:104E90000610E06908B1E0690C902B4604AA09A944
:104EA0003046A2DF10B070BD70B588B005460C4624
:104EB0001646142103A806F034FCA07818B9012086
:104EC0008DF80A0002E0A0788DF80A002088ADF87D
:104ED000080002A80390A07901A9FFF7A2FEE079DB
:104EE0000DF10501FFF79DFEE07808B1012000E01B
:104EF00000209DF8061060F3C3018DF8061020799C
:104F000008B1012000E000209DF8061060F30411B4
:104F10008DF80610607908B1012000E000209DF8AE
:104F2000061060F300018DF80610207A08B1022007
:104F300000E001209DF8061060F342018DF8061094
:104F400001A804906089ADF81400A089ADF816009E
:104F5000E089ADF8180020690790324603A9284679
:104F6000A3DF08B070BD014608784A7840EA022005
:104F700070470000172101804180002101714171BB
:104F80001B218171C17170477CB504460D4600201C
:104F900000900190A81D00EBC4008079ADF80000DE
:104FA000A81D00EBC4008079ADF80200002269461C
:104FB000204690DF06464EB1FB490988012242EAAD
:104FC000014033462246F94904F097FE7CBD2DE9A5
:104FD000F04105460F46B7F80480A81D00EBC80451
:104FE0002879A071F87B012802D0022806D102E0BE
:104FF0002888208003E06888208000E000BF00BF90
:1050000020886188884215DD218840469EDF06465B
:1050100016B9012060710DE0112E02D1012020711E
:1050200008E0E1490988012242EA01403246E049AC
:1050300004F057FEA079E179884203DD2946404615
:10504000FFF7A2FFBDE8F08170B504460D46AA88BF
:10505000A11D01EBC200FFF78DFF70BD2DE9FC41E2
:1050600005460E46B788B6F80A80A81D00EBC704AF
:105070002088404501DD404600E02088608060884F
:10508000172801DA172000E060886080286978B16D
:10509000607968B1C74903C9CDE90001ADF8027074
:1050A0006088ADF80400694628462A69904700BF29
:1050B000002060712071BDE8FC812DE9FC470546A8
:1050C0000F46B7F80480B7F80690A81D00EBC80497
:1050D000B9F1170F01DA172000E048468146208811
:1050E000484501DD484600E02088608000202071AE
:1050F00021884046ADDF064646B1AB49098801220A
:1051000042EA01403246AC4904F0EBFD607908B157
:10511000BDE8FC87286970B1A649083103C9CDE90B
:105120000001ADF802806088ADF8040069462846A9
:105130002A69904700BF00BFEAE770B590B0044607
:105140000E463422311D03A806F0D2FABDF80C50E9
:10515000BDF81000C1B2A01D00EBC500C1712069EF
:1051600088B19449103103C9CDE90101ADF8065069
:10517000A01D00EBC500C0798DF8080001A92046EC
:105180002269904700BF10B070BD2DE9FC4706466C
:105190000F460020009001903D1D2988B01D00EBB6
:1051A000C10895F804A098F80600504502DA98F86E
:1051B000060000E050468146ADF80090ADF8029040
:1051C00028880022694690DF044644B17649098860
:1051D000012242EA01402246784904F082FDBDE8FE
:1051E000FC8770B504460E4600BF0CB90E2070BD9A
:1051F00000BF26611720208060801B2020710025C1
:1052000005E0A11D01EBC500FFF7B4FE6D1C002DEC
:10521000F7D00020EBE7024600BF0AB90E20704726
:1052200000BF172900DB01DD0720F8E7118000200F
:10523000F5E7024600BF0AB90E20704700BF1729E4
:1052400000DB01DD0720F8E751800020F5E702468A
:105250000AB1012901DB00207047901D00EBC1005D
:105260004088F9E72DE9FC4106460C46154600202A
:105270000090019016B90E20BDE8FC814FF6FF703A
:10528000844207D11B2D01DA284600E01B20307133
:105290000020F1E7012C01DB0720EDE7B01D00EB5A
:1052A000C4008571ADF80050ADF802500022694687
:1052B000204690DF07463846DEE7034603B10AB9C9
:1052C0000E2070474FF6FF70814203D1187910709D
:1052D0000020F6E7012901DB0720F2E7981D00EB2B
:1052E000C100C07910700020EBE72DE9F0410646BF
:1052F00088464546B488012C01DBBDE8F081308842
:10530000232820D006DC102809D011280CD0222810
:1053100023D11DE03A280CD055281ED10EE031468D
:105320002846FFF754FE19E031462846FFF78CFE69
:1053300014E031462846FFF791FE0FE0314628463B
:10534000FFF7BBFE0AE031462846FFF7F6FE05E010
:1053500031462846FFF719FF00E000BF00BFA81D37
:1053600000EBC4000079E8B1A81D30F834102046E5
:105370009EDF074657B90021A81D00EBC40001714C
:105380000121A81D00EBC40041710AE0112F08D0D3
:1053900005490988012242EA01403A46044904F0DD
:1053A000A0FC00BF00BFA8E7002B002000BD02004A
:1053B00030BC0200F4B8020074BC0200B8BC0200A9
:1053C0008A88828270474FF6FF72828270477FB56B
:1053D00004460E46B51D019429882089814216D1C4
:1053E0006889022813D105F10C00FFF7E1FB28B111
:1053F0000120A07502208DF8000004E00020A075B7
:1054000003208DF800006846A169884711E02888CC
:10541000A18988420DD1A06958B105F10C00029014
:105420006989ADF80C1000208DF800006846A1696C
:1054300088477FBD30B58FB004460D4600200790E9
:1054400000BF9DF81C0020F00F00401C8DF81C00D0
:105450009DF81C0020F0F00010308DF81C0000BFFB
:1054600000BF9DF81D0020F00F00401C8DF81D00AE
:105470009DF81D0020F0F00010308DF81D0000BFD9
:105480009DF81E0020F00600801C8DF81E001C21D7
:1054900008A806F046F99DF8200020F01000103012
:1054A0008DF82000002009900B900C9007A80D901B
:1054B00000200E9020788DF806000320ADF804003F
:1054C0000020009000BF9DF8000020F00F00401C5D
:1054D0008DF800009DF8000020F0F00010308DF8ED
:1054E000000000BF00BF9DF8010020F00F00401C2D
:1054F0008DF801009DF8010020F0F00010308DF8CB
:10550000010000BF9DF8020020F00600801C8DF80D
:1055100002009DF8020020F008008DF802009DF8BE
:10552000020020F010008DF802009DF8020020F02B
:105530000100401C8DF80200142102A806F0F1F8C9
:1055400001A80290CDF80CD00120ADF81000002089
:10555000ADF812001420ADF814006088231D02AAD3
:1055600008A9A2DF0FB030BD30B58FB004460D469C
:105570001C2108A806F0D5F89DF8200020F00800AE
:1055800008308DF820009DF8200020F00400001D58
:105590008DF82000002009900B900C900D900E903B
:1055A00020788DF80A000220ADF808000020019054
:1055B00000BF9DF8040020F00F00401C8DF804008F
:1055C0009DF8040020F0F00010308DF8040000BFBA
:1055D00000BF9DF8050020F00F00401C8DF805006D
:1055E0009DF8050020F0F00010308DF8050000BF98
:1055F0009DF8060020F00600801C8DF806009DF83E
:10560000060020F008008DF806009DF8060020F046
:1056100010008DF806009DF8060020F00100401CE7
:105620008DF80600142103A806F07BF802A8039069
:1056300001A804900120ADF814000020ADF8160078
:105640001420ADF81800608804F10C0303AA08A91F
:10565000A2DF0FB030BD7FB504460E4606B104B9D7
:105660007FBD35462088102806D0112809D0502843
:105670000CD0572818D10EE021462846FFF7A0FE8F
:1056800013E021462846FFF79EFE0EE021462846FD
:10569000FFF79DFE09E03F4B0FCB8DE80F00019512
:1056A0006846A969884700E000BF00BF00BFD7E790
:1056B00070B586B004460E46364B10330FCB01ADA5
:1056C0000FC500BF14B90E2006B070BD00BF00BFEB
:1056D0000EB90E20F8E700BF4FF6FF70A0823068C9
:1056E000A0610020A075214601A862DF054600BF29
:1056F0000DB12846E8E700BF20788DF8160001209C
:10570000ADF81400A21C05A9A0DF054600BF0DB12D
:105710002846D9E700BF31462046FFF725FF05465A
:1057200000BF0DB12846CFE700BF31462046FFF746
:1057300081FE054600BF0DB12846C5E700BF002029
:10574000C2E77FB504460E46154600BF14B90E20C9
:1057500004B070BD00BFA08A4FF6FF71884201D02F
:10576000A07D08B90820F3E72888142801DD072068
:10577000EEE700200090019002900390A088ADF821
:1057800000000396029501208DF80200A08A694668
:10579000A6DFDDE70CB9020010B54FF4827000F00F
:1057A000C4F9022000F0B6F9082000F0BAF910BDE3
:1057B00010B50C2000F0B5F900BF00F0C8F90028C2
:1057C000FBD1EC49887010BD10B505F091FB08B114
:1057D0003FDF10BD4FF4807000F0A7F9012000F00A
:1057E00099F9002000F09DF900BFF2E710B505F02F
:1057F0007FFB08B140DF10BD042000F092F900BF2C
:10580000012000F0A9F90028FAD1DA49487000BF58
:10581000F1E7D8480078704710B50024D5480078E3
:1058200008B1852425E00020D249886048600861DD
:10583000C86000BF00BF4109890001F1E021D1F833
:10584000001101228240114009B1012100E0002134
:1058500019B90721002000F0A2F900BF05F048FBAC
:1058600020B90120C449086000BF00BF0120C14920
:105870000870204610BD10B500F086F94FF0FF30DB
:1058800000F04BF9FFF794FFFFF7B0FF0020B94994
:10589000087010BD026803E08A4200D170471268A8
:1058A000002AF9D103680BB1036800E000230B6004
:1058B000016000BFF2E70146086808B102680A60AB
:1058C000704738B50446AB48807890B114B10120D8
:1058D0006168884700200090684602F0D6FCA54821
:1058E000C068401CA349C8609DF8000002F0D3FCCA
:1058F00019E000200090684602F0C7FC24B1214660
:105900009C481030FFF7C6FF9A48C06808B9FFF7F7
:1059100043FF9848C068401C9649C8609DF8000045
:1059200002F0B9FC00BF38BD08B500200090684601
:1059300002F0ABFC8F48C068401E8E49C860084624
:10594000C06808B9FFF734FF9DF8000002F0A3FC1F
:1059500008BD10B505F0CCFA08B1012010BD00F06B
:10596000F6F8FBE738B504468248407890B114B1A8
:1059700000206168884700200090684602F085FC9E
:105980007C484068401C7B4948609DF8000002F05C
:1059900082FC19E000200090684602F076FC24B1F9
:1059A000214674480830FFF775FF7248406808B90F
:1059B000FFF70AFF6F484068401C6E4948609DF839
:1059C000000002F068FC00BF38BD08B50020009060
:1059D000684602F05AFC67484068401E65494860C6
:1059E0000846406808B9FFF701FF9DF8000002F083
:1059F00052FC08BD08B505F07BFA38B1684641DFB6
:105A0000009808B1012008BD0020FCE7012000F04B
:105A1000A3F8F8E7024600200F20704700200F206F
:105A20007047014600200F20704770B5054615B934
:105A3000504C083401E04F4C103409E02046FFF789
:105A40003AFF064606B904E028467168884700BF59
:105A5000F4E700BF70BD10B54FF4807000F06EF831
:105A600060B14FF4807000F060F8012000F055F84C
:105A70000120404948700020FFF7D7FF4FF48270A3
:105A800000F05CF858B14FF4827000F04EF802203C
:105A900000F043F8012037498870FFF7C6FF10BDBA
:105AA00070B504460D4614B90020FFF7BEFF70BD67
:105AB00038B504460D4624B1012C0BD0032C26D159
:105AC0001EE00020012181402C4A430942F82310A6
:105AD00000BF1DE000200090684602F0D6FB25487C
:105AE000007808B9FFF798FE2248C068401C214999
:105AF000C860012088709DF8000002F0CCFB07E030
:105B00000721002000F04BF8FFF70EFF00E000BF78
:105B100000BF38BD1A49086070471949091D08605F
:105B20007047012291070A50704708B500224FF0D4
:105B300080410A500958009100BF08BD01464FF04E
:105B40008040405808B1012070470020FCE70D4814
:105B50000068C0F30040704701460A480C380068EE
:105B600000F0011041F48032904201D101207047D1
:105B70000020FCE7083000201805004080E100E02C
:105B80000403004018040040002000BF01218140B0
:105B9000184A430942F8231000BF00BF704770B590
:105BA0000B4601461A46002907DA5407260E124C06
:105BB00001F00F052D1F665503E05407250E0F4C0D
:105BC000655400BF00BF00F01F02012191400C4A44
:105BD000440942F8241000BF00BF00F01F02012159
:105BE00091404209920002F1E022C2F8001100BF88
:105BF00070BD000080E100E018ED00E000E400E08E
:105C000080E200E02DE9FF470C4615461E46DDE91F
:105C10000C78684600F08CFC814644EA450040EA76
:105C2000860040EA072040EA084109F5E060009A52
:105C300040F82210BDE8FF8773B50D46684600F0B6
:105C400077FC044604F5E060009950F8210020F448
:105C5000403104F5E060009A40F82210009950F8B5
:105C6000210040EA054104F5E060009A40F8221066
:105C70007CBD3CB50B46F74D30CDCDE90045014626
:105C800006E05DF82140D4F810551560121D491C3E
:105C9000C4188C42F5D83CBD30B502460B46D4083A
:105CA00002F00702012090401D5D284030BD0146F2
:105CB000E9484056002805DBE7484056082801DA45
:105CC000012070470020FCE72DE9F04F03460C4609
:105CD0004FF0FF390AB1002000E0082084460AB1E5
:105CE000082000E00C208046614623E0DA48303886
:105CF00050F82100401CE0B91D46084627461646CC
:105D00004FFA80FBDFF850A30AF805B0AAF1300A79
:105D10004AF820704EB94FFA85FBA0F1080ADFF867
:105D200038E30EF1300E0EF80AB000BF4FFA81F9D9
:105D300002E0491C4145D9D300BF4846BDE8F08F79
:105D40004FF0FF31C44A303A42F82010082804DBF3
:105D5000FF23A0F1080160325354704770B5BE486C
:105D6000303890F8640010B10825284670BD002432
:105D700004E0204600F030FC601CC4B2302CF8DB9C
:105D8000002404E02046FFF7DBFF601CC4B20C2CAB
:105D9000F8DB07210620FFF702FF4FF4BE7000F08A
:105DA000B1FB4FF0004000F0BBFB0120AA493039A5
:105DB00081F8640000252846D8E7A748303890F8D5
:105DC000640008B1012070470020FCE770B505466B
:105DD000284600F0EDFB20B100212846FFF72CFFFC
:105DE00018E02846FFF763FFA0B1284600F0F8FB53
:105DF00004462046994951F8201021F001029749A4
:105E000041F8202000BF012101FA04F09449086004
:105E100000BF00BF70BD70B504462046FFF7D6FF37
:105E20002046FFF744FF28B1204600F0D9FB054685
:105E300000F079FB204600F088FB204600F0D0FB04
:105E4000C5B22846FFF77CFF204600F0C5FB70BDB9
:105E500070B504462046FFF72AFF60B1204600F0E7
:105E6000BFFBC5B22846FFF76BFF204600F0B8FB2A
:105E7000054600F058FB204600F0AEFB204600F03F
:105E800064FB70BD10B5002414E020467249095629
:105E9000891C09B9012100E0002119B12046FFF752
:105EA000D7FF06E0204600F08CFB10B12046FFF73C
:105EB000B2FF641C302CE8D300206749303981F8E8
:105EC000640010BD2DE9FC4104460E460027204623
:105ED00061490956491C09B1012100E0002109B1BD
:105EE00008274BE0B07860B3012200212046FFF77D
:105EF000EBFE0546681C10B330787178574A52F8AB
:105F00002520584B1A40554B43F825201A4652F885
:105F100025304FF47C5202EA04224FF4403C0CEA54
:105F2000004C42EA0C024FF4801C0CEA015C42EA8D
:105F30000C021343494A42F8253000BF00E0042711
:105F400005E000BFFE214448015500BF00BFAFB9C6
:105F50007078012803D1204600F003FB02E02046C0
:105F600000F00CFB00BF0020009003460122114608
:105F700001902046FFF746FE00BF00BF3846BDE84F
:105F8000FC8110B50446204600F0EBFA10BD10B5B8
:105F90000446204600F0F2FA10BDF8B5054600951B
:105FA000684600F0C5FA0446D4F80465012000995B
:105FB0008840B043C4F8080501200099884030406B
:105FC000C4F80C0500BFF8BD10B50146224A505672
:105FD000254C04EB8003D3F8103543F003021F4B2C
:105FE00043F8202000BF10BD01461B4A50561B4AF3
:105FF00052F8202022F00303184A42F8203000BF54
:10600000704770B50446204600F0EAFA8006050E97
:10601000284600F064FA70BD70B50446204600F0D2
:10602000DFFA80003030C5B2284600F058FA70BD63
:1060300070B50446204600F0D3FA80006030C5B247
:10604000284600F04CFA70BD30B502460B466BB1E5
:1060500001210CE02CB902004C30002010650040FA
:1060600008630040FFC0ECFF0060004000210846CC
:10607000FE4CA156FE4C54F8214060F31454FC4DE4
:1060800045F8214000BF30BD70B50446204600F001
:10609000A7FA8006050E00BF0120F649685000BF30
:1060A00070BD70B50446204600F09AFA800030308A
:1060B000C5B200BF0120EF49685000BF70BD70B588
:1060C0000446204600F08CFA80006030C5B200BF64
:1060D0000120E849685000BF70BD2DE9FC47054626
:1060E0000E4617464FF00008284600F06AFA10B135
:1060F0004FF0080859E0F27839462846FFF7E4FDEA
:106100000446601C00284DD0B07890B1019501A8DC
:1061100000F00EFA814609F5E060019950F821007F
:1061200020F0020A09F5E060019940F821A000BFC3
:106130000CE096F80190002000904B460246014684
:1061400001902846FFF75EFD00BF00BFF078D0B198
:106150003078C74951F82410C74A1140C44A42F860
:106160002410114651F824104FF47C5202EA052203
:106170004FF4403303EA00431A431143BC4A42F848
:10618000241000BF10E0A4F10800B8493031085CC9
:10619000317840EA811042B2A4F10800B3493031AD
:1061A0000A5401E04FF0040800BF4046BDE8FC87F8
:1061B0002DE9F04706460D46304600F0F9F9E8B102
:1061C000304600F00DFA0838A84930310F5CBC1198
:1061D000032C08D1304600F0DEF908B1032000E0BE
:1061E0000220804605E0012C01D1022000E00320BE
:1061F000804641463046FFF71FFD2AE03046FFF754
:1062000056FD30B3304600F0EBF90446A00000F52F
:10621000807087B22046964951F8201041F0010263
:10622000934941F8202000BF384600F06BF97DB15A
:10623000304600F0D5F9814600F0D6F98046B8F135
:10624000000F04D0012101FA04F000F069F900BF49
:1062500000BFBDE8F08710B50446204600F09BF96A
:1062600008B1012010BD0020FCE770B504464FF4D2
:10627000BE752046FFF71BFD30B1204600F0B0F997
:10628000800000F5807085B2284600F02CF970BDC2
:106290002DE9F04F8DB0002700200B900C904FF4AB
:1062A00080700A900126002412E00A9800F01FF97D
:1062B00040B100BF71480068304018B10A9800F042
:1062C00021F9374376000A98001D80B20A90641CB9
:1062D000082CEAD34FF4BE7000F009F950B14FF426
:1062E000BE7000F00FF947F000470BAA0221002012
:1062F000FFF7BFFCF8B200B3012600241BE006EA5A
:106300000700B0B100BF5A4850F82400C0F3052080
:10631000804600BF564850F82400C0F30140814633
:10632000204600F061F9054615B149464046A847A8
:1063300000BF7600641C082CE1D307F00040002861
:1063400071D00020099007900890002505E04FF0DB
:10635000FF3005A941F825006D1C022DF7D300BFC1
:1063600000200990002473E040483030005D049024
:10637000049820F0C0083D4830300057401C0028E9
:1063800065D005A94046FFF787FC00285FD0049838
:106390004FEA901A404600F023F9814600F024F9B4
:1063A0000390039810B9BAF1030F4FD1BAF1030F5C
:1063B00011D1414607A80246CB0801F0070112F8A7
:1063C00003C04FF0010E0EFA01FE4CEA0E0C02F86B
:1063D00003C000BF00BFCDF8088002A800F0A8F8F5
:1063E0000190019800F5E060029950F82100C0F397
:1063F000014900BF0BA94046FFF74EFC8346BBF1A5
:10640000000F02D0B9F1020F05D0BBF1000F1CD173
:10641000B9F1030F19D1BAF1030F10D1B9F1020F7D
:1064200002D1032001E057E0022002904046029989
:10643000FFF702FC0998401CC0B2099000BF039806
:1064400018B151464046039A904700BF00BF641CF4
:10645000042C89D30998D0B34FF0010803AA022174
:106460000020FFF706FC002516E000004C3000205D
:106470001065004000600040FFC0FCFF0463004066
:1064800003A850F825000BA951F82510884202D026
:106490004FF0000802E06D1C022DF1D300BFB8F1EF
:1064A000000F02D00020099010E000250CE003A8A6
:1064B00050F825000BA941F8250007A850F8250041
:1064C00005A941F825006D1C022DF0D300BF0998E5
:1064D00000287FF445AF00BF0DB0BDE8F08F014646
:1064E000444808447047014642480844704710B584
:1064F00004462046FFF7F7FF0068012800D110BDD1
:106500000020FCE738B504462046FFF7ECFF0021E9
:1065100001602046FFF7E7FF0068009000BF38BD2C
:106520003549086070470022344941F820207047FF
:1065300001460868202802D24FF0A0407047087832
:1065400000F01F0008602E48F8E71CB50446002044
:10655000009003460122014601902046FFF752FBBE
:106560001CBD31B56846FFF7E3FF04460121009AE0
:1065700001FA02F0C4F8080500BF38BD31B568461D
:10658000FFF7D6FF04460121009A01FA02F0C4F891
:106590000C0500BF38BD31B56846FFF7C9FF04469A
:1065A00000BFD4F810050099C84000F0010038BDC4
:1065B000014614484056082801DB0120704700209E
:1065C000FCE701460F484056012202EBE07008B19B
:1065D000012070470020FCE7FF220A490A54704757
:1065E000014608484056704701460648303850F882
:1065F00021007047006000400463004010650040C7
:10660000000300504C3000202DE9FF470C46154692
:106610001E46DDE90C78684600F08DFD814644EAAF
:10662000450040EA860040EA072040EA084109F5B3
:10663000E060009A40F82210BDE8FF8770B505467B
:106640000C462068401C28B1206800F0A6FD206898
:1066500000F07EFD6068401C18B10021606800F009
:1066600083FD2879FD4901EB4010007F50B3286875
:10667000A169C0F8241500BF617D227D286841EA28
:106680000203C0F86C3500BFD4E90012286800F09E
:1066900023FD207D01283FD1A068401C18B10021B6
:1066A000A06800F061FDE068401C28B1E06800F0DF
:1066B00074FDE06800F04CFDD4E90221286800F088
:1066C00012FD29E02868A169C0F8241500BF617D8A
:1066D000227D286841EA0203C0F86C3500BFD4E986
:1066E0000012286800F0CEFC207D012814D1A0689B
:1066F000401C18B10021A06800F036FDE068401C85
:1067000028B1E06800F049FDE06800F021FDD4E91F
:106710000221286800F0BDFC70BD2DE9F047044659
:106720002079CE4901EB4010007F20B3206840F271
:106730000C510D5800BF206840F214510E5800BF94
:106740002068D0F8087500BF2068D0F8108500BF19
:10675000D4F800904FF0FF321146484600F0BCFCE0
:1067600000BFD4F800904FF0FF321146484600F0C9
:10677000BAFC00BF24E0206840F20C510D5800BF65
:10678000206840F214510E5800BF2068D0F80875F8
:1067900000BF2068D0F8108500BFD4F800904FF0FB
:1067A000FF321146484600F06DFC00BFD4F800905F
:1067B0004FF0FF321146484600F06BFC00BF00BFAF
:1067C000681C10B1284600F0DCFC701C10B130468B
:1067D00000F0D7FC08F1010010B1404600F0D1FCF8
:1067E000781C10B1384600F0CCFCBDE8F0872DE9EC
:1067F000F04105460E4617462879984901EB4014AA
:106800004FF00008E07E20B14FF008084046BDE898
:10681000F081707F207731462846FFF70FFF6760D1
:1068200030692060606818B1317F284600F0C2FCF2
:1068300000BF2879894901EB4010007F28B1286802
:106840000821C0F8001500BF05E028680421C0F841
:10685000001500BF00BF00BF0020E0752076A075C6
:106860000120E0760020A0764046D0E770B50446CF
:1068700020797A4901EB401500BF207901EB4010E7
:10688000007F28B120680021C0F8001500BF05E096
:1068900020680021C0F8001500BF00BF00BF686875
:1068A000F0B100BF20796D4901EB4010007F50B17D
:1068B0006B49206800F007FC206800F02DFC0646BC
:1068C00000F01FFC0AE066498C39206800F0D1FB1B
:1068D000206800F021FC064600F013FC00BF00BF5A
:1068E0002046FFF71AFF0020E876686070BD70B59B
:1068F00005460C464FF48E71284600F0A0FBA18A95
:10690000A068465CA08A401CA0823046C5F81C05E1
:1069100000BF70BD01460879504A02EB4010807DEF
:1069200008B1012070470020FCE72DE9F041044642
:106930000D4690462079494901EB4016207901EB3C
:106940004010007F38B1284600F0EBFB18B9102743
:106950003846BDE8F0812046FFF7DCFF10B1112773
:106960003846F6E786F81680B5600020B0822079B8
:106970003A4901EB4010007F18B1204600F09DFC21
:10698000E7E7204600F055FCE3E710B504464FF476
:106990009271206800F053FB4FF48471206800F07E
:1069A0004EFB0021206800F07AFB10BD70B5054653
:1069B0000C46E07D40B94FF48471284600F03FFB5F
:1069C00000BFD5F8180570BD4FF48471284600F05B
:1069D00036FB00BFD5F81805C0B2627EE168885466
:1069E000607E401C607600BFEDE72DE9F05F044655
:1069F0008B4699462079194901EB4015A87E28B9A4
:106A0000B9F1000F02D12046FFF7BFFF68680028E8
:106A10004AD14FF4A271206800F011FB00BF00BF03
:106A20004FF49271206800F011FB80464FF484719E
:106A3000206800F00BFB82464FF4A271206800F042
:106A400005FB0646BAF1000F03D116B9B8F1000FE5
:106A5000E6D0B8F1000F00D126B10BE08430002061
:106A60001003020029462068FFF7A0FFE87D697E39
:106A70008842D4DC00BF0020E875B8F1000F03D0D5
:106A800003273846BDE8F09F16B10F273846F9E7CF
:106A9000A87E20B10021206800F001FB03E0042162
:106AA000206800F0FCFA04E04FF40171206800F067
:106AB000D4FA00273846E5E72DE9F05F04460D4695
:106AC000164699464FF0000A4FF48871206800F08E
:106AD000E9FA4FF4A271206800F0E4FA2068C0F8E7
:106AE00034554FF4A7610E5000BFB9F1000F04D127
:106AF0000021206800F0FDFA08E020212068D0F88D
:106B000000220A43C0F8002200BF00BF2079FE49DE
:106B100001EB4010406848BB00BF4FF4887120680B
:106B200000F0C7FA83464FF4A271206800F0C1FA62
:106B300080464FF49271206800F0BBFA0746BBF123
:106B4000000F04D1B8F1000F01D1002FE5D00020D3
:106B50002179ED4A02EB4111C8750FB14FF0030ADC
:106B6000B8F1000F01D04FF00F0A04E04FF40471A8
:106B7000206800F0A5FA5046BDE8F09F2DE9F047E7
:106B800004460E4617462079DF4901EB401520796F
:106B900001EB4010007F40B1304600F0C2FA20B94E
:106BA0004FF010084046BDE8F0874FF000096868D4
:106BB00080B12079D44901EB4010007F28B14FF417
:106BC0000471206800F07FFA04E04FF4017120683E
:106BD00000F04FFAE87DD0B1287EB0B1686880B18E
:106BE0002079C94901EB4010007F28B14FF40471AE
:106BF000206800F065FA04E04FF40171206800F0AD
:106C00002CFA4FF011084046CDE74FF00109B9F1D9
:106C1000000F05D1EF75EE6000206876287601E060
:106C20002E612F762079B84901EB4010007F30B1FA
:106C30004B463A4631462046FFF73EFFB3E74B4608
:106C40003A4631462046FFF7D0FEACE710B5044681
:106C50002079AD4901EB4010007F28B14FF48871D5
:106C6000206800F026FA10BD4FF48471206800F00F
:106C7000EDF9F8E710B504462079A34901EB40107F
:106C8000007F68B9207901EB4010807E40B9204632
:106C9000FFF77BFE012021799B4A02EB41118876A8
:106CA00010BD10B504462079974901EB4010007FD4
:106CB00048B90421206800F0F2F900202179924AB5
:106CC00002EB4111887610BD70B5044620798E49DB
:106CD00001EB4010007F48B14FF49271206800F042
:106CE000E1F9206800F0F2F9054608E04FF49271EE
:106CF000206800F0A4F9206800F0BEF90546284697
:106D000070BD7FB504460D46164601208DF8000083
:106D10008DF8085001966846D4E9001290477FBD6F
:106D20007FB504460D4600208DF800008DF8085010
:106D3000A06801900020A0756846D4E90012904731
:106D40007FBD70B5044620796F4901EB401520796D
:106D500001EB4010007F98B14FF4AC71206800F057
:106D6000A1F90C21206800F0C4F96868B8B900BF27
:106D70004FF4AC71206800F09CF90028F8D00EE0C8
:106D80000C21206800F08BF9686828B1A88AC1B28C
:106D90002846FFF7C5FF02E04FF48070A88270BD5F
:106DA00010B504462079584901EB4010007F20B10E
:106DB0000421206800F09DF908E04FF4017120687B
:106DC00000F057F90421206800F069F910BD2DE9A1
:106DD000FF4105460C464FF40071284600F040F98B
:106DE00048B34FF49271284600F030F918B34FF4CD
:106DF0009271284600F023F94FF40171284600F003
:106E000038F9A07E18B90421284600F048F902207C
:106E10008DF80000284600F02FF90390E17D8DF8F1
:106E20000810E06801900020E07520766846D4E9FB
:106E30000012904736E00421284600F011F900289E
:106E400030D04FF48471284600F000F950B3214649
:106E50002846FFF7ABFDE07D617E884222D1207E8F
:106E600070B1E668677E207EE0752069E0600020F2
:106E700020766076324639462046FFF742FF11E021
:106E8000A07E18B90421284600F009F94FF40171D9
:106E9000284600F0EEF80020E075617EE2682046AA
:106EA000FFF72FFF4FF48E71284600F0CFF898B10E
:106EB000A08AA17D884204DA21462846FFF717FD03
:106EC0000AE04FF48E71284600F0B9F8A07D18B1A1
:106ED000A17D2046FFF724FF4FF4A271284600F061
:106EE000B5F8B0B14FF4A271284600F0A8F8A07E22
:106EF00018B10021284600F0D2F8E07D48B100200A
:106F0000E075617EE26801E0843000202046FFF7F2
:106F1000F8FEBDE8FF812DE9FF4105460C464FF420
:106F20009271284600F0C5F8D8B14FF49271284606
:106F300000F0B8F802208DF80000284600F0C6F8EE
:106F40000390284600F0D8F8C1B28DF80810E06828
:106F500001900020E07520766846D4E90012904741
:106F60002FE04FF48871284600F0A3F848B34FF49F
:106F70008871284600F096F8284600F0BDF8C6B2A1
:106F8000E07DB0421CD1207E98B1E7682020D5F882
:106F900000128143C5F8001200BF207EE075206911
:106FA000E060002020763A4631462046FFF7A9FEF1
:106FB00006E00020E07531462046E268FFF7A1FEBA
:106FC00000BF4FF4A271284600F073F888B14FF467
:106FD000A271284600F066F8E07D50B10020E0750F
:106FE000284600F089F8C6B231462046E268FFF72D
:106FF00088FE4FF49071284600F05BF878B14FF4AA
:107000009071284600F04EF8A07D40B100BF40F2DC
:107010004C504059C6B231462046FFF781FEBDE8CC
:10702000FF8110B5C248007F20B1C149C148FFF7B8
:1070300072FF03E0BE49BF48FFF7C9FE10BD08B5A7
:10704000002242504258009200BF08BD02465058EC
:1070500008B1012070470020FCE7C0F80413704716
:107060000246D2F80403084008B10120704700200E
:10707000FCE7C0F8081370470146D1F88004C1F856
:107080008004704740F214531A5040F20C531950C8
:107090007047C0F808154FF4A2631A5070470122D8
:1070A0004250704708B5002242504258009200BF3B
:1070B00008BD0246505808B1012070470020FCE787
:1070C000C0F804137047C0F8081370470146D1F8A0
:1070D0008004C1F88004704740F20C53195040F20C
:1070E00014531A507047C0F808154FF4A2631A5091
:1070F0007047012242507047014640F23C504058D0
:10710000704700BF00F01F02012191408A4A4309E5
:1071100042F8231000BF70470146C1F3073250B256
:107120007047014601F06040B0F1005F01D10120DD
:1071300070470020FCE701460868202802D24FF083
:10714000A0407047087800F01F0008607B48F8E70F
:107150001CB5044600200090034601221146019010
:107160002046FFF751FA1CBD7CB505460C460020B1
:10717000009023460246014601902846FFF744FA54
:107180007CBD1CB504460020009003460122014648
:1071900001902046FFF738FA1CBD31B56846FFF76D
:1071A000CAFF04460121009A01FA02F0C4F808055A
:1071B00000BF38BD70B504460D4620795C4901EB2F
:1071C0004010007FF8B14FF488712068FFF76AFF24
:1071D0004FF490712068FFF765FF4FF492712068BB
:1071E000FFF760FF4FF4A2712068FFF75BFF54497F
:1071F0002068FFF765FF2068FFF78EFF06462946E7
:10720000FEF7CDFC14E04FF48E712068FFF717FFF6
:107210004FF4A2712068FFF712FF4A492068FFF778
:107220001CFF2068FFF778FF06462946FEF7B7FCEB
:1072300070BD70B5044620793D4901EB401500262C
:107240004FF48E712068FFF7FAFE08212068FFF7DF
:1072500026FF29462068FFF74AFB686858BB12E002
:1072600000BF4FF48E712068FFF7F0FE18B9A88AAE
:10727000B0F5807FF5D1A88AB0F5807F03D029468C
:107280002068FFF734FBA88AA97D8842E8DBA88A3A
:10729000B0F5807F01D10F260BE000BF4FF48E7157
:1072A0002068FFF7D3FE0028F8D00C212068FFF7F4
:1072B000F6FE0020A875304670BD2DE9F041044669
:1072C00020791B4901EB40154FF000084FF49071F5
:1072D0002068FFF7E7FE4FF4AC712068FFF7E2FE8D
:1072E0002068AA7DA968C0F844154FF4A9631A5014
:1072F00000BF08212068FFF7FCFE6868A8B900BF3E
:107300004FF490712068FFF7D4FE07464FF4AC713C
:107310002068FFF7CEFE06460FB9002EF0D00EB162
:107320004FF00F080020A87500BF4046BDE8F0816F
:10733000843000200020004080E100E00003005085
:1073400010030200800002002DE9F047814600256D
:1073500032E07448006800EBC5042178012000FA8F
:1073600001F671480068304020B36F480068B043B0
:107370006D4908602078FEF76EFF074621780120EE
:1073800088406A4909680840217807FA01F1884273
:107390000FD16078012800D100E00020784080F013
:1073A0000108606820B108F0FF012078626890470A
:1073B00000BF00BF681CC5B25D4800788542C8DBCD
:1073C000BDE8F0872DE9F04105460F46012000FA9F
:1073D00005F45848006800F0A2FD06460EB1BDE86D
:1073E000F081514800682040E0B92846FEF733FF9D
:1073F00028B14E48006820434C49086004E04B48DF
:107400000068A0434949086047480068204346494E
:1074100008600022484801684648006800F058FDAE
:10742000064604E040480068A0433F49086000BFAA
:10743000D5E72DE9F84306460C461746052F02D23C
:107440000720BDE8F883FEF7B8FC38B9FEF786FCE4
:10745000054600BF0DB12846F3E700BF314806607E
:1074600033480470344807600020304908602E49D2
:10747000086015E006EBC40830480068009098F8F2
:1074800002008DF8010098F800002D4A6946FEF7C9
:1074900024FE054600BF0DB12846D2E700BF00BF5D
:1074A000201EA4F10101CCB2E4D1264A00212148DA
:1074B00000F0F2FCC5E710B5002407E0194909689F
:1074C00011F834000121FEF773FE641C184800789F
:1074D0008442F3D3002010BD10B5002406E011490A
:1074E000096811F83400FEF771FC641C104800783C
:1074F0008442F4D30F48006800F011FD10BD70B550
:1075000004460848006800EBC4052878FEF7A3FE8F
:1075100006466878012800D100E00020704080F025
:10752000010070BD4C2A00205C2A0020582A00204F
:10753000502A002078B90200542A00207CB90200A9
:10754000C573020049730200FEB504460E46154697
:10755000B0B2ADF80000019502946A46002144F2F1
:10756000010004F065F9FEBD3EB504460020009020
:107570000190029002946A46002144F2010004F056
:1075800057F93EBD18B5012300939DF800301E4BFE
:10759000186059609A606FF48043034463B1012B13
:1075A00019D1194BDA60DB681B88174CA36123469D
:1075B000DB685B68E3610EE0134B1A611B699B6833
:1075C000114C636123461B691B88A36123461B6919
:1075D0005B68E36100BF00BF0B4B1B680A4B5B6835
:1075E000094B9B68084BDB68074B1B69064B5B69C3
:1075F000054B9B69044BDB6972B600BF9DF80030F8
:10760000002BFBD162B618BDC4300020C26883884D
:107610001A4003689954C268521CC26070470346FE
:1076200009B90E20704712B1501E104008B1092050
:10763000F8E71960501E988000209860D86000BF5D
:10764000F0E770B504460D46204600F099F8A18891
:10765000884205D829462046FFF7D8FF002070BD94
:107660000420FCE770B504460D46204600F088F87B
:1076700028B12946204600F091F8002070BD052071
:10768000FCE770B505460C461646284600F078F82B
:10769000A04206D932462146284600F076F800205E
:1076A00070BD0520FCE70146C8688860002070476F
:1076B0002DE9F04780460E46144600BFB8F1000F92
:1076C00002D10E20BDE8F08700BF00BF0CB90E202C
:1076D000F8E700BF404600F053F80546D4F80090A4
:1076E0000027A94501D2484600E028468246256089
:1076F0000DB90520E6E70EB90020E3E705E03846BE
:107700007F1C8119404600F049F85745F7D3C4F86B
:1077100000A00020D6E72DE9F04706460F461446A4
:1077200000BF16B90E20BDE8F08700BF00BF0CB93E
:107730000E20F8E700BF304600F022F8B188081AA2
:10774000451CD4F800904FF00008A94501D24846E6
:1077500000E02846824625600DB90420E3E70FB912
:107760000020E0E706E0404608F10108395C3046B9
:10777000FFF74CFFD045F6D3C4F800A00020D2E7B5
:1077800001468A68C868801A704710B583680B4440
:10779000848823400468E35C137010BD70B5044610
:1077A0000D462A4600212046FFF7EFFFA068401C47
:1077B000A06070BD10B5002807DA4A07140EF74A1A
:1077C00000F00F031B1FD45403E04A07130EF44AC2
:1077D000135410BD00B9704700BF00BF00BF00BF09
:1077E00000BF00BF00BF00BF00BFEE490968EE4AFE
:1077F000914200D130E000BF00BF00BF00BF00BF1A
:1078000000BF00BF00BF00BF00BF00BF00BF00BF80
:1078100000BF00BF00BF00BF00BF00BF00BF00BF70
:1078200000BF00BF00BF00BF00BF00BF00BF00BF60
:1078300000BF00BF00BF00BF00BF00BF00BF00BF50
:1078400000BF00BF00BF00BF00BF00BF00BF00BF40
:1078500000BF00BF00BF00BF01460139084600D08D
:10786000BBE700BFB7E710B50446D0480460072166
:107870001120FFF79FFF10BD10B54FF48030CC49A9
:107880000860CC49C1F80403112000F093FB1120DB
:1078900000F07CFB0120C74908602F20FFF79AFF0A
:1078A0000120C549087010BD10B51120012181408B
:1078B000C24A430942F8231000BF4FF48030BC494C
:1078C000091D0860BB49C1F80803012048602F204A
:1078D000FFF780FF0120B74988600020B8490860A1
:1078E0002F20FFF777FF0020B349087010BD10B5B7
:1078F000B449096811B9B349086028E0B14A016880
:107900001268126891420DD8AE4909680968026888
:10791000891AAC4A12681160AA490968C161A9496B
:10792000086014E00268A74C2368216803E00C6833
:10793000121B0B46C96911B10C689442F7D311B1FF
:107940000C68A41A0C600260C161D86100BF10BD50
:107950002DE9F04106469B48D0F8008005682C468A
:1079600004E0B44200D103E02546E469002CF8D1DC
:1079700000BF14B90020BDE8F081A54213D19148A1
:107980000068C0698F4908600846006858B901203E
:107990008849886000208A49086001208A49087067
:1079A0002F20FFF717FF2768E069E861EC6914B141
:1079B00020683844206083480068804501D0012059
:1079C000D9E70020D7E710B5112000F0EAFA10BD82
:1079D00010B5142000F0E5FA10BD10B50446D4E946
:1079E0000510884710BD2DE9F04176480068002851
:1079F00038D0002700F0FEFA804671480168404602
:107A000000F0FBFA06466F48056810E02868B042AF
:107A100000D90EE02868361A286807442C46ED691C
:107A2000207C20B1002020742046FFF7D6FF002DD7
:107A3000ECD100BF6548007865490978884209D1D2
:107A400063480078401CC0B261490870022801D127
:107A5000002008705F485E49097840F82170FFF700
:107A6000B7FF00BFBDE8F081014658480078584A8A
:107A7000127890421DD055480078401C534A10702F
:107A800010460078022801D10020107051484F4A5A
:107A9000127850F822000860494A086812681044B9
:107AA000474A10601046006820F07F4010600120B7
:107AB00070470020086000BFFAE7F0B503460024D5
:107AC0001FE0404E306806689E4203D90668F61AE9
:107AD00006601AE006689B1B0668344400260660B0
:107AE000384E3568374FC6693E60C66846B10E19D4
:107AF00026F07F464660C66886601668C6611560D7
:107B000000BF304800680028DBD100BFF0BD2DE980
:107B1000F041064600272B48D0F8008099E016B1C6
:107B20003446E66968E02C48007800EB40012A48BA
:107B3000001D00EBC105001F0078401C264908709D
:107B4000084600788978884202D1002022490870CE
:107B50006C68287801281AD0022802D0032817D18F
:107B600007E06868FFF7F4FE00B1012700202074E9
:107B70006FE007E01349086800210174114AC169E8
:107B8000116000BF0F4800680028F3D161E000E0F9
:107B90005FE000BF207C00B15BE01FE018ED00E07B
:107BA00000E400E0FC2A00200024F4000815014055
:107BB0004413014000100140722A002080E100E0DF
:107BC000642A0020602A0020732A0020702A0020E6
:107BD000712A0020682A0020E4300020A868606034
:107BE000E868A0602869E0606869A061F6480078EC
:107BF00008B10020606000BFF44960680968401A5D
:107C000020F07F40F249884208D2F0496068096854
:107C100000F0F3F9A168084420600FE0EB486168C8
:107C2000006800F0EAF90546A068A84203D9A068F8
:107C3000401B206001E00020206000BF0020606049
:107C4000A060012020740020E0612046FFF74FFE75
:107C500000BF002E7FF463AFDE480078DD4949782D
:107C60008842F7D11FB9DC480068404502D00120A6
:107C7000BDE8F0810020FBE72DE9F0478246D648B9
:107C80000068002836D0D4480068056800F0B2F9D2
:107C90000746CE4804682146384600F0AEF9C61CB7
:107CA000CE48007808B9FFF7E7FDAE4201D228467A
:107CB00000E03046044424F07F44204600F0A2F95E
:107CC00000F098F980463946404600F096F900F1F8
:107CD00003093946204600F090F9814509D900F0A2
:107CE00089F9814600F08EF92F20FFF773FDFFF729
:107CF0006AFE01E0FFF7D8FDBDE8F0872DE9FC4101
:107D0000002001900026B1480468B348076868461F
:107D1000FFF7AAFE05462DB101AA21460098FFF7FC
:107D2000CCFE01260198FFF7F2FE00B1012616B144
:107D30003846FFF7A1FF0020A3490870BDE8FC8189
:107D4000A4494870704710B50246A2484078401CCC
:107D5000C1B2A0488078884200D100219D480078B7
:107D6000884201D1002010BD11709A48407800EB84
:107D700040049848001D00EBC4031846F3E72DE9C2
:107D8000FC4705460E46174698464FF0000900206E
:107D90000090684600F079FA01A8FFF7D4FF044686
:107DA00014B94FF004090DE001202070656000F067
:107DB00021F9A060E6602761C4F814809DF80400F2
:107DC000FFF7BEFF9DF8000000F065FAB9F1000F63
:107DD00001D1FFF7FDFD4846BDE8FC872DE9FC41D8
:107DE00005460E46002700200090684600F04DFA38
:107DF00001A8FFF7A8FF04460CB9042705E0267088
:107E000065609DF80400FFF79BFF9DF8000000F0FF
:107E100042FA0FB9FFF7DCFD3846BDE8FC8110B52A
:107E200000206F49086000216E48C0F84411C0F876
:107E30004811C0F84C1100206A49C1F80001684996
:107E40003C390860FFF7CFFD10BD10B5FFF756FFB6
:107E500010BD10B5FFF728FD00205E49087048707E
:107E60000B20887000205C4908605F4908705F49FA
:107E70000870142000F09EF807211420FFF79AFCE8
:107E8000142000F083F80020FFF7EDFC00F0B2F8BA
:107E90004E490860002010BD10B503460C4600BFD7
:107EA0004C48807808B9082010BD00BF0AB90720E7
:107EB000FAE70BB90720F7E71868007C08B108203B
:107EC000F2E71968002008744C744A6100BFEBE7C0
:107ED0002DE9F04104460E461746254600BF3D48B1
:107EE000807810B90820BDE8F08100BF0CB90820E7
:107EF000F9E7052E01D20720F5E7686908B90820DF
:107F0000F1E7687C012801D1304600E0002080467E
:107F10003B46424631462846FFF731FFE3E770B55E
:107F20000446254600BF2B48807808B9082070BD5C
:107F300000BF0CB1686908B90820F8E70020287470
:107F400002212846FFF74AFFF1E710B500BF21489C
:107F5000807808B9082010BD00BF03210020FFF77A
:107F60003DFFF8E710B500F045F810BD70B50446C8
:107F70000D462946204600F040F870BD0120194901
:107F800048607047012017490860704700F01F02E1
:107F9000012191404209920002F1E022C2F8001151
:107FA000704700F01F0201219140114A430942F835
:107FB0002310704700F01F02012191400C4A8032CB
:107FC000430942F823107047732A0020642A0020D6
:107FD000FFFF7F00E4300020602A0020722A00208A
:107FE0004011014000100140702A0020712A002039
:107FF00000E200E00548006870470246501A20F091
:108000007F40704701493C310860704704150140CA
:108010007CB504460E46207800283FD0012802D0C7
:1080200002284ED12BE0606801788648FFF709FBF3
:10803000054645B101208DF800000195684682494A
:10804000096888470AE07F4800F0F7F830B100205F
:108050008DF8000068467C4909688847794800F037
:10806000ECF878498988884205D801227749784810
:10807000FEF784FD02E001207649087022E002202C
:108080008DF80000E0680190012270497048FEF709
:1080900075FD68466C490968884713E06E496F486A
:1080A000FFF7E0FA28B901226B496948FEF73DFC69
:1080B00006E003208DF80000684663490968884798
:1080C00000E000BF00BF7CBD2DE9F04188B0044650
:1080D0000D46174698465C4807601DB9072008B052
:1080E000BDE8F081A88882B256482968FFF797FA60
:1080F000064600BF0EB13046F1E700BFA88982B244
:108100005648A968FFF78BFA064600BF0EB1304605
:10811000E5E700BF20225249684603F0E9FA6069AA
:108120000690207C08B1012000E000208DF81400AA
:108130008DF81C80607C08B10E2000E000208DF8D6
:108140001500E0680290A0680390206801906068C4
:108150000090444A69463E48FEF749FB064600BF88
:108160000EB13046BBE700BF00203A4908702068D6
:10817000401C58B19DF81D0010B93548FEF77AFD36
:10818000012232493248FEF7F9FCA8E70020A6E7B1
:1081900010B52C48FFF787FA044600BF0CB1204603
:1081A00010BD00BF2D48FFF77EFA044600BF0CB19A
:1081B0002046F5E700BF0020F2E72DE9F041044634
:1081C0002448077821461F48FFF74CFA804697B1AC
:1081D00000202049087001221C491D48FEF7CEFCF2
:1081E000054600BF2E4626B100BF3046FFF7BCF95A
:1081F00000BF00BF00BF4046BDE8F08170B5044637
:1082000021461648FFF71DFA054675B91048FEF7D6
:1082100081FB50B910491148FFF724FA28B901220F
:108220000D490B48FEF781FB0546284670BD10B589
:108230000748FEF71BFB002010BD01468A68C8688E
:10824000801A7047F03100207C2A0020812A00200B
:10825000742A0020822A0020802A00200032002078
:1082600080B902001180020072B649480068401CC3
:1082700047490860704746480068401E4449086006
:108280000846006800B962B6704710B5044620463B
:1082900000F051F810BD70B5044625463D48806891
:1082A000B0B1ADB900F041F806463A4800683A4925
:1082B0000860384840684FF0E021C1F80401002010
:1082C000344988601EB900BF62B600BF00BF00BF5E
:1082D00000BF70BD00BFEFF30580C0F3080141B9D6
:1082E00000BFEFF31480024602F0010080F00100AD
:1082F00070470120FCE710B500BFEFF30580C0F325
:10830000080181B1A1F1100250B2002806DA234B16
:1083100000F00F04241F1B5D5B0902E0204B1B5C77
:108320005B09D8B210BD0F20FCE700BFEFF310814E
:10833000084672B6704770B50446FFF7F6FF05466B
:1083400014488068D8B901201249886012488030EA
:108350000068144908400F49086012484FF0E021B6
:10836000C1F880010C48D0F884000A4948604FF0F9
:10837000FF310948843001600020207001E00120B5
:1083800020701DB900BF62B600BF00BF002070BDE5
:10839000842A00201032002000E100E018ED00E007
:1083A00000E400E0FC06FFBD10B5044609B90E204C
:1083B00010BD92FBF3F003FB102008B10920F7E792
:1083C000216000206060A060A281E38100BFEFE730
:1083D00070B504462046F9F768FF05460DB1002048
:1083E00070BD1120FCE770B505460C4620886188F9
:1083F000884204D12846F9F729FF012070BD0020EA
:10840000FCE770B504460D4629462046F9F702FF01
:1084100018B129882068084470BD0020FCE72DE9C8
:10842000F8430746884691461C4669463846FFF79A
:10843000E8FF064616B90420BDE8F8834A464146DF
:10844000304603F055F969463846FFF7CCFF05463C
:1084500004B125700020EFE770B505460C46208872
:108460006188884204D12846F9F716FF012070BDC3
:108470000020FCE770B504460D4629462046F9F772
:10848000EEFE18B169882068084470BD0020FCE742
:108490002DE9F84380460E4691461C466946404603
:1084A000FFF7E8FF074617B90520BDE8F8834A46FD
:1084B0003946304603F01CF969464046FFF7CCFFC9
:1084C000054604B125700020EFE70246138AD06804
:1084D00001FB030070470246D068081A138AB0FBFC
:1084E000F3F0C0B2704710B5014600BF09B90E20C5
:1084F00010BD00BF087A0B79C01AC2B2D1E90030B2
:10850000186005E008680368581C0C6820601A7041
:10851000101EA2F10103DAB2F4D10B68187100BF8A
:10852000E6E7F8B504460026002000906846FFF70D
:10853000ACFE206800686168884215D92068006830
:10854000401E2268106001782046FFF7BEFF0646F5
:10855000207A21680978401AC5B220680079A842BB
:1085600001DA2068057100BF9DF80000FFF793FE57
:108570003046F8BDF8B504460D462E460020009062
:108580006846FFF782FE31462046FFF7A4FF2168C8
:108590000A68511C2368196010709DF80000FFF7ED
:1085A0007AFEF8BD70B50446A06800B970BDD4E984
:1085B0000403A268216898470020A06000BFF5E787
:1085C0000FB438B50446059810B938BC5DF814FBF3
:1085D0000020009006A800906A462046059900F009
:1085E00007F90020009000BFEFE7000070B50446D7
:1085F0000D46A168481CA06020684554D4E90110CC
:10860000884202D32046FFF7CDFF70BD2DE9F04729
:1086100081460C4615469846002608F00100A0B198
:1086200005E0641C761C39464846FFF7DFFF2778D3
:10863000002FF6D104E06D1E20214846FFF7D6FF3B
:10864000B5421BD9002DF6D118E01CB1204603F02D
:1086500073F8064604E06D1E20214846FFF7C6FF6A
:10866000B54201D9002DF6D105E0641C761C3946CF
:108670004846FFF7BBFF2778002FF6D1BDE8F0870B
:108680002DE9FF4F81B0884616461F46DDE90E4BA7
:1086900045464FF0010A03E0B5FBF6F50AF1010A81
:1086A000B542F9D2574500D9BA460BF0010098B946
:1086B00094B10BF00200022803D117B930200090CA
:1086C00001E02020009004E0641EDDE90010FFF7C7
:1086D0008DFF0CB1A245F7D3012509E0012F01D987
:1086E0007F1E04E0B8FBF5F9B14500D201E0754307
:1086F000F4E700BF00BFB8FBF5F909FB1588B848DF
:1087000010F809100198FFF771FFB5FBF6F5002D81
:10871000F1D10BF0010048B144B104E0641E202106
:108720000198FFF763FF0CB1A245F7D305B0BDE890
:10873000F08F2DE9FC5F83460E4691461F46DDE92A
:108740000C45002E01DA704200E0304682464FF0C0
:10875000010803E09AFBF9FA08F10108CA45F9DAC1
:10876000474500D9B84634B1002E03DB05F00400BC
:10877000042800D1641E05F0020000B167B105F0C5
:10878000010048B944B104E0641E20215846FFF7B7
:108790002DFF0CB1A045F7D3002E05DA76422D212E
:1087A0005846FFF723FF07E005F00400042803D133
:1087B0002B215846FFF71AFF05F0020002280DD1C1
:1087C00005F0010050B94FB944B104E0641E3021F6
:1087D0005846FFF70BFF0CB1A045F7D33B464A467E
:1087E00031465846CDE90045FFF74AFFBDE8FC9FFA
:1087F0002DE9FC5F82460D4614460DB9BDE8FC9F8D
:1088000000BF2E786D1C06B9E1E0252E70D100273F
:108810004FF0010900BF2E782B2E0CD02D2E02D048
:10882000302E0CD103E047F001076D1C0AE047F041
:1088300002076D1C06E047F004076D1C02E04FF0D4
:10884000000900BF00BFB9F1000FE4D14FF00008EC
:1088500000BF2A2E06D12168081D206008688044C8
:108860006D1C0DE02E78302E01DB392E00DD07E087
:108870006D1CA6F1300008EB880100EB4108E8E729
:1088800000BF4FF0000B2E782E2E10D16D1C00BFB4
:108890002E78302E01DB392E00DD07E06D1CA6F1AD
:1088A00030000BEB8B0100EB410BF1E700BF2E78A2
:1088B00000BF6C2E01D0682E02D16D1C2E7800E016
:1088C00000E0F6E700BF692E21D008DC252E6DD030
:1088D000582E39D0632E0CD0642E6CD116E0702E39
:1088E0004CD0732E3ED0752E1FD0782E63D12AE047
:1088F00065E02168081D2060D1F8009009F0FF00B4
:10890000019050460199FFF771FE55E000BF2168C4
:10891000081D2060D1F800905B460A224946504667
:10892000CDE90087FFF705FF46E02168081D2060BC
:10893000D1F800905B460A2249465046CDE90087AF
:10894000FFF79EFE38E000BF2168081D2060D1F8C7
:1089500000905B46102249465046CDE90087FFF75C
:108960008FFE29E02168081D2060086801903B46C1
:10897000424650460199FFF749FE1DE02168081D57
:108980002060D1F8009030215046FFF72FFE78216B
:108990005046FFF72BFE002008210B461022CDE9A0
:1089A000001049465046FFF76BFE05E02521504672
:1089B000FFF71CFE00E000BF00BF6D1C03E0314666
:1089C0005046FFF713FE287800287FF41AAF00BF47
:1089D0009AF80C0010B15046FFF7E4FD00BF0DE718
:1089E000A0B9020070B504460D46164604B10DB993
:1089F0000E2070BD256020683146026820469047F1
:108A0000F7E770B504460D460CB90E2070BD20681E
:108A100008B90820FAE720682946426820469047AE
:108A200006460020206060603046EFE710B5034640
:108A3000D868884206D88818401E1C69A04201D810
:108A4000012010BD0020FCE7014601F0030008B939
:108A5000012070470020FCE72DE9F04104460E4656
:108A600017461D4604B117B90E20BDE8F0812068F5
:108A700008B90820F9E70DB90920F6E73046FFF7F5
:108A8000E3FF28B12A4631462046FFF7CFFF08B959
:108A90001020EAE720682B463A463146D0F808C055
:108AA0002046E047E1E72DE9F84304460F46164625
:108AB0001D46DDF8208004B116B90E20BDE8F8830C
:108AC000206808B90820F9E735B160684068B5FB4F
:108AD000F0F100FB115008B10920EFE73846FFF72D
:108AE000B3FF48B13046FFF7AFFF28B12A463946F9
:108AF0002046FFF79BFF08B91020DFE7CDF8008084
:108B000020682B4632463946D0F80CC02046E04754
:108B1000D4E72DE9F04104460E4615461F4614B928
:108B20000E20BDE8F081206808B90820F9E70DB9EA
:108B30000920F6E760680068401E304040B9606870
:108B4000006800FB05F231462046FFF76FFF08B9C9
:108B50001020E6E720683B462A463146D0F810C090
:108B60002046E047DDE770B504460D460CB900200D
:108B700070BD20682946426920469047F8E770B5E5
:108B800004460D460CB9002070BD20682946826954
:108B900020469047F8E770B504460CB12068D0B97C
:108BA00000250EE005EB85000D4901EB80042068EF
:108BB00030B12068C1692046884708B1012070BDE6
:108BC0006D1C08480649401A1421B0FBF1F0A84278
:108BD000E8D80020F3E72068C16920468847EEE71F
:108BE000000000000000000030B585B004460D46CE
:108BF0002068806808B905B030BD1421684602F0CD
:108C000090FD0195A0680490207910B1012813D13E
:108C100007E001208DF80000206902906069039050
:108C20000BE002208DF80000EC49E0680968484339
:108C300002906069039000E000BF00BF2068816877
:108C40006846884700BFD6E72DE9F0410446D4E9DD
:108C50000510081AB0F5805F03D2D4E90510081A90
:108C600001E04FF480500546DC484068B5FBF0F069
:108C7000012804D9D9484068B5FBF0F000E0012094
:108C800005462169A0690E18E168A0690F182A46F7
:108C90003946304629DFBDE8F08110B50446D4E9F5
:108CA0000321501828DF10BD10B5CD49CD4800680C
:108CB000FFF7D2FB10BD10B5C949CA480068FFF7DD
:108CC000D9FBC94908600846006808B1012010BDF9
:108CD0000020FCE70146C548C068401CC34AD0607C
:108CE0001046C068082803D90020D06001207047D2
:108CF0000020FCE701460020BC4AD060087910B192
:108D0000012821D116E0D1E90530181AB0F5805FAD
:108D100003D2D1E90530181A01E04FF48050024621
:108D2000886983188B61D1E90503834201D1012051
:108D300070470AE00869401C0861D1E904208242BA
:108D400001D10120F4E700E000BF00BF0020EFE701
:108D500070B504460E46A548007A012825D00228A1
:108D600024D10025022C02D0032C0CD105E09E4812
:108D70000068FFF7BFFF054606E09B480068FFF765
:108D8000A9FF054600E000BF00BF6DB10020974974
:108D90000872022C00D100E00D20014692480068C4
:108DA000FFF722FFFFF780FF01E000E070BD00BF8A
:108DB0008E48407C10B900F005F801E002F089F817
:108DC00000BFF3E710B58948007A30B9FFF773FFA9
:108DD00018B900208549486010BD022083490872F7
:108DE00081480068007910B101280CD105E07E4867
:108DF0000068FFF729FF044607E07B480068FFF79B
:108E00004CFF044601E0032400BF00BF14B1112C45
:108E10000CD107E07548007C18B900210220FFF74B
:108E200097FF0DE001207149087209E003216E48A7
:108E30000068FFF7D9FE00206C490872486000BF47
:108E400000BF00BFC8E77CB5684C241D01256A46F9
:108E500029462046F9F742FA064600BF01960198D6
:108E600020B9201F407C08B9FFF7ACFF7CBD2DE97D
:108E7000F843054688465D4C01266A463146204641
:108E8000F9F738FA074600BF00BF67B95348686072
:108E900002F02EF8214608741C238C2254495148B4
:108EA0000068FFF781FA0020BDE8F88370B504463A
:108EB0000D4614214D4802F034FC4A480068FFF783
:108EC00087FA002070BD2DE9F84305460E46174687
:108ED0009846DDF82090694642480068FFF791FA0D
:108EE000044614B90420BDE8F8831C21204602F092
:108EF00018FC002020712560C4F808902661E76006
:108F0000C4F81480694637480068FFF76CFAFFF729
:108F10009AFF0020E7E72DE9F04107460E46144688
:108F20001D462A463146204602F0E2FB0020BDE8FD
:108F3000F0812DE9F84305460E46174698466946E6
:108F400028480068FFF75DFA044614B90420BDE81C
:108F5000F8831C21204602F0E4FB012020712560EB
:108F6000C4F808801D480068B6FBF0F0E060676157
:108F700069461C480068FFF736FAFFF764FF0020D7
:108F8000E5E7024608467047024600207047014662
:108F90001648007A08B1012070470020FCE702461D
:108FA0000120124B58741846007A08B90120704706
:108FB0000020FCE770B504460D46012C01D0032CBF
:108FC0000BD1002009494874012C01D1012000E097
:108FD000002006490874FFF7F5FE70BDB0B9020025
:108FE0008C2A0020BCB90200882A0020B832002058
:108FF0001C32002010B504462046FFF774FA10BD5D
:109000002DE9F05F0446274697F805802646A8F12B
:10901000010B002501E036686D1C5D45FBD3D6F8D9
:1090200000A02646002507E0D6F8009031465046BD
:10903000FFF7A0FA4E466D1C4545F5D3BDE8F09FFD
:109040002DE9F84F07468A46388AA0F104080AF14C
:1090500004004044401EB0FBF8F0C0B20090384617
:10906000FFF75FFA044614B90020BDE8F88F00202E
:10907000207101216171A4F8068025460098A0F1B5
:10908000010B2C462F604FF0000912E03846FFF725
:1090900048FA064636B16079401C60712E60376030
:1090A000354604E02046FFF7ABFF0020DDE709F17D
:1090B0000109D945EAD32046D7E72DE9F84304460C
:1090C00027463D1D01266A4631462846F9F787F9AD
:1090D000804600BFBDE8F8832DE9FC4704462746DB
:1090E0003D1D01266A4631462846F9F785F9814635
:1090F000009801900DF1040898F8000010B920467E
:10910000FFF77EFFBDE8FC872DE9FF5F07468B4632
:10911000144698460397039FFD88B94608F104005A
:10912000B0FBF5F0029008F10400B0FBF5F105FB8F
:109130001100019008F1040020442844401EB0FBB7
:10914000F5F0C0B2009004E0D9F800900298401EFB
:10915000029002980028F7D1824601982E1AA64262
:1091600001D9204600E03046064620E00E9848B17E
:1091700009F10402019BD1180BEB0A00324602F000
:10918000B7FA08E00BEB0A0109F10402019BD018C1
:10919000324602F0ADFA00200190D9F80090A41BED
:1091A000B244A54201D9204600E028460646002CDC
:1091B000DCD1BDE8FF9FF8B504460D4616461F46B4
:1091C00000203B463246294600902046FFF79CFF90
:1091D000F8BDF8B504460D4616461F4601203B462D
:1091E0003246294600902046FFF78EFFF8BD14E076
:1091F000D0E900215268914202D10021816070477C
:109200004168096842685268914203D04168096820
:109210008160F4E7416808314160E9E770B50446D0
:109220000D462560286860602046FFF7E0FF70BDAE
:1092300010B50446A06800B910BD2168A06889680F
:109240000844A060D4E901104968884205D16068EB
:10925000083060602046FFF7CAFF00BFECE700005F
:1092600070B50246134B03F1F00413E0E61AF01058
:1092700000EBD076761003EBC6010D68954201D95C
:109280000C4606E0954202D201F1080301E048686D
:1092900070BD00BFA342E9D30020F9E730B5044612
:1092A0002046FFF7DDFF05460DB9034830BD2846CF
:1092B000FCE70000F4B90200E0B9020070B5054611
:1092C000002408E02146284600F0BAF808B12046FC
:1092D00070BD601C84B2202CF4DB4FF6FF70F7E702
:1092E0002DE9F043044615461E46DDF81CC07CB34C
:1092F00071B36DB300202DE034F81020B24228D1B4
:10930000002221E0BCF1000F0ED001EB820387B2F6
:109310004FF0010909FA07F9D3F8008048EA090873
:10932000C3F8008000BF0EE001EB820387B24FF06C
:10933000010909FA07F9D3F8008028EA0908C3F8F7
:10934000008000BF00BF521CAA42DBD3BDE8F083FF
:1093500002E0401C2028CFD300BFF7E7F8B506464F
:109360000F4614461D4623460122394630460095D5
:10937000FFF7B6FFF8BD2DE9F04106460F469046CF
:109380001C4686B100250CE036F81500404507D193
:1093900004B12570A9B2384600F052F8BDE8F0815A
:1093A0006D1C202DF0D30CB1202020700020F5E79B
:1093B0002DE9F04105460E46174675B100240AE036
:1093C00035F81400B84205D1A1B2304600F038F8A3
:1093D000BDE8F081641C202CF2D30020F8E7F0B542
:1093E00091B007460D461646002000908DB100242E
:1093F0000DE0A1B2304600F023F838B135F8141072
:10940000009A501C009001A820F81210641C202C17
:10941000EFD344226946384602F06AF911B0F0BD34
:1094200070B506460025002406E0A1B2304600F0E3
:1094300007F800B16D1C641C202CF6D3284670BDC3
:10944000024601208840104008B1012070470020EA
:10945000FCE7000010B501F09BFB10BD2DE9F047C3
:1094600081460E461546B5B100274FF00A0800BFE9
:10947000F1192A46002001F079F8044627442D1BF3
:109480002CB9A8F10108B8F1000F00D101E0002DBE
:10949000EED100BF00BFBDE8F08738B504460D46E9
:1094A00005484023054A29460090204600F008F868
:1094B00038BD7047704700005D940200CC32002038
:1094C0002DE9F04F93B082460E4617469846DDF8D8
:1094D00070903046FFF7F1FD18210DA802F021F938
:1094E0000D97CDF83880CDF8489000252B460822FE
:1094F00007A93046FFF76DFE082509980A900898DD
:1095000080B2ADF82C0000208DF83000079800F0F4
:109510000300012820D107984FEA902B0798C0F349
:10952000C2008DF82E000798C0F380008DF82F0040
:109530000798C0F38314A2002B4601A93046FFF719
:1095400048FE05EB84050DA80AAB224601A9009050
:10955000584600F093FD2CE0079800F00300022825
:1095600027D107984FEA905B0798C0F3C2008DF8A7
:109570002E000798C0F380008DF82F0000BFBBF1CC
:10958000080F01D2584600E0082004462B46224628
:1095900005A93046FFF71DFE2544ABEB040B0DABD0
:1095A0000AAA214605A800F0CDFDBBF1000FE6D1C7
:1095B00000BF3046FFF790FD13B0BDE8F08F00000C
:1095C00010B54FF0FF34FFF745FF0421044800F0C9
:1095D00095FC044600BF01200149487200BF10BD40
:1095E000902A00202DE9F041074600BFFF20FC49EA
:1095F0008860002008604860C1F81804C1F81404AD
:1096000081F81C04F748FFF7F5FC054615B128461C
:10961000BDE8F081F448F549401AC608002406E088
:1096200004EB4401F24A02EB81000480641CB44262
:10963000F6D30020ECE7EC48EC49401AC00870472C
:1096400070B503460C46ACB1FFF7F5FF05460022A6
:109650000CE002EB4200E64E06EB800148881E68F3
:10966000B04202D11A60002070BD521CAA42F0D351
:109670000520F9E70020F7E713B50C4621466846B8
:10968000FFF7DEFF28B9D948009A00EBC20108684D
:109690001CBD0020FCE710B50246D44C04EBC2030D
:1096A000012906D0022906D0032906D0042908D1B1
:1096B00005E0022007E0042005E0187903E058796E
:1096C00001E0002000BF00BF10BD10B50346002020
:1096D000002108E007248C401C4024FA01F2824259
:1096E00000D91046C91C0A29F4D310BD70472DE9D2
:1096F000FF41074614461D46002600BF55B92146C6
:1097000001A8FFF79DFF28B9B849019A01EBC200F3
:10971000867900BF304604B0BDE8F0812DE9FF5FD7
:10972000B44800F037FCB348001F00F033FCAC48ED
:109730004468D0F8088004EA0800A9490C3101EB1C
:1097400080090FE0641CB9F80000C0F38910D9F853
:10975000001000EB9150044404EA0800A0490C31C9
:1097600001EB800999F8000000F003000028E9D01F
:1097700000250BE02046641C00EA080098490C31E3
:1097800051F8200001A941F825006D1C022DF1D3EC
:10979000019800F00300012809D002280CD104210F
:1097A000019801EB9050401E04EB900405E00198F5
:1097B000C0F38310044400E000BF00BF8D4F3F1F83
:1097C0004FF0000B6A4659463846F8F73CFE824691
:1097D00000BF00BF56460EB181484460BDE8FF9F00
:1097E0002DE9F84F05460E46AF1C4FF002084FF02A
:1097F0000109002000906846FEF747FD78480068A0
:1098000030607748006876494968411A7448806832
:10981000401CA0EB010A07EB080B0BE0FFF77EFFF3
:109820006F4800686E494968411A6D488068401C5D
:10983000A0EB010AD345F1D86948006868498968F6
:10984000084067490C3101EB8004206820F00300D8
:10985000C01C20606248006838440C3908609DF8DC
:109860000000FEF718FD4846BDE8F88F2DE9F843E3
:1098700004460E4617464FF00008641C0020009076
:109880006846FEF702FD5648006838605448006894
:1098900053494968411A52488068401C451AAC42F5
:1098A00011D84F480068401C4D49896808404C4910
:1098B0000C3101EB80084A48006820440C390860EC
:1098C0000020306011E046484068454989680840FA
:1098D000A0420AD9424801686019401E0844404924
:1098E0000860681E306001F10C083D4800683C4982
:1098F0004968411A3A488068401C451A022D01D235
:109900004FF000089DF80000FEF7C5FC4046BDE89A
:10991000F8832DE9FC470546314890F81C0400B94E
:1099200015B92846BDE8FC872D48D0F80890284690
:1099300001F002FF461CF01C4FEA90080020019045
:109940006A4601A94046FFF791FF0746CFB100984C
:1099500000EA090022490C3101EB8004206820F064
:10996000030020600199206861F38F102060206857
:1099700068F39F50206032462946384601F0B8FE11
:1099800000BF3846CEE71648406815490968884246
:1099900001D1012070470020FCE72DE9F04F8BB08A
:1099A000FFF7F1FF18B100200BB0BDE8F08F0020E9
:1099B0000B49C1F8180400BF00BF00BFBFF34F8FB1
:1099C00000BF00BF00BF08464468856804EA050080
:1099D0000C3101EB800A00260027002007901AE0D6
:1099E000CC330020F0BA020030C30200E0C2020013
:1099F000002B0020E4370020641CBAF80000C0F3FC
:109A00008910DAF8001000EB9150044404EA0500D4
:109A1000FE4901EB800A9AF8000000F003000028DC
:109A2000EAD04FF000080AE02046641C2840F749BD
:109A300051F8200008A941F8280008F10108B8F100
:109A4000020FF1D3089800F00300022878D108989B
:109A5000800D069050210898B1EB905F02DD0898C8
:109A6000800D00E05020834608986BF39F500890CB
:109A70000BF1080005900898C0F3C2000790E44875
:109A80000599FFF7DDFA0646002E57D03046FFF75E
:109A900014FB3B46082208A93046FFF78CFB083729
:109AA00004EA0500691C081A4FEA8009CB4533D93E
:109AB000B9F1000F05D004EA0500D44901EB80009C
:109AC00000E0D2480490B9F1000F01D0484600E010
:109AD0005846C0B20390B9F1000F01D0CB4800E066
:109AE00000200290B9F1000F02D0ABEB090000E0BA
:109AF0000020C0B201903B463046DDE90321FFF76C
:109B00005AFB03980744029828B13B463046DDE9EA
:109B10000121FFF750FB0CE004EA0500BB4901EB13
:109B2000800004903B465A4630460499FFF743FBB9
:109B300000BF0698C01C04EB900400BF50E0FFE794
:109B4000089800F0030001283ED10898C0F3831064
:109B5000062803DA0898C0F3831000E0062008996D
:109B600060F3891108910898C0F3831000F102098D
:109B70000898C0F3C20007904FEA8901A448FFF794
:109B80005FFA0646FEB13046FFF797FA3B460822D9
:109B900008A93046FFF70FFB08374FF000080DE02B
:109BA0002046641C2840994A02EB80013B4604226F
:109BB0003046FFF700FB3F1D08F101080898C0F38D
:109BC00083104045ECD80BE0089800F00300032810
:109BD00006D18E480C38D0F8180408B90020E3E606
:109BE000DEB38A480C38D0F81094D0F8180418B1B5
:109BF0003046FFF771FA2FE016E04FF0000B00BF80
:109C000099F80900012800D18346BBF1000F08D064
:109C100000BFD9F80000314602684846904700BFAF
:109C200000BFD9F8049000BFB9F1000FE5D130466C
:109C3000FFF752FA0020069006A8FEF726FB7348AD
:109C40000C38D0F8180410B970480C3844609DF8EE
:109C50001800FEF720FB00BF00BFFFF794FE80F066
:109C60000100A1E62DE9FC478046894616461C46C0
:109C700066480C38876801A92046FFF7B1FDC0B1DE
:109C8000019800F1020A002509E056F82520504607
:109C90000AF1010A38405D4941F820206D1CA542B7
:109CA000F3D30097224649464046019B00F07DF9D8
:109CB00000BF56480C3890F81C0430B100BF00BFFC
:109CC000FFF76BFE0028FBD100BFBDE8FC8770B535
:109CD00004460D4600231A4629462046FFF7C2FFD8
:109CE00070BDF8B505460E461446009401236A4639
:109CF00031462846FFF7B6FFF8BD2DE9FC41064680
:109D00000F4614461D460094019502236A463946C3
:109D10003046FFF7A7FFBDE8FC812DE9FE4306466C
:109D20000F4614461D46DDF8288000940195CDF8B5
:109D3000088003236A4639463046FFF793FFBDE8A3
:109D4000FE832DE9FF4706460F4614461D46DDE912
:109D50000C8900940195CDF80880CDF80C9004236F
:109D60006A4639463046FFF77DFFBDE8FF872DE99B
:109D7000F04786B006460F4614461D46DDE90F9AA9
:109D8000DDF8388001940295CDF80C80CDF8109064
:109D9000CDF814A0052301AA39463046FFF762FF2B
:109DA00006B0BDE8F0872DE9F04F87B006460F46B4
:109DB00014461D46DDE912ABDDE9108901940295D8
:109DC000CDF80C80CDF81090CDF814A0CDF818B0D7
:109DD000062301AA39463046FFF744FF07B0BDE825
:109DE000F08F2DE9F84F05468946164607480C388E
:109DF0008768F11C88086946FFF7F2FC002856D0F6
:109E0000DDF800A00098801C009003E0D83300200B
:109E1000F0BA020079488068401C00993940401A25
:109E20004FEA800846450AD800993940734A0C32F7
:109E300002EB81003246494601F05AFC13E00099DA
:109E400039406E4A0C3202EB81004246494601F02D
:109E50004FFCA6EB080086B209EB080132466748C2
:109E60000C3001F045FC2A0C0AF10100384063492E
:109E70000C3141F820200AEA070001EB800429098F
:109E8000206861F382002060206865F3C5002060CF
:109E90000021206861F38F102060206866F39F50D6
:109EA0002060206820F00300801C206000BF534821
:109EB00090F81C0430B100BF00BFFFF76EFD002812
:109EC000FBD100BFBDE8F88F002112E04B48D0F86D
:109ED0001024012306E000BF107A884201D100233C
:109EE00002E05268002AF6D100BF0BB10846704765
:109EF000491C0A29EADB4FF0FF30F8E770B5044649
:109F00000E46FFF7E1FF0546681C08B9284670BDFC
:109F1000E8B2207200BF3948D0F8100428B9374899
:109F2000C0F810440020606008E03448D0F8100405
:109F3000406860603148D0F8100444602846E6E785
:109F400010B52E4BD3F81014002201E00A464968E0
:109F50008142FBD112B14368536003E00023274CD8
:109F6000C4F8103410BD70B52448D0F81044012056
:109F7000224981F81C040AE000BF0120607200BF82
:109F80002546286841682846884700BF6468002C39
:109F9000F2D170BDF8B5044601256A46294620462F
:109FA000F8F744FA06460098F8BDF0B50446059D5A
:109FB000260C5F1C2F40DFF844C00CF10C0C4CF851
:109FC000276003EA05070CEB87004FEA141C0768BB
:109FD0006CF382070760076864F3C50707600768CA
:109FE00062F389170760076861F39F2707600768B6
:109FF00027F003077F1C0760F0BD0000CC33002072
:10A0000070B504460D46E079D8B9207A58B1A179E7
:10A01000A088FFF740FB734951F82060324672A1D7
:10A020002846FEF7CDFAA0880021FFF725FB06465B
:10A03000A0796E4951F8202033466DA12846FEF7DD
:10A04000BFFA70BD70B504460D461646E07960B99A
:10A05000207A28B1634864A102682846FEF7B0FA66
:10A0600066A12846FEF7ACFA04E01EB163A12846BB
:10A07000FEF7A6FA2846FEF795FA70BD2DE9FF47D0
:10A0800007460C46164698460C9D95F80C90002005
:10A09000287329464046FFF7B3FF072E47D2DFE873
:10A0A00006F004090F161F2A370039462846FEF726
:10A0B00087FA3DE0394628462268FEF781FA37E004
:10A0C00039462846D4E90023FEF77AFA30E0A06842
:10A0D000009039462846D4E90023FEF771FA27E0BC
:10A0E000D4E90201CDE9000139462846D4E900232C
:10A0F000FEF766FA1CE0D4E902122069CDE90012ED
:10A10000029039462846D4E90023FEF759FA0FE0B9
:10A11000D4E90223D4E90410CDE90023CDE90210EB
:10A1200039462846D4E90023FEF74AFA00E000BF8A
:10A1300000BF002229464046FFF784FF85F80C90B7
:10A14000BDE8FF872DE9F05F07460E4690461D46A5
:10A15000082E01D9BDE8F09F95F80C9000202873D7
:10A1600029464046FFF74CFF00240CE0B44205D2DC
:10A170003A5D23A12846FEF723FA03E022A12846F0
:10A18000FEF71EFA641C082CF0D320A12846FEF727
:10A1900017FA00241AE0B44213D217F804A001F011
:10A1A000A3FA006810F80A0000F03E0008B150461B
:10A1B00000E02E2083465A4615A12846FEF700FAF5
:10A1C00003E00DA12846FEF7FBF9641C082CE2D33E
:10A1D000012229464046FFF735FF85F80C9000BF65
:10A1E000B8E70000C42A002025730000B02A002030
:10A1F0003C25733E2025733A200000000D0A000024
:10A200002025303278000000202020007C00000053
:10A210002563000010B5F54C022020616061F4A0B8
:10A22000A061F649E1614FF4007121620021A16251
:10A230006162E162EEA0A064F149E1641021216550
:10A240000021A1656165E165EEA1E01D01F07BFAE9
:10A25000EDA1204601F077FA2020A07110BD2DE974
:10A26000F0470446894617464FF0000AE56800BFEC
:10A27000D4F81080A84503D9A8EB0500461E04E0D9
:10A28000A5EB0800401CA1680E1AA068401BB04254
:10A2900001D9304601E0A068401B0646BE4201D20B
:10A2A000304600E03846064661684819324649465D
:10A2B00001F01EFAB244B144BF1B3544A068A84265
:10A2C00000D10025E560002FD2D15046BDE8F087CF
:10A2D0002DE9F047044689461546E668A068871BC5
:10A2E000AF4208D9616888192A46494601F000FA48
:10A2F0007019E06010E0B846616888194246494626
:10A3000001F0F6F9A5EB070809EB07014246606882
:10A3100001F0EEF9C4F80C80BDE8F08738B50546C9
:10A320000C46FF208DF80000B948005D8DF8010053
:10A33000022269462846FFF792FF38BD10B5014654
:10A340000A69CB689A4204D88C68641EE41AA01883
:10A3500001E0D41A601E10BD2DE9F74F8346174661
:10A3600000BFA248007808B9FFF754FF00BF0BEB0D
:10A370004B019E48483000EBC106DDF8049035697A
:10A38000D6F80CA04FF00008554515D9B068441B0D
:10A39000BC4201D2204600E03846044670684119AC
:10A3A0002246484601F0A4F9A044A1443F1B25449D
:10A3B000B068A84200D10025AAEB0504BC4201D236
:10A3C000204600E0384604464CB1706841192246E8
:10A3D000484601F08DF9A044A1443F1B2544B8F143
:10A3E000000F00D035614046BDE8FE8FF8B5044649
:10A3F0000D461646002000906846FDF746FF32469F
:10A4000029462046FFF7A8FF07469DF80000FDF704
:10A4100042FF3846F8BD2DE9F04707468846164604
:10A42000C14607EB47017148183000EBC104D4E97D
:10A430000301884202D1A068451E0EE0D4E9030161
:10A44000884204D22069E168401A451E05E020696F
:10A45000E168401A401EA1684518AE420CD9206937
:10A46000711B0844206103E02069A168401A206143
:10A470002069A1688842F7D2D4E90201451A00BFD9
:10A48000B5420AD9E268616888183246494601F047
:10A490002FF9E0683044E0600EE0E26861688818F7
:10A4A0002A46494601F024F9A9440020E060761BC1
:10A4B000A068451E002EE3D100BFBDE8F0872DE95E
:10A4C000F84F82468B461646CDF800B00AEB4A019B
:10A4D0004648183000EBC104D4F81090E568A9454F
:10A4E00033D8A068401E471BB7420AD36168481999
:10A4F0003246009901F0FCF8A819E0600120BDE89F
:10A50000F88F4F44B7422FD3A068A0EB0508B045A1
:10A5100008D9616848193246009901F0E9F8A8198C
:10A52000E06010E0616848194246009901F0E0F8E7
:10A53000A6EB0802009B03EB0801606801F0D8F865
:10A54000A6EB0800E0600120D9E7A9EB0500471E53
:10A55000B74209D3616848193246009901F0C8F83A
:10A56000A819E0600120CAE70020C8E72DE9F047FC
:10A57000074688461646C24607EB47011B48183077
:10A5800000EBC109D9F8140020B1012811D002282C
:10A5900026D11EE04846FFF7D1FE0546B54201D25E
:10A5A000002405E03446324651464846FFF790FE07
:10A5B00018E04846FFF7C2FE0546B54201D22846DC
:10A5C00000E030460446224651464846FFF780FEEA
:10A5D00008E0324651464846FFF741FE044601E096
:10A5E000002400BF00BF2046BDE8F087EC37002004
:10A5F0005465726D696E616C000000006438002063
:10A60000643A0020525454005345474745520000D5
:10A61000E82A0020F8B504460D46164600BFFE485D
:10A62000007808B9FFF7F6FD00BF002000906846EB
:10A63000FDF72BFE324629462046FFF797FF0746D7
:10A640009DF80000FDF727FE3846F8BD70B50546B9
:10A650000C46204601F070F8064632462146284650
:10A66000FFF7D8FF70BD70B503460C4603EB4306F9
:10A67000E94D183505EBC601CD686A1C8D68954219
:10A6800000D100220D69954205D0CE684D68AC55C9
:10A69000CA60012000E0002070BD2DE9F8430746A4
:10A6A000884600BFDC48007808B9FFF7B3FD00BF5B
:10A6B000002000906846FDF7E8FD07EB4701D6480B
:10A6C000183000EBC104E068451CA068A84200D126
:10A6D00000252069A84206D0E168606800F8018082
:10A6E000E560012600E000269DF80000FDF7D3FD9F
:10A6F0003046BDE8F8832DE9F8430746884600BF99
:10A70000C548007808B9FFF785FD00BF002000901C
:10A710006846FDF7BAFD07EB4701BF48183000EB6C
:10A72000C104E068451CA068A84200D1002560690A
:10A73000022803D100BF2069A842FCD02069A842AA
:10A7400006D0E168606800F80180E560012600E05D
:10A7500000269DF80000FDF79EFD3046BDE8F88319
:10A7600038B5012269460020FFF740FE0446012C5F
:10A7700002D19DF8004001E04FF0FF34204638BD83
:10A7800010B500BFFFF7ECFF0028FBDB10BD70B574
:10A7900000BFA148007808B9FFF73CFD00BF9E4804
:10A7A000856D406DA84201D0012400E000242046C0
:10A7B00070BD10B5014601EB41049748483000EBED
:10A7C000C402D3681069181A10BD2DE9F843054674
:10A7D0000E461746984600BF8F48007808B9FFF725
:10A7E00019FD00BF002000906846FDF74EFD0024D3
:10A7F00000BF04EB44018848483000EBC1004068CA
:10A8000000B904E0641C84484069A042F1DC00BF48
:10A8100081484069A04229DD04EB44017E4848306C
:10A8200040F8315004EB440100EBC100466004EBFA
:10A8300044017948483000EBC1008760002104EBF7
:10A8400044027548483000EBC200016104EB440249
:10A850007148483000EBC200C16004EB44016E480F
:10A86000483000EBC100C0F8148001E04FF0FF3425
:10A870009DF80000FDF70FFD2046BDE8F8832DE9A7
:10A88000F84305460E461746984600BF62480078D2
:10A8900008B9FFF7BFFC00BF002000906846FDF735
:10A8A000F4FC002400BF04EB44015B48183000EBCB
:10A8B000C100406800B904E0641C57480069A04228
:10A8C000F1DC00BF54480069A04229DD04EB4401DB
:10A8D0005148183040F8315004EB440100EBC100FE
:10A8E000466004EB44014C48183000EBC10087601F
:10A8F000002104EB44024848183000EBC20001611B
:10A9000004EB44024448183000EBC200C16004EB81
:10A9100044014148183000EBC100C0F8148001E048
:10A920004FF0FF349DF80000FDF7B5FC2046BDE870
:10A93000F8832DE9F84304460E4617469846DDF89D
:10A94000209000BF3448007808B9FFF763FC00BFCF
:10A9500031480069A04235D9002000906846FDF7D3
:10A9600094FC0CB304EB44012B48183040F83160E0
:10A9700004EB440100EBC100476004EB44012648AE
:10A98000183000EBC100C0F80880002104EB44023D
:10A990002148183000EBC200016104EB44021E485C
:10A9A000183000EBC200C16004EB44011A481830B3
:10A9B00000EBC100C0F814909DF80000FDF76BFC9F
:10A9C000002501E04FF0FF352846BDE8F8832DE96A
:10A9D000F84304460E4617469846DDF8209000BF1F
:10A9E0000D48007808B9FFF715FC00BF0A48406918
:10A9F000A04234D9002000906846FDF746FC0CB315
:10AA000004EB44010448483040F8316004EB440151
:10AA100000EBC100476001E0EC37002004EB44018B
:10AA2000BA4800EBC100C0F80880002104EB4402E2
:10AA3000B64800EBC200016104EB4402B34800EBEE
:10AA4000C200C16004EB4401B04800EBC100C0F893
:10AA500014909DF80000FDF71EFC002501E04FF06A
:10AA6000FF352846BDE8F883F8B504460E4600BF1A
:10AA7000A6484838007808B9FFF7CCFB00BFA348C8
:10AA800048380069A04210D9002000906846FDF7C0
:10AA9000FCFB04EB44019D48303840F831609DF8E0
:10AAA0000000FDF7F8FB002501E04FF0FF352846D8
:10AAB000F8BDF8B504460E4600BF94484838007803
:10AAC00008B9FFF7A7FB00BF904848384069A0428B
:10AAD0000FD9002000906846FDF7D7FB04EB440136
:10AAE0008A4840F831609DF80000FDF7D4FB00254E
:10AAF00001E04FF0FF352846F8BDF8B504460E4694
:10AB000000BF82484838007808B9FFF783FB00BFD0
:10AB10007E4848380069A04211D90020009068465C
:10AB2000FDF7B3FB04EB44017848303800EBC1007B
:10AB300046619DF80000FDF7AEFB002501E04FF0F7
:10AB4000FF352846F8BDF8B504460E4600BF6F48ED
:10AB50004838007808B9FFF75DFB00BF6B484838FC
:10AB60004069A04210D9002000906846FDF78DFB97
:10AB700004EB4401654800EBC10046619DF800000C
:10AB8000FDF789FB002501E04FF0FF352846F8BDB1
:10AB900010B5FFF73FFB10BD2DE9FC41044600BF97
:10ABA0005A484838007808B9FFF734FB00BF00273F
:10ABB000FF208DF80400102C2CDA5548005D8DF82C
:10ABC0000500524D303D002000906846FDF75DFBCA
:10ABD000287D00F00300022807D14E4804700222AD
:10ABE00001A92846FFF73BFB0FE02846FFF7A6FB2D
:10ABF0000646022E07D347480470022201A92846C0
:10AC0000FFF766FB01E04FF0FF379DF80000FDF70E
:10AC100042FB01E04FF0FF373846BDE8FC812DE9EB
:10AC2000F8430746894600BF38484838007808B9D5
:10AC3000FFF7F0FA00BF102F63DADFF8D080A8F139
:10AC40003008484600F078FD06460020009068462F
:10AC5000FDF71BFB4046FFF771FB054698F8140013
:10AC600000F0030020B1012817D0022840D12FE0C6
:10AC7000301D854201D200240EE039464046FFF7E0
:10AC80004DFB324649464046FFF7E9FA0446214863
:10AC900001784046FFF742FB2DE0042D02D24FF031
:10ACA000FF3414E039464046FFF738FB281FB04216
:10ACB00001D9304600E0281F024649464046FFF7CA
:10ACC000CEFA0446134801784046FFF727FB12E00E
:10ACD00039464046FFF722FB324649464046FFF7D9
:10ACE000BEFA04460B4801784046FFF717FB02E026
:10ACF0004FF0FF3400BF00BF9DF80000FDF7CBFA16
:10AD000001E04FF0FF342046BDE8F88334380020DE
:10AD1000E82A0020F82A00200146202908DA01202C
:10AD20008840C94A104008B1012070470020FCE764
:10AD3000402909DAA1F12000012202FA00F008B14D
:10AD40000120F2E70020F0E70120EEE7FEB505461E
:10AD5000BE496846FEF762FA0DE0684600F028F941
:10AD60000446266828466168B04708B91120FEBD30
:10AD70006846FEF75DFA684600F01AF90028ECD143
:10AD800000BFF4E7FEB50546B1496846FEF746FA4E
:10AD90000AE0684600F00CF9044626682846616817
:10ADA000B0476846FEF744FA684600F001F900280B
:10ADB000EFD1FEBD70B5162000F0FDF8044600BFCF
:10ADC000254625B100BF2846FCF7CEFB00BF00BFDB
:10ADD00070BD70B516242046FFF79EFF10B942F2F1
:10ADE00001001CE09B48806868B16009994951F8EE
:10ADF000200004F01F020121914088436109954A17
:10AE000042F821000AE000BF04F01F010120884041
:10AE10009149620941F8220000BF00BF00200546A9
:10AE200000BF2C4624B100BF2046FCF79DFB00BFAD
:10AE300000BF70BD38B58948007808B1082038BD1A
:10AE40000120874908700020FFF780FF112801D1F9
:10AE50000020F4E70020FFF795FF8248006800908B
:10AE60008149684610DF04460CB12046E7E701201F
:10AE70007A49087000207A4908707C490870FFF709
:10AE800099FF0120FFF77EFF0020D8E710B5734837
:10AE9000007808B9082010BD012071490870FFF73B
:10AEA00055FF112801D10020F5E70220FFF76AFFC6
:10AEB00011DF04460CB12046EDE700206749087019
:10AEC00067490870FFF785FF0320FFF75BFF00204D
:10AED000E1E710B56248007808B9082010BD5F4866
:10AEE000007810B1FFF7D2FFF8E7FFF7A3FFF5E70F
:10AEF0005A480078704710B55848007800B910BD1E
:10AF0000FFF767FF01205949087000BFF7E770B5E8
:10AF10005648007810B15148007800B970BD162429
:10AF20002046FFF7F9FE60B100BF04F01F010120C9
:10AF3000884049498031620941F8220000BF002061
:10AF400001E042F20100054600BF2C4624B100BFDB
:10AF50002046FCF709FB00BF00BFFFF72BFF0020D6
:10AF60004249087000BFD9E73C48007810B13F481B
:10AF7000007808B1012070470020FCE73EB53C494D
:10AF80006846FEF74BF909E0684600F011F8044600
:10AF900025686068A8476846FEF74AF9684600F0E9
:10AFA00007F80028F0D13EBD10B5FFF7E7FF10BD50
:10AFB00001468868704710B504462046FFF7ACFE8E
:10AFC00010B942F2010010BD2146002906DA294AD3
:10AFD00001F00F031B1FD25C520902E0264A525CAB
:10AFE00052091046082801D3002109E028B10128A0
:10AFF00003D0042801D0052801D1002100E001215F
:10B0000011B942F20200DEE71248806868B16009B7
:10B01000104951F8200004F01F020121914008431B
:10B0200061090C4A42F821000CE000BF04F01F0146
:10B03000012088406109890001F1E021C1F8000187
:10B0400000BF00BF0020BEE7FC06FFBD14BB02002E
:10B0500030BB02001032002080E100E0F92A00201D
:10B06000FB2A002058BB020031B80200FA2A002057
:10B070004CBB020018ED00E000E400E0014609B915
:10B080000E2070478048006808600020F9E7FEB590
:10B0900006460C462046FFF7F1FF05460DB128464F
:10B0A000FEBD00200090019002908DF8006001200C
:10B0B0008DF802000321ADF80410694620202268B3
:10B0C00069DF054665B12846FEF7E8F807466F498F
:10B0D0000988012242EA01403A466D49FEF701FE25
:10B0E000002000900190029001208DF800000020C7
:10B0F0008DF801008DF8020069464020226869DF62
:10B10000054665B12846FEF7C9F807465F49098834
:10B11000012242EA01403A465E49FEF7E2FD002084
:10B1200000900190029001208DF80000694622688D
:10B1300069DF054665B12846FEF7B0F80746534972
:10B140000988012242EA01403A465349FEF7C9FD07
:10B1500000200090019002904FF4B060009069468A
:10B16000A120226869DF054665B12846FEF796F8FA
:10B17000074646490988012242EA01403A464749C2
:10B18000FEF7AFFD00200090019002908DF80000C6
:10B190006946A020226869DF054665B12846FEF7AA
:10B1A0007DF8074639490988012242EA01403A46BA
:10B1B0003B49FEF796FD002072E73A48006881029D
:10B1C00001F1005070472DE9F04104462568204602
:10B1D00060DF06462068A84216D02C490988022262
:10B1E00042EA01402A4630A12368FEF786FDFFF7B8
:10B1F000E4FF2168471A25490988022242EA0140F2
:10B200003A4635A1FEF76DFD66B13046FEF746F8C9
:10B2100007461E490988012242EA01403A4637A101
:10B22000FEF75FFD3046BDE8F0812DE9F04192B0B8
:10B2300080461CE03820039003A904A861DF04467F
:10B2400004B115E004AD35496846FDF7E7FF09E0B4
:10B2500000BF02980646376828467168B8476846B6
:10B26000FDF7E6FF00BF02980028F1D100BFE1E73B
:10B2700000BF052C04D000BF2046FCF775F900BFC5
:10B2800012B0BDE8F081000088BB0200602B0020F6
:10B29000D0C1020018C2020030C102007CC102000D
:10B2A000DCC002000C01001052414D207374617229
:10B2B000747320617420307825782C2063616E20AF
:10B2C00062652061646A757374656420746F2030F0
:10B2D0007825782E0000000052414D2073697A6570
:10B2E0002063616E2062652061646A7573746564B1
:10B2F00020746F20307825782E00000073645F6220
:10B300006C655F656E61626C652829207265747575
:10B31000726E65642025732E000000007CBB020065
:10B320002DE9FF41074618E003A848DF044604B1B1
:10B3300014E00F496846FDF771FF09E000BF02986D
:10B3400005462E6869680398B0476846FDF770FFA8
:10B3500000BF02980028F1D100BFE5E700BF052C2F
:10B3600004D000BF2046FCF7FFF800BFBDE8FF8116
:10B370009CBB02000648804706480047FEE7FEE700
:10B38000FEE7FEE7FEE7FEE7FEE7FEE7FEE7FEE795
:10B3900049B4020001220200A748A849086070478A
:10B3A000A7480068082805D1A548001D006808B90D
:10B3B000012070470020FCE7A1480068082805D15B
:10B3C0009F48001D006808B9012070470020FCE775
:10B3D0009B480068082805D19948001D006808B9F5
:10B3E000012070470020FCE795480068082805D137
:10B3F0009348001D006808B9012070470020FCE751
:10B400008F480068082805D18D48001D006808B9DC
:10B41000012070470020FCE789480068082805D112
:10B420008748001D006808B9012070470020FCE72C
:10B4300083480068082805D18148001D006808B9C4
:10B44000012070470020FCE710B5FFF7F1FF40B185
:10B4500000207C4908604FF08041C1F810017A4912
:10B460000860FFF7D9FF002855D078480068784970
:10B4700008607648001D0068091D086073480830A0
:10B480000068091D086071480C300068091D0860DB
:10B490006E4810300068091D08606C481430006860
:10B4A000091D086069481830006869492031086042
:10B4B00066481C300068091D086064482030006838
:10B4C000091D0860614824300068091D08605F4854
:10B4D00028300068091D08605C482C300068091D90
:10B4E00008605A4830300068594940310860574870
:10B4F00034300068091D0860544838300068091D60
:10B50000086052483C300068091D08604F484030D0
:10B510000068091D0860FFF773FF10B14D484E49E0
:10B520000860FFF761FF10B1FB204C490860FFF78E
:10B530004FFF38B14A4801784A48006861F3030078
:10B5400048490860FFF738FF18B14FF400704649CA
:10B550000860FFF725FF40B14448006800F0010093
:10B5600018B16FF00100414908604148006840F49B
:10B5700070003F49086000BF00BF00BFBFF34F8F9E
:10B5800000BF00BF00BF00BF00BF00BFBFF36F8F91
:10B5900000BF00BF00BF3748006800F0004030B96E
:10B5A0003448001D006800F00040002840D0012011
:10B5B0003149086000BF314800680028FBD01220E4
:10B5C0002C49086000BF2D4800680028FBD01221DC
:10B5D0002848001D016000BF284800680028FBD0F3
:10B5E00000202549086000BF244800680028FBD0DF
:10B5F00000BF00BF00BF00BF00BFBFF34F8F00BF41
:10B6000000BF00BF1A487C38006800F4E0601C49A5
:10B610000843001D16497C39086000BF00BF00BF09
:10B62000BFF34F8F00BF00BF00BF00BF00BFFDE7EB
:10B63000FFF7B2FE10BD00000090D003FC2A0020EE
:10B64000300100100C0100403805004004040010D7
:10B6500020C50040488103008C56004018F500408A
:10B6600058020010E40E00404096024000040040E2
:10B6700088ED00E00012001004E5014000E4014004
:10B680000000FA052DE9F05F0546002092469B4632
:10B6900088460646814640241BE0284641464746E8
:10B6A000224600F068F853465A46C01A914110D31A
:10B6B00011461846224600F04FF82D1A67EB010894
:10B6C0004F4622460120002100F046F817EB000902
:10B6D0004E41201EA4F10104DFDC484631462A46D3
:10B6E0004346BDE8F09F0000004870472CBC0200B4
:10B6F00040EA01039B0703D009E008C9121F08C0F4
:10B70000042AFAD203E011F8013B00F8013B521E73
:10B71000F9D27047D2B201E000F8012B491EFBD2EA
:10B7200070470022F6E710B513460A46044619464C
:10B73000FFF7F0FF204610BD421C10F8011B002946
:10B74000FBD1801A7047034611F8012B00F8012B3A
:10B75000002AF9D118467047202A04DB203A00FA63
:10B7600002F1002070479140C2F1200320FA03F358
:10B77000194390407047202A04DB203A21FA02F056
:10B780000021704721FA02F3D040C2F1200291401B
:10B790000843194670470000064C074D06E0E06874
:10B7A00040F0010394E8070098471034AC42F6D308
:10B7B000F6F72AFDC0C20200E0C2020070B58C1884
:10B7C00010F8015B15F0070301D110F8013B2A11B5
:10B7D00006D110F8012B03E010F8016B01F8016BA2
:10B7E0005B1EF9D12B0705D40023521E0DD401F89E
:10B7F000013BFAE710F8013BCB1A921C03E013F867
:10B80000015B01F8015B521EF9D5A142D8D300209B
:10B8100070BD02E008C8121F08C1002AFAD17047A3
:10B820007047002001E001C1121F002AFBD17047C0
:10B83000FEF799FBFEF7B1F80028FBD1104C01216F
:10B84000208801EB00400FA1FEF741FA1048006884
:10B85000C00700D000BE2088022101EB00400DA1EE
:10B86000FEF735FABFF34F8F0948E43801680D4AF7
:10B8700001F4E06111430160BFF34F8F00BFFDE7AA
:10B88000482B0020466174616C206572726F7200F3
:10B89000F0ED00E053797374656D20726573657423
:10B8A000000000000400FA051D0000001F00000059
:10B8B0000800000029000000000000000000D60180
:10B8C0000D0E2A14160C1819942E0020B42E0020E8
:10B8D000E02E0020160003003F3002000C000300A1
:10B8E0003F300200180003003F300200190003003F
:10B8F0003F300200770A000000000000770A0000D5
:10B90000000000007ADA00000000000001000000E2
:10B910000000000000000000000000009ECADC24BF
:10B920000EE5A9E093F3A3B50000406E00000050BF
:10B93000000300506E72665F6472765F6770696FB5
:10B9400074655F696E6974006E72665F6472765FBB
:10B950006770696F74655F6F75745F696E69740095
:10B960006E72665F6472765F6770696F74655F6937
:10B970006E5F696E69740000A4300020030000004F
:10B98000FFFFFFFFFFFFFFFFFFFFFFFFFFFFFFFFC7
:10B9900000000000000000000000D60107010000C8
:10B9A00030313233343536373839414243444546F5
:10B9B000001000000400000001000000A832002078
:10B9C0006F8E0200AD8E0200178F0200C78E02003C
:10B9D000338F0200838F0200898F02008F8F020055
:10B9E000556E6B6E6F776E206572726F7220636F2B
:10B9F000646500000000000038C002000100000083
:10BA0000F8BE02000200000078BD02000300000042
:10BA10006CBF020004000000C0BF0200050000006F
:10BA2000B8BE02000600000058BE02000700000079
:10BA3000A8BF020008000000CCBE02000900000000
:10BA400018BF02000A00000020C002000B00000026
:10BA500060BD02000C000000E4BE02000D0000000A
:10BA600044C002000E00000098BF02000F0000005A
:10BA7000D4BF02001000000008C002001100000046
:10BA800058C002008000000098BE02008100000043
:10BA90001CBE020082000000DCBD0200830000002A
:10BAA000BCBD020084000000F8BD0200850000005B
:10BAB00070BE02008600000080BF020090000000FF
:10BAC00038BE0200910000009CBD02000082000010
:10BAD000E8BF02000182000034BF020002820000C1
:10BAE00050BF02009B940200B5940200B394020080
:10BAF000A42A00209C2A0020A42A00200C33002025
:10BB00001800000068C3020070C3020000000000BB
:10BB10000000000004BB020014BB0200080000008B
:10BB200098C30200A8C3020000000000000000004B
:10BB300020BB020030BB02000800000088C30200E6
:10BB400098C3020000000000000000003CBB02009F
:10BB50004CBB0200080000000100000730C30200D7
:10BB600038C3020038C3020058C3020058C30200A1
:10BB700060C3020060C3020068C302005CBB020035
:10BB80007CBB020008000000182A002070C30200DD
:10BB900080C3020080C3020088C302008CBB020085
:10BBA0009CBB020008000000004040404040404074
:10BBB0004040414141414140404040404040404080
:10BBC0004040404040404040400502020202020224
:10BBD0000202020202020202022020202020202073
:10BBE0002020200202020202020290909090909087
:10BBF0001010101010101010101010101010101045
:10BC000010101010020202020202888888888888B8
:10BC100008080808080808080808080808080808A4
:10BC2000080808080202020240000000A9BB020046
:10BC300073645F626C655F67617474635F6578638A
:10BC400068616E67655F6D74755F72657175657348
:10BC50007428292072657475726E656420756E652E
:10BC6000787065637465642076616C7565203078E2
:10BC700025782E0073645F626C655F67617474730E
:10BC80005F65786368616E67655F6D74755F726527
:10BC9000706C7928292072657475726E65642075E0
:10BCA0006E65787065637465642076616C75652077
:10BCB000307825782E00000073645F626C655F67E2
:10BCC00061705F646174615F6C656E6774685F75F5
:10BCD0007064617465282920287265706C79292048
:10BCE00072657475726E656420756E6578706563D3
:10BCF0007465642076616C756520307825782E0037
:10BD000073645F626C655F6761705F646174615FDB
:10BD10006C656E6774685F7570646174652829204E
:10BD2000287265717565737429206F6E20636F6E5C
:10BD30006E656374696F6E20307825782072657443
:10BD400075726E656420756E657870656374656480
:10BD50002076616C756520307825782E0000000013
:10BD60004E52465F4552524F525F494E56414C49E2
:10BD7000445F4441544100004E52465F4552524F89
:10BD8000525F534F46544445564943455F4E4F54C6
:10BD90005F454E41424C4544000000004E52465F14
:10BDA0004552524F525F464541545552455F4E4FA2
:10BDB000545F454E41424C45440000004E52465FA0
:10BDC0004552524F525F4D555445585F554E4C4F5A
:10BDD000434B5F4641494C45440000004E52465F8C
:10BDE0004552524F525F4D555445585F4C4F434B4F
:10BDF0005F4641494C4544004E52465F4552524FC2
:10BE0000525F4D555445585F434F4E445F494E492C
:10BE1000545F4641494C4544000000004E52465F85
:10BE20004552524F525F4D555445585F494E495403
:10BE30005F4641494C4544004E52465F4552524F81
:10BE4000525F4150495F4E4F545F494D504C454DF4
:10BE5000454E5445440000004E52465F4552524FF5
:10BE6000525F4E4F545F535550504F52544544000B
:10BE70004E52465F4552524F525F4D4F44554C45CE
:10BE80005F414C52454144595F494E495449414CE8
:10BE9000495A4544000000004E52465F4552524FF9
:10BEA000525F4D4F44554C455F4E4F545F494E498C
:10BEB0005449414C5A4544004E52465F4552524FF8
:10BEC000525F4E4F545F464F554E44004E52465FB0
:10BED0004552524F525F494E56414C49445F53546C
:10BEE000415445004E52465F4552524F525F4441C5
:10BEF00054415F53495A45004E52465F4552524F96
:10BF0000525F5356435F48414E444C45525F4D4942
:10BF10005353494E470000004E52465F4552524F20
:10BF2000525F494E56414C49445F4C454E47544838
:10BF3000000000004E52465F4552524F525F44523D
:10BF4000565F5457495F4552525F414E41434B0043
:10BF50004E52465F4552524F525F4452565F5457BD
:10BF6000495F4552525F444E41434B004E52465F3B
:10BF70004552524F525F494E5445524E414C00007B
:10BF80004E52465F4552524F525F53544F524147B3
:10BF9000455F46554C4C00004E52465F4552524F4D
:10BFA000525F4E554C4C00004E52465F4552524F28
:10BFB000525F494E56414C49445F504152414D00F9
:10BFC0004E52465F4552524F525F4E4F5F4D454D68
:10BFD000000000004E52465F4552524F525F464F9E
:10BFE0005242494444454E004E52465F4552524FDC
:10BFF000525F4452565F5457495F4552525F4F5605
:10C00000455252554E0000004E52465F4552524F27
:10C01000525F494E56414C49445F414444520000EE
:10C020004E52465F4552524F525F494E56414C491F
:10C03000445F464C414753004E52465F535543437D
:10C04000455353004E52465F4552524F525F54493A
:10C050004D454F55540000004E52465F4552524FD9
:10C06000525F4255535900004F766572666C6F7788
:10C07000000000007761726E696E6700646562752A
:10C08000670000001B5B313B33306D001B5B306D84
:10C09000000000001B5B313B33316D001B5B313B0B
:10C0A00033326D001B5B313B33336D001B5B313B27
:10C0B00033346D001B5B313B33356D001B5B313B13
:10C0C00033366D001B5B313B33376D00696E666F35
:10C0D000000000006572726F7200000073645F629E
:10C0E0006C655F6366675F73657428292072657489
:10C0F00075726E6564202573207768656E206174A3
:10C1000074656D7074696E6720746F207365742038
:10C11000424C455F47415454535F4346475F534544
:10C1200052564943455F4348414E4745442E00001F
:10C1300073645F626C655F6366675F73657428290B
:10C140002072657475726E6564202573207768654A
:10C150006E20617474656D7074696E6720746F20F1
:10C1600073657420424C455F434F4D4D4F4E5F43C6
:10C1700046475F56535F555549442E0073645F62CE
:10C180006C655F6366675F736574282920726574E8
:10C1900075726E6564202573207768656E20617402
:10C1A00074656D7074696E6720746F207365742098
:10C1B000424C455F47415454535F4346475F4154A7
:10C1C00054525F5441425F53495A452E00000000CB
:10C1D00073645F626C655F6366675F73657428296B
:10C1E0002072657475726E656420257320776865AA
:10C1F0006E20617474656D7074696E6720746F2051
:10C2000073657420424C455F434F4E4E5F43464733
:10C210005F4741502E00000073645F626C655F638E
:10C2200066675F73657428292072657475726E6520
:10C2300064202573207768656E20617474656D7065
:10C2400074696E6720746F2073657420424C455F7B
:10C250004741505F4346475F524F4C455F434F5500
:10C260004E542E00626C655F6761747400000000BC
:10C27000636C6F636B0000006770696F746500002A
:10C28000756172740000000062616C6C6F63000085
:10C290007077725F6D676D740000000061707000F0
:10C2A0006E72665F736468006E72665F7364685F67
:10C2B000626C65006E72665F7364685F736F6300C3
:10C2C000A8C30200182A002060010000BCB70200C9
:10C2D00000C40200782B0020002F000022B80200CA
:10C2E00064C202000000030070C2020000000000EF
:10C2F00078C202000000000080C2020000000000BE
:10C3000088C202000000000090C20200000000008D
:10C310009CC2020000000300A0C202000000030053
:10C32000A8C2020000000300B4C202000000030023
:10C330004D49020000000000EB520200942B002047
:10C3400037430200A82B0020413702000000000004
:10C35000CF4702000000000057560200782B002053
:10C36000D5260200000000009F8F020000000000A0
:10C37000A15A020000000000518D020000000000E0
:10C3800073430200A82B00202BB202000000000023
:10C3900021B3020000000000B15A020000000000BA
:10C3A000B58F02000000000014FFFF1412010256B6
:10C3B0000212200218400B18E4BA744B68C01C1A11
:10C3C000D4081A74041ACC041A7C041A8C041A8433
:10C3D000041A94041A9C041AA4041AAC041AB4048F
:10C3E0001ABC041AC4045011303132333435363794
:10C3F0003839414243444546047890D00300000058
:0400000500022201D2
:00000001FF
