Component: ARM Compiler 5.06 update 5 (build 528) Tool: armlink [4d35e2]

==============================================================================

Section Cross References

    main.o(i.advertising_init) refers to memseta.o(.text) for __aeabi_memclr4
    main.o(i.advertising_init) refers to ble_advdata.o(i.ble_advdata_encode) for ble_advdata_encode
    main.o(i.advertising_init) refers to app_error.o(i.app_error_handler_bare) for app_error_handler_bare
    main.o(i.advertising_init) refers to main.o(.data) for .data
    main.o(i.advertising_init) refers to main.o(.bss) for .bss
    main.o(i.assert_nrf_callback) refers to app_error_handler_keil.o(.emb_text) for app_error_handler
    main.o(i.main) refers to nrf_log_frontend.o(i.nrf_log_init) for nrf_log_init
    main.o(i.main) refers to app_error.o(i.app_error_handler_bare) for app_error_handler_bare
    main.o(i.main) refers to nrf_log_default_backends.o(i.nrf_log_default_backends_init) for nrf_log_default_backends_init
    main.o(i.main) refers to app_timer.o(i.app_timer_init) for app_timer_init
    main.o(i.main) refers to bsp.o(i.bsp_init) for bsp_init
    main.o(i.main) refers to nrf_pwr_mgmt.o(i.nrf_pwr_mgmt_init) for nrf_pwr_mgmt_init
    main.o(i.main) refers to nrf_sdh.o(i.nrf_sdh_enable_request) for nrf_sdh_enable_request
    main.o(i.main) refers to nrf_sdh_ble.o(i.nrf_sdh_ble_default_cfg_set) for nrf_sdh_ble_default_cfg_set
    main.o(i.main) refers to nrf_sdh_ble.o(i.nrf_sdh_ble_enable) for nrf_sdh_ble_enable
    main.o(i.main) refers to main.o(i.advertising_init) for advertising_init
    main.o(i.main) refers to main.o(i.nrf_delay_ms) for nrf_delay_ms
    main.o(i.main) refers to nrf_log_frontend.o(i.nrf_log_frontend_std_0) for nrf_log_frontend_std_0
==============================================================================

Removing Unused input sections from the image.

    Removing main.o(.rev16_text), (4 bytes).
    Removing main.o(.revsh_text), (4 bytes).
    Removing main.o(.rrx_text), (6 bytes).
    Removing main.o(i.assert_nrf_callback), (16 bytes).
    Removing boards.o(.rev16_text), (4 bytes).
    Removing boards.o(.revsh_text), (4 bytes).
    Removing boards.o(.rrx_text), (6 bytes).
    Removing boards.o(i.bsp_board_button_idx_to_pin), (12 bytes).
    Removing boards.o(i.bsp_board_button_state_get), (32 bytes).
    Removing boards.o(i.bsp_board_led_idx_to_pin), (12 bytes).
    Removing boards.o(i.bsp_board_pin_to_led_idx), (36 bytes).
    Removing bsp.o(.rev16_text), (4 bytes).
    Removing bsp.o(.revsh_text), (4 bytes).
    Removing bsp.o(.rrx_text), (6 bytes).
    Removing bsp.o(i.bsp_button_is_pressed), (12 bytes).
    Removing bsp.o(i.bsp_buttons_disable), (4 bytes).
    Removing bsp.o(i.bsp_buttons_enable), (4 bytes).
    Removing bsp.o(i.bsp_wakeup_button_disable), (6 bytes).
==============================================================================

Image Symbol Table

    Local Symbols

    Symbol Name                              Value     Ov Type        Size  Object(Section)

    ../clib/../cmprslib/zerorunl2.c          0x00000000   Number         0  __dczerorl2.o ABSOLUTE
    ../clib/microlib/ctype/ctype.c           0x00000000   Number         0  islower_o.o ABSOLUTE
    ../clib/microlib/ctype/ctype.c           0x00000000   Number         0  ctype_o.o ABSOLUTE
    ../clib/microlib/ctype/ctype.c           0x00000000   Number         0  isxdigit_o.o ABSOLUTE
    ../clib/microlib/ctype/ctype.c           0x00000000   Number         0  isupper_o.o ABSOLUTE
    ../clib/microlib/ctype/ctype.c           0x00000000   Number         0  isspace_o.o ABSOLUTE
    ../clib/microlib/ctype/ctype.c           0x00000000   Number         0  ispunct_o.o ABSOLUTE
    ../clib/microlib/ctype/ctype.c           0x00000000   Number         0  isprint_o.o ABSOLUTE
    ../clib/microlib/ctype/ctype.c           0x00000000   Number         0  isgraph_o.o ABSOLUTE
    ../clib/microlib/ctype/ctype.c           0x00000000   Number         0  isdigit_o.o ABSOLUTE
    ../clib/microlib/ctype/ctype.c           0x00000000   Number         0  iscntrl_o.o ABSOLUTE
    ../clib/microlib/ctype/ctype.c           0x00000000   Number         0  isblank_o.o ABSOLUTE
    ../clib/microlib/ctype/ctype.c           0x00000000   Number         0  isalpha_o.o ABSOLUTE
    ../clib/microlib/ctype/ctype.c           0x00000000   Number         0  isalnum_o.o ABSOLUTE
    ../clib/microlib/division.c              0x00000000   Number         0  uldiv.o ABSOLUTE
    ../clib/microlib/init/entry.s            0x00000000   Number         0  entry8b.o ABSOLUTE
    ../clib/microlib/init/entry.s            0x00000000   Number         0  entry9b.o ABSOLUTE
    ../clib/microlib/init/entry.s            0x00000000   Number         0  entry7a.o ABSOLUTE
    ../clib/microlib/init/entry.s            0x00000000   Number         0  entry2.o ABSOLUTE
    ../clib/microlib/init/entry.s            0x00000000   Number         0  entry5.o ABSOLUTE
    ../clib/microlib/init/entry.s            0x00000000   Number         0  entry.o ABSOLUTE
    ../clib/microlib/init/entry.s            0x00000000   Number         0  entry10a.o ABSOLUTE
    ../clib/microlib/init/entry.s            0x00000000   Number         0  entry10b.o ABSOLUTE
    ../clib/microlib/init/entry.s            0x00000000   Number         0  entry11a.o ABSOLUTE
    ../clib/microlib/init/entry.s            0x00000000   Number         0  entry11b.o ABSOLUTE
    ../clib/microlib/init/entry.s            0x00000000   Number         0  entry7b.o ABSOLUTE
    ../clib/microlib/init/entry.s            0x00000000   Number         0  entry8a.o ABSOLUTE
    ../clib/microlib/init/entry.s            0x00000000   Number         0  entry9a.o ABSOLUTE
    ../clib/microlib/longlong.c              0x00000000   Number         0  llushr.o ABSOLUTE
    ../clib/microlib/longlong.c              0x00000000   Number         0  llshl.o ABSOLUTE
    ../clib/microlib/stdio/fflush.c          0x00000000   Number         0  fflush.o ABSOLUTE
    ../clib/microlib/stdio/fputc.c           0x00000000   Number         0  fputc.o ABSOLUTE
    ../clib/microlib/stdio/semi.s            0x00000000   Number         0  semi.o ABSOLUTE
    ../clib/microlib/stdio/streams.c         0x00000000   Number         0  stdout.o ABSOLUTE
    ../clib/microlib/string/memcmp.c         0x00000000   Number         0  memcmp.o ABSOLUTE
    ../clib/microlib/string/memcpy.c         0x00000000   Number         0  memcpya.o ABSOLUTE
    ../clib/microlib/string/memcpy.c         0x00000000   Number         0  memcpyb.o ABSOLUTE
    ../clib/microlib/string/memset.c         0x00000000   Number         0  memseta.o ABSOLUTE
    ../clib/microlib/string/strcmp.c         0x00000000   Number         0  strcmp.o ABSOLUTE
    ../clib/microlib/string/strcpy.c         0x00000000   Number         0  strcpy.o ABSOLUTE
    ../clib/microlib/string/strlen.c         0x00000000   Number         0  strlen.o ABSOLUTE
    ../clib/microlib/stubs.s                 0x00000000   Number         0  iusesemip.o ABSOLUTE
    ../clib/microlib/stubs.s                 0x00000000   Number         0  useno.o ABSOLUTE
    ..\..\..\..\..\..\components\ble\common\ble_advdata.c 0x00000000   Number         0  ble_advdata.o ABSOLUTE
    ..\..\..\..\..\..\components\ble\common\ble_srv_common.c 0x00000000   Number         0  ble_srv_common.o ABSOLUTE
    ..\..\..\..\..\..\components\boards\boards.c 0x00000000   Number         0  boards.o ABSOLUTE
    ..\..\..\..\..\..\components\libraries\atomic\nrf_atomic.c 0x00000000   Number         0  nrf_atomic.o ABSOLUTE
    ..\..\..\..\..\..\components\libraries\atomic_fifo\nrf_atfifo.c 0x00000000   Number         0  nrf_atfifo.o ABSOLUTE
    ..\..\..\..\..\..\components\libraries\balloc\nrf_balloc.c 0x00000000   Number         0  nrf_balloc.o ABSOLUTE
    ..\..\..\..\..\..\components\libraries\bsp\bsp.c 0x00000000   Number         0  bsp.o ABSOLUTE
    ..\..\..\..\..\..\components\libraries\button\app_button.c 0x00000000   Number         0  app_button.o ABSOLUTE
    ..\..\..\..\..\..\components\libraries\experimental_log\src\nrf_log_backend_rtt.c 0x00000000   Number         0  nrf_log_backend_rtt.o ABSOLUTE
    ..\..\..\..\..\..\components\libraries\experimental_log\src\nrf_log_backend_serial.c 0x00000000   Number         0  nrf_log_backend_serial.o ABSOLUTE
    ..\..\..\..\..\..\components\libraries\experimental_log\src\nrf_log_backend_uart.c 0x00000000   Number         0  nrf_log_backend_uart.o ABSOLUTE
    ..\..\..\..\..\..\components\libraries\experimental_log\src\nrf_log_default_backends.c 0x00000000   Number         0  nrf_log_default_backends.o ABSOLUTE
    ..\..\..\..\..\..\components\libraries\experimental_log\src\nrf_log_frontend.c 0x00000000   Number         0  nrf_log_frontend.o ABSOLUTE
    ..\..\..\..\..\..\components\libraries\experimental_log\src\nrf_log_str_formatter.c 0x00000000   Number         0  nrf_log_str_formatter.o ABSOLUTE
    ..\..\..\..\..\..\components\libraries\experimental_memobj\nrf_memobj.c 0x00000000   Number         0  nrf_memobj.o ABSOLUTE
    ..\..\..\..\..\..\components\libraries\experimental_section_vars\nrf_section_iter.c 0x00000000   Number         0  nrf_section_iter.o ABSOLUTE
    ..\..\..\..\..\..\components\libraries\hardfault\hardfault_implementation.c 0x00000000   Number         0  hardfault_implementation.o ABSOLUTE
    ..\..\..\..\..\..\components\libraries\pwr_mgmt\nrf_pwr_mgmt.c 0x00000000   Number         0  nrf_pwr_mgmt.o ABSOLUTE
    ..\..\..\..\..\..\components\libraries\scheduler\app_scheduler.c 0x00000000   Number         0  app_scheduler.o ABSOLUTE
    ..\..\..\..\..\..\components\libraries\strerror\nrf_strerror.c 0x00000000   Number         0  nrf_strerror.o ABSOLUTE
    ..\..\..\..\..\..\components\libraries\timer\app_timer.c 0x00000000   Number         0  app_timer.o ABSOLUTE
    ..\..\..\..\..\..\components\libraries\util\app_error.c 0x00000000   Number         0  app_error.o ABSOLUTE
    ..\..\..\..\..\..\components\libraries\util\app_error_handler_keil.c 0x00000000   Number         0  app_error_handler_keil.o ABSOLUTE
    ..\..\..\..\..\..\components\libraries\util\app_error_weak.c 0x00000000   Number         0  app_error_weak.o ABSOLUTE
    ..\..\..\..\..\..\components\libraries\util\app_util_platform.c 0x00000000   Number         0  app_util_platform.o ABSOLUTE
    ..\..\..\..\..\..\components\libraries\util\nrf_assert.c 0x00000000   Number         0  nrf_assert.o ABSOLUTE
    ..\..\..\..\..\..\components\softdevice\common\nrf_sdh.c 0x00000000   Number         0  nrf_sdh.o ABSOLUTE
    ..\..\..\..\..\..\components\softdevice\common\nrf_sdh_ble.c 0x00000000   Number         0  nrf_sdh_ble.o ABSOLUTE
    ..\..\..\..\..\..\components\softdevice\common\nrf_sdh_soc.c 0x00000000   Number         0  nrf_sdh_soc.o ABSOLUTE
    ..\..\..\..\..\..\external\fprintf\nrf_fprintf.c 0x00000000   Number         0  nrf_fprintf.o ABSOLUTE
    ..\..\..\..\..\..\external\fprintf\nrf_fprintf_format.c 0x00000000   Number         0  nrf_fprintf_format.o ABSOLUTE
    ..\..\..\..\..\..\external\segger_rtt\SEGGER_RTT.c 0x00000000   Number         0  segger_rtt.o ABSOLUTE
    ..\..\..\..\..\..\external\segger_rtt\SEGGER_RTT_Syscalls_KEIL.c 0x00000000   Number         0  segger_rtt_syscalls_keil.o ABSOLUTE
    ..\..\..\..\..\..\external\segger_rtt\SEGGER_RTT_printf.c 0x00000000   Number         0  segger_rtt_printf.o ABSOLUTE
    ..\..\..\..\..\..\integration\nrfx\legacy\nrf_drv_clock.c 0x00000000   Number         0  nrf_drv_clock.o ABSOLUTE
    ..\..\..\..\..\..\integration\nrfx\legacy\nrf_drv_uart.c 0x00000000   Number         0  nrf_drv_uart.o ABSOLUTE
    ..\..\..\..\..\..\modules\nrfx\drivers\src\nrfx_clock.c 0x00000000   Number         0  nrfx_clock.o ABSOLUTE
    ..\..\..\..\..\..\modules\nrfx\drivers\src\nrfx_gpiote.c 0x00000000   Number         0  nrfx_gpiote.o ABSOLUTE
    ..\..\..\..\..\..\modules\nrfx\drivers\src\nrfx_power_clock.c 0x00000000   Number         0  nrfx_power_clock.o ABSOLUTE
    ..\..\..\..\..\..\modules\nrfx\drivers\src\nrfx_uart.c 0x00000000   Number         0  nrfx_uart.o ABSOLUTE
    ..\..\..\..\..\..\modules\nrfx\drivers\src\nrfx_uarte.c 0x00000000   Number         0  nrfx_uarte.o ABSOLUTE
    ..\..\..\..\..\..\modules\nrfx\drivers\src\prs\nrfx_prs.c 0x00000000   Number         0  nrfx_prs.o ABSOLUTE
    ..\..\..\main.c                          0x00000000   Number         0  main.o ABSOLUTE
    ..\\..\\..\\..\\..\\..\\components\\ble\\common\\ble_advdata.c 0x00000000   Number         0  ble_advdata.o ABSOLUTE
    ..\\..\\..\\..\\..\\..\\components\\ble\\common\\ble_srv_common.c 0x00000000   Number         0  ble_srv_common.o ABSOLUTE
    ..\\..\\..\\..\\..\\..\\components\\boards\\boards.c 0x00000000   Number         0  boards.o ABSOLUTE
    ..\\..\\..\\..\\..\\..\\components\\libraries\\atomic\\nrf_atomic.c 0x00000000   Number         0  nrf_atomic.o ABSOLUTE
    ..\\..\\..\\..\\..\\..\\components\\libraries\\atomic_fifo\\nrf_atfifo.c 0x00000000   Number         0  nrf_atfifo.o ABSOLUTE
    ..\\..\\..\\..\\..\\..\\components\\libraries\\balloc\\nrf_balloc.c 0x00000000   Number         0  nrf_balloc.o ABSOLUTE
    ..\\..\\..\\..\\..\\..\\components\\libraries\\bsp\\bsp.c 0x00000000   Number         0  bsp.o ABSOLUTE
    ..\\..\\..\\..\\..\\..\\components\\libraries\\button\\app_button.c 0x00000000   Number         0  app_button.o ABSOLUTE
    ..\\..\\..\\..\\..\\..\\components\\libraries\\experimental_log\\src\\nrf_log_backend_rtt.c 0x00000000   Number         0  nrf_log_backend_rtt.o ABSOLUTE
    ..\\..\\..\\..\\..\\..\\components\\libraries\\experimental_log\\src\\nrf_log_backend_serial.c 0x00000000   Number         0  nrf_log_backend_serial.o ABSOLUTE
    ..\\..\\..\\..\\..\\..\\components\\libraries\\experimental_log\\src\\nrf_log_backend_uart.c 0x00000000   Number         0  nrf_log_backend_uart.o ABSOLUTE
    ..\\..\\..\\..\\..\\..\\components\\libraries\\experimental_log\\src\\nrf_log_default_backends.c 0x00000000   Number         0  nrf_log_default_backends.o ABSOLUTE
    ..\\..\\..\\..\\..\\..\\components\\libraries\\experimental_log\\src\\nrf_log_frontend.c 0x00000000   Number         0  nrf_log_frontend.o ABSOLUTE
    ..\\..\\..\\..\\..\\..\\components\\libraries\\experimental_log\\src\\nrf_log_str_formatter.c 0x00000000   Number         0  nrf_log_str_formatter.o ABSOLUTE
    ..\\..\\..\\..\\..\\..\\components\\libraries\\experimental_memobj\\nrf_memobj.c 0x00000000   Number         0  nrf_memobj.o ABSOLUTE
    ..\\..\\..\\..\\..\\..\\components\\libraries\\experimental_section_vars\\nrf_section_iter.c 0x00000000   Number         0  nrf_section_iter.o ABSOLUTE
    ..\\..\\..\\..\\..\\..\\components\\libraries\\hardfault\\hardfault_implementation.c 0x00000000   Number         0  hardfault_implementation.o ABSOLUTE
    ..\\..\\..\\..\\..\\..\\components\\libraries\\pwr_mgmt\\nrf_pwr_mgmt.c 0x00000000   Number         0  nrf_pwr_mgmt.o ABSOLUTE
    ..\\..\\..\\..\\..\\..\\components\\libraries\\scheduler\\app_scheduler.c 0x00000000   Number         0  app_scheduler.o ABSOLUTE
    ..\\..\\..\\..\\..\\..\\components\\libraries\\strerror\\nrf_strerror.c 0x00000000   Number         0  nrf_strerror.o ABSOLUTE
    ..\\..\\..\\..\\..\\..\\components\\libraries\\timer\\app_timer.c 0x00000000   Number         0  app_timer.o ABSOLUTE
    ..\\..\\..\\..\\..\\..\\components\\libraries\\util\\app_error.c 0x00000000   Number         0  app_error.o ABSOLUTE
    ..\\..\\..\\..\\..\\..\\components\\libraries\\util\\app_error_handler_keil.c 0x00000000   Number         0  app_error_handler_keil.o ABSOLUTE
    ..\\..\\..\\..\\..\\..\\components\\libraries\\util\\app_error_weak.c 0x00000000   Number         0  app_error_weak.o ABSOLUTE
    ..\\..\\..\\..\\..\\..\\components\\libraries\\util\\app_util_platform.c 0x00000000   Number         0  app_util_platform.o ABSOLUTE
    ..\\..\\..\\..\\..\\..\\components\\libraries\\util\\nrf_assert.c 0x00000000   Number         0  nrf_assert.o ABSOLUTE
    ..\\..\\..\\..\\..\\..\\components\\softdevice\\common\\nrf_sdh.c 0x00000000   Number         0  nrf_sdh.o ABSOLUTE
    ..\\..\\..\\..\\..\\..\\components\\softdevice\\common\\nrf_sdh_ble.c 0x00000000   Number         0  nrf_sdh_ble.o ABSOLUTE
    ..\\..\\..\\..\\..\\..\\components\\softdevice\\common\\nrf_sdh_soc.c 0x00000000   Number         0  nrf_sdh_soc.o ABSOLUTE
    ..\\..\\..\\..\\..\\..\\external\\fprintf\\nrf_fprintf.c 0x00000000   Number         0  nrf_fprintf.o ABSOLUTE
    ..\\..\\..\\..\\..\\..\\external\\fprintf\\nrf_fprintf_format.c 0x00000000   Number         0  nrf_fprintf_format.o ABSOLUTE
    ..\\..\\..\\..\\..\\..\\external\\segger_rtt\\SEGGER_RTT.c 0x00000000   Number         0  segger_rtt.o ABSOLUTE
    ..\\..\\..\\..\\..\\..\\external\\segger_rtt\\SEGGER_RTT_Syscalls_KEIL.c 0x00000000   Number         0  segger_rtt_syscalls_keil.o ABSOLUTE
    ..\\..\\..\\..\\..\\..\\external\\segger_rtt\\SEGGER_RTT_printf.c 0x00000000   Number         0  segger_rtt_printf.o ABSOLUTE
    ..\\..\\..\\..\\..\\..\\integration\\nrfx\\legacy\\nrf_drv_clock.c 0x00000000   Number         0  nrf_drv_clock.o ABSOLUTE
    ..\\..\\..\\..\\..\\..\\integration\\nrfx\\legacy\\nrf_drv_uart.c 0x00000000   Number         0  nrf_drv_uart.o ABSOLUTE
    ..\\..\\..\\..\\..\\..\\modules\\nrfx\\drivers\\src\\nrfx_clock.c 0x00000000   Number         0  nrfx_clock.o ABSOLUTE
    ..\\..\\..\\..\\..\\..\\modules\\nrfx\\drivers\\src\\nrfx_gpiote.c 0x00000000   Number         0  nrfx_gpiote.o ABSOLUTE
    ..\\..\\..\\..\\..\\..\\modules\\nrfx\\drivers\\src\\nrfx_power_clock.c 0x00000000   Number         0  nrfx_power_clock.o ABSOLUTE
    ..\\..\\..\\..\\..\\..\\modules\\nrfx\\drivers\\src\\nrfx_uart.c 0x00000000   Number         0  nrfx_uart.o ABSOLUTE
    ..\\..\\..\\..\\..\\..\\modules\\nrfx\\drivers\\src\\nrfx_uarte.c 0x00000000   Number         0  nrfx_uarte.o ABSOLUTE
    ..\\..\\..\\..\\..\\..\\modules\\nrfx\\drivers\\src\\prs\\nrfx_prs.c 0x00000000   Number         0  nrfx_prs.o ABSOLUTE
    ..\\..\\..\\main.c                       0x00000000   Number         0  main.o ABSOLUTE
    RTE\Device\nRF52832_xxAA\arm_startup_nrf52.s 0x00000000   Number         0  arm_startup_nrf52.o ABSOLUTE
    RTE\Device\nRF52832_xxAA\system_nrf52.c  0x00000000   Number         0  system_nrf52.o ABSOLUTE
    RTE\\Device\\nRF52832_xxAA\\system_nrf52.c 0x00000000   Number         0  system_nrf52.o ABSOLUTE
    dc.s                                     0x00000000   Number         0  dc.o ABSOLUTE
    handlers.s                               0x00000000   Number         0  handlers.o ABSOLUTE
    init.s                                   0x00000000   Number         0  init.o ABSOLUTE
    RESET                                    0x00026000   Section      512  arm_startup_nrf52.o(RESET)
    .ARM.Collect$$$$00000000                 0x00026200   Section        0  entry.o(.ARM.Collect$$$$00000000)
    .ARM.Collect$$$$00000001                 0x00026200   Section        4  entry2.o(.ARM.Collect$$$$00000001)
    .ARM.Collect$$$$00000004                 0x00026204   Section        4  entry5.o(.ARM.Collect$$$$00000004)
    .ARM.Collect$$$$00000008                 0x00026208   Section        0  entry7b.o(.ARM.Collect$$$$00000008)
    .ARM.Collect$$$$0000000A                 0x00026208   Section        0  entry8b.o(.ARM.Collect$$$$0000000A)
    .ARM.Collect$$$$0000000B                 0x00026208   Section        8  entry9a.o(.ARM.Collect$$$$0000000B)
    .ARM.Collect$$$$0000000D                 0x00026210   Section        0  entry10a.o(.ARM.Collect$$$$0000000D)
    .ARM.Collect$$$$0000000F                 0x00026210   Section        0  entry11a.o(.ARM.Collect$$$$0000000F)
    .ARM.Collect$$$$00002712                 0x00026210   Section        4  entry2.o(.ARM.Collect$$$$00002712)
    __lit__00000000                          0x00026210   Data           4  entry2.o(.ARM.Collect$$$$00002712)
    .emb_text                                0x00026214   Section      226  nrf_atomic.o(.emb_text)
    $v0                                      0x00026214   Number         0  nrf_atomic.o(.emb_text)
    .text                                    0x000262f8   Section       36  arm_startup_nrf52.o(.text)
    $v0                                      0x000262f8   Number         0  arm_startup_nrf52.o(.text)
    .text                                    0x0002631c   Section        0  uldiv.o(.text)
    .text                                    0x0002637e   Section        0  llshl.o(.text)
    .text                                    0x0002639c   Section        0  ctype_o.o(.text)
    .text                                    0x000263a4   Section        0  memcpya.o(.text)
    .text                                    0x000263c8   Section        0  memseta.o(.text)
    .text                                    0x000263ec   Section        0  strlen.o(.text)
    .text                                    0x000263fa   Section        0  llushr.o(.text)
    .text                                    0x0002641c   Section       36  init.o(.text)
    .text                                    0x00026440   Section        0  __dczerorl2.o(.text)
    i.GPIOTE_IRQHandler                      0x00026498   Section        0  nrfx_gpiote.o(i.GPIOTE_IRQHandler)
    i.NVIC_ClearPendingIRQ                   0x000265fc   Section        0  app_timer.o(i.NVIC_ClearPendingIRQ)
    NVIC_ClearPendingIRQ                     0x000265fd   Thumb Code    22  app_timer.o(i.NVIC_ClearPendingIRQ)
    i.NVIC_EnableIRQ                         0x00026612   Section        0  app_timer.o(i.NVIC_EnableIRQ)
    NVIC_EnableIRQ                           0x00026613   Thumb Code    22  app_timer.o(i.NVIC_EnableIRQ)
    i.NVIC_SetPendingIRQ                     0x00026628   Section        0  app_timer.o(i.NVIC_SetPendingIRQ)
    NVIC_SetPendingIRQ                       0x00026629   Thumb Code    22  app_timer.o(i.NVIC_SetPendingIRQ)
    i.NVIC_SetPriority                       0x0002663e   Section        0  app_timer.o(i.NVIC_SetPriority)
    NVIC_SetPriority                         0x0002663f   Thumb Code    32  app_timer.o(i.NVIC_SetPriority)
    i.POWER_CLOCK_IRQHandler                 0x00026660   Section        0  nrfx_clock.o(i.POWER_CLOCK_IRQHandler)
    i.RTC1_IRQHandler                        0x000266b8   Section        0  app_timer.o(i.RTC1_IRQHandler)
    i.SWI0_EGU0_IRQHandler                   0x000266dc   Section        0  app_timer.o(i.SWI0_EGU0_IRQHandler)
    i.SWI2_EGU2_IRQHandler                   0x000266e0   Section        0  nrf_sdh.o(i.SWI2_EGU2_IRQHandler)
    i.SystemInit                             0x000266e4   Section        0  system_nrf52.o(i.SystemInit)
    i.UARTE0_UART0_IRQHandler                0x00026a00   Section        0  nrfx_prs.o(i.UARTE0_UART0_IRQHandler)
    i.__scatterload_copy                     0x00026a0c   Section       14  handlers.o(i.__scatterload_copy)
    i.__scatterload_null                     0x00026a1a   Section        2  handlers.o(i.__scatterload_null)
    i.__scatterload_zeroinit                 0x00026a1c   Section       14  handlers.o(i.__scatterload_zeroinit)
    i.__sd_nvic_app_accessible_irq           0x00026a2c   Section        0  nrf_sdh.o(i.__sd_nvic_app_accessible_irq)
    __sd_nvic_app_accessible_irq             0x00026a2d   Thumb Code    32  nrf_sdh.o(i.__sd_nvic_app_accessible_irq)
    i.__sd_nvic_is_app_accessible_priority   0x00026a50   Section        0  nrf_sdh.o(i.__sd_nvic_is_app_accessible_priority)
    __sd_nvic_is_app_accessible_priority     0x00026a51   Thumb Code    22  nrf_sdh.o(i.__sd_nvic_is_app_accessible_priority)
    i.advertising_init                       0x00026a68   Section        0  main.o(i.advertising_init)
    advertising_init                         0x00026a69   Thumb Code   108  main.o(i.advertising_init)
    i.alert_timer_handler                    0x00026adc   Section        0  bsp.o(i.alert_timer_handler)
    alert_timer_handler                      0x00026add   Thumb Code     6  bsp.o(i.alert_timer_handler)
    i.app_button_enable                      0x00026ae4   Section        0  app_button.o(i.app_button_enable)
    i.app_button_init                        0x00026b08   Section        0  app_button.o(i.app_button_init)
    i.app_error_fault_handler                0x00026b80   Section        0  app_error_weak.o(i.app_error_fault_handler)
    i.app_error_handler_bare                 0x00026bfc   Section        0  app_error.o(i.app_error_handler_bare)
    i.app_timer_create                       0x00026c14   Section        0  app_timer.o(i.app_timer_create)
    i.app_timer_init                         0x00026c38   Section        0  app_timer.o(i.app_timer_init)
    i.app_timer_start                        0x00026c8c   Section        0  app_timer.o(i.app_timer_start)
    i.app_timer_stop                         0x00026d14   Section        0  app_timer.o(i.app_timer_stop)
    i.app_util_critical_region_enter         0x00026d34   Section        0  app_util_platform.o(i.app_util_critical_region_enter)
    i.app_util_critical_region_exit          0x00026d7c   Section        0  app_util_platform.o(i.app_util_critical_region_exit)
    i.apply_config                           0x00026db0   Section        0  nrfx_uart.o(i.apply_config)
    apply_config                             0x00026db1   Thumb Code   136  nrfx_uart.o(i.apply_config)
    i.apply_config                           0x00026e38   Section        0  nrfx_uarte.o(i.apply_config)
    apply_config                             0x00026e39   Thumb Code   136  nrfx_uarte.o(i.apply_config)
    i.ble_advdata_encode                     0x00026ec0   Section        0  ble_advdata.o(i.ble_advdata_encode)
    i.ble_device_addr_encode                 0x00027042   Section        0  ble_advdata.o(i.ble_device_addr_encode)
    ble_device_addr_encode                   0x00027043   Thumb Code    96  ble_advdata.o(i.ble_device_addr_encode)
    i.bsp_board_init                         0x000270a4   Section        0  boards.o(i.bsp_board_init)
    i.bsp_board_led_invert                   0x000270f8   Section        0  boards.o(i.bsp_board_led_invert)
    i.bsp_board_led_off                      0x0002711c   Section        0  boards.o(i.bsp_board_led_off)
    i.bsp_board_led_on                       0x0002712c   Section        0  boards.o(i.bsp_board_led_on)
    i.bsp_board_led_state_get                0x0002713c   Section        0  boards.o(i.bsp_board_led_state_get)
    i.bsp_board_leds_off                     0x0002715c   Section        0  boards.o(i.bsp_board_leds_off)
    i.bsp_board_leds_on                      0x0002716e   Section        0  boards.o(i.bsp_board_leds_on)
    i.bsp_board_pin_to_button_idx            0x00027180   Section        0  boards.o(i.bsp_board_pin_to_button_idx)
    i.bsp_button_event_handler               0x000271a4   Section        0  bsp.o(i.bsp_button_event_handler)
    bsp_button_event_handler                 0x000271a5   Thumb Code   132  bsp.o(i.bsp_button_event_handler)
    i.bsp_event_to_button_action_assign      0x00027234   Section        0  bsp.o(i.bsp_event_to_button_action_assign)
    i.bsp_indication_set                     0x00027278   Section        0  bsp.o(i.bsp_indication_set)
    i.bsp_init                               0x00027290   Section        0  bsp.o(i.bsp_init)
    i.bsp_led_indication                     0x00027324   Section        0  bsp.o(i.bsp_led_indication)
    bsp_led_indication                       0x00027325   Thumb Code   432  bsp.o(i.bsp_led_indication)
    i.buf_prealloc                           0x000274dc   Section        0  nrf_log_frontend.o(i.buf_prealloc)
    buf_prealloc                             0x000274dd   Thumb Code   138  nrf_log_frontend.o(i.buf_prealloc)
    i.buffer_add                             0x0002756c   Section        0  nrf_fprintf_format.o(i.buffer_add)
    buffer_add                               0x0002756d   Thumb Code    30  nrf_fprintf_format.o(i.buffer_add)
    i.buffer_is_empty                        0x0002758c   Section        0  nrf_log_frontend.o(i.buffer_is_empty)
    i.button_timer_handler                   0x000275a0   Section        0  bsp.o(i.button_timer_handler)
    button_timer_handler                     0x000275a1   Thumb Code     8  bsp.o(i.button_timer_handler)
    i.channel_free                           0x000275a8   Section        0  nrfx_gpiote.o(i.channel_free)
    channel_free                             0x000275a9   Thumb Code    22  nrfx_gpiote.o(i.channel_free)
    i.channel_port_alloc                     0x000275c4   Section        0  nrfx_gpiote.o(i.channel_port_alloc)
    channel_port_alloc                       0x000275c5   Thumb Code    66  nrfx_gpiote.o(i.channel_port_alloc)
    i.channel_port_get                       0x0002760c   Section        0  nrfx_gpiote.o(i.channel_port_get)
    channel_port_get                         0x0002760d   Thumb Code    10  nrfx_gpiote.o(i.channel_port_get)
    i.clock_clk_started_notify               0x0002761c   Section        0  nrf_drv_clock.o(i.clock_clk_started_notify)
    clock_clk_started_notify                 0x0002761d   Thumb Code    34  nrf_drv_clock.o(i.clock_clk_started_notify)
    i.clock_irq_handler                      0x00027644   Section        0  nrf_drv_clock.o(i.clock_irq_handler)
    clock_irq_handler                        0x00027645   Thumb Code    24  nrf_drv_clock.o(i.clock_irq_handler)
    i.compare_reg_update                     0x00027660   Section        0  app_timer.o(i.compare_reg_update)
    compare_reg_update                       0x00027661   Thumb Code   160  app_timer.o(i.compare_reg_update)
    i.conn_int_encode                        0x0002770c   Section        0  ble_advdata.o(i.conn_int_encode)
    conn_int_encode                          0x0002770d   Thumb Code   136  ble_advdata.o(i.conn_int_encode)
    i.detection_delay_timeout_handler        0x00027794   Section        0  app_button.o(i.detection_delay_timeout_handler)
    detection_delay_timeout_handler          0x00027795   Thumb Code   148  app_button.o(i.detection_delay_timeout_handler)
    i.dropped_sat16_get                      0x0002782c   Section        0  nrf_log_frontend.o(i.dropped_sat16_get)
    dropped_sat16_get                        0x0002782d   Thumb Code    16  nrf_log_frontend.o(i.dropped_sat16_get)
    i.elapsed_ticks_acquire                  0x00027840   Section        0  app_timer.o(i.elapsed_ticks_acquire)
    elapsed_ticks_acquire                    0x00027841   Thumb Code    58  app_timer.o(i.elapsed_ticks_acquire)
    i.gpiote_event_handler                   0x00027880   Section        0  app_button.o(i.gpiote_event_handler)
    gpiote_event_handler                     0x00027881   Thumb Code   122  app_button.o(i.gpiote_event_handler)
    i.int_print                              0x00027904   Section        0  nrf_fprintf_format.o(i.int_print)
    int_print                                0x00027905   Thumb Code   166  nrf_fprintf_format.o(i.int_print)
    i.interrupts_enable                      0x000279ac   Section        0  nrfx_uarte.o(i.interrupts_enable)
    interrupts_enable                        0x000279ad   Thumb Code   122  nrfx_uarte.o(i.interrupts_enable)
    i.invalid_packets_pushed_str_omit        0x00027a2c   Section        0  nrf_log_frontend.o(i.invalid_packets_pushed_str_omit)
    invalid_packets_pushed_str_omit          0x00027a2d   Thumb Code    76  nrf_log_frontend.o(i.invalid_packets_pushed_str_omit)
    i.leds_off                               0x00027a78   Section        0  bsp.o(i.leds_off)
    leds_off                                 0x00027a79   Thumb Code    42  bsp.o(i.leds_off)
    i.leds_timer_handler                     0x00027aa8   Section        0  bsp.o(i.leds_timer_handler)
    leds_timer_handler                       0x00027aa9   Thumb Code    16  bsp.o(i.leds_timer_handler)
    i.list_insertions_handler                0x00027abc   Section        0  app_timer.o(i.list_insertions_handler)
    list_insertions_handler                  0x00027abd   Thumb Code   234  app_timer.o(i.list_insertions_handler)
    i.log_skip                               0x00027bb4   Section        0  nrf_log_frontend.o(i.log_skip)
    log_skip                                 0x00027bb5   Thumb Code   148  nrf_log_frontend.o(i.log_skip)
    i.main                                   0x00027c50   Section        0  main.o(i.main)
    i.manuf_specific_data_encode             0x00027d5c   Section        0  ble_advdata.o(i.manuf_specific_data_encode)
    manuf_specific_data_encode               0x00027d5d   Thumb Code   100  ble_advdata.o(i.manuf_specific_data_encode)
    i.memobj_op                              0x00027dc0   Section        0  nrf_memobj.o(i.memobj_op)
    memobj_op                                0x00027dc1   Thumb Code   118  nrf_memobj.o(i.memobj_op)
    i.module_idx_get                         0x00027e38   Section        0  nrf_log_frontend.o(i.module_idx_get)
    module_idx_get                           0x00027e39   Thumb Code    44  nrf_log_frontend.o(i.module_idx_get)
    i.name_encode                            0x00027e68   Section        0  ble_advdata.o(i.name_encode)
    name_encode                              0x00027e69   Thumb Code   156  ble_advdata.o(i.name_encode)
    i.nrf_atomic_flag_clear_fetch            0x00027f04   Section        0  nrf_atomic.o(i.nrf_atomic_flag_clear_fetch)
    i.nrf_atomic_flag_set                    0x00027f0a   Section        0  nrf_atomic.o(i.nrf_atomic_flag_set)
    i.nrf_atomic_u32_add                     0x00027f10   Section        0  nrf_atomic.o(i.nrf_atomic_u32_add)
    i.nrf_atomic_u32_fetch_and               0x00027f1c   Section        0  nrf_atomic.o(i.nrf_atomic_u32_fetch_and)
    i.nrf_atomic_u32_fetch_store             0x00027f26   Section        0  nrf_atomic.o(i.nrf_atomic_u32_fetch_store)
    i.nrf_atomic_u32_or                      0x00027f30   Section        0  nrf_atomic.o(i.nrf_atomic_u32_or)
    i.nrf_atomic_u32_sub                     0x00027f3c   Section        0  nrf_atomic.o(i.nrf_atomic_u32_sub)
    i.nrf_balloc_alloc                       0x00027f48   Section        0  nrf_balloc.o(i.nrf_balloc_alloc)
    i.nrf_balloc_free                        0x00027f8c   Section        0  nrf_balloc.o(i.nrf_balloc_free)
    i.nrf_balloc_init                        0x00027fbc   Section        0  nrf_balloc.o(i.nrf_balloc_init)
    i.nrf_bitmask_bit_is_set                 0x00027fec   Section        0  nrfx_gpiote.o(i.nrf_bitmask_bit_is_set)
    nrf_bitmask_bit_is_set                   0x00027fed   Thumb Code    16  nrfx_gpiote.o(i.nrf_bitmask_bit_is_set)
    i.nrf_bitmask_bit_set                    0x00027ffc   Section        0  nrfx_gpiote.o(i.nrf_bitmask_bit_set)
    nrf_bitmask_bit_set                      0x00027ffd   Thumb Code    20  nrfx_gpiote.o(i.nrf_bitmask_bit_set)
    i.nrf_clock_event_check                  0x00028010   Section        0  nrfx_clock.o(i.nrf_clock_event_check)
    nrf_clock_event_check                    0x00028011   Thumb Code    14  nrfx_clock.o(i.nrf_clock_event_check)
    i.nrf_clock_event_clear                  0x0002801e   Section        0  nrfx_clock.o(i.nrf_clock_event_clear)
    nrf_clock_event_clear                    0x0002801f   Thumb Code    16  nrfx_clock.o(i.nrf_clock_event_clear)
    i.nrf_delay_ms                           0x00028030   Section        0  main.o(i.nrf_delay_ms)
    nrf_delay_ms                             0x00028031   Thumb Code    28  main.o(i.nrf_delay_ms)
    i.nrf_drv_clock_init                     0x00028050   Section        0  nrf_drv_clock.o(i.nrf_drv_clock_init)
    i.nrf_drv_clock_lfclk_release            0x00028088   Section        0  nrf_drv_clock.o(i.nrf_drv_clock_lfclk_release)
    i.nrf_drv_uart_init                      0x000280b8   Section        0  nrf_drv_uart.o(i.nrf_drv_uart_init)
    i.nrf_fprintf                            0x00028120   Section        0  nrf_fprintf.o(i.nrf_fprintf)
    i.nrf_fprintf_buffer_flush               0x0002813a   Section        0  nrf_fprintf.o(i.nrf_fprintf_buffer_flush)
    i.nrf_fprintf_fmt                        0x00028152   Section        0  nrf_fprintf_format.o(i.nrf_fprintf_fmt)
    i.nrf_gpio_cfg                           0x0002832c   Section        0  boards.o(i.nrf_gpio_cfg)
    nrf_gpio_cfg                             0x0002832d   Thumb Code    36  boards.o(i.nrf_gpio_cfg)
    i.nrf_gpio_cfg                           0x00028350   Section        0  nrfx_gpiote.o(i.nrf_gpio_cfg)
    nrf_gpio_cfg                             0x00028351   Thumb Code    36  nrfx_gpiote.o(i.nrf_gpio_cfg)
    i.nrf_gpio_cfg                           0x00028374   Section        0  nrfx_uart.o(i.nrf_gpio_cfg)
    nrf_gpio_cfg                             0x00028375   Thumb Code    36  nrfx_uart.o(i.nrf_gpio_cfg)
    i.nrf_gpio_cfg                           0x00028398   Section        0  nrfx_uarte.o(i.nrf_gpio_cfg)
    nrf_gpio_cfg                             0x00028399   Thumb Code    36  nrfx_uarte.o(i.nrf_gpio_cfg)
    i.nrf_gpio_cfg_default                   0x000283bc   Section        0  nrfx_uart.o(i.nrf_gpio_cfg_default)
    nrf_gpio_cfg_default                     0x000283bd   Thumb Code    18  nrfx_uart.o(i.nrf_gpio_cfg_default)
    i.nrf_gpio_cfg_default                   0x000283ce   Section        0  nrfx_uarte.o(i.nrf_gpio_cfg_default)
    nrf_gpio_cfg_default                     0x000283cf   Thumb Code    18  nrfx_uarte.o(i.nrf_gpio_cfg_default)
    i.nrf_gpio_cfg_input                     0x000283e0   Section        0  nrfx_uart.o(i.nrf_gpio_cfg_input)
    nrf_gpio_cfg_input                       0x000283e1   Thumb Code    18  nrfx_uart.o(i.nrf_gpio_cfg_input)
    i.nrf_gpio_cfg_input                     0x000283f2   Section        0  nrfx_uarte.o(i.nrf_gpio_cfg_input)
    nrf_gpio_cfg_input                       0x000283f3   Thumb Code    18  nrfx_uarte.o(i.nrf_gpio_cfg_input)
    i.nrf_gpio_cfg_output                    0x00028404   Section        0  nrfx_uart.o(i.nrf_gpio_cfg_output)
    nrf_gpio_cfg_output                      0x00028405   Thumb Code    20  nrfx_uart.o(i.nrf_gpio_cfg_output)
    i.nrf_gpio_cfg_output                    0x00028418   Section        0  nrfx_uarte.o(i.nrf_gpio_cfg_output)
    nrf_gpio_cfg_output                      0x00028419   Thumb Code    20  nrfx_uarte.o(i.nrf_gpio_cfg_output)
    i.nrf_gpio_cfg_sense_set                 0x0002842c   Section        0  nrfx_gpiote.o(i.nrf_gpio_cfg_sense_set)
    nrf_gpio_cfg_sense_set                   0x0002842d   Thumb Code    34  nrfx_gpiote.o(i.nrf_gpio_cfg_sense_set)
    i.nrf_gpio_pin_write                     0x0002844e   Section        0  boards.o(i.nrf_gpio_pin_write)
    nrf_gpio_pin_write                       0x0002844f   Thumb Code    22  boards.o(i.nrf_gpio_pin_write)
    i.nrf_gpio_ports_read                    0x00028464   Section        0  nrfx_gpiote.o(i.nrf_gpio_ports_read)
    nrf_gpio_ports_read                      0x00028465   Thumb Code    34  nrfx_gpiote.o(i.nrf_gpio_ports_read)
    i.nrf_gpiote_event_clear                 0x0002848c   Section        0  nrfx_gpiote.o(i.nrf_gpiote_event_clear)
    nrf_gpiote_event_clear                   0x0002848d   Thumb Code    16  nrfx_gpiote.o(i.nrf_gpiote_event_clear)
    i.nrf_gpiote_event_is_set                0x000284a0   Section        0  nrfx_gpiote.o(i.nrf_gpiote_event_is_set)
    nrf_gpiote_event_is_set                  0x000284a1   Thumb Code    12  nrfx_gpiote.o(i.nrf_gpiote_event_is_set)
    i.nrf_log_backend_add                    0x000284b0   Section        0  nrf_log_frontend.o(i.nrf_log_backend_add)
    i.nrf_log_backend_serial_put             0x00028500   Section        0  nrf_log_backend_serial.o(i.nrf_log_backend_serial_put)
    i.nrf_log_backend_uart_flush             0x000285c8   Section        0  nrf_log_backend_uart.o(i.nrf_log_backend_uart_flush)
    nrf_log_backend_uart_flush               0x000285c9   Thumb Code     2  nrf_log_backend_uart.o(i.nrf_log_backend_uart_flush)
    i.nrf_log_backend_uart_init              0x000285ca   Section        0  nrf_log_backend_uart.o(i.nrf_log_backend_uart_init)
    i.nrf_log_backend_uart_panic_set         0x000285d0   Section        0  nrf_log_backend_uart.o(i.nrf_log_backend_uart_panic_set)
    nrf_log_backend_uart_panic_set           0x000285d1   Thumb Code    36  nrf_log_backend_uart.o(i.nrf_log_backend_uart_panic_set)
    i.nrf_log_backend_uart_put               0x000285fc   Section        0  nrf_log_backend_uart.o(i.nrf_log_backend_uart_put)
    nrf_log_backend_uart_put                 0x000285fd   Thumb Code    16  nrf_log_backend_uart.o(i.nrf_log_backend_uart_put)
    i.nrf_log_color_id_get                   0x00028614   Section        0  nrf_log_frontend.o(i.nrf_log_color_id_get)
    i.nrf_log_default_backends_init          0x00028644   Section        0  nrf_log_default_backends.o(i.nrf_log_default_backends_init)
    i.nrf_log_frontend_dequeue               0x00028660   Section        0  nrf_log_frontend.o(i.nrf_log_frontend_dequeue)
    i.nrf_log_frontend_std_0                 0x00028880   Section        0  nrf_log_frontend.o(i.nrf_log_frontend_std_0)
    i.nrf_log_frontend_std_1                 0x00028888   Section        0  nrf_log_frontend.o(i.nrf_log_frontend_std_1)
    i.nrf_log_frontend_std_2                 0x00028896   Section        0  nrf_log_frontend.o(i.nrf_log_frontend_std_2)
    i.nrf_log_hexdump_entry_process          0x000288a8   Section        0  nrf_log_str_formatter.o(i.nrf_log_hexdump_entry_process)
    i.nrf_log_init                           0x00028954   Section        0  nrf_log_frontend.o(i.nrf_log_init)
    i.nrf_log_module_cnt_get                 0x000289ac   Section        0  nrf_log_frontend.o(i.nrf_log_module_cnt_get)
    i.nrf_log_module_name_get                0x000289c0   Section        0  nrf_log_frontend.o(i.nrf_log_module_name_get)
    i.nrf_log_panic                          0x000289dc   Section        0  nrf_log_frontend.o(i.nrf_log_panic)
    i.nrf_log_std_entry_process              0x00028a04   Section        0  nrf_log_str_formatter.o(i.nrf_log_std_entry_process)
    i.nrf_memobj_alloc                       0x00028aba   Section        0  nrf_memobj.o(i.nrf_memobj_alloc)
    i.nrf_memobj_free                        0x00028b1a   Section        0  nrf_memobj.o(i.nrf_memobj_free)
    i.nrf_memobj_get                         0x00028b4c   Section        0  nrf_memobj.o(i.nrf_memobj_get)
    i.nrf_memobj_pool_init                   0x00028b54   Section        0  nrf_memobj.o(i.nrf_memobj_pool_init)
    i.nrf_memobj_put                         0x00028b58   Section        0  nrf_memobj.o(i.nrf_memobj_put)
    i.nrf_memobj_read                        0x00028b76   Section        0  nrf_memobj.o(i.nrf_memobj_read)
    i.nrf_memobj_write                       0x00028b82   Section        0  nrf_memobj.o(i.nrf_memobj_write)
    i.nrf_pwr_mgmt_init                      0x00028b90   Section        0  nrf_pwr_mgmt.o(i.nrf_pwr_mgmt_init)
    i.nrf_pwr_mgmt_run                       0x00028bb8   Section        0  nrf_pwr_mgmt.o(i.nrf_pwr_mgmt_run)
    i.nrf_sdh_ble_app_ram_start_get          0x00028bfc   Section        0  nrf_sdh_ble.o(i.nrf_sdh_ble_app_ram_start_get)
    i.nrf_sdh_ble_default_cfg_set            0x00028c10   Section        0  nrf_sdh_ble.o(i.nrf_sdh_ble_default_cfg_set)
    i.nrf_sdh_ble_enable                     0x00028d10   Section        0  nrf_sdh_ble.o(i.nrf_sdh_ble_enable)
    i.nrf_sdh_ble_evts_poll                  0x00028e3c   Section        0  nrf_sdh_ble.o(i.nrf_sdh_ble_evts_poll)
    nrf_sdh_ble_evts_poll                    0x00028e3d   Thumb Code    82  nrf_sdh_ble.o(i.nrf_sdh_ble_evts_poll)
    i.nrf_sdh_enable_request                 0x00028e98   Section        0  nrf_sdh.o(i.nrf_sdh_enable_request)
    i.nrf_sdh_evts_poll                      0x00028f28   Section        0  nrf_sdh.o(i.nrf_sdh_evts_poll)
    i.nrf_sdh_is_enabled                     0x00028f4c   Section        0  nrf_sdh.o(i.nrf_sdh_is_enabled)
    i.nrf_sdh_soc_evts_poll                  0x00028f58   Section        0  nrf_sdh_soc.o(i.nrf_sdh_soc_evts_poll)
    nrf_sdh_soc_evts_poll                    0x00028f59   Thumb Code    56  nrf_sdh_soc.o(i.nrf_sdh_soc_evts_poll)
    i.nrf_section_iter_init                  0x00028f94   Section        0  nrf_section_iter.o(i.nrf_section_iter_init)
    i.nrf_section_iter_item_set              0x00028f9e   Section        0  nrf_section_iter.o(i.nrf_section_iter_item_set)
    nrf_section_iter_item_set                0x00028f9f   Thumb Code    36  nrf_section_iter.o(i.nrf_section_iter_item_set)
    i.nrf_section_iter_next                  0x00028fc2   Section        0  nrf_section_iter.o(i.nrf_section_iter_next)
    i.nrf_strerror_find                      0x00028fe4   Section        0  nrf_strerror.o(i.nrf_strerror_find)
    i.nrf_strerror_get                       0x0002901c   Section        0  nrf_strerror.o(i.nrf_strerror_get)
    i.nrf_uart_event_check                   0x00029030   Section        0  nrfx_uart.o(i.nrf_uart_event_check)
    nrf_uart_event_check                     0x00029031   Thumb Code    10  nrfx_uart.o(i.nrf_uart_event_check)
    i.nrf_uart_event_clear                   0x0002903a   Section        0  nrfx_uart.o(i.nrf_uart_event_clear)
    nrf_uart_event_clear                     0x0002903b   Thumb Code    12  nrfx_uart.o(i.nrf_uart_event_clear)
    i.nrf_uart_int_enable_check              0x00029046   Section        0  nrfx_uart.o(i.nrf_uart_int_enable_check)
    nrf_uart_int_enable_check                0x00029047   Thumb Code    12  nrfx_uart.o(i.nrf_uart_int_enable_check)
    i.nrf_uarte_event_check                  0x00029052   Section        0  nrfx_uarte.o(i.nrf_uarte_event_check)
    nrf_uarte_event_check                    0x00029053   Thumb Code    10  nrfx_uarte.o(i.nrf_uarte_event_check)
    i.nrf_uarte_event_clear                  0x0002905c   Section        0  nrfx_uarte.o(i.nrf_uarte_event_clear)
    nrf_uarte_event_clear                    0x0002905d   Thumb Code    12  nrfx_uarte.o(i.nrf_uarte_event_clear)
    i.nrfx_clock_enable                      0x00029068   Section        0  nrfx_clock.o(i.nrfx_clock_enable)
    i.nrfx_clock_init                        0x00029094   Section        0  nrfx_clock.o(i.nrfx_clock_init)
    i.nrfx_clock_lfclk_stop                  0x000290b4   Section        0  nrfx_clock.o(i.nrfx_clock_lfclk_stop)
    i.nrfx_coredep_delay_us                  0x000290d0   Section        0  app_timer.o(i.nrfx_coredep_delay_us)
    nrfx_coredep_delay_us                    0x000290d1   Thumb Code    12  app_timer.o(i.nrfx_coredep_delay_us)
    i.nrfx_gpiote_in_event_enable            0x000290e0   Section        0  nrfx_gpiote.o(i.nrfx_gpiote_in_event_enable)
    i.nrfx_gpiote_in_init                    0x00029184   Section        0  nrfx_gpiote.o(i.nrfx_gpiote_in_init)
    i.nrfx_gpiote_in_is_set                  0x00029254   Section        0  nrfx_gpiote.o(i.nrfx_gpiote_in_is_set)
    i.nrfx_gpiote_init                       0x00029268   Section        0  nrfx_gpiote.o(i.nrfx_gpiote_init)
    i.nrfx_gpiote_is_init                    0x000292d8   Section        0  nrfx_gpiote.o(i.nrfx_gpiote_is_init)
    i.nrfx_is_in_ram                         0x000292ec   Section        0  nrfx_uarte.o(i.nrfx_is_in_ram)
    nrfx_is_in_ram                           0x000292ed   Thumb Code    16  nrfx_uarte.o(i.nrfx_is_in_ram)
    i.nrfx_prs_acquire                       0x000292fc   Section        0  nrfx_prs.o(i.nrfx_prs_acquire)
    i.nrfx_prs_release                       0x00029336   Section        0  nrfx_prs.o(i.nrfx_prs_release)
    i.nrfx_uart_0_irq_handler                0x00029348   Section        0  nrfx_uart.o(i.nrfx_uart_0_irq_handler)
    i.nrfx_uart_init                         0x00029358   Section        0  nrfx_uart.o(i.nrfx_uart_init)
    i.nrfx_uart_tx                           0x0002942c   Section        0  nrfx_uart.o(i.nrfx_uart_tx)
    i.nrfx_uart_tx_in_progress               0x000294d0   Section        0  nrfx_uart.o(i.nrfx_uart_tx_in_progress)
    i.nrfx_uart_uninit                       0x000294f0   Section        0  nrfx_uart.o(i.nrfx_uart_uninit)
    i.nrfx_uarte_0_irq_handler               0x000295a4   Section        0  nrfx_uarte.o(i.nrfx_uarte_0_irq_handler)
    i.nrfx_uarte_init                        0x000295b4   Section        0  nrfx_uarte.o(i.nrfx_uarte_init)
    i.nrfx_uarte_tx                          0x00029620   Section        0  nrfx_uarte.o(i.nrfx_uarte_tx)
    i.nrfx_uarte_tx_in_progress              0x000296b0   Section        0  nrfx_uarte.o(i.nrfx_uarte_tx_in_progress)
    i.nrfx_uarte_uninit                      0x000296cc   Section        0  nrfx_uarte.o(i.nrfx_uarte_uninit)
    i.pin_in_use_by_port                     0x0002977c   Section        0  nrfx_gpiote.o(i.pin_in_use_by_port)
    pin_in_use_by_port                       0x0002977d   Thumb Code    20  nrfx_gpiote.o(i.pin_in_use_by_port)
    i.pin_in_use_by_te                       0x00029794   Section        0  nrfx_gpiote.o(i.pin_in_use_by_te)
    pin_in_use_by_te                         0x00029795   Thumb Code    20  nrfx_gpiote.o(i.pin_in_use_by_te)
    i.postfix_process                        0x000297ac   Section        0  nrf_log_str_formatter.o(i.postfix_process)
    postfix_process                          0x000297ad   Thumb Code    48  nrf_log_str_formatter.o(i.postfix_process)
    i.prefix_process                         0x000297e8   Section        0  nrf_log_str_formatter.o(i.prefix_process)
    prefix_process                           0x000297e9   Thumb Code    90  nrf_log_str_formatter.o(i.prefix_process)
    i.prs_box_get                            0x00029880   Section        0  nrfx_prs.o(i.prs_box_get)
    prs_box_get                              0x00029881   Thumb Code    14  nrfx_prs.o(i.prs_box_get)
    i.rtc1_stop                              0x00029898   Section        0  app_timer.o(i.rtc1_stop)
    rtc1_stop                                0x00029899   Thumb Code    52  app_timer.o(i.rtc1_stop)
    i.rx_byte                                0x000298d4   Section        0  nrfx_uart.o(i.rx_byte)
    rx_byte                                  0x000298d5   Thumb Code    50  nrfx_uart.o(i.rx_byte)
    i.rx_done_event                          0x00029906   Section        0  nrfx_uart.o(i.rx_done_event)
    rx_done_event                            0x00029907   Thumb Code    22  nrfx_uart.o(i.rx_done_event)
    i.rx_done_event                          0x0002991c   Section        0  nrfx_uarte.o(i.rx_done_event)
    rx_done_event                            0x0002991d   Thumb Code    24  nrfx_uarte.o(i.rx_done_event)
    i.sd_nvic_SetPriority                    0x00029934   Section        0  nrf_sdh.o(i.sd_nvic_SetPriority)
    sd_nvic_SetPriority                      0x00029935   Thumb Code    66  nrf_sdh.o(i.sd_nvic_SetPriority)
    i.sd_state_evt_handler                   0x00029978   Section        0  nrf_drv_clock.o(i.sd_state_evt_handler)
    sd_state_evt_handler                     0x00029979   Thumb Code    76  nrf_drv_clock.o(i.sd_state_evt_handler)
    i.sdh_request_observer_notify            0x000299c8   Section        0  nrf_sdh.o(i.sdh_request_observer_notify)
    sdh_request_observer_notify              0x000299c9   Thumb Code    44  nrf_sdh.o(i.sdh_request_observer_notify)
    i.sdh_state_observer_notify              0x000299f8   Section        0  nrf_sdh.o(i.sdh_state_observer_notify)
    sdh_state_observer_notify                0x000299f9   Thumb Code    38  nrf_sdh.o(i.sdh_state_observer_notify)
    i.serial_tx                              0x00029a24   Section        0  nrf_log_backend_uart.o(i.serial_tx)
    serial_tx                                0x00029a25   Thumb Code    54  nrf_log_backend_uart.o(i.serial_tx)
    i.service_data_encode                    0x00029a64   Section        0  ble_advdata.o(i.service_data_encode)
    service_data_encode                      0x00029a65   Thumb Code   136  ble_advdata.o(i.service_data_encode)
    i.soc_evt_handler                        0x00029aec   Section        0  nrf_drv_clock.o(i.soc_evt_handler)
    soc_evt_handler                          0x00029aed   Thumb Code    18  nrf_drv_clock.o(i.soc_evt_handler)
    i.softdevices_evt_irq_enable             0x00029b04   Section        0  nrf_sdh.o(i.softdevices_evt_irq_enable)
    softdevices_evt_irq_enable               0x00029b05   Thumb Code    72  nrf_sdh.o(i.softdevices_evt_irq_enable)
    i.std_n                                  0x00029b54   Section        0  nrf_log_frontend.o(i.std_n)
    std_n                                    0x00029b55   Thumb Code   136  nrf_log_frontend.o(i.std_n)
    i.timer_list_handler                     0x00029be0   Section        0  app_timer.o(i.timer_list_handler)
    timer_list_handler                       0x00029be1   Thumb Code   122  app_timer.o(i.timer_list_handler)
    i.timer_list_insert                      0x00029c60   Section        0  app_timer.o(i.timer_list_insert)
    timer_list_insert                        0x00029c61   Thumb Code    56  app_timer.o(i.timer_list_insert)
    i.timer_list_remove                      0x00029c9c   Section        0  app_timer.o(i.timer_list_remove)
    timer_list_remove                        0x00029c9d   Thumb Code    88  app_timer.o(i.timer_list_remove)
    i.timer_stop_op_schedule                 0x00029cfc   Section        0  app_timer.o(i.timer_stop_op_schedule)
    timer_stop_op_schedule                   0x00029cfd   Thumb Code    68  app_timer.o(i.timer_stop_op_schedule)
    i.timer_timeouts_check                   0x00029d44   Section        0  app_timer.o(i.timer_timeouts_check)
    timer_timeouts_check                     0x00029d45   Thumb Code   106  app_timer.o(i.timer_timeouts_check)
    i.tx_byte                                0x00029db8   Section        0  nrfx_uart.o(i.tx_byte)
    tx_byte                                  0x00029db9   Thumb Code    32  nrfx_uart.o(i.tx_byte)
    i.tx_done_event                          0x00029dd8   Section        0  nrfx_uart.o(i.tx_done_event)
    tx_done_event                            0x00029dd9   Thumb Code    26  nrfx_uart.o(i.tx_done_event)
    i.uart_evt_handler                       0x00029df4   Section        0  nrf_drv_uart.o(i.uart_evt_handler)
    uart_evt_handler                         0x00029df5   Thumb Code    42  nrf_drv_uart.o(i.uart_evt_handler)
    i.uart_evt_handler                       0x00029e24   Section        0  nrf_log_backend_uart.o(i.uart_evt_handler)
    uart_evt_handler                         0x00029e25   Thumb Code     8  nrf_log_backend_uart.o(i.uart_evt_handler)
    i.uart_init                              0x00029e30   Section        0  nrf_log_backend_uart.o(i.uart_init)
    uart_init                                0x00029e31   Thumb Code    66  nrf_log_backend_uart.o(i.uart_init)
    i.uart_irq_handler                       0x00029e80   Section        0  nrfx_uart.o(i.uart_irq_handler)
    uart_irq_handler                         0x00029e81   Thumb Code   296  nrfx_uart.o(i.uart_irq_handler)
    i.uarte_evt_handler                      0x00029fa8   Section        0  nrf_drv_uart.o(i.uarte_evt_handler)
    uarte_evt_handler                        0x00029fa9   Thumb Code    42  nrf_drv_uart.o(i.uarte_evt_handler)
    i.uarte_irq_handler                      0x00029fd8   Section        0  nrfx_uarte.o(i.uarte_irq_handler)
    uarte_irq_handler                        0x00029fd9   Thumb Code   244  nrfx_uarte.o(i.uarte_irq_handler)
    i.uint16_encode                          0x0002a0cc   Section        0  ble_advdata.o(i.uint16_encode)
    uint16_encode                            0x0002a0cd   Thumb Code    10  ble_advdata.o(i.uint16_encode)
    i.unsigned_print                         0x0002a0d8   Section        0  nrf_fprintf_format.o(i.unsigned_print)
    unsigned_print                           0x0002a0d9   Thumb Code   176  nrf_fprintf_format.o(i.unsigned_print)
    i.user_op_alloc                          0x0002a18c   Section        0  app_timer.o(i.user_op_alloc)
    user_op_alloc                            0x0002a18d   Thumb Code    42  app_timer.o(i.user_op_alloc)
    i.uuid_list_encode                       0x0002a1bc   Section        0  ble_advdata.o(i.uuid_list_encode)
    uuid_list_encode                         0x0002a1bd   Thumb Code    48  ble_advdata.o(i.uuid_list_encode)
    i.uuid_list_sized_encode                 0x0002a1ec   Section        0  ble_advdata.o(i.uuid_list_sized_encode)
    uuid_list_sized_encode                   0x0002a1ed   Thumb Code   158  ble_advdata.o(i.uuid_list_sized_encode)
    .constdata                               0x0002a290   Section        6  main.o(.constdata)
    delay_bytecode                           0x0002a290   Data           6  main.o(.constdata)
    .constdata                               0x0002a296   Section        8  boards.o(.constdata)
    m_board_led_list                         0x0002a296   Data           4  boards.o(.constdata)
    m_board_btn_list                         0x0002a29a   Data           4  boards.o(.constdata)
    .constdata                               0x0002a2a0   Section       44  bsp.o(.constdata)
    m_bsp_leds_tmr                           0x0002a2a0   Data           4  bsp.o(.constdata)
    m_bsp_alert_tmr                          0x0002a2a4   Data           4  bsp.o(.constdata)
    m_bsp_button_tmr                         0x0002a2a8   Data           4  bsp.o(.constdata)
    app_buttons                              0x0002a2ac   Data          32  bsp.o(.constdata)
    .constdata                               0x0002a2cc   Section        4  nrfx_gpiote.o(.constdata)
    .constdata                               0x0002a2d0   Section        4  nrfx_uart.o(.constdata)
    irq_handlers                             0x0002a2d0   Data           4  nrfx_uart.o(.constdata)
    .constdata                               0x0002a2d4   Section        4  nrfx_uarte.o(.constdata)
    irq_handlers                             0x0002a2d4   Data           4  nrfx_uarte.o(.constdata)
    .constdata                               0x0002a2d8   Section        8  app_button.o(.constdata)
    m_detection_delay_timer_id               0x0002a2dc   Data           4  app_button.o(.constdata)
    .constdata                               0x0002a2e0   Section        6  app_timer.o(.constdata)
    delay_bytecode                           0x0002a2e0   Data           6  app_timer.o(.constdata)
    .constdata                               0x0002a2e6   Section       16  nrf_fprintf_format.o(.constdata)
    _aV2C                                    0x0002a2e6   Data          16  nrf_fprintf_format.o(.constdata)
    .constdata                               0x0002a2f8   Section       24  nrf_pwr_mgmt.o(.constdata)
    pwr_mgmt_data_array                      0x0002a2f8   Data          24  nrf_pwr_mgmt.o(.constdata)
    .constdata                               0x0002a310   Section       12  nrf_pwr_mgmt.o(.constdata)
    pwr_mgmt_data                            0x0002a310   Data          12  nrf_pwr_mgmt.o(.constdata)
    .constdata                               0x0002a31c   Section      316  nrf_strerror.o(.constdata)
    m_unknown_str                            0x0002a31c   Data          19  nrf_strerror.o(.constdata)
    nrf_strerror_array                       0x0002a330   Data         296  nrf_strerror.o(.constdata)
    .constdata                               0x0002a458   Section       12  nrf_log_backend_uart.o(.constdata)
    .constdata                               0x0002a464   Section       32  nrf_log_backend_uart.o(.constdata)
    .constdata                               0x0002a484   Section       16  nrf_sdh.o(.constdata)
    sdh_req_observers_array                  0x0002a484   Data          16  nrf_sdh.o(.constdata)
    .constdata                               0x0002a494   Section       40  nrf_sdh.o(.constdata)
    sdh_req_observers                        0x0002a498   Data          12  nrf_sdh.o(.constdata)
    sdh_state_observers                      0x0002a4a4   Data          12  nrf_sdh.o(.constdata)
    sdh_stack_observers                      0x0002a4b0   Data          12  nrf_sdh.o(.constdata)
    .constdata                               0x0002a4bc   Section       16  nrf_sdh.o(.constdata)
    sdh_state_observers_array                0x0002a4bc   Data          16  nrf_sdh.o(.constdata)
    .constdata                               0x0002a4cc   Section       16  nrf_sdh.o(.constdata)
    sdh_stack_observers_array                0x0002a4cc   Data          16  nrf_sdh.o(.constdata)
    .constdata                               0x0002a4dc   Section       32  nrf_sdh_ble.o(.constdata)
    sdh_ble_observers_array                  0x0002a4dc   Data          32  nrf_sdh_ble.o(.constdata)
    .constdata                               0x0002a4fc   Section       16  nrf_sdh_ble.o(.constdata)
    sdh_ble_observers                        0x0002a500   Data          12  nrf_sdh_ble.o(.constdata)
    .constdata                               0x0002a50c   Section       16  nrf_sdh_soc.o(.constdata)
    sdh_soc_observers_array                  0x0002a50c   Data          16  nrf_sdh_soc.o(.constdata)
    .constdata                               0x0002a51c   Section       12  nrf_sdh_soc.o(.constdata)
    sdh_soc_observers                        0x0002a51c   Data          12  nrf_sdh_soc.o(.constdata)
    .constdata                               0x0002a528   Section      129  ctype_o.o(.constdata)
    .constdata                               0x0002a5ac   Section        4  ctype_o.o(.constdata)
    table                                    0x0002a5ac   Data           4  ctype_o.o(.constdata)
    .conststring                             0x0002a5b0   Section     1003  nrf_strerror.o(.conststring)
    .conststring                             0x0002a99c   Section      102  nrf_log_str_formatter.o(.conststring)
    .conststring                             0x0002aa04   Section      392  nrf_sdh_ble.o(.conststring)
    .conststrlit                             0x0002ab8c   Section        6  nrf_drv_clock.o(.conststrlit)
    .conststrlit                             0x0002ab94   Section        6  nrfx_clock.o(.conststrlit)
    .conststrlit                             0x0002ab9c   Section        7  nrfx_gpiote.o(.conststrlit)
    .conststrlit                             0x0002aba4   Section        4  nrfx_prs.o(.conststrlit)
    .conststrlit                             0x0002aba8   Section        5  nrfx_uart.o(.conststrlit)
    .conststrlit                             0x0002abb0   Section        6  nrfx_uarte.o(.conststrlit)
    .conststrlit                             0x0002abb8   Section        9  nrf_pwr_mgmt.o(.conststrlit)
    .conststrlit                             0x0002abc4   Section       24  nrf_log_frontend.o(.conststrlit)
    .conststrlit                             0x0002abdc   Section        8  nrf_sdh.o(.conststrlit)
    .conststrlit                             0x0002abe4   Section       12  nrf_sdh_ble.o(.conststrlit)
    .conststrlit                             0x0002abf0   Section       12  nrf_sdh_soc.o(.conststrlit)
    log_const_data                           0x0002ac1c   Section        8  nrf_drv_clock.o(log_const_data)
    __tagsym$$used                           0x0002ac1c   Number         0  nrf_drv_clock.o(log_const_data)
    log_const_data                           0x0002ac24   Section        8  nrfx_clock.o(log_const_data)
    __tagsym$$used                           0x0002ac24   Number         0  nrfx_clock.o(log_const_data)
    log_const_data                           0x0002ac2c   Section        8  nrfx_gpiote.o(log_const_data)
    __tagsym$$used                           0x0002ac2c   Number         0  nrfx_gpiote.o(log_const_data)
    log_const_data                           0x0002ac34   Section        8  nrfx_prs.o(log_const_data)
    __tagsym$$used                           0x0002ac34   Number         0  nrfx_prs.o(log_const_data)
    log_const_data                           0x0002ac3c   Section        8  nrfx_uart.o(log_const_data)
    __tagsym$$used                           0x0002ac3c   Number         0  nrfx_uart.o(log_const_data)
    log_const_data                           0x0002ac44   Section        8  nrfx_uarte.o(log_const_data)
    __tagsym$$used                           0x0002ac44   Number         0  nrfx_uarte.o(log_const_data)
    log_const_data                           0x0002ac4c   Section        8  nrf_pwr_mgmt.o(log_const_data)
    __tagsym$$used                           0x0002ac4c   Number         0  nrf_pwr_mgmt.o(log_const_data)
    log_const_data                           0x0002ac54   Section       16  nrf_log_frontend.o(log_const_data)
    __tagsym$$used                           0x0002ac54   Number         0  nrf_log_frontend.o(log_const_data)
    __tagsym$$used                           0x0002ac5c   Number         0  nrf_log_frontend.o(log_const_data)
    log_const_data                           0x0002ac64   Section        8  nrf_sdh.o(log_const_data)
    __tagsym$$used                           0x0002ac64   Number         0  nrf_sdh.o(log_const_data)
    log_const_data                           0x0002ac6c   Section        8  nrf_sdh_ble.o(log_const_data)
    __tagsym$$used                           0x0002ac6c   Number         0  nrf_sdh_ble.o(log_const_data)
    log_const_data                           0x0002ac74   Section        8  nrf_sdh_soc.o(log_const_data)
    __tagsym$$used                           0x0002ac74   Number         0  nrf_sdh_soc.o(log_const_data)
    nrf_balloc                               0x0002ac7c   Section       24  nrf_log_frontend.o(nrf_balloc)
    __tagsym$$used                           0x0002ac7c   Number         0  nrf_log_frontend.o(nrf_balloc)
    sdh_soc_observers0                       0x0002ac94   Section        8  nrf_drv_clock.o(sdh_soc_observers0)
    __tagsym$$used                           0x0002ac94   Number         0  nrf_drv_clock.o(sdh_soc_observers0)
    m_soc_evt_observer                       0x0002ac94   Data           8  nrf_drv_clock.o(sdh_soc_observers0)
    sdh_stack_observers0                     0x0002ac9c   Section        8  nrf_sdh_ble.o(sdh_stack_observers0)
    __tagsym$$used                           0x0002ac9c   Number         0  nrf_sdh_ble.o(sdh_stack_observers0)
    m_nrf_sdh_ble_evts_poll                  0x0002ac9c   Data           8  nrf_sdh_ble.o(sdh_stack_observers0)
    sdh_stack_observers0                     0x0002aca4   Section        8  nrf_sdh_soc.o(sdh_stack_observers0)
    __tagsym$$used                           0x0002aca4   Number         0  nrf_sdh_soc.o(sdh_stack_observers0)
    m_nrf_sdh_soc_evts_poll                  0x0002aca4   Data           8  nrf_sdh_soc.o(sdh_stack_observers0)
    sdh_state_observers0                     0x0002acac   Section        8  nrf_drv_clock.o(sdh_state_observers0)
    __tagsym$$used                           0x0002acac   Number         0  nrf_drv_clock.o(sdh_state_observers0)
    m_sd_state_observer                      0x0002acac   Data           8  nrf_drv_clock.o(sdh_state_observers0)
    .data                                    0x200018a8   Section       43  main.o(.data)
    m_adv_handle                             0x200018a8   Data           1  main.o(.data)
    m_adv_data                               0x200018ac   Data          16  main.o(.data)
    m_beacon_info                            0x200018bc   Data          23  main.o(.data)
    .data                                    0x200018d4   Section       16  bsp.o(.data)
    m_stable_state                           0x200018d4   Data           1  bsp.o(.data)
    m_leds_clear                             0x200018d5   Data           1  bsp.o(.data)
    m_alert_on                               0x200018d6   Data           1  bsp.o(.data)
    current_long_push_pin_no                 0x200018d7   Data           1  bsp.o(.data)
    m_indication_type                        0x200018d8   Data           4  bsp.o(.data)
    m_registered_callback                    0x200018dc   Data           4  bsp.o(.data)
    release_event_at_push                    0x200018e0   Data           4  bsp.o(.data)
    .data                                    0x200018e4   Section       12  nrf_drv_uart.o(.data)
    m_handlers                               0x200018e8   Data           4  nrf_drv_uart.o(.data)
    m_contexts                               0x200018ec   Data           4  nrf_drv_uart.o(.data)
    .data                                    0x200018f0   Section        8  nrfx_clock.o(.data)
    m_clock_cb                               0x200018f0   Data           8  nrfx_clock.o(.data)
    .data                                    0x200018f8   Section        8  nrfx_prs.o(.data)
    m_prs_box_4                              0x200018f8   Data           8  nrfx_prs.o(.data)
    .data                                    0x20001900   Section       32  app_button.o(.data)
    m_button_count                           0x20001900   Data           1  app_button.o(.data)
    mp_buttons                               0x20001904   Data           4  app_button.o(.data)
    m_detection_delay                        0x20001908   Data           4  app_button.o(.data)
    m_pin_state                              0x20001910   Data           8  app_button.o(.data)
    m_pin_transition                         0x20001918   Data           8  app_button.o(.data)
    .data                                    0x20001920   Section       20  app_timer.o(.data)
    m_ticks_elapsed_q_read_ind               0x20001920   Data           1  app_timer.o(.data)
    m_ticks_elapsed_q_write_ind              0x20001921   Data           1  app_timer.o(.data)
    m_rtc1_running                           0x20001922   Data           1  app_timer.o(.data)
    m_rtc1_reset                             0x20001923   Data           1  app_timer.o(.data)
    mp_timer_id_head                         0x20001924   Data           4  app_timer.o(.data)
    m_ticks_latest                           0x20001928   Data           4  app_timer.o(.data)
    m_ticks_elapsed                          0x2000192c   Data           8  app_timer.o(.data)
    .data                                    0x20001934   Section        8  nrf_pwr_mgmt.o(.data)
    m_pwr_mgmt_evt                           0x20001934   Data           1  nrf_pwr_mgmt.o(.data)
    m_shutdown_started                       0x20001935   Data           1  nrf_pwr_mgmt.o(.data)
    m_sysoff_mtx                             0x20001938   Data           4  nrf_pwr_mgmt.o(.data)
    .data                                    0x2000193c   Section       24  nrf_log_backend_uart.o(.data)
    m_xfer_done                              0x2000193c   Data           1  nrf_log_backend_uart.o(.data)
    m_async_mode                             0x2000193d   Data           1  nrf_log_backend_uart.o(.data)
    .data                                    0x20001954   Section       12  nrf_log_default_backends.o(.data)
    uart_log_backend                         0x20001954   Data          12  nrf_log_default_backends.o(.data)
    .data                                    0x20001960   Section        8  nrf_log_frontend.o(.data)
    log_mempool_nrf_balloc_pool_stack        0x20001960   Data           8  nrf_log_frontend.o(.data)
    .data                                    0x20001968   Section        8  nrf_log_frontend.o(.data)
    log_mempool_nrf_balloc_cb                0x20001968   Data           8  nrf_log_frontend.o(.data)
    .data                                    0x20001970   Section       64  nrf_log_str_formatter.o(.data)
    m_freq                                   0x20001970   Data           4  nrf_log_str_formatter.o(.data)
    m_timestamp_div                          0x20001974   Data           4  nrf_log_str_formatter.o(.data)
    severity_names                           0x20001978   Data          20  nrf_log_str_formatter.o(.data)
    m_colors                                 0x2000198c   Data          36  nrf_log_str_formatter.o(.data)
    .data                                    0x200019b0   Section        3  nrf_sdh.o(.data)
    m_nrf_sdh_enabled                        0x200019b0   Data           1  nrf_sdh.o(.data)
    m_nrf_sdh_suspended                      0x200019b1   Data           1  nrf_sdh.o(.data)
    m_nrf_sdh_continue                       0x200019b2   Data           1  nrf_sdh.o(.data)
    .data                                    0x200019b3   Section        1  nrf_sdh_ble.o(.data)
    m_stack_is_enabled                       0x200019b3   Data           1  nrf_sdh_ble.o(.data)
    .data                                    0x200019b4   Section        4  system_nrf52.o(.data)
    __tagsym$$used                           0x200019b4   Number         0  system_nrf52.o(.data)
    log_dynamic_data                         0x200019b8   Section        4  nrf_drv_clock.o(log_dynamic_data)
    __tagsym$$used                           0x200019b8   Number         0  nrf_drv_clock.o(log_dynamic_data)
    log_dynamic_data                         0x200019bc   Section        4  nrfx_clock.o(log_dynamic_data)
    __tagsym$$used                           0x200019bc   Number         0  nrfx_clock.o(log_dynamic_data)
    log_dynamic_data                         0x200019c0   Section        4  nrfx_gpiote.o(log_dynamic_data)
    __tagsym$$used                           0x200019c0   Number         0  nrfx_gpiote.o(log_dynamic_data)
    log_dynamic_data                         0x200019c4   Section        4  nrfx_prs.o(log_dynamic_data)
    __tagsym$$used                           0x200019c4   Number         0  nrfx_prs.o(log_dynamic_data)
    log_dynamic_data                         0x200019c8   Section        4  nrfx_uart.o(log_dynamic_data)
    __tagsym$$used                           0x200019c8   Number         0  nrfx_uart.o(log_dynamic_data)
    log_dynamic_data                         0x200019cc   Section        4  nrfx_uarte.o(log_dynamic_data)
    __tagsym$$used                           0x200019cc   Number         0  nrfx_uarte.o(log_dynamic_data)
    log_dynamic_data                         0x200019d0   Section        4  nrf_pwr_mgmt.o(log_dynamic_data)
    __tagsym$$used                           0x200019d0   Number         0  nrf_pwr_mgmt.o(log_dynamic_data)
    log_dynamic_data                         0x200019d4   Section        8  nrf_log_frontend.o(log_dynamic_data)
    __tagsym$$used                           0x200019d4   Number         0  nrf_log_frontend.o(log_dynamic_data)
    __tagsym$$used                           0x200019d8   Number         0  nrf_log_frontend.o(log_dynamic_data)
    log_dynamic_data                         0x200019dc   Section        4  nrf_sdh.o(log_dynamic_data)
    __tagsym$$used                           0x200019dc   Number         0  nrf_sdh.o(log_dynamic_data)
    log_dynamic_data                         0x200019e0   Section        4  nrf_sdh_ble.o(log_dynamic_data)
    __tagsym$$used                           0x200019e0   Number         0  nrf_sdh_ble.o(log_dynamic_data)
    log_dynamic_data                         0x200019e4   Section        4  nrf_sdh_soc.o(log_dynamic_data)
    __tagsym$$used                           0x200019e4   Number         0  nrf_sdh_soc.o(log_dynamic_data)
    .bss                                     0x200019e8   Section       24  main.o(.bss)
    m_adv_params                             0x200019e8   Data          24  main.o(.bss)
    .bss                                     0x20001a00   Section       31  main.o(.bss)
    m_enc_advdata                            0x20001a00   Data          31  main.o(.bss)
    .bss                                     0x20001a20   Section       32  bsp.o(.bss)
    m_bsp_leds_tmr_data                      0x20001a20   Data          32  bsp.o(.bss)
    .bss                                     0x20001a40   Section       32  bsp.o(.bss)
    m_bsp_alert_tmr_data                     0x20001a40   Data          32  bsp.o(.bss)
    .bss                                     0x20001a60   Section       12  bsp.o(.bss)
    m_events_list                            0x20001a60   Data          12  bsp.o(.bss)
    .bss                                     0x20001a6c   Section       32  bsp.o(.bss)
    m_bsp_button_tmr_data                    0x20001a6c   Data          32  bsp.o(.bss)
    .bss                                     0x20001a8c   Section       20  nrf_drv_clock.o(.bss)
    m_clock_cb                               0x20001a8c   Data          20  nrf_drv_clock.o(.bss)
    .bss                                     0x20001aa0   Section       92  nrfx_gpiote.o(.bss)
    m_cb                                     0x20001aa0   Data          92  nrfx_gpiote.o(.bss)
    .bss                                     0x20001afc   Section       44  nrfx_uart.o(.bss)
    m_cb                                     0x20001afc   Data          44  nrfx_uart.o(.bss)
    .bss                                     0x20001b28   Section       36  nrfx_uarte.o(.bss)
    m_cb                                     0x20001b28   Data          36  nrfx_uarte.o(.bss)
    .bss                                     0x20001b4c   Section       32  app_button.o(.bss)
    m_detection_delay_timer_id_data          0x20001b4c   Data          32  app_button.o(.bss)
    .bss                                     0x20001b6c   Section      268  app_timer.o(.bss)
    m_op_queue                               0x20001b6c   Data         268  app_timer.o(.bss)
    .bss                                     0x20001c78   Section       12  app_util_platform.o(.bss)
    .bss                                     0x20001c84   Section       12  nrf_pwr_mgmt.o(.bss)
    m_handlers_iter                          0x20001c84   Data          12  nrf_pwr_mgmt.o(.bss)
    .bss                                     0x20001c90   Section       64  nrf_log_backend_uart.o(.bss)
    m_string_buff                            0x20001c90   Data          64  nrf_log_backend_uart.o(.bss)
    .bss                                     0x20001cd0   Section      192  nrf_log_frontend.o(.bss)
    log_mempool_nrf_balloc_pool_mem          0x20001cd0   Data         192  nrf_log_frontend.o(.bss)
    .bss                                     0x20001d90   Section     1060  nrf_log_frontend.o(.bss)
    m_log_data                               0x20001d90   Data        1060  nrf_log_frontend.o(.bss)
    STACK                                    0x200021b8   Section     8192  arm_startup_nrf52.o(STACK)

    Global Symbols

    Symbol Name                              Value     Ov Type        Size  Object(Section)

    BuildAttributes$$THM_ISAv4$E$P$D$K$B$S$7EM$VFPi3$EXTD16$VFPS$VFMA$PE$A:L22UL41UL21$X:L11$S22US41US21$IEEE1$IW$USESV6$~STKCKD$USESV7$~SHL$OSPACE$EBA8$MICROLIB$REQ8$EABIv2 0x00000000   Number         0  anon$$obj.o ABSOLUTE
    __ARM_use_no_argv                        0x00000000   Number         0  main.o ABSOLUTE
    __use_no_errno                           0x00000000   Number         0  useno.o ABSOLUTE
    __use_no_exception_handling              0x00000000   Number         0  useno.o ABSOLUTE
    __use_no_fp                              0x00000000   Number         0  useno.o ABSOLUTE
    __use_no_heap                            0x00000000   Number         0  useno.o ABSOLUTE
    __use_no_heap_region                     0x00000000   Number         0  useno.o ABSOLUTE
    __use_no_semihosting                     0x00000000   Number         0  useno.o ABSOLUTE
    __use_no_semihosting_swi                 0x00000000   Number         0  useno.o ABSOLUTE
    __use_no_signal_handling                 0x00000000   Number         0  useno.o ABSOLUTE
    __cpp_initialize__aeabi_                  - Undefined Weak Reference
    __cxa_finalize                            - Undefined Weak Reference
    _clock_init                               - Undefined Weak Reference
    _microlib_exit                            - Undefined Weak Reference
    pwr_mgmt_data0$$Base                      - Undefined Reference
    pwr_mgmt_data0$$Limit                     - Undefined Reference
    pwr_mgmt_data1$$Base                      - Undefined Reference
    pwr_mgmt_data1$$Limit                     - Undefined Reference
    pwr_mgmt_data2$$Base                      - Undefined Reference
    pwr_mgmt_data2$$Limit                     - Undefined Reference
    sdh_ble_observers0$$Base                  - Undefined Reference
    sdh_ble_observers0$$Limit                 - Undefined Reference
    sdh_ble_observers1$$Base                  - Undefined Reference
    sdh_ble_observers1$$Limit                 - Undefined Reference
    sdh_ble_observers2$$Base                  - Undefined Reference
    sdh_ble_observers2$$Limit                 - Undefined Reference
    sdh_ble_observers3$$Base                  - Undefined Reference
    sdh_ble_observers3$$Limit                 - Undefined Reference
    sdh_req_observers0$$Base                  - Undefined Reference
    sdh_req_observers0$$Limit                 - Undefined Reference
    sdh_req_observers1$$Base                  - Undefined Reference
    sdh_req_observers1$$Limit                 - Undefined Reference
    sdh_soc_observers1$$Base                  - Undefined Reference
    sdh_soc_observers1$$Limit                 - Undefined Reference
    sdh_stack_observers1$$Base                - Undefined Reference
    sdh_stack_observers1$$Limit               - Undefined Reference
    sdh_state_observers1$$Base                - Undefined Reference
    sdh_state_observers1$$Limit               - Undefined Reference
    __Vectors_Size                           0x00000200   Number         0  arm_startup_nrf52.o ABSOLUTE
    __Vectors                                0x00026000   Data           4  arm_startup_nrf52.o(RESET)
    __Vectors_End                            0x00026200   Data           0  arm_startup_nrf52.o(RESET)
    __main                                   0x00026201   Thumb Code     0  entry.o(.ARM.Collect$$$$00000000)
    _main_stk                                0x00026201   Thumb Code     0  entry2.o(.ARM.Collect$$$$00000001)
    _main_scatterload                        0x00026205   Thumb Code     0  entry5.o(.ARM.Collect$$$$00000004)
    __main_after_scatterload                 0x00026209   Thumb Code     0  entry5.o(.ARM.Collect$$$$00000004)
    _main_clock                              0x00026209   Thumb Code     0  entry7b.o(.ARM.Collect$$$$00000008)
    _main_cpp_init                           0x00026209   Thumb Code     0  entry8b.o(.ARM.Collect$$$$0000000A)
    _main_init                               0x00026209   Thumb Code     0  entry9a.o(.ARM.Collect$$$$0000000B)
    __rt_final_cpp                           0x00026211   Thumb Code     0  entry10a.o(.ARM.Collect$$$$0000000D)
    __rt_final_exit                          0x00026211   Thumb Code     0  entry11a.o(.ARM.Collect$$$$0000000F)
    __asm___12_nrf_atomic_c_85ca2469__nrf_atomic_internal_mov 0x00026215   Thumb Code    24  nrf_atomic.o(.emb_text)
    __asm___12_nrf_atomic_c_85ca2469__nrf_atomic_internal_orr 0x0002622d   Thumb Code    26  nrf_atomic.o(.emb_text)
    __asm___12_nrf_atomic_c_85ca2469__nrf_atomic_internal_and 0x00026247   Thumb Code    26  nrf_atomic.o(.emb_text)
    __asm___12_nrf_atomic_c_85ca2469__nrf_atomic_internal_eor 0x00026261   Thumb Code    26  nrf_atomic.o(.emb_text)
    __asm___12_nrf_atomic_c_85ca2469__nrf_atomic_internal_add 0x0002627b   Thumb Code    26  nrf_atomic.o(.emb_text)
    __asm___12_nrf_atomic_c_85ca2469__nrf_atomic_internal_sub 0x00026295   Thumb Code    26  nrf_atomic.o(.emb_text)
    __asm___12_nrf_atomic_c_85ca2469__nrf_atomic_internal_cmp_exch 0x000262af   Thumb Code    42  nrf_atomic.o(.emb_text)
    __asm___12_nrf_atomic_c_85ca2469__nrf_atomic_internal_sub_hs 0x000262d9   Thumb Code    30  nrf_atomic.o(.emb_text)
    Reset_Handler                            0x000262f9   Thumb Code     8  arm_startup_nrf52.o(.text)
    NMI_Handler                              0x00026301   Thumb Code     2  arm_startup_nrf52.o(.text)
    HardFault_Handler                        0x00026303   Thumb Code     2  arm_startup_nrf52.o(.text)
    MemoryManagement_Handler                 0x00026305   Thumb Code     2  arm_startup_nrf52.o(.text)
    BusFault_Handler                         0x00026307   Thumb Code     2  arm_startup_nrf52.o(.text)
    UsageFault_Handler                       0x00026309   Thumb Code     2  arm_startup_nrf52.o(.text)
    SVC_Handler                              0x0002630b   Thumb Code     2  arm_startup_nrf52.o(.text)
    DebugMon_Handler                         0x0002630d   Thumb Code     2  arm_startup_nrf52.o(.text)
    PendSV_Handler                           0x0002630f   Thumb Code     2  arm_startup_nrf52.o(.text)
    SysTick_Handler                          0x00026311   Thumb Code     2  arm_startup_nrf52.o(.text)
    CCM_AAR_IRQHandler                       0x00026313   Thumb Code     0  arm_startup_nrf52.o(.text)
    COMP_LPCOMP_IRQHandler                   0x00026313   Thumb Code     0  arm_startup_nrf52.o(.text)
    ECB_IRQHandler                           0x00026313   Thumb Code     0  arm_startup_nrf52.o(.text)
    FPU_IRQHandler                           0x00026313   Thumb Code     0  arm_startup_nrf52.o(.text)
    I2S_IRQHandler                           0x00026313   Thumb Code     0  arm_startup_nrf52.o(.text)
    MWU_IRQHandler                           0x00026313   Thumb Code     0  arm_startup_nrf52.o(.text)
    NFCT_IRQHandler                          0x00026313   Thumb Code     0  arm_startup_nrf52.o(.text)
    PDM_IRQHandler                           0x00026313   Thumb Code     0  arm_startup_nrf52.o(.text)
    PWM0_IRQHandler                          0x00026313   Thumb Code     0  arm_startup_nrf52.o(.text)
    PWM1_IRQHandler                          0x00026313   Thumb Code     0  arm_startup_nrf52.o(.text)
    PWM2_IRQHandler                          0x00026313   Thumb Code     0  arm_startup_nrf52.o(.text)
    QDEC_IRQHandler                          0x00026313   Thumb Code     0  arm_startup_nrf52.o(.text)
    RADIO_IRQHandler                         0x00026313   Thumb Code     0  arm_startup_nrf52.o(.text)
    RNG_IRQHandler                           0x00026313   Thumb Code     0  arm_startup_nrf52.o(.text)
    RTC0_IRQHandler                          0x00026313   Thumb Code     0  arm_startup_nrf52.o(.text)
    RTC2_IRQHandler                          0x00026313   Thumb Code     0  arm_startup_nrf52.o(.text)
    SAADC_IRQHandler                         0x00026313   Thumb Code     0  arm_startup_nrf52.o(.text)
    SPIM0_SPIS0_TWIM0_TWIS0_SPI0_TWI0_IRQHandler 0x00026313   Thumb Code     0  arm_startup_nrf52.o(.text)
    SPIM1_SPIS1_TWIM1_TWIS1_SPI1_TWI1_IRQHandler 0x00026313   Thumb Code     0  arm_startup_nrf52.o(.text)
    SPIM2_SPIS2_SPI2_IRQHandler              0x00026313   Thumb Code     0  arm_startup_nrf52.o(.text)
    SWI1_EGU1_IRQHandler                     0x00026313   Thumb Code     0  arm_startup_nrf52.o(.text)
    SWI3_EGU3_IRQHandler                     0x00026313   Thumb Code     0  arm_startup_nrf52.o(.text)
    SWI4_EGU4_IRQHandler                     0x00026313   Thumb Code     0  arm_startup_nrf52.o(.text)
    SWI5_EGU5_IRQHandler                     0x00026313   Thumb Code     0  arm_startup_nrf52.o(.text)
    TEMP_IRQHandler                          0x00026313   Thumb Code     0  arm_startup_nrf52.o(.text)
    TIMER0_IRQHandler                        0x00026313   Thumb Code     0  arm_startup_nrf52.o(.text)
    TIMER1_IRQHandler                        0x00026313   Thumb Code     0  arm_startup_nrf52.o(.text)
    TIMER2_IRQHandler                        0x00026313   Thumb Code     0  arm_startup_nrf52.o(.text)
    TIMER3_IRQHandler                        0x00026313   Thumb Code     0  arm_startup_nrf52.o(.text)
    TIMER4_IRQHandler                        0x00026313   Thumb Code     0  arm_startup_nrf52.o(.text)
    WDT_IRQHandler                           0x00026313   Thumb Code     0  arm_startup_nrf52.o(.text)
    __aeabi_uldivmod                         0x0002631d   Thumb Code    98  uldiv.o(.text)
    __aeabi_llsl                             0x0002637f   Thumb Code    30  llshl.o(.text)
    _ll_shift_l                              0x0002637f   Thumb Code     0  llshl.o(.text)
    __rt_ctype_table                         0x0002639d   Thumb Code     4  ctype_o.o(.text)
    __aeabi_memcpy                           0x000263a5   Thumb Code    36  memcpya.o(.text)
    __aeabi_memcpy4                          0x000263a5   Thumb Code     0  memcpya.o(.text)
    __aeabi_memcpy8                          0x000263a5   Thumb Code     0  memcpya.o(.text)
    __aeabi_memset                           0x000263c9   Thumb Code    14  memseta.o(.text)
    __aeabi_memset4                          0x000263c9   Thumb Code     0  memseta.o(.text)
    __aeabi_memset8                          0x000263c9   Thumb Code     0  memseta.o(.text)
    __aeabi_memclr                           0x000263d7   Thumb Code     4  memseta.o(.text)
    __aeabi_memclr4                          0x000263d7   Thumb Code     0  memseta.o(.text)
    __aeabi_memclr8                          0x000263d7   Thumb Code     0  memseta.o(.text)
    _memset$wrapper                          0x000263db   Thumb Code    18  memseta.o(.text)
    strlen                                   0x000263ed   Thumb Code    14  strlen.o(.text)
    __aeabi_llsr                             0x000263fb   Thumb Code    32  llushr.o(.text)
    _ll_ushift_r                             0x000263fb   Thumb Code     0  llushr.o(.text)
    __scatterload                            0x0002641d   Thumb Code    28  init.o(.text)
    __scatterload_rt2                        0x0002641d   Thumb Code     0  init.o(.text)
    __decompress                             0x00026441   Thumb Code     0  __dczerorl2.o(.text)
    __decompress1                            0x00026441   Thumb Code    86  __dczerorl2.o(.text)
    GPIOTE_IRQHandler                        0x00026499   Thumb Code   346  nrfx_gpiote.o(i.GPIOTE_IRQHandler)
    POWER_CLOCK_IRQHandler                   0x00026661   Thumb Code    82  nrfx_clock.o(i.POWER_CLOCK_IRQHandler)
    RTC1_IRQHandler                          0x000266b9   Thumb Code    32  app_timer.o(i.RTC1_IRQHandler)
    SWI0_EGU0_IRQHandler                     0x000266dd   Thumb Code     4  app_timer.o(i.SWI0_EGU0_IRQHandler)
    SWI2_EGU2_IRQHandler                     0x000266e1   Thumb Code     4  nrf_sdh.o(i.SWI2_EGU2_IRQHandler)
    SystemInit                               0x000266e5   Thumb Code   726  system_nrf52.o(i.SystemInit)
    UARTE0_UART0_IRQHandler                  0x00026a01   Thumb Code     6  nrfx_prs.o(i.UARTE0_UART0_IRQHandler)
    __scatterload_copy                       0x00026a0d   Thumb Code    14  handlers.o(i.__scatterload_copy)
    __scatterload_null                       0x00026a1b   Thumb Code     2  handlers.o(i.__scatterload_null)
    __scatterload_zeroinit                   0x00026a1d   Thumb Code    14  handlers.o(i.__scatterload_zeroinit)
    app_button_enable                        0x00026ae5   Thumb Code    32  app_button.o(i.app_button_enable)
    app_button_init                          0x00026b09   Thumb Code   102  app_button.o(i.app_button_init)
    app_error_fault_handler                  0x00026b81   Thumb Code    84  app_error_weak.o(i.app_error_fault_handler)
    app_error_handler_bare                   0x00026bfd   Thumb Code    22  app_error.o(i.app_error_handler_bare)
    app_timer_create                         0x00026c15   Thumb Code    32  app_timer.o(i.app_timer_create)
    app_timer_init                           0x00026c39   Thumb Code    70  app_timer.o(i.app_timer_init)
    app_timer_start                          0x00026c8d   Thumb Code   128  app_timer.o(i.app_timer_start)
    app_timer_stop                           0x00026d15   Thumb Code    26  app_timer.o(i.app_timer_stop)
    app_util_critical_region_enter           0x00026d35   Thumb Code    64  app_util_platform.o(i.app_util_critical_region_enter)
    app_util_critical_region_exit            0x00026d7d   Thumb Code    46  app_util_platform.o(i.app_util_critical_region_exit)
    ble_advdata_encode                       0x00026ec1   Thumb Code   386  ble_advdata.o(i.ble_advdata_encode)
    bsp_board_init                           0x000270a5   Thumb Code    80  boards.o(i.bsp_board_init)
    bsp_board_led_invert                     0x000270f9   Thumb Code    32  boards.o(i.bsp_board_led_invert)
    bsp_board_led_off                        0x0002711d   Thumb Code    10  boards.o(i.bsp_board_led_off)
    bsp_board_led_on                         0x0002712d   Thumb Code    10  boards.o(i.bsp_board_led_on)
    bsp_board_led_state_get                  0x0002713d   Thumb Code    28  boards.o(i.bsp_board_led_state_get)
    bsp_board_leds_off                       0x0002715d   Thumb Code    18  boards.o(i.bsp_board_leds_off)
    bsp_board_leds_on                        0x0002716f   Thumb Code    18  boards.o(i.bsp_board_leds_on)
    bsp_board_pin_to_button_idx              0x00027181   Thumb Code    30  boards.o(i.bsp_board_pin_to_button_idx)
    bsp_event_to_button_action_assign        0x00027235   Thumb Code    64  bsp.o(i.bsp_event_to_button_action_assign)
    bsp_indication_set                       0x00027279   Thumb Code    20  bsp.o(i.bsp_indication_set)
    bsp_init                                 0x00027291   Thumb Code   128  bsp.o(i.bsp_init)
    buffer_is_empty                          0x0002758d   Thumb Code    16  nrf_log_frontend.o(i.buffer_is_empty)
    main                                     0x00027c51   Thumb Code   232  main.o(i.main)
    nrf_atomic_flag_clear_fetch              0x00027f05   Thumb Code     6  nrf_atomic.o(i.nrf_atomic_flag_clear_fetch)
    nrf_atomic_flag_set                      0x00027f0b   Thumb Code     6  nrf_atomic.o(i.nrf_atomic_flag_set)
    nrf_atomic_u32_add                       0x00027f11   Thumb Code    12  nrf_atomic.o(i.nrf_atomic_u32_add)
    nrf_atomic_u32_fetch_and                 0x00027f1d   Thumb Code    10  nrf_atomic.o(i.nrf_atomic_u32_fetch_and)
    nrf_atomic_u32_fetch_store               0x00027f27   Thumb Code    10  nrf_atomic.o(i.nrf_atomic_u32_fetch_store)
    nrf_atomic_u32_or                        0x00027f31   Thumb Code    12  nrf_atomic.o(i.nrf_atomic_u32_or)
    nrf_atomic_u32_sub                       0x00027f3d   Thumb Code    12  nrf_atomic.o(i.nrf_atomic_u32_sub)
    nrf_balloc_alloc                         0x00027f49   Thumb Code    68  nrf_balloc.o(i.nrf_balloc_alloc)
    nrf_balloc_free                          0x00027f8d   Thumb Code    48  nrf_balloc.o(i.nrf_balloc_free)
    nrf_balloc_init                          0x00027fbd   Thumb Code    48  nrf_balloc.o(i.nrf_balloc_init)
    nrf_drv_clock_init                       0x00028051   Thumb Code    48  nrf_drv_clock.o(i.nrf_drv_clock_init)
    nrf_drv_clock_lfclk_release              0x00028089   Thumb Code    42  nrf_drv_clock.o(i.nrf_drv_clock_lfclk_release)
    nrf_drv_uart_init                        0x000280b9   Thumb Code    90  nrf_drv_uart.o(i.nrf_drv_uart_init)
    nrf_fprintf                              0x00028121   Thumb Code    26  nrf_fprintf.o(i.nrf_fprintf)
    nrf_fprintf_buffer_flush                 0x0002813b   Thumb Code    24  nrf_fprintf.o(i.nrf_fprintf_buffer_flush)
    nrf_fprintf_fmt                          0x00028153   Thumb Code   474  nrf_fprintf_format.o(i.nrf_fprintf_fmt)
    nrf_log_backend_add                      0x000284b1   Thumb Code    74  nrf_log_frontend.o(i.nrf_log_backend_add)
    nrf_log_backend_serial_put               0x00028501   Thumb Code   200  nrf_log_backend_serial.o(i.nrf_log_backend_serial_put)
    nrf_log_backend_uart_init                0x000285cb   Thumb Code     6  nrf_log_backend_uart.o(i.nrf_log_backend_uart_init)
    nrf_log_color_id_get                     0x00028615   Thumb Code    42  nrf_log_frontend.o(i.nrf_log_color_id_get)
    nrf_log_default_backends_init            0x00028645   Thumb Code    22  nrf_log_default_backends.o(i.nrf_log_default_backends_init)
    nrf_log_frontend_dequeue                 0x00028661   Thumb Code   510  nrf_log_frontend.o(i.nrf_log_frontend_dequeue)
    nrf_log_frontend_std_0                   0x00028881   Thumb Code     8  nrf_log_frontend.o(i.nrf_log_frontend_std_0)
    nrf_log_frontend_std_1                   0x00028889   Thumb Code    14  nrf_log_frontend.o(i.nrf_log_frontend_std_1)
    nrf_log_frontend_std_2                   0x00028897   Thumb Code    16  nrf_log_frontend.o(i.nrf_log_frontend_std_2)
    nrf_log_hexdump_entry_process            0x000288a9   Thumb Code   146  nrf_log_str_formatter.o(i.nrf_log_hexdump_entry_process)
    nrf_log_init                             0x00028955   Thumb Code    66  nrf_log_frontend.o(i.nrf_log_init)
    nrf_log_module_cnt_get                   0x000289ad   Thumb Code    10  nrf_log_frontend.o(i.nrf_log_module_cnt_get)
    nrf_log_module_name_get                  0x000289c1   Thumb Code    24  nrf_log_frontend.o(i.nrf_log_module_name_get)
    nrf_log_panic                            0x000289dd   Thumb Code    34  nrf_log_frontend.o(i.nrf_log_panic)
    nrf_log_std_entry_process                0x00028a05   Thumb Code   182  nrf_log_str_formatter.o(i.nrf_log_std_entry_process)
    nrf_memobj_alloc                         0x00028abb   Thumb Code    96  nrf_memobj.o(i.nrf_memobj_alloc)
    nrf_memobj_free                          0x00028b1b   Thumb Code    50  nrf_memobj.o(i.nrf_memobj_free)
    nrf_memobj_get                           0x00028b4d   Thumb Code     8  nrf_memobj.o(i.nrf_memobj_get)
    nrf_memobj_pool_init                     0x00028b55   Thumb Code     4  nrf_memobj.o(i.nrf_memobj_pool_init)
    nrf_memobj_put                           0x00028b59   Thumb Code    30  nrf_memobj.o(i.nrf_memobj_put)
    nrf_memobj_read                          0x00028b77   Thumb Code    12  nrf_memobj.o(i.nrf_memobj_read)
    nrf_memobj_write                         0x00028b83   Thumb Code    12  nrf_memobj.o(i.nrf_memobj_write)
    nrf_pwr_mgmt_init                        0x00028b91   Thumb Code    28  nrf_pwr_mgmt.o(i.nrf_pwr_mgmt_init)
    nrf_pwr_mgmt_run                         0x00028bb9   Thumb Code    64  nrf_pwr_mgmt.o(i.nrf_pwr_mgmt_run)
    nrf_sdh_ble_app_ram_start_get            0x00028bfd   Thumb Code    16  nrf_sdh_ble.o(i.nrf_sdh_ble_app_ram_start_get)
    nrf_sdh_ble_default_cfg_set              0x00028c11   Thumb Code   232  nrf_sdh_ble.o(i.nrf_sdh_ble_default_cfg_set)
    nrf_sdh_ble_enable                       0x00028d11   Thumb Code   116  nrf_sdh_ble.o(i.nrf_sdh_ble_enable)
    nrf_sdh_enable_request                   0x00028e99   Thumb Code   130  nrf_sdh.o(i.nrf_sdh_enable_request)
    nrf_sdh_evts_poll                        0x00028f29   Thumb Code    32  nrf_sdh.o(i.nrf_sdh_evts_poll)
    nrf_sdh_is_enabled                       0x00028f4d   Thumb Code     6  nrf_sdh.o(i.nrf_sdh_is_enabled)
    nrf_section_iter_init                    0x00028f95   Thumb Code    10  nrf_section_iter.o(i.nrf_section_iter_init)
    nrf_section_iter_next                    0x00028fc3   Thumb Code    32  nrf_section_iter.o(i.nrf_section_iter_next)
    nrf_strerror_find                        0x00028fe5   Thumb Code    52  nrf_strerror.o(i.nrf_strerror_find)
    nrf_strerror_get                         0x0002901d   Thumb Code    14  nrf_strerror.o(i.nrf_strerror_get)
    nrfx_clock_enable                        0x00029069   Thumb Code    36  nrfx_clock.o(i.nrfx_clock_enable)
    nrfx_clock_init                          0x00029095   Thumb Code    26  nrfx_clock.o(i.nrfx_clock_init)
    nrfx_clock_lfclk_stop                    0x000290b5   Thumb Code    20  nrfx_clock.o(i.nrfx_clock_lfclk_stop)
    nrfx_gpiote_in_event_enable              0x000290e1   Thumb Code   156  nrfx_gpiote.o(i.nrfx_gpiote_in_event_enable)
    nrfx_gpiote_in_init                      0x00029185   Thumb Code   194  nrfx_gpiote.o(i.nrfx_gpiote_in_init)
    nrfx_gpiote_in_is_set                    0x00029255   Thumb Code    20  nrfx_gpiote.o(i.nrfx_gpiote_in_is_set)
    nrfx_gpiote_init                         0x00029269   Thumb Code    98  nrfx_gpiote.o(i.nrfx_gpiote_init)
    nrfx_gpiote_is_init                      0x000292d9   Thumb Code    14  nrfx_gpiote.o(i.nrfx_gpiote_is_init)
    nrfx_prs_acquire                         0x000292fd   Thumb Code    58  nrfx_prs.o(i.nrfx_prs_acquire)
    nrfx_prs_release                         0x00029337   Thumb Code    18  nrfx_prs.o(i.nrfx_prs_release)
    nrfx_uart_0_irq_handler                  0x00029349   Thumb Code     8  nrfx_uart.o(i.nrfx_uart_0_irq_handler)
    nrfx_uart_init                           0x00029359   Thumb Code   200  nrfx_uart.o(i.nrfx_uart_init)
    nrfx_uart_tx                             0x0002942d   Thumb Code   160  nrfx_uart.o(i.nrfx_uart_tx)
    nrfx_uart_tx_in_progress                 0x000294d1   Thumb Code    26  nrfx_uart.o(i.nrfx_uart_tx_in_progress)
    nrfx_uart_uninit                         0x000294f1   Thumb Code   170  nrfx_uart.o(i.nrfx_uart_uninit)
    nrfx_uarte_0_irq_handler                 0x000295a5   Thumb Code     8  nrfx_uarte.o(i.nrfx_uarte_0_irq_handler)
    nrfx_uarte_init                          0x000295b5   Thumb Code   100  nrfx_uarte.o(i.nrfx_uarte_init)
    nrfx_uarte_tx                            0x00029621   Thumb Code   138  nrfx_uarte.o(i.nrfx_uarte_tx)
    nrfx_uarte_tx_in_progress                0x000296b1   Thumb Code    22  nrfx_uarte.o(i.nrfx_uarte_tx_in_progress)
    nrfx_uarte_uninit                        0x000296cd   Thumb Code   166  nrfx_uarte.o(i.nrfx_uarte_uninit)
    nrf_log_backend_uart_api                 0x0002a458   Data          12  nrf_log_backend_uart.o(.constdata)
    m_ram_start                              0x0002a4fc   Data           4  nrf_sdh_ble.o(.constdata)
    __ctype_table                            0x0002a528   Data         129  ctype_o.o(.constdata)
    Region$$Table$$Base                      0x0002abfc   Number         0  anon$$obj.o(Region$$Table)
    Region$$Table$$Limit                     0x0002ac1c   Number         0  anon$$obj.o(Region$$Table)
    log_const_data$$Base                     0x0002ac1c   Number         0  nrf_drv_clock.o(log_const_data)
    m_nrf_log_clock_logs_data_const          0x0002ac1c   Data           8  nrf_drv_clock.o(log_const_data)
    m_nrf_log_CLOCK_logs_data_const          0x0002ac24   Data           8  nrfx_clock.o(log_const_data)
    m_nrf_log_GPIOTE_logs_data_const         0x0002ac2c   Data           8  nrfx_gpiote.o(log_const_data)
    m_nrf_log_PRS_logs_data_const            0x0002ac34   Data           8  nrfx_prs.o(log_const_data)
    m_nrf_log_UART_logs_data_const           0x0002ac3c   Data           8  nrfx_uart.o(log_const_data)
    m_nrf_log_UARTE_logs_data_const          0x0002ac44   Data           8  nrfx_uarte.o(log_const_data)
    m_nrf_log_pwr_mgmt_logs_data_const       0x0002ac4c   Data           8  nrf_pwr_mgmt.o(log_const_data)
    m_nrf_log_balloc_log_mempool_logs_data_const 0x0002ac54   Data           8  nrf_log_frontend.o(log_const_data)
    m_nrf_log_app_logs_data_const            0x0002ac5c   Data           8  nrf_log_frontend.o(log_const_data)
    m_nrf_log_nrf_sdh_logs_data_const        0x0002ac64   Data           8  nrf_sdh.o(log_const_data)
    m_nrf_log_nrf_sdh_ble_logs_data_const    0x0002ac6c   Data           8  nrf_sdh_ble.o(log_const_data)
    m_nrf_log_nrf_sdh_soc_logs_data_const    0x0002ac74   Data           8  nrf_sdh_soc.o(log_const_data)
    log_const_data$$Limit                    0x0002ac7c   Number         0  nrf_sdh_soc.o(log_const_data)
    log_mempool                              0x0002ac7c   Data          24  nrf_log_frontend.o(nrf_balloc)
    sdh_soc_observers0$$Base                 0x0002ac94   Number         0  nrf_drv_clock.o(sdh_soc_observers0)
    sdh_soc_observers0$$Limit                0x0002ac9c   Number         0  nrf_drv_clock.o(sdh_soc_observers0)
    sdh_stack_observers0$$Base               0x0002ac9c   Number         0  nrf_sdh_ble.o(sdh_stack_observers0)
    sdh_stack_observers0$$Limit              0x0002acac   Number         0  nrf_sdh_soc.o(sdh_stack_observers0)
    sdh_state_observers0$$Base               0x0002acac   Number         0  nrf_drv_clock.o(sdh_state_observers0)
    sdh_state_observers0$$Limit              0x0002acb4   Number         0  nrf_drv_clock.o(sdh_state_observers0)
    Image$$RW_IRAM1$$Base                    0x200018a8   Number         0  anon$$obj.o ABSOLUTE
    nrf_drv_uart_use_easy_dma                0x200018e4   Data           1  nrf_drv_uart.o(.data)
    m_uart                                   0x20001940   Data          20  nrf_log_backend_uart.o(.data)
    SystemCoreClock                          0x200019b4   Data           4  system_nrf52.o(.data)
    log_dynamic_data$$Base                   0x200019b8   Number         0  nrf_drv_clock.o(log_dynamic_data)
    m_nrf_log_clock_logs_data_dynamic        0x200019b8   Data           4  nrf_drv_clock.o(log_dynamic_data)
    m_nrf_log_CLOCK_logs_data_dynamic        0x200019bc   Data           4  nrfx_clock.o(log_dynamic_data)
    m_nrf_log_GPIOTE_logs_data_dynamic       0x200019c0   Data           4  nrfx_gpiote.o(log_dynamic_data)
    m_nrf_log_PRS_logs_data_dynamic          0x200019c4   Data           4  nrfx_prs.o(log_dynamic_data)
    m_nrf_log_UART_logs_data_dynamic         0x200019c8   Data           4  nrfx_uart.o(log_dynamic_data)
    m_nrf_log_UARTE_logs_data_dynamic        0x200019cc   Data           4  nrfx_uarte.o(log_dynamic_data)
    m_nrf_log_pwr_mgmt_logs_data_dynamic     0x200019d0   Data           4  nrf_pwr_mgmt.o(log_dynamic_data)
    m_nrf_log_balloc_log_mempool_logs_data_dynamic 0x200019d4   Data           4  nrf_log_frontend.o(log_dynamic_data)
    m_nrf_log_app_logs_data_dynamic          0x200019d8   Data           4  nrf_log_frontend.o(log_dynamic_data)
    m_nrf_log_nrf_sdh_logs_data_dynamic      0x200019dc   Data           4  nrf_sdh.o(log_dynamic_data)
    m_nrf_log_nrf_sdh_ble_logs_data_dynamic  0x200019e0   Data           4  nrf_sdh_ble.o(log_dynamic_data)
    m_nrf_log_nrf_sdh_soc_logs_data_dynamic  0x200019e4   Data           4  nrf_sdh_soc.o(log_dynamic_data)
    nrf_nvic_state                           0x20001c78   Data          12  app_util_platform.o(.bss)
    __initial_sp                             0x200041b8   Data           0  arm_startup_nrf52.o(STACK)



==============================================================================

Memory Map of the image

  Image Entry point : 0x00026201

  Load Region LR_IROM1 (Base: 0x00026000, Size: 0x00004df4, Max: 0x0005a000, ABSOLUTE, COMPRESSED[0x00004d10])

    Execution Region ER_IROM1 (Exec base: 0x00026000, Load base: 0x00026000, Size: 0x00004cb4, Max: 0x0005a000, ABSOLUTE)

    Exec Addr    Load Addr    Size         Type   Attr      Idx    E Section Name        Object

    0x00026000   0x00026000   0x00000200   Data   RO         3797    RESET               arm_startup_nrf52.o
    0x00026200   0x00026200   0x00000000   Code   RO         3838  * .ARM.Collect$$$$00000000  mc_w.l(entry.o)
    0x00026200   0x00026200   0x00000004   Code   RO         3892    .ARM.Collect$$$$00000001  mc_w.l(entry2.o)
    0x00026204   0x00026204   0x00000004   Code   RO         3895    .ARM.Collect$$$$00000004  mc_w.l(entry5.o)
    0x00026208   0x00026208   0x00000000   Code   RO         3897    .ARM.Collect$$$$00000008  mc_w.l(entry7b.o)
    0x00026208   0x00026208   0x00000000   Code   RO         3899    .ARM.Collect$$$$0000000A  mc_w.l(entry8b.o)
    0x00026208   0x00026208   0x00000008   Code   RO         3900    .ARM.Collect$$$$0000000B  mc_w.l(entry9a.o)
    0x00026210   0x00026210   0x00000000   Code   RO         3902    .ARM.Collect$$$$0000000D  mc_w.l(entry10a.o)
    0x00026210   0x00026210   0x00000000   Code   RO         3904    .ARM.Collect$$$$0000000F  mc_w.l(entry11a.o)
    0x00026210   0x00026210   0x00000004   Code   RO         3893    .ARM.Collect$$$$00002712  mc_w.l(entry2.o)
    0x00026214   0x00026214   0x000000e2   Code   RO         2339    .emb_text           nrf_atomic.o
    0x000262f6   0x000262f6   0x00000002   PAD
    0x000262f8   0x000262f8   0x00000024   Code   RO         3798    .text               arm_startup_nrf52.o
    0x0002631c   0x0002631c   0x00000062   Code   RO         3846    .text               mc_w.l(uldiv.o)
    0x0002637e   0x0002637e   0x0000001e   Code   RO         3848    .text               mc_w.l(llshl.o)
    0x0002639c   0x0002639c   0x00000008   Code   RO         3850    .text               mc_w.l(ctype_o.o)
    0x000263a4   0x000263a4   0x00000024   Code   RO         3878    .text               mc_w.l(memcpya.o)
    0x000263c8   0x000263c8   0x00000024   Code   RO         3880    .text               mc_w.l(memseta.o)
    0x000263ec   0x000263ec   0x0000000e   Code   RO         3882    .text               mc_w.l(strlen.o)
    0x000263fa   0x000263fa   0x00000020   Code   RO         3907    .text               mc_w.l(llushr.o)
    0x0002641a   0x0002641a   0x00000002   PAD
    0x0002641c   0x0002641c   0x00000024   Code   RO         3910    .text               mc_w.l(init.o)
    0x00026440   0x00026440   0x00000056   Code   RO         3920    .text               mc_w.l(__dczerorl2.o)
    0x00026496   0x00026496   0x00000002   PAD
    0x00026498   0x00026498   0x00000164   Code   RO         1038    i.GPIOTE_IRQHandler  nrfx_gpiote.o
    0x000265fc   0x000265fc   0x00000016   Code   RO         1983    i.NVIC_ClearPendingIRQ  app_timer.o
    0x00026612   0x00026612   0x00000016   Code   RO         1984    i.NVIC_EnableIRQ    app_timer.o
    0x00026628   0x00026628   0x00000016   Code   RO         1985    i.NVIC_SetPendingIRQ  app_timer.o
    0x0002663e   0x0002663e   0x00000020   Code   RO         1986    i.NVIC_SetPriority  app_timer.o
    0x0002665e   0x0002665e   0x00000002   PAD
    0x00026660   0x00026660   0x00000058   Code   RO          906    i.POWER_CLOCK_IRQHandler  nrfx_clock.o
    0x000266b8   0x000266b8   0x00000024   Code   RO         1987    i.RTC1_IRQHandler   app_timer.o
    0x000266dc   0x000266dc   0x00000004   Code   RO         1988    i.SWI0_EGU0_IRQHandler  app_timer.o
    0x000266e0   0x000266e0   0x00000004   Code   RO         3584    i.SWI2_EGU2_IRQHandler  nrf_sdh.o
    0x000266e4   0x000266e4   0x0000031c   Code   RO         3806    i.SystemInit        system_nrf52.o
    0x00026a00   0x00026a00   0x0000000c   Code   RO         1337    i.UARTE0_UART0_IRQHandler  nrfx_prs.o
    0x00026a0c   0x00026a0c   0x0000000e   Code   RO         3914    i.__scatterload_copy  mc_w.l(handlers.o)
    0x00026a1a   0x00026a1a   0x00000002   Code   RO         3915    i.__scatterload_null  mc_w.l(handlers.o)
    0x00026a1c   0x00026a1c   0x0000000e   Code   RO         3916    i.__scatterload_zeroinit  mc_w.l(handlers.o)
    0x00026a2a   0x00026a2a   0x00000002   PAD
    0x00026a2c   0x00026a2c   0x00000024   Code   RO         3585    i.__sd_nvic_app_accessible_irq  nrf_sdh.o
    0x00026a50   0x00026a50   0x00000016   Code   RO         3586    i.__sd_nvic_is_app_accessible_priority  nrf_sdh.o
    0x00026a66   0x00026a66   0x00000002   PAD
    0x00026a68   0x00026a68   0x00000074   Code   RO            4    i.advertising_init  main.o
    0x00026adc   0x00026adc   0x00000006   Code   RO          407    i.alert_timer_handler  bsp.o
    0x00026ae2   0x00026ae2   0x00000002   PAD
    0x00026ae4   0x00026ae4   0x00000024   Code   RO         1729    i.app_button_enable  app_button.o
    0x00026b08   0x00026b08   0x00000078   Code   RO         1730    i.app_button_init   app_button.o
    0x00026b80   0x00026b80   0x0000007c   Code   RO         1886    i.app_error_fault_handler  app_error_weak.o
    0x00026bfc   0x00026bfc   0x00000016   Code   RO         1826    i.app_error_handler_bare  app_error.o
    0x00026c12   0x00026c12   0x00000002   PAD
    0x00026c14   0x00026c14   0x00000024   Code   RO         1991    i.app_timer_create  app_timer.o
    0x00026c38   0x00026c38   0x00000054   Code   RO         1992    i.app_timer_init    app_timer.o
    0x00026c8c   0x00026c8c   0x00000088   Code   RO         1995    i.app_timer_start   app_timer.o
    0x00026d14   0x00026d14   0x00000020   Code   RO         1996    i.app_timer_stop    app_timer.o
    0x00026d34   0x00026d34   0x00000048   Code   RO         2153    i.app_util_critical_region_enter  app_util_platform.o
    0x00026d7c   0x00026d7c   0x00000034   Code   RO         2154    i.app_util_critical_region_exit  app_util_platform.o
    0x00026db0   0x00026db0   0x00000088   Code   RO         1388    i.apply_config      nrfx_uart.o
    0x00026e38   0x00026e38   0x00000088   Code   RO         1576    i.apply_config      nrfx_uarte.o
    0x00026ec0   0x00026ec0   0x00000182   Code   RO          525    i.ble_advdata_encode  ble_advdata.o
    0x00027042   0x00027042   0x00000060   Code   RO          531    i.ble_device_addr_encode  ble_advdata.o
    0x000270a2   0x000270a2   0x00000002   PAD
    0x000270a4   0x000270a4   0x00000054   Code   RO          303    i.bsp_board_init    boards.o
    0x000270f8   0x000270f8   0x00000024   Code   RO          305    i.bsp_board_led_invert  boards.o
    0x0002711c   0x0002711c   0x00000010   Code   RO          306    i.bsp_board_led_off  boards.o
    0x0002712c   0x0002712c   0x00000010   Code   RO          307    i.bsp_board_led_on  boards.o
    0x0002713c   0x0002713c   0x00000020   Code   RO          308    i.bsp_board_led_state_get  boards.o
    0x0002715c   0x0002715c   0x00000012   Code   RO          309    i.bsp_board_leds_off  boards.o
    0x0002716e   0x0002716e   0x00000012   Code   RO          310    i.bsp_board_leds_on  boards.o
    0x00027180   0x00027180   0x00000024   Code   RO          311    i.bsp_board_pin_to_button_idx  boards.o
    0x000271a4   0x000271a4   0x00000090   Code   RO          408    i.bsp_button_event_handler  bsp.o
    0x00027234   0x00027234   0x00000044   Code   RO          412    i.bsp_event_to_button_action_assign  bsp.o
    0x00027278   0x00027278   0x00000018   Code   RO          413    i.bsp_indication_set  bsp.o
    0x00027290   0x00027290   0x00000094   Code   RO          414    i.bsp_init          bsp.o
    0x00027324   0x00027324   0x000001b8   Code   RO          415    i.bsp_led_indication  bsp.o
    0x000274dc   0x000274dc   0x00000090   Code   RO         2983    i.buf_prealloc      nrf_log_frontend.o
    0x0002756c   0x0002756c   0x0000001e   Code   RO         2554    i.buffer_add        nrf_fprintf_format.o
    0x0002758a   0x0002758a   0x00000002   PAD
    0x0002758c   0x0002758c   0x00000014   Code   RO         2984    i.buffer_is_empty   nrf_log_frontend.o
    0x000275a0   0x000275a0   0x00000008   Code   RO          418    i.button_timer_handler  bsp.o
    0x000275a8   0x000275a8   0x0000001c   Code   RO         1039    i.channel_free      nrfx_gpiote.o
    0x000275c4   0x000275c4   0x00000048   Code   RO         1040    i.channel_port_alloc  nrfx_gpiote.o
    0x0002760c   0x0002760c   0x00000010   Code   RO         1041    i.channel_port_get  nrfx_gpiote.o
    0x0002761c   0x0002761c   0x00000028   Code   RO          702    i.clock_clk_started_notify  nrf_drv_clock.o
    0x00027644   0x00027644   0x0000001c   Code   RO          703    i.clock_irq_handler  nrf_drv_clock.o
    0x00027660   0x00027660   0x000000ac   Code   RO         1998    i.compare_reg_update  app_timer.o
    0x0002770c   0x0002770c   0x00000088   Code   RO          532    i.conn_int_encode   ble_advdata.o
    0x00027794   0x00027794   0x00000098   Code   RO         1732    i.detection_delay_timeout_handler  app_button.o
    0x0002782c   0x0002782c   0x00000014   Code   RO         2986    i.dropped_sat16_get  nrf_log_frontend.o
    0x00027840   0x00027840   0x00000040   Code   RO         1999    i.elapsed_ticks_acquire  app_timer.o
    0x00027880   0x00027880   0x00000084   Code   RO         1733    i.gpiote_event_handler  app_button.o
    0x00027904   0x00027904   0x000000a6   Code   RO         2555    i.int_print         nrf_fprintf_format.o
    0x000279aa   0x000279aa   0x00000002   PAD
    0x000279ac   0x000279ac   0x00000080   Code   RO         1577    i.interrupts_enable  nrfx_uarte.o
    0x00027a2c   0x00027a2c   0x0000004c   Code   RO         2987    i.invalid_packets_pushed_str_omit  nrf_log_frontend.o
    0x00027a78   0x00027a78   0x00000030   Code   RO          419    i.leds_off          bsp.o
    0x00027aa8   0x00027aa8   0x00000014   Code   RO          420    i.leds_timer_handler  bsp.o
    0x00027abc   0x00027abc   0x000000f8   Code   RO         2000    i.list_insertions_handler  app_timer.o
    0x00027bb4   0x00027bb4   0x0000009c   Code   RO         2988    i.log_skip          nrf_log_frontend.o
    0x00027c50   0x00027c50   0x0000010c   Code   RO            6    i.main              main.o
    0x00027d5c   0x00027d5c   0x00000064   Code   RO          533    i.manuf_specific_data_encode  ble_advdata.o
    0x00027dc0   0x00027dc0   0x00000076   Code   RO         2594    i.memobj_op         nrf_memobj.o
    0x00027e36   0x00027e36   0x00000002   PAD
    0x00027e38   0x00027e38   0x00000030   Code   RO         2989    i.module_idx_get    nrf_log_frontend.o
    0x00027e68   0x00027e68   0x0000009c   Code   RO          534    i.name_encode       ble_advdata.o
    0x00027f04   0x00027f04   0x00000006   Code   RO         2341    i.nrf_atomic_flag_clear_fetch  nrf_atomic.o
    0x00027f0a   0x00027f0a   0x00000006   Code   RO         2342    i.nrf_atomic_flag_set  nrf_atomic.o
    0x00027f10   0x00027f10   0x0000000c   Code   RO         2344    i.nrf_atomic_u32_add  nrf_atomic.o
    0x00027f1c   0x00027f1c   0x0000000a   Code   RO         2348    i.nrf_atomic_u32_fetch_and  nrf_atomic.o
    0x00027f26   0x00027f26   0x0000000a   Code   RO         2350    i.nrf_atomic_u32_fetch_store  nrf_atomic.o
    0x00027f30   0x00027f30   0x0000000c   Code   RO         2354    i.nrf_atomic_u32_or  nrf_atomic.o
    0x00027f3c   0x00027f3c   0x0000000c   Code   RO         2356    i.nrf_atomic_u32_sub  nrf_atomic.o
    0x00027f48   0x00027f48   0x00000044   Code   RO         2478    i.nrf_balloc_alloc  nrf_balloc.o
    0x00027f8c   0x00027f8c   0x00000030   Code   RO         2479    i.nrf_balloc_free   nrf_balloc.o
    0x00027fbc   0x00027fbc   0x00000030   Code   RO         2480    i.nrf_balloc_init   nrf_balloc.o
    0x00027fec   0x00027fec   0x00000010   Code   RO         1042    i.nrf_bitmask_bit_is_set  nrfx_gpiote.o
    0x00027ffc   0x00027ffc   0x00000014   Code   RO         1043    i.nrf_bitmask_bit_set  nrfx_gpiote.o
    0x00028010   0x00028010   0x0000000e   Code   RO          907    i.nrf_clock_event_check  nrfx_clock.o
    0x0002801e   0x0002801e   0x00000010   Code   RO          908    i.nrf_clock_event_clear  nrfx_clock.o
    0x0002802e   0x0002802e   0x00000002   PAD
    0x00028030   0x00028030   0x00000020   Code   RO            7    i.nrf_delay_ms      main.o
    0x00028050   0x00028050   0x00000038   Code   RO          710    i.nrf_drv_clock_init  nrf_drv_clock.o
    0x00028088   0x00028088   0x00000030   Code   RO          714    i.nrf_drv_clock_lfclk_release  nrf_drv_clock.o
    0x000280b8   0x000280b8   0x00000068   Code   RO          854    i.nrf_drv_uart_init  nrf_drv_uart.o
    0x00028120   0x00028120   0x0000001a   Code   RO         2515    i.nrf_fprintf       nrf_fprintf.o
    0x0002813a   0x0002813a   0x00000018   Code   RO         2516    i.nrf_fprintf_buffer_flush  nrf_fprintf.o
    0x00028152   0x00028152   0x000001da   Code   RO         2556    i.nrf_fprintf_fmt   nrf_fprintf_format.o
    0x0002832c   0x0002832c   0x00000024   Code   RO          313    i.nrf_gpio_cfg      boards.o
    0x00028350   0x00028350   0x00000024   Code   RO         1044    i.nrf_gpio_cfg      nrfx_gpiote.o
    0x00028374   0x00028374   0x00000024   Code   RO         1389    i.nrf_gpio_cfg      nrfx_uart.o
    0x00028398   0x00028398   0x00000024   Code   RO         1578    i.nrf_gpio_cfg      nrfx_uarte.o
    0x000283bc   0x000283bc   0x00000012   Code   RO         1390    i.nrf_gpio_cfg_default  nrfx_uart.o
    0x000283ce   0x000283ce   0x00000012   Code   RO         1579    i.nrf_gpio_cfg_default  nrfx_uarte.o
    0x000283e0   0x000283e0   0x00000012   Code   RO         1391    i.nrf_gpio_cfg_input  nrfx_uart.o
    0x000283f2   0x000283f2   0x00000012   Code   RO         1580    i.nrf_gpio_cfg_input  nrfx_uarte.o
    0x00028404   0x00028404   0x00000014   Code   RO         1392    i.nrf_gpio_cfg_output  nrfx_uart.o
    0x00028418   0x00028418   0x00000014   Code   RO         1581    i.nrf_gpio_cfg_output  nrfx_uarte.o
    0x0002842c   0x0002842c   0x00000022   Code   RO         1046    i.nrf_gpio_cfg_sense_set  nrfx_gpiote.o
    0x0002844e   0x0002844e   0x00000016   Code   RO          314    i.nrf_gpio_pin_write  boards.o
    0x00028464   0x00028464   0x00000028   Code   RO         1047    i.nrf_gpio_ports_read  nrfx_gpiote.o
    0x0002848c   0x0002848c   0x00000014   Code   RO         1048    i.nrf_gpiote_event_clear  nrfx_gpiote.o
    0x000284a0   0x000284a0   0x00000010   Code   RO         1049    i.nrf_gpiote_event_is_set  nrfx_gpiote.o
    0x000284b0   0x000284b0   0x00000050   Code   RO         2990    i.nrf_log_backend_add  nrf_log_frontend.o
    0x00028500   0x00028500   0x000000c8   Code   RO         2831    i.nrf_log_backend_serial_put  nrf_log_backend_serial.o
    0x000285c8   0x000285c8   0x00000002   Code   RO         2871    i.nrf_log_backend_uart_flush  nrf_log_backend_uart.o
    0x000285ca   0x000285ca   0x00000006   Code   RO         2872    i.nrf_log_backend_uart_init  nrf_log_backend_uart.o
    0x000285d0   0x000285d0   0x0000002c   Code   RO         2873    i.nrf_log_backend_uart_panic_set  nrf_log_backend_uart.o
    0x000285fc   0x000285fc   0x00000018   Code   RO         2874    i.nrf_log_backend_uart_put  nrf_log_backend_uart.o
    0x00028614   0x00028614   0x00000030   Code   RO         2992    i.nrf_log_color_id_get  nrf_log_frontend.o
    0x00028644   0x00028644   0x0000001c   Code   RO         2950    i.nrf_log_default_backends_init  nrf_log_default_backends.o
    0x00028660   0x00028660   0x00000220   Code   RO         2993    i.nrf_log_frontend_dequeue  nrf_log_frontend.o
    0x00028880   0x00028880   0x00000008   Code   RO         2995    i.nrf_log_frontend_std_0  nrf_log_frontend.o
    0x00028888   0x00028888   0x0000000e   Code   RO         2996    i.nrf_log_frontend_std_1  nrf_log_frontend.o
    0x00028896   0x00028896   0x00000010   Code   RO         2997    i.nrf_log_frontend_std_2  nrf_log_frontend.o
    0x000288a6   0x000288a6   0x00000002   PAD
    0x000288a8   0x000288a8   0x000000ac   Code   RO         3170    i.nrf_log_hexdump_entry_process  nrf_log_str_formatter.o
    0x00028954   0x00028954   0x00000058   Code   RO         3002    i.nrf_log_init      nrf_log_frontend.o
    0x000289ac   0x000289ac   0x00000014   Code   RO         3003    i.nrf_log_module_cnt_get  nrf_log_frontend.o
    0x000289c0   0x000289c0   0x0000001c   Code   RO         3006    i.nrf_log_module_name_get  nrf_log_frontend.o
    0x000289dc   0x000289dc   0x00000028   Code   RO         3007    i.nrf_log_panic     nrf_log_frontend.o
    0x00028a04   0x00028a04   0x000000b6   Code   RO         3171    i.nrf_log_std_entry_process  nrf_log_str_formatter.o
    0x00028aba   0x00028aba   0x00000060   Code   RO         2595    i.nrf_memobj_alloc  nrf_memobj.o
    0x00028b1a   0x00028b1a   0x00000032   Code   RO         2596    i.nrf_memobj_free   nrf_memobj.o
    0x00028b4c   0x00028b4c   0x00000008   Code   RO         2597    i.nrf_memobj_get    nrf_memobj.o
    0x00028b54   0x00028b54   0x00000004   Code   RO         2598    i.nrf_memobj_pool_init  nrf_memobj.o
    0x00028b58   0x00028b58   0x0000001e   Code   RO         2599    i.nrf_memobj_put    nrf_memobj.o
    0x00028b76   0x00028b76   0x0000000c   Code   RO         2600    i.nrf_memobj_read   nrf_memobj.o
    0x00028b82   0x00028b82   0x0000000c   Code   RO         2601    i.nrf_memobj_write  nrf_memobj.o
    0x00028b8e   0x00028b8e   0x00000002   PAD
    0x00028b90   0x00028b90   0x00000028   Code   RO         2673    i.nrf_pwr_mgmt_init  nrf_pwr_mgmt.o
    0x00028bb8   0x00028bb8   0x00000044   Code   RO         2674    i.nrf_pwr_mgmt_run  nrf_pwr_mgmt.o
    0x00028bfc   0x00028bfc   0x00000014   Code   RO         3715    i.nrf_sdh_ble_app_ram_start_get  nrf_sdh_ble.o
    0x00028c10   0x00028c10   0x00000100   Code   RO         3716    i.nrf_sdh_ble_default_cfg_set  nrf_sdh_ble.o
    0x00028d10   0x00028d10   0x0000012c   Code   RO         3717    i.nrf_sdh_ble_enable  nrf_sdh_ble.o
    0x00028e3c   0x00028e3c   0x0000005c   Code   RO         3718    i.nrf_sdh_ble_evts_poll  nrf_sdh_ble.o
    0x00028e98   0x00028e98   0x00000090   Code   RO         3588    i.nrf_sdh_enable_request  nrf_sdh.o
    0x00028f28   0x00028f28   0x00000024   Code   RO         3589    i.nrf_sdh_evts_poll  nrf_sdh.o
    0x00028f4c   0x00028f4c   0x0000000c   Code   RO         3590    i.nrf_sdh_is_enabled  nrf_sdh.o
    0x00028f58   0x00028f58   0x0000003c   Code   RO         3766    i.nrf_sdh_soc_evts_poll  nrf_sdh_soc.o
    0x00028f94   0x00028f94   0x0000000a   Code   RO         2745    i.nrf_section_iter_init  nrf_section_iter.o
    0x00028f9e   0x00028f9e   0x00000024   Code   RO         2746    i.nrf_section_iter_item_set  nrf_section_iter.o
    0x00028fc2   0x00028fc2   0x00000020   Code   RO         2747    i.nrf_section_iter_next  nrf_section_iter.o
    0x00028fe2   0x00028fe2   0x00000002   PAD
    0x00028fe4   0x00028fe4   0x00000038   Code   RO         2780    i.nrf_strerror_find  nrf_strerror.o
    0x0002901c   0x0002901c   0x00000014   Code   RO         2781    i.nrf_strerror_get  nrf_strerror.o
    0x00029030   0x00029030   0x0000000a   Code   RO         1393    i.nrf_uart_event_check  nrfx_uart.o
    0x0002903a   0x0002903a   0x0000000c   Code   RO         1394    i.nrf_uart_event_clear  nrfx_uart.o
    0x00029046   0x00029046   0x0000000c   Code   RO         1395    i.nrf_uart_int_enable_check  nrfx_uart.o
    0x00029052   0x00029052   0x0000000a   Code   RO         1582    i.nrf_uarte_event_check  nrfx_uarte.o
    0x0002905c   0x0002905c   0x0000000c   Code   RO         1583    i.nrf_uarte_event_clear  nrfx_uarte.o
    0x00029068   0x00029068   0x0000002c   Code   RO          913    i.nrfx_clock_enable  nrfx_clock.o
    0x00029094   0x00029094   0x00000020   Code   RO          916    i.nrfx_clock_init   nrfx_clock.o
    0x000290b4   0x000290b4   0x0000001c   Code   RO          919    i.nrfx_clock_lfclk_stop  nrfx_clock.o
    0x000290d0   0x000290d0   0x00000010   Code   RO         2001    i.nrfx_coredep_delay_us  app_timer.o
    0x000290e0   0x000290e0   0x000000a4   Code   RO         1054    i.nrfx_gpiote_in_event_enable  nrfx_gpiote.o
    0x00029184   0x00029184   0x000000d0   Code   RO         1055    i.nrfx_gpiote_in_init  nrfx_gpiote.o
    0x00029254   0x00029254   0x00000014   Code   RO         1056    i.nrfx_gpiote_in_is_set  nrfx_gpiote.o
    0x00029268   0x00029268   0x00000070   Code   RO         1058    i.nrfx_gpiote_init  nrfx_gpiote.o
    0x000292d8   0x000292d8   0x00000014   Code   RO         1059    i.nrfx_gpiote_is_init  nrfx_gpiote.o
    0x000292ec   0x000292ec   0x00000010   Code   RO         1584    i.nrfx_is_in_ram    nrfx_uarte.o
    0x000292fc   0x000292fc   0x0000003a   Code   RO         1338    i.nrfx_prs_acquire  nrfx_prs.o
    0x00029336   0x00029336   0x00000012   Code   RO         1339    i.nrfx_prs_release  nrfx_prs.o
    0x00029348   0x00029348   0x00000010   Code   RO         1396    i.nrfx_uart_0_irq_handler  nrfx_uart.o
    0x00029358   0x00029358   0x000000d4   Code   RO         1398    i.nrfx_uart_init    nrfx_uart.o
    0x0002942c   0x0002942c   0x000000a4   Code   RO         1404    i.nrfx_uart_tx      nrfx_uart.o
    0x000294d0   0x000294d0   0x00000020   Code   RO         1406    i.nrfx_uart_tx_in_progress  nrfx_uart.o
    0x000294f0   0x000294f0   0x000000b4   Code   RO         1407    i.nrfx_uart_uninit  nrfx_uart.o
    0x000295a4   0x000295a4   0x00000010   Code   RO         1585    i.nrfx_uarte_0_irq_handler  nrfx_uarte.o
    0x000295b4   0x000295b4   0x0000006c   Code   RO         1587    i.nrfx_uarte_init   nrfx_uarte.o
    0x00029620   0x00029620   0x00000090   Code   RO         1591    i.nrfx_uarte_tx     nrfx_uarte.o
    0x000296b0   0x000296b0   0x0000001c   Code   RO         1593    i.nrfx_uarte_tx_in_progress  nrfx_uarte.o
    0x000296cc   0x000296cc   0x000000b0   Code   RO         1594    i.nrfx_uarte_uninit  nrfx_uarte.o
    0x0002977c   0x0002977c   0x00000018   Code   RO         1075    i.pin_in_use_by_port  nrfx_gpiote.o
    0x00029794   0x00029794   0x00000018   Code   RO         1076    i.pin_in_use_by_te  nrfx_gpiote.o
    0x000297ac   0x000297ac   0x0000003c   Code   RO         3173    i.postfix_process   nrf_log_str_formatter.o
    0x000297e8   0x000297e8   0x00000098   Code   RO         3174    i.prefix_process    nrf_log_str_formatter.o
    0x00029880   0x00029880   0x00000018   Code   RO         1340    i.prs_box_get       nrfx_prs.o
    0x00029898   0x00029898   0x0000003c   Code   RO         2002    i.rtc1_stop         app_timer.o
    0x000298d4   0x000298d4   0x00000032   Code   RO         1408    i.rx_byte           nrfx_uart.o
    0x00029906   0x00029906   0x00000016   Code   RO         1409    i.rx_done_event     nrfx_uart.o
    0x0002991c   0x0002991c   0x00000018   Code   RO         1595    i.rx_done_event     nrfx_uarte.o
    0x00029934   0x00029934   0x00000042   Code   RO         3595    i.sd_nvic_SetPriority  nrf_sdh.o
    0x00029976   0x00029976   0x00000002   PAD
    0x00029978   0x00029978   0x00000050   Code   RO          717    i.sd_state_evt_handler  nrf_drv_clock.o
    0x000299c8   0x000299c8   0x00000030   Code   RO         3596    i.sdh_request_observer_notify  nrf_sdh.o
    0x000299f8   0x000299f8   0x0000002c   Code   RO         3597    i.sdh_state_observer_notify  nrf_sdh.o
    0x00029a24   0x00029a24   0x00000040   Code   RO         2875    i.serial_tx         nrf_log_backend_uart.o
    0x00029a64   0x00029a64   0x00000088   Code   RO          535    i.service_data_encode  ble_advdata.o
    0x00029aec   0x00029aec   0x00000018   Code   RO          718    i.soc_evt_handler   nrf_drv_clock.o
    0x00029b04   0x00029b04   0x00000050   Code   RO         3599    i.softdevices_evt_irq_enable  nrf_sdh.o
    0x00029b54   0x00029b54   0x0000008c   Code   RO         3009    i.std_n             nrf_log_frontend.o
    0x00029be0   0x00029be0   0x00000080   Code   RO         2003    i.timer_list_handler  app_timer.o
    0x00029c60   0x00029c60   0x0000003c   Code   RO         2004    i.timer_list_insert  app_timer.o
    0x00029c9c   0x00029c9c   0x00000060   Code   RO         2005    i.timer_list_remove  app_timer.o
    0x00029cfc   0x00029cfc   0x00000048   Code   RO         2006    i.timer_stop_op_schedule  app_timer.o
    0x00029d44   0x00029d44   0x00000074   Code   RO         2007    i.timer_timeouts_check  app_timer.o
    0x00029db8   0x00029db8   0x00000020   Code   RO         1411    i.tx_byte           nrfx_uart.o
    0x00029dd8   0x00029dd8   0x0000001a   Code   RO         1412    i.tx_done_event     nrfx_uart.o
    0x00029df2   0x00029df2   0x00000002   PAD
    0x00029df4   0x00029df4   0x00000030   Code   RO          855    i.uart_evt_handler  nrf_drv_uart.o
    0x00029e24   0x00029e24   0x0000000c   Code   RO         2876    i.uart_evt_handler  nrf_log_backend_uart.o
    0x00029e30   0x00029e30   0x00000050   Code   RO         2877    i.uart_init         nrf_log_backend_uart.o
    0x00029e80   0x00029e80   0x00000128   Code   RO         1413    i.uart_irq_handler  nrfx_uart.o
    0x00029fa8   0x00029fa8   0x00000030   Code   RO          856    i.uarte_evt_handler  nrf_drv_uart.o
    0x00029fd8   0x00029fd8   0x000000f4   Code   RO         1596    i.uarte_irq_handler  nrfx_uarte.o
    0x0002a0cc   0x0002a0cc   0x0000000a   Code   RO          536    i.uint16_encode     ble_advdata.o
    0x0002a0d6   0x0002a0d6   0x00000002   PAD
    0x0002a0d8   0x0002a0d8   0x000000b4   Code   RO         2557    i.unsigned_print    nrf_fprintf_format.o
    0x0002a18c   0x0002a18c   0x00000030   Code   RO         2008    i.user_op_alloc     app_timer.o
    0x0002a1bc   0x0002a1bc   0x00000030   Code   RO          537    i.uuid_list_encode  ble_advdata.o
    0x0002a1ec   0x0002a1ec   0x0000009e   Code   RO          538    i.uuid_list_sized_encode  ble_advdata.o
    0x0002a28a   0x0002a28a   0x00000006   PAD
    0x0002a290   0x0002a290   0x00000006   Data   RO           10    .constdata          main.o
    0x0002a296   0x0002a296   0x00000008   Data   RO          315    .constdata          boards.o
    0x0002a29e   0x0002a29e   0x00000002   PAD
    0x0002a2a0   0x0002a2a0   0x0000002c   Data   RO          426    .constdata          bsp.o
    0x0002a2cc   0x0002a2cc   0x00000004   Data   RO         1078    .constdata          nrfx_gpiote.o
    0x0002a2d0   0x0002a2d0   0x00000004   Data   RO         1416    .constdata          nrfx_uart.o
    0x0002a2d4   0x0002a2d4   0x00000004   Data   RO         1599    .constdata          nrfx_uarte.o
    0x0002a2d8   0x0002a2d8   0x00000008   Data   RO         1735    .constdata          app_button.o
    0x0002a2e0   0x0002a2e0   0x00000006   Data   RO         2010    .constdata          app_timer.o
    0x0002a2e6   0x0002a2e6   0x00000010   Data   RO         2558    .constdata          nrf_fprintf_format.o
    0x0002a2f6   0x0002a2f6   0x00000002   PAD
    0x0002a2f8   0x0002a2f8   0x00000018   Data   RO         2678    .constdata          nrf_pwr_mgmt.o
    0x0002a310   0x0002a310   0x0000000c   Data   RO         2679    .constdata          nrf_pwr_mgmt.o
    0x0002a31c   0x0002a31c   0x0000013c   Data   RO         2782    .constdata          nrf_strerror.o
    0x0002a458   0x0002a458   0x0000000c   Data   RO         2879    .constdata          nrf_log_backend_uart.o
    0x0002a464   0x0002a464   0x00000020   Data   RO         2880    .constdata          nrf_log_backend_uart.o
    0x0002a484   0x0002a484   0x00000010   Data   RO         3600    .constdata          nrf_sdh.o
    0x0002a494   0x0002a494   0x00000028   Data   RO         3601    .constdata          nrf_sdh.o
    0x0002a4bc   0x0002a4bc   0x00000010   Data   RO         3602    .constdata          nrf_sdh.o
    0x0002a4cc   0x0002a4cc   0x00000010   Data   RO         3603    .constdata          nrf_sdh.o
    0x0002a4dc   0x0002a4dc   0x00000020   Data   RO         3719    .constdata          nrf_sdh_ble.o
    0x0002a4fc   0x0002a4fc   0x00000010   Data   RO         3720    .constdata          nrf_sdh_ble.o
    0x0002a50c   0x0002a50c   0x00000010   Data   RO         3767    .constdata          nrf_sdh_soc.o
    0x0002a51c   0x0002a51c   0x0000000c   Data   RO         3768    .constdata          nrf_sdh_soc.o
    0x0002a528   0x0002a528   0x00000081   Data   RO         3851    .constdata          mc_w.l(ctype_o.o)
    0x0002a5a9   0x0002a5a9   0x00000003   PAD
    0x0002a5ac   0x0002a5ac   0x00000004   Data   RO         3852    .constdata          mc_w.l(ctype_o.o)
    0x0002a5b0   0x0002a5b0   0x000003eb   Data   RO         2783    .conststring        nrf_strerror.o
    0x0002a99b   0x0002a99b   0x00000001   PAD
    0x0002a99c   0x0002a99c   0x00000066   Data   RO         3175    .conststring        nrf_log_str_formatter.o
    0x0002aa02   0x0002aa02   0x00000002   PAD
    0x0002aa04   0x0002aa04   0x00000188   Data   RO         3721    .conststring        nrf_sdh_ble.o
    0x0002ab8c   0x0002ab8c   0x00000006   Data   RO          724    .conststrlit        nrf_drv_clock.o
    0x0002ab92   0x0002ab92   0x00000002   PAD
    0x0002ab94   0x0002ab94   0x00000006   Data   RO          923    .conststrlit        nrfx_clock.o
    0x0002ab9a   0x0002ab9a   0x00000002   PAD
    0x0002ab9c   0x0002ab9c   0x00000007   Data   RO         1082    .conststrlit        nrfx_gpiote.o
    0x0002aba3   0x0002aba3   0x00000001   PAD
    0x0002aba4   0x0002aba4   0x00000004   Data   RO         1342    .conststrlit        nrfx_prs.o
    0x0002aba8   0x0002aba8   0x00000005   Data   RO         1419    .conststrlit        nrfx_uart.o
    0x0002abad   0x0002abad   0x00000003   PAD
    0x0002abb0   0x0002abb0   0x00000006   Data   RO         1602    .conststrlit        nrfx_uarte.o
    0x0002abb6   0x0002abb6   0x00000002   PAD
    0x0002abb8   0x0002abb8   0x00000009   Data   RO         2680    .conststrlit        nrf_pwr_mgmt.o
    0x0002abc1   0x0002abc1   0x00000003   PAD
    0x0002abc4   0x0002abc4   0x00000018   Data   RO         3012    .conststrlit        nrf_log_frontend.o
    0x0002abdc   0x0002abdc   0x00000008   Data   RO         3604    .conststrlit        nrf_sdh.o
    0x0002abe4   0x0002abe4   0x0000000c   Data   RO         3722    .conststrlit        nrf_sdh_ble.o
    0x0002abf0   0x0002abf0   0x0000000c   Data   RO         3769    .conststrlit        nrf_sdh_soc.o
    0x0002abfc   0x0002abfc   0x00000020   Data   RO         3912    Region$$Table       anon$$obj.o
    0x0002ac1c   0x0002ac1c   0x00000008   Data   RO          725    log_const_data      nrf_drv_clock.o
    0x0002ac24   0x0002ac24   0x00000008   Data   RO          925    log_const_data      nrfx_clock.o
    0x0002ac2c   0x0002ac2c   0x00000008   Data   RO         1083    log_const_data      nrfx_gpiote.o
    0x0002ac34   0x0002ac34   0x00000008   Data   RO         1344    log_const_data      nrfx_prs.o
    0x0002ac3c   0x0002ac3c   0x00000008   Data   RO         1420    log_const_data      nrfx_uart.o
    0x0002ac44   0x0002ac44   0x00000008   Data   RO         1603    log_const_data      nrfx_uarte.o
    0x0002ac4c   0x0002ac4c   0x00000008   Data   RO         2682    log_const_data      nrf_pwr_mgmt.o
    0x0002ac54   0x0002ac54   0x00000010   Data   RO         3015    log_const_data      nrf_log_frontend.o
    0x0002ac64   0x0002ac64   0x00000008   Data   RO         3606    log_const_data      nrf_sdh.o
    0x0002ac6c   0x0002ac6c   0x00000008   Data   RO         3724    log_const_data      nrf_sdh_ble.o
    0x0002ac74   0x0002ac74   0x00000008   Data   RO         3770    log_const_data      nrf_sdh_soc.o
    0x0002ac7c   0x0002ac7c   0x00000018   Data   RO         3017    nrf_balloc          nrf_log_frontend.o
    0x0002ac94   0x0002ac94   0x00000008   Data   RO          727    sdh_soc_observers0  nrf_drv_clock.o
    0x0002ac9c   0x0002ac9c   0x00000008   Data   RO         3726    sdh_stack_observers0  nrf_sdh_ble.o
    0x0002aca4   0x0002aca4   0x00000008   Data   RO         3772    sdh_stack_observers0  nrf_sdh_soc.o
    0x0002acac   0x0002acac   0x00000008   Data   RO          728    sdh_state_observers0  nrf_drv_clock.o


    Execution Region RW_IRAM1 (Exec base: 0x200018a8, Load base: 0x0002acb4, Size: 0x00002910, Max: 0x0000e758, ABSOLUTE, COMPRESSED[0x0000005c])

    Exec Addr    Load Addr    Size         Type   Attr      Idx    E Section Name        Object

    0x200018a8   COMPRESSED   0x0000002b   Data   RW           11    .data               main.o
    0x200018d3   COMPRESSED   0x00000001   PAD
    0x200018d4   COMPRESSED   0x00000010   Data   RW          427    .data               bsp.o
    0x200018e4   COMPRESSED   0x0000000c   Data   RW          857    .data               nrf_drv_uart.o
    0x200018f0   COMPRESSED   0x00000008   Data   RW          924    .data               nrfx_clock.o
    0x200018f8   COMPRESSED   0x00000008   Data   RW         1343    .data               nrfx_prs.o
    0x20001900   COMPRESSED   0x00000020   Data   RW         1736    .data               app_button.o
    0x20001920   COMPRESSED   0x00000014   Data   RW         2011    .data               app_timer.o
    0x20001934   COMPRESSED   0x00000008   Data   RW         2681    .data               nrf_pwr_mgmt.o
    0x2000193c   COMPRESSED   0x00000018   Data   RW         2881    .data               nrf_log_backend_uart.o
    0x20001954   COMPRESSED   0x0000000c   Data   RW         2951    .data               nrf_log_default_backends.o
    0x20001960   COMPRESSED   0x00000008   Data   RW         3013    .data               nrf_log_frontend.o
    0x20001968   COMPRESSED   0x00000008   Data   RW         3014    .data               nrf_log_frontend.o
    0x20001970   COMPRESSED   0x00000040   Data   RW         3176    .data               nrf_log_str_formatter.o
    0x200019b0   COMPRESSED   0x00000003   Data   RW         3605    .data               nrf_sdh.o
    0x200019b3   COMPRESSED   0x00000001   Data   RW         3723    .data               nrf_sdh_ble.o
    0x200019b4   COMPRESSED   0x00000004   Data   RW         3807    .data               system_nrf52.o
    0x200019b8   COMPRESSED   0x00000004   Data   RW          726    log_dynamic_data    nrf_drv_clock.o
    0x200019bc   COMPRESSED   0x00000004   Data   RW          926    log_dynamic_data    nrfx_clock.o
    0x200019c0   COMPRESSED   0x00000004   Data   RW         1084    log_dynamic_data    nrfx_gpiote.o
    0x200019c4   COMPRESSED   0x00000004   Data   RW         1345    log_dynamic_data    nrfx_prs.o
    0x200019c8   COMPRESSED   0x00000004   Data   RW         1421    log_dynamic_data    nrfx_uart.o
    0x200019cc   COMPRESSED   0x00000004   Data   RW         1604    log_dynamic_data    nrfx_uarte.o
    0x200019d0   COMPRESSED   0x00000004   Data   RW         2683    log_dynamic_data    nrf_pwr_mgmt.o
    0x200019d4   COMPRESSED   0x00000008   Data   RW         3016    log_dynamic_data    nrf_log_frontend.o
    0x200019dc   COMPRESSED   0x00000004   Data   RW         3607    log_dynamic_data    nrf_sdh.o
    0x200019e0   COMPRESSED   0x00000004   Data   RW         3725    log_dynamic_data    nrf_sdh_ble.o
    0x200019e4   COMPRESSED   0x00000004   Data   RW         3771    log_dynamic_data    nrf_sdh_soc.o
    0x200019e8        -       0x00000018   Zero   RW            8    .bss                main.o
    0x20001a00        -       0x0000001f   Zero   RW            9    .bss                main.o
    0x20001a1f   COMPRESSED   0x00000001   PAD
    0x20001a20        -       0x00000020   Zero   RW          422    .bss                bsp.o
    0x20001a40        -       0x00000020   Zero   RW          423    .bss                bsp.o
    0x20001a60        -       0x0000000c   Zero   RW          424    .bss                bsp.o
    0x20001a6c        -       0x00000020   Zero   RW          425    .bss                bsp.o
    0x20001a8c        -       0x00000014   Zero   RW          719    .bss                nrf_drv_clock.o
    0x20001aa0        -       0x0000005c   Zero   RW         1077    .bss                nrfx_gpiote.o
    0x20001afc        -       0x0000002c   Zero   RW         1414    .bss                nrfx_uart.o
    0x20001b28        -       0x00000024   Zero   RW         1597    .bss                nrfx_uarte.o
    0x20001b4c        -       0x00000020   Zero   RW         1734    .bss                app_button.o
    0x20001b6c        -       0x0000010c   Zero   RW         2009    .bss                app_timer.o
    0x20001c78        -       0x0000000c   Zero   RW         2159    .bss                app_util_platform.o
    0x20001c84        -       0x0000000c   Zero   RW         2677    .bss                nrf_pwr_mgmt.o
    0x20001c90        -       0x00000040   Zero   RW         2878    .bss                nrf_log_backend_uart.o
    0x20001cd0        -       0x000000c0   Zero   RW         3010    .bss                nrf_log_frontend.o
    0x20001d90        -       0x00000424   Zero   RW         3011    .bss                nrf_log_frontend.o
    0x200021b4   COMPRESSED   0x00000004   PAD
    0x200021b8        -       0x00002000   Zero   RW         3795    STACK               arm_startup_nrf52.o


==============================================================================

Image component sizes


      Code (inc. data)   RO Data    RW Data    ZI Data      Debug   Object Name

       440         36          8         32         32      46978   app_button.o
        22          0          0          0          0       2541   app_error.o
       124         40          0          0          0      30617   app_error_weak.o
      1506        118          6         20        268      48859   app_timer.o
       124         14          0          0         12       9666   app_util_platform.o
        36          8        512          0       8192        972   arm_startup_nrf52.o
      1226          0          0          0          0      37295   ble_advdata.o
       314         30          8          0          0      12420   boards.o
       906         82         44         16        108      13608   bsp.o
       416         48          6         43         55     137441   main.o
       294          0          0          0          0       8303   nrf_atomic.o
       164          0          0          0          0       3812   nrf_balloc.o
       276         34         30          4         20      39810   nrf_drv_clock.o
       200         26          0         12          0      18116   nrf_drv_uart.o
        50          0          0          0          0       3701   nrf_fprintf.o
       850          4         16          0          0       5698   nrf_fprintf_format.o
       200          0          0          0          0      11727   nrf_log_backend_serial.o
       232         44         44         24         64      21750   nrf_log_backend_uart.o
        28          6          0         12          0       3375   nrf_log_default_backends.o
      1490        118         64         24       1252      30861   nrf_log_frontend.o
       566        108        102         64          0       6056   nrf_log_str_formatter.o
       330          0          0          0          0      10007   nrf_memobj.o
       108         16         53         12         12      38387   nrf_pwr_mgmt.o
       492         46        104          7          0      41495   nrf_sdh.o
       668        222        468          5          0       6201   nrf_sdh_ble.o
        60          4         56          4          0       2708   nrf_sdh_soc.o
        78          0          0          0          0       2948   nrf_section_iter.o
        76         10       1319          0          0       2915   nrf_strerror.o
       222         28         14         12          0      41888   nrfx_clock.o
      1226         92         19          4         92      59722   nrfx_gpiote.o
       112         16         12         12          0       4832   nrfx_prs.o
      1292         40         17          4         44      32350   nrfx_uart.o
      1134         44         18          4         36      25313   nrfx_uarte.o
       796         70          0          4          0       3071   system_nrf52.o

    ----------------------------------------------------------------------
     16096       1304       2972        320      10192     765443   Object Totals
         0          0         32          0          0          0   (incl. Generated)
        38          0         20          1          5          0   (incl. Padding)

    ----------------------------------------------------------------------

      Code (inc. data)   RO Data    RW Data    ZI Data      Debug   Library Member Name

        86          0          0          0          0          0   __dczerorl2.o
         8          4        133          0          0         68   ctype_o.o
         0          0          0          0          0          0   entry.o
         0          0          0          0          0          0   entry10a.o
         0          0          0          0          0          0   entry11a.o
         8          4          0          0          0          0   entry2.o
         4          0          0          0          0          0   entry5.o
         0          0          0          0          0          0   entry7b.o
         0          0          0          0          0          0   entry8b.o
         8          4          0          0          0          0   entry9a.o
        30          0          0          0          0          0   handlers.o
        36          8          0          0          0         68   init.o
        30          0          0          0          0         68   llshl.o
        32          0          0          0          0         68   llushr.o
        36          0          0          0          0         68   memcpya.o
        36          0          0          0          0        108   memseta.o
        14          0          0          0          0         68   strlen.o
        98          0          0          0          0         92   uldiv.o

    ----------------------------------------------------------------------
       432         20        136          0          0        608   Library Totals
         6          0          3          0          0          0   (incl. Padding)

    ----------------------------------------------------------------------

      Code (inc. data)   RO Data    RW Data    ZI Data      Debug   Library Name

       426         20        133          0          0        608   mc_w.l

    ----------------------------------------------------------------------
       432         20        136          0          0        608   Library Totals

    ----------------------------------------------------------------------

==============================================================================


      Code (inc. data)   RO Data    RW Data    ZI Data      Debug   

     16528       1324       3108        320      10192     745879   Grand Totals
     16528       1324       3108         92      10192     745879   ELF Image Totals (compressed)
     16528       1324       3108         92          0          0   ROM Totals

==============================================================================

    Total RO  Size (Code + RO Data)                19636 (  19.18kB)
    Total RW  Size (RW Data + ZI Data)             10512 (  10.27kB)
    Total ROM Size (Code + RO Data + RW Data)      19728 (  19.27kB)

==============================================================================

