:020000040000FA
:10000000E82800204D0300005503000057030000BE
:10001000590300005B0300005D03000000000000C6
:100020000000000000000000000000005F0300006E
:10003000610300000000000063030000650300008E
:100040006703000067030000510A00003908000040
:10005000670300006703000021060000670300003B
:1000600067030000670300006703000067030000E8
:1000700067030000670300006703000067030000D8
:1000800067030000670300006703000067030000C8
:1000900067030000670300006703000067030000B8
:1000A00067030000670300006703000067030000A8
:1000B000670300006703000000000000000000006C
:1000C0006703000067030000670300006703000088
:1000D0006703000067030000670300006703000078
:1000E00067030000670300006703000000000000D2
:1000F000000000006703000000000000670300002C
:1001000000000000000000000000000000000000EF
:1001100000000000000000000000000000000000DF
:1001200000000000000000000000000000000000CF
:1001300000000000000000000000000000000000BF
:1001400000000000000000000000000000000000AF
:10015000000000000000000000000000000000009F
:10016000000000000000000000000000000000008F
:10017000000000000000000000000000000000007F
:10018000000000000000000000000000000000006F
:10019000000000000000000000000000000000005F
:1001A000000000000000000000000000000000004F
:1001B000000000000000000000000000000000003F
:1001C000000000000000000000000000000000002F
:1001D000000000000000000000000000000000001F
:1001E000000000000000000000000000000000000F
:1001F00000000000000000000000000000000000FF
:10020000DFF80CD000F0ECF8004800473110000097
:10021000E828002030B4044654E8000F0D4644E8B6
:100220000053002BF8D1156030BC704730B4044641
:1002300054E8000F40EA010544E80053002BF7D1D1
:10024000156030BC704730B4044654E8000F00EA33
:10025000010544E80053002BF7D1156030BC70470E
:1002600030B4044654E8000F80EA010544E8005326
:10027000002BF7D1156030BC704730B4044654E809
:10028000000F00EB010544E80053002BF7D1156087
:1002900030BC704730B4044654E8000FA0EB0105B1
:1002A00044E80053002BF7D1156030BC70470000C4
:1002B00030B4044654E8000F0D4644E80053002BC8
:1002C000F8D1156030BC704730B4044654E8000FD4
:1002D00040EA010544E80053002BF7D1156030BC1B
:1002E000704730B4044654E8000F00EA010544E8C2
:1002F0000053002BF7D1156030BC704730B4044672
:1003000054E8000F80EA010544E80053002BF7D1C0
:10031000156030BC704730B4044654E8000F00EB61
:10032000010544E80053002BF7D1156030BC70473D
:1003300030B4044654E8000FA0EB010544E8005334
:10034000002BF7D1156030BC70470000064880478D
:1003500006480047FEE7FEE7FEE7FEE7FEE7FEE7AA
:10036000FEE7FEE7FEE7FEE74908000001020000A5
:10037000004870478429000040EA01039B0703D02E
:1003800009E008C9121F08C0042AFAD203E011F8D4
:10039000013B00F8013B521EF9D27047D2B201E096
:1003A00000F8012B491EFBD270470022F6E710B57A
:1003B00013460A4604461946FFF7F0FF204610BDD3
:1003C000421C10F8011B0029FBD1801A704703461C
:1003D00011F8012B00F8012B002AF9D118467047BB
:1003E000064C074D06E0E06840F0010394E8070082
:1003F00098471034AC42F6D3FFF706FF102A0000EE
:10040000302A0000F0B5754C87B00025257074A027
:10041000744E006801903088032707EB004072A1FA
:1004200001F046FC01F052FB0028FBD1022301AA97
:1004300019217148009501F0C1F808B100F0EEFBF8
:1004400020780028FCD030886CA107EB004001F038
:100450002FFC00BF01F03AFB0028FBD125706BA0F8
:1004600061A100680290308807EB004001F020FC99
:1004700001F02CFB0028FBD1022302AA19215E48BF
:10048000009501F09BF808B100F0C8FB2078002827
:10049000FCD0308859A107EB004001F009FC00BFF7
:1004A00001F014FB0028FBD1257059A04EA1006873
:1004B0000390308807EB004001F0FAFB01F006FBE7
:1004C0000028FBD1022303AA19214B48009501F013
:1004D00075F808B100F0A2FB20780028FCD0308825
:1004E00046A107EB004001F0E3FB00BF01F0EEFA8C
:1004F0000028FBD1257047A03BA1006804903088FC
:1005000007EB004001F0D4FB01F0E0FA0028FBD13A
:10051000022304AA19213848009501F04FF808B1C8
:1005200000F07CFB20780028FCD0308833A107EB5A
:10053000004001F0BDFB00BF01F0C8FA0028FBD16C
:10054000257035A028A100680590308807EB004091
:1005500001F0AEFB01F0BAFA0028FBD1022305AA94
:1005600019212548009501F029F808B100F056FB43
:1005700020780028FCD0308820A107EB004001F053
:1005800097FB00BF01F0A2FA0028FBD1257023A041
:1005900015A100680690308807EB004001F088FB49
:1005A00001F094FA0028FBD1022306AA192112486F
:1005B000009501F003F808B100F030FB2078002826
:1005C000FCD030880DA107EB004001F071FB00BFAB
:1005D00001F07CFA0028FBD107B0F0BD000000203C
:1005E000201700009400002073657474696E672002
:1005F0006D6F646500000000A42800006D6F6465E5
:1006000020736574757020646F6E650022100000A1
:1006100023000000240000002E0000001E900000B7
:100620002DE9F04F00258DB0DFF8A481A94605958E
:100630004FF4807601242F460695304601F076F976
:1006400038B1D8F80403204203D0304601F064F9F1
:100650002543361D64007F1CB6B2082FEDD34FF43E
:10066000BE74204601F062F948B1204601F054F909
:1006700045F0004505AA0221002001F037F9554E4A
:1006800015F0FF0F15D0012700242F420DD008EBE5
:100690008401D1F81005D1F81015C0F3052056F8E3
:1006A0002420C1F3014102B190477F00641C082C53
:1006B000EBD3002D4DDA0020CDF82490411E4FF0F1
:1006C000010A0DF1140B07ADCDF8289045F8201064
:1006D000401C0228FAD300BF96F854704FF000086F
:1006E00078B227F0C004401C33D007A9204600F0A0
:1006F000B0FD00282DD04FEA9719204600F02CFBC2
:1007000056F820701FB1B9F1030F03D00CE0B9F116
:10071000030F1ED109A8E10804F00702435C0AFA9E
:1007200002FC43EA0C03435402A8029401F0BAF815
:10073000029900EB8100D0F8000705A9C0F3014041
:100740000290204600F085FD0028029804D002287F
:1007500004D00DB0BDE8F08F0328FAD1B9F1030F32
:1007600008D1029802282CD00221204601F069F815
:100770004FF0010817B149462046B847B8F1000FBD
:10078000E7D001AA0221002001F0B0F800205A466B
:100790000DF1040152F8204051F82030A34212D04C
:1007A000002009AB51F8204042F8204053F8204087
:1007B00045F82040401C0228F4D3B8F1000F8BD13B
:1007C000C7E70321D1E7401C0228E3D3C1E70000BB
:1007D00000600040E800002000F048B970B50E4607
:1007E000144900EB400001EBC0051446E86A1835D7
:1007F00020B101280FD0022805D113E0284600F0CF
:1008000069F9A04201D2002411E02246314628466F
:1008100000F098F90BE0284600F05CF9A042F4D211
:100820000446F2E73146284600F05FF904462046C8
:1008300070BD0000600600200149024800F007BBBF
:10084000A00000200030004030B54FF08050002262
:10085000D0F830110123082902D1D0F8344114B165
:10086000082909D00BE04FF08041C1F80C21C1F8F4
:10087000102168490A6005E0D0F8344114B1082914
:1008800057D059E064490968644C21606249091DE8
:100890000968241D2160604908310968241D216010
:1008A0005D490C310968241D21605B4910310968DC
:1008B000241D2160584914310968241D21605649BE
:1008C00018310968554C2034216053491C3109689E
:1008D000241D2160504920310968241D21604E49A2
:1008E00024310968241D21604B4928310968241DE1
:1008F000216049492C310968241D21604649303165
:100900000968464C40342160434934310968241D4C
:100910002160414938310968241D21603E493C313C
:100920000968241D21603C4940310968241D21606B
:1009300005E0D0F8344114B1082904D006E0394C60
:100940003749216005E0D0F8344114B1082904D0BA
:1009500006E0354CFB21216005E0D0F8344114B1AC
:10096000082908D00AE090F858423048016864F33A
:100970000301016005E0D0F8344114B1082905D025
:100980000EE02B494FF40070086002E0D0F834010B
:1009900030B928480168C90702D06FF00101016031
:1009A0002548016841F470010160BFF34F8FBFF328
:1009B0006F8F4FF01021D1F80002002803DBD1F82F
:1009C0000402002822DA1D4C23601D480368002B16
:1009D000FCD01223C1F800320568002DFCD0C1F80C
:1009E000043201680029FCD0226001680029FCD093
:1009F000BFF34F8F10487C380168124A01F4E06160
:100A000011430160BFF34F8F00BFFDE70F490E4850
:100A1000086030BD380500400404001020C50040C7
:100A2000488103008C56004018F50040E40E004059
:100A3000409602400004004088ED00E004E50140DB
:100A400000E401400400FA050090D003600000209B
:100A50000448017F04480029024901D001F04DBE3D
:100A600001F0BCBDC80000200020004010B5124CB1
:100A700002202061606111A0A06104F17800E061B2
:100A80004FF4007020620020A06260620BA1A1649C
:100A9000E06204F51E71E1641021A065C4E9141040
:100AA000E06509A1E01DFFF792FC08A12046FFF7D1
:100AB0008EFC2020A07110BD600600205465726D70
:100AC000696E616C00000000525454005345474762
:100AD000455200000269C1688A4203D88068401A02
:100AE000104400E0501A401E70472DE9F047C468DA
:100AF0001746894606464FF000083069A04201D9E2
:100B0000051B02E0B168201A0D1AB0686D1E001BAB
:100B1000A84200D80546BD4200D33D4670682A462B
:100B200020444946FFF728FCB0687F1B2C44A844AA
:100B3000A944A04200D10024F460002FDDD140463A
:100B4000BDE8F0872DE9F04104468846D4E9020764
:100B5000C51BE168606816460844B54206D941469F
:100B6000FFF70AFCB819E060BDE8F0812A4641466B
:100B7000FFF702FC761B08EB050132466068FFF7C1
:100B8000FBFBE660F0E702E008C8121F08C1002A7C
:100B9000FAD170477047002001E001C1121F002AFE
:100BA000FBD1704701F02EF900F090FF0028FBD137
:100BB000104C0121208801EB00400FA101F078F8D2
:100BC00010480068C00700D000BE2088022101EB59
:100BD00000400DA101F06CF8BFF34F8F0948E438D5
:100BE00001680D4A01F4E06111430160BFF34F8FCA
:100BF00000BFFDE794000020466174616C206572BF
:100C0000726F7200F0ED00E053797374656D2072BD
:100C100065736574000000000400FA050EB500213C
:100C20000091CDE901106A4644F20100FFF7BAFFD6
:100C30000EBD00F003B800F009B8000072B602481B
:100C40000168491C016070470800002003490868DA
:100C5000401E086000D162B6704700000800002006
:100C60002DE9F041871C0E4601250020FFF7E1FF2A
:100C7000124C20683060D4E90001401AA168091ABA
:100C8000BE1C06E000F08AF9D4E90001401AA16810
:100C9000091A491C8E42F5D8A1682068084004EB67
:100CA0008000C16841F00301C160206838442060C1
:100CB0000020FFF7C0FF2846BDE8F0814002002079
:100CC00030B482680468531C8360A154D0E90112D7
:100CD0008A4202D330BC00F0A2BC30BC7047000096
:100CE000034803C8814201D10120704700207047AA
:100CF0004002002005494FF0FF32082841F820202B
:100D000002D3084480F84C2070470000E80000201F
:100D1000F0B54FF0FF3512B10023082601E008239B
:100D200009260C4C05E000BF54F823707F1C04D04A
:100D30005B1CB342F8D32846F0BD26185DB286F896
:100D4000245044F82310002AF5D1E11881F84C0012
:100D5000F1E70000E80000200249084490F924006F
:100D600070470000E80000200A4810B50088032101
:100D700001EB004008A100F09BFF0A480178002920
:100D8000FCD001F0A9F900BF00F0A0FE0028FBD1C3
:100D900010BD0000940000206461746120726561E0
:100DA00064790000000000202DE9FC5F0E008346FE
:100DB000DDE90C47C6F1000098469246814600D412
:100DC0000846012503E000BF90FBFAF06D1C50457A
:100DD000FADAA84500D9454624B1002E01DB780790
:100DE00000D5641EB80702D5B8F1000F0AD0F80785
:100DF00008D13CB1A54205D220215846641EFFF718
:100E00005FFFF6E7002E02DA4E462D2102E078075A
:100E100003D52B215846FFF753FF07F003000228A4
:100E20000BD1B8F1000F08D13CB1A54205D2302159
:100E30005846641EFFF744FFF6E7CDE900474346F6
:100E400052463146584601F0D1FCBDE8FC9F2DE9E1
:100E5000FF470D464FF492770446394601F0B0F84B
:100E60004FF002094FF001084FF4827640B1394645
:100E7000204601F0AAF83146204601F0A1F8B0B3AF
:100E8000B2463146204601F09BF84FF0FF3600276E
:100E900070B35146204601F098F805F10C0001AB03
:100EA00007C883E8070095F8230078B1287B01285C
:100EB0002DD0D4F84C05C0B28DF80600287B02284E
:100EC00028D0D4F84C05C0B28DF807004FF4B071AB
:100ED000204601F07AF84FF4AE71204601F075F823
:100EE00095F8250080B395F8230068BB3CE000E04E
:100EF00013E0A868C4F80803C5F80890A868C4F807
:100F00000403C4F82080C4F81480BDE8FF87D4F837
:100F10003C05D0E7D4F83C05D5E74FF4A471204652
:100F200001F053F8287B80B14FF40070C4F8000240
:100F3000801CA860C4F80863A868C4F80403C4F857
:100F40000880C4F82080E0E708E005F10C0001AB60
:100F500007C883E8070095F8250028B90020C4F8E1
:100F60000002AF60C4F80863D4F8C404C4F8C40431
:100F7000810702D58DF8008006E0400702D58DF884
:100F8000009001E08DF8007095F8250008B985F80B
:100F90002470D5E9002168469047B6E770B588B05F
:100FA000214800F003F92048001F064600F0FEF833
:100FB0001E4DD5E9014105E0C0F3891202EB9050C6
:100FC000641C044404EA010005EB8000C068820749
:100FD000F2D000200DF1080204EA010305EB8303BF
:100FE000641CDB6842F82030401C0228F4D30298CD
:100FF00000F00300012808D002280AD1029803213A
:1010000001EB905004EB900403E00298C0F38310CE
:1010100004443046002101AAFFF763F9002800D0FC
:101020006C6008B070BD000058060020400200202F
:101030001CB5002000F0A0FE08B1FFF7EFFD00F0A6
:1010400037FD2448032424A1008804EB004000F06D
:101050002FFE00BF00F03AFD0028FBD100F010FA8F
:1010600008B1FFF7DBFD2248224A6946006800907C
:101070008DF80140162000F0A3F908B1FFF7CEFD6E
:101080000121162000F050F901F056F9FFF7BAF9E6
:10109000194C0020207019A001AA006801900120BD
:1010A0000346009012481921001D00F087FA08B18C
:1010B000FFF7B4FD20780028FCD001F00DF820BF28
:1010C00020780028FBD000BF00F000FD0028FBD1F5
:1010D000F5E70000940000200D0A5457492073657D
:1010E0006E736F72206578616D706C650000000032
:1010F000A0280000690D000000000020A8000000EA
:101100002DE9F047C7880446181D16468946B0FBEE
:10111000F7F1B0FBF7F207FB12009A193A44D21C20
:10112000B2FBF7F2DDF820A001E02468491E002997
:10113000FBD13D1A8846B54216D818E0BAF1000F27
:1011400005D0211809EB08002A46091D04E02044B7
:1011500009EB08012A46001DFFF70EF9002024685C
:10116000761BA844B74201D9354600E03D46002E23
:10117000E4D1BDE8F087000030B5024669B100F067
:1011800029FE0021084C0BE001EB410304EB830333
:1011900015685B88AB4202D11160002030BD491C4C
:1011A0008142F1D3052030BD6400002008B5012143
:1011B0006A46FFF789F8009808BD70B50446002517
:1011C0002846FFF736FD21686268086890420ED90C
:1011D000401E08600178238AE26801FB0325227A19
:1011E0002168101AC0B20A79824200D20871002028
:1011F000FFF721FD284670BD70B505460C4600205E
:10120000FFF717FDE868298A201AB0FBF1F12A6878
:101210001068431C13600170BDE870400020FFF7A8
:101220000ABD10B530B1017A42680368891AC9B2A3
:101230001A6006E00E2010BD03681A68541C1C607A
:101240001170491EC9B2F7D2006800210171084629
:1012500010BDC20800F007030120895C98400840D7
:101260007047000000283ED01F49204A096800BF8F
:1012700000BF00BF00BF00BF00BF00BF00BF914262
:101280002FD000BF00BF00BF00BF00BF00BF00BF26
:1012900000BF00BF00BF00BF00BF00BF00BF00BF56
:1012A00000BF00BF00BF00BF00BF00BF00BF00BF46
:1012B00000BF00BF00BF00BF00BF00BF00BF00BF36
:1012C00000BF00BF00BF00BF00BF00BF00BF00BF26
:1012D00000BF00BF00BF00BF00BF00BF00BF00BF16
:1012E00000BF0138C3D17047600000200024F40023
:1012F0004907090E002806DA00F00F0202F1E02289
:1013000082F8141D03E000F1E02282F8001400F0DE
:101310001F02012191404009800000F1E020C0F847
:101320008012C0F8001170472DE9F0410E4680464A
:1013300000F06EFE204D0028404616D0FFF70CFD51
:10134000284490F84C008009032802D001280AD0D4
:1013500003E0404600F0B4FA28B103214046BDE85E
:10136000F04100F06EBA0221F8E700F05DFE0028BF
:1013700020D04046FFF7F0FC0446104F4FF4807039
:1013800007EB840100EB8400D1F8102580B242F015
:101390000102C1F8102500F0BFFA002E0AD0404625
:1013A000FFF7DAFC55F82000002803D00120A04008
:1013B000C7F80403BDE8F081E800002000600040A9
:1013C0002DE9FC41DFF8AC80044608EB040000275F
:1013D00090F924001346C0170E46401C01D0082780
:1013E00044E0F27819462046FFF792FC0546401C7F
:1013F0003BD0B07868B16846009400F053FA009989
:1014000000EB8100D0F8001721F00201C0F80017AE
:1014100007E000217378204600910A46019100F010
:10142000F7F9F078C0B11448317800EB8500D0F8B6
:101430001025124B1A40C0F810254FF47C524FF47F
:10144000403302EA042203EA01410A43D0F81015AE
:101450000A43C0F8102509E008EB0500327810F8BF
:101460004C1F41EA8211017000E004273846BDE8B4
:10147000FC810000E800002000600040FFC0FCFF8D
:1014800070B5144D95F8550008B1082070BD0020C6
:10149000411E2A18401CC0B282F824103028F8D30C
:1014A00000242046FFF726FC641CE4B2092CF8D384
:1014B00007210620FFF71CFF4FF4BE7000F02CFA46
:1014C00005494FF00040C1F80403012085F855009C
:1014D000002070BDE8000020006000400121B1EB59
:1014E000507F01D101207047002070470179064AE2
:1014F00001EB8101006802EBC1010622C0F8002562
:10150000022081F822007047A000002070B5064636
:101510000D4600791F4900EB800001EBC00494F8F0
:10152000220008B1082070BD0020C4E90023A0609B
:1015300084F8250084F82400A87B84F82700687BC1
:1015400010B1284600F060FE296840F20C60890066
:1015500001F1A041C1F800076968890001F1A041CB
:10156000C1F80007D5E900123068C0F80815C0F8C6
:101570000C25A968C0F82415206828B13068297B9B
:10158000000B40B2FFF7B4FE012084F822000020D7
:1015900070BD0000A00000203EB5074D2C68AD686E
:1015A00000948DF80110019202958DF8023000220E
:1015B000694600F015F83EBDBC2800003EB5002588
:1015C0000095069C8DF8011002958DF8023001926D
:1015D0000CB1202200E00022694600F001F83EBD77
:1015E00030B40379064C03EB830304EBC3040068B7
:1015F00013460A460146204630BC00F0B5BE000046
:10160000A00000200FB408B50399002904D004AA53
:1016100000926A4600F00FF801B05DF814FB10B5B7
:1016200082680446002A05D0D4E90403216898475B
:101630000020A06010BD2DE9FC4791460C008046BB
:1016400076D014F8011B39B125290ED04046FFF79A
:1016500037FB20780028F4D198F80C00002867D0D8
:101660004046BDE8FC47FFF7DABF002001222178A1
:101670002B291BD02D2902D0302908D102E040F0BF
:10168000010001E040F00200641C002AEFD10025B7
:101690002A290ED02178A1F130020A2A11D205EBB5
:1016A000850201EB4205641C303DF1E740F0040087
:1016B000EAE7D9F800100B1DC9F800300968641C6E
:1016C0000D44217800232E290BD114F8011FA1F11C
:1016D00030020A2A05D203EB830201EB4203303BBE
:1016E000F3E76C290DD068290BD0692921D00BDCD8
:1016F000252918D0582931D063290ED0642915D155
:1017000017E014F8011FECE7702969D0732932D073
:1017100075291BD0782909D120E0D9F80000011DD6
:10172000C9F8001001784046FFF7CAFA641C90E738
:101730006CE0D9F800100A1DC9F800200968CDE94D
:1017400000500A224046FFF72FFBEFE7D9F80010C0
:101750000A1DC9F8002009680A2206E0D9F800101D
:101760000A1DC9F8002009681022CDE90050404642
:1017700001F03CF8DAE7D9F8001000270A1DC9F893
:1017800000200E68C00705D112E04046761C7F1C81
:10179000FFF796FA31780029F7D104E0202140467E
:1017A0006D1EFFF78DFABD42C0D9002DF6D1BDE701
:1017B0004EB13046FEF704FE074604E020214046C5
:1017C0006D1EFFF77DFABD4206D9002DF6D103E06C
:1017D0004046761CFFF774FA31780029F8D1A5E766
:1017E000D9F80000011DC9F80010056830214046F5
:1017F000FFF766FA78214046FFF762FA08200021D9
:10180000CDE90001034610222946B0E7BDE8FC8778
:101810002DE9FF411C46DDE90A7815460E4668466B
:1018200000F040F846EA450141EA840141EA072216
:1018300042EA0841009A00EB8200C0F80017BDE8B8
:10184000FF8113B50C46684600F02CF8009900EBB8
:101850008101D1F8002722F44032C1F80027009915
:1018600000EB8100D0F8001741EA0441C0F80017EE
:101870001CBD01B5684600F007F8009A01219140AF
:10188000C0F80C1508BD00000168202902D24FF0F5
:10189000A040704701F01F0101600148704700003F
:1018A000000300500168202902D24FF0A040704789
:1018B00001F01F0101600148704700000003005063
:1018C00001B56846FFF7EEFFD0F810050099C84053
:1018D00000F0010008BD01B56846FFF7D5FF009A8A
:1018E00001219140C0F8081508BD00001CB5094C45
:1018F0000144D4E90034CDE900346C4606E000BF71
:1019000054F82030D3F81035401C08C28142F7D873
:101910001CBD0000C8280000034908B50844002188
:1019200001600068009008BD006000400249405816
:10193000012800D0002070470060004030B5124BF5
:1019400001460020D3F81044224609E0157A85426A
:1019500005D1401C0A28F7DB4FF0FF3030BD52683C
:10196000002AF3D1421CF9D00872D3F810242AB10E
:1019700052684A60D3F81024516030BD0022C3F889
:1019800010144A6030BD0000400200207047FEF78E
:1019900023BF704708B5034A00924023024A00F073
:1019A00005F808BD4F21000040010020F0B595B0BA
:1019B0001C4615460F4608461A9E00F0DBFA182111
:1019C00009A8FEF7F2FC0E96CDE90954002308227F
:1019D00003A9384600F0E8FA059806900498ADF897
:1019E0001C0000208DF820000398082600F003005A
:1019F000012802D002281DD03CE003983346850A16
:101A0000C0F3C2008DF81E0003980FA9C0F3800038
:101A10008DF81F000398C0F38314A200384600F02D
:101A2000C3FA09A8009006AB22460FA9284600F089
:101A3000FDF91FE00398840DC0F3C2008DF81E006D
:101A40000398C0F380008DF81F00082C01D22546B2
:101A500000E0082533462A460FA9384600F0A4FACC
:101A60002E44641B09AB06AA29460FA800F02EF9E4
:101A7000002CEAD1384600F086FA15B0F0BD00001F
:101A80000A4A012902EBC00007D0022907D0032926
:101A900007D0042907D00020704702207047042097
:101AA000704700797047407970470000302A000085
:101AB00010B5FFF76CFF04210348FFF73FFF024911
:101AC0000120487210BD00000C0000202DE9FE4FDF
:101AD000FFF706F910B10020BDE8FE8F7248002123
:101AE000C0F81814BFF34F8FD0E9014604EA06018D
:101AF00000EB81014FF000090AE000BFC1F3891239
:101B000002EB9151641C0C4404EA060100EB8101D4
:101B1000C9688A07F2D000216A46804604EA0600B6
:101B200008EB8000641CC06842F82100491C434651
:101B30000229F3D3009800F00300022806D0012800
:101B400000984FD0C04380077ED0A8E00098502274
:101B5000810D8A46B2EB905F00D850210D4665F3A7
:101B60009F5000900831514800F0BBF907006CD03D
:101B700000F000FA4B4608226946384600F01AFA8F
:101B800004EA0600311A8900091D09F1080B8D428B
:101B900021D9454E0C3631B1CAB208EB8000691A22
:101BA00091460C3004E03046EAB2002691463146B8
:101BB000CDB201465B46384600F0FCF90BEB090359
:101BC00026B12A463146384600F0F4F90AF10300FE
:101BD00004EB90043BE008EB80015B462A46384664
:101BE0000C31F1E7C0F38310062800D306200099DA
:101BF00060F38911C1F38310801C009181002B4890
:101C000000F06FF907004AD000F0B4F94B46082203
:101C10006946384600F0CEF909F1080900250DE0C3
:101C200004EA060008EB80014B46042238460C31DA
:101C3000641C00F0BFF909F104096D1C0098C0F3A1
:101C40008310A842ECD801E00BE028E03FB3D8F8BD
:101C50001054D8F81804464690B1384600F093F96D
:101C60001DE0D3F8180400283FF436AF17E0687A77
:101C7000012804D12A6828463946126890476D68C1
:101C8000002DF4D1384600F07EF90020FEF7D1FF98
:101C9000D6F8180400B974600020FEF7CCFFFFF7F7
:101CA0001FF880F0010017E740020020EC28000038
:101CB00000231A4600F060BA3EB5069C8DE81C0071
:101CC00003236A4600F058FA3EBD00002DE9F047B4
:101CD0000E4680461C46924608293ED894F80C9041
:101CE000002020731946104600F0C8F90025B542BF
:101CF00006D218F805201AA12046FFF783FC03E05E
:101D000019A12046FFF77EFC6D1C082DEFD317A10B
:101D10002046FFF777FC0025B54210D218F8057071
:101D2000FEF726FB0068C05D10F03E0F01D03A467A
:101D300000E02E220EA12046FFF764FC03E00DA177
:101D40002046FFF75FFC6D1C082DE5D301222146DC
:101D5000504600F075F984F80C90BDE8F08700005B
:101D60002025303278000000202020007C00000078
:101D70002563000020000000114810B5FF2181609C
:101D8000002101604160C0F81814C0F8141480F8F4
:101D90001C140C4800F0F5F800280FD10A480B4934
:101DA0000B4B401AC108002005E000BF00EB4002C9
:101DB00023F82200401C8842F8D3002010BD000008
:101DC00040020020EC280000582A0000302A0000C1
:101DD0006400002002480349401AC0087047000010
:101DE000582A0000302A000013B56846FFF7C4F9EE
:101DF00008B100201CBD0248009950F831001CBDFC
:101E0000302A000070B508480125D0F8104480F849
:101E10001C5405E06572216820464968884764685B
:101E2000002CF7D170BD0000400200202DE9FF47D3
:101E300081460C9D00200C462F7B28739846164641
:101E40002946184600F01AF9072E42D2DFE806F0BC
:101E500004090F161F2A360049462846FFF7D2FB11
:101E600037E0494628462268FFF7CCFB31E0D4E949
:101E7000002349462846FFF7C5FB2AE0A0680090EA
:101E8000D4E9002349462846FFF7BCFB21E0D4E90A
:101E90000201CDE90001D4E9002349462846FFF7B5
:101EA000B1FB16E004F1080007C88DE80700D4E98B
:101EB000002349462846FFF7A5FB0AE004F1080085
:101EC0000FC88DE80F00D4E9002349462846FFF7E4
:101ED00099FB00222946404600F0B2F82F73BDE876
:101EE000FF872DE9F041058A80462D1F4819C01C47
:101EF000B0FBF5F0C6B24046FFF75FF9041E19D0FB
:101F00000020207101206071E58000272546761EA3
:101F1000C4F800800BE04046FFF74FF960B16179EB
:101F2000491C6171286005467F1CC0F80080B742DB
:101F3000F1D32046BDE8F081204600F002F80020F1
:101F4000F8E72DE9F041457901466B1E002201E0DA
:101F50000968521C9A42FBD30F680146002605E02F
:101F600038460C68FFF748F92146761CAE42F7D395
:101F7000BDE8F08108B501216A46001DFEF77DF934
:101F800008BDFFF74EB938B50446001D01216A4669
:101F9000FEF780F9009810F0FF0F04D12046BDE84D
:101FA0003840FFF7CEBF38BD38B501240094FFF7A5
:101FB000A7F838BD38B500240094FFF7A1F838BD64
:101FC0004058002800D00120704708B50022425038
:101FD0004058009008BD4058002800D001207047AC
:101FE00008B5002242504058009008BDD0F80403C4
:101FF000084000D0012070474058002800D0012040
:10200000704708B5002242504058009008BD0000BB
:102010000449084490F92400082801DB0120704796
:1020200000207047E80000200449084490F924008B
:10203000082801D20120704700207047E8000020E6
:1020400010B50C46C17949B11AB109A12046FFF774
:10205000D9FA2046BDE81040FFF7E1BA007A00281F
:10206000F3D0044804A102682046FFF7CBFAECE75E
:102070000D0A00003C0000202573000070B50446E6
:10208000C0790D4600281CD1207A50B1A179A088D2
:10209000FFF7F6FC0B4951F820200BA12846FFF76B
:1020A000B1FAA0880021FFF79FFE03460549A079F9
:1020B000143951F820202846BDE8704003A1FFF7ED
:1020C000A1BA70BD3C000020257300003C25733E82
:1020D0002025733A20000000084910B50020087040
:1020E0004A1C072319210648FFF756FA002803D097
:1020F000BDE81040FEF792BD10BD000000000020BA
:10210000A428000070B50546C87D0C4600284FF491
:10211000847128460AD0FFF763FFD5F81805627E60
:10212000E1688854607E401C607670BDFFF758FF00
:10213000D5F8180570BD1FB501238DF800308DF856
:1021400008100192D0E90012684690471FBD2DE9A2
:10215000F04114000F460DD000250A2679192246B9
:102160000020FEF73BFB0544241A08B9761E01D077
:10217000002CF3D1BDE8F0812DE9F843214C8846CD
:10218000054691461F4669461846A668FEF768FD53
:1021900070B30098811C00220AE000BF01EA060C1F
:1021A00059F8223004EB8C0C491C521CCCF80C3032
:1021B000BA42F3D30246401C304004EB80002B0CA3
:1021C000C36002EA060004EB8002E80652F80C0F36
:1021D00002D540F0040001E020F0040065F3C500E2
:1021E00067F3891068F39F2020F00300401C106003
:1021F00094F81C0402E000BFFFF768FC0028FBD144
:10220000BDE8F8834002002038B5044640F20C6077
:102210002168890001F1A041C1F8000761688900C7
:1022200001F1A041C1F800072068FFF754FB606886
:10223000FFF751FB216840F20D60890001F1A041D8
:10224000C1F800076168890001F1A041C1F80007E9
:102250000420FFF707F80025606800906846FFF744
:1022600013FBD0F810050099C84010F0010F02D000
:10227000002D1AD00EE02068FFF7FBFA0420FEF7CD
:10228000F1FF2068FFF727FB0420FEF7EBFF6D1C32
:10229000092DE1DB6068FFF7ECFA0420FEF7E2FFAE
:1022A0006068BDE83840FFF716BB38BD38B5017827
:1022B00000292AD10079154C012824D1601C4FF443
:1022C00000410288438880888A4201DBA2F580327F
:1022D0008B4201DBA3F58033884201DBA0F580301F
:1022E00000900B480321008801EB004009A1FFF793
:1022F000E3FC00BFFFF7EAFB0028FBD1C4F80100B4
:10230000A4F80500E0710120207038BD0000002015
:1023100094000020205258206576656E7420646F0A
:102320006E652025642C2025642C20256420776987
:1023300074682064617461001FB5094B0FCB8DE890
:102340000F0007480023074A69460838FFF7DEF800
:1023500008B1FEF763FC02480838FFF7C7F81FBD55
:10236000AC280000AD2200002DE9F05F06461F46B4
:1023700015460C464FF0000A4FF0080B4FF48279D7
:102380005068FFF7ABF800287ED04FF0FF30C4F85C
:10239000080396F8240028B1B068C4F8040311209B
:1023A000BDE8F09F780703D4F80601D4012000E0CF
:1023B000002086F8240095E8070006F10C0383E866
:1023C0000700C7F3001086F825006878C4F8880570
:1023D0004FF482712046FFF7F8FD4FF492712046CA
:1023E000FFF7F3FDF8074FF0010800D04046C4F8AE
:1023F0005005B80701D5404600E00020C4F840056C
:10240000287800286CD001287DD002284ED00328DF
:1024100014D04FF0070A380704D42878032801D0D5
:1024200044F80B80306800286ED0780702D54FF44E
:102430000070B060B068C4F80403ACE0A868FFF7AF
:102440004DF808B34FF48070C4F80002A8786968AA
:10245000C4F84415C4F848054FF4A8712046FFF7A6
:10246000B4FD4FF4B0712046FFF7AFFD4FF4A471F7
:102470002046FFF7AAFDC4F82080C4F8088000BFFA
:102480004FF4A871204600E028E0FFF799FD0028EE
:10249000F6D04FF4A8712046FFF797FDE878A968B9
:1024A000C4F84415C4F848053C4815E0A8786968A4
:1024B000C4F84415C4F84805A868FFF70FF868B1D8
:1024C000E878A968C4F83415C4F838054FF4845086
:1024D000C4F8000240F20220B0609CE710205FE7E1
:1024E000A8786968C4F84415C4F84805B8060FD53B
:1024F0004FF48070C4F800022848B0604FF4A4790B
:102500004946204601E00CE01BE0FFF75EFD05E0D8
:102510004FF40070C4F80002801CB060C4F8208042
:1025200079E7A8786968C4F83415C4F838054FF419
:102530008050C4F8000240F20220B0604FF0000B5F
:10254000ECE747464FF482754FF492780BE0414632
:102550002046FFF735FD30B141462046FFF735FDF7
:1025600027626761A94649462046FFF729FD0028F2
:10257000EDD0D4F8C404C4F8C404002186F82410B3
:1025800048B10321820701D548F20121400701D556
:1025900048F202218A46504602E700000002040089
:1025A00070B50C4605464FF48E71FFF719FDA18AF0
:1025B000A068415CA08A401CA082C5F81C1570BDB3
:1025C0001FB500228DF800208DF808108168019158
:1025D0008275D0E90012684690471FBD2DE9FF477C
:1025E0000C4605464FF40071FFF700FD01274FF43C
:1025F0000178002618B34FF4927949462846FFF730
:10260000EAFCE0B149462846FFF7EAFCC5F8088332
:10261000A07E00B96F6002208DF80000D5F880041C
:10262000C5F880040390E07D8DF80800E068019013
:10263000E6752676D4E900126846904727E0042123
:102640002846FFF7D3FC10B34FF484712846FFF7F8
:10265000C2FCE0B121462846FFF754FDE07D617ED3
:10266000884214D1207E38B1617EE268E07520692D
:10267000E0602676667607E0A07E00B96F60C5F858
:102680000883E675617EE2682046FFF754FD4FF44B
:102690008E7841462846FFF79EFC88B1A08AA17D2E
:1026A000884204D221462846FFF77AFF08E04146D7
:1026B0002846FFF795FCA17D11B12046FFF780FF6A
:1026C0004FF4A27841462846FFF785FC002812D037
:1026D00041462846FFF784FCA07E00B12F60E07DD4
:1026E000002808D0E675617EE26804B02046BDE8A7
:1026F000F047FFF720BDBDE8FF872DE9FF410C46FD
:102700004FF4927705463946FFF776FC0026C0B1B4
:1027100039462846FFF775FC02208DF80000D5F8F1
:102720008004C5F880040390D5F83C058DF80800B6
:10273000E0680190E6752676D4E900126846904775
:1027400024E04FF4887739462846FFF755FCE8B176
:1027500039462846FFF755FCD5F83C05C1B2E07D67
:10276000884213D1207E60B1E268D5F8000220F0E3
:102770002000C5F80002207EE0752069E060267622
:1027800001E0E675E2682046FFF7D5FC4FF4A2773A
:1027900039462846FFF730FC68B139462846FFF72E
:1027A00030FCE07D38B1E675D5F83C05E268C1B291
:1027B0002046FFF7C0FC4FF4907631462846FFF7DD
:1027C0001BFC00280FD031462846FFF71AFCA07DDD
:1027D000002808D0D5F84C0504B0C1B22046BDE8A9
:1027E000F041FFF7EDBEBDE8FF8100002DE9F05F8D
:1027F0008346DDE90A4A994690460D460846012778
:1028000003E000BFB0FBF8F07F1C4045FAD2B945A9
:1028100000D94F465FEACA7012D18CB15FEA8A7064
:1028200002D5B9F1000F01D0202607E0302605E0DF
:1028300031465846641EFEF743FA0CB1A742F7D35F
:102840005FF00106B9F1010F02D9A9F1010903E016
:10285000B5FBF6F0404502D306FB08F6F2E7DFF8D9
:102860003C9000BFB5FBF6F000FB165519F80010C0
:102870005846FEF725FAB6FBF8F6002EF2D15FEACD
:10288000CA7009D0002C07D0A74205D22021584693
:10289000641EFEF715FAF5E7BDE8F09FD0280000AA
:1028A0000100000100300040000100002000000095
:1028B0001800000000009801020000000100000064
:1028C0000000000000000000000000500003005065
:1028D0003031323334353637383941424344454656
:1028E00095190000931900008D19000020000020A8
:1028F00018000020200000208001002018000000A7
:102900000040404040404040404041414141414002
:1029100040404040404040404040404040404040B7
:102920004005020202020202020202020202020246
:10293000022020202020202020202002020202024B
:1029400002029090909090901010101010101010A3
:1029500010101010101010101010101002020202AF
:1029600002028888888888880808080808080808F3
:1029700008080808080808080808080802020202EF
:1029800040000000012900007761726E696E6700E7
:1029900064656275670000001B5B313B33306D007E
:1029A0001B5B306D000000001B5B313B33316D0061
:1029B0001B5B313B33326D001B5B313B33336D00AE
:1029C0001B5B313B33346D001B5B313B33356D009A
:1029D0001B5B313B33366D001B5B313B33376D0086
:1029E000696E666F000000006572726F7200000011
:1029F0007477690075617274000000006770696F18
:102A00007465000062616C6C6F630000617070003F
:102A1000582A000000000020A0000000860B0000E3
:102A2000F82A0000A000002048280000960B0000B3
:102A3000F029000000000000F42900000000000060
:102A4000FC29000000000000042A00000000000033
:102A50000C2A00000000030000000000000000003D
:102A600000000000E028000000000000000000005E
:102A70000000000000000000000000000000000056
:102A800000000000E829000088290000E02900007B
:102A900090290000A029000098290000A829000022
:102AA000B0290000B8290000C0290000C829000092
:102AB000D0290000D82900000090D00300000000B9
:102AC0000000000000000000000000000000000006
:102AD00000000000000000000000000000000000F6
:102AE00000000000000000000000000000000000E6
:082AF0000000000000000000DE
:0400000500000201F4
:00000001FF
