:020000040002F8
:10500000F05C0020E9530200F1530200F353020068
:10501000F5530200F7530200F953020000000000AC
:10502000000000000000000000000000FB53020030
:10503000FD53020000000000FF5302000154020073
:10504000295E020003540200E1620200796002005E
:105050008960020003540200DD5B0200B55E0200BD
:1050600003540200035402000354020003540200DC
:1050700003540200035402000354020003540200CC
:1050800003540200815E0200035402000354020034
:10509000D160020003540200D560020003540200F4
:1050A000035402000354020003540200035402009C
:1050B000035402000354020000000000000000003E
:1050C000035402000354020003540200035402007C
:1050D000A55E0200035402000354020003540200C0
:1050E00003540200035402000354020000000000B5
:1050F00000000000035402000000000003540200FE
:10510000000000000000000000000000000000009F
:10511000000000000000000000000000000000008F
:10512000000000000000000000000000000000007F
:10513000000000000000000000000000000000006F
:10514000000000000000000000000000000000005F
:10515000000000000000000000000000000000004F
:10516000000000000000000000000000000000003F
:10517000000000000000000000000000000000002F
:10518000000000000000000000000000000000001F
:10519000000000000000000000000000000000000F
:1051A00000000000000000000000000000000000FF
:1051B00000000000000000000000000000000000EF
:1051C00000000000000000000000000000000000DF
:1051D00000000000000000000000000000000000CF
:1051E00000000000000000000000000000000000BF
:1051F00000000000000000000000000000000000AF
:10520000DFF80CD000F0BAFC004800470D8902001E
:10521000F05C002030B4044654E8000F0D4644E82A
:105220000053002BF8D1156030BC704730B40446F1
:1052300054E8000F40EA010544E80053002BF7D181
:10524000156030BC704730B4044654E8000F00EAE3
:10525000010544E80053002BF7D1156030BC7047BE
:1052600030B4044654E8000F80EA010544E80053D6
:10527000002BF7D1156030BC704730B4044654E8B9
:10528000000F00EB010544E80053002BF7D1156037
:1052900030BC704730B4044654E8000FA0EB010561
:1052A00044E80053002BF7D1156030BC7047000074
:1052B00030B4044654E8000F0D4644E80053002B78
:1052C000F8D1156030BC704730B4044654E8000F84
:1052D00040EA010544E80053002BF7D1156030BCCB
:1052E000704730B4044654E8000F00EA010544E872
:1052F0000053002BF7D1156030BC704730B4044622
:1053000054E8000F80EA010544E80053002BF7D170
:10531000156030BC704730B4044654E8000F00EB11
:10532000010544E80053002BF7D1156030BC7047ED
:1053300030B4044654E8000FA0EB010544E80053E4
:10534000002BF7D1156030BC7047000030B4044624
:1053500054E8000F0D4644E80053002BF8D11560C7
:1053600030BC704730B4044654E8000F40EA0105F1
:1053700044E80053002BF7D1156030BC704730B4BF
:10538000044654E8000F00EA010544E80053002BEE
:10539000F7D1156030BC704730B4044654E8000FB4
:1053A00080EA010544E80053002BF7D1156030BCBA
:1053B000704730B4044654E8000F00EB010544E8A0
:1053C0000053002BF7D1156030BC704730B4044651
:1053D00054E8000FA0EB010544E80053002BF7D17F
:1053E000156030BC704700000648804706480047FB
:1053F000FEE7FEE7FEE7FEE7FEE7FEE7FEE7FEE785
:10540000FEE7FEE7D9600200015202002DE9F05FDD
:105410000546002092469B46884606468146402423
:105420001BE0284641464746224600F065FA5346AF
:105430005A46C01A914110D311461846224600F030
:105440004CFA2D1A67EB01084F4622460120002135
:1054500000F043FA17EB00094E41201EA4F10104AD
:10546000DFDC484631462A464346BDE8F09F40EA25
:1054700001039B0703D009E008C9121F08C0042AD2
:10548000FAD203E011F8013B00F8013B521EF9D2B9
:105490007047D2B201E000F8012B491EFBD27047E1
:1054A0000022F6E710B513460A4604461946FFF7F0
:1054B000F0FF204610BD421E12F8013F002BFBD129
:1054C00011F8013B02F8013B002BF9D1704710B5F0
:1054D000044604E00B7800F8013B03B1491C521E5E
:1054E000F8D2204610BD421C10F8011B0029FBD148
:1054F000801A70472DE9FE4F804681EA0300C00FF5
:105500000C46009021F0004123F00045B8EB02006A
:10551000A94105D24046214690461C460B4602460C
:1055200023F00040104347D0270DC7F30A00C3F310
:105530000A510290401A019040286BDAC3F313001D
:1055400040F4801B0098924620B10023D2EB030A5E
:1055500063EB0B0B01985946C0F14002504600F036
:10556000BCF906460D4650465946019A00F0D4F95A
:1055700010EB08006141002487EA115284EAE773C6
:105580001A4340D0009A62B3019A012A4FEA0752A7
:1055900015DC001B61EB02014FF0004202EA0752EA
:1055A000CDE90042001C41F5801132462B4600F047
:1055B0000BFA03B0BDE8F08F40462146F9E7001B27
:1055C00061EB0201001C41F5801300185B412018BB
:1055D000A2F5001747EB030140EAD570B6196D41FB
:1055E00011E06D084FEA360645EAC0754FEA0752EA
:1055F000001B61EB0201001C41F5801149084FEAD4
:1056000030000019514132462B4603B0BDE8F04F3F
:1056100000F0CBB90098012240000023D0EB020239
:1056200063EBE073009821464FEAE074B8EB0000AA
:1056300061EB0401E9E783F000435BE781F000419F
:1056400058E72DE9FE4F81EA030404F0004421F0FD
:10565000004100944FF0000B23F0004350EA010496
:105660005ED052EA03045BD0C3F30A54C1F30A5577
:105670002C44A4F2F3340194A0FB0254C1F31301AF
:1056800041F48011C3F3130343F4801301FB02447C
:1056900000FB034E840A970A44EA815447EA835781
:1056A000A4FB076802958D0A05FB07854FEA932C3A
:1056B00004FB0C542705029D4FEA065847EA1637AB
:1056C000B5EB08056EEB070C870E920E47EA8117C3
:1056D00042EA8312A7FB0201B6EB0B0164EB000464
:1056E0002B0D43EA0C335E1844EB1C50DA4651464E
:1056F000E7FB0201C5F313044FEA0B3343EA1453EB
:105700004FEA0432019C43EA0603A4F10C0402941C
:10571000009CCDE900B400F057F903B0BDE8F08F6C
:1057200000200146F9E72DE9F04D81EA030404F079
:10573000004B21F0004514464FF0000A23F00041D1
:1057400050EA050220D054EA01021DD0C5F30A57E1
:105750000246C5F31303C1F31300C1F30A5640F424
:10576000801543F48013A7EB0608101BD64608F2F9
:10577000FD3873EB050002D308F1010801E092182F
:105780005B41B8F1000F03DA00200146BDE8F08D5F
:1057900000204FF48011064684460EE0171B73EB81
:1057A000050705D3121B63EB050306434CEA010C06
:1057B00049084FEA300092185B4150EA0107EDD1E9
:1057C00052EA030012D082EA040083EA050108438A
:1057D00005D0101BAB4106D20122002306E00022B7
:1057E0004FF0004302E06FF0010253101AEB060085
:1057F0004CEB085110EB0A0041EB0B01BDE8F04DFA
:1058000000F0D3B80EB540F2334102910021CDE94A
:1058100000110A460B4600F0D7F803B000BDC1F3F3
:105820000A5210B5C1F3130140F2FF3341F4801165
:105830009A4201DA002010BD40F233439A42A2F2AC
:10584000334203DC524200F057F810BD904010BDC7
:1058500000F0004230F000400AD0C10D01F5607147
:10586000C0F3160042EA0151C208400711437047D5
:1058700000200146704701F0004330B421F00041A0
:1058800050EA010206D00A0DA2F56072C1F31301BD
:10589000002A02DC30BC00207047440F44EAC104F7
:1058A000C100E01830BC00EBC25000F047B830B582
:1058B0000B46014600202022012409E021FA02F5CE
:1058C0009D4205D303FA02F5491B04FA02F5284468
:1058D000151EA2F10102F1DC30BD202A04DB203AC2
:1058E00000FA02F1002070479140C2F1200320FA33
:1058F00003F3194390407047202A04DB203A21FA31
:1059000002F00021704721FA02F3D040C2F12002D8
:105910009140084319467047202A06DBCB17203AEE
:1059200041FA02F043EAE07306E041FA02F3D040A4
:10593000C2F1200291400843194670470029A8BFD0
:105940007047401C490008BF20F00100704710B4A8
:10595000B0FA80FC00FA0CF050EA010404BF10BC5D
:10596000704749B1CCF1200421FA04F411FA0CF18A
:1059700018BF012121430843A3EB0C01CB1D4FEAC3
:1059800000614FEA102042BF002010BC704700EBBE
:10599000C35010440029A4BF10BC7047401C4900EC
:1059A00008BF20F0010010BC704710B5141E73F141
:1059B000000408DA401C41F1000192185B411A43CF
:1059C00001D120F0010010BD2DE9F04D92469B461B
:1059D00011B1B1FA81F202E0B0FA80F220329046C1
:1059E000FFF77BFF04460F4640EA0A0041EA0B013D
:1059F00053465A46084313D0114653EA010019D0C2
:105A0000C8F140025046FFF777FF05460E46504664
:105A100059464246FFF761FF084305D0012004E0E4
:105A200020463946BDE8F08D0020054346EAE07681
:105A30002C4337430A986305E40AA0EB08000022D0
:105A4000FD0A44EA47540A3002D500200146E9E73E
:105A5000010510196941DDE9084500196941BDE8F2
:105A6000F04DA2E72DE9F041054621F000400C463B
:105A7000284309D0C4F30A5040F23341884205DD7F
:105A800028462146BDE8F0812846FBE740F2FE317A
:105A9000884210DC0CDB4FEA043040EA155050EA33
:105AA000053105D0104804F0004101430020E9E72A
:105AB00000200146E6E7A0F233404642C6F140022C
:105AC00028462146FFF709FF074688462846214613
:105AD0003246FFF711FF43463A46FFF766FF32466C
:105AE000BDE8F041FFF7F9BE0000F03FC1F30A52F4
:105AF000C1F3130140F2FF3341F480119A4202DAFC
:105B000000200146704740F233439A42A2F23342EA
:105B100002DC5242FFF7F0BEFFF7DFBE30B5041ED5
:105B200071F1000404DB4FF00044404264EB0101DA
:105B3000141E73F1000405DB1C464FF00043524273
:105B400063EB04038B4208BF824230BD30B5041EB4
:105B500071F1000404DB4FF00044404264EB0101AA
:105B6000141E73F1000405DB1C464FF00043524243
:105B700063EB0403994208BF904230BD064C074DC9
:105B800006E0E06840F0010394E80700984710340D
:105B9000AC42F6D3FFF738FB64CA020084CA0200A5
:105BA00030B58C1810F8012B12F00F0301D110F84A
:105BB000013B120906D110F8012B03E010F8015B3C
:105BC00001F8015B5B1EF9D101E001F8013B521EB7
:105BD000FBD1A142E6D3002030BD00002DE9F04FFB
:105BE00000268FB0DFF8B081B14602964FF4807581
:105BF000012437460396284604F008FB38B1D8F84C
:105C00000403204203D0284604F0F6FA26432D1D53
:105C100064007F1CADB2082FEDD34FF4BE74204654
:105C200004F0F4FA48B1204604F0E6FA46F00046E3
:105C300002AA0221002004F0C9FA584C16F0FF0F06
:105C400015D00127002537420DD008EB8501D1F88A
:105C50001005D1F81015C0F3052054F82520C1F324
:105C6000014102B190477F006D1C082DEBD3002E3F
:105C70007DDA0020CDF82890411E0DF1080B08AA0E
:105C8000CDF82C9042F82010401C91460228F9D300
:105C900000252E46A01910F8607F90F9000027F02B
:105CA000C008401C49D008A9404603F04BF888B30F
:105CB0004FEA971A404602F077F954F820701FB166
:105CC000BAF1030F03D00FE0BAF1030F35D10AA8E0
:105CD0004FEAD80208F00703815C4FF0010C0CFA80
:105CE00003FC41EA0C01815406A8CDF8188004F0A9
:105CF000F9F9069900EB8100D0F8000702A9C0F37A
:105D000001400690404603F01DF80028069802D096
:105D1000022802D011E003280FD1BAF1030F08D1F5
:105D20000698022832D00221404604F093F96D1CF7
:105D3000EDB217B151464046B847761C042EA9D3A0
:105D4000002D20D004AA0221002004F03FFA0020F8
:105D50005A4604A952F8206051F82030B34217D0B7
:105D600000200AAE4FEA090351F8207000E00AE073
:105D700042F8207056F8207043F82070401C02282A
:105D8000F2D3002D84D10FB0BDE8F08F0321CBE713
:105D9000401C0228DED3F6E700600040A435002056
:105DA00000F01F02012191404009800000F1E02035
:105DB000C0F88012704700F01F0201219140400995
:105DC000800000F1E020C0F80011704700F01F02D1
:105DD000012191404009800000F1E020C0F800124C
:105DE00070474907090E002806DA00F00F0000F19D
:105DF000E02080F8141D704700F1E02080F80014C6
:105E000070470000BFF34F8F05480168054A01F451
:105E1000E06111430160BFF34F8F00BFFDE7000059
:105E20000CED00E00400FA052DE9F0414FF4807715
:105E3000384603F051F80124104EA50748B1384602
:105E400003F051F80120C5F808037470002002F037
:105E5000D5F84FF48277384603F03EF800280BD08F
:105E6000384603F040F80220C5F80803B470BDE8D6
:105E7000F041012002F0C2B8BDE8F0819035002069
:105E800007480021C0F84011C0F84411C0F848117B
:105E9000C0F84C11C0F80011C0F8041105F0C8BCDE
:105EA0000010014004220021014803F0D3BA000091
:105EB000004002402DE9FE434FF48278404604F052
:105EC00063FC4C4F00254C4C012600B3404604F0C7
:105ED00063FC94F82E0010B194F82F10D1B18DF816
:105EE0000050616801912189ADF80810E26832B173
:105EF000218B618362602181E56010B102E025742D
:105F000000E03E6021686846884784F82F5094F886
:105F10002E0060B34FF48077384604F035FC30B380
:105F2000384604F039FC628B94F82D108A420AD965
:105F3000A2EB010080B260832289A2EB00006268BC
:105F400002EB400005E007D1E06828B184F82F603B
:105F5000658304F0D3FB04E08A4202D184F82F6009
:105F60006583404604F018FC2248001D06604FF48B
:105F70008877384604F008FC48B1384604F00CFC39
:105F8000257402208DF800002168684688474FF488
:105F90008A77384604F0F8FB28B1384604F0FCFB59
:105FA0002574BDE8FE834FF000484FF48C79676993
:105FB0001DE000BFB7FA87F028FA00F109EB800571
:105FC0008F43284604F0E0FB88B1284604F0E4FB48
:105FD000A5F58C75E8088DF8040045F38000401C99
:105FE0008DF800608DF80500216868468847002F0D
:105FF000E0D1D6E700700040543600202DE9FC4186
:10600000114C0027677011A0114D0068019028887D
:10601000032606EB00400FA104F054FA022301AA64
:1060200070211048009703F025FD08B100F020FF13
:1060300060780028FCD028880BA106EB004004F013
:1060400041FABDE8FC810000182A00207CA2000073
:106050003C2E002073657474696E67206D6F6465F3
:10606000000000006CC002006D6F646520736574F1
:10607000757020646F6E65000149024802F070BAC5
:106080002C36002000300040F8B54FF040200F4D76
:1060900004464FF48C7104F05EFD002815D00026F4
:1060A000C4F81861D4F818010090A87F2C46FF2886
:1060B00001D004F06EF866772672D4E9002101B0B1
:1060C00004F10800BDE8F0401047F8BD8436002018
:1060D00005F0FCBA04F0E2BC30B54FF0805000226D
:1060E000D0F830110123082902D1D0F8344114B17D
:1060F000082909D00BE04FF08041C1F80C21C1F80C
:10610000102168490A6005E0D0F8344114B108292B
:1061100057D059E064490968644C21606249091DFF
:106120000968241D2160604908310968241D216027
:106130005D490C310968241D21605B4910310968F3
:10614000241D2160584914310968241D21605649D5
:1061500018310968554C2034216053491C310968B5
:10616000241D2160504920310968241D21604E49B9
:1061700024310968241D21604B4928310968241DF8
:10618000216049492C310968241D2160464930317C
:106190000968464C40342160434934310968241D64
:1061A0002160414938310968241D21603E493C3154
:1061B0000968241D21603C4940310968241D216083
:1061C00005E0D0F8344114B1082904D006E0394C78
:1061D0003749216005E0D0F8344114B1082904D0D2
:1061E00006E0354CFB21216005E0D0F8344114B1C4
:1061F000082908D00AE090F858423048016864F352
:106200000301016005E0D0F8344114B1082905D03C
:106210000EE02B494FF40070086002E0D0F8340122
:1062200030B928480168C90702D06FF00101016048
:106230002548016841F470010160BFF34F8FBFF33F
:106240006F8F4FF01021D1F80002002803DBD1F846
:106250000402002822DA1D4C23601D480368002B2D
:10626000FCD01223C1F800320568002DFCD0C1F823
:10627000043201680029FCD0226001680029FCD0AA
:10628000BFF34F8F10487C380168124A01F4E06177
:1062900011430160BFF34F8F00BFFDE70F490E4868
:1062A000086030BD380500400404001020C50040DF
:1062B000488103008C56004018F50040E40E004071
:1062C000409602400004004088ED00E004E50140F3
:1062D00000E401400400FA050090D003A82D00203E
:1062E0000448017F04480029024901D005F029BE75
:1062F00005F098BD0C360020002000400FB4054B7F
:1063000010B503A9044A029800F072F910BC5DF8B8
:1063100014FB0000C9830200902D00200FB4084B2D
:1063200010B504A902AA039800F062F9044602A974
:10633000002000F0F4FC204610BC5DF814FB0000C7
:106340001F6D02000000000010B52DED020B2DEDB9
:10635000088B84B09DED0C0B51EC100BFFF782FB0A
:1063600041EC180B9DED0C0B53EC182B51EC100B62
:10637000FFF761F941EC190B0D989FED290B10F017
:10638000004F53EC102B51EC190B9FED21AB9FEDFF
:1063900022BB0ED0FFF7C2FB0ED953EC1B2B51ECE6
:1063A000190BFFF7D3FB1CD214E000BF41EC180B14
:1063B00017E0FFF7B3FB06D253EC1A2B51EC180B86
:1063C000FFF739F9F2E753EC1B2B51EC190BFFF7F0
:1063D000BDFB06D853EC1A2B51EC180BFFF78AF8CB
:1063E000E4E78DED028B9DED0C0B18EE901A10EE8C
:1063F000900A8DED000B61F31E0003909DED020BE2
:1064000004B0BDEC088B02B010BD0000000000001D
:10641000000000000000F03F000000000000E03F2E
:10642000000000000000E0BF02E008C8121F08C121
:10643000002AFAD170477047002001E001C1121F05
:10644000002AFBD1704700000121202803DA814097
:106450000548014003E0402802DA2038814009B1B4
:106460000120704700207047FC06FFBD2DE9FF5F4B
:1064700082B00021DDE90430020DDDF840B00343B5
:1064800018D044F61050A2F2FF324243151411986E
:1064900001281FD0A5EB0B00401C5FEA000A4FF05B
:1064A00000064E4FDFF83891B046504615D5CAF178
:1064B000000413E0119801244AA3012801D16FEAD6
:1064C0000B010298119AC0E90031C0E9024206B0FE
:1064D000BDE8F09FCBF10000DFE704460021404A11
:1064E000491842EB0450CDE9001012E0E00707D054
:1064F00032463B4640464946FFF7A3F88046894668
:1065000032463B4610461946FFF79BF806460F46B3
:106510006410002CEAD1DDE90401DDE90023BAF1C1
:10652000000F06DAFFF78DF842464B46FFF789F871
:1065300005E0FFF7F8F842464B46FFF7F4F804464B
:106540000E460022284BFFF701FB03D84FF0FF3027
:10655000014607E00022254B20463146FEF7CAFFE0
:10656000FFF7C4FA102409E0002C0ADB0A220023FA
:10657000FEF74CFF039B30321A55641E50EA0102AD
:10658000F2D1641C039AC4F111031444119A012A34
:1065900003D0012208430DD10AE0084304D00020B3
:1065A0004FF0110B119072E7A3EB0B056D1E0DE080
:1065B0005B4504DD4FF0000205F1010504E003DA5C
:1065C0004FF00002A5F10105002AECD002981199C4
:1065D000C0E90231C0E9004579E70000000014403D
:1065E0000000F03F300000000000F0430000E03FFA
:1065F0002DE9FF4F95B09B468946064600250FE2E0
:10660000252877D100242746F84A0121059400E087
:10661000044316F8013F203B01FA03F01042F7D182
:1066200030782A2811D06FF02F033078A0F1300293
:10663000092A16D8059A44F0020402EB820203EB01
:1066400042021044761C0590EFE759F8042B05929E
:10665000002A03DA504244F40054059044F0020446
:10666000761C30782E2816D116F8010F44F0040459
:106670002A280DD06FF02F023078A0F13003092BBB
:1066800009D807EB870302EB4303C718761CF3E72F
:1066900059F8047B761C30786C280FD006DC4C2827
:1066A00017D068280DD06A2814D104E0742810D0BF
:1066B0007A280FD10DE044F400140AE044F4801469
:1066C00001E044F440147278824202D104F580144F
:1066D000761C761C307866280BD013DC582877D0CF
:1066E00009DC002875D04528F6D04628F4D0472884
:1066F0001AD19DE118E0632835D0642879D0652847
:1067000012D195E1702873D008DC6728F1D0692890
:106710006FD06E280DD06F2806D1B5E073282CD02D
:10672000752875D0782874D05A46179990476D1CF3
:1067300075E1C4F30250022809D003280DD0D9F81E
:10674000001004280DD00D6009F1040967E1D9F8A3
:106750000010EA17C1E90052F6E7D9F800100D80E1
:10676000F2E70D70F0E719F8041B8DF80010002017
:106770008DF80100EA46012003E059F804AB4FF020
:10678000FF3061074FF0000102D40DE008F1010174
:106790008846B9420FDA8045F8DB1AF8081000295C
:1067A000F4D108E008F1010188468142FADB1AF8C9
:1067B00008100029F6D105985B46A0EB0807214692
:1067C0003846179A00F094FA284400EB080507E0D1
:1067D0004DE029E10DE01AF8010B5A461799904750
:1067E000B8F10108F7D25B4621463846179A13E103
:1067F00042E00A220092C4F302524FF0000A022A39
:1068000008D059F804CB032A4FEAEC710AD00DE006
:1068100029E02AE009F1070121F00702F2E802C1AC
:10682000914609E00FFA8CFC4FEAEC71042A03D17F
:106830004FFA8CFC4FEAEC71002907DA0A46002176
:10684000DCF1000C61EB02012D2202E0220504D5EF
:106850002B228DF80420012203E0E20701D0202240
:10686000F7E7904659E00A2102E010220DE01021DE
:106870004FF0000A00910BE010224FF0000A44F0A4
:1068800004040827009203E008224FF0000A009257
:10689000C4F30252022A05D059F804CB0021032A7E
:1068A00008D009E009F1070121F00702F2E802C16E
:1068B000914605E01FFA8CFC042A01D10CF0FF0C74
:1068C0004FF00008220728D5702806D0009B83F0DF
:1068D000100353EA0A0305D00EE040228DF804208D
:1068E000012208E05CEA010206D030228DF8042083
:1068F0008DF8050002229046009B83F0080353EABE
:106900000A030AD15CEA010201D1620705D53022EF
:106910008DF804204FF001087F1E582804D034A0C1
:1069200003900EA802900DE036A0F9E753466046AA
:10693000009AFEF76BFD84460398825C0298401E25
:10694000029002705CEA0100F0D1029806A9081AD0
:1069500000F1200A600702D524F4803400E001270A
:10696000574502DDA7EB0A0000E0002000EB0A011A
:10697000009005984144401A0590E00306D45B4618
:106980002146179A059800F0B3F90544002706E060
:1069900001A85A46C05D179990476D1C7F1C47455A
:1069A000F6DBE0030CD55B462146179A059800F00C
:1069B0009FF9054404E030205A46179990476D1C12
:1069C0000099481E00900029F5DC08E00298029921
:1069D0005A460078491C0291179990476D1CBAF1EC
:1069E0000001AAF1010AF1DC65E1000009280100BB
:1069F0003031323334353637383961626364656635
:106A000000000000303132333435363738394142F6
:106A1000434445460000000000F058F90544761C48
:106A2000307800287FF4ECAD19B02846BDE8F08F2F
:106A3000620700D4062709F1070222F0070CFCE8E0
:106A40000223E14603F000485FEA080C02D00FF28F
:106A5000702C0DE05FEA045C02D50FF2682C07E0B1
:106A60005FEAC47C02D00FF2602C01E0AFF2700C40
:106A70004FF0FF3823F00043CDF850C065280CD00C
:106A800006DC452809D046281DD047283DD13DE0E9
:106A9000662818D067287ED138E00021112F01DB4D
:106AA000112000E0781CCDE9000106A90EA8FFF72F
:106AB000DDFCDDE90F010E9A03910021009207F140
:106AC000010A04914DE04FF000400097CDE901101C
:106AD00006A90EA8FFF7CAFCDDE90F0203920E9B80
:106AE00011990022DDF80CA00093049211B9791CD1
:106AF00000EB010AB7EB0A0004D4C0F1FF3007F144
:106B0000010A0490AAEB0700019044E0012F00DA8B
:106B100001270021112F01DD112000E03846CDE9C9
:106B2000000106A90EA8FFF7A1FCDDE90F010E9AEE
:106B30000391002104910092BA4621070CD40399D5
:106B4000514500DA8A46BAF1010F05DD009AAAF133
:106B50000101515C302908D0B84202DA10F1040F6B
:106B600006DA0121CDE9011015E0AAF10101E9E7FA
:106B7000002805DC049901440491AAEB000102E01D
:106B8000411C514500DD8A460499401A401C019081
:106B90004FF000400290200704D40198504501DBDB
:106BA000CDF8048000208DF84F0002980DF14F07BA
:106BB000B0F1004F25D02B200E9002984FF0020824
:106BC00000280CDA404202902D200E9007E00A21A6
:106BD0000298FEF76CFE3031029007F8011DB8F103
:106BE0000001A8F10108F2DC02980028EFD1791E1B
:106BF0000E980870307800F0200040F0450007F84B
:106C0000020D12A8C01B00F107081498007800B10B
:106C1000012000EB0A01019801EBE0710598414465
:106C2000401A401E0590E00306D45B462146179AA1
:106C3000059800F05DF805441498007818B15A469C
:106C4000179990476D1CE00324D55B462146179A9F
:106C5000059800F04DF805441CE00498002807DB77
:106C6000DDE90301884203DD0098405C179901E0EB
:106C7000179930205A469047049805F10105401CA9
:106C800004900198401E019004D12E205A46179975
:106C900090476D1CBAF10001AAF1010ADDDC05E0A4
:106CA00017F8010B5A46179990476D1CB8F100016F
:106CB000A8F10108F4DC5B462146179A0598ABE67B
:106CC0002D0000002B000000200000002DE9F04105
:106CD000044600251E461746880404D405E03946BC
:106CE0002020B0476D1C641EF9D52846BDE8F08110
:106CF0002DE9F041044600251E469046C80301D503
:106D0000302700E02027880404D505E041463846B6
:106D1000B0476D1C641EF9D52846BDE8F0810A68AD
:106D2000531C0B601070704710B501220221002027
:106D300000F06CFF08B1072810D1072202210120C2
:106D400000F064FF08B1072808D100210A22084694
:106D500000F05CFF08B1072800D1002010BD022020
:106D600000F056BE70B50024064D06E068680121AB
:106D700010F8340002F0ECF9641C28788442F5D352
:106D8000002070BD502D0020F8B515460C46064673
:106D9000052A01D20720F8BD02F0BCFA18B902F0AA
:106DA0008BFA0028F7D1104900204E600C70C1E921
:106DB00002500E4D08610DE006EBC40069680091B9
:106DC00081788DF801100078094A694602F00CFAC2
:106DD0000028E0D1641EE4B2EED2BDE8F840054AD6
:106DE0000021024800F078B8502D0020D0C10200E8
:106DF000918402006981020003F0A6FB03F010FAFF
:106E00000028FBD1104C0121208801EB00400FA18C
:106E100003F058FB10480068C00700D000BE20886F
:106E2000022101EB00400DA103F04CFBBFF34F8F9B
:106E30000948E43801680D4A01F4E061114301603A
:106E4000BFF34F8F00BFFDE73C2E00204661746109
:106E50006C206572726F7200F0ED00E0537973740C
:106E6000656D207265736574000000000400FA050A
:106E70000EB500210091CDE901106A4644F20100EF
:106E8000FFF7BAFF0EBD10B58268C368934203D006
:106E900001F04EFA002010BD052010BD29B112B13D
:106EA000531E134203D0092070470E207047016023
:106EB000838000218160C1600846704710B58268F8
:106EC000C3689A1A83889A4203D801F03BFA0020DB
:106ED00010BD042010BD0000074B9B7823B12AB1E0
:106EE00020B10068037C1BB1082070470720704761
:106EF0004174426100207047C836002070B504F02C
:106F0000EFF8104800240B21047044700E4D81707E
:106F100014206C602C706C70FEF742FF0721142067
:106F2000FEF75FFF1420FEF746FF084804600721C4
:106F30001120FEF756FF0548001F0068A8600020DA
:106F400070BD0000C8360020642D002008150140E7
:106F50002DE9FC47DFF8789099F8023073B368B3F5
:106F6000052902D20720BDE8FC87436933B3437C7F
:106F7000012B25D0002704460025884616468DF8AB
:106F80000050684600F0CAF801A805F053F8C8B1EF
:106F9000012101700F4944600968C0E90218C0E985
:106FA00004769DF8040089F801009DF8000000F0C7
:106FB000D9F81420FEF70AFF2846D4E70820D2E7C4
:106FC0000F46D8E704259DF8000000F0CBF8F3E762
:106FD000C8360020041501400649897839B130B11E
:106FE000416921B100210174022104F0FDBB082098
:106FF00070470000C836002070B50A4E01460A48A6
:10700000B578FFF740FF04464DB10020B070711C09
:107010000122C81D02F0BCFD08B1FFF729FF204680
:1070200070BD0000782D0020D4370020F0B5284E28
:1070300089B01F460D00044672603BD0A8882968BD
:1070400082B22448FFF72AFF002834D1A889A96812
:1070500082B220481030FFF721FF00282BD12022D8
:107060001D496846FEF703FA60690690207C00B16E
:1070700001208DF814008DF81C70607C00B10E208A
:107080008DF81500E0680290A068039020680190D8
:10709000606800900E48114A6946083002F044FDCD
:1070A000002808D1B0702068401C04D09DF81D0055
:1070B00018B106E0072009B0F0BD0548083002F01D
:1070C000BFFD03490122491CC81D02F061FDF2E722
:1070D000782D0020D4370020D8C1020085BD0200E1
:1070E00010B501460B48FFF7E9FE040010D10A482D
:1070F00002F0F0FE60B9084906480839FFF7C3FE00
:1071000030B9054901220839034802F05DFE044602
:10711000204610BDE4370020802D002030B5EFF36D
:10712000108172B60D4A9468012324B103700029BE
:1071300000D162B630BD93604FF0E023D3F88051A8
:10714000074C25401560C3F88041D3F88441546052
:107150005A17C3F8842100220270E8E7F4370020B0
:10716000FC06FFBD0B498A68002A11D000280FD108
:10717000EFF3108072B60B684FF0E022C2F80031D6
:107180004B68C2F8043100228A60002800D162B640
:1071900070470000F437002070B5054608680C46BB
:1071A000411C04D002F0E1FF206802F025FF606876
:1071B000411C02D0002102F016FF28791F4901EB83
:1071C00040102968007F0028A069C1F8240523D059
:1071D000607D227D29681043C1F86C05D4E9001256
:1071E0002868C0F80C15C0F8142522E0A068411CDE
:1071F00002D0002102F0F7FEE068411C04D002F04A
:10720000B4FFE06802F0F8FED4E902122868C0F882
:107210000825C0F8101570BD607D217D2A680843DF
:10722000C2F86C05D4E900122868C0F81425C0F82B
:107230000C15207D0128D9D070BD00000C3600202F
:1072400070B540B10C4D297839B1044603F02CFFDC
:1072500028B1002070BD0E2070BD082070BDE86808
:10726000062807D20549226801EB8001401C0A600C
:10727000E860EEE7042070BD382D00207832002051
:1072800040B1054900220123CA600B70C1E9010227
:10729000104670470E207047382D002070B504004E
:1072A0002DD000292BD020480078002827D0208816
:1072B0000D46112815D0302804D0322807D03328A5
:1072C0001ED109E0211D284603F022FE18E0211DF1
:1072D000284603F093FC13E0211D284603F066FDC9
:1072E0000EE0A088B5F8CA12884209D1002085F8BE
:1072F000C70285F8C8024FF6FF70A5F8CA0270BD34
:1073000095F8C8020028FAD020883028F7D34F28F3
:10731000F5D8A088B5F8CA128842F0D12846BDE851
:10732000704000F0B7BF0000382D002048B1084A77
:10733000137843B1D26832B190F8C7222AB1112034
:1073400070470E2070470820704700F0A3BF000070
:10735000382D002070B50388011DB6B004461D2BE2
:1073600021D016DC95484FF00302102B008802EB69
:1073700000407DD0132B7CD01B2B7BD109790129B8
:1073800079D0022976D136B08DA1BDE8704003F0E6
:1073900099B81F2B70D03B2B6FD0562B6AD1A08889
:1073A000132176DFEDE00C1D402114A8FEF778F8DC
:1073B000402124A8FEF774F840208DF8D00034AAAC
:1073C00014A9204600F0C8FF002853D114200090D3
:1073D000684602F06BFED0F80425009B012199401D
:1073E00021EA0203C0F808351140C0F80C15607D91
:1073F0009DF85C207A49A0F58070032A60D00028AF
:1074000000DA40429DF863409DF86230CDE91201F8
:10741000CDE910349DF85E000CAD9DF861409DF8FB
:1074200060309DF85F1085E81B009DF8590008AD9D
:107430009DF85D409DF85B309DF85A1085E81B0073
:107440009DF8550004AD9DF858409DF857309DF8C3
:10745000561085E81B009DF851009DF854409DF89A
:1074600053309DF852108DE81B009DF8503005E018
:1074700070E095E060E08BE098E09BE059A124A8E3
:10748000FEF74CFF6548FEF72EF824A96348FEF787
:1074900012F8534C0025143C0226A069401CA06140
:1074A00001284BDD5D48FEF729FF7D215B48FDF794
:1074B000F7FFA561A570E31C0222591D009643E069
:1074C000002800DA40429DF863409DF86230CDE923
:1074D0001201CDE910349DF85E000CAD9DF86140BD
:1074E0009DF860309DF85F1085E81B009DF85900FD
:1074F00008AD9DF85D409DF85B309DF85A1085E819
:107500001B009DF8550004AD9DF858409DF857307C
:107510009DF8561085E81B009DF851009DF85440D9
:107520009DF853309DF852108DE81B009DF85030A7
:107530003BA1A4E7FFF79CFC36B070BDA570284BBB
:107540000222113BD91D0096444802F0D3F90028CD
:10755000F0D1F1E742A102F0B5FF3048A188002246
:107560002E3800F02BF908B1FFF782FC072000F05D
:107570006FFB08B1FFF77CFC1948A1881E30FFF7AC
:10758000D5FE0028D8D036B0BDE87040FFF770BCFB
:1075900038A102F097FF36B0BDE8704003F07CBE22
:1075A0000023A0881A4685217FDFEAE731F8040B23
:1075B00075DFE6E7A088132176DFE2E73C2E0020A6
:1075C000436F6E6E656374696F6E20526571756589
:1075D00073742074696D6564206F75742E000000EB
:1075E0002C2A002025783A25632563256325632509
:1075F0006325632563256325632563256325633A36
:1076000025783A25783A25783A25783A25783A2522
:10761000783A25783A25643A25733B008E3100206C
:1076200025783A2563256325632563256325633A19
:107630002563256325632563256325633A25783A09
:1076400025783A25783A25783A25783A25783A25E2
:10765000783A25643A25733B0000000074C00200AC
:10766000436F6E6E656374656420746F207461721D
:10767000676574005363616E2074696D6564206F83
:1076800075742E0010B51A4C0188606810290ED050
:1076900011292BD1401E606028D1FFF745FB00283F
:1076A00024D02168002921D0BDE810400847D0B976
:1076B00000210122084600F0A9FA08B107280FD1DD
:1076C00007220221012000F0A1FA08B1072807D102
:1076D00004220221002000F099FA20B1072802D0EC
:1076E000216801B188476068401C606010BD0000DF
:1076F000302D00202DE9F0411A4D07460C46288810
:107700000978032606EB004051B1012922D0022955
:1077100026D115A102F0D6FEBDE8F04103F0BCBDB4
:1077200015A102F0CFFE618804F10E02384600F088
:1077300045F808B1FFF79CFB384600F0E9F808B1BE
:10774000FFF796FB288811A106EB0040BDE8F04149
:1077500002F0B8BE217BA068BDE8F04100F0FCB8A3
:10776000BDE8F0813C2E0020446973636F6E6E6546
:10777000637465642E000000446973636F766572FC
:107780007920636F6D706C6574652E00436F6E6E4B
:10779000656374656420746F206465766963652031
:1077A00077697468204E6F72646963205541525442
:1077B00020536572766963652E00000048B14180F0
:1077C0002AB15188C180118881809188018100206F
:1077D00070470E207047000030B5114B0D46040075
:1077E0000FCB85B08DE80F0018D0BDB1214668469B
:1077F00062DF002810D120788DF812000120ADF84A
:1078000010004FF6FF7060802868E0600020A080C4
:10781000208104A8FFF714FD05B030BD0E20FBE762
:1078200090C1020010B5024686B008002ED0002A92
:107830002CD041884FF6FF73994202D09488A14220
:1078400024D11488112C14D0392C1FD181880029FF
:107850001CD053898B4219D1C168002916D001214F
:107860008DF8001002F110010291917B8DF80C103F
:1078700009E092888A4209D1C168002906D0022114
:107880008DF800104380C2686946904706B010BD6D
:1078900030B585B00C46054614216846FDF700FE5C
:1078A000207804F10E01002830D1A08801282DD1C4
:1078B000A0792A78904229D1002217E002EBC20079
:1078C00031F81030022B02D0032B0ED105E001EB72
:1078D00040000089ADF8120007E001EB4000038989
:1078E000ADF80E304089ADF81000521C207A90425D
:1078F000E4D8E868002809D06088ADF802000020CC
:107900008DF80000EA6869462846904705B030BD0A
:107910001FB5010019D04888A0F57F42FF3A16D064
:10792000C988A1B101228DF80C200A4B00228DF8E4
:107930000D20D3E90423CDE90023ADF8021003A9FB
:10794000029169469CDF04B010BD0E20FBE70820C1
:10795000F9E7000090C102002DE9F0470F46064606
:107960000025DFF84C804FF0010912E0705DFFF751
:10797000B7FB04000CD0112CF8D0B8F800102A4640
:1079800009EB01400BA102F0A1FD2046FFF770FAC0
:107990006D1CBD42EAD3F01910F8010C0D2804D17A
:1079A0000A20FFF79DFB1128FAD0BDE8F087000000
:1079B0003C2E00206170705F756172745F70757429
:1079C000206661696C656420666F7220696E64650B
:1079D00078203078253034782E0000000149085C8A
:1079E00070470000CCC00200084908B5085C009050
:1079F000684602F069FBD0F810050099C84010F005
:107A0000010000D0012080F0010008BDCCC00200C0
:107A1000094908B5085C0090684602F055FBD0F8AB
:107A20000425009B0121994021EA0203C0F8083592
:107A30001140C0F80C1508BDC8C002000249085C1E
:107A4000012102F0B0BB0000C8C002000249085C7E
:107A5000002102F0A8BB0000C8C00200084908B518
:107A6000085C0090684602F02FFBD0F804050099EE
:107A7000C84010F0010000D0012080F0010008BDD6
:107A8000C8C002007CB50024084E25460122305DA6
:107A9000009500231146019502F041FA641C042C64
:107AA000F4D3BDE87C4000F003B80000C8C0020079
:107AB00010B500242046FFF7C1FF641C042CF9D345
:107AC00010BD10B500242046FFF7C0FF641C042C35
:107AD000F9D310BD10B50246064B4FF0FF30002120
:107AE0005C5C944201D1084610BD491C0429F7D3BF
:107AF00010BD0000CCC0020070B50C4E0C004FF061
:107B0000000530600BD0012000F06AF808B10220B7
:107B100004E0002000F064F800B10B2020707068D1
:107B200010B9FFF701F90546284670BD302D002039
:107B300010B5002000F0BEF908B1062806D10120DA
:107B400000F0B8F908B1062800D1002010BD0000EF
:107B50002DE9F0470D468146FFF7BCFF0446042897
:107B600036D2DFF874801B481C4EA8F10C0725B3F1
:107B7000012D0ED0022D2BD104EB4400304445786A
:107B8000002D25D0B968002922D02846BDE8F0474D
:107B9000084704EB4401755C0E44717849B10E4A04
:107BA0004FF40041093A8068FFF7D2F908B987F825
:107BB0000390B17808F80410E2E78068FFF70CFA48
:107BC00004EB4401314418F804008D78A842D7D062
:107BD000BDE8F087D0C002002C2D00204C320020E0
:107BE000FFF702BF042804D00A280CD1002002F0BD
:107BF0005FBD05481321408876DF082803D00028A0
:107C000001D0FFF735B970476031002070B500230F
:107C1000042810D20D4D00EB4004012A02D10129A5
:107C20000CD00022094E00EB4000304461B1012924
:107C300006D0022906D00723184670BD0E30C2B206
:107C40002A55F9E74270F7E78270F5E74C320020D9
:107C5000044A014600201279D20702D0084600F0FB
:107C60004DB87047202D002070B506461E480024F0
:107C7000C0E90161B00720D5002501221146284640
:107C8000FFF7C4FF6D1C0446042D02D2002CF4D073
:107C900013E094B940F2666204211448FFF774F8C7
:107CA00004000AD1FFF75EF8040006D10F48104A1D
:107CB0000021001FFFF710F90446F00701D0FFF77D
:107CC000E1FE74B909480B4A00210C38FFF704F9AA
:107CD000040006D10548084A01210838FFF7FCF8DE
:107CE0000446204670BD0000202D0020DCC00200AC
:107CF0003D7F02002D8702005F6D02002DE9F05FDD
:107D00006A4C054600266078B34618B184F801B085
:107D100000F0F4FC664F4FF47A694FF4C87A4FF0E4
:107D20000108182D62D2DFE805F0AC0C0C31404D93
:107D300062676B746B74BE7D7D7D7D7DACAFB2B5CB
:107D4000BEBE0020FFF78AFE00284FF0000008D0DA
:107D5000FFF774FE022D02D14FF4E16008E04846BF
:107D600006E0FFF773FE022D01D1C82000E0504667
:107D7000410CC0034FF4FA72801841F100012570E4
:107D800052000023FDF742FB01462AE00020FFF7E6
:107D900065FE00284FF0000004D0FFF74FFE4FF4BF
:107DA0004870E5E7FFF752FEDFE70020FFF756FED9
:107DB00000284FF0000002D0FFF740FECFE7FFF7AA
:107DC00045FED4E70020FFF749FE00284FF00000F1
:107DD00002D0FFF733FE01E0FFF738FE257041F6D1
:107DE0009A1100223868FFF7B3F8064646E00020F3
:107DF000FFF70EFE257008E0002051E025703DE001
:107E000084F801800120FFF703FE002240F6CD41F7
:107E1000E8E784F801800120FFF7FAFD00224FF423
:107E20008041DFE77868FFF7D7F80646D5F1110003
:107E300000D02EB10220FFF701FE84F802B01DE051
:107E4000012816D980B2C8214843C117C90341EAA5
:107E50005041C0034FF4FA72801841F10001520002
:107E60000023FDF7D3FA014600227868FFF770F887
:107E700006460220FFF7EAFD84F802803046BDE89E
:107E8000F09F00F03BFCB9E700F038FCB4E700F0ED
:107E900035FC04E000F032FC0020FFF7D7FD0120A4
:107EA000FFF7D4FDAAE7FFF70CFEA7E7202D00207F
:107EB000D0C0020010B5FFF791FD032102F0B0F829
:107EC000002010BDF8B5871C00208DF800000E467C
:107ED00001256846FFF722F9124C20683060D4E98A
:107EE0000001401AA168091ABE1C06E000F0C4FC9B
:107EF000D4E90001401AA168091A491C8E42F5D83C
:107F0000A1682068084004EB8000C16841F00301CB
:107F1000C1602068384420609DF80000FFF722F916
:107F20002846F8BDCC380020034803C8814201D15F
:107F30000120704700207047CC38002000780221D3
:107F4000FFF706BE05494FF0FF32082841F8202010
:107F500002D3084480F8582070470000A435002060
:107F6000F0B54FF0FF3512B10023082601E00823D9
:107F70000C260C4C05E000BF54F823707F1C04D085
:107F80005B1CB342F8D32846F0BD26185DB286F8D4
:107F9000305044F82310002AF5D1E11881F8580038
:107FA000F1E70000A43500200249084490F93000B0
:107FB00070470000A435002008B5024690F8C602BC
:107FC0000B4600EB8001C1EB801002EB400092F801
:107FD000C52242B1521ED2B202EBC20100EB4102F5
:107FE000518A491C00E0C188ADF800100089ADF845
:107FF00002006946184696DF08BD000070B5084CBF
:10800000050009D010342168002907D008682060D5
:10801000496828468847F6E70834F4E770BD000051
:10802000903500202DE9F05F26484168F1B3DFF874
:1080300098B00E688146DBF8004087688078E11BC5
:1080400021F07F45ED1CB0B9DFF880804FF480301F
:10805000C8F84403C8F804031120FDF7A1FE11205D
:10806000FDF7A9FE4FF0010AC8F800A02F2000F08C
:10807000CFFF89F802A0B54200D23546124BE8196D
:108080003C3320F07F401860DBF800105A46091B93
:1080900021F07F41001B20F07F40C91C81420FD995
:1080A000106818602F2000F0B3FF00E004E0BDE886
:1080B000F05F1120FDF78ABEBDE8F05F03F010B855
:1080C000BDE8F09F642D0020041501400010014020
:1080D00001460148FFF7DCBB603100202DE9F84381
:1080E000054690F8C6020F4600EB8001C1EB8010F8
:1080F00005EB400695F8C542914604EBC40006EB3B
:1081000040013279601C0A31904226D16B46002230
:10811000284600F0CCFA18B310E0401EA04201D16E
:10812000002004E004EBC40006EB40001C30804655
:1081300002466B46284600F0BAFA30B1002038708B
:108140006946484697DFBDE8F88395F8C502414681
:10815000401C641C85F8C502E4B23079A042DCD82A
:10816000012038700020EEE72DE9F04100260125BE
:10817000144C22E06068226900EBC607387805FAE3
:1081800000F1114217D08A43226101F08DF80246B6
:108190003878E36805FA00F1194002FA00F39942D1
:1081A00009D17978012901D0012100E00021514055
:1081B0007A6802B19047761CF6B220788642D9D30D
:1081C000BDE8F081502D00202DE9F047894690F858
:1081D000C612904601EB8102C2EB811100EB410710
:1081E000384602F061FF06002FD0194CA06806281F
:1081F0002BD2184D762205EBC0103946A0F802802C
:10820000001DFDF734F90027B9F1000F04D0A06874
:1082100005EBC010077004E0A168022005EBC11156
:108220000870A06805EBC011401CCE67A060E16833
:1082300088420AD1002604E005EBC610C16F8847CA
:10824000761CE0688642F7D3A760BDE8F08700009F
:10825000382D00209032002070B50E4690F8C612DE
:10826000154601EB8102C2EB8111A0B000EB410089
:1082700002F01AFF040009D07C2205496846FDF788
:10828000F6F8ADF8025068460196A04720B070BDE0
:10829000FCC0020070B50E4604464FF43371FDF782
:1082A000FFF811480025A4F8CA62856084F8C95215
:1082B0000E4884F8C65284F8C552006820602246F1
:1082C0000121304694DF0121112806D0002809D170
:1082D00084F8C71284F8C85203E084F8C71284F8FF
:1082E000C812002070BD0000382D00207832002018
:1082F0000E4910B50A784C780023A24212D0521CC5
:10830000D2B20A70022A00D10B70084A0B780C32E4
:1083100052F8232002608868104420F07F40886073
:10832000012010BD0360002010BD0000642D00205E
:10833000826883881A4003689A5C0A708168491CC5
:1083400081607047C26883881A4003689954C16885
:10835000491CC160704700002DE9F041884617466E
:10836000002600F11805C17D27E0AA19AC5D507800
:10837000FF281FD1508859281CD11A2C1AD311A0BC
:10838000FDF7BCFF0220401C2528FCDB0DA0FDF7FB
:10839000B5FF3878E11E884201DDE41E00E00446A6
:1083A000E2B2A9193A704046091DFDF760F80020B5
:1083B000BDE8F0813019401C86B2B142D5D8052005
:1083C000F6E700000D0A000010B50446C0B2FEF743
:1083D00087FE204610BD000070B508880C46A0F549
:1083E0002061773915D10B4D03260BA1288806EBA8
:1083F000004002F067F8A0880FA1C01E82B20D48AD
:1084000013468280288806EB0040BDE8704002F0E9
:1084100064B870BD3C2E0020415454204D5455206A
:1084200065786368616E676520636F6D706C6574F5
:1084300065642E00182A0020426C65204E5553209A
:108440006D61782064617461206C656E677468206A
:1084500073657420746F20307825582825642900AE
:1084600010B50949094800F081FC08B1FEF700FD8C
:10847000F721064800F06EFC002803D0BDE810404C
:10848000FEF7F6BC10BD0000D98302007031002059
:108490002DE9F041124E07460125BD403068FEF738
:1084A0009BFD00280DD10F4C2069284207D138468A
:1084B00000F0FAFE0028E06805D0284304E0A84355
:1084C0002061BDE8F081A843E06020692843206175
:1084D000A1683068BDE8F0410022FEF739BD000018
:1084E000D0C10200502D002070B50E460446007920
:1084F00018494FF4A27501EB4010017F2068A1B12B
:108500004FF4887102F073FB4FF49071206802F011
:108510006EFB4FF49271206802F069FB29462068D7
:1085200002F065FB0C49206809E04FF48E7102F0FF
:108530004DFB2946206802F049FB08492068C0F835
:108540000413206800F000FE3146BDE8704000F0E2
:10855000DFBD00000C360020100302008000020086
:108560002DE9FF470D464FF492770446394602F055
:108570001DFB4FF002094FF001084FF4827640B125
:108580003946204602F017FB3146204602F00EFB2A
:10859000B0B3B2463146204602F008FB4FF0FF363A
:1085A000002770B35146204602F005FB05F10C0090
:1085B00001AB07C883E8070095F8230078B1287B52
:1085C00001282DD0D4F84C05C0B28DF80600287BC8
:1085D000022828D0D4F84C05C0B28DF807004FF41B
:1085E000B071204602F0E7FA4FF4AE71204602F077
:1085F000E2FA95F8250080B395F8230068BB3CE0CB
:1086000000E013E0A868C4F80803C5F80890A8685B
:10861000C4F80403C4F82080C4F81480BDE8FF87C0
:10862000D4F83C05D0E7D4F83C05D5E74FF4A47165
:10863000204602F0C0FA287B80B14FF40070C4F8E5
:108640000002801CA860C4F80863A868C4F804038A
:10865000C4F80880C4F82080E0E708E005F10C00C9
:1086600001AB07C883E8070095F8250028B900206A
:10867000C4F80002AF60C4F80863D4F8C404C4F8B6
:10868000C404810702D58DF8008006E0400702D5BA
:108690008DF8009001E08DF8007095F8250008B97C
:1086A00085F82470D5E9002168469047B6E710B5F3
:1086B00009892AB1D088491C814218D1002010BDF7
:1086C00090F8C62202EB8204C4EB821200EB420255
:1086D00012899142F2D0491C198090F8C61201EB20
:1086E0008102C2EB811100EB4100008902E0198098
:1086F000D088401E5880012010BD00000A4810B5E7
:10870000807860B1002401E0022C06D02046FFF7FB
:1087100095F9641C042CF7D310BD0324F6E7BDE8DB
:108720001040FFF7C5B90000202D00200348017953
:10873000C90702D00078FFF7E1BA7047202D00206A
:1087400006490120086006480168C1F3004100297C
:10875000FAD1044900208870704700000C000040E6
:108760001804004090350020F72101801721418036
:10877000002101714171FB2181711B21C171704781
:108780002DE9F047394E002780463D46DFF8E0905E
:10879000D6F804A057E003D00446D0F81C8035E09A
:1087A00099F8002002EB4201521CD2B289F8002055
:1087B00009EBC10199F80230091D9A4201D189F8EB
:1087C000005048680A780446012A12D0022A02D0D2
:1087D000032A3BD108E002F0D7FF00B1012725743E
:1087E00034E00574C06900E070680028F9D1706059
:1087F0002CE0207C50BB88686060C868A060086975
:10880000E0604869A061F07800B165606268B168B5
:10881000184B501A20F07F40984202D2A1680844B9
:1088200006E0881AA16820F07F40814202D9081A28
:10883000206000E0256065600120A560207420466E
:10884000E56102F083FFB8F10000A4D199F80010AF
:1088500099F801008142A3D117B97168514502D03E
:108860000120BDE8F0870020FBE70000642D002018
:10887000C8360020FFFF7F0070B588B0214800F0A7
:1088800008FA2048001F064600F003FA1E4DD5E9FD
:10889000014105E0C0F3891202EB9050641C0444CE
:1088A00004EA010005EB8000C0688207F2D00020D6
:1088B0000DF1080204EA010305EB8303641CDB6885
:1088C00042F82030401C0228F4D3029800F0030044
:1088D000012808D002280AD10298032101EB905008
:1088E00004EB900403E00298C0F383100444304684
:1088F000002101AAFCF743FD002800D06C6008B0FD
:1089000070BD0000E43C0020CC380020A0B0002066
:1089100001F0ECFD08B1FEF7ABFA01F07FFCFEF7C9
:10892000EDFA08B1FEF7A4FAA249A34AD1E9000181
:10893000CDE9000140F6FF70ADF800009D486946A2
:10894000183000F057FD08B1FEF792FA994800215F
:10895000183000F0CBFD97480123F0220221183097
:1089600000F0FAFC08B1FEF783FA9248183000F0E4
:1089700035FD01F067FE08B1FEF77AFA8D4918223D
:108980004C316846FCF773FD8C481B904FF48070A7
:108990008B491E90CDE91C0107238A4A1BA9684612
:1089A000FEF744FB08B1FEF763FA87A0FDF7A6FCCB
:1089B000864C204600F0A0FA85A0FDF79FFC2046DB
:1089C00000F09AFA84A0FDF799FC85490120FFF791
:1089D0004BF908B1FEF74CFA69460020FFF78CF816
:1089E00008B1FEF745FA03F015F802F033FBFDF786
:1089F00005FB7C4C60780028FCD002F015FB607809
:108A00000028FCD002F010FB60780028FCD06948F8
:108A1000083001F041F802F099FD0025A4F8035058
:108A2000A570704B4FF002096248DB1C4A4603F107
:108A300009011030CDF8009000F05CFF20B1FEF786
:108A400017FA01E002F0FCFBA0780028FAD000F051
:108A50007BFE6548FEF714FC08B1FEF709FA01F049
:108A6000F5FF08B1FEF704FA69460120009501F010
:108A7000AFFE08B1FEF7FCF9684601F053FF08B1FC
:108A8000FEF7F6F902F0C0FCFFF7EAFC5748009049
:108A900069465748FEF7A0FE08B1FEF7E9F9012242
:108AA0002F20009500231146019501F01FFA2F2079
:108AB0000090684601F0FAFA009A01219140C0F84E
:108AC0000C1500220F2000952B461146019501F050
:108AD0000DFA0F200090684601F0E8FAD0F8100572
:108AE00000994FF08056C840326E00F0010741A156
:108AF00017A8FDF713FC3B48032217A91430FCF715
:108B0000E6FC402107A8FCF7CBFC94ED080A10EE28
:108B1000100AFCF79DFE41EC100BFDF715FC51EC23
:108B2000100BFCF77CFE94ED070A00F0FF0810EE36
:108B3000100AFCF78DFE41EC100BFDF705FC51EC23
:108B4000100BFCF76CFE2A4AA36A2432C0B21179DA
:108B5000D278CDE90521CDE90373726ECDE900200D
:108B6000CDF80880336E1F4A23A1143207A8FDF701
:108B7000D5FB07A8FDF7C2FBA5701A4B0D48DB1CFF
:108B8000022203F10B011030CDF8009000F0B2FE8C
:108B900020B1FEF76DF901E002F07EFBA07800281D
:108BA000FAD0257001F03CFB0028FBD101F05EFDFE
:108BB000F8E7000064C002001DB10200602F002031
:108BC00060300020B9BC02002B2B2B0080841E00DB
:108BD000415444420D0A00004154434E0D0A000026
:108BE000E57B0200182A0020D1800200F576020001
:108BF0006031002025780000343A25733A2530345E
:108C000078253034783A25643A25643A25643A2543
:108C1000643A256325633B0D0A0000002DE9F04707
:108C2000C7880446181D16468946B0FBF7F1B0FB0D
:108C3000F7F207FB12009A193A44D21CB2FBF7F282
:108C4000DDF820A001E02468491E0029FBD13D1A6F
:108C50008846B54216D818E0BAF1000F05D02118A1
:108C600009EB08002A46091D04E0204409EB08012D
:108C70002A46001DFCF7FBFB00202468761BA84455
:108C8000B74201D9354600E03D46002EE4D1BDE8AB
:108C9000F08708B501216A46FCF764FB009808BD1F
:108CA00038B5044600258DF800506846FEF736FAC0
:108CB00021686268086890420ED9401E08600178F9
:108CC000238AE26801FB0325227A2168101AC0B2C8
:108CD0000A79824200D208719DF80000FEF742FA3C
:108CE000284638BD38B5054600208DF800000C46F2
:108CF0006846FEF713FAE868298A201AB0FBF1F1FA
:108D00002A681068431C136001709DF80000FEF78C
:108D100029FA38BD10B530B1017A42680368891A62
:108D2000C9B21A6006E00E2010BD03681A68541C10
:108D30001C601170491EC9B2F7D200680021017190
:108D4000084610BDC20800F007030120895C984066
:108D50000840704728B1A1F11702E12A03D3072088
:108D600070470E20704741800020704710B560B1F9
:108D70000161F72120F8021B20F8021BFB2100F8FB
:108D8000021BFFF7F1FC002010BD0E2010BD0000FB
:108D90002DE9F043858897B00C46002D3DD1018820
:108DA000DFF824810026DFF82491012724293CD014
:108DB00006DC102909D011290CD023296DD150E0EF
:108DC0003A290BD0552968D12AE00146204601F006
:108DD0009FFF62E0A01DFFF7C7FC5EE022464089CE
:108DE00034F8061F814200D808466080172800D258
:108DF00017206080106970B1607960B1D8E9001007
:108E0000CDE90310ADF80E506088ADF8100013697D
:108E100003A9104698476671267117B0BDE8F08324
:108E20000146204602F03AF837E0011D3C2206A830
:108E3000FCF71DFBBDF81800BDF81C2004EBC001B9
:108E40004A7322694AB3D8E90432CDE90432ADF855
:108E50001200487B8DF814002269204604A990472F
:108E60001BE00496059630F8041F04EBC10201795B
:108E7000127B8A4200D21146ADF81010ADF81210E4
:108E80000088002204A990DF020006D0B9F8000093
:108E90000F4907EB004001F019FBA07A0028BCD075
:108EA000E18828469EDF02000BD0112AB5D0B9F820
:108EB000000017B007EB0040BDE8F043054901F0A2
:108EC00005BBA672E772A8E778C10200B82D0020A2
:108ED00060C40200D8C3020000F18040006800288E
:108EE00000D00120704708B500F1804000210160EA
:108EF0000068009008BD000000283ED01F49204AAD
:108F0000096800BF00BF00BF00BF00BF00BF00BFB7
:108F100000BF91422FD000BF00BF00BF00BF00BF05
:108F200000BF00BF00BF00BF00BF00BF00BF00BF49
:108F300000BF00BF00BF00BF00BF00BF00BF00BF39
:108F400000BF00BF00BF00BF00BF00BF00BF00BF29
:108F500000BF00BF00BF00BF00BF00BF00BF00BF19
:108F600000BF00BF00BF00BF00BF00BF00BF00BF09
:108F700000BF00BF00BF0138C3D17047A82D00203B
:108F80000024F40000283ED01F49204A096800BF91
:108F900000BF00BF00BF00BF00BF00BF00BF9142C5
:108FA0002FD000BF00BF00BF00BF00BF00BF00BF89
:108FB00000BF00BF00BF00BF00BF00BF00BF00BFB9
:108FC00000BF00BF00BF00BF00BF00BF00BF00BFA9
:108FD00000BF00BF00BF00BF00BF00BF00BF00BF99
:108FE00000BF00BF00BF00BF00BF00BF00BF00BF89
:108FF00000BF00BF00BF00BF00BF00BF00BF00BF79
:1090000000BF0138C3D17047A82D00200024F40010
:1090100000283ED01F49204A096800BF00BF00BF9A
:1090200000BF00BF00BF00BF00BF91422FD000BFF4
:1090300000BF00BF00BF00BF00BF00BF00BF00BF38
:1090400000BF00BF00BF00BF00BF00BF00BF00BF28
:1090500000BF00BF00BF00BF00BF00BF00BF00BF18
:1090600000BF00BF00BF00BF00BF00BF00BF00BF08
:1090700000BF00BF00BF00BF00BF00BF00BF00BFF8
:1090800000BF00BF00BF00BF00BF00BF00BF01386E
:10909000C3D17047A82D00200024F40070B50F4CF8
:1090A0000025207808B1852516E00021A1606160C7
:1090B0002161E1604FF0E020D0F80001012610F0BE
:1090C000010F03D10721002000F022F801F0F8FC85
:1090D00008B9034806602670284670BD9035002008
:1090E0001805004008B500208DF800006846FEF71E
:1090F00015F80648C168491EC160C06808B9FFF785
:109100001FFB9DF80000FEF72DF808BD90350020EC
:109110004907090E002806DA00F00F0202F1E022EA
:1091200082F8141D03E000F1E02282F8001400F040
:109130001F02012191404009800000F1E020C0F8A9
:109140008012C0F800117047000B40B27047000059
:109150002DE9F0410E46804601F04EFF204D0028DB
:10916000404616D0FEF720FF284490F858008009AA
:10917000032802D001280AD003E0404600F0EAFFAD
:1091800028B103214046BDE8F04100F063BF022151
:10919000F8E701F03DFF002820D04046FEF704FF2D
:1091A0000446104F4FF4807007EB840100EB8400FD
:1091B000D1F8102580B242F00102C1F8102501F06B
:1091C0001BF8002E0AD04046FEF7EEFE55F82000B0
:1091D000002803D00120A040C7F80403BDE8F081B7
:1091E000A4350020006000402DE9FC41DFF8AC8090
:1091F000044608EB0400002790F930001346C0171E
:109200000E46401C01D0082744E0F278194620465B
:10921000FEF7A6FE0546401C3BD0B07868B1684614
:10922000009400F05FFF009900EB8100D0F8001778
:1092300021F00201C0F8001707E0002173782046F2
:1092400000910A46019100F083FEF078C0B1144805
:10925000317800EB8500D0F81025124B1A40C0F889
:1092600010254FF47C524FF4403302EA042203EA03
:1092700001410A43D0F810150A43C0F8102509E04F
:1092800008EB0500327810F8581F41EA821101708E
:1092900000E004273846BDE8FC810000A43500202A
:1092A00000600040FFC0FCFF10B500F053FF002835
:1092B00000D0012010BD000070B5144D95F8640079
:1092C00008B1082070BD0020411E2A18401CC0B201
:1092D00082F830103028F8D300242046FEF732FE02
:1092E000641CE4B20C2CF8D307210620FFF710FF12
:1092F0004FF4BE7000F080FF05494FF00040C1F808
:109300000403012085F86400002070BDA43500200E
:1093100000600040034890F86400002800D001205D
:1093200070470000A43500200121B1EB507F01D12E
:1093300001207047002070470121B1EB507F01D11F
:1093400001207047002070470121B1EB507F01D10F
:1093500001207047002070472DE9F04105464FF489
:10936000A07000EB810086B228684FF480348C40F6
:10937000C0F848432868C0F8084322F07F406A7963
:10938000154F02EB42023A445278002A2A6802EB57
:109390008101C1F8400512D02968D1F80425111ABD
:1093A000824202D26FF07F400144687900EB4000B6
:1093B00038448078884202DD0D20BDE8F08133B169
:1093C0003146286801F094F92868C0F804432868F9
:1093D000C0F844430020F0E7482D00200168012236
:1093E0000A604079024A00EB4000022111547047A4
:1093F000482D002070B50D4604465AB160791449D5
:109400000E1F41F82020607900EB4000305C18B15D
:10941000082070BD072070BDA97894F90400FFF7FB
:1094200077FE20682988C0F808156179287901EB52
:109430004101314448706179E87801EB41013144E0
:1094400088706179012001EB41017054002070BDEA
:109450004C2D00202DE9F0479146884604464FF4F4
:1094600080364FF4A0750027DFF87CA012E000BF23
:10947000D4F80403304209D0605938B12946204657
:1094800001F036F95AF82810F8B288472D1D7600F9
:10949000ADB27F1C4F45EBD3D4F804034FF4807179
:1094A00010F0010F09D0D4F8000130B1204601F0CE
:1094B0001FF95AF8281004208847D4F804034FF401
:1094C000827110F0020F0CD0D4F80401002808D0EB
:1094D000204601F00DF95AF82810BDE8F0470520A4
:1094E0000847BDE8F08700004C2D002070B50E46FF
:1094F00005464FF480710124006801F0F9F82868EE
:10950000C0F84443002E02D02868C0F8044370BD60
:109510002DE9F041254C064612200D46C4F80803FB
:109520002348017C022918D0027C01464FF4807840
:1095300091F82E10012A12D00222C4F80423012728
:109540000774466005810022C26021B3458390F80C
:109550002D10304601F0D2F825E0122002E0C2685A
:109560002AB10220C4F804031120BDE8F081C660CE
:10957000058361B94746384601F006F90028FAD05C
:10958000384601F009F92946304601F0B7F80220C3
:10959000C4F8040307E02946304601F0AFF840461E
:1095A00001F0FAF827600020DFE7000000700040BB
:1095B0005436002070B50F4A05460C46107C08B1A1
:1095C000112070BD02EB4501087F18B912F82D0F6C
:1095D000401C1070E0790877207A487721462846A9
:1095E00001F094F8227AE179284601F0C3F80020CE
:1095F00070BD00005436002070B505460E48017C51
:1096000009B1112070BD00EB45010A7F1AB110F8B5
:109610002D2F521E027000240C774C7722462146D3
:10962000284601F0A7F840F2FF72D143284600F027
:109630004BF8204670BD0000543600202DE9F04163
:109640001D4C054694F82C0010B10820BDE8F081AF
:1096500009B115B102E00720F8E7184D44F8101BD6
:10966000174928780860091D68780860E878A077AD
:10967000012727770020207060776060114EE07727
:109680006FF00040C6F808034FF4827001F084F8D0
:10969000B01501F081F8A9780720FFF739FD022005
:1096A000C6F80403A07F10B10120C6F804030448E3
:1096B000F03807600020C9E754360020CCC1020012
:1096C000F0750040007000402DE9F04117460C464F
:1096D0000546C1EA07401A4E06EB0511C1F81C0504
:1096E0000021284601F062F82346012101EB4502E2
:1096F000144CC907D140626913F5006F1BD00A43AF
:109700006261C6F804030121284601F04FF86A009F
:109710004FF00041D140A7F5E0636269FF3B05D0FF
:109720000A436261C6F80403BDE8F0818A436261BE
:10973000C6F80803F8E78A436261C6F80803E2E75F
:109740000070004054360020084900200A7C012A9D
:1097500001D00820704791F82E30054A01210BB145
:1097600011607047024A121DFAE7000054360020CB
:109770000070004070B517496FF00040C1F8080351
:1097800080214FF0E02201200026C2F8801111490B
:109790000831086042F210744FF48A7500E0641ECC
:1097A000284600F0F1FF08B9002CF8D10A480660FD
:1097B0000A4D2E745FF0000405EB4400007F10B1E9
:1097C000E0B2FFF719FF641C082CF5D385F82C6074
:1097D00070BD00000070004000750040543600204D
:1097E0002DE9FC47074640790C46DFF804A100EB61
:1097F000C0010AEB8106307F10B10820BDE8FC876C
:10980000C6E90023207B0128207802D800F044FC20
:1098100001E000F0BEFC4FF00009CDF80090CDF85B
:10982000049020784B464A46012100F0C3FB607843
:109830004FF0FF35FF2806D0804600F02DFC404653
:1098400000F0E4FB00E0A846A078FF2809D0002241
:1098500005460123CDF800901146CDF8049000F0A4
:10986000A9FBE078FF2804D000F093FCE07800F03A
:10987000CDFB7879E17800EBC0020AEB82008177BA
:1098800038682278C0F80825C0F80C85C0F8105553
:10989000A168C0F82415227B617B01B10121012A56
:1098A00004D0022A05D0032A08D105E041F00201C4
:1098B00004E041F0040101E041F00601C0F8541554
:1098C0006179C0F8C015316811B14021C0F80413A6
:1098D0000721C0F80015306820B1217997F90400FC
:1098E000FFF716FC484686F81D900121317785E781
:1098F000843600201FB5069C00918DF80420029349
:109900008DF80C400022694600F002F804B010BD4A
:109910002DE9F04105460F464079154900EBC0009E
:1099200001EB80041646607F10B11120BDE8F08184
:10993000206820B116F0140F01D10120607797E85C
:109940000F0004F10C0888E80F0094F8210020F0C3
:10995000070084F82100A07FFF2801D000F09CFBC5
:1099600033463A4621462868BDE8F04101F00CBE76
:109970008436002001790A4A01EB810102EBC10122
:10998000006800228A60531EC0F80833D0F8003205
:10999000C0F80022C0F80025012081F8220070479D
:1099A0002C3600200179064A01EB8101006802EBA8
:1099B000C1010622C0F80025022081F8220070476C
:1099C0002C36002070B506460D4600791F4900EB85
:1099D000800001EBC00494F8220008B1082070BD9B
:1099E0000020C4E90023A06084F8250084F8240046
:1099F000A87B84F82700687B10B1284601F052FF4D
:109A0000296840F20C60890001F1A041C1F800070B
:109A10006968890001F1A041C1F80007D5E9001289
:109A20003068C0F80815C0F80C25A968C0F82415DE
:109A3000206828B13068297B000B40B2FFF768FB33
:109A4000012084F82200002070BD00002C36002088
:109A50003EB5074D2C68AD6800948DF80110019259
:109A600002958DF802300022694600F04BF83EBDA9
:109A7000C0C102003EB500250095069C8DF801107E
:109A800002958DF8023001920CB1202200E00022F4
:109A9000694600F037F83EBD30B5044600791849F4
:109AA00000EB800001EBC005286860B12068000B66
:109AB00041B201F01F02012090404909890001F1E3
:109AC000E021C1F880012046FFF754FF95F82700F8
:109AD00088B9216840F20230D1F80815890001F1F7
:109AE000A041C1F800072168D1F80C15890001F1E7
:109AF000A041C1F80007002085F8220030BD000019
:109B00002C36002030B40379064C03EB830304EBBE
:109B1000C304006813460A460146204630BC01F0E3
:109B200091BF00002C3600202DE9F0410546007958
:109B3000164F904607EB40140E46E07E10B1082009
:109B4000BDE8F081707F20772846FDF725FB5FEAAE
:109B5000080060603169216003D0317F2846FEF73C
:109B6000C3FC287907EB4010007F0028286801D04B
:109B7000082100E00421C0F800150020E0752076DF
:109B8000A0750121E176A076DAE700000C3600200E
:109B90002DE9F04105460079284E904606EB401429
:109BA0000F46207F18B10846FFF7BEFB80B1626800
:109BB00000234FF404704FF4017172B12A7906EB5F
:109BC0004212127F002A2A6805D0C2F8080304E076
:109BD0001020BDE8F081C2F80813E27DB2B1227E08
:109BE0007AB162685AB12A7906EB4212127F1AB131
:109BF0002968C1F8040302E02868C0F804131120A2
:109C0000E7E72761012384F8188005E084F81780CE
:109C10000020E760607620762879424606EB401007
:109C20003946007F0028284603D0BDE8F04100F007
:109C300073B8BDE8F04100F01BB800000C360020FE
:109C400070B504460079094D05EB4010017F0029ED
:109C50000AD1807E002807D1204601F0AAFA217996
:109C6000012005EB4111887670BD00000C36002004
:109C70002DE9F05F04460079264901EB4015A87EE6
:109C8000184302D1204601F094FA68680028206841
:109C900006D04FF40171C0F804130020BDE8F09F16
:109CA0004FF4A276314600F091FFB1464FF4927A1C
:109CB0004FF4847B5146206800F083FF06465946E6
:109CC000206800F07EFF80464946206800F079FF5A
:109CD000074648EA07003043ECD056EA070007D1B0
:109CE0002946206801F040FAE87D697E8842E1D883
:109CF0000020E8750EB10320D0E70FB10F20CDE7AB
:109D0000A97E01200029216801D00860C5E74860CC
:109D1000C3E700000C3600202DE9F05F89460446B9
:109D20004FF488759A46904600260068294600F050
:109D30005EFF4FF4A2773946206800F058FF206894
:109D4000C0F83495C0F838852068BAF1000F14D0F7
:109D5000D0F8001241F02001C0F800122179DFF89C
:109D6000648008EB4110406850B120684FF40471E2
:109D7000C0F804133046BDE8F09F01210160EDE713
:109D8000AA46B9464FF4927B5146206800F02AFF5C
:109D900007464946206800F025FF054659462068D9
:109DA00000F020FF014647EA05000843ECD0237984
:109DB000002208EB4310C27501B10326002DD9D053
:109DC0000F26D7E70C3600202DE9F047054600792D
:109DD0003F4E904606EB40140F46207F18B10846D0
:109DE000FFF7A2FA30B1284600F074F820B1112034
:109DF000BDE8F0871020FBE784F81680A7600027F5
:109E0000A78228794FF0010806EB40143E46207FD8
:109E10000028286825D04FF49079494600F0E7FEE5
:109E20004FF4AC7A5146286800F0E1FE2868A17D25
:109E3000A268C0F84425C0F848152868C0F8088012
:109E40006068F0B94946286800F0CCFE804651466B
:109E5000286800F0C7FE58EA0001F3D058BBA77588
:109E60000FE04FF48E7A514600F0B0FE2868C0F83B
:109E700008802146286801F001FF61684FF4807076
:109E800089B13046B4E75146286800F09AFE10B90F
:109E9000A08A4845F7D1A08A484505D021462868C0
:109EA00001F0ECFE00E08146A08AA17D8842EAD361
:109EB000A08A484501D10F26D1E75146286800F015
:109EC00080FE0028F9D02868C0F80C80C7E70000A1
:109ED0000C3600200079044901EB4010807D0028F9
:109EE00000D00120704700000C3600202DE9FF4112
:109EF0001C46DDE90A7815460E46684600F0D6F89D
:109F000046EA450141EA840141EA072242EA084162
:109F1000009A00EB8200C0F80017BDE8FF812DE930
:109F2000FF411C46DDE90A7815460E46684600F0FA
:109F3000CBF846EA450141EA840141EA072242EAB8
:109F40000841009A00EB8200C0F80017BDE8FF81CD
:109F50002DE9FF411C46DDE90A7815460E466846A4
:109F600000F0C0F846EA450141EA840141EA0722CF
:109F700042EA0841009A00EB8200C0F80017BDE8F1
:109F8000FF812DE9FF411C46DDE90A7815460E46A2
:109F9000684600F0B5F846EA450141EA840141EA25
:109FA000072242EA0841009A00EB8200C0F800173D
:109FB000BDE8FF812DE9FF411C46DDE90A78154621
:109FC0000E46684600F0B8F846EA450141EA8401C9
:109FD00041EA072242EA0841009A00EB8200C0F8F9
:109FE0000017BDE8FF811CB500220B460092114608
:109FF0000192FFF7C6FF1CBD1CB5002100910B4666
:10A00000012201911146FFF7BCFF1CBD1CB50021C8
:10A0100000910B46012201911146FFF7CBFF1CBDB9
:10A02000202802D24FF0A04202E0094A00F01F00AF
:10A0300002EB8000D0F8002722F44032C0F800275D
:10A04000D0F8002742EA0141C0F80017704700002D
:10A050000003005013B50C46684600F043F8009921
:10A0600000EB8101D1F8002722F44032C1F800272B
:10A07000009900EB8100D0F8001741EA0441C0F8D4
:10A0800000171CBD01B5684600F048F8009A012190
:10A090009140C0F80C1508BD01B5684600F04CF8B9
:10A0A000009A01219140C0F80C1508BD01682029D3
:10A0B00002D24FF0A040704701F01F01016001483B
:10A0C00070470000000300500168202902D24FF0C1
:10A0D000A040704701F01F01016001487047000077
:10A0E000000300500168202902D24FF0A0407047C1
:10A0F00001F01F010160014870470000000300509B
:10A100000168202902D24FF0A040704701F01F01E2
:10A1100001600148704700000003005001682029D9
:10A1200002D24FF0A040704701F01F0101600148CA
:10A1300070470000000300500168202902D24FF050
:10A14000A040704701F01F01016001487047000006
:10A150000003005001B56846FFF7C4FFD0F81005B2
:10A160000099C84000F0010008BD01B56846FFF73E
:10A17000C7FF009A01219140C0F8081508BD01B53C
:10A180006846FFF7CBFF009A01219140C0F80815FF
:10A1900008BD01B56846FFF7CFFF009A0121914045
:10A1A000C0F8081508BD38B501240090684631B1E3
:10A1B000FFF78AFF00998C40C0F8084538BDFFF7CB
:10A1C00083FF00998C40C0F80C4538BD1CB5094C84
:10A1D0000144D4E90034CDE900346C4606E000BF08
:10A1E00054F82030D3F81035401C08C28142F7D80B
:10A1F0001CBD0000B8C10200034908B50844002195
:10A2000001600068009008BD0060004002494058AD
:10A21000012800D000207047006000407047000017
:10A220002DE9F04F8DB0FDF77FFE18B100200DB085
:10A23000BDE8F08F74480021C0F81814BFF34F8FA9
:10A24000D0E9014604EA060100EB81014FF0000964
:10A250000AE000BFC1F3891202EB9151641C0C4467
:10A2600004EA060100EB8101C9688A07F2D00021E7
:10A2700003AA804604EA060008EB8000641CC0685C
:10A2800042F82100491C43460229F3D3039800F009
:10A290000300022806D0012803984FD0C04380074E
:10A2A0007ED0ACE003985022810D8A46B2EB905FDD
:10A2B00000D850210D4665F39F5003900831534854
:10A2C00000F056F907006CD000F09BF94B460822CD
:10A2D00003A9384600F0AFF904EA0601701A8000BD
:10A2E000001D09F1080B854221D9474E0C3630B1CB
:10A2F000C2B208EB8101281A91460C3104E03146C4
:10A30000EAB2002691463046C5B25B46384600F0B8
:10A3100092F90BEB09032EB12A4631464FEA0700AA
:10A3200000F089F90AF1030004EB90043BE008EB2C
:10A3300081015B462A4638460C31F1E7C0F38310B1
:10A34000062800D30620039960F38911C1F3831016
:10A35000801C039181002D4800F00AF907004ED0BF
:10A3600000F04FF94B46082203A9384600F063F984
:10A3700009F1080900250DE004EA060008EB800158
:10A380004B46042238460C31641C00F054F909F1A4
:10A3900004096D1C0398C0F38310A842ECD801E0B7
:10A3A0000BE02CE05FB3D8F81054D8F818044646F8
:10A3B00090B1384600F02EF921E0D3F818040028B7
:10A3C0003FF435AF1BE0687A012804D1296828469C
:10A3D0000A68394690476D68002DF4D1384600F080
:10A3E00019F900208DF800006846FCF797FED6F8B2
:10A3F000180400B974609DF80000FCF7B3FEFDF787
:10A4000093FD80F0010012E7CC38002020C3020049
:10A410002DE9F84FDFF8A89080468A46D01C1646F2
:10A4200080086946D9F80870FDF74CFD80B3009D9F
:10A43000AC1C0094D9F8081004EA0700091A8C0033
:10A44000241DA64209EB800002D8324651460AE09C
:10A45000224651460C30FBF70AF8301B86B21848EA
:10A460000AEB040132460C30FBF701F8681C384057
:10A4700009EB80004FEA18423D4009EB8501C260BC
:10A480005FEAC86051F80C0F03D540F0040002E009
:10A490000CE020F0040068F3C5004FF6C072904352
:10A4A00066F39F5020F00300801C086099F81C049C
:10A4B00002E000BFFFF7B4FE0028FBD1BDE8F88F33
:10A4C000CC38002000231A4601F0B8B808B50123A3
:10A4D00000926A4601F0B2F808BD1CB5CDE9002330
:10A4E00002236A4601F0AAF81CBD0000114810B50D
:10A4F000FF218160002101604160C0F81814C0F89C
:10A50000141480F81C140C4800F082F800280FD1B5
:10A510000A480B490B4B401AC108002005E000BF58
:10A5200000EB400223F82200401C8842F8D30020B0
:10A5300010BD0000CC38002020C3020004CB020074
:10A5400084CA0200AC2D002070B508480125D0F85F
:10A55000104480F81C5405E0657221682046496863
:10A5600088476468002CF7D170BD0000CC3800200B
:10A570002DE9F041058A80462D1F4819C01CB0FB0B
:10A58000F5F0C6B24046FEF78BFB041E19D0002042
:10A59000207101206071E58000272546761EC4F8F1
:10A5A00000800BE04046FEF77BFB60B16179491CFF
:10A5B0006171286005467F1CC0F80080B742F1D366
:10A5C0002046BDE8F081204600F002F80020F8E7C0
:10A5D0002DE9F041457901466B1E002201E0096832
:10A5E000521C9A42FBD30F680146002605E038460C
:10A5F0000C68FEF777FB2146761CAE42F7D3BDE828
:10A60000F08108B501216A46001DFAF736FE08BD43
:10A61000FEF780BB38B50446001D01216A46FAF7F3
:10A6200039FE009810F0FF0F04D12046BDE83840F5
:10A63000FFF7CEBF38BD38B500240094FEF7EEFA20
:10A6400038BD0000064910B500204870091D08609B
:10A65000BFF35F8F0349044800F056FA002010BD95
:10A66000882D002010C202000038002008B500200C
:10A670008DF800006846FCF751FDF1EE100A20F05D
:10A680009F00E1EE100ABFF35F8F08494020C1F838
:10A6900080029DF80000FCF765FD00F011FA08B19A
:10A6A0003EDF08BD20BF40BF20BF08BD04E000E082
:10A6B000F8B504460D4801216A46FAF7F9FDBFF3E3
:10A6C0005F8F002500280AD10121084E042C09D0F3
:10A6D000301F427822B100BFBFF35F8F3560F8BDF5
:10A6E0000470417000F052FEF6E700008C2D00204F
:10A6F00008B5002242504058009008BD024A106040
:10A70000101D0160704700002C76004010B50A78DB
:10A710004B78302402F0030204EA03131A438B78C7
:10A720004FF4E06404EA03231A43CB784FF48054D7
:10A7300004EA03331A430B794FF4E02404EA034399
:10A740001A434B794FF4801404EA03531A438B796C
:10A75000240104EA03631A43030105481844C0F8BE
:10A760001825CA79097AC0F81415C0F8102510BD4B
:10A7700000700040030103481844C0F81425C0F8D5
:10A78000101570470070004002494058002800D062
:10A790000120704700700040034908B508440022BA
:10A7A00002600068009008BD00700040024619B1C8
:10A7B00040205100884070478020FAE720B10349CB
:10A7C00009680160002070470E20704754C30200E2
:10A7D0002DE9FE4306460D460846FFF7EFFF002829
:10A7E0007ED18046CDF80080CDF80480012403207E
:10A7F0008DF80060ADF80400CDF808808DF80240B7
:10A80000694620202A6869DF3F4F40B100F0C4F953
:10A81000024638883D4904EB0040FFF757FECDF86B
:10A8200000808DF800808DF80140CDF80480CDF8CF
:10A8300008808DF80240694640202A6869DF40B1EF
:10A8400000F0AAF902463888314904EB0040FFF7CE
:10A850003DFECDF800808DF80060F720ADF80200D5
:10A86000CDF80480CDF80880694623202A6869DF86
:10A8700040B100F091F902463888264904EB0040C7
:10A88000FFF724FECDF80080CDF80480CDF80880D5
:10A890008DF800404646694601202A6869DF40B1CC
:10A8A00000F07AF9024638881B4904EB0040FFF7B4
:10A8B0000DFE4FF4B0600090019602966946A1200B
:10A8C0002A6869DF40B100F067F902463888134909
:10A8D00004EB0040FFF7FAFD00960196029600E0B7
:10A8E00010E08DF800606946A0202A6869DF40B159
:10A8F00000F052F902463888094904EB0040FFF79E
:10A90000E5FD0020BDE8FE83482E002004C90200BA
:10A910004CC9020098C9020064C80200B0C8020015
:10A9200010C802002DE9F0410446D0F800E060DFD5
:10A930002368144D0646734515D02888022707EB77
:10A940000040724610A1FFF7C8FDF806D0F80C01D0
:10A950002168800200F10050421A288816A107EBF6
:10A960000040FFF7B3FD56B1304600F015F902463E
:10A970002888012101EB004018A1FFF7A7FD304610
:10A98000BDE8F081482E002052414D207374617261
:10A99000747320617420307825782C2063616E20D8
:10A9A00062652061646A757374656420746F203019
:10A9B0007825782E0000000052414D2073697A6599
:10A9C0002063616E2062652061646A7573746564DA
:10A9D00020746F20307825782E00000073645F6249
:10A9E0006C655F656E61626C65282920726574759F
:10A9F000726E65642025732E0000000030B5EBB048
:10AA00004FF4CE75ADF8A8516AA9684661DF30B140
:10AA1000052816D06BB0BDE83040FCF729BA6C466B
:10AA2000094967A800F070F807E000BFD0E90021ED
:10AA30002046904767A800F07EF869980028E1D08A
:10AA4000F4E76BB030BD000058C3020038B5104CBD
:10AA5000207808B1082038BD0125A570002000F03D
:10AA600057FC112812D0002000F06AFC09480A495E
:10AA700000680090684610DF0028ECD12570A070B7
:10AA8000607000F0FBFC012000F05AFC002038BD93
:10AA9000A42D002090C30200F96D02000EB50749F5
:10AAA000684600F031F805E0D0E9001088476846B4
:10AAB00000F041F802980028F6D10EBDACC30200A8
:10AAC0000148007870470000A42D00201FB568469B
:10AAD00048DF30B1052814D004B0BDE81040FCF7C1
:10AAE000C7B9084901A800F00FF806E0D0E9002135
:10AAF0000098904701A800F01EF803980028E6D0BF
:10AB0000F4E71FBD74C30200016009684160AFF340
:10AB1000008010B5D0E900215368994201D100218D
:10AB200004E0D1E90034A34202D01946816010BD8F
:10AB300008314160F0E7816800290BD00268926813
:10AB40000A44826041684B689A4203D108314160EF
:10AB5000FFF7DFBF70474058002800D00120704742
:10AB60000C4A10B502F1F0030EE0991AC91001EB7E
:10AB7000D171491002EBC1010C68844201D90B4626
:10AB800002E005D201F108029A42EED3002010BD86
:10AB9000486810BD30C2020000B5FFF7E1FF002891
:10ABA00000D1014800BD00001CC20200405800282E
:10ABB00000D00120704708B5002242504058009054
:10ABC00008BD4058002800D00120704708B5002279
:10ABD00042504058009008BDD0F80403084000D00F
:10ABE000012070474058002800D00120704708B568
:10ABF000002242504058009008BD00002DE9F84F57
:10AC000005460C460888B5F8CA12884259D195F80D
:10AC1000C602DFF8F8A000EB8001C1EB801005EB65
:10AC2000400160884FF003094FF00008F0BBE68850
:10AC30000879A21DF3B250FA86F6062E01D8034415
:10AC400000E006230B7100261CE000BF00EBC003F0
:10AC500006EB860702EB470701EB4303D7F802C078
:10AC6000C3F80AC0D7F806C0C3F80EC07F895F8258
:10AC7000A3F81480A3F81680A3F81880401CA3F84A
:10AC80001A80761C0B798342E0D895F8C62200EB37
:10AC9000C00002EB8203C3EB821205EB420231F8E3
:10ACA0001000128990420ED2087900E00BE00628CD
:10ACB00009D085F8C50221882846FDF77DF90100F5
:10ACC0000AD1BDE8F88F85F8C582228869462846F2
:10ACD000FDF704FA01000BD085F8C78222882846C8
:10ACE000FDF7BAFA8AF800902188AAF80210E8E77E
:10ACF0009DF800000028E4D0228801212846FDF7B5
:10AD000063FA2188284600F039F9DAE7903200200A
:10AD10002DE9FC418E88027900EBC605AC1D2A7333
:10AD2000C97B012902D0022904D101E0008800E09A
:10AD300040882080218860880127DFF86480814274
:10AD40000CD930469EDF020025D0112A25D0B8F854
:10AD50000000144907EB0040FFF7B8FBA079E17948
:10AD6000884216D9002000900190287BADF80000A1
:10AD7000287BADF8020000226946304690DF0300D0
:10AD800007D0B8F80000324607EB00400649FFF74D
:10AD9000A4FBBDE8FC816771E0E72771DEE70000F6
:10ADA000B82D0020D8C30200A8C40200F8B505469B
:10ADB0000C460888B5F8CA1288425DD195F8C602DB
:10ADC000A61D00EB8001C1EB801005EB400395F858
:10ADD000C502618800EBC00003EB40000A3039B3C4
:10ADE00029E000BF01EB410206EB42029788B7F56C
:10ADF000245F0CD06FF4245C17EB0C070AD0012FF2
:10AE000002D0072F0BD108E05288428107E0528818
:10AE1000828104E05288C28101E052880282428924
:10AE20002AB182891AB1C2890AB1028A1AB9491CA7
:10AE300032888A42D6D800268DF8006095F8C5027F
:10AE40001979401C884203D101208DF8000018E0D8
:10AE500085F8C502228869462846FDF73FF90100BA
:10AE60000BD085F8C76222882846FDF7F5F90A4815
:10AE70000321017021884180F8BD9DF80000002861
:10AE8000FAD0228801212846FDF79EF9218828461C
:10AE900000F074F8F8BD0000903200207CB5064642
:10AEA0008D88C88806EBC504A41D172800D217207A
:10AEB0002188814200D808466080002020712188C6
:10AEC0002846ADDF020007D00E480121008801EBC3
:10AED00000400D49FFF7FAFA6079002810D1306977
:10AEE00000280DD00948D0E90210CDE90010ADF8D6
:10AEF00002506088ADF804003269694630469047D8
:10AF00007CBD0000B82D00201CC4020078C10200E6
:10AF100070B505460C4690F8C602228800EB800109
:10AF2000C1EB801005EB4001B5F8CA02824222D184
:10AF3000608848B100212846FDF746F92188284657
:10AF4000BDE8704000F01AB8A2680A60E068C1F875
:10AF5000060021882846FDF72FF801000BD00020BD
:10AF600085F8C70222882846FDF776F902480321B2
:10AF700001702188418070BD903200202DE9F041A0
:10AF8000044690F8C9020E46401C1949C0B284F824
:10AF9000C902C9680327174D4FF0000E884224D21A
:10AFA00084F8C5E294F8C602401CC0B200EB8001F0
:10AFB000C1EB801104EB410284F8C602A5F118012F
:10AFC00001EB800001210068106082F804E0304647
:10AFD00094DF010007D084F8C7E232462046FDF72F
:10AFE0003BF92F706E80BDE8F08184F8C7E2F8E786
:10AFF000382D0020903200200449084490F9300098
:10B00000082801DB0120704700207047A43500208C
:10B010000449084490F93000082801D20120704703
:10B0200000207047A4350020084910B50020487062
:10B0300001F12C02062370210548FEF709FD0028C6
:10B0400003D0BDE81040FBF713BF10BD182A002045
:10B050006CC002007CB5114C0025657010A0022365
:10B06000006801AACDE9005070210E48FEF702FDEC
:10B0700008B1FBF7FDFE60780028FCD06570074A38
:10B0800006232C3270210748FEF7E2FC08B1FBF7DB
:10B09000EFFE60780028FCD07CBD0000182A00205C
:10B0A000EFC800006CC0020070B50C4B00210A4ACA
:10B0B000DC680DE002EB81058678AD78B54206D1FB
:10B0C00032F821500688B54201D1586870BD491C3C
:10B0D000A142EFD3002070BD78320020382D00202F
:10B0E00070B5012670044FF0E0210025C1F8800101
:10B0F000084C4010C4F84803C4F8080366602F20C9
:10B10000FDF786FFA660044C2F20A560FDF780FFA9
:10B11000A57070BD00100140642D002010B50228FC
:10B120000BD0042815D10B4803210088BDE810403E
:10B1300001EB004008A1FFF7C5B9094801210068EB
:10B14000816008490869401C08611E2801DDFAF782
:10B1500059FE10BD3C2E00207469636B0000000096
:10B160007CC00200182A002070B50546C87D0C4638
:10B1700000284FF4847128460AD0FFF727FDD5F840
:10B180001805627EE1688854607E401C607670BD60
:10B19000FFF71CFDD5F8180570BD1FB501238DF80C
:10B1A00000308DF808100192D0E9001268469047EF
:10B1B0001FBD10B5044600684FF49271FFF706FDFD
:10B1C0004FF484712068FFF701FD206801210160C0
:10B1D00010BD000010B504460078002822D10121DE
:10B1E0006068FEF795F908B1FBF742FE0E480321AF
:10B1F000008801EB00400DA1FFF764F960684FF48F
:10B200009661008810FB01F0C11700EB915080128D
:10B210000A4900EB400000F587708862BDE81040E5
:10B22000FEF7A8BA10BD00003C2E002073616164D7
:10B230006320646F6E650D0A00000000182A00206C
:10B240000EB5124A07CA8DE8070000208DF80200EB
:10B250000F49FEF7F3F908B1FBF70AFE6946002033
:10B26000FEF7A8F908B1FBF703FE01210948FEF734
:10B270004FF908B1FBF7FCFD06480121801CFEF7E1
:10B2800047F9002801D0FBF7F3FD0EBD94C0020082
:10B29000D5B102003C2A002010B507488ADF08B16A
:10B2A000FBF7E6FD0120FCF7D3FC002803D0BDE846
:10B2B0001040FBF7DDBD10BD162D002038B5002174
:10B2C000012558B101280ED003280BD107210020F9
:10B2D000FDF71EFFBDE83840FDF704BF4FF0E0204A
:10B2E000C0F8805138BD8DF800106846FBF716FF96
:10B2F000064C207808B9FDF7D1FEE068401CE060FC
:10B30000A5709DF80000FBF72DFF38BD903500209B
:10B310003EB5044609496846FFF7F6FB08E000BF62
:10B32000D0E900212046904730B16846FFF703FC82
:10B3300002980028F4D13EBD11203EBD94C3020006
:10B340003EB5044608496846FFF7DEFB07E000BF4C
:10B35000D0E90021204690476846FFF7ECFB0298B1
:10B360000028F5D13EBD0000A0C3020010B5044680
:10B370000020FCF76DFC08B1FBF77AFD24B9FCF75F
:10B38000D7FB08B1FBF774FD012010BD70B5194D56
:10B39000194C07E0016820788847002829D0154813
:10B3A000FFF7C9FBA8680028F4D1FFF7CDF800BF6C
:10B3B000FEF736FF0028FBD1207803280CD00228A6
:10B3C0000AD0FFF77DFB00B132DF0C490120086095
:10B3D000BFF34F8F20BFFDE7BFF34F8F08480168D1
:10B3E000084A01F4E06111430160BFF34F8F00BFD1
:10B3F000FDE770BD00380020882D002000050040CA
:10B400000CED00E00400FA05134912480860091D1C
:10B4100012480860134912480860091D1248086064
:10B420000F48001D091D08600F48001D091D086018
:10B430000B484438091D08600B483030091D08606E
:10B440000A49001D086007494FF4E0307C39086064
:10B4500070470000032D030028650040032403000B
:10B460005411004080F501404860004050F901400F
:10B47000002801D1FCF7C2BD7047000010B51620AE
:10B48000FAF7E2FFA0B1114890F80004400908283B
:10B4900011D280B101280ED004280CD00C4882684B
:10B4A0004FF480016AB1016841F48001016010BD70
:10B4B00042F2010001E042F20200BDE81040FBF759
:10B4C000D7BC4FF0E020C0F8001110BD16E000E03E
:10B4D000F437002070B5124901208870114C032503
:10B4E00011A1208805EB0040FEF7ECFF0C48C01CC2
:10B4F0000078002813D0208811A105EB0040FEF74A
:10B50000E1FF0748C01CF9F7EEFF82B2208804492A
:10B5100005EB0040BDE87040C91CFEF779BF70BD67
:10B52000182A00203C2E0020535049205472616E8E
:10B530007366657220636F6D706C657465642E0050
:10B540002052656365697665643A00001FB50C4B4F
:10B550000FCB8DE80F0020208DF8030016208DF80A
:10B56000010018208DF8000005480023054A6946AF
:10B570001038FEF735F9002801D0FBF779FC1FBD24
:10B5800084C00200D5B402002DE9F84304461068D7
:10B590001E4615460F464FF0000810B1FDF7D4FEC9
:10B5A000F8B1A86810B1FDF7CFFED0B128792968AD
:10B5B000C4F84415C4F84805287BA968C4F83415B4
:10B5C000C4F838054FF48C754046C4F81881D4F897
:10B5D00018110091F2074FF0010107D0C4F850157F
:10B5E00006E087F81D801020BDE8F883C4F85005F8
:10B5F000B20702D5C4F8401501E0C4F84005300791
:10B6000000D42161386848B146F38000401C4FF0F7
:10B6100040000FD0C4F804030020E5E72946204687
:10B62000FFF799FA0028F9D0B87FFF28F4D0FEF789
:10B63000B0FDF1E7C4F80803EEE700002DE9F84398
:10B64000214C8846054691461F4669461846A6681D
:10B65000FCF738FC70B30098811C00220AE000BFA0
:10B6600001EA060C59F8223004EB8C0C491C521CE0
:10B67000CCF80C30BA42F3D30246401C304004EB05
:10B6800080002B0CC36002EA060004EB8002E8068F
:10B6900052F80C0F02D540F0040001E020F0040045
:10B6A00065F3C50067F3891068F39F2020F003005D
:10B6B000401C106094F81C0402E000BFFEF7B0FDCF
:10B6C0000028FBD1BDE8F883CC3800202DE9F84FE5
:10B6D0001D4C00256846D4E901A6FCF709FE0027A9
:10B6E00038B30023009A61681CE0D1F800C0084616
:10B6F000944503D9ACEB02020A6015E0A2EB0C0200
:10B7000063440760D0F80CC0C1698146BCF1000FEA
:10B7100008D006EB030828F07F48C0E9018CC9F87F
:10B720001C5005460029E0D128466160FDF728F845
:10B7300003E02846FDF724F810B15046FCF772FCF0
:10B74000E770BDE8F88F0000642D00200D4B10B5A8
:10B75000596831B102680C68A24204D8A21A0A6082
:10B76000C161586010BD0B4603E00B46C969121B4E
:10B7700021B10C689442F8D3A41A0C600260C16134
:10B78000D86110BD642D00202DE9F041144E77687A
:10B790003D462C4603E0844204D02546E469002C53
:10B7A000F9D11BE0D4B1A5420BD1F869706040B962
:10B7B0000C49012088600021B160F0702F20FDF756
:10B7C00027FC2168E069E86110B10268114401605A
:10B7D0007068874202D00120BDE8F0810020FBE7BD
:10B7E000642D0020001001407CB5064600240D4663
:10B7F0008DF800406846FBF791FC01A800F01AFCA8
:10B8000070B10570094946609DF8040048709DF8C4
:10B810000000FBF7A7FC1420FAF7D8FA20467CBDFD
:10B8200004249DF80000FBF79DFCF7E7C8360020D4
:10B830002DE9F041194D6C68002C2CD018480027D8
:10B840000068A968B846401A20F07F462068B042D8
:10B850000CD82146361A0744E469087C20B181F8E7
:10B860001080886949698847002CEFD12978687869
:10B87000814206D1401CC0B26870022801D185F80F
:10B880000180064869780C3040F82170BDE8F0412D
:10B890001420FAF79BBABDE8F0810000642D002067
:10B8A0000415014038B5044640F20C602168890057
:10B8B00001F1A041C1F800076168890001F1A041D0
:10B8C000C1F800072068FEF75AFC6068FEF757FCD5
:10B8D000216840F20D60890001F1A041C1F8000724
:10B8E0006168890001F1A041C1F800070420FDF75B
:10B8F00049FB0025606800906846FEF70FFCD0F811
:10B9000010050099C84010F0010F02D0002D1AD088
:10B910000EE02068FEF7B6FB0420FDF733FB20683D
:10B92000FEF72DFC0420FDF72DFB6D1C092DE1DB3E
:10B930006068FEF7A7FB0420FDF724FB6068BDE804
:10B940003840FEF71CBC38BD30B52DED028B91B0F0
:10B950000178002947D10079254D012841D105F111
:10B960002C046078217800EB012080B2F9F74AFFBF
:10B970009FED208B53EC182BF9F7D5FE9FED1F1B85
:10B9800053EC112BF9F75DFE9FED1E1B53EC112BB1
:10B99000F9F7B0FDF9F76FFF00EE100A85ED070A21
:10B9A0002079E17800EB012080B2F9F72BFF53EC0E
:10B9B000182BF9F7B8FE9FED151B53EC112BF9F777
:10B9C00040FEF9F758FF00EE100A402185ED080A05
:10B9D0006846F9F765FD6846FAF790FC002020609C
:10B9E000A0800120687011B0BDEC028B30BD00005A
:10B9F000182A002000000000E0FFEF4000000000D7
:10BA000000E0654000000000008046C0000000002B
:10BA1000000059401FB5094B0FCB8DE80F000748B8
:10BA20000023074A69463438FDF7CCFF08B1FBF71D
:10BA30001FFA02483438FDF7B5FF1FBDA0C0020051
:10BA400049B902002DE9F05F06461F4615460C462F
:10BA50004FF0000A4FF0080B4FF482795068FDF761
:10BA60006BFC00287ED04FF0FF30C4F8080396F836
:10BA7000240028B1B068C4F804031120BDE8F09F89
:10BA8000780703D4F80601D4012000E0002086F8EE
:10BA9000240095E8070006F10C0383E80700C7F3CC
:10BAA000001086F825006878C4F888054FF4827184
:10BAB0002046FFF780F84FF492712046FFF77BF89D
:10BAC000F8074FF0010800D04046C4F85005B80709
:10BAD00001D5404600E00020C4F840052878002841
:10BAE0006CD001287DD002284ED0032814D04FF00E
:10BAF000070A380704D42878032801D044F80B80BB
:10BB0000306800286ED0780702D54FF40070B0601E
:10BB1000B068C4F80403ACE0A868FDF70DFC08B3F6
:10BB20004FF48070C4F80002A8786968C4F844151E
:10BB3000C4F848054FF4A8712046FFF73CF84FF4CD
:10BB4000B0712046FFF737F84FF4A4712046FFF795
:10BB500032F8C4F82080C4F8088000BF4FF4A87100
:10BB6000204600E028E0FFF721F80028F6D04FF447
:10BB7000A8712046FFF71FF8E878A968C4F84415B3
:10BB8000C4F848053C4815E0A8786968C4F844152D
:10BB9000C4F84805A868FDF7CFFB68B1E878A96844
:10BBA000C4F83415C4F838054FF48450C4F80002C2
:10BBB00040F20220B0609CE710205FE7A878696837
:10BBC000C4F84415C4F84805B8060FD54FF4807082
:10BBD000C4F800022848B0604FF4A47949462046D2
:10BBE00001E00CE01BE0FEF7E6FF05E04FF400701B
:10BBF000C4F80002801CB060C4F8208079E7A878FF
:10BC00006968C4F83415C4F838054FF48050C4F896
:10BC1000000240F20220B0604FF0000BECE7474614
:10BC20004FF482754FF492780BE041462046FEF7C0
:10BC3000BDFF30B141462046FEF7BDFF2762676178
:10BC4000A94649462046FEF7B1FF0028EDD0D4F8BA
:10BC5000C404C4F8C404002186F8241048B10321A8
:10BC6000820701D548F20121400701D548F202219F
:10BC70008A46504602E700000002040070B50C46F8
:10BC800005464FF48E71FEF7A1FFA18AA068415CC2
:10BC9000A08A401CA082C5F81C1570BD1FB50022EB
:10BCA0008DF800208DF80810816801918275D0E927
:10BCB0000012684690471FBD70B50278044652B125
:10BCC00015480121012A008801EB00401CD0022AFE
:10BCD00019D112A119E01E4C1E4D20462178C088B2
:10BCE00019B105F54671084400E02844FBF784F9D2
:10BCF000E088401C80B2E080284410F8010C0A283B
:10BD000001D10020E08070BD13A1FEF7DBFB60686D
:10BD1000FBF7AEF8FAF776F83C2E0020436F6D6D16
:10BD2000756E69636174696F6E206572726F7220DF
:10BD30006F63637572726564207768696C652068EB
:10BD4000616E646C696E6720554152542E0000008C
:10BD5000182A00206C2E00204572726F72206F63CB
:10BD600063757272656420696E204649464F206D86
:10BD70006F64756C65207573656420627920554128
:10BD800052542E007CB50178244D81B301290BD08B
:10BD900002292BD18DF80010C068691C0190012286
:10BDA000C81DFDF7F5FE2EE0406801781C48FBF742
:10BDB00085F81B4C012618B18DF80060019006E053
:10BDC000A068E168814205D000208DF80000696814
:10BDD00068468847A068E168081AA188884207D8A1
:10BDE0000E490122491CC81DFDF7D2FE7CBD01E0B1
:10BDF000AE70FBE70A4809491030FBF744F830B150
:10BE000003208DF80000696868468847EEE703491B
:10BE1000012201F10800FDF7D7FFE7E7782D0020A8
:10BE2000D43700202DE9FF470C4605464FF400713A
:10BE3000FEF7D2FE01274FF40178002618B34FF425
:10BE4000927949462846FEF7BCFEE0B149462846AD
:10BE5000FEF7BCFEC5F80883A07E00B96F60022023
:10BE60008DF80000D5F88004C5F880040390E07DCB
:10BE70008DF80800E0680190E6752676D4E9001296
:10BE80006846904727E004212846FEF7A5FE10B338
:10BE90004FF484712846FEF794FEE0B1214628460F
:10BEA000FFF762F9E07D617E884214D1207E38B1CF
:10BEB000617EE268E0752069E0602676667607E0DC
:10BEC000A07E00B96F60C5F80883E675617EE26800
:10BED0002046FFF762F94FF48E7841462846FEF778
:10BEE00070FE88B1A08AA17D884204D221462846EE
:10BEF000FFF7C4FE08E041462846FEF767FEA17D35
:10BF000011B12046FFF7CAFE4FF4A27841462846F9
:10BF1000FEF757FE002812D041462846FEF756FE8F
:10BF2000A07E00B12F60E07D002808D0E675617E1C
:10BF3000E26804B02046BDE8F047FFF72EB9BDE83F
:10BF4000FF872DE9FF410C464FF4927705463946AD
:10BF5000FEF748FE0026C0B139462846FEF747FEE8
:10BF600002208DF80000D5F88004C5F88004039005
:10BF7000D5F83C058DF80800E0680190E675267656
:10BF8000D4E900126846904724E04FF48877394698
:10BF90002846FEF727FEE8B139462846FEF727FE79
:10BFA000D5F83C05C1B2E07D884213D1207E60B156
:10BFB000E268D5F8000220F02000C5F80002207EDB
:10BFC000E0752069E060267601E0E675E2682046CB
:10BFD000FFF7E3F84FF4A27739462846FEF702FE52
:10BFE00068B139462846FEF702FEE07D38B1E675B5
:10BFF000D5F83C05E268C1B22046FFF7CEF84FF411
:10C00000907631462846FEF7EDFD00280FD03146E8
:10C010002846FEF7ECFDA07D002808D0D5F84C0599
:10C0200004B0C1B22046BDE8F041FFF737BEBDE81D
:10C03000FF8100000A494A788B78521CD2B29342A1
:10C0400000D100220B78934201D10020704702708A
:10C05000487800EB400001EBC000001D7047000075
:10C06000C8360020FF070700000000000030004035
:10C0700000010000004000400400010000400240B8
:10C0800024000400FFFFFFFF07FF00000000004046
:10C09000000000000000000002000001000000009D
:10C0A000190000001A0000000000980102010000C1
:10C0B00014000000290000002200000026000000FB
:10C0C0000100000000E0D7010D0E2A14170C18190A
:10C0D0000C3200202C3200205832002017000300C0
:10C0E000517B02000C000300517B0200180003008A
:10C0F000517B020019000300517B02000100000087
:10C10000000000000000000000000000000000002F
:10C11000000000000000000000000000000000001F
:10C12000000000000000000000000000000000000F
:10C1300000000000000000000000000000000000FF
:10C1400000000000000000000000000000000000EF
:10C1500000000000000000000000000000000000DF
:10C1600000000000000000000000000000000000CF
:10C170000000000000000000770A0000000000003E
:10C18000770A0000000000007ADA000000000000DA
:10C190009ECADC240EE5A9E093F3A3B50000406E2F
:10C1A0000101000000000200000000000201000088
:10C1B00000000000000000000000005000030050DC
:10C1C0000100000000000000000000000100070165
:10C1D000A836002003000000FFFFFFFFFFFFFFFF66
:10C1E000FFFFFFFFFFFFFFFF000000000000000057
:10C1F0000000D60107010000000000000000000060
:10C2000004CB020008CB0200000000000000000088
:10C21000F8C1020010C2020004000000556E6B6EEF
:10C220006F776E206572726F7220636F64650000B5
:10C2300000000000E0C7020001000000A0C60200EC
:10C240000200000020C502000300000014C7020025
:10C250000400000068C702000500000060C602007C
:10C260000600000000C602000700000050C70200E0
:10C270000800000074C6020009000000C0C60200E9
:10C280000A000000C8C702000B00000008C5020039
:10C290000C0000008CC602000D000000ECC702007C
:10C2A0000E00000040C702000F0000007CC7020023
:10C2B00010000000B0C702001100000000C802001A
:10C2C0008000000040C6020081000000C4C50200DA
:10C2D0008200000084C502008300000064C50200E3
:10C2E00084000000A0C502008500000018C60200FE
:10C2F0008600000028C7020090000000E0C5020090
:10C300009100000044C502000082000090C70200B6
:10C3100001820000DCC6020002820000F8C60200B2
:10C320009C2D0020942D00209C2D00200C380020F6
:10C3300018000000000000000000000008CB020010
:10C3400020CB020020CB020028CB020028CB020029
:10C3500030CB0200182A002034C3020054C302006C
:10C360000800000030CB020038CB020000000000C3
:10C370000000000064C3020074C302000800000053
:10C3800000000000000000000000000000000000AD
:10C390000100000780C3020090C3020008000000F3
:10C3A000B8C30200C8C3020008000000C8C30200EE
:10C3B000D8C302000800000048CB020050CB0200A6
:10C3C000000000000000000038CB020048CB020053
:10C3D000000000000000000073645F626C655F672E
:10C3E000617474635F65786368616E67655F6D74BF
:10C3F000755F72657175657374282920726574752F
:10C40000726E656420756E6578706563746564200E
:10C4100076616C756520307825782E0073645F62D4
:10C420006C655F67617474735F65786368616E677C
:10C43000655F6D74755F7265706C7928292072650F
:10C440007475726E656420756E6578706563746569
:10C45000642076616C756520307825782E000000A8
:10C4600073645F626C655F6761705F646174615F74
:10C470006C656E6774685F757064617465282920E7
:10C48000287265706C79292072657475726E6564A6
:10C4900020756E65787065637465642076616C756F
:10C4A0006520307825782E0073645F626C655F6765
:10C4B00061705F646174615F6C656E6774685F75FD
:10C4C00070646174652829202872657175657374BC
:10C4D00029206F6E20636F6E6E656374696F6E20C6
:10C4E000307825782072657475726E656420756E7B
:10C4F00065787065637465642076616C756520305D
:10C500007825782E000000004E52465F4552524F6B
:10C51000525F494E56414C49445F444154410000EA
:10C520004E52465F4552524F525F534F4654444518
:10C53000564943455F4E4F545F454E41424C45443A
:10C54000000000004E52465F4552524F525F464532
:10C5500041545552455F4E4F545F454E41424C4504
:10C56000440000004E52465F4552524F525F4D55B7
:10C570005445585F554E4C4F434B5F4641494C45DF
:10C58000440000004E52465F4552524F525F4D5597
:10C590005445585F4C4F434B5F4641494C4544001E
:10C5A0004E52465F4552524F525F4D555445585F6B
:10C5B000434F4E445F494E49545F4641494C4544C0
:10C5C000000000004E52465F4552524F525F4D559B
:10C5D0005445585F494E49545F4641494C454400D3
:10C5E0004E52465F4552524F525F4150495F4E4F47
:10C5F000545F494D504C454D454E54454400000054
:10C600004E52465F4552524F525F4E4F545F535504
:10C6100050504F52544544004E52465F4552524F7F
:10C62000525F4D4F44554C455F414C524541445932
:10C630005F494E495449414C495A45440000000065
:10C640004E52465F4552524F525F4D4F44554C45F6
:10C650005F4E4F545F494E495449414C5A4544003E
:10C660004E52465F4552524F525F4E4F545F464FB7
:10C67000554E44004E52465F4552524F525F494E0E
:10C6800056414C49445F5354415445004E52465F15
:10C690004552524F525F444154415F53495A4500FD
:10C6A0004E52465F4552524F525F5356435F484188
:10C6B0004E444C45525F4D495353494E470000008C
:10C6C0004E52465F4552524F525F494E56414C4979
:10C6D000445F4C454E475448000000004E52465FB0
:10C6E0004552524F525F4452565F5457495F45522C
:10C6F000525F414E41434B004E52465F4552524FAE
:10C70000525F4452565F5457495F4552525F444E00
:10C7100041434B004E52465F4552524F525F494E85
:10C720005445524E414C00004E52465F4552524FC6
:10C73000525F53544F524147455F46554C4C0000A1
:10C740004E52465F4552524F525F4E554C4C000080
:10C750004E52465F4552524F525F494E56414C49E8
:10C76000445F504152414D004E52465F4552524F38
:10C77000525F4E4F5F4D454D000000004E52465FE8
:10C780004552524F525F464F5242494444454E0033
:10C790004E52465F4552524F525F4452565F545775
:10C7A000495F4552525F4F56455252554E00000068
:10C7B0004E52465F4552524F525F494E56414C4988
:10C7C000445F4144445200004E52465F4552524F2E
:10C7D000525F494E56414C49445F464C41475300D5
:10C7E0004E52465F53554343455353004E52465FA6
:10C7F0004552524F525F54494D454F555400000029
:10C800004E52465F4552524F525F425553590000B7
:10C8100073645F626C655F6366675F736574282924
:10C820002072657475726E65642025732077686563
:10C830006E20617474656D7074696E6720746F200A
:10C8400073657420424C455F47415454535F4346DF
:10C85000475F534552564943455F4348414E47451C
:10C86000442E000073645F626C655F6366675F738C
:10C87000657428292072657475726E65642025734D
:10C88000207768656E20617474656D7074696E6779
:10C8900020746F2073657420424C455F434F4D4DAB
:10C8A0004F4E5F4346475F56535F555549442E00F0
:10C8B00073645F626C655F6366675F736574282984
:10C8C0002072657475726E656420257320776865C3
:10C8D0006E20617474656D7074696E6720746F206A
:10C8E00073657420424C455F47415454535F43463F
:10C8F000475F415454525F5441425F53495A452E59
:10C900000000000073645F626C655F6366675F735D
:10C91000657428292072657475726E6564202573AC
:10C92000207768656E20617474656D7074696E67D8
:10C9300020746F2073657420424C455F434F4E4E08
:10C940005F4346475F4741502E00000073645F62BB
:10C950006C655F6366675F73657428292072657410
:10C9600075726E6564202573207768656E2061742A
:10C9700074656D7074696E6720746F2073657420C0
:10C98000424C455F4741505F4346475F524F4C45DD
:10C990005F434F554E542E0073645F626C655F6356
:10C9A00066675F73657428292072657475726E6599
:10C9B00064202573207768656E20617474656D70DE
:10C9C00074696E6720746F2073657420424C455FF4
:10C9D000434F4E4E5F4346475F474154542E00003D
:10C9E000626C655F64625F6469736300626C655F5B
:10C9F0006761747400000000626C655F6E7573009F
:10CA0000636C6F636B0000006770696F7465000092
:10CA100075617274000000007274630074776900BD
:10CA200073616164630000007370690062616C6C23
:10CA30006F6300007077725F6D676D7400000000B7
:10CA4000617070006E72665F7364685F626C65002F
:10CA50006E72665F7364685F736F63006E72665FA9
:10CA60007364680050CB0200182A002054040000B0
:10CA7000A05B020078CB02006C2E0020842E000008
:10CA800038640200E0C9020000000300ECC90200A3
:10CA900000000300F8C902000000030000CA020001
:10CAA0000000000008CA02000000000010CA0200D6
:10CAB0000000000018CA0200000000001CCA0200AA
:10CAC0000000000020CA02000000000028CA020086
:10CAD000000000002CCA02000000000034CA02005E
:10CAE0000000000040CA02000000030044CA020027
:10CAF0000000030050CA0200000003005CCA0200EC
:10CB0000000003006DB30200918D0200703100201F
:10CB10009D7202004A2A0020857602000000000073
:10CB200025780200603100205573020000000000EB
:10CB300071B4020000000000FDA902000000000026
:10CB4000CDAA020000000000BDB2020000000000FB
:10CB50004201421409FF1060106510FF106001FFD0
:10CB600001F10867FFFF0004500050042620004038
:08CB700004C190D00300000095
:0400000500025201A2
:00000001FF
