Component: ARM Compiler 5.06 update 5 (build 528) Tool: armlink [4d35e2]

==============================================================================

Section Cross References

    main.o(i.advertising_init) refers to memseta.o(.text) for __aeabi_memclr4
    main.o(i.advertising_init) refers to ble_advertising.o(i.ble_advertising_init) for ble_advertising_init
    main.o(i.advertising_init) refers to app_error.o(i.app_error_handler_bare) for app_error_handler_bare
    main.o(i.advertising_init) refers to ble_advertising.o(i.ble_advertising_conn_cfg_tag_set) for ble_advertising_conn_cfg_tag_set
    main.o(i.advertising_init) refers to main.o(.data) for m_adv_uuids
    main.o(i.advertising_init) refers to main.o(i.on_adv_evt) for on_adv_evt
    main.o(i.advertising_init) refers to main.o(.bss) for m_advertising
    main.o(i.advertising_start) refers to ble_advertising.o(i.ble_advertising_start) for ble_advertising_start
    main.o(i.advertising_start) refers to app_error.o(i.app_error_handler_bare) for app_error_handler_bare
    main.o(i.advertising_start) refers to main.o(.bss) for m_advertising
    main.o(i.assert_nrf_callback) refers to app_error_handler_keil.o(.emb_text) for app_error_handler
    main.o(i.ble_evt_handler) refers to nrf_log_frontend.o(i.nrf_log_frontend_std_0) for nrf_log_frontend_std_0
    main.o(i.ble_evt_handler) refers to bsp.o(i.bsp_indication_set) for bsp_indication_set
    main.o(i.ble_evt_handler) refers to app_error.o(i.app_error_handler_bare) for app_error_handler_bare
    main.o(i.ble_evt_handler) refers to nrf_ble_qwr.o(i.nrf_ble_qwr_conn_handle_assign) for nrf_ble_qwr_conn_handle_assign
    main.o(i.ble_evt_handler) refers to nrf_log_frontend.o(log_dynamic_data) for m_nrf_log_app_logs_data_dynamic
    main.o(i.ble_evt_handler) refers to main.o(.data) for m_conn_handle
    main.o(i.ble_evt_handler) refers to main.o(.bss) for m_qwr
==============================================================================

Removing Unused input sections from the image.

    Removing main.o(.rev16_text), (4 bytes).
    Removing main.o(.revsh_text), (4 bytes).
    Removing main.o(.rrx_text), (6 bytes).
    Removing main.o(i.assert_nrf_callback), (24 bytes).
    Removing boards.o(.rev16_text), (4 bytes).
    Removing boards.o(.revsh_text), (4 bytes).
    Removing boards.o(.rrx_text), (6 bytes).
    Removing boards.o(i.bsp_board_led_idx_to_pin), (12 bytes).
    Removing boards.o(i.bsp_board_pin_to_led_idx), (36 bytes).
    Removing bsp.o(.rev16_text), (4 bytes).
    Removing bsp.o(.revsh_text), (4 bytes).
    Removing bsp.o(.rrx_text), (6 bytes).
    Removing bsp.o(i.bsp_buttons_disable), (8 bytes).
    Removing bsp.o(i.bsp_buttons_enable), (8 bytes).
    Removing bsp.o(i.bsp_wakeup_button_disable), (14 bytes).
    Removing bsp_btn_ble.o(.rev16_text), (4 bytes).
    Removing bsp_btn_ble.o(.revsh_text), (4 bytes).
    Removing bsp_btn_ble.o(.rrx_text), (6 bytes).
==============================================================================

Image Symbol Table

    Local Symbols

    Symbol Name                              Value     Ov Type        Size  Object(Section)

    ../clib/../cmprslib/zerorunl.c           0x00000000   Number         0  __dczerorl.o ABSOLUTE
    ../clib/microlib/ctype/ctype.c           0x00000000   Number         0  isalnum_o.o ABSOLUTE
    ../clib/microlib/ctype/ctype.c           0x00000000   Number         0  isxdigit_o.o ABSOLUTE
    ../clib/microlib/ctype/ctype.c           0x00000000   Number         0  isupper_o.o ABSOLUTE
    ../clib/microlib/ctype/ctype.c           0x00000000   Number         0  isspace_o.o ABSOLUTE
    ../clib/microlib/ctype/ctype.c           0x00000000   Number         0  isprint_o.o ABSOLUTE
    ../clib/microlib/ctype/ctype.c           0x00000000   Number         0  islower_o.o ABSOLUTE
    ../clib/microlib/ctype/ctype.c           0x00000000   Number         0  isgraph_o.o ABSOLUTE
    ../clib/microlib/ctype/ctype.c           0x00000000   Number         0  isdigit_o.o ABSOLUTE
    ../clib/microlib/ctype/ctype.c           0x00000000   Number         0  ispunct_o.o ABSOLUTE
    ../clib/microlib/ctype/ctype.c           0x00000000   Number         0  iscntrl_o.o ABSOLUTE
    ../clib/microlib/ctype/ctype.c           0x00000000   Number         0  isblank_o.o ABSOLUTE
    ../clib/microlib/ctype/ctype.c           0x00000000   Number         0  isalpha_o.o ABSOLUTE
    ../clib/microlib/ctype/ctype.c           0x00000000   Number         0  ctype_o.o ABSOLUTE
    ../clib/microlib/division.c              0x00000000   Number         0  uldiv.o ABSOLUTE
    ../clib/microlib/division.c              0x00000000   Number         0  uidiv.o ABSOLUTE
    ../clib/microlib/init/entry.s            0x00000000   Number         0  entry10a.o ABSOLUTE
    ../clib/microlib/init/entry.s            0x00000000   Number         0  entry10b.o ABSOLUTE
    ../clib/microlib/init/entry.s            0x00000000   Number         0  entry11b.o ABSOLUTE
    ../clib/microlib/init/entry.s            0x00000000   Number         0  entry2.o ABSOLUTE
    ../clib/microlib/init/entry.s            0x00000000   Number         0  entry5.o ABSOLUTE
    ../clib/microlib/init/entry.s            0x00000000   Number         0  entry11a.o ABSOLUTE
    ../clib/microlib/init/entry.s            0x00000000   Number         0  entry7a.o ABSOLUTE
    ../clib/microlib/init/entry.s            0x00000000   Number         0  entry7b.o ABSOLUTE
    ../clib/microlib/init/entry.s            0x00000000   Number         0  entry8a.o ABSOLUTE
    ../clib/microlib/init/entry.s            0x00000000   Number         0  entry8b.o ABSOLUTE
    ../clib/microlib/init/entry.s            0x00000000   Number         0  entry.o ABSOLUTE
    ../clib/microlib/init/entry.s            0x00000000   Number         0  entry9a.o ABSOLUTE
    ../clib/microlib/init/entry.s            0x00000000   Number         0  entry9b.o ABSOLUTE
    ../clib/microlib/longlong.c              0x00000000   Number         0  llshl.o ABSOLUTE
    ../clib/microlib/longlong.c              0x00000000   Number         0  llushr.o ABSOLUTE
    ../clib/microlib/longlong.c              0x00000000   Number         0  llsshr.o ABSOLUTE
    ../clib/microlib/printf/printf.c         0x00000000   Number         0  printf5.o ABSOLUTE
    ../clib/microlib/printf/printf.c         0x00000000   Number         0  printf2.o ABSOLUTE
    ../clib/microlib/printf/printf.c         0x00000000   Number         0  printf1.o ABSOLUTE
    ../clib/microlib/printf/printf.c         0x00000000   Number         0  printf0.o ABSOLUTE
    ../clib/microlib/printf/printf.c         0x00000000   Number         0  printf6.o ABSOLUTE
    ../clib/microlib/printf/printf.c         0x00000000   Number         0  printf7.o ABSOLUTE
    ../clib/microlib/printf/printf.c         0x00000000   Number         0  printf8.o ABSOLUTE
    ../clib/microlib/printf/printf.c         0x00000000   Number         0  printfb.o ABSOLUTE
    ../clib/microlib/printf/printf.c         0x00000000   Number         0  printfa.o ABSOLUTE
    ../clib/microlib/printf/printf.c         0x00000000   Number         0  printf3.o ABSOLUTE
    ../clib/microlib/printf/printf.c         0x00000000   Number         0  printf4.o ABSOLUTE
    ../clib/microlib/string/memcmp.c         0x00000000   Number         0  memcmp.o ABSOLUTE
    ../clib/microlib/string/memcpy.c         0x00000000   Number         0  memcpyb.o ABSOLUTE
    ../clib/microlib/string/memcpy.c         0x00000000   Number         0  memcpya.o ABSOLUTE
    ../clib/microlib/string/memset.c         0x00000000   Number         0  memseta.o ABSOLUTE
    ../clib/microlib/string/strcpy.c         0x00000000   Number         0  strcpy.o ABSOLUTE
    ../clib/microlib/string/strlen.c         0x00000000   Number         0  strlen.o ABSOLUTE
    ../clib/microlib/stubs.s                 0x00000000   Number         0  iusefp.o ABSOLUTE
    ../fplib/microlib/fpadd.c                0x00000000   Number         0  dadd.o ABSOLUTE
    ../fplib/microlib/fpdiv.c                0x00000000   Number         0  ddiv.o ABSOLUTE
    ../fplib/microlib/fpepilogue.c           0x00000000   Number         0  depilogue.o ABSOLUTE
    ../fplib/microlib/fpfix.c                0x00000000   Number         0  dfixul.o ABSOLUTE
    ../fplib/microlib/fpmul.c                0x00000000   Number         0  dmul.o ABSOLUTE
    ..\..\..\..\..\..\components\ble\ble_advertising\ble_advertising.c 0x00000000   Number         0  ble_advertising.o ABSOLUTE
    ..\..\..\..\..\..\components\ble\ble_link_ctx_manager\ble_link_ctx_manager.c 0x00000000   Number         0  ble_link_ctx_manager.o ABSOLUTE
    ..\..\..\..\..\..\components\ble\ble_services\ble_nus\ble_nus.c 0x00000000   Number         0  ble_nus.o ABSOLUTE
    ..\..\..\..\..\..\components\ble\common\ble_advdata.c 0x00000000   Number         0  ble_advdata.o ABSOLUTE
    ..\..\..\..\..\..\components\ble\common\ble_conn_params.c 0x00000000   Number         0  ble_conn_params.o ABSOLUTE
    ..\..\..\..\..\..\components\ble\common\ble_conn_state.c 0x00000000   Number         0  ble_conn_state.o ABSOLUTE
    ..\..\..\..\..\..\components\ble\common\ble_srv_common.c 0x00000000   Number         0  ble_srv_common.o ABSOLUTE
    ..\..\..\..\..\..\components\ble\nrf_ble_gatt\nrf_ble_gatt.c 0x00000000   Number         0  nrf_ble_gatt.o ABSOLUTE
    ..\..\..\..\..\..\components\ble\nrf_ble_qwr\nrf_ble_qwr.c 0x00000000   Number         0  nrf_ble_qwr.o ABSOLUTE
    ..\..\..\..\..\..\components\boards\boards.c 0x00000000   Number         0  boards.o ABSOLUTE
    ..\..\..\..\..\..\components\libraries\atomic\nrf_atomic.c 0x00000000   Number         0  nrf_atomic.o ABSOLUTE
    ..\..\..\..\..\..\components\libraries\atomic_fifo\nrf_atfifo.c 0x00000000   Number         0  nrf_atfifo.o ABSOLUTE
    ..\..\..\..\..\..\components\libraries\atomic_flags\nrf_atflags.c 0x00000000   Number         0  nrf_atflags.o ABSOLUTE
    ..\..\..\..\..\..\components\libraries\balloc\nrf_balloc.c 0x00000000   Number         0  nrf_balloc.o ABSOLUTE
    ..\..\..\..\..\..\components\libraries\bsp\bsp.c 0x00000000   Number         0  bsp.o ABSOLUTE
    ..\..\..\..\..\..\components\libraries\bsp\bsp_btn_ble.c 0x00000000   Number         0  bsp_btn_ble.o ABSOLUTE
    ..\..\..\..\..\..\components\libraries\button\app_button.c 0x00000000   Number         0  app_button.o ABSOLUTE
    ..\..\..\..\..\..\components\libraries\experimental_log\src\nrf_log_backend_rtt.c 0x00000000   Number         0  nrf_log_backend_rtt.o ABSOLUTE
    ..\..\..\..\..\..\components\libraries\experimental_log\src\nrf_log_backend_serial.c 0x00000000   Number         0  nrf_log_backend_serial.o ABSOLUTE
    ..\..\..\..\..\..\components\libraries\experimental_log\src\nrf_log_default_backends.c 0x00000000   Number         0  nrf_log_default_backends.o ABSOLUTE
    ..\..\..\..\..\..\components\libraries\experimental_log\src\nrf_log_frontend.c 0x00000000   Number         0  nrf_log_frontend.o ABSOLUTE
    ..\..\..\..\..\..\components\libraries\experimental_log\src\nrf_log_str_formatter.c 0x00000000   Number         0  nrf_log_str_formatter.o ABSOLUTE
    ..\..\..\..\..\..\components\libraries\experimental_memobj\nrf_memobj.c 0x00000000   Number         0  nrf_memobj.o ABSOLUTE
    ..\..\..\..\..\..\components\libraries\experimental_section_vars\nrf_section_iter.c 0x00000000   Number         0  nrf_section_iter.o ABSOLUTE
    ..\..\..\..\..\..\components\libraries\fifo\app_fifo.c 0x00000000   Number         0  app_fifo.o ABSOLUTE
    ..\..\..\..\..\..\components\libraries\fstorage\nrf_fstorage.c 0x00000000   Number         0  nrf_fstorage.o ABSOLUTE
    ..\..\..\..\..\..\components\libraries\fstorage\nrf_fstorage_sd.c 0x00000000   Number         0  nrf_fstorage_sd.o ABSOLUTE
    ..\..\..\..\..\..\components\libraries\hardfault\hardfault_implementation.c 0x00000000   Number         0  hardfault_implementation.o ABSOLUTE
    ..\..\..\..\..\..\components\libraries\pwr_mgmt\nrf_pwr_mgmt.c 0x00000000   Number         0  nrf_pwr_mgmt.o ABSOLUTE
    ..\..\..\..\..\..\components\libraries\scheduler\app_scheduler.c 0x00000000   Number         0  app_scheduler.o ABSOLUTE
    ..\..\..\..\..\..\components\libraries\strerror\nrf_strerror.c 0x00000000   Number         0  nrf_strerror.o ABSOLUTE
    ..\..\..\..\..\..\components\libraries\timer\app_timer.c 0x00000000   Number         0  app_timer.o ABSOLUTE
    ..\..\..\..\..\..\components\libraries\uart\app_uart_fifo.c 0x00000000   Number         0  app_uart_fifo.o ABSOLUTE
    ..\..\..\..\..\..\components\libraries\uart\retarget.c 0x00000000   Number         0  retarget.o ABSOLUTE
    ..\..\..\..\..\..\components\libraries\util\app_error.c 0x00000000   Number         0  app_error.o ABSOLUTE
    ..\..\..\..\..\..\components\libraries\util\app_error_handler_keil.c 0x00000000   Number         0  app_error_handler_keil.o ABSOLUTE
    ..\..\..\..\..\..\components\libraries\util\app_error_weak.c 0x00000000   Number         0  app_error_weak.o ABSOLUTE
    ..\..\..\..\..\..\components\libraries\util\app_util_platform.c 0x00000000   Number         0  app_util_platform.o ABSOLUTE
    ..\..\..\..\..\..\components\libraries\util\nrf_assert.c 0x00000000   Number         0  nrf_assert.o ABSOLUTE
    ..\..\..\..\..\..\components\softdevice\common\nrf_sdh.c 0x00000000   Number         0  nrf_sdh.o ABSOLUTE
    ..\..\..\..\..\..\components\softdevice\common\nrf_sdh_ble.c 0x00000000   Number         0  nrf_sdh_ble.o ABSOLUTE
    ..\..\..\..\..\..\components\softdevice\common\nrf_sdh_soc.c 0x00000000   Number         0  nrf_sdh_soc.o ABSOLUTE
    ..\..\..\..\..\..\external\fprintf\nrf_fprintf.c 0x00000000   Number         0  nrf_fprintf.o ABSOLUTE
    ..\..\..\..\..\..\external\fprintf\nrf_fprintf_format.c 0x00000000   Number         0  nrf_fprintf_format.o ABSOLUTE
    ..\..\..\..\..\..\external\segger_rtt\SEGGER_RTT.c 0x00000000   Number         0  segger_rtt.o ABSOLUTE
    ..\..\..\..\..\..\external\segger_rtt\SEGGER_RTT_Syscalls_KEIL.c 0x00000000   Number         0  segger_rtt_syscalls_keil.o ABSOLUTE
    ..\..\..\..\..\..\external\segger_rtt\SEGGER_RTT_printf.c 0x00000000   Number         0  segger_rtt_printf.o ABSOLUTE
    ..\..\..\..\..\..\integration\nrfx\legacy\nrf_drv_clock.c 0x00000000   Number         0  nrf_drv_clock.o ABSOLUTE
    ..\..\..\..\..\..\integration\nrfx\legacy\nrf_drv_uart.c 0x00000000   Number         0  nrf_drv_uart.o ABSOLUTE
    ..\..\..\..\..\..\modules\nrfx\drivers\src\nrfx_clock.c 0x00000000   Number         0  nrfx_clock.o ABSOLUTE
    ..\..\..\..\..\..\modules\nrfx\drivers\src\nrfx_gpiote.c 0x00000000   Number         0  nrfx_gpiote.o ABSOLUTE
    ..\..\..\..\..\..\modules\nrfx\drivers\src\nrfx_power_clock.c 0x00000000   Number         0  nrfx_power_clock.o ABSOLUTE
    ..\..\..\..\..\..\modules\nrfx\drivers\src\nrfx_uart.c 0x00000000   Number         0  nrfx_uart.o ABSOLUTE
    ..\..\..\..\..\..\modules\nrfx\drivers\src\nrfx_uarte.c 0x00000000   Number         0  nrfx_uarte.o ABSOLUTE
    ..\..\..\..\..\..\modules\nrfx\drivers\src\prs\nrfx_prs.c 0x00000000   Number         0  nrfx_prs.o ABSOLUTE
    ..\..\..\main.c                          0x00000000   Number         0  main.o ABSOLUTE
    ..\\..\\..\\..\\..\\..\\components\\ble\\ble_advertising\\ble_advertising.c 0x00000000   Number         0  ble_advertising.o ABSOLUTE
    ..\\..\\..\\..\\..\\..\\components\\ble\\ble_link_ctx_manager\\ble_link_ctx_manager.c 0x00000000   Number         0  ble_link_ctx_manager.o ABSOLUTE
    ..\\..\\..\\..\\..\\..\\components\\ble\\ble_services\\ble_nus\\ble_nus.c 0x00000000   Number         0  ble_nus.o ABSOLUTE
    ..\\..\\..\\..\\..\\..\\components\\ble\\common\\ble_advdata.c 0x00000000   Number         0  ble_advdata.o ABSOLUTE
    ..\\..\\..\\..\\..\\..\\components\\ble\\common\\ble_conn_params.c 0x00000000   Number         0  ble_conn_params.o ABSOLUTE
    ..\\..\\..\\..\\..\\..\\components\\ble\\common\\ble_conn_state.c 0x00000000   Number         0  ble_conn_state.o ABSOLUTE
    ..\\..\\..\\..\\..\\..\\components\\ble\\common\\ble_srv_common.c 0x00000000   Number         0  ble_srv_common.o ABSOLUTE
    ..\\..\\..\\..\\..\\..\\components\\ble\\nrf_ble_gatt\\nrf_ble_gatt.c 0x00000000   Number         0  nrf_ble_gatt.o ABSOLUTE
    ..\\..\\..\\..\\..\\..\\components\\ble\\nrf_ble_qwr\\nrf_ble_qwr.c 0x00000000   Number         0  nrf_ble_qwr.o ABSOLUTE
    ..\\..\\..\\..\\..\\..\\components\\boards\\boards.c 0x00000000   Number         0  boards.o ABSOLUTE
    ..\\..\\..\\..\\..\\..\\components\\libraries\\atomic\\nrf_atomic.c 0x00000000   Number         0  nrf_atomic.o ABSOLUTE
    ..\\..\\..\\..\\..\\..\\components\\libraries\\atomic_fifo\\nrf_atfifo.c 0x00000000   Number         0  nrf_atfifo.o ABSOLUTE
    ..\\..\\..\\..\\..\\..\\components\\libraries\\atomic_flags\\nrf_atflags.c 0x00000000   Number         0  nrf_atflags.o ABSOLUTE
    ..\\..\\..\\..\\..\\..\\components\\libraries\\balloc\\nrf_balloc.c 0x00000000   Number         0  nrf_balloc.o ABSOLUTE
    ..\\..\\..\\..\\..\\..\\components\\libraries\\bsp\\bsp.c 0x00000000   Number         0  bsp.o ABSOLUTE
    ..\\..\\..\\..\\..\\..\\components\\libraries\\bsp\\bsp_btn_ble.c 0x00000000   Number         0  bsp_btn_ble.o ABSOLUTE
    ..\\..\\..\\..\\..\\..\\components\\libraries\\button\\app_button.c 0x00000000   Number         0  app_button.o ABSOLUTE
    ..\\..\\..\\..\\..\\..\\components\\libraries\\experimental_log\\src\\nrf_log_backend_rtt.c 0x00000000   Number         0  nrf_log_backend_rtt.o ABSOLUTE
    ..\\..\\..\\..\\..\\..\\components\\libraries\\experimental_log\\src\\nrf_log_backend_serial.c 0x00000000   Number         0  nrf_log_backend_serial.o ABSOLUTE
    ..\\..\\..\\..\\..\\..\\components\\libraries\\experimental_log\\src\\nrf_log_default_backends.c 0x00000000   Number         0  nrf_log_default_backends.o ABSOLUTE
    ..\\..\\..\\..\\..\\..\\components\\libraries\\experimental_log\\src\\nrf_log_frontend.c 0x00000000   Number         0  nrf_log_frontend.o ABSOLUTE
    ..\\..\\..\\..\\..\\..\\components\\libraries\\experimental_log\\src\\nrf_log_str_formatter.c 0x00000000   Number         0  nrf_log_str_formatter.o ABSOLUTE
    ..\\..\\..\\..\\..\\..\\components\\libraries\\experimental_memobj\\nrf_memobj.c 0x00000000   Number         0  nrf_memobj.o ABSOLUTE
    ..\\..\\..\\..\\..\\..\\components\\libraries\\experimental_section_vars\\nrf_section_iter.c 0x00000000   Number         0  nrf_section_iter.o ABSOLUTE
    ..\\..\\..\\..\\..\\..\\components\\libraries\\fifo\\app_fifo.c 0x00000000   Number         0  app_fifo.o ABSOLUTE
    ..\\..\\..\\..\\..\\..\\components\\libraries\\fstorage\\nrf_fstorage.c 0x00000000   Number         0  nrf_fstorage.o ABSOLUTE
    ..\\..\\..\\..\\..\\..\\components\\libraries\\fstorage\\nrf_fstorage_sd.c 0x00000000   Number         0  nrf_fstorage_sd.o ABSOLUTE
    ..\\..\\..\\..\\..\\..\\components\\libraries\\hardfault\\hardfault_implementation.c 0x00000000   Number         0  hardfault_implementation.o ABSOLUTE
    ..\\..\\..\\..\\..\\..\\components\\libraries\\pwr_mgmt\\nrf_pwr_mgmt.c 0x00000000   Number         0  nrf_pwr_mgmt.o ABSOLUTE
    ..\\..\\..\\..\\..\\..\\components\\libraries\\scheduler\\app_scheduler.c 0x00000000   Number         0  app_scheduler.o ABSOLUTE
    ..\\..\\..\\..\\..\\..\\components\\libraries\\strerror\\nrf_strerror.c 0x00000000   Number         0  nrf_strerror.o ABSOLUTE
    ..\\..\\..\\..\\..\\..\\components\\libraries\\timer\\app_timer.c 0x00000000   Number         0  app_timer.o ABSOLUTE
    ..\\..\\..\\..\\..\\..\\components\\libraries\\uart\\app_uart_fifo.c 0x00000000   Number         0  app_uart_fifo.o ABSOLUTE
    ..\\..\\..\\..\\..\\..\\components\\libraries\\uart\\retarget.c 0x00000000   Number         0  retarget.o ABSOLUTE
    ..\\..\\..\\..\\..\\..\\components\\libraries\\util\\app_error.c 0x00000000   Number         0  app_error.o ABSOLUTE
    ..\\..\\..\\..\\..\\..\\components\\libraries\\util\\app_error_handler_keil.c 0x00000000   Number         0  app_error_handler_keil.o ABSOLUTE
    ..\\..\\..\\..\\..\\..\\components\\libraries\\util\\app_error_weak.c 0x00000000   Number         0  app_error_weak.o ABSOLUTE
    ..\\..\\..\\..\\..\\..\\components\\libraries\\util\\app_util_platform.c 0x00000000   Number         0  app_util_platform.o ABSOLUTE
    ..\\..\\..\\..\\..\\..\\components\\libraries\\util\\nrf_assert.c 0x00000000   Number         0  nrf_assert.o ABSOLUTE
    ..\\..\\..\\..\\..\\..\\components\\softdevice\\common\\nrf_sdh.c 0x00000000   Number         0  nrf_sdh.o ABSOLUTE
    ..\\..\\..\\..\\..\\..\\components\\softdevice\\common\\nrf_sdh_ble.c 0x00000000   Number         0  nrf_sdh_ble.o ABSOLUTE
    ..\\..\\..\\..\\..\\..\\components\\softdevice\\common\\nrf_sdh_soc.c 0x00000000   Number         0  nrf_sdh_soc.o ABSOLUTE
    ..\\..\\..\\..\\..\\..\\external\\fprintf\\nrf_fprintf.c 0x00000000   Number         0  nrf_fprintf.o ABSOLUTE
    ..\\..\\..\\..\\..\\..\\external\\fprintf\\nrf_fprintf_format.c 0x00000000   Number         0  nrf_fprintf_format.o ABSOLUTE
    ..\\..\\..\\..\\..\\..\\external\\segger_rtt\\SEGGER_RTT.c 0x00000000   Number         0  segger_rtt.o ABSOLUTE
    ..\\..\\..\\..\\..\\..\\external\\segger_rtt\\SEGGER_RTT_printf.c 0x00000000   Number         0  segger_rtt_printf.o ABSOLUTE
    ..\\..\\..\\..\\..\\..\\integration\\nrfx\\legacy\\nrf_drv_clock.c 0x00000000   Number         0  nrf_drv_clock.o ABSOLUTE
    ..\\..\\..\\..\\..\\..\\integration\\nrfx\\legacy\\nrf_drv_uart.c 0x00000000   Number         0  nrf_drv_uart.o ABSOLUTE
    ..\\..\\..\\..\\..\\..\\modules\\nrfx\\drivers\\src\\nrfx_clock.c 0x00000000   Number         0  nrfx_clock.o ABSOLUTE
    ..\\..\\..\\..\\..\\..\\modules\\nrfx\\drivers\\src\\nrfx_gpiote.c 0x00000000   Number         0  nrfx_gpiote.o ABSOLUTE
    ..\\..\\..\\..\\..\\..\\modules\\nrfx\\drivers\\src\\nrfx_power_clock.c 0x00000000   Number         0  nrfx_power_clock.o ABSOLUTE
    ..\\..\\..\\..\\..\\..\\modules\\nrfx\\drivers\\src\\nrfx_uart.c 0x00000000   Number         0  nrfx_uart.o ABSOLUTE
    ..\\..\\..\\..\\..\\..\\modules\\nrfx\\drivers\\src\\nrfx_uarte.c 0x00000000   Number         0  nrfx_uarte.o ABSOLUTE
    ..\\..\\..\\..\\..\\..\\modules\\nrfx\\drivers\\src\\prs\\nrfx_prs.c 0x00000000   Number         0  nrfx_prs.o ABSOLUTE
    ..\\..\\..\\main.c                       0x00000000   Number         0  main.o ABSOLUTE
    RTE\Device\nRF52840_xxAA\arm_startup_nrf52840.s 0x00000000   Number         0  arm_startup_nrf52840.o ABSOLUTE
    RTE\Device\nRF52840_xxAA\system_nrf52840.c 0x00000000   Number         0  system_nrf52840.o ABSOLUTE
    RTE\\Device\\nRF52840_xxAA\\system_nrf52840.c 0x00000000   Number         0  system_nrf52840.o ABSOLUTE
    cdrcmple.s                               0x00000000   Number         0  cdrcmple.o ABSOLUTE
    dc.s                                     0x00000000   Number         0  dc.o ABSOLUTE
    handlers.s                               0x00000000   Number         0  handlers.o ABSOLUTE
    init.s                                   0x00000000   Number         0  init.o ABSOLUTE
    RESET                                    0x00026000   Section      512  arm_startup_nrf52840.o(RESET)
    .ARM.Collect$$$$00000000                 0x00026200   Section        0  entry.o(.ARM.Collect$$$$00000000)
    .ARM.Collect$$$$00000001                 0x00026200   Section        4  entry2.o(.ARM.Collect$$$$00000001)
    .ARM.Collect$$$$00000004                 0x00026204   Section        4  entry5.o(.ARM.Collect$$$$00000004)
    .ARM.Collect$$$$00000008                 0x00026208   Section        0  entry7b.o(.ARM.Collect$$$$00000008)
    .ARM.Collect$$$$0000000A                 0x00026208   Section        0  entry8b.o(.ARM.Collect$$$$0000000A)
    .ARM.Collect$$$$0000000B                 0x00026208   Section        8  entry9a.o(.ARM.Collect$$$$0000000B)
    .ARM.Collect$$$$0000000D                 0x00026210   Section        0  entry10a.o(.ARM.Collect$$$$0000000D)
    .ARM.Collect$$$$0000000F                 0x00026210   Section        0  entry11a.o(.ARM.Collect$$$$0000000F)
    .ARM.Collect$$$$00002712                 0x00026210   Section        4  entry2.o(.ARM.Collect$$$$00002712)
    __lit__00000000                          0x00026210   Data           4  entry2.o(.ARM.Collect$$$$00002712)
    .emb_text                                0x00026214   Section      200  nrf_atfifo.o(.emb_text)
    $v0                                      0x00026214   Number         0  nrf_atfifo.o(.emb_text)
    .emb_text                                0x000262dc   Section      226  nrf_atomic.o(.emb_text)
    $v0                                      0x000262dc   Number         0  nrf_atomic.o(.emb_text)
    .text                                    0x000263c0   Section       36  arm_startup_nrf52840.o(.text)
    $v0                                      0x000263c0   Number         0  arm_startup_nrf52840.o(.text)
    .text                                    0x000263e4   Section        0  uldiv.o(.text)
    .text                                    0x00026446   Section        0  llshl.o(.text)
    .text                                    0x00026464   Section        0  memcpya.o(.text)
    .text                                    0x00026488   Section        0  memseta.o(.text)
    .text                                    0x000264ac   Section        0  llushr.o(.text)
    .text                                    0x000264cc   Section       36  init.o(.text)
    .text                                    0x000264f0   Section        0  __dczerorl.o(.text)
    i.GPIOTE_IRQHandler                      0x0002652c   Section        0  nrfx_gpiote.o(i.GPIOTE_IRQHandler)
    i.NVIC_ClearPendingIRQ                   0x00026758   Section        0  app_timer.o(i.NVIC_ClearPendingIRQ)
    NVIC_ClearPendingIRQ                     0x00026759   Thumb Code    18  app_timer.o(i.NVIC_ClearPendingIRQ)
    i.NVIC_EnableIRQ                         0x00026770   Section        0  app_timer.o(i.NVIC_EnableIRQ)
    NVIC_EnableIRQ                           0x00026771   Thumb Code    22  app_timer.o(i.NVIC_EnableIRQ)
    i.NVIC_SetPendingIRQ                     0x00026788   Section        0  app_timer.o(i.NVIC_SetPendingIRQ)
    NVIC_SetPendingIRQ                       0x00026789   Thumb Code    18  app_timer.o(i.NVIC_SetPendingIRQ)
    i.NVIC_SetPriority                       0x000267a0   Section        0  app_timer.o(i.NVIC_SetPriority)
    NVIC_SetPriority                         0x000267a1   Thumb Code    32  app_timer.o(i.NVIC_SetPriority)
    i.POWER_CLOCK_IRQHandler                 0x000267c8   Section        0  nrfx_clock.o(i.POWER_CLOCK_IRQHandler)
    i.RTC1_IRQHandler                        0x0002681c   Section        0  app_timer.o(i.RTC1_IRQHandler)
    i.SWI0_EGU0_IRQHandler                   0x00026850   Section        0  app_timer.o(i.SWI0_EGU0_IRQHandler)
    i.SWI2_EGU2_IRQHandler                   0x00026858   Section        0  nrf_sdh.o(i.SWI2_EGU2_IRQHandler)
    i.SystemCoreClockUpdate                  0x00026860   Section        0  system_nrf52840.o(i.SystemCoreClockUpdate)
    i.SystemInit                             0x00026870   Section        0  system_nrf52840.o(i.SystemInit)
    i.UARTE0_UART0_IRQHandler                0x00026aa0   Section        0  nrfx_prs.o(i.UARTE0_UART0_IRQHandler)
    i.__0printf$bare                         0x00026ab0   Section        0  printfb.o(i.__0printf$bare)
    i.__scatterload_copy                     0x00026ac0   Section       14  handlers.o(i.__scatterload_copy)
    i.__scatterload_null                     0x00026ace   Section        2  handlers.o(i.__scatterload_null)
    i.__scatterload_zeroinit                 0x00026ad0   Section       14  handlers.o(i.__scatterload_zeroinit)
    i.__sd_nvic_app_accessible_irq           0x00026ae0   Section        0  nrf_sdh.o(i.__sd_nvic_app_accessible_irq)
    __sd_nvic_app_accessible_irq             0x00026ae1   Thumb Code    52  nrf_sdh.o(i.__sd_nvic_app_accessible_irq)
    i.__sd_nvic_irq_disable                  0x00026b18   Section        0  app_util_platform.o(i.__sd_nvic_irq_disable)
    __sd_nvic_irq_disable                    0x00026b19   Thumb Code    12  app_util_platform.o(i.__sd_nvic_irq_disable)
    i._printf_core                           0x00026b24   Section        0  printfb.o(i._printf_core)
    _printf_core                             0x00026b25   Thumb Code    34  printfb.o(i._printf_core)
    i.addr_is_valid                          0x00026b46   Section        0  ble_advertising.o(i.addr_is_valid)
    addr_is_valid                            0x00026b47   Thumb Code    24  ble_advertising.o(i.addr_is_valid)
    i.adv_mode_next_avail_get                0x00026b5e   Section        0  ble_advertising.o(i.adv_mode_next_avail_get)
    adv_mode_next_avail_get                  0x00026b5f   Thumb Code    88  ble_advertising.o(i.adv_mode_next_avail_get)
    i.adv_mode_next_get                      0x00026bb6   Section        0  ble_advertising.o(i.adv_mode_next_get)
    adv_mode_next_get                        0x00026bb7   Thumb Code    18  ble_advertising.o(i.adv_mode_next_get)
    i.advertising_buttons_configure          0x00026bc8   Section        0  bsp_btn_ble.o(i.advertising_buttons_configure)
    advertising_buttons_configure            0x00026bc9   Thumb Code    84  bsp_btn_ble.o(i.advertising_buttons_configure)
    i.advertising_init                       0x00026c1c   Section        0  main.o(i.advertising_init)
    advertising_init                         0x00026c1d   Thumb Code   100  main.o(i.advertising_init)
    i.advertising_start                      0x00026c8c   Section        0  main.o(i.advertising_start)
    advertising_start                        0x00026c8d   Thumb Code    32  main.o(i.advertising_start)
    i.alert_timer_handler                    0x00026cb0   Section        0  bsp.o(i.alert_timer_handler)
    alert_timer_handler                      0x00026cb1   Thumb Code    12  bsp.o(i.alert_timer_handler)
    i.app_button_enable                      0x00026cbc   Section        0  app_button.o(i.app_button_enable)
    i.app_button_init                        0x00026ce8   Section        0  app_button.o(i.app_button_init)
    i.app_error_fault_handler                0x00026d98   Section        0  app_error_weak.o(i.app_error_fault_handler)
    i.app_error_handler_bare                 0x00026e48   Section        0  app_error.o(i.app_error_handler_bare)
    i.app_fifo_get                           0x00026e64   Section        0  app_fifo.o(i.app_fifo_get)
    i.app_fifo_init                          0x00026e82   Section        0  app_fifo.o(i.app_fifo_init)
    i.app_fifo_put                           0x00026ea6   Section        0  app_fifo.o(i.app_fifo_put)
    i.app_timer_create                       0x00026ec8   Section        0  app_timer.o(i.app_timer_create)
    i.app_timer_init                         0x00026f04   Section        0  app_timer.o(i.app_timer_init)
    i.app_timer_start                        0x00026f60   Section        0  app_timer.o(i.app_timer_start)
    i.app_timer_stop                         0x00026fb4   Section        0  app_timer.o(i.app_timer_stop)
    i.app_uart_get                           0x00026fe4   Section        0  app_uart_fifo.o(i.app_uart_get)
    i.app_uart_init                          0x00027038   Section        0  app_uart_fifo.o(i.app_uart_init)
    i.app_uart_put                           0x00027114   Section        0  app_uart_fifo.o(i.app_uart_put)
    i.app_util_critical_region_enter         0x00027180   Section        0  app_util_platform.o(i.app_util_critical_region_enter)
    i.app_util_critical_region_exit          0x0002718c   Section        0  app_util_platform.o(i.app_util_critical_region_exit)
    i.appearance_encode                      0x000271d4   Section        0  ble_advdata.o(i.appearance_encode)
    appearance_encode                        0x000271d5   Thumb Code    82  ble_advdata.o(i.appearance_encode)
    i.apply_config                           0x00027226   Section        0  nrfx_uart.o(i.apply_config)
    apply_config                             0x00027227   Thumb Code   124  nrfx_uart.o(i.apply_config)
    i.apply_config                           0x000272a2   Section        0  nrfx_uarte.o(i.apply_config)
    apply_config                             0x000272a3   Thumb Code   124  nrfx_uarte.o(i.apply_config)
    i.blcm_link_ctx_get                      0x0002731e   Section        0  ble_link_ctx_manager.o(i.blcm_link_ctx_get)
    i.ble_advdata_encode                     0x0002738a   Section        0  ble_advdata.o(i.ble_advdata_encode)
    i.ble_advdata_parse                      0x000274f6   Section        0  ble_advdata.o(i.ble_advdata_parse)
    i.ble_advdata_search                     0x0002751e   Section        0  ble_advdata.o(i.ble_advdata_search)
    i.ble_advertising_conn_cfg_tag_set       0x0002755e   Section        0  ble_advertising.o(i.ble_advertising_conn_cfg_tag_set)
    i.ble_advertising_init                   0x00027564   Section        0  ble_advertising.o(i.ble_advertising_init)
    i.ble_advertising_on_ble_evt             0x0002766c   Section        0  ble_advertising.o(i.ble_advertising_on_ble_evt)
    i.ble_advertising_on_sys_evt             0x000276a8   Section        0  ble_advertising.o(i.ble_advertising_on_sys_evt)
    i.ble_advertising_restart_without_whitelist 0x000276e8   Section        0  ble_advertising.o(i.ble_advertising_restart_without_whitelist)
    i.ble_advertising_start                  0x00027732   Section        0  ble_advertising.o(i.ble_advertising_start)
    i.ble_conn_params_init                   0x000278b4   Section        0  ble_conn_params.o(i.ble_conn_params_init)
    i.ble_conn_state_conn_idx                0x00027950   Section        0  ble_conn_state.o(i.ble_conn_state_conn_idx)
    i.ble_conn_state_valid                   0x00027964   Section        0  ble_conn_state.o(i.ble_conn_state_valid)
    i.ble_device_addr_encode                 0x00027980   Section        0  ble_advdata.o(i.ble_device_addr_encode)
    ble_device_addr_encode                   0x00027981   Thumb Code   118  ble_advdata.o(i.ble_device_addr_encode)
    i.ble_evt_handler                        0x000279f8   Section        0  main.o(i.ble_evt_handler)
    ble_evt_handler                          0x000279f9   Thumb Code   312  main.o(i.ble_evt_handler)
    i.ble_evt_handler                        0x00027b58   Section        0  bsp_btn_ble.o(i.ble_evt_handler)
    ble_evt_handler                          0x00027b59   Thumb Code   112  bsp_btn_ble.o(i.ble_evt_handler)
    i.ble_evt_handler                        0x00027bd0   Section        0  ble_conn_params.o(i.ble_evt_handler)
    ble_evt_handler                          0x00027bd1   Thumb Code    64  ble_conn_params.o(i.ble_evt_handler)
    i.ble_evt_handler                        0x00027c10   Section        0  ble_conn_state.o(i.ble_evt_handler)
    ble_evt_handler                          0x00027c11   Thumb Code   174  ble_conn_state.o(i.ble_evt_handler)
    i.ble_nus_data_send                      0x00027cc4   Section        0  ble_nus.o(i.ble_nus_data_send)
    i.ble_nus_init                           0x00027d40   Section        0  ble_nus.o(i.ble_nus_init)
    i.ble_nus_on_ble_evt                     0x00027dcc   Section        0  ble_nus.o(i.ble_nus_on_ble_evt)
    i.ble_srv_is_notification_enabled        0x00027e10   Section        0  ble_srv_common.o(i.ble_srv_is_notification_enabled)
    i.ble_stack_init                         0x00027e22   Section        0  main.o(i.ble_stack_init)
    ble_stack_init                           0x00027e23   Thumb Code    86  main.o(i.ble_stack_init)
    i.bsp_board_button_idx_to_pin            0x00027e78   Section        0  boards.o(i.bsp_board_button_idx_to_pin)
    i.bsp_board_button_state_get             0x00027e84   Section        0  boards.o(i.bsp_board_button_state_get)
    i.bsp_board_buttons_init                 0x00027eb8   Section        0  boards.o(i.bsp_board_buttons_init)
    bsp_board_buttons_init                   0x00027eb9   Thumb Code    40  boards.o(i.bsp_board_buttons_init)
    i.bsp_board_init                         0x00027ee4   Section        0  boards.o(i.bsp_board_init)
    i.bsp_board_led_invert                   0x00027f00   Section        0  boards.o(i.bsp_board_led_invert)
    i.bsp_board_led_off                      0x00027f38   Section        0  boards.o(i.bsp_board_led_off)
    i.bsp_board_led_on                       0x00027f4c   Section        0  boards.o(i.bsp_board_led_on)
    i.bsp_board_led_state_get                0x00027f60   Section        0  boards.o(i.bsp_board_led_state_get)
    i.bsp_board_leds_init                    0x00027f94   Section        0  boards.o(i.bsp_board_leds_init)
    bsp_board_leds_init                      0x00027f95   Thumb Code    42  boards.o(i.bsp_board_leds_init)
    i.bsp_board_leds_off                     0x00027fc4   Section        0  boards.o(i.bsp_board_leds_off)
    i.bsp_board_leds_on                      0x00027fd8   Section        0  boards.o(i.bsp_board_leds_on)
    i.bsp_board_pin_to_button_idx            0x00027fec   Section        0  boards.o(i.bsp_board_pin_to_button_idx)
    i.bsp_btn_ble_init                       0x00028010   Section        0  bsp_btn_ble.o(i.bsp_btn_ble_init)
    i.bsp_btn_ble_sleep_mode_prepare         0x0002803c   Section        0  bsp_btn_ble.o(i.bsp_btn_ble_sleep_mode_prepare)
    i.bsp_button_event_handler               0x00028070   Section        0  bsp.o(i.bsp_button_event_handler)
    bsp_button_event_handler                 0x00028071   Thumb Code   176  bsp.o(i.bsp_button_event_handler)
    i.bsp_button_is_pressed                  0x00028134   Section        0  bsp.o(i.bsp_button_is_pressed)
    i.bsp_event_handler                      0x00028148   Section        0  main.o(i.bsp_event_handler)
    i.bsp_event_to_button_action_assign      0x000281bc   Section        0  bsp.o(i.bsp_event_to_button_action_assign)
    i.bsp_indication_set                     0x00028218   Section        0  bsp.o(i.bsp_indication_set)
    i.bsp_init                               0x00028238   Section        0  bsp.o(i.bsp_init)
    i.bsp_led_indication                     0x000282e4   Section        0  bsp.o(i.bsp_led_indication)
    bsp_led_indication                       0x000282e5   Thumb Code   872  bsp.o(i.bsp_led_indication)
    i.bsp_wakeup_button_enable               0x00028660   Section        0  bsp.o(i.bsp_wakeup_button_enable)
    i.buf_prealloc                           0x00028670   Section        0  nrf_log_frontend.o(i.buf_prealloc)
    buf_prealloc                             0x00028671   Thumb Code   220  nrf_log_frontend.o(i.buf_prealloc)
    i.buffer_is_empty                        0x00028754   Section        0  nrf_log_frontend.o(i.buffer_is_empty)
    i.button_timer_handler                   0x0002876c   Section        0  bsp.o(i.button_timer_handler)
    button_timer_handler                     0x0002876d   Thumb Code    14  bsp.o(i.button_timer_handler)
    i.buttons_leds_init                      0x0002877c   Section        0  main.o(i.buttons_leds_init)
    buttons_leds_init                        0x0002877d   Thumb Code    78  main.o(i.buttons_leds_init)
    i.channel_free                           0x000287d0   Section        0  nrfx_gpiote.o(i.channel_free)
    channel_free                             0x000287d1   Thumb Code    26  nrfx_gpiote.o(i.channel_free)
    i.channel_handler_get                    0x000287f0   Section        0  nrfx_gpiote.o(i.channel_handler_get)
    channel_handler_get                      0x000287f1   Thumb Code    10  nrfx_gpiote.o(i.channel_handler_get)
    i.channel_port_alloc                     0x00028800   Section        0  nrfx_gpiote.o(i.channel_port_alloc)
    channel_port_alloc                       0x00028801   Thumb Code   122  nrfx_gpiote.o(i.channel_port_alloc)
    i.channel_port_get                       0x00028880   Section        0  nrfx_gpiote.o(i.channel_port_get)
    channel_port_get                         0x00028881   Thumb Code     8  nrfx_gpiote.o(i.channel_port_get)
    i.clock_clk_started_notify               0x0002888c   Section        0  nrf_drv_clock.o(i.clock_clk_started_notify)
    clock_clk_started_notify                 0x0002888d   Thumb Code    42  nrf_drv_clock.o(i.clock_clk_started_notify)
    i.clock_irq_handler                      0x000288bc   Section        0  nrf_drv_clock.o(i.clock_irq_handler)
    clock_irq_handler                        0x000288bd   Thumb Code    34  nrf_drv_clock.o(i.clock_irq_handler)
    i.compare_reg_update                     0x000288e4   Section        0  app_timer.o(i.compare_reg_update)
    compare_reg_update                       0x000288e5   Thumb Code   132  app_timer.o(i.compare_reg_update)
    i.config_is_valid                        0x00028974   Section        0  ble_advertising.o(i.config_is_valid)
    config_is_valid                          0x00028975   Thumb Code    24  ble_advertising.o(i.config_is_valid)
    i.conn_handle_list_get                   0x0002898c   Section        0  ble_conn_state.o(i.conn_handle_list_get)
    i.conn_int_check                         0x000289c8   Section        0  ble_advdata.o(i.conn_int_check)
    conn_int_check                           0x000289c9   Thumb Code    90  ble_advdata.o(i.conn_int_check)
    i.conn_int_encode                        0x00028a22   Section        0  ble_advdata.o(i.conn_int_encode)
    conn_int_encode                          0x00028a23   Thumb Code   104  ble_advdata.o(i.conn_int_encode)
    i.conn_params_error_handler              0x00028a8a   Section        0  main.o(i.conn_params_error_handler)
    conn_params_error_handler                0x00028a8b   Thumb Code    16  main.o(i.conn_params_error_handler)
    i.conn_params_init                       0x00028a9c   Section        0  main.o(i.conn_params_init)
    conn_params_init                         0x00028a9d   Thumb Code    82  main.o(i.conn_params_init)
    i.conn_params_negotiation                0x00028af8   Section        0  ble_conn_params.o(i.conn_params_negotiation)
    conn_params_negotiation                  0x00028af9   Thumb Code    78  ble_conn_params.o(i.conn_params_negotiation)
    i.connection_buttons_configure           0x00028b4c   Section        0  bsp_btn_ble.o(i.connection_buttons_configure)
    connection_buttons_configure             0x00028b4d   Thumb Code    84  bsp_btn_ble.o(i.connection_buttons_configure)
    i.data_length_update                     0x00028ba0   Section        0  nrf_ble_gatt.o(i.data_length_update)
    data_length_update                       0x00028ba1   Thumb Code   138  nrf_ble_gatt.o(i.data_length_update)
    i.detection_delay_timeout_handler        0x00028c78   Section        0  app_button.o(i.detection_delay_timeout_handler)
    detection_delay_timeout_handler          0x00028c79   Thumb Code   210  app_button.o(i.detection_delay_timeout_handler)
    i.dropped_sat16_get                      0x00028d5c   Section        0  nrf_log_frontend.o(i.dropped_sat16_get)
    dropped_sat16_get                        0x00028d5d   Thumb Code    18  nrf_log_frontend.o(i.dropped_sat16_get)
    i.elapsed_ticks_acquire                  0x00028d74   Section        0  app_timer.o(i.elapsed_ticks_acquire)
    elapsed_ticks_acquire                    0x00028d75   Thumb Code    82  app_timer.o(i.elapsed_ticks_acquire)
    i.erase                                  0x00028dd8   Section        0  nrf_fstorage_sd.o(i.erase)
    erase                                    0x00028dd9   Thumb Code    80  nrf_fstorage_sd.o(i.erase)
    i.erase_execute                          0x00028e30   Section        0  nrf_fstorage_sd.o(i.erase_execute)
    erase_execute                            0x00028e31   Thumb Code    14  nrf_fstorage_sd.o(i.erase_execute)
    i.errata_103                             0x00028e40   Section        0  system_nrf52840.o(i.errata_103)
    errata_103                               0x00028e41   Thumb Code    24  system_nrf52840.o(i.errata_103)
    i.errata_115                             0x00028e5c   Section        0  system_nrf52840.o(i.errata_115)
    errata_115                               0x00028e5d   Thumb Code    24  system_nrf52840.o(i.errata_115)
    i.errata_120                             0x00028e78   Section        0  system_nrf52840.o(i.errata_120)
    errata_120                               0x00028e79   Thumb Code    24  system_nrf52840.o(i.errata_120)
    i.errata_136                             0x00028e94   Section        0  system_nrf52840.o(i.errata_136)
    errata_136                               0x00028e95   Thumb Code    50  system_nrf52840.o(i.errata_136)
    i.errata_36                              0x00028ecc   Section        0  system_nrf52840.o(i.errata_36)
    errata_36                                0x00028ecd   Thumb Code    50  system_nrf52840.o(i.errata_36)
    i.errata_66                              0x00028f04   Section        0  system_nrf52840.o(i.errata_66)
    errata_66                                0x00028f05   Thumb Code    50  system_nrf52840.o(i.errata_66)
    i.errata_98                              0x00028f3c   Section        0  system_nrf52840.o(i.errata_98)
    errata_98                                0x00028f3d   Thumb Code    24  system_nrf52840.o(i.errata_98)
    i.event_send                             0x00028f58   Section        0  nrf_fstorage_sd.o(i.event_send)
    event_send                               0x00028f59   Thumb Code   100  nrf_fstorage_sd.o(i.event_send)
    i.expired_timers_handler                 0x00028fc0   Section        0  app_timer.o(i.expired_timers_handler)
    expired_timers_handler                   0x00028fc1   Thumb Code    84  app_timer.o(i.expired_timers_handler)
    i.fifo_get                               0x00029018   Section        0  app_fifo.o(i.fifo_get)
    fifo_get                                 0x00029019   Thumb Code    24  app_fifo.o(i.fifo_get)
    i.fifo_length                            0x00029030   Section        0  app_fifo.o(i.fifo_length)
    fifo_length                              0x00029031   Thumb Code    10  app_fifo.o(i.fifo_length)
    i.fifo_length                            0x0002903a   Section        0  app_uart_fifo.o(i.fifo_length)
    fifo_length                              0x0002903b   Thumb Code    10  app_uart_fifo.o(i.fifo_length)
    i.fifo_peek                              0x00029044   Section        0  app_fifo.o(i.fifo_peek)
    fifo_peek                                0x00029045   Thumb Code    18  app_fifo.o(i.fifo_peek)
    i.fifo_put                               0x00029056   Section        0  app_fifo.o(i.fifo_put)
    fifo_put                                 0x00029057   Thumb Code    18  app_fifo.o(i.fifo_put)
    i.flags_encode                           0x00029068   Section        0  ble_advdata.o(i.flags_encode)
    flags_encode                             0x00029069   Thumb Code    54  ble_advdata.o(i.flags_encode)
    i.flags_set                              0x0002909e   Section        0  ble_advertising.o(i.flags_set)
    flags_set                                0x0002909f   Thumb Code    42  ble_advertising.o(i.flags_set)
    i.flash_access_in_progress               0x000290c8   Section        0  ble_advertising.o(i.flash_access_in_progress)
    flash_access_in_progress                 0x000290c9   Thumb Code    10  ble_advertising.o(i.flash_access_in_progress)
    i.fputc                                  0x000290d2   Section        0  retarget.o(i.fputc)
    i.gap_params_init                        0x000290e4   Section        0  main.o(i.gap_params_init)
    gap_params_init                          0x000290e5   Thumb Code   116  main.o(i.gap_params_init)
    i.gatt_evt_handler                       0x00029164   Section        0  main.o(i.gatt_evt_handler)
    i.gatt_init                              0x000291c8   Section        0  main.o(i.gatt_init)
    i.gpiote_event_handler                   0x0002920c   Section        0  app_button.o(i.gpiote_event_handler)
    gpiote_event_handler                     0x0002920d   Thumb Code   148  app_button.o(i.gpiote_event_handler)
    i.idle_state_handle                      0x000292b0   Section        0  main.o(i.idle_state_handle)
    idle_state_handle                        0x000292b1   Thumb Code    12  main.o(i.idle_state_handle)
    i.init                                   0x000292bc   Section        0  nrf_fstorage_sd.o(i.init)
    init                                     0x000292bd   Thumb Code    44  nrf_fstorage_sd.o(i.init)
    i.instance_get                           0x000292f8   Section        0  ble_conn_params.o(i.instance_get)
    instance_get                             0x000292f9   Thumb Code    40  ble_conn_params.o(i.instance_get)
    i.interrupts_enable                      0x00029324   Section        0  nrfx_uart.o(i.interrupts_enable)
    interrupts_enable                        0x00029325   Thumb Code   144  nrfx_uart.o(i.interrupts_enable)
    i.interrupts_enable                      0x000293c4   Section        0  nrfx_uarte.o(i.interrupts_enable)
    interrupts_enable                        0x000293c5   Thumb Code   164  nrfx_uarte.o(i.interrupts_enable)
    i.invalid_packets_pushed_str_omit        0x00029478   Section        0  nrf_log_frontend.o(i.invalid_packets_pushed_str_omit)
    invalid_packets_pushed_str_omit          0x00029479   Thumb Code   108  nrf_log_frontend.o(i.invalid_packets_pushed_str_omit)
    i.is_busy                                0x000294e4   Section        0  nrf_fstorage_sd.o(i.is_busy)
    is_busy                                  0x000294e5   Thumb Code    16  nrf_fstorage_sd.o(i.is_busy)
    i.is_conn_params_ok                      0x000294f8   Section        0  ble_conn_params.o(i.is_conn_params_ok)
    is_conn_params_ok                        0x000294f9   Thumb Code   114  ble_conn_params.o(i.is_conn_params_ok)
    i.item_dequeue                           0x0002956a   Section        0  nrf_drv_clock.o(i.item_dequeue)
    item_dequeue                             0x0002956b   Thumb Code    12  nrf_drv_clock.o(i.item_dequeue)
    i.leds_off                               0x00029578   Section        0  bsp.o(i.leds_off)
    leds_off                                 0x00029579   Thumb Code    36  bsp.o(i.leds_off)
    i.leds_timer_handler                     0x000295a0   Section        0  bsp.o(i.leds_timer_handler)
    leds_timer_handler                       0x000295a1   Thumb Code    24  bsp.o(i.leds_timer_handler)
    i.lfclk_stop                             0x000295c0   Section        0  nrf_drv_clock.o(i.lfclk_stop)
    lfclk_stop                               0x000295c1   Thumb Code    14  nrf_drv_clock.o(i.lfclk_stop)
    i.link_init                              0x000295d4   Section        0  nrf_ble_gatt.o(i.link_init)
    link_init                                0x000295d5   Thumb Code    24  nrf_ble_gatt.o(i.link_init)
    i.list_insertions_handler                0x000295ec   Section        0  app_timer.o(i.list_insertions_handler)
    list_insertions_handler                  0x000295ed   Thumb Code   294  app_timer.o(i.list_insertions_handler)
    i.log_init                               0x00029728   Section        0  main.o(i.log_init)
    log_init                                 0x00029729   Thumb Code    38  main.o(i.log_init)
    i.log_skip                               0x00029750   Section        0  nrf_log_frontend.o(i.log_skip)
    log_skip                                 0x00029751   Thumb Code   190  nrf_log_frontend.o(i.log_skip)
    i.main                                   0x00029818   Section        0  main.o(i.main)
    i.manuf_specific_data_encode             0x00029904   Section        0  ble_advdata.o(i.manuf_specific_data_encode)
    manuf_specific_data_encode               0x00029905   Thumb Code   118  ble_advdata.o(i.manuf_specific_data_encode)
    i.memobj_op                              0x0002997a   Section        0  nrf_memobj.o(i.memobj_op)
    memobj_op                                0x0002997b   Thumb Code   174  nrf_memobj.o(i.memobj_op)
    i.name_encode                            0x00029a28   Section        0  ble_advdata.o(i.name_encode)
    name_encode                              0x00029a29   Thumb Code   190  ble_advdata.o(i.name_encode)
    i.nrf_atfifo_clear                       0x00029ae6   Section        0  nrf_atfifo.o(i.nrf_atfifo_clear)
    i.nrf_atfifo_init                        0x00029afc   Section        0  nrf_atfifo.o(i.nrf_atfifo_init)
    i.nrf_atfifo_item_alloc                  0x00029b24   Section        0  nrf_atfifo.o(i.nrf_atfifo_item_alloc)
    i.nrf_atfifo_item_free                   0x00029b40   Section        0  nrf_atfifo.o(i.nrf_atfifo_item_free)
    i.nrf_atfifo_item_get                    0x00029b5c   Section        0  nrf_atfifo.o(i.nrf_atfifo_item_get)
    i.nrf_atfifo_item_put                    0x00029b78   Section        0  nrf_atfifo.o(i.nrf_atfifo_item_put)
    i.nrf_atflags_clear                      0x00029b94   Section        0  nrf_atflags.o(i.nrf_atflags_clear)
    i.nrf_atflags_get                        0x00029bb2   Section        0  nrf_atflags.o(i.nrf_atflags_get)
    i.nrf_atflags_set                        0x00029bd0   Section        0  nrf_atflags.o(i.nrf_atflags_set)
    i.nrf_atomic_flag_clear_fetch            0x00029bee   Section        0  nrf_atomic.o(i.nrf_atomic_flag_clear_fetch)
    i.nrf_atomic_flag_set                    0x00029bfc   Section        0  nrf_atomic.o(i.nrf_atomic_flag_set)
    i.nrf_atomic_flag_set_fetch              0x00029c0a   Section        0  nrf_atomic.o(i.nrf_atomic_flag_set_fetch)
    i.nrf_atomic_u32_add                     0x00029c18   Section        0  nrf_atomic.o(i.nrf_atomic_u32_add)
    i.nrf_atomic_u32_and                     0x00029c2e   Section        0  nrf_atomic.o(i.nrf_atomic_u32_and)
    i.nrf_atomic_u32_fetch_and               0x00029c44   Section        0  nrf_atomic.o(i.nrf_atomic_u32_fetch_and)
    i.nrf_atomic_u32_fetch_or                0x00029c5a   Section        0  nrf_atomic.o(i.nrf_atomic_u32_fetch_or)
    i.nrf_atomic_u32_fetch_store             0x00029c70   Section        0  nrf_atomic.o(i.nrf_atomic_u32_fetch_store)
    i.nrf_atomic_u32_or                      0x00029c86   Section        0  nrf_atomic.o(i.nrf_atomic_u32_or)
    i.nrf_atomic_u32_sub                     0x00029c9c   Section        0  nrf_atomic.o(i.nrf_atomic_u32_sub)
    i.nrf_balloc_alloc                       0x00029cb2   Section        0  nrf_balloc.o(i.nrf_balloc_alloc)
    i.nrf_balloc_block2idx                   0x00029d04   Section        0  nrf_balloc.o(i.nrf_balloc_block2idx)
    nrf_balloc_block2idx                     0x00029d05   Thumb Code    16  nrf_balloc.o(i.nrf_balloc_block2idx)
    i.nrf_balloc_free                        0x00029d14   Section        0  nrf_balloc.o(i.nrf_balloc_free)
    i.nrf_balloc_idx2block                   0x00029d44   Section        0  nrf_balloc.o(i.nrf_balloc_idx2block)
    nrf_balloc_idx2block                     0x00029d45   Thumb Code    12  nrf_balloc.o(i.nrf_balloc_idx2block)
    i.nrf_balloc_init                        0x00029d50   Section        0  nrf_balloc.o(i.nrf_balloc_init)
    i.nrf_bitmask_bit_is_set                 0x00029d8c   Section        0  nrfx_gpiote.o(i.nrf_bitmask_bit_is_set)
    nrf_bitmask_bit_is_set                   0x00029d8d   Thumb Code    22  nrfx_gpiote.o(i.nrf_bitmask_bit_is_set)
    i.nrf_bitmask_bit_set                    0x00029da2   Section        0  nrfx_gpiote.o(i.nrf_bitmask_bit_set)
    nrf_bitmask_bit_set                      0x00029da3   Thumb Code    22  nrfx_gpiote.o(i.nrf_bitmask_bit_set)
    i.nrf_ble_gatt_att_mtu_periph_set        0x00029db8   Section        0  nrf_ble_gatt.o(i.nrf_ble_gatt_att_mtu_periph_set)
    i.nrf_ble_gatt_init                      0x00029dd6   Section        0  nrf_ble_gatt.o(i.nrf_ble_gatt_init)
    i.nrf_ble_gatt_on_ble_evt                0x00029e0c   Section        0  nrf_ble_gatt.o(i.nrf_ble_gatt_on_ble_evt)
    i.nrf_ble_qwr_conn_handle_assign         0x00029f0c   Section        0  nrf_ble_qwr.o(i.nrf_ble_qwr_conn_handle_assign)
    i.nrf_ble_qwr_init                       0x00029f2c   Section        0  nrf_ble_qwr.o(i.nrf_ble_qwr_init)
    i.nrf_ble_qwr_on_ble_evt                 0x00029f5e   Section        0  nrf_ble_qwr.o(i.nrf_ble_qwr_on_ble_evt)
    i.nrf_clock_event_check                  0x00029fda   Section        0  nrfx_clock.o(i.nrf_clock_event_check)
    nrf_clock_event_check                    0x00029fdb   Thumb Code    18  nrfx_clock.o(i.nrf_clock_event_check)
    i.nrf_clock_event_clear                  0x00029fec   Section        0  nrfx_clock.o(i.nrf_clock_event_clear)
    nrf_clock_event_clear                    0x00029fed   Thumb Code    18  nrfx_clock.o(i.nrf_clock_event_clear)
    i.nrf_clock_int_disable                  0x0002a000   Section        0  nrfx_clock.o(i.nrf_clock_int_disable)
    nrf_clock_int_disable                    0x0002a001   Thumb Code     6  nrfx_clock.o(i.nrf_clock_int_disable)
    i.nrf_clock_task_trigger                 0x0002a00c   Section        0  nrfx_clock.o(i.nrf_clock_task_trigger)
    nrf_clock_task_trigger                   0x0002a00d   Thumb Code     8  nrfx_clock.o(i.nrf_clock_task_trigger)
    i.nrf_drv_clock_init                     0x0002a014   Section        0  nrf_drv_clock.o(i.nrf_drv_clock_init)
    i.nrf_drv_clock_lfclk_release            0x0002a054   Section        0  nrf_drv_clock.o(i.nrf_drv_clock_lfclk_release)
    i.nrf_drv_uart_init                      0x0002a084   Section        0  nrf_drv_uart.o(i.nrf_drv_uart_init)
    i.nrf_drv_uart_rx                        0x0002a110   Section        0  app_uart_fifo.o(i.nrf_drv_uart_rx)
    nrf_drv_uart_rx                          0x0002a111   Thumb Code    62  app_uart_fifo.o(i.nrf_drv_uart_rx)
    i.nrf_drv_uart_tx                        0x0002a154   Section        0  app_uart_fifo.o(i.nrf_drv_uart_tx)
    nrf_drv_uart_tx                          0x0002a155   Thumb Code    62  app_uart_fifo.o(i.nrf_drv_uart_tx)
    i.nrf_fstorage_is_busy                   0x0002a198   Section        0  nrf_fstorage.o(i.nrf_fstorage_is_busy)
    i.nrf_fstorage_sdh_req_handler           0x0002a1ec   Section        0  nrf_fstorage_sd.o(i.nrf_fstorage_sdh_req_handler)
    i.nrf_fstorage_sdh_state_handler         0x0002a208   Section        0  nrf_fstorage_sd.o(i.nrf_fstorage_sdh_state_handler)
    i.nrf_fstorage_sys_evt_handler           0x0002a234   Section        0  nrf_fstorage_sd.o(i.nrf_fstorage_sys_evt_handler)
    i.nrf_gpio_cfg                           0x0002a2c0   Section        0  boards.o(i.nrf_gpio_cfg)
    nrf_gpio_cfg                             0x0002a2c1   Thumb Code    52  boards.o(i.nrf_gpio_cfg)
    i.nrf_gpio_cfg                           0x0002a2f4   Section        0  nrfx_gpiote.o(i.nrf_gpio_cfg)
    nrf_gpio_cfg                             0x0002a2f5   Thumb Code    52  nrfx_gpiote.o(i.nrf_gpio_cfg)
    i.nrf_gpio_cfg                           0x0002a328   Section        0  nrfx_uart.o(i.nrf_gpio_cfg)
    nrf_gpio_cfg                             0x0002a329   Thumb Code    52  nrfx_uart.o(i.nrf_gpio_cfg)
    i.nrf_gpio_cfg                           0x0002a35c   Section        0  nrfx_uarte.o(i.nrf_gpio_cfg)
    nrf_gpio_cfg                             0x0002a35d   Thumb Code    52  nrfx_uarte.o(i.nrf_gpio_cfg)
    i.nrf_gpio_cfg_input                     0x0002a390   Section        0  nrfx_uart.o(i.nrf_gpio_cfg_input)
    nrf_gpio_cfg_input                       0x0002a391   Thumb Code    26  nrfx_uart.o(i.nrf_gpio_cfg_input)
    i.nrf_gpio_cfg_input                     0x0002a3aa   Section        0  nrfx_uarte.o(i.nrf_gpio_cfg_input)
    nrf_gpio_cfg_input                       0x0002a3ab   Thumb Code    26  nrfx_uarte.o(i.nrf_gpio_cfg_input)
    i.nrf_gpio_cfg_output                    0x0002a3c4   Section        0  nrfx_uart.o(i.nrf_gpio_cfg_output)
    nrf_gpio_cfg_output                      0x0002a3c5   Thumb Code    24  nrfx_uart.o(i.nrf_gpio_cfg_output)
    i.nrf_gpio_cfg_output                    0x0002a3dc   Section        0  nrfx_uarte.o(i.nrf_gpio_cfg_output)
    nrf_gpio_cfg_output                      0x0002a3dd   Thumb Code    24  nrfx_uarte.o(i.nrf_gpio_cfg_output)
    i.nrf_gpio_cfg_sense_set                 0x0002a3f4   Section        0  nrfx_gpiote.o(i.nrf_gpio_cfg_sense_set)
    nrf_gpio_cfg_sense_set                   0x0002a3f5   Thumb Code    58  nrfx_gpiote.o(i.nrf_gpio_cfg_sense_set)
    i.nrf_gpio_pin_port_decode               0x0002a430   Section        0  boards.o(i.nrf_gpio_pin_port_decode)
    nrf_gpio_pin_port_decode                 0x0002a431   Thumb Code    26  boards.o(i.nrf_gpio_pin_port_decode)
    i.nrf_gpio_pin_port_decode               0x0002a450   Section        0  nrfx_gpiote.o(i.nrf_gpio_pin_port_decode)
    nrf_gpio_pin_port_decode                 0x0002a451   Thumb Code    26  nrfx_gpiote.o(i.nrf_gpio_pin_port_decode)
    i.nrf_gpio_pin_port_decode               0x0002a470   Section        0  nrfx_uart.o(i.nrf_gpio_pin_port_decode)
    nrf_gpio_pin_port_decode                 0x0002a471   Thumb Code    26  nrfx_uart.o(i.nrf_gpio_pin_port_decode)
    i.nrf_gpio_pin_port_decode               0x0002a490   Section        0  nrfx_uarte.o(i.nrf_gpio_pin_port_decode)
    nrf_gpio_pin_port_decode                 0x0002a491   Thumb Code    26  nrfx_uarte.o(i.nrf_gpio_pin_port_decode)
    i.nrf_gpio_pin_read                      0x0002a4b0   Section        0  nrfx_gpiote.o(i.nrf_gpio_pin_read)
    nrf_gpio_pin_read                        0x0002a4b1   Thumb Code    26  nrfx_gpiote.o(i.nrf_gpio_pin_read)
    i.nrf_gpio_pin_set                       0x0002a4ca   Section        0  nrfx_uart.o(i.nrf_gpio_pin_set)
    nrf_gpio_pin_set                         0x0002a4cb   Thumb Code    26  nrfx_uart.o(i.nrf_gpio_pin_set)
    i.nrf_gpio_pin_set                       0x0002a4e4   Section        0  nrfx_uarte.o(i.nrf_gpio_pin_set)
    nrf_gpio_pin_set                         0x0002a4e5   Thumb Code    26  nrfx_uarte.o(i.nrf_gpio_pin_set)
    i.nrf_gpio_pin_write                     0x0002a4fe   Section        0  boards.o(i.nrf_gpio_pin_write)
    nrf_gpio_pin_write                       0x0002a4ff   Thumb Code    66  boards.o(i.nrf_gpio_pin_write)
    i.nrf_gpio_ports_read                    0x0002a540   Section        0  nrfx_gpiote.o(i.nrf_gpio_ports_read)
    nrf_gpio_ports_read                      0x0002a541   Thumb Code    38  nrfx_gpiote.o(i.nrf_gpio_ports_read)
    i.nrf_gpiote_event_addr_get              0x0002a56c   Section        0  nrfx_gpiote.o(i.nrf_gpiote_event_addr_get)
    nrf_gpiote_event_addr_get                0x0002a56d   Thumb Code     8  nrfx_gpiote.o(i.nrf_gpiote_event_addr_get)
    i.nrf_gpiote_event_clear                 0x0002a578   Section        0  nrfx_gpiote.o(i.nrf_gpiote_event_clear)
    nrf_gpiote_event_clear                   0x0002a579   Thumb Code    28  nrfx_gpiote.o(i.nrf_gpiote_event_clear)
    i.nrf_gpiote_event_is_set                0x0002a594   Section        0  nrfx_gpiote.o(i.nrf_gpiote_event_is_set)
    nrf_gpiote_event_is_set                  0x0002a595   Thumb Code    22  nrfx_gpiote.o(i.nrf_gpiote_event_is_set)
    i.nrf_gpiote_int_enable                  0x0002a5ac   Section        0  nrfx_gpiote.o(i.nrf_gpiote_int_enable)
    nrf_gpiote_int_enable                    0x0002a5ad   Thumb Code     6  nrfx_gpiote.o(i.nrf_gpiote_int_enable)
    i.nrf_log_default_backends_init          0x0002a5b8   Section        0  nrf_log_default_backends.o(i.nrf_log_default_backends_init)
    i.nrf_log_frontend_dequeue               0x0002a5c0   Section        0  nrf_log_frontend.o(i.nrf_log_frontend_dequeue)
    i.nrf_log_frontend_std_0                 0x0002a8c0   Section        0  nrf_log_frontend.o(i.nrf_log_frontend_std_0)
    i.nrf_log_frontend_std_1                 0x0002a8d4   Section        0  nrf_log_frontend.o(i.nrf_log_frontend_std_1)
    i.nrf_log_frontend_std_2                 0x0002a8ec   Section        0  nrf_log_frontend.o(i.nrf_log_frontend_std_2)
    i.nrf_log_init                           0x0002a90c   Section        0  nrf_log_frontend.o(i.nrf_log_init)
    i.nrf_log_panic                          0x0002a970   Section        0  nrf_log_frontend.o(i.nrf_log_panic)
    i.nrf_memobj_alloc                       0x0002a9a4   Section        0  nrf_memobj.o(i.nrf_memobj_alloc)
    i.nrf_memobj_free                        0x0002aa1e   Section        0  nrf_memobj.o(i.nrf_memobj_free)
    i.nrf_memobj_get                         0x0002aa5e   Section        0  nrf_memobj.o(i.nrf_memobj_get)
    i.nrf_memobj_pool_init                   0x0002aa6e   Section        0  nrf_memobj.o(i.nrf_memobj_pool_init)
    i.nrf_memobj_put                         0x0002aa7a   Section        0  nrf_memobj.o(i.nrf_memobj_put)
    i.nrf_memobj_write                       0x0002aa98   Section        0  nrf_memobj.o(i.nrf_memobj_write)
    i.nrf_pwr_mgmt_init                      0x0002aab4   Section        0  nrf_pwr_mgmt.o(i.nrf_pwr_mgmt_init)
    i.nrf_pwr_mgmt_run                       0x0002aaf4   Section        0  nrf_pwr_mgmt.o(i.nrf_pwr_mgmt_run)
    i.nrf_qwr_error_handler                  0x0002ab5c   Section        0  main.o(i.nrf_qwr_error_handler)
    nrf_qwr_error_handler                    0x0002ab5d   Thumb Code    16  main.o(i.nrf_qwr_error_handler)
    i.nrf_sdh_ble_app_ram_start_get          0x0002ab6c   Section        0  nrf_sdh_ble.o(i.nrf_sdh_ble_app_ram_start_get)
    i.nrf_sdh_ble_default_cfg_set            0x0002ab84   Section        0  nrf_sdh_ble.o(i.nrf_sdh_ble_default_cfg_set)
    i.nrf_sdh_ble_enable                     0x0002ad04   Section        0  nrf_sdh_ble.o(i.nrf_sdh_ble_enable)
    i.nrf_sdh_ble_evts_poll                  0x0002ae3c   Section        0  nrf_sdh_ble.o(i.nrf_sdh_ble_evts_poll)
    nrf_sdh_ble_evts_poll                    0x0002ae3d   Thumb Code   108  nrf_sdh_ble.o(i.nrf_sdh_ble_evts_poll)
    i.nrf_sdh_disable_request                0x0002aeb0   Section        0  nrf_sdh.o(i.nrf_sdh_disable_request)
    i.nrf_sdh_enable_request                 0x0002af14   Section        0  nrf_sdh.o(i.nrf_sdh_enable_request)
    i.nrf_sdh_evts_poll                      0x0002af98   Section        0  nrf_sdh.o(i.nrf_sdh_evts_poll)
    i.nrf_sdh_is_enabled                     0x0002afc8   Section        0  nrf_sdh.o(i.nrf_sdh_is_enabled)
    i.nrf_sdh_request_continue               0x0002afd4   Section        0  nrf_sdh.o(i.nrf_sdh_request_continue)
    i.nrf_sdh_soc_evts_poll                  0x0002affc   Section        0  nrf_sdh_soc.o(i.nrf_sdh_soc_evts_poll)
    nrf_sdh_soc_evts_poll                    0x0002affd   Thumb Code    80  nrf_sdh_soc.o(i.nrf_sdh_soc_evts_poll)
    i.nrf_section_iter_get                   0x0002b050   Section        0  nrf_sdh.o(i.nrf_section_iter_get)
    nrf_section_iter_get                     0x0002b051   Thumb Code     6  nrf_sdh.o(i.nrf_section_iter_get)
    i.nrf_section_iter_init                  0x0002b056   Section        0  nrf_section_iter.o(i.nrf_section_iter_init)
    i.nrf_section_iter_item_set              0x0002b06a   Section        0  nrf_section_iter.o(i.nrf_section_iter_item_set)
    nrf_section_iter_item_set                0x0002b06b   Thumb Code    46  nrf_section_iter.o(i.nrf_section_iter_item_set)
    i.nrf_section_iter_next                  0x0002b098   Section        0  nrf_section_iter.o(i.nrf_section_iter_next)
    i.nrf_strerror_find                      0x0002b0c8   Section        0  nrf_strerror.o(i.nrf_strerror_find)
    i.nrf_strerror_get                       0x0002b108   Section        0  nrf_strerror.o(i.nrf_strerror_get)
    i.nrf_uart_errorsrc_get_and_clear        0x0002b124   Section        0  nrfx_uart.o(i.nrf_uart_errorsrc_get_and_clear)
    nrf_uart_errorsrc_get_and_clear          0x0002b125   Thumb Code    12  nrfx_uart.o(i.nrf_uart_errorsrc_get_and_clear)
    i.nrf_uart_event_check                   0x0002b130   Section        0  nrfx_uart.o(i.nrf_uart_event_check)
    nrf_uart_event_check                     0x0002b131   Thumb Code    14  nrfx_uart.o(i.nrf_uart_event_check)
    i.nrf_uart_event_clear                   0x0002b13e   Section        0  nrfx_uart.o(i.nrf_uart_event_clear)
    nrf_uart_event_clear                     0x0002b13f   Thumb Code    14  nrfx_uart.o(i.nrf_uart_event_clear)
    i.nrf_uart_hwfc_pins_set                 0x0002b14c   Section        0  nrfx_uart.o(i.nrf_uart_hwfc_pins_set)
    nrf_uart_hwfc_pins_set                   0x0002b14d   Thumb Code    12  nrfx_uart.o(i.nrf_uart_hwfc_pins_set)
    i.nrf_uart_int_disable                   0x0002b158   Section        0  nrfx_uart.o(i.nrf_uart_int_disable)
    nrf_uart_int_disable                     0x0002b159   Thumb Code     6  nrfx_uart.o(i.nrf_uart_int_disable)
    i.nrf_uart_int_enable                    0x0002b15e   Section        0  nrfx_uart.o(i.nrf_uart_int_enable)
    nrf_uart_int_enable                      0x0002b15f   Thumb Code     6  nrfx_uart.o(i.nrf_uart_int_enable)
    i.nrf_uart_int_enable_check              0x0002b164   Section        0  nrfx_uart.o(i.nrf_uart_int_enable_check)
    nrf_uart_int_enable_check                0x0002b165   Thumb Code    18  nrfx_uart.o(i.nrf_uart_int_enable_check)
    i.nrf_uart_task_trigger                  0x0002b176   Section        0  nrfx_uart.o(i.nrf_uart_task_trigger)
    nrf_uart_task_trigger                    0x0002b177   Thumb Code     6  nrfx_uart.o(i.nrf_uart_task_trigger)
    i.nrf_uart_txrx_pins_set                 0x0002b17c   Section        0  nrfx_uart.o(i.nrf_uart_txrx_pins_set)
    nrf_uart_txrx_pins_set                   0x0002b17d   Thumb Code    14  nrfx_uart.o(i.nrf_uart_txrx_pins_set)
    i.nrf_uarte_errorsrc_get_and_clear       0x0002b18a   Section        0  nrfx_uarte.o(i.nrf_uarte_errorsrc_get_and_clear)
    nrf_uarte_errorsrc_get_and_clear         0x0002b18b   Thumb Code    12  nrfx_uarte.o(i.nrf_uarte_errorsrc_get_and_clear)
    i.nrf_uarte_event_check                  0x0002b196   Section        0  nrfx_uarte.o(i.nrf_uarte_event_check)
    nrf_uarte_event_check                    0x0002b197   Thumb Code    14  nrfx_uarte.o(i.nrf_uarte_event_check)
    i.nrf_uarte_event_clear                  0x0002b1a4   Section        0  nrfx_uarte.o(i.nrf_uarte_event_clear)
    nrf_uarte_event_clear                    0x0002b1a5   Thumb Code    14  nrfx_uarte.o(i.nrf_uarte_event_clear)
    i.nrf_uarte_hwfc_pins_set                0x0002b1b2   Section        0  nrfx_uarte.o(i.nrf_uarte_hwfc_pins_set)
    nrf_uarte_hwfc_pins_set                  0x0002b1b3   Thumb Code    12  nrfx_uarte.o(i.nrf_uarte_hwfc_pins_set)
    i.nrf_uarte_int_disable                  0x0002b1be   Section        0  nrfx_uarte.o(i.nrf_uarte_int_disable)
    nrf_uarte_int_disable                    0x0002b1bf   Thumb Code     6  nrfx_uarte.o(i.nrf_uarte_int_disable)
    i.nrf_uarte_int_enable                   0x0002b1c4   Section        0  nrfx_uarte.o(i.nrf_uarte_int_enable)
    nrf_uarte_int_enable                     0x0002b1c5   Thumb Code     6  nrfx_uarte.o(i.nrf_uarte_int_enable)
    i.nrf_uarte_rx_amount_get                0x0002b1ca   Section        0  nrfx_uarte.o(i.nrf_uarte_rx_amount_get)
    nrf_uarte_rx_amount_get                  0x0002b1cb   Thumb Code    10  nrfx_uarte.o(i.nrf_uarte_rx_amount_get)
    i.nrf_uarte_task_trigger                 0x0002b1d4   Section        0  nrfx_uarte.o(i.nrf_uarte_task_trigger)
    nrf_uarte_task_trigger                   0x0002b1d5   Thumb Code     6  nrfx_uarte.o(i.nrf_uarte_task_trigger)
    i.nrf_uarte_txrx_pins_set                0x0002b1da   Section        0  nrfx_uarte.o(i.nrf_uarte_txrx_pins_set)
    nrf_uarte_txrx_pins_set                  0x0002b1db   Thumb Code    14  nrfx_uarte.o(i.nrf_uarte_txrx_pins_set)
    i.nrfx_clock_enable                      0x0002b1e8   Section        0  nrfx_clock.o(i.nrfx_clock_enable)
    i.nrfx_clock_init                        0x0002b1fc   Section        0  nrfx_clock.o(i.nrfx_clock_init)
    i.nrfx_clock_lfclk_stop                  0x0002b220   Section        0  nrfx_clock.o(i.nrfx_clock_lfclk_stop)
    i.nrfx_coredep_delay_us                  0x0002b240   Section        0  app_timer.o(i.nrfx_coredep_delay_us)
    nrfx_coredep_delay_us                    0x0002b241   Thumb Code    20  app_timer.o(i.nrfx_coredep_delay_us)
    i.nrfx_get_irq_number                    0x0002b258   Section        0  nrfx_uart.o(i.nrfx_get_irq_number)
    nrfx_get_irq_number                      0x0002b259   Thumb Code    10  nrfx_uart.o(i.nrfx_get_irq_number)
    i.nrfx_get_irq_number                    0x0002b262   Section        0  nrfx_uarte.o(i.nrfx_get_irq_number)
    nrfx_get_irq_number                      0x0002b263   Thumb Code    10  nrfx_uarte.o(i.nrfx_get_irq_number)
    i.nrfx_gpiote_in_event_enable            0x0002b26c   Section        0  nrfx_gpiote.o(i.nrfx_gpiote_in_event_enable)
    i.nrfx_gpiote_in_init                    0x0002b318   Section        0  nrfx_gpiote.o(i.nrfx_gpiote_in_init)
    i.nrfx_gpiote_in_is_set                  0x0002b410   Section        0  nrfx_gpiote.o(i.nrfx_gpiote_in_is_set)
    i.nrfx_gpiote_init                       0x0002b424   Section        0  nrfx_gpiote.o(i.nrfx_gpiote_init)
    i.nrfx_gpiote_is_init                    0x0002b4e8   Section        0  nrfx_gpiote.o(i.nrfx_gpiote_is_init)
    i.nrfx_is_in_ram                         0x0002b4fc   Section        0  nrfx_uarte.o(i.nrfx_is_in_ram)
    nrfx_is_in_ram                           0x0002b4fd   Thumb Code    20  nrfx_uarte.o(i.nrfx_is_in_ram)
    i.nrfx_power_clock_irq_init              0x0002b510   Section        0  nrfx_clock.o(i.nrfx_power_clock_irq_init)
    nrfx_power_clock_irq_init                0x0002b511   Thumb Code   140  nrfx_clock.o(i.nrfx_power_clock_irq_init)
    i.nrfx_prs_acquire                       0x0002b5a8   Section        0  nrfx_prs.o(i.nrfx_prs_acquire)
    i.nrfx_uart_0_irq_handler                0x0002b5f8   Section        0  nrfx_uart.o(i.nrfx_uart_0_irq_handler)
    i.nrfx_uart_init                         0x0002b60c   Section        0  nrfx_uart.o(i.nrfx_uart_init)
    i.nrfx_uart_rx                           0x0002b694   Section        0  nrfx_uart.o(i.nrfx_uart_rx)
    i.nrfx_uart_tx                           0x0002b7b8   Section        0  nrfx_uart.o(i.nrfx_uart_tx)
    i.nrfx_uart_tx_in_progress               0x0002b844   Section        0  nrfx_uart.o(i.nrfx_uart_tx_in_progress)
    i.nrfx_uarte_0_irq_handler               0x0002b868   Section        0  nrfx_uarte.o(i.nrfx_uarte_0_irq_handler)
    i.nrfx_uarte_init                        0x0002b87c   Section        0  nrfx_uarte.o(i.nrfx_uarte_init)
    i.nrfx_uarte_rx                          0x0002b8fc   Section        0  nrfx_uarte.o(i.nrfx_uarte_rx)
    i.nrfx_uarte_tx                          0x0002ba34   Section        0  nrfx_uarte.o(i.nrfx_uarte_tx)
    i.nrfx_uarte_tx_in_progress              0x0002badc   Section        0  nrfx_uarte.o(i.nrfx_uarte_tx_in_progress)
    i.nus_data_handler                       0x0002bafc   Section        0  main.o(i.nus_data_handler)
    nus_data_handler                         0x0002bafd   Thumb Code   112  main.o(i.nus_data_handler)
    i.on_adv_evt                             0x0002bb9c   Section        0  main.o(i.on_adv_evt)
    on_adv_evt                               0x0002bb9d   Thumb Code    50  main.o(i.on_adv_evt)
    i.on_conn_params_evt                     0x0002bbd0   Section        0  main.o(i.on_conn_params_evt)
    on_conn_params_evt                       0x0002bbd1   Thumb Code    38  main.o(i.on_conn_params_evt)
    i.on_conn_params_update                  0x0002bbfc   Section        0  ble_conn_params.o(i.on_conn_params_update)
    on_conn_params_update                    0x0002bbfd   Thumb Code    48  ble_conn_params.o(i.on_conn_params_update)
    i.on_connect                             0x0002bc2c   Section        0  ble_conn_params.o(i.on_connect)
    on_connect                               0x0002bc2d   Thumb Code   102  ble_conn_params.o(i.on_connect)
    i.on_connect                             0x0002bc9c   Section        0  ble_nus.o(i.on_connect)
    on_connect                               0x0002bc9d   Thumb Code   116  ble_nus.o(i.on_connect)
    i.on_connected                           0x0002bd10   Section        0  ble_advertising.o(i.on_connected)
    on_connected                             0x0002bd11   Thumb Code    14  ble_advertising.o(i.on_connected)
    i.on_connected_evt                       0x0002bd20   Section        0  nrf_ble_gatt.o(i.on_connected_evt)
    on_connected_evt                         0x0002bd21   Thumb Code   130  nrf_ble_gatt.o(i.on_connected_evt)
    i.on_data_length_update_evt              0x0002bddc   Section        0  nrf_ble_gatt.o(i.on_data_length_update_evt)
    on_data_length_update_evt                0x0002bddd   Thumb Code    78  nrf_ble_gatt.o(i.on_data_length_update_evt)
    i.on_data_length_update_request_evt      0x0002be30   Section        0  nrf_ble_gatt.o(i.on_data_length_update_request_evt)
    on_data_length_update_request_evt        0x0002be31   Thumb Code    48  nrf_ble_gatt.o(i.on_data_length_update_request_evt)
    i.on_disconnect                          0x0002be60   Section        0  ble_conn_params.o(i.on_disconnect)
    on_disconnect                            0x0002be61   Thumb Code    50  ble_conn_params.o(i.on_disconnect)
    i.on_disconnected                        0x0002be92   Section        0  ble_advertising.o(i.on_disconnected)
    on_disconnected                          0x0002be93   Thumb Code    50  ble_advertising.o(i.on_disconnected)
    i.on_disconnected_evt                    0x0002bec4   Section        0  nrf_ble_gatt.o(i.on_disconnected_evt)
    on_disconnected_evt                      0x0002bec5   Thumb Code    20  nrf_ble_gatt.o(i.on_disconnected_evt)
    i.on_exchange_mtu_request_evt            0x0002bed8   Section        0  nrf_ble_gatt.o(i.on_exchange_mtu_request_evt)
    on_exchange_mtu_request_evt              0x0002bed9   Thumb Code   134  nrf_ble_gatt.o(i.on_exchange_mtu_request_evt)
    i.on_exchange_mtu_rsp_evt                0x0002bf98   Section        0  nrf_ble_gatt.o(i.on_exchange_mtu_rsp_evt)
    on_exchange_mtu_rsp_evt                  0x0002bf99   Thumb Code    94  nrf_ble_gatt.o(i.on_exchange_mtu_rsp_evt)
    i.on_hvx_tx_complete                     0x0002bffc   Section        0  ble_nus.o(i.on_hvx_tx_complete)
    on_hvx_tx_complete                       0x0002bffd   Thumb Code    68  ble_nus.o(i.on_hvx_tx_complete)
    i.on_operation_failure                   0x0002c040   Section        0  nrf_fstorage_sd.o(i.on_operation_failure)
    on_operation_failure                     0x0002c041   Thumb Code    32  nrf_fstorage_sd.o(i.on_operation_failure)
    i.on_operation_success                   0x0002c064   Section        0  nrf_fstorage_sd.o(i.on_operation_success)
    on_operation_success                     0x0002c065   Thumb Code    92  nrf_fstorage_sd.o(i.on_operation_success)
    i.on_rw_authorize_request                0x0002c0c4   Section        0  nrf_ble_qwr.o(i.on_rw_authorize_request)
    on_rw_authorize_request                  0x0002c0c5   Thumb Code   106  nrf_ble_qwr.o(i.on_rw_authorize_request)
    i.on_terminated                          0x0002c12e   Section        0  ble_advertising.o(i.on_terminated)
    on_terminated                            0x0002c12f   Thumb Code    64  ble_advertising.o(i.on_terminated)
    i.on_user_mem_release                    0x0002c16e   Section        0  nrf_ble_qwr.o(i.on_user_mem_release)
    on_user_mem_release                      0x0002c16f   Thumb Code     2  nrf_ble_qwr.o(i.on_user_mem_release)
    i.on_user_mem_request                    0x0002c170   Section        0  nrf_ble_qwr.o(i.on_user_mem_request)
    on_user_mem_request                      0x0002c171   Thumb Code    32  nrf_ble_qwr.o(i.on_user_mem_request)
    i.on_write                               0x0002c190   Section        0  ble_conn_params.o(i.on_write)
    on_write                                 0x0002c191   Thumb Code    82  ble_conn_params.o(i.on_write)
    i.on_write                               0x0002c1e8   Section        0  ble_nus.o(i.on_write)
    on_write                                 0x0002c1e9   Thumb Code   148  ble_nus.o(i.on_write)
    i.phy_is_valid                           0x0002c27c   Section        0  ble_advertising.o(i.phy_is_valid)
    phy_is_valid                             0x0002c27d   Thumb Code    28  ble_advertising.o(i.phy_is_valid)
    i.pin_configured_set                     0x0002c298   Section        0  nrfx_gpiote.o(i.pin_configured_set)
    pin_configured_set                       0x0002c299   Thumb Code    14  nrfx_gpiote.o(i.pin_configured_set)
    i.pin_in_use_by_gpiote                   0x0002c2ac   Section        0  nrfx_gpiote.o(i.pin_in_use_by_gpiote)
    pin_in_use_by_gpiote                     0x0002c2ad   Thumb Code    22  nrfx_gpiote.o(i.pin_in_use_by_gpiote)
    i.pin_in_use_by_port                     0x0002c2c8   Section        0  nrfx_gpiote.o(i.pin_in_use_by_port)
    pin_in_use_by_port                       0x0002c2c9   Thumb Code    18  nrfx_gpiote.o(i.pin_in_use_by_port)
    i.pin_in_use_by_te                       0x0002c2e0   Section        0  nrfx_gpiote.o(i.pin_in_use_by_te)
    pin_in_use_by_te                         0x0002c2e1   Thumb Code    26  nrfx_gpiote.o(i.pin_in_use_by_te)
    i.pin_in_use_clear                       0x0002c300   Section        0  nrfx_gpiote.o(i.pin_in_use_clear)
    pin_in_use_clear                         0x0002c301   Thumb Code     8  nrfx_gpiote.o(i.pin_in_use_clear)
    i.power_management_init                  0x0002c30c   Section        0  main.o(i.power_management_init)
    power_management_init                    0x0002c30d   Thumb Code    28  main.o(i.power_management_init)
    i.prs_box_get                            0x0002c328   Section        0  nrfx_prs.o(i.prs_box_get)
    prs_box_get                              0x0002c329   Thumb Code    16  nrfx_prs.o(i.prs_box_get)
    i.queue_free                             0x0002c340   Section        0  nrf_fstorage_sd.o(i.queue_free)
    queue_free                               0x0002c341   Thumb Code    14  nrf_fstorage_sd.o(i.queue_free)
    i.queue_load_next                        0x0002c358   Section        0  nrf_fstorage_sd.o(i.queue_load_next)
    queue_load_next                          0x0002c359   Thumb Code    30  nrf_fstorage_sd.o(i.queue_load_next)
    i.queue_process                          0x0002c384   Section        0  nrf_fstorage_sd.o(i.queue_process)
    queue_process                            0x0002c385   Thumb Code   134  nrf_fstorage_sd.o(i.queue_process)
    i.queue_start                            0x0002c414   Section        0  nrf_fstorage_sd.o(i.queue_start)
    queue_start                              0x0002c415   Thumb Code    24  nrf_fstorage_sd.o(i.queue_start)
    i.ram_end_address_get                    0x0002c430   Section        0  nrf_sdh_ble.o(i.ram_end_address_get)
    ram_end_address_get                      0x0002c431   Thumb Code    12  nrf_sdh_ble.o(i.ram_end_address_get)
    i.read                                   0x0002c440   Section        0  nrf_fstorage_sd.o(i.read)
    read                                     0x0002c441   Thumb Code    28  nrf_fstorage_sd.o(i.read)
    i.record_activate                        0x0002c45c   Section        0  ble_conn_state.o(i.record_activate)
    record_activate                          0x0002c45d   Thumb Code    34  ble_conn_state.o(i.record_activate)
    i.record_invalidate                      0x0002c484   Section        0  ble_conn_state.o(i.record_invalidate)
    record_invalidate                        0x0002c485   Thumb Code    28  ble_conn_state.o(i.record_invalidate)
    i.record_purge_disconnected              0x0002c4a4   Section        0  ble_conn_state.o(i.record_purge_disconnected)
    record_purge_disconnected                0x0002c4a5   Thumb Code    66  ble_conn_state.o(i.record_purge_disconnected)
    i.record_set_disconnected                0x0002c4ec   Section        0  ble_conn_state.o(i.record_set_disconnected)
    record_set_disconnected                  0x0002c4ed   Thumb Code    14  ble_conn_state.o(i.record_set_disconnected)
    i.rmap                                   0x0002c500   Section        0  nrf_fstorage_sd.o(i.rmap)
    rmap                                     0x0002c501   Thumb Code     6  nrf_fstorage_sd.o(i.rmap)
    i.rtc1_compare0_set                      0x0002c508   Section        0  app_timer.o(i.rtc1_compare0_set)
    rtc1_compare0_set                        0x0002c509   Thumb Code     6  app_timer.o(i.rtc1_compare0_set)
    i.rtc1_counter_get                       0x0002c514   Section        0  app_timer.o(i.rtc1_counter_get)
    rtc1_counter_get                         0x0002c515   Thumb Code     6  app_timer.o(i.rtc1_counter_get)
    i.rtc1_init                              0x0002c520   Section        0  app_timer.o(i.rtc1_init)
    rtc1_init                                0x0002c521   Thumb Code    18  app_timer.o(i.rtc1_init)
    i.rtc1_start                             0x0002c538   Section        0  app_timer.o(i.rtc1_start)
    rtc1_start                               0x0002c539   Thumb Code    48  app_timer.o(i.rtc1_start)
    i.rtc1_stop                              0x0002c574   Section        0  app_timer.o(i.rtc1_stop)
    rtc1_stop                                0x0002c575   Thumb Code    68  app_timer.o(i.rtc1_stop)
    i.rx_byte                                0x0002c5cc   Section        0  nrfx_uart.o(i.rx_byte)
    rx_byte                                  0x0002c5cd   Thumb Code    62  nrfx_uart.o(i.rx_byte)
    i.rx_char_add                            0x0002c60a   Section        0  ble_nus.o(i.rx_char_add)
    rx_char_add                              0x0002c60b   Thumb Code   238  ble_nus.o(i.rx_char_add)
    i.rx_done_event                          0x0002c6f8   Section        0  nrfx_uart.o(i.rx_done_event)
    rx_done_event                            0x0002c6f9   Thumb Code    28  nrfx_uart.o(i.rx_done_event)
    i.rx_done_event                          0x0002c714   Section        0  nrfx_uarte.o(i.rx_done_event)
    rx_done_event                            0x0002c715   Thumb Code    32  nrfx_uarte.o(i.rx_done_event)
    i.rx_enable                              0x0002c734   Section        0  nrfx_uart.o(i.rx_enable)
    rx_enable                                0x0002c735   Thumb Code    34  nrfx_uart.o(i.rx_enable)
    i.sd_nvic_EnableIRQ                      0x0002c758   Section        0  nrf_sdh.o(i.sd_nvic_EnableIRQ)
    sd_nvic_EnableIRQ                        0x0002c759   Thumb Code   142  nrf_sdh.o(i.sd_nvic_EnableIRQ)
    i.sd_nvic_critical_region_enter          0x0002c7f4   Section        0  app_util_platform.o(i.sd_nvic_critical_region_enter)
    sd_nvic_critical_region_enter            0x0002c7f5   Thumb Code    90  app_util_platform.o(i.sd_nvic_critical_region_enter)
    i.sd_state_evt_handler                   0x0002c85c   Section        0  nrf_drv_clock.o(i.sd_state_evt_handler)
    sd_state_evt_handler                     0x0002c85d   Thumb Code    96  nrf_drv_clock.o(i.sd_state_evt_handler)
    i.sdh_request_observer_notify            0x0002c8c4   Section        0  nrf_sdh.o(i.sdh_request_observer_notify)
    sdh_request_observer_notify              0x0002c8c5   Thumb Code    56  nrf_sdh.o(i.sdh_request_observer_notify)
    i.sdh_state_observer_notify              0x0002c900   Section        0  nrf_sdh.o(i.sdh_state_observer_notify)
    sdh_state_observer_notify                0x0002c901   Thumb Code    48  nrf_sdh.o(i.sdh_state_observer_notify)
    i.send_error_evt                         0x0002c934   Section        0  ble_conn_params.o(i.send_error_evt)
    send_error_evt                           0x0002c935   Thumb Code    20  ble_conn_params.o(i.send_error_evt)
    i.send_update_request                    0x0002c94c   Section        0  ble_conn_params.o(i.send_update_request)
    send_update_request                      0x0002c94d   Thumb Code    36  ble_conn_params.o(i.send_update_request)
    i.service_data_encode                    0x0002c970   Section        0  ble_advdata.o(i.service_data_encode)
    service_data_encode                      0x0002c971   Thumb Code   150  ble_advdata.o(i.service_data_encode)
    i.services_init                          0x0002ca08   Section        0  main.o(i.services_init)
    services_init                            0x0002ca09   Thumb Code    76  main.o(i.services_init)
    i.set_adv_mode_directed                  0x0002ca64   Section        0  ble_advertising.o(i.set_adv_mode_directed)
    set_adv_mode_directed                    0x0002ca65   Thumb Code    48  ble_advertising.o(i.set_adv_mode_directed)
    i.set_adv_mode_directed_high_duty        0x0002ca94   Section        0  ble_advertising.o(i.set_adv_mode_directed_high_duty)
    set_adv_mode_directed_high_duty          0x0002ca95   Thumb Code    36  ble_advertising.o(i.set_adv_mode_directed_high_duty)
    i.set_adv_mode_fast                      0x0002cab8   Section        0  ble_advertising.o(i.set_adv_mode_fast)
    set_adv_mode_fast                        0x0002cab9   Thumb Code    92  ble_advertising.o(i.set_adv_mode_fast)
    i.set_adv_mode_slow                      0x0002cb14   Section        0  ble_advertising.o(i.set_adv_mode_slow)
    set_adv_mode_slow                        0x0002cb15   Thumb Code    92  ble_advertising.o(i.set_adv_mode_slow)
    i.sleep_mode_enter                       0x0002cb70   Section        0  main.o(i.sleep_mode_enter)
    sleep_mode_enter                         0x0002cb71   Thumb Code    76  main.o(i.sleep_mode_enter)
    i.soc_evt_handler                        0x0002cbbc   Section        0  nrf_drv_clock.o(i.soc_evt_handler)
    soc_evt_handler                          0x0002cbbd   Thumb Code    22  nrf_drv_clock.o(i.soc_evt_handler)
    i.softdevice_evt_irq_disable             0x0002cbd8   Section        0  nrf_sdh.o(i.softdevice_evt_irq_disable)
    softdevice_evt_irq_disable               0x0002cbd9   Thumb Code    98  nrf_sdh.o(i.softdevice_evt_irq_disable)
    i.softdevices_evt_irq_enable             0x0002cc44   Section        0  nrf_sdh.o(i.softdevices_evt_irq_enable)
    softdevices_evt_irq_enable               0x0002cc45   Thumb Code    30  nrf_sdh.o(i.softdevices_evt_irq_enable)
    i.startup_event_extract                  0x0002cc62   Section        0  bsp_btn_ble.o(i.startup_event_extract)
    startup_event_extract                    0x0002cc63   Thumb Code    38  bsp_btn_ble.o(i.startup_event_extract)
    i.std_header_set                         0x0002cc88   Section        0  nrf_log_frontend.o(i.std_header_set)
    std_header_set                           0x0002cc89   Thumb Code    96  nrf_log_frontend.o(i.std_header_set)
    i.std_n                                  0x0002ccec   Section        0  nrf_log_frontend.o(i.std_n)
    std_n                                    0x0002cced   Thumb Code   106  nrf_log_frontend.o(i.std_n)
    i.ticks_diff_get                         0x0002cd5c   Section        0  app_timer.o(i.ticks_diff_get)
    ticks_diff_get                           0x0002cd5d   Thumb Code    10  app_timer.o(i.ticks_diff_get)
    i.timeout_handler_exec                   0x0002cd66   Section        0  app_timer.o(i.timeout_handler_exec)
    timeout_handler_exec                     0x0002cd67   Thumb Code    12  app_timer.o(i.timeout_handler_exec)
    i.timer_list_handler                     0x0002cd74   Section        0  app_timer.o(i.timer_list_handler)
    timer_list_handler                       0x0002cd75   Thumb Code    68  app_timer.o(i.timer_list_handler)
    i.timer_list_handler_sched               0x0002cdc4   Section        0  app_timer.o(i.timer_list_handler_sched)
    timer_list_handler_sched                 0x0002cdc5   Thumb Code    10  app_timer.o(i.timer_list_handler_sched)
    i.timer_list_insert                      0x0002cdd0   Section        0  app_timer.o(i.timer_list_insert)
    timer_list_insert                        0x0002cdd1   Thumb Code    98  app_timer.o(i.timer_list_insert)
    i.timer_list_remove                      0x0002ce38   Section        0  app_timer.o(i.timer_list_remove)
    timer_list_remove                        0x0002ce39   Thumb Code   118  app_timer.o(i.timer_list_remove)
    i.timer_start_op_schedule                0x0002cec0   Section        0  app_timer.o(i.timer_start_op_schedule)
    timer_start_op_schedule                  0x0002cec1   Thumb Code    94  app_timer.o(i.timer_start_op_schedule)
    i.timer_stop_op_schedule                 0x0002cf1e   Section        0  app_timer.o(i.timer_stop_op_schedule)
    timer_stop_op_schedule                   0x0002cf1f   Thumb Code    66  app_timer.o(i.timer_stop_op_schedule)
    i.timer_timeouts_check                   0x0002cf60   Section        0  app_timer.o(i.timer_timeouts_check)
    timer_timeouts_check                     0x0002cf61   Thumb Code   130  app_timer.o(i.timer_timeouts_check)
    i.timer_timeouts_check_sched             0x0002cff8   Section        0  app_timer.o(i.timer_timeouts_check_sched)
    timer_timeouts_check_sched               0x0002cff9   Thumb Code    10  app_timer.o(i.timer_timeouts_check_sched)
    i.timers_init                            0x0002d002   Section        0  main.o(i.timers_init)
    timers_init                              0x0002d003   Thumb Code    28  main.o(i.timers_init)
    i.tx_blocking                            0x0002d01e   Section        0  nrfx_uart.o(i.tx_blocking)
    tx_blocking                              0x0002d01f   Thumb Code    54  nrfx_uart.o(i.tx_blocking)
    i.tx_byte                                0x0002d054   Section        0  nrfx_uart.o(i.tx_byte)
    tx_byte                                  0x0002d055   Thumb Code    38  nrfx_uart.o(i.tx_byte)
    i.tx_char_add                            0x0002d07a   Section        0  ble_nus.o(i.tx_char_add)
    tx_char_add                              0x0002d07b   Thumb Code   308  ble_nus.o(i.tx_char_add)
    i.tx_done_event                          0x0002d1ae   Section        0  nrfx_uart.o(i.tx_done_event)
    tx_done_event                            0x0002d1af   Thumb Code    32  nrfx_uart.o(i.tx_done_event)
    i.tx_done_event                          0x0002d1ce   Section        0  nrfx_uarte.o(i.tx_done_event)
    tx_done_event                            0x0002d1cf   Thumb Code    36  nrfx_uarte.o(i.tx_done_event)
    i.tx_power_level_encode                  0x0002d1f2   Section        0  ble_advdata.o(i.tx_power_level_encode)
    tx_power_level_encode                    0x0002d1f3   Thumb Code    54  ble_advdata.o(i.tx_power_level_encode)
    i.uart_event_handle                      0x0002d228   Section        0  main.o(i.uart_event_handle)
    i.uart_event_handler                     0x0002d2e0   Section        0  app_uart_fifo.o(i.uart_event_handler)
    uart_event_handler                       0x0002d2e1   Thumb Code   184  app_uart_fifo.o(i.uart_event_handler)
    i.uart_evt_handler                       0x0002d3b4   Section        0  nrf_drv_uart.o(i.uart_evt_handler)
    uart_evt_handler                         0x0002d3b5   Thumb Code    46  nrf_drv_uart.o(i.uart_evt_handler)
    i.uart_init                              0x0002d3ec   Section        0  main.o(i.uart_init)
    uart_init                                0x0002d3ed   Thumb Code    74  main.o(i.uart_init)
    i.uart_irq_handler                       0x0002d448   Section        0  nrfx_uart.o(i.uart_irq_handler)
    uart_irq_handler                         0x0002d449   Thumb Code   332  nrfx_uart.o(i.uart_irq_handler)
    i.uarte_evt_handler                      0x0002d594   Section        0  nrf_drv_uart.o(i.uarte_evt_handler)
    uarte_evt_handler                        0x0002d595   Thumb Code    46  nrf_drv_uart.o(i.uarte_evt_handler)
    i.uarte_irq_handler                      0x0002d5cc   Section        0  nrfx_uarte.o(i.uarte_irq_handler)
    uarte_irq_handler                        0x0002d5cd   Thumb Code   268  nrfx_uarte.o(i.uarte_irq_handler)
    i.uint16_decode                          0x0002d6d8   Section        0  ble_srv_common.o(i.uint16_decode)
    uint16_decode                            0x0002d6d9   Thumb Code    12  ble_srv_common.o(i.uint16_decode)
    i.uint16_encode                          0x0002d6e4   Section        0  ble_advdata.o(i.uint16_encode)
    uint16_encode                            0x0002d6e5   Thumb Code    12  ble_advdata.o(i.uint16_encode)
    i.uninit                                 0x0002d6f0   Section        0  nrf_fstorage_sd.o(i.uninit)
    uninit                                   0x0002d6f1   Thumb Code    26  nrf_fstorage_sd.o(i.uninit)
    i.update_timeout_handler                 0x0002d714   Section        0  ble_conn_params.o(i.update_timeout_handler)
    update_timeout_handler                   0x0002d715   Thumb Code   110  ble_conn_params.o(i.update_timeout_handler)
    i.use_whitelist                          0x0002d788   Section        0  ble_advertising.o(i.use_whitelist)
    use_whitelist                            0x0002d789   Thumb Code    30  ble_advertising.o(i.use_whitelist)
    i.user_mem_reply                         0x0002d7a6   Section        0  nrf_ble_qwr.o(i.user_mem_reply)
    user_mem_reply                           0x0002d7a7   Thumb Code    44  nrf_ble_qwr.o(i.user_mem_reply)
    i.user_op_alloc                          0x0002d7d4   Section        0  app_timer.o(i.user_op_alloc)
    user_op_alloc                            0x0002d7d5   Thumb Code    56  app_timer.o(i.user_op_alloc)
    i.user_op_enque                          0x0002d810   Section        0  app_timer.o(i.user_op_enque)
    user_op_enque                            0x0002d811   Thumb Code     6  app_timer.o(i.user_op_enque)
    i.uuid_list_encode                       0x0002d81c   Section        0  ble_advdata.o(i.uuid_list_encode)
    uuid_list_encode                         0x0002d81d   Thumb Code    78  ble_advdata.o(i.uuid_list_encode)
    i.uuid_list_sized_encode                 0x0002d86a   Section        0  ble_advdata.o(i.uuid_list_sized_encode)
    uuid_list_sized_encode                   0x0002d86b   Thumb Code   214  ble_advdata.o(i.uuid_list_sized_encode)
    i.wakeup_button_cfg                      0x0002d940   Section        0  bsp.o(i.wakeup_button_cfg)
    wakeup_button_cfg                        0x0002d941   Thumb Code   100  bsp.o(i.wakeup_button_cfg)
    i.whitelist_has_entries                  0x0002d9a8   Section        0  ble_advertising.o(i.whitelist_has_entries)
    whitelist_has_entries                    0x0002d9a9   Thumb Code     8  ble_advertising.o(i.whitelist_has_entries)
    i.wmap                                   0x0002d9b0   Section        0  nrf_fstorage_sd.o(i.wmap)
    wmap                                     0x0002d9b1   Thumb Code     6  nrf_fstorage_sd.o(i.wmap)
    i.write                                  0x0002d9b8   Section        0  nrf_fstorage_sd.o(i.write)
    write                                    0x0002d9b9   Thumb Code    80  nrf_fstorage_sd.o(i.write)
    i.write_execute                          0x0002da0c   Section        0  nrf_fstorage_sd.o(i.write_execute)
    write_execute                            0x0002da0d   Thumb Code    82  nrf_fstorage_sd.o(i.write_execute)
    .constdata                               0x0002da64   Section       24  main.o(.constdata)
    .constdata                               0x0002da7c   Section        8  boards.o(.constdata)
    m_board_led_list                         0x0002da7c   Data           4  boards.o(.constdata)
    m_board_btn_list                         0x0002da80   Data           4  boards.o(.constdata)
    .constdata                               0x0002da84   Section       44  bsp.o(.constdata)
    m_bsp_leds_tmr                           0x0002da84   Data           4  bsp.o(.constdata)
    m_bsp_alert_tmr                          0x0002da88   Data           4  bsp.o(.constdata)
    m_bsp_button_tmr                         0x0002da8c   Data           4  bsp.o(.constdata)
    app_buttons                              0x0002da90   Data          32  bsp.o(.constdata)
    .constdata                               0x0002dab0   Section       22  nrf_ble_gatt.o(.constdata)
    .constdata                               0x0002dac8   Section       16  ble_nus.o(.constdata)
    .constdata                               0x0002dad8   Section       66  nrfx_gpiote.o(.constdata)
    __func__                                 0x0002dae0   Data          17  nrfx_gpiote.o(.constdata)
    __func__                                 0x0002daf1   Data          21  nrfx_gpiote.o(.constdata)
    __func__                                 0x0002db06   Data          20  nrfx_gpiote.o(.constdata)
    .constdata                               0x0002db1c   Section       46  nrfx_uart.o(.constdata)
    __func__                                 0x0002db1c   Data          15  nrfx_uart.o(.constdata)
    irq_handlers                             0x0002db2c   Data           4  nrfx_uart.o(.constdata)
    __func__                                 0x0002db30   Data          13  nrfx_uart.o(.constdata)
    __func__                                 0x0002db3d   Data          13  nrfx_uart.o(.constdata)
    .constdata                               0x0002db4c   Section       48  nrfx_uarte.o(.constdata)
    __func__                                 0x0002db4c   Data          16  nrfx_uarte.o(.constdata)
    irq_handlers                             0x0002db5c   Data           4  nrfx_uarte.o(.constdata)
    __func__                                 0x0002db60   Data          14  nrfx_uarte.o(.constdata)
    __func__                                 0x0002db6e   Data          14  nrfx_uarte.o(.constdata)
    .constdata                               0x0002db7c   Section        7  app_button.o(.constdata)
    m_detection_delay_timer_id               0x0002db7c   Data           4  app_button.o(.constdata)
    .constdata                               0x0002db90   Section        6  app_timer.o(.constdata)
    delay_bytecode                           0x0002db90   Data           6  app_timer.o(.constdata)
    .constdata                               0x0002db98   Section       32  app_uart_fifo.o(.constdata)
    .constdata                               0x0002dbb8   Section       48  nrf_fstorage_sd.o(.constdata)
    m_flash_info                             0x0002dbb8   Data          12  nrf_fstorage_sd.o(.constdata)
    m_fifo                                   0x0002dbc4   Data           4  nrf_fstorage_sd.o(.constdata)
    .constdata                               0x0002dbe8   Section       36  nrf_pwr_mgmt.o(.constdata)
    pwr_mgmt_data_array                      0x0002dbe8   Data          24  nrf_pwr_mgmt.o(.constdata)
    pwr_mgmt_data                            0x0002dc00   Data          12  nrf_pwr_mgmt.o(.constdata)
    .constdata                               0x0002dc0c   Section      316  nrf_strerror.o(.constdata)
    m_unknown_str                            0x0002dc0c   Data          19  nrf_strerror.o(.constdata)
    nrf_strerror_array                       0x0002dc20   Data         296  nrf_strerror.o(.constdata)
    .constdata                               0x0002dd48   Section       88  nrf_sdh.o(.constdata)
    sdh_req_observers_array                  0x0002dd48   Data          16  nrf_sdh.o(.constdata)
    sdh_req_observers                        0x0002dd58   Data          12  nrf_sdh.o(.constdata)
    sdh_state_observers_array                0x0002dd64   Data          16  nrf_sdh.o(.constdata)
    sdh_state_observers                      0x0002dd74   Data          12  nrf_sdh.o(.constdata)
    sdh_stack_observers_array                0x0002dd80   Data          16  nrf_sdh.o(.constdata)
    sdh_stack_observers                      0x0002dd90   Data          12  nrf_sdh.o(.constdata)
    .constdata                               0x0002dda0   Section       48  nrf_sdh_ble.o(.constdata)
    sdh_ble_observers_array                  0x0002dda0   Data          32  nrf_sdh_ble.o(.constdata)
    sdh_ble_observers                        0x0002ddc0   Data          12  nrf_sdh_ble.o(.constdata)
    .constdata                               0x0002ddd0   Section       28  nrf_sdh_soc.o(.constdata)
    sdh_soc_observers_array                  0x0002ddd0   Data          16  nrf_sdh_soc.o(.constdata)
    sdh_soc_observers                        0x0002dde0   Data          12  nrf_sdh_soc.o(.constdata)
    .conststring                             0x0002ddec   Section      162  nrf_ble_gatt.o(.conststring)
    .conststring                             0x0002de90   Section     1003  nrf_strerror.o(.conststring)
    .conststring                             0x0002e27c   Section      463  nrf_sdh_ble.o(.conststring)
    .conststrlit                             0x0002e44c   Section       13  nrf_ble_gatt.o(.conststrlit)
    .conststrlit                             0x0002e45c   Section        8  ble_nus.o(.conststrlit)
    .conststrlit                             0x0002e464   Section        6  nrf_drv_clock.o(.conststrlit)
    .conststrlit                             0x0002e46c   Section        6  nrfx_clock.o(.conststrlit)
    .conststrlit                             0x0002e474   Section        7  nrfx_gpiote.o(.conststrlit)
    .conststrlit                             0x0002e47c   Section        4  nrfx_prs.o(.conststrlit)
    .conststrlit                             0x0002e480   Section        5  nrfx_uart.o(.conststrlit)
    .conststrlit                             0x0002e488   Section        6  nrfx_uarte.o(.conststrlit)
    .conststrlit                             0x0002e490   Section       13  nrf_fstorage.o(.conststrlit)
    .conststrlit                             0x0002e4a0   Section       14  nrf_fstorage_sd.o(.conststrlit)
    .conststrlit                             0x0002e4b0   Section        9  nrf_pwr_mgmt.o(.conststrlit)
    .conststrlit                             0x0002e4bc   Section       24  nrf_log_frontend.o(.conststrlit)
    .conststrlit                             0x0002e4d4   Section        8  nrf_sdh.o(.conststrlit)
    .conststrlit                             0x0002e4dc   Section       12  nrf_sdh_ble.o(.conststrlit)
    .conststrlit                             0x0002e4e8   Section       12  nrf_sdh_soc.o(.conststrlit)
    log_const_data                           0x0002e514   Section        8  nrf_ble_gatt.o(log_const_data)
    __tagsym$$used                           0x0002e514   Number         0  nrf_ble_gatt.o(log_const_data)
    log_const_data                           0x0002e51c   Section        8  ble_nus.o(log_const_data)
    __tagsym$$used                           0x0002e51c   Number         0  ble_nus.o(log_const_data)
    log_const_data                           0x0002e524   Section        8  nrf_drv_clock.o(log_const_data)
    __tagsym$$used                           0x0002e524   Number         0  nrf_drv_clock.o(log_const_data)
    log_const_data                           0x0002e52c   Section        8  nrfx_clock.o(log_const_data)
    __tagsym$$used                           0x0002e52c   Number         0  nrfx_clock.o(log_const_data)
    log_const_data                           0x0002e534   Section        8  nrfx_gpiote.o(log_const_data)
    __tagsym$$used                           0x0002e534   Number         0  nrfx_gpiote.o(log_const_data)
    log_const_data                           0x0002e53c   Section        8  nrfx_prs.o(log_const_data)
    __tagsym$$used                           0x0002e53c   Number         0  nrfx_prs.o(log_const_data)
    log_const_data                           0x0002e544   Section        8  nrfx_uart.o(log_const_data)
    __tagsym$$used                           0x0002e544   Number         0  nrfx_uart.o(log_const_data)
    log_const_data                           0x0002e54c   Section        8  nrfx_uarte.o(log_const_data)
    __tagsym$$used                           0x0002e54c   Number         0  nrfx_uarte.o(log_const_data)
    log_const_data                           0x0002e554   Section        8  nrf_fstorage.o(log_const_data)
    __tagsym$$used                           0x0002e554   Number         0  nrf_fstorage.o(log_const_data)
    log_const_data                           0x0002e55c   Section        8  nrf_fstorage_sd.o(log_const_data)
    __tagsym$$used                           0x0002e55c   Number         0  nrf_fstorage_sd.o(log_const_data)
    log_const_data                           0x0002e564   Section        8  nrf_pwr_mgmt.o(log_const_data)
    __tagsym$$used                           0x0002e564   Number         0  nrf_pwr_mgmt.o(log_const_data)
    log_const_data                           0x0002e56c   Section       16  nrf_log_frontend.o(log_const_data)
    __tagsym$$used                           0x0002e56c   Number         0  nrf_log_frontend.o(log_const_data)
    __tagsym$$used                           0x0002e574   Number         0  nrf_log_frontend.o(log_const_data)
    log_const_data                           0x0002e57c   Section        8  nrf_sdh.o(log_const_data)
    __tagsym$$used                           0x0002e57c   Number         0  nrf_sdh.o(log_const_data)
    log_const_data                           0x0002e584   Section        8  nrf_sdh_ble.o(log_const_data)
    __tagsym$$used                           0x0002e584   Number         0  nrf_sdh_ble.o(log_const_data)
    log_const_data                           0x0002e58c   Section        8  nrf_sdh_soc.o(log_const_data)
    __tagsym$$used                           0x0002e58c   Number         0  nrf_sdh_soc.o(log_const_data)
    nrf_balloc                               0x0002e594   Section       24  nrf_log_frontend.o(nrf_balloc)
    __tagsym$$used                           0x0002e594   Number         0  nrf_log_frontend.o(nrf_balloc)
    sdh_ble_observers0                       0x0002e5ac   Section        8  ble_conn_state.o(sdh_ble_observers0)
    __tagsym$$used                           0x0002e5ac   Number         0  ble_conn_state.o(sdh_ble_observers0)
    m_ble_evt_observer                       0x0002e5ac   Data           8  ble_conn_state.o(sdh_ble_observers0)
    sdh_ble_observers1                       0x0002e5b4   Section       16  main.o(sdh_ble_observers1)
    __tagsym$$used                           0x0002e5b4   Number         0  main.o(sdh_ble_observers1)
    m_gatt_obs                               0x0002e5b4   Data           8  main.o(sdh_ble_observers1)
    __tagsym$$used                           0x0002e5bc   Number         0  main.o(sdh_ble_observers1)
    m_advertising_ble_obs                    0x0002e5bc   Data           8  main.o(sdh_ble_observers1)
    sdh_ble_observers1                       0x0002e5c4   Section        8  bsp_btn_ble.o(sdh_ble_observers1)
    __tagsym$$used                           0x0002e5c4   Number         0  bsp_btn_ble.o(sdh_ble_observers1)
    m_ble_observer                           0x0002e5c4   Data           8  bsp_btn_ble.o(sdh_ble_observers1)
    sdh_ble_observers1                       0x0002e5cc   Section        8  ble_conn_params.o(sdh_ble_observers1)
    __tagsym$$used                           0x0002e5cc   Number         0  ble_conn_params.o(sdh_ble_observers1)
    m_ble_observer                           0x0002e5cc   Data           8  ble_conn_params.o(sdh_ble_observers1)
    sdh_ble_observers2                       0x0002e5d4   Section       16  main.o(sdh_ble_observers2)
    __tagsym$$used                           0x0002e5d4   Number         0  main.o(sdh_ble_observers2)
    m_nus_obs                                0x0002e5d4   Data           8  main.o(sdh_ble_observers2)
    __tagsym$$used                           0x0002e5dc   Number         0  main.o(sdh_ble_observers2)
    m_qwr_obs                                0x0002e5dc   Data           8  main.o(sdh_ble_observers2)
    sdh_ble_observers3                       0x0002e5e4   Section        8  main.o(sdh_ble_observers3)
    __tagsym$$used                           0x0002e5e4   Number         0  main.o(sdh_ble_observers3)
    m_ble_observer                           0x0002e5e4   Data           8  main.o(sdh_ble_observers3)
    sdh_req_observers0                       0x0002e5ec   Section        8  nrf_fstorage_sd.o(sdh_req_observers0)
    __tagsym$$used                           0x0002e5ec   Number         0  nrf_fstorage_sd.o(sdh_req_observers0)
    sdh_soc_observers0                       0x0002e5f4   Section        8  nrf_drv_clock.o(sdh_soc_observers0)
    __tagsym$$used                           0x0002e5f4   Number         0  nrf_drv_clock.o(sdh_soc_observers0)
    m_soc_evt_observer                       0x0002e5f4   Data           8  nrf_drv_clock.o(sdh_soc_observers0)
    sdh_soc_observers0                       0x0002e5fc   Section        8  nrf_fstorage_sd.o(sdh_soc_observers0)
    __tagsym$$used                           0x0002e5fc   Number         0  nrf_fstorage_sd.o(sdh_soc_observers0)
    m_sys_obs                                0x0002e5fc   Data           8  nrf_fstorage_sd.o(sdh_soc_observers0)
    sdh_soc_observers1                       0x0002e604   Section        8  main.o(sdh_soc_observers1)
    __tagsym$$used                           0x0002e604   Number         0  main.o(sdh_soc_observers1)
    m_advertising_soc_obs                    0x0002e604   Data           8  main.o(sdh_soc_observers1)
    sdh_stack_observers0                     0x0002e60c   Section        8  nrf_sdh_ble.o(sdh_stack_observers0)
    __tagsym$$used                           0x0002e60c   Number         0  nrf_sdh_ble.o(sdh_stack_observers0)
    m_nrf_sdh_ble_evts_poll                  0x0002e60c   Data           8  nrf_sdh_ble.o(sdh_stack_observers0)
    sdh_stack_observers0                     0x0002e614   Section        8  nrf_sdh_soc.o(sdh_stack_observers0)
    __tagsym$$used                           0x0002e614   Number         0  nrf_sdh_soc.o(sdh_stack_observers0)
    m_nrf_sdh_soc_evts_poll                  0x0002e614   Data           8  nrf_sdh_soc.o(sdh_stack_observers0)
    sdh_state_observers0                     0x0002e61c   Section        8  nrf_drv_clock.o(sdh_state_observers0)
    __tagsym$$used                           0x0002e61c   Number         0  nrf_drv_clock.o(sdh_state_observers0)
    m_sd_state_observer                      0x0002e61c   Data           8  nrf_drv_clock.o(sdh_state_observers0)
    sdh_state_observers0                     0x0002e624   Section        8  nrf_fstorage_sd.o(sdh_state_observers0)
    __tagsym$$used                           0x0002e624   Number         0  nrf_fstorage_sd.o(sdh_state_observers0)
    m_state_obs                              0x0002e624   Data           8  nrf_fstorage_sd.o(sdh_state_observers0)
    .data                                    0x20002a98   Section       49  main.o(.data)
    m_nus_link_ctx_storage_ctx_data_pool     0x20002a98   Data           4  main.o(.data)
    m_nus_link_ctx_storage                   0x20002a9c   Data           8  main.o(.data)
    m_nus                                    0x20002aa4   Data          28  main.o(.data)
    m_conn_handle                            0x20002ac0   Data           2  main.o(.data)
    m_ble_nus_max_data_len                   0x20002ac2   Data           2  main.o(.data)
    m_adv_uuids                              0x20002ac4   Data           4  main.o(.data)
    index                                    0x20002ac8   Data           1  main.o(.data)
    .data                                    0x20002acc   Section       21  bsp.o(.data)
    m_stable_state                           0x20002acc   Data           1  bsp.o(.data)
    m_leds_clear                             0x20002acd   Data           1  bsp.o(.data)
    m_indication_type                        0x20002ad0   Data           4  bsp.o(.data)
    m_alert_on                               0x20002ad4   Data           1  bsp.o(.data)
    m_registered_callback                    0x20002ad8   Data           4  bsp.o(.data)
    current_long_push_pin_no                 0x20002adc   Data           1  bsp.o(.data)
    release_event_at_push                    0x20002add   Data           4  bsp.o(.data)
    .data                                    0x20002ae4   Section        8  bsp_btn_ble.o(.data)
    m_error_handler                          0x20002ae4   Data           4  bsp_btn_ble.o(.data)
    m_num_connections                        0x20002ae8   Data           4  bsp_btn_ble.o(.data)
    .data                                    0x20002aec   Section        8  ble_conn_params.o(.data)
    m_preferred_conn_params                  0x20002aec   Data           8  ble_conn_params.o(.data)
    .data                                    0x20002af4   Section       18  nrf_drv_uart.o(.data)
    m_handlers                               0x20002af4   Data           8  nrf_drv_uart.o(.data)
    m_contexts                               0x20002afc   Data           8  nrf_drv_uart.o(.data)
    .data                                    0x20002b08   Section        8  nrfx_clock.o(.data)
    m_clock_cb                               0x20002b08   Data           8  nrfx_clock.o(.data)
    .data                                    0x20002b10   Section        8  nrfx_prs.o(.data)
    m_prs_box_4                              0x20002b10   Data           8  nrfx_prs.o(.data)
    .data                                    0x20002b18   Section       32  app_button.o(.data)
    mp_buttons                               0x20002b18   Data           4  app_button.o(.data)
    m_button_count                           0x20002b1c   Data           1  app_button.o(.data)
    m_detection_delay                        0x20002b20   Data           4  app_button.o(.data)
    m_pin_state                              0x20002b28   Data           8  app_button.o(.data)
    m_pin_transition                         0x20002b30   Data           8  app_button.o(.data)
    .data                                    0x20002b38   Section       20  app_timer.o(.data)
    mp_timer_id_head                         0x20002b38   Data           4  app_timer.o(.data)
    m_ticks_latest                           0x20002b3c   Data           4  app_timer.o(.data)
    m_ticks_elapsed                          0x20002b40   Data           8  app_timer.o(.data)
    m_ticks_elapsed_q_read_ind               0x20002b48   Data           1  app_timer.o(.data)
    m_ticks_elapsed_q_write_ind              0x20002b49   Data           1  app_timer.o(.data)
    m_rtc1_running                           0x20002b4a   Data           1  app_timer.o(.data)
    m_rtc1_reset                             0x20002b4b   Data           1  app_timer.o(.data)
    .data                                    0x20002b4c   Section       27  app_uart_fifo.o(.data)
    app_uart_inst                            0x20002b4c   Data          20  app_uart_fifo.o(.data)
    m_event_handler                          0x20002b60   Data           4  app_uart_fifo.o(.data)
    tx_buffer                                0x20002b64   Data           1  app_uart_fifo.o(.data)
    rx_buffer                                0x20002b65   Data           1  app_uart_fifo.o(.data)
    m_rx_ovf                                 0x20002b66   Data           1  app_uart_fifo.o(.data)
    .data                                    0x20002b68   Section       28  nrf_fstorage_sd.o(.data)
    m_fifo_inst                              0x20002b68   Data          20  nrf_fstorage_sd.o(.data)
    m_p_cur_op                               0x20002b7c   Data           4  nrf_fstorage_sd.o(.data)
    m_iget_ctx                               0x20002b80   Data           4  nrf_fstorage_sd.o(.data)
    .data                                    0x20002b84   Section        9  nrf_pwr_mgmt.o(.data)
    m_pwr_mgmt_evt                           0x20002b84   Data           1  nrf_pwr_mgmt.o(.data)
    m_sysoff_mtx                             0x20002b88   Data           4  nrf_pwr_mgmt.o(.data)
    m_shutdown_started                       0x20002b8c   Data           1  nrf_pwr_mgmt.o(.data)
    .data                                    0x20002b90   Section        8  retarget.o(.data)
    .data                                    0x20002b98   Section       16  nrf_log_frontend.o(.data)
    log_mempool_nrf_balloc_pool_stack        0x20002b98   Data           8  nrf_log_frontend.o(.data)
    log_mempool_nrf_balloc_cb                0x20002ba0   Data           8  nrf_log_frontend.o(.data)
    .data                                    0x20002ba8   Section        3  nrf_sdh.o(.data)
    m_nrf_sdh_enabled                        0x20002ba8   Data           1  nrf_sdh.o(.data)
    m_nrf_sdh_suspended                      0x20002ba9   Data           1  nrf_sdh.o(.data)
    m_nrf_sdh_continue                       0x20002baa   Data           1  nrf_sdh.o(.data)
    .data                                    0x20002bab   Section        1  nrf_sdh_ble.o(.data)
    m_stack_is_enabled                       0x20002bab   Data           1  nrf_sdh_ble.o(.data)
    .data                                    0x20002bac   Section        4  system_nrf52840.o(.data)
    __tagsym$$used                           0x20002bac   Number         0  system_nrf52840.o(.data)
    log_dynamic_data                         0x20002bb0   Section        4  nrf_ble_gatt.o(log_dynamic_data)
    __tagsym$$used                           0x20002bb0   Number         0  nrf_ble_gatt.o(log_dynamic_data)
    log_dynamic_data                         0x20002bb4   Section        4  ble_nus.o(log_dynamic_data)
    __tagsym$$used                           0x20002bb4   Number         0  ble_nus.o(log_dynamic_data)
    log_dynamic_data                         0x20002bb8   Section        4  nrf_drv_clock.o(log_dynamic_data)
    __tagsym$$used                           0x20002bb8   Number         0  nrf_drv_clock.o(log_dynamic_data)
    log_dynamic_data                         0x20002bbc   Section        4  nrfx_clock.o(log_dynamic_data)
    __tagsym$$used                           0x20002bbc   Number         0  nrfx_clock.o(log_dynamic_data)
    log_dynamic_data                         0x20002bc0   Section        4  nrfx_gpiote.o(log_dynamic_data)
    __tagsym$$used                           0x20002bc0   Number         0  nrfx_gpiote.o(log_dynamic_data)
    log_dynamic_data                         0x20002bc4   Section        4  nrfx_prs.o(log_dynamic_data)
    __tagsym$$used                           0x20002bc4   Number         0  nrfx_prs.o(log_dynamic_data)
    log_dynamic_data                         0x20002bc8   Section        4  nrfx_uart.o(log_dynamic_data)
    __tagsym$$used                           0x20002bc8   Number         0  nrfx_uart.o(log_dynamic_data)
    log_dynamic_data                         0x20002bcc   Section        4  nrfx_uarte.o(log_dynamic_data)
    __tagsym$$used                           0x20002bcc   Number         0  nrfx_uarte.o(log_dynamic_data)
    log_dynamic_data                         0x20002bd0   Section        4  nrf_fstorage.o(log_dynamic_data)
    __tagsym$$used                           0x20002bd0   Number         0  nrf_fstorage.o(log_dynamic_data)
    log_dynamic_data                         0x20002bd4   Section        4  nrf_fstorage_sd.o(log_dynamic_data)
    __tagsym$$used                           0x20002bd4   Number         0  nrf_fstorage_sd.o(log_dynamic_data)
    log_dynamic_data                         0x20002bd8   Section        4  nrf_pwr_mgmt.o(log_dynamic_data)
    __tagsym$$used                           0x20002bd8   Number         0  nrf_pwr_mgmt.o(log_dynamic_data)
    log_dynamic_data                         0x20002bdc   Section        8  nrf_log_frontend.o(log_dynamic_data)
    __tagsym$$used                           0x20002bdc   Number         0  nrf_log_frontend.o(log_dynamic_data)
    __tagsym$$used                           0x20002be0   Number         0  nrf_log_frontend.o(log_dynamic_data)
    log_dynamic_data                         0x20002be4   Section        4  nrf_sdh.o(log_dynamic_data)
    __tagsym$$used                           0x20002be4   Number         0  nrf_sdh.o(log_dynamic_data)
    log_dynamic_data                         0x20002be8   Section        4  nrf_sdh_ble.o(log_dynamic_data)
    __tagsym$$used                           0x20002be8   Number         0  nrf_sdh_ble.o(log_dynamic_data)
    log_dynamic_data                         0x20002bec   Section        4  nrf_sdh_soc.o(log_dynamic_data)
    __tagsym$$used                           0x20002bec   Number         0  nrf_sdh_soc.o(log_dynamic_data)
    .bss                                     0x20002bf0   Section      972  main.o(.bss)
    m_gatt                                   0x20002bf0   Data          20  main.o(.bss)
    m_qwr                                    0x20002c04   Data          12  main.o(.bss)
    m_advertising                            0x20002c10   Data         184  main.o(.bss)
    data_array                               0x20002cc8   Data         244  main.o(.bss)
    rx_buf                                   0x20002dbc   Data         256  main.o(.bss)
    tx_buf                                   0x20002ebc   Data         256  main.o(.bss)
    .bss                                     0x20002fbc   Section      108  bsp.o(.bss)
    m_bsp_leds_tmr_data                      0x20002fbc   Data          32  bsp.o(.bss)
    m_bsp_alert_tmr_data                     0x20002fdc   Data          32  bsp.o(.bss)
    m_events_list                            0x20002ffc   Data          12  bsp.o(.bss)
    m_bsp_button_tmr_data                    0x20003008   Data          32  bsp.o(.bss)
    .bss                                     0x20003028   Section       80  ble_conn_params.o(.bss)
    m_timer_data                             0x20003028   Data          32  ble_conn_params.o(.bss)
    m_conn_params_instances                  0x20003048   Data          20  ble_conn_params.o(.bss)
    m_conn_params_config                     0x2000305c   Data          28  ble_conn_params.o(.bss)
    .bss                                     0x20003078   Section      120  ble_conn_state.o(.bss)
    m_bcs                                    0x20003078   Data         120  ble_conn_state.o(.bss)
    .bss                                     0x200030f0   Section       20  nrf_drv_clock.o(.bss)
    m_clock_cb                               0x200030f0   Data          20  nrf_drv_clock.o(.bss)
    .bss                                     0x20003104   Section      108  nrfx_gpiote.o(.bss)
    m_cb                                     0x20003104   Data         108  nrfx_gpiote.o(.bss)
    .bss                                     0x20003170   Section       44  nrfx_uart.o(.bss)
    m_cb                                     0x20003170   Data          44  nrfx_uart.o(.bss)
    .bss                                     0x2000319c   Section       36  nrfx_uarte.o(.bss)
    m_cb                                     0x2000319c   Data          36  nrfx_uarte.o(.bss)
    .bss                                     0x200031c0   Section       32  app_button.o(.bss)
    m_detection_delay_timer_id_data          0x200031c0   Data          32  app_button.o(.bss)
    .bss                                     0x200031e0   Section      268  app_timer.o(.bss)
    m_op_queue                               0x200031e0   Data         268  app_timer.o(.bss)
    .bss                                     0x200032ec   Section       32  app_uart_fifo.o(.bss)
    m_rx_fifo                                0x200032ec   Data          16  app_uart_fifo.o(.bss)
    m_tx_fifo                                0x200032fc   Data          16  app_uart_fifo.o(.bss)
    .bss                                     0x2000330c   Section       12  app_util_platform.o(.bss)
    .bss                                     0x20003318   Section      160  nrf_fstorage_sd.o(.bss)
    m_fifo_data                              0x20003318   Data         140  nrf_fstorage_sd.o(.bss)
    m_flags                                  0x200033a4   Data          20  nrf_fstorage_sd.o(.bss)
    .bss                                     0x200033b8   Section       12  nrf_pwr_mgmt.o(.bss)
    m_handlers_iter                          0x200033b8   Data          12  nrf_pwr_mgmt.o(.bss)
    .bss                                     0x200033c4   Section     1252  nrf_log_frontend.o(.bss)
    log_mempool_nrf_balloc_pool_mem          0x200033c4   Data         192  nrf_log_frontend.o(.bss)
    m_log_data                               0x20003484   Data        1060  nrf_log_frontend.o(.bss)
    STACK                                    0x200038a8   Section     8192  arm_startup_nrf52840.o(STACK)

    Global Symbols

    Symbol Name                              Value     Ov Type        Size  Object(Section)

    BuildAttributes$$THM_ISAv4$E$P$D$K$B$S$7EM$VFPi3$EXTD16$VFPS$VFMA$PE$A:L22UL41UL21$X:L11$S22US41US21$IEEE1$IW$USESV6$~STKCKD$USESV7$~SHL$OSPACE$ROPI$EBA8$MICROLIB$REQ8$EABIv2 0x00000000   Number         0  anon$$obj.o ABSOLUTE
    __ARM_use_no_argv                        0x00000000   Number         0  main.o ABSOLUTE
    __cpp_initialize__aeabi_                  - Undefined Weak Reference
    __cxa_finalize                            - Undefined Weak Reference
    _clock_init                               - Undefined Weak Reference
    _microlib_exit                            - Undefined Weak Reference
    fs_data$$Base                             - Undefined Reference
    fs_data$$Limit                            - Undefined Reference
    pwr_mgmt_data0$$Base                      - Undefined Reference
    pwr_mgmt_data0$$Limit                     - Undefined Reference
    pwr_mgmt_data1$$Base                      - Undefined Reference
    pwr_mgmt_data1$$Limit                     - Undefined Reference
    pwr_mgmt_data2$$Base                      - Undefined Reference
    pwr_mgmt_data2$$Limit                     - Undefined Reference
    sdh_req_observers1$$Base                  - Undefined Reference
    sdh_req_observers1$$Limit                 - Undefined Reference
    sdh_stack_observers1$$Base                - Undefined Reference
    sdh_stack_observers1$$Limit               - Undefined Reference
    sdh_state_observers1$$Base                - Undefined Reference
    sdh_state_observers1$$Limit               - Undefined Reference
    __Vectors_Size                           0x00000200   Number         0  arm_startup_nrf52840.o ABSOLUTE
    __Vectors                                0x00026000   Data           4  arm_startup_nrf52840.o(RESET)
    __Vectors_End                            0x00026200   Data           0  arm_startup_nrf52840.o(RESET)
    __main                                   0x00026201   Thumb Code     0  entry.o(.ARM.Collect$$$$00000000)
    _main_stk                                0x00026201   Thumb Code     0  entry2.o(.ARM.Collect$$$$00000001)
    _main_scatterload                        0x00026205   Thumb Code     0  entry5.o(.ARM.Collect$$$$00000004)
    __main_after_scatterload                 0x00026209   Thumb Code     0  entry5.o(.ARM.Collect$$$$00000004)
    _main_clock                              0x00026209   Thumb Code     0  entry7b.o(.ARM.Collect$$$$00000008)
    _main_cpp_init                           0x00026209   Thumb Code     0  entry8b.o(.ARM.Collect$$$$0000000A)
    _main_init                               0x00026209   Thumb Code     0  entry9a.o(.ARM.Collect$$$$0000000B)
    __rt_final_cpp                           0x00026211   Thumb Code     0  entry10a.o(.ARM.Collect$$$$0000000D)
    __rt_final_exit                          0x00026211   Thumb Code     0  entry11a.o(.ARM.Collect$$$$0000000F)
    __asm___12_nrf_atfifo_c_51f461e1__nrf_atfifo_wspace_req 0x00026215   Thumb Code    56  nrf_atfifo.o(.emb_text)
    __asm___12_nrf_atfifo_c_51f461e1__nrf_atfifo_wspace_close 0x0002624d   Thumb Code    18  nrf_atfifo.o(.emb_text)
    __asm___12_nrf_atfifo_c_51f461e1__nrf_atfifo_rspace_req 0x0002625f   Thumb Code    58  nrf_atfifo.o(.emb_text)
    __asm___12_nrf_atfifo_c_51f461e1__nrf_atfifo_rspace_close 0x00026299   Thumb Code    18  nrf_atfifo.o(.emb_text)
    __asm___12_nrf_atfifo_c_51f461e1__nrf_atfifo_space_clear 0x000262ab   Thumb Code    50  nrf_atfifo.o(.emb_text)
    __asm___12_nrf_atomic_c_85ca2469__nrf_atomic_internal_mov 0x000262dd   Thumb Code    24  nrf_atomic.o(.emb_text)
    __asm___12_nrf_atomic_c_85ca2469__nrf_atomic_internal_orr 0x000262f5   Thumb Code    26  nrf_atomic.o(.emb_text)
    __asm___12_nrf_atomic_c_85ca2469__nrf_atomic_internal_and 0x0002630f   Thumb Code    26  nrf_atomic.o(.emb_text)
    __asm___12_nrf_atomic_c_85ca2469__nrf_atomic_internal_eor 0x00026329   Thumb Code    26  nrf_atomic.o(.emb_text)
    __asm___12_nrf_atomic_c_85ca2469__nrf_atomic_internal_add 0x00026343   Thumb Code    26  nrf_atomic.o(.emb_text)
    __asm___12_nrf_atomic_c_85ca2469__nrf_atomic_internal_sub 0x0002635d   Thumb Code    26  nrf_atomic.o(.emb_text)
    __asm___12_nrf_atomic_c_85ca2469__nrf_atomic_internal_cmp_exch 0x00026377   Thumb Code    42  nrf_atomic.o(.emb_text)
    __asm___12_nrf_atomic_c_85ca2469__nrf_atomic_internal_sub_hs 0x000263a1   Thumb Code    30  nrf_atomic.o(.emb_text)
    Reset_Handler                            0x000263c1   Thumb Code     8  arm_startup_nrf52840.o(.text)
    NMI_Handler                              0x000263c9   Thumb Code     2  arm_startup_nrf52840.o(.text)
    HardFault_Handler                        0x000263cb   Thumb Code     2  arm_startup_nrf52840.o(.text)
    MemoryManagement_Handler                 0x000263cd   Thumb Code     2  arm_startup_nrf52840.o(.text)
    BusFault_Handler                         0x000263cf   Thumb Code     2  arm_startup_nrf52840.o(.text)
    UsageFault_Handler                       0x000263d1   Thumb Code     2  arm_startup_nrf52840.o(.text)
    SVC_Handler                              0x000263d3   Thumb Code     2  arm_startup_nrf52840.o(.text)
    DebugMon_Handler                         0x000263d5   Thumb Code     2  arm_startup_nrf52840.o(.text)
    PendSV_Handler                           0x000263d7   Thumb Code     2  arm_startup_nrf52840.o(.text)
    SysTick_Handler                          0x000263d9   Thumb Code     2  arm_startup_nrf52840.o(.text)
    CCM_AAR_IRQHandler                       0x000263db   Thumb Code     0  arm_startup_nrf52840.o(.text)
    COMP_LPCOMP_IRQHandler                   0x000263db   Thumb Code     0  arm_startup_nrf52840.o(.text)
    CRYPTOCELL_IRQHandler                    0x000263db   Thumb Code     0  arm_startup_nrf52840.o(.text)
    ECB_IRQHandler                           0x000263db   Thumb Code     0  arm_startup_nrf52840.o(.text)
    FPU_IRQHandler                           0x000263db   Thumb Code     0  arm_startup_nrf52840.o(.text)
    I2S_IRQHandler                           0x000263db   Thumb Code     0  arm_startup_nrf52840.o(.text)
    MWU_IRQHandler                           0x000263db   Thumb Code     0  arm_startup_nrf52840.o(.text)
    NFCT_IRQHandler                          0x000263db   Thumb Code     0  arm_startup_nrf52840.o(.text)
    PDM_IRQHandler                           0x000263db   Thumb Code     0  arm_startup_nrf52840.o(.text)
    PWM0_IRQHandler                          0x000263db   Thumb Code     0  arm_startup_nrf52840.o(.text)
    PWM1_IRQHandler                          0x000263db   Thumb Code     0  arm_startup_nrf52840.o(.text)
    PWM2_IRQHandler                          0x000263db   Thumb Code     0  arm_startup_nrf52840.o(.text)
    PWM3_IRQHandler                          0x000263db   Thumb Code     0  arm_startup_nrf52840.o(.text)
    QDEC_IRQHandler                          0x000263db   Thumb Code     0  arm_startup_nrf52840.o(.text)
    QSPI_IRQHandler                          0x000263db   Thumb Code     0  arm_startup_nrf52840.o(.text)
    RADIO_IRQHandler                         0x000263db   Thumb Code     0  arm_startup_nrf52840.o(.text)
    RNG_IRQHandler                           0x000263db   Thumb Code     0  arm_startup_nrf52840.o(.text)
    RTC0_IRQHandler                          0x000263db   Thumb Code     0  arm_startup_nrf52840.o(.text)
    RTC2_IRQHandler                          0x000263db   Thumb Code     0  arm_startup_nrf52840.o(.text)
    SAADC_IRQHandler                         0x000263db   Thumb Code     0  arm_startup_nrf52840.o(.text)
    SPIM0_SPIS0_TWIM0_TWIS0_SPI0_TWI0_IRQHandler 0x000263db   Thumb Code     0  arm_startup_nrf52840.o(.text)
    SPIM1_SPIS1_TWIM1_TWIS1_SPI1_TWI1_IRQHandler 0x000263db   Thumb Code     0  arm_startup_nrf52840.o(.text)
    SPIM2_SPIS2_SPI2_IRQHandler              0x000263db   Thumb Code     0  arm_startup_nrf52840.o(.text)
    SPIM3_IRQHandler                         0x000263db   Thumb Code     0  arm_startup_nrf52840.o(.text)
    SWI1_EGU1_IRQHandler                     0x000263db   Thumb Code     0  arm_startup_nrf52840.o(.text)
    SWI3_EGU3_IRQHandler                     0x000263db   Thumb Code     0  arm_startup_nrf52840.o(.text)
    SWI4_EGU4_IRQHandler                     0x000263db   Thumb Code     0  arm_startup_nrf52840.o(.text)
    SWI5_EGU5_IRQHandler                     0x000263db   Thumb Code     0  arm_startup_nrf52840.o(.text)
    TEMP_IRQHandler                          0x000263db   Thumb Code     0  arm_startup_nrf52840.o(.text)
    TIMER0_IRQHandler                        0x000263db   Thumb Code     0  arm_startup_nrf52840.o(.text)
    TIMER1_IRQHandler                        0x000263db   Thumb Code     0  arm_startup_nrf52840.o(.text)
    TIMER2_IRQHandler                        0x000263db   Thumb Code     0  arm_startup_nrf52840.o(.text)
    TIMER3_IRQHandler                        0x000263db   Thumb Code     0  arm_startup_nrf52840.o(.text)
    TIMER4_IRQHandler                        0x000263db   Thumb Code     0  arm_startup_nrf52840.o(.text)
    UARTE1_IRQHandler                        0x000263db   Thumb Code     0  arm_startup_nrf52840.o(.text)
    USBD_IRQHandler                          0x000263db   Thumb Code     0  arm_startup_nrf52840.o(.text)
    WDT_IRQHandler                           0x000263db   Thumb Code     0  arm_startup_nrf52840.o(.text)
    __aeabi_uldivmod                         0x000263e5   Thumb Code    98  uldiv.o(.text)
    __aeabi_llsl                             0x00026447   Thumb Code    30  llshl.o(.text)
    _ll_shift_l                              0x00026447   Thumb Code     0  llshl.o(.text)
    __aeabi_memcpy                           0x00026465   Thumb Code    36  memcpya.o(.text)
    __aeabi_memcpy4                          0x00026465   Thumb Code     0  memcpya.o(.text)
    __aeabi_memcpy8                          0x00026465   Thumb Code     0  memcpya.o(.text)
    __aeabi_memset                           0x00026489   Thumb Code    14  memseta.o(.text)
    __aeabi_memset4                          0x00026489   Thumb Code     0  memseta.o(.text)
    __aeabi_memset8                          0x00026489   Thumb Code     0  memseta.o(.text)
    __aeabi_memclr                           0x00026497   Thumb Code     4  memseta.o(.text)
    __aeabi_memclr4                          0x00026497   Thumb Code     0  memseta.o(.text)
    __aeabi_memclr8                          0x00026497   Thumb Code     0  memseta.o(.text)
    _memset$wrapper                          0x0002649b   Thumb Code    18  memseta.o(.text)
    __aeabi_llsr                             0x000264ad   Thumb Code    32  llushr.o(.text)
    _ll_ushift_r                             0x000264ad   Thumb Code     0  llushr.o(.text)
    __scatterload                            0x000264cd   Thumb Code    28  init.o(.text)
    __scatterload_rt2                        0x000264cd   Thumb Code     0  init.o(.text)
    __decompress                             0x000264f1   Thumb Code     0  __dczerorl.o(.text)
    __decompress0                            0x000264f1   Thumb Code    58  __dczerorl.o(.text)
    GPIOTE_IRQHandler                        0x0002652d   Thumb Code   544  nrfx_gpiote.o(i.GPIOTE_IRQHandler)
    POWER_CLOCK_IRQHandler                   0x000267c9   Thumb Code    80  nrfx_clock.o(i.POWER_CLOCK_IRQHandler)
    RTC1_IRQHandler                          0x0002681d   Thumb Code    44  app_timer.o(i.RTC1_IRQHandler)
    SWI0_EGU0_IRQHandler                     0x00026851   Thumb Code     8  app_timer.o(i.SWI0_EGU0_IRQHandler)
    SWI2_EGU2_IRQHandler                     0x00026859   Thumb Code     8  nrf_sdh.o(i.SWI2_EGU2_IRQHandler)
    SystemCoreClockUpdate                    0x00026861   Thumb Code     8  system_nrf52840.o(i.SystemCoreClockUpdate)
    SystemInit                               0x00026871   Thumb Code   494  system_nrf52840.o(i.SystemInit)
    UARTE0_UART0_IRQHandler                  0x00026aa1   Thumb Code    10  nrfx_prs.o(i.UARTE0_UART0_IRQHandler)
    __0printf$bare                           0x00026ab1   Thumb Code     8  printfb.o(i.__0printf$bare)
    __1printf$bare                           0x00026ab1   Thumb Code     0  printfb.o(i.__0printf$bare)
    __2printf                                0x00026ab1   Thumb Code     0  printfb.o(i.__0printf$bare)
    __scatterload_copy                       0x00026ac1   Thumb Code    14  handlers.o(i.__scatterload_copy)
    __scatterload_null                       0x00026acf   Thumb Code     2  handlers.o(i.__scatterload_null)
    __scatterload_zeroinit                   0x00026ad1   Thumb Code    14  handlers.o(i.__scatterload_zeroinit)
    app_button_enable                        0x00026cbd   Thumb Code    34  app_button.o(i.app_button_enable)
    app_button_init                          0x00026ce9   Thumb Code   138  app_button.o(i.app_button_init)
    app_error_fault_handler                  0x00026d99   Thumb Code   136  app_error_weak.o(i.app_error_fault_handler)
    app_error_handler_bare                   0x00026e49   Thumb Code    28  app_error.o(i.app_error_handler_bare)
    app_fifo_get                             0x00026e65   Thumb Code    30  app_fifo.o(i.app_fifo_get)
    app_fifo_init                            0x00026e83   Thumb Code    36  app_fifo.o(i.app_fifo_init)
    app_fifo_put                             0x00026ea7   Thumb Code    34  app_fifo.o(i.app_fifo_put)
    app_timer_create                         0x00026ec9   Thumb Code    56  app_timer.o(i.app_timer_create)
    app_timer_init                           0x00026f05   Thumb Code    70  app_timer.o(i.app_timer_init)
    app_timer_start                          0x00026f61   Thumb Code    78  app_timer.o(i.app_timer_start)
    app_timer_stop                           0x00026fb5   Thumb Code    44  app_timer.o(i.app_timer_stop)
    app_uart_get                             0x00026fe5   Thumb Code    66  app_uart_fifo.o(i.app_uart_get)
    app_uart_init                            0x00027039   Thumb Code   188  app_uart_fifo.o(i.app_uart_init)
    app_uart_put                             0x00027115   Thumb Code    90  app_uart_fifo.o(i.app_uart_put)
    app_util_critical_region_enter           0x00027181   Thumb Code    12  app_util_platform.o(i.app_util_critical_region_enter)
    app_util_critical_region_exit            0x0002718d   Thumb Code    62  app_util_platform.o(i.app_util_critical_region_exit)
    blcm_link_ctx_get                        0x0002731f   Thumb Code   108  ble_link_ctx_manager.o(i.blcm_link_ctx_get)
    ble_advdata_encode                       0x0002738b   Thumb Code   364  ble_advdata.o(i.ble_advdata_encode)
    ble_advdata_parse                        0x000274f7   Thumb Code    40  ble_advdata.o(i.ble_advdata_parse)
    ble_advdata_search                       0x0002751f   Thumb Code    64  ble_advdata.o(i.ble_advdata_search)
    ble_advertising_conn_cfg_tag_set         0x0002755f   Thumb Code     6  ble_advertising.o(i.ble_advertising_conn_cfg_tag_set)
    ble_advertising_init                     0x00027565   Thumb Code   264  ble_advertising.o(i.ble_advertising_init)
    ble_advertising_on_ble_evt               0x0002766d   Thumb Code    60  ble_advertising.o(i.ble_advertising_on_ble_evt)
    ble_advertising_on_sys_evt               0x000276a9   Thumb Code    64  ble_advertising.o(i.ble_advertising_on_sys_evt)
    ble_advertising_restart_without_whitelist 0x000276e9   Thumb Code    74  ble_advertising.o(i.ble_advertising_restart_without_whitelist)
    ble_advertising_start                    0x00027733   Thumb Code   384  ble_advertising.o(i.ble_advertising_start)
    ble_conn_params_init                     0x000278b5   Thumb Code   136  ble_conn_params.o(i.ble_conn_params_init)
    ble_conn_state_conn_idx                  0x00027951   Thumb Code    20  ble_conn_state.o(i.ble_conn_state_conn_idx)
    ble_conn_state_valid                     0x00027965   Thumb Code    22  ble_conn_state.o(i.ble_conn_state_valid)
    ble_nus_data_send                        0x00027cc5   Thumb Code   122  ble_nus.o(i.ble_nus_data_send)
    ble_nus_init                             0x00027d41   Thumb Code   134  ble_nus.o(i.ble_nus_init)
    ble_nus_on_ble_evt                       0x00027dcd   Thumb Code    68  ble_nus.o(i.ble_nus_on_ble_evt)
    ble_srv_is_notification_enabled          0x00027e11   Thumb Code    18  ble_srv_common.o(i.ble_srv_is_notification_enabled)
    bsp_board_button_idx_to_pin              0x00027e79   Thumb Code     8  boards.o(i.bsp_board_button_idx_to_pin)
    bsp_board_button_state_get               0x00027e85   Thumb Code    48  boards.o(i.bsp_board_button_state_get)
    bsp_board_init                           0x00027ee5   Thumb Code    26  boards.o(i.bsp_board_init)
    bsp_board_led_invert                     0x00027f01   Thumb Code    50  boards.o(i.bsp_board_led_invert)
    bsp_board_led_off                        0x00027f39   Thumb Code    16  boards.o(i.bsp_board_led_off)
    bsp_board_led_on                         0x00027f4d   Thumb Code    16  boards.o(i.bsp_board_led_on)
    bsp_board_led_state_get                  0x00027f61   Thumb Code    48  boards.o(i.bsp_board_led_state_get)
    bsp_board_leds_off                       0x00027fc5   Thumb Code    20  boards.o(i.bsp_board_leds_off)
    bsp_board_leds_on                        0x00027fd9   Thumb Code    20  boards.o(i.bsp_board_leds_on)
    bsp_board_pin_to_button_idx              0x00027fed   Thumb Code    32  boards.o(i.bsp_board_pin_to_button_idx)
    bsp_btn_ble_init                         0x00028011   Thumb Code    36  bsp_btn_ble.o(i.bsp_btn_ble_init)
    bsp_btn_ble_sleep_mode_prepare           0x0002803d   Thumb Code    50  bsp_btn_ble.o(i.bsp_btn_ble_sleep_mode_prepare)
    bsp_button_is_pressed                    0x00028135   Thumb Code    20  bsp.o(i.bsp_button_is_pressed)
    bsp_event_handler                        0x00028149   Thumb Code   106  main.o(i.bsp_event_handler)
    bsp_event_to_button_action_assign        0x000281bd   Thumb Code    86  bsp.o(i.bsp_event_to_button_action_assign)
    bsp_indication_set                       0x00028219   Thumb Code    28  bsp.o(i.bsp_indication_set)
    bsp_init                                 0x00028239   Thumb Code   136  bsp.o(i.bsp_init)
    bsp_wakeup_button_enable                 0x00028661   Thumb Code    14  bsp.o(i.bsp_wakeup_button_enable)
    buffer_is_empty                          0x00028755   Thumb Code    20  nrf_log_frontend.o(i.buffer_is_empty)
    conn_handle_list_get                     0x0002898d   Thumb Code    60  ble_conn_state.o(i.conn_handle_list_get)
    fputc                                    0x000290d3   Thumb Code    16  retarget.o(i.fputc)
    gatt_evt_handler                         0x00029165   Thumb Code    58  main.o(i.gatt_evt_handler)
    gatt_init                                0x000291c9   Thumb Code    60  main.o(i.gatt_init)
    main                                     0x00029819   Thumb Code   130  main.o(i.main)
    nrf_atfifo_clear                         0x00029ae7   Thumb Code    22  nrf_atfifo.o(i.nrf_atfifo_clear)
    nrf_atfifo_init                          0x00029afd   Thumb Code    40  nrf_atfifo.o(i.nrf_atfifo_init)
    nrf_atfifo_item_alloc                    0x00029b25   Thumb Code    28  nrf_atfifo.o(i.nrf_atfifo_item_alloc)
    nrf_atfifo_item_free                     0x00029b41   Thumb Code    28  nrf_atfifo.o(i.nrf_atfifo_item_free)
    nrf_atfifo_item_get                      0x00029b5d   Thumb Code    28  nrf_atfifo.o(i.nrf_atfifo_item_get)
    nrf_atfifo_item_put                      0x00029b79   Thumb Code    28  nrf_atfifo.o(i.nrf_atfifo_item_put)
    nrf_atflags_clear                        0x00029b95   Thumb Code    30  nrf_atflags.o(i.nrf_atflags_clear)
    nrf_atflags_get                          0x00029bb3   Thumb Code    30  nrf_atflags.o(i.nrf_atflags_get)
    nrf_atflags_set                          0x00029bd1   Thumb Code    30  nrf_atflags.o(i.nrf_atflags_set)
    nrf_atomic_flag_clear_fetch              0x00029bef   Thumb Code    14  nrf_atomic.o(i.nrf_atomic_flag_clear_fetch)
    nrf_atomic_flag_set                      0x00029bfd   Thumb Code    14  nrf_atomic.o(i.nrf_atomic_flag_set)
    nrf_atomic_flag_set_fetch                0x00029c0b   Thumb Code    14  nrf_atomic.o(i.nrf_atomic_flag_set_fetch)
    nrf_atomic_u32_add                       0x00029c19   Thumb Code    22  nrf_atomic.o(i.nrf_atomic_u32_add)
    nrf_atomic_u32_and                       0x00029c2f   Thumb Code    22  nrf_atomic.o(i.nrf_atomic_u32_and)
    nrf_atomic_u32_fetch_and                 0x00029c45   Thumb Code    22  nrf_atomic.o(i.nrf_atomic_u32_fetch_and)
    nrf_atomic_u32_fetch_or                  0x00029c5b   Thumb Code    22  nrf_atomic.o(i.nrf_atomic_u32_fetch_or)
    nrf_atomic_u32_fetch_store               0x00029c71   Thumb Code    22  nrf_atomic.o(i.nrf_atomic_u32_fetch_store)
    nrf_atomic_u32_or                        0x00029c87   Thumb Code    22  nrf_atomic.o(i.nrf_atomic_u32_or)
    nrf_atomic_u32_sub                       0x00029c9d   Thumb Code    22  nrf_atomic.o(i.nrf_atomic_u32_sub)
    nrf_balloc_alloc                         0x00029cb3   Thumb Code    82  nrf_balloc.o(i.nrf_balloc_alloc)
    nrf_balloc_free                          0x00029d15   Thumb Code    48  nrf_balloc.o(i.nrf_balloc_free)
    nrf_balloc_init                          0x00029d51   Thumb Code    60  nrf_balloc.o(i.nrf_balloc_init)
    nrf_ble_gatt_att_mtu_periph_set          0x00029db9   Thumb Code    30  nrf_ble_gatt.o(i.nrf_ble_gatt_att_mtu_periph_set)
    nrf_ble_gatt_init                        0x00029dd7   Thumb Code    52  nrf_ble_gatt.o(i.nrf_ble_gatt_init)
    nrf_ble_gatt_on_ble_evt                  0x00029e0d   Thumb Code   198  nrf_ble_gatt.o(i.nrf_ble_gatt_on_ble_evt)
    nrf_ble_qwr_conn_handle_assign           0x00029f0d   Thumb Code    32  nrf_ble_qwr.o(i.nrf_ble_qwr_conn_handle_assign)
    nrf_ble_qwr_init                         0x00029f2d   Thumb Code    50  nrf_ble_qwr.o(i.nrf_ble_qwr_init)
    nrf_ble_qwr_on_ble_evt                   0x00029f5f   Thumb Code   124  nrf_ble_qwr.o(i.nrf_ble_qwr_on_ble_evt)
    nrf_drv_clock_init                       0x0002a015   Thumb Code    54  nrf_drv_clock.o(i.nrf_drv_clock_init)
    nrf_drv_clock_lfclk_release              0x0002a055   Thumb Code    42  nrf_drv_clock.o(i.nrf_drv_clock_lfclk_release)
    nrf_drv_uart_init                        0x0002a085   Thumb Code   118  nrf_drv_uart.o(i.nrf_drv_uart_init)
    nrf_fstorage_is_busy                     0x0002a199   Thumb Code    74  nrf_fstorage.o(i.nrf_fstorage_is_busy)
    nrf_fstorage_sdh_req_handler             0x0002a1ed   Thumb Code    22  nrf_fstorage_sd.o(i.nrf_fstorage_sdh_req_handler)
    nrf_fstorage_sdh_state_handler           0x0002a209   Thumb Code    40  nrf_fstorage_sd.o(i.nrf_fstorage_sdh_state_handler)
    nrf_fstorage_sys_evt_handler             0x0002a235   Thumb Code   130  nrf_fstorage_sd.o(i.nrf_fstorage_sys_evt_handler)
    nrf_log_default_backends_init            0x0002a5b9   Thumb Code     6  nrf_log_default_backends.o(i.nrf_log_default_backends_init)
    nrf_log_frontend_dequeue                 0x0002a5c1   Thumb Code   734  nrf_log_frontend.o(i.nrf_log_frontend_dequeue)
    nrf_log_frontend_std_0                   0x0002a8c1   Thumb Code    20  nrf_log_frontend.o(i.nrf_log_frontend_std_0)
    nrf_log_frontend_std_1                   0x0002a8d5   Thumb Code    24  nrf_log_frontend.o(i.nrf_log_frontend_std_1)
    nrf_log_frontend_std_2                   0x0002a8ed   Thumb Code    32  nrf_log_frontend.o(i.nrf_log_frontend_std_2)
    nrf_log_init                             0x0002a90d   Thumb Code    80  nrf_log_frontend.o(i.nrf_log_init)
    nrf_log_panic                            0x0002a971   Thumb Code    46  nrf_log_frontend.o(i.nrf_log_panic)
    nrf_memobj_alloc                         0x0002a9a5   Thumb Code   122  nrf_memobj.o(i.nrf_memobj_alloc)
    nrf_memobj_free                          0x0002aa1f   Thumb Code    64  nrf_memobj.o(i.nrf_memobj_free)
    nrf_memobj_get                           0x0002aa5f   Thumb Code    16  nrf_memobj.o(i.nrf_memobj_get)
    nrf_memobj_pool_init                     0x0002aa6f   Thumb Code    12  nrf_memobj.o(i.nrf_memobj_pool_init)
    nrf_memobj_put                           0x0002aa7b   Thumb Code    30  nrf_memobj.o(i.nrf_memobj_put)
    nrf_memobj_write                         0x0002aa99   Thumb Code    28  nrf_memobj.o(i.nrf_memobj_write)
    nrf_pwr_mgmt_init                        0x0002aab5   Thumb Code    46  nrf_pwr_mgmt.o(i.nrf_pwr_mgmt_init)
    nrf_pwr_mgmt_run                         0x0002aaf5   Thumb Code   100  nrf_pwr_mgmt.o(i.nrf_pwr_mgmt_run)
    nrf_sdh_ble_app_ram_start_get            0x0002ab6d   Thumb Code    18  nrf_sdh_ble.o(i.nrf_sdh_ble_app_ram_start_get)
    nrf_sdh_ble_default_cfg_set              0x0002ab85   Thumb Code   356  nrf_sdh_ble.o(i.nrf_sdh_ble_default_cfg_set)
    nrf_sdh_ble_enable                       0x0002ad05   Thumb Code   128  nrf_sdh_ble.o(i.nrf_sdh_ble_enable)
    nrf_sdh_disable_request                  0x0002aeb1   Thumb Code    90  nrf_sdh.o(i.nrf_sdh_disable_request)
    nrf_sdh_enable_request                   0x0002af15   Thumb Code   112  nrf_sdh.o(i.nrf_sdh_enable_request)
    nrf_sdh_evts_poll                        0x0002af99   Thumb Code    44  nrf_sdh.o(i.nrf_sdh_evts_poll)
    nrf_sdh_is_enabled                       0x0002afc9   Thumb Code     6  nrf_sdh.o(i.nrf_sdh_is_enabled)
    nrf_sdh_request_continue                 0x0002afd5   Thumb Code    30  nrf_sdh.o(i.nrf_sdh_request_continue)
    nrf_section_iter_init                    0x0002b057   Thumb Code    20  nrf_section_iter.o(i.nrf_section_iter_init)
    nrf_section_iter_next                    0x0002b099   Thumb Code    46  nrf_section_iter.o(i.nrf_section_iter_next)
    nrf_strerror_find                        0x0002b0c9   Thumb Code    60  nrf_strerror.o(i.nrf_strerror_find)
    nrf_strerror_get                         0x0002b109   Thumb Code    22  nrf_strerror.o(i.nrf_strerror_get)
    nrfx_clock_enable                        0x0002b1e9   Thumb Code    16  nrfx_clock.o(i.nrfx_clock_enable)
    nrfx_clock_init                          0x0002b1fd   Thumb Code    30  nrfx_clock.o(i.nrfx_clock_init)
    nrfx_clock_lfclk_stop                    0x0002b221   Thumb Code    26  nrfx_clock.o(i.nrfx_clock_lfclk_stop)
    nrfx_gpiote_in_event_enable              0x0002b26d   Thumb Code   164  nrfx_gpiote.o(i.nrfx_gpiote_in_event_enable)
    nrfx_gpiote_in_init                      0x0002b319   Thumb Code   236  nrfx_gpiote.o(i.nrfx_gpiote_in_init)
    nrfx_gpiote_in_is_set                    0x0002b411   Thumb Code    20  nrfx_gpiote.o(i.nrfx_gpiote_in_is_set)
    nrfx_gpiote_init                         0x0002b425   Thumb Code   180  nrfx_gpiote.o(i.nrfx_gpiote_init)
    nrfx_gpiote_is_init                      0x0002b4e9   Thumb Code    16  nrfx_gpiote.o(i.nrfx_gpiote_is_init)
    nrfx_prs_acquire                         0x0002b5a9   Thumb Code    78  nrfx_prs.o(i.nrfx_prs_acquire)
    nrfx_uart_0_irq_handler                  0x0002b5f9   Thumb Code    12  nrfx_uart.o(i.nrfx_uart_0_irq_handler)
    nrfx_uart_init                           0x0002b60d   Thumb Code   128  nrfx_uart.o(i.nrfx_uart_init)
    nrfx_uart_rx                             0x0002b695   Thumb Code   286  nrfx_uart.o(i.nrfx_uart_rx)
    nrfx_uart_tx                             0x0002b7b9   Thumb Code   134  nrfx_uart.o(i.nrfx_uart_tx)
    nrfx_uart_tx_in_progress                 0x0002b845   Thumb Code    30  nrfx_uart.o(i.nrfx_uart_tx_in_progress)
    nrfx_uarte_0_irq_handler                 0x0002b869   Thumb Code    12  nrfx_uarte.o(i.nrfx_uarte_0_irq_handler)
    nrfx_uarte_init                          0x0002b87d   Thumb Code   120  nrfx_uarte.o(i.nrfx_uarte_init)
    nrfx_uarte_rx                            0x0002b8fd   Thumb Code   306  nrfx_uarte.o(i.nrfx_uarte_rx)
    nrfx_uarte_tx                            0x0002ba35   Thumb Code   162  nrfx_uarte.o(i.nrfx_uarte_tx)
    nrfx_uarte_tx_in_progress                0x0002badd   Thumb Code    26  nrfx_uarte.o(i.nrfx_uarte_tx_in_progress)
    uart_event_handle                        0x0002d229   Thumb Code   162  main.o(i.uart_event_handle)
    nrf_fstorage_sd                          0x0002dbc8   Data          32  nrf_fstorage_sd.o(.constdata)
    m_ram_start                              0x0002ddcc   Data           4  nrf_sdh_ble.o(.constdata)
    Region$$Table$$Base                      0x0002e4f4   Number         0  anon$$obj.o(Region$$Table)
    Region$$Table$$Limit                     0x0002e514   Number         0  anon$$obj.o(Region$$Table)
    log_const_data$$Base                     0x0002e514   Number         0  nrf_ble_gatt.o(log_const_data)
    m_nrf_log_nrf_ble_gatt_logs_data_const   0x0002e514   Data           8  nrf_ble_gatt.o(log_const_data)
    m_nrf_log_ble_nus_logs_data_const        0x0002e51c   Data           8  ble_nus.o(log_const_data)
    m_nrf_log_clock_logs_data_const          0x0002e524   Data           8  nrf_drv_clock.o(log_const_data)
    m_nrf_log_CLOCK_logs_data_const          0x0002e52c   Data           8  nrfx_clock.o(log_const_data)
    m_nrf_log_GPIOTE_logs_data_const         0x0002e534   Data           8  nrfx_gpiote.o(log_const_data)
    m_nrf_log_PRS_logs_data_const            0x0002e53c   Data           8  nrfx_prs.o(log_const_data)
    m_nrf_log_UART_logs_data_const           0x0002e544   Data           8  nrfx_uart.o(log_const_data)
    m_nrf_log_UARTE_logs_data_const          0x0002e54c   Data           8  nrfx_uarte.o(log_const_data)
    m_nrf_log_nrf_fstorage_logs_data_const   0x0002e554   Data           8  nrf_fstorage.o(log_const_data)
    m_nrf_log_atfifo_m_fifo_logs_data_const  0x0002e55c   Data           8  nrf_fstorage_sd.o(log_const_data)
    m_nrf_log_pwr_mgmt_logs_data_const       0x0002e564   Data           8  nrf_pwr_mgmt.o(log_const_data)
    m_nrf_log_balloc_log_mempool_logs_data_const 0x0002e56c   Data           8  nrf_log_frontend.o(log_const_data)
    m_nrf_log_app_logs_data_const            0x0002e574   Data           8  nrf_log_frontend.o(log_const_data)
    m_nrf_log_nrf_sdh_logs_data_const        0x0002e57c   Data           8  nrf_sdh.o(log_const_data)
    m_nrf_log_nrf_sdh_ble_logs_data_const    0x0002e584   Data           8  nrf_sdh_ble.o(log_const_data)
    m_nrf_log_nrf_sdh_soc_logs_data_const    0x0002e58c   Data           8  nrf_sdh_soc.o(log_const_data)
    log_const_data$$Limit                    0x0002e594   Number         0  nrf_sdh_soc.o(log_const_data)
    log_mempool                              0x0002e594   Data          24  nrf_log_frontend.o(nrf_balloc)
    sdh_ble_observers0$$Base                 0x0002e5ac   Number         0  ble_conn_state.o(sdh_ble_observers0)
    sdh_ble_observers0$$Limit                0x0002e5b4   Number         0  ble_conn_state.o(sdh_ble_observers0)
    sdh_ble_observers1$$Base                 0x0002e5b4   Number         0  main.o(sdh_ble_observers1)
    sdh_ble_observers1$$Limit                0x0002e5d4   Number         0  ble_conn_params.o(sdh_ble_observers1)
    sdh_ble_observers2$$Base                 0x0002e5d4   Number         0  main.o(sdh_ble_observers2)
    sdh_ble_observers2$$Limit                0x0002e5e4   Number         0  main.o(sdh_ble_observers2)
    sdh_ble_observers3$$Base                 0x0002e5e4   Number         0  main.o(sdh_ble_observers3)
    m_req_obs                                0x0002e5ec   Data           8  nrf_fstorage_sd.o(sdh_req_observers0)
    sdh_ble_observers3$$Limit                0x0002e5ec   Number         0  main.o(sdh_ble_observers3)
    sdh_req_observers0$$Base                 0x0002e5ec   Number         0  nrf_fstorage_sd.o(sdh_req_observers0)
    sdh_req_observers0$$Limit                0x0002e5f4   Number         0  nrf_fstorage_sd.o(sdh_req_observers0)
    sdh_soc_observers0$$Base                 0x0002e5f4   Number         0  nrf_drv_clock.o(sdh_soc_observers0)
    sdh_soc_observers0$$Limit                0x0002e604   Number         0  nrf_fstorage_sd.o(sdh_soc_observers0)
    sdh_soc_observers1$$Base                 0x0002e604   Number         0  main.o(sdh_soc_observers1)
    sdh_soc_observers1$$Limit                0x0002e60c   Number         0  main.o(sdh_soc_observers1)
    sdh_stack_observers0$$Base               0x0002e60c   Number         0  nrf_sdh_ble.o(sdh_stack_observers0)
    sdh_stack_observers0$$Limit              0x0002e61c   Number         0  nrf_sdh_soc.o(sdh_stack_observers0)
    sdh_state_observers0$$Base               0x0002e61c   Number         0  nrf_drv_clock.o(sdh_state_observers0)
    sdh_state_observers0$$Limit              0x0002e62c   Number         0  nrf_fstorage_sd.o(sdh_state_observers0)
    Image$$RW_IRAM1$$Base                    0x20002a98   Number         0  anon$$obj.o ABSOLUTE
    nrf_drv_uart_use_easy_dma                0x20002b04   Data           2  nrf_drv_uart.o(.data)
    __stdout                                 0x20002b90   Data           4  retarget.o(.data)
    __stdin                                  0x20002b94   Data           4  retarget.o(.data)
    SystemCoreClock                          0x20002bac   Data           4  system_nrf52840.o(.data)
    log_dynamic_data$$Base                   0x20002bb0   Number         0  nrf_ble_gatt.o(log_dynamic_data)
    m_nrf_log_nrf_ble_gatt_logs_data_dynamic 0x20002bb0   Data           4  nrf_ble_gatt.o(log_dynamic_data)
    m_nrf_log_ble_nus_logs_data_dynamic      0x20002bb4   Data           4  ble_nus.o(log_dynamic_data)
    m_nrf_log_clock_logs_data_dynamic        0x20002bb8   Data           4  nrf_drv_clock.o(log_dynamic_data)
    m_nrf_log_CLOCK_logs_data_dynamic        0x20002bbc   Data           4  nrfx_clock.o(log_dynamic_data)
    m_nrf_log_GPIOTE_logs_data_dynamic       0x20002bc0   Data           4  nrfx_gpiote.o(log_dynamic_data)
    m_nrf_log_PRS_logs_data_dynamic          0x20002bc4   Data           4  nrfx_prs.o(log_dynamic_data)
    m_nrf_log_UART_logs_data_dynamic         0x20002bc8   Data           4  nrfx_uart.o(log_dynamic_data)
    m_nrf_log_UARTE_logs_data_dynamic        0x20002bcc   Data           4  nrfx_uarte.o(log_dynamic_data)
    m_nrf_log_nrf_fstorage_logs_data_dynamic 0x20002bd0   Data           4  nrf_fstorage.o(log_dynamic_data)
    m_nrf_log_atfifo_m_fifo_logs_data_dynamic 0x20002bd4   Data           4  nrf_fstorage_sd.o(log_dynamic_data)
    m_nrf_log_pwr_mgmt_logs_data_dynamic     0x20002bd8   Data           4  nrf_pwr_mgmt.o(log_dynamic_data)
    m_nrf_log_balloc_log_mempool_logs_data_dynamic 0x20002bdc   Data           4  nrf_log_frontend.o(log_dynamic_data)
    m_nrf_log_app_logs_data_dynamic          0x20002be0   Data           4  nrf_log_frontend.o(log_dynamic_data)
    m_nrf_log_nrf_sdh_logs_data_dynamic      0x20002be4   Data           4  nrf_sdh.o(log_dynamic_data)
    m_nrf_log_nrf_sdh_ble_logs_data_dynamic  0x20002be8   Data           4  nrf_sdh_ble.o(log_dynamic_data)
    m_nrf_log_nrf_sdh_soc_logs_data_dynamic  0x20002bec   Data           4  nrf_sdh_soc.o(log_dynamic_data)
    nrf_nvic_state                           0x2000330c   Data          12  app_util_platform.o(.bss)
    __initial_sp                             0x200058a8   Data           0  arm_startup_nrf52840.o(STACK)



==============================================================================

Memory Map of the image

  Image Entry point : 0x00026201

  Load Region LR_IROM1 (Base: 0x00026000, Size: 0x00008784, Max: 0x000da000, ABSOLUTE, COMPRESSED[0x00008658])

    Execution Region ER_IROM1 (Exec base: 0x00026000, Load base: 0x00026000, Size: 0x0000862c, Max: 0x000da000, ABSOLUTE)

    Exec Addr    Load Addr    Size         Type   Attr      Idx    E Section Name        Object

    0x00026000   0x00026000   0x00000200   Data   RO         5385    RESET               arm_startup_nrf52840.o
    0x00026200   0x00026200   0x00000000   Code   RO         5461  * .ARM.Collect$$$$00000000  mc_w.l(entry.o)
    0x00026200   0x00026200   0x00000004   Code   RO         5768    .ARM.Collect$$$$00000001  mc_w.l(entry2.o)
    0x00026204   0x00026204   0x00000004   Code   RO         5771    .ARM.Collect$$$$00000004  mc_w.l(entry5.o)
    0x00026208   0x00026208   0x00000000   Code   RO         5773    .ARM.Collect$$$$00000008  mc_w.l(entry7b.o)
    0x00026208   0x00026208   0x00000000   Code   RO         5775    .ARM.Collect$$$$0000000A  mc_w.l(entry8b.o)
    0x00026208   0x00026208   0x00000008   Code   RO         5776    .ARM.Collect$$$$0000000B  mc_w.l(entry9a.o)
    0x00026210   0x00026210   0x00000000   Code   RO         5778    .ARM.Collect$$$$0000000D  mc_w.l(entry10a.o)
    0x00026210   0x00026210   0x00000000   Code   RO         5780    .ARM.Collect$$$$0000000F  mc_w.l(entry11a.o)
    0x00026210   0x00026210   0x00000004   Code   RO         5769    .ARM.Collect$$$$00002712  mc_w.l(entry2.o)
    0x00026214   0x00026214   0x000000c8   Code   RO         3661    .emb_text           nrf_atfifo.o
    0x000262dc   0x000262dc   0x000000e2   Code   RO         3803    .emb_text           nrf_atomic.o
    0x000263be   0x000263be   0x00000002   PAD
    0x000263c0   0x000263c0   0x00000024   Code   RO         5386    .text               arm_startup_nrf52840.o
    0x000263e4   0x000263e4   0x00000062   Code   RO         5464    .text               mc_w.l(uldiv.o)
    0x00026446   0x00026446   0x0000001e   Code   RO         5466    .text               mc_w.l(llshl.o)
    0x00026464   0x00026464   0x00000024   Code   RO         5496    .text               mc_w.l(memcpya.o)
    0x00026488   0x00026488   0x00000024   Code   RO         5498    .text               mc_w.l(memseta.o)
    0x000264ac   0x000264ac   0x00000020   Code   RO         5784    .text               mc_w.l(llushr.o)
    0x000264cc   0x000264cc   0x00000024   Code   RO         5797    .text               mc_w.l(init.o)
    0x000264f0   0x000264f0   0x0000003a   Code   RO         5811    .text               mc_w.l(__dczerorl.o)
    0x0002652a   0x0002652a   0x00000002   PAD
    0x0002652c   0x0002652c   0x0000022c   Code   RO         2044    i.GPIOTE_IRQHandler  nrfx_gpiote.o
    0x00026758   0x00026758   0x00000018   Code   RO         3222    i.NVIC_ClearPendingIRQ  app_timer.o
    0x00026770   0x00026770   0x00000016   Code   RO         3223    i.NVIC_EnableIRQ    app_timer.o
    0x00026786   0x00026786   0x00000002   PAD
    0x00026788   0x00026788   0x00000018   Code   RO         3224    i.NVIC_SetPendingIRQ  app_timer.o
    0x000267a0   0x000267a0   0x00000028   Code   RO         3225    i.NVIC_SetPriority  app_timer.o
    0x000267c8   0x000267c8   0x00000054   Code   RO         1892    i.POWER_CLOCK_IRQHandler  nrfx_clock.o
    0x0002681c   0x0002681c   0x00000034   Code   RO         3226    i.RTC1_IRQHandler   app_timer.o
    0x00026850   0x00026850   0x00000008   Code   RO         3227    i.SWI0_EGU0_IRQHandler  app_timer.o
    0x00026858   0x00026858   0x00000008   Code   RO         5173    i.SWI2_EGU2_IRQHandler  nrf_sdh.o
    0x00026860   0x00026860   0x00000010   Code   RO         5393    i.SystemCoreClockUpdate  system_nrf52840.o
    0x00026870   0x00026870   0x00000230   Code   RO         5394    i.SystemInit        system_nrf52840.o
    0x00026aa0   0x00026aa0   0x00000010   Code   RO         2400    i.UARTE0_UART0_IRQHandler  nrfx_prs.o
    0x00026ab0   0x00026ab0   0x00000010   Code   RO         5509    i.__0printf$bare    mc_w.l(printfb.o)
    0x00026ac0   0x00026ac0   0x0000000e   Code   RO         5805    i.__scatterload_copy  mc_w.l(handlers.o)
    0x00026ace   0x00026ace   0x00000002   Code   RO         5806    i.__scatterload_null  mc_w.l(handlers.o)
    0x00026ad0   0x00026ad0   0x0000000e   Code   RO         5807    i.__scatterload_zeroinit  mc_w.l(handlers.o)
    0x00026ade   0x00026ade   0x00000002   PAD
    0x00026ae0   0x00026ae0   0x00000038   Code   RO         5174    i.__sd_nvic_app_accessible_irq  nrf_sdh.o
    0x00026b18   0x00026b18   0x0000000c   Code   RO         3538    i.__sd_nvic_irq_disable  app_util_platform.o
    0x00026b24   0x00026b24   0x00000022   Code   RO         5516    i._printf_core      mc_w.l(printfb.o)
    0x00026b46   0x00026b46   0x00000018   Code   RO          899    i.addr_is_valid     ble_advertising.o
    0x00026b5e   0x00026b5e   0x00000058   Code   RO          900    i.adv_mode_next_avail_get  ble_advertising.o
    0x00026bb6   0x00026bb6   0x00000012   Code   RO          901    i.adv_mode_next_get  ble_advertising.o
    0x00026bc8   0x00026bc8   0x00000054   Code   RO          716    i.advertising_buttons_configure  bsp_btn_ble.o
    0x00026c1c   0x00026c1c   0x00000070   Code   RO            4    i.advertising_init  main.o
    0x00026c8c   0x00026c8c   0x00000024   Code   RO            5    i.advertising_start  main.o
    0x00026cb0   0x00026cb0   0x0000000c   Code   RO          602    i.alert_timer_handler  bsp.o
    0x00026cbc   0x00026cbc   0x0000002c   Code   RO         2916    i.app_button_enable  app_button.o
    0x00026ce8   0x00026ce8   0x000000b0   Code   RO         2917    i.app_button_init   app_button.o
    0x00026d98   0x00026d98   0x000000b0   Code   RO         3040    i.app_error_fault_handler  app_error_weak.o
    0x00026e48   0x00026e48   0x0000001c   Code   RO         2980    i.app_error_handler_bare  app_error.o
    0x00026e64   0x00026e64   0x0000001e   Code   RO         3084    i.app_fifo_get      app_fifo.o
    0x00026e82   0x00026e82   0x00000024   Code   RO         3085    i.app_fifo_init     app_fifo.o
    0x00026ea6   0x00026ea6   0x00000022   Code   RO         3087    i.app_fifo_put      app_fifo.o
    0x00026ec8   0x00026ec8   0x0000003c   Code   RO         3230    i.app_timer_create  app_timer.o
    0x00026f04   0x00026f04   0x0000005c   Code   RO         3231    i.app_timer_init    app_timer.o
    0x00026f60   0x00026f60   0x00000054   Code   RO         3234    i.app_timer_start   app_timer.o
    0x00026fb4   0x00026fb4   0x00000030   Code   RO         3235    i.app_timer_stop    app_timer.o
    0x00026fe4   0x00026fe4   0x00000054   Code   RO         3452    i.app_uart_get      app_uart_fifo.o
    0x00027038   0x00027038   0x000000dc   Code   RO         3453    i.app_uart_init     app_uart_fifo.o
    0x00027114   0x00027114   0x0000006c   Code   RO         3454    i.app_uart_put      app_uart_fifo.o
    0x00027180   0x00027180   0x0000000c   Code   RO         3539    i.app_util_critical_region_enter  app_util_platform.o
    0x0002718c   0x0002718c   0x00000048   Code   RO         3540    i.app_util_critical_region_exit  app_util_platform.o
    0x000271d4   0x000271d4   0x00000052   Code   RO          772    i.appearance_encode  ble_advdata.o
    0x00027226   0x00027226   0x0000007c   Code   RO         2451    i.apply_config      nrfx_uart.o
    0x000272a2   0x000272a2   0x0000007c   Code   RO         2701    i.apply_config      nrfx_uarte.o
    0x0002731e   0x0002731e   0x0000006c   Code   RO         1337    i.blcm_link_ctx_get  ble_link_ctx_manager.o
    0x0002738a   0x0002738a   0x0000016c   Code   RO          774    i.ble_advdata_encode  ble_advdata.o
    0x000274f6   0x000274f6   0x00000028   Code   RO          776    i.ble_advdata_parse  ble_advdata.o
    0x0002751e   0x0002751e   0x00000040   Code   RO          777    i.ble_advdata_search  ble_advdata.o
    0x0002755e   0x0002755e   0x00000006   Code   RO          902    i.ble_advertising_conn_cfg_tag_set  ble_advertising.o
    0x00027564   0x00027564   0x00000108   Code   RO          903    i.ble_advertising_init  ble_advertising.o
    0x0002766c   0x0002766c   0x0000003c   Code   RO          905    i.ble_advertising_on_ble_evt  ble_advertising.o
    0x000276a8   0x000276a8   0x00000040   Code   RO          906    i.ble_advertising_on_sys_evt  ble_advertising.o
    0x000276e8   0x000276e8   0x0000004a   Code   RO          908    i.ble_advertising_restart_without_whitelist  ble_advertising.o
    0x00027732   0x00027732   0x00000180   Code   RO          909    i.ble_advertising_start  ble_advertising.o
    0x000278b2   0x000278b2   0x00000002   PAD
    0x000278b4   0x000278b4   0x0000009c   Code   RO         1058    i.ble_conn_params_init  ble_conn_params.o
    0x00027950   0x00027950   0x00000014   Code   RO         1158    i.ble_conn_state_conn_idx  ble_conn_state.o
    0x00027964   0x00027964   0x0000001c   Code   RO         1171    i.ble_conn_state_valid  ble_conn_state.o
    0x00027980   0x00027980   0x00000076   Code   RO          780    i.ble_device_addr_encode  ble_advdata.o
    0x000279f6   0x000279f6   0x00000002   PAD
    0x000279f8   0x000279f8   0x00000160   Code   RO            7    i.ble_evt_handler   main.o
    0x00027b58   0x00027b58   0x00000078   Code   RO          717    i.ble_evt_handler   bsp_btn_ble.o
    0x00027bd0   0x00027bd0   0x00000040   Code   RO         1060    i.ble_evt_handler   ble_conn_params.o
    0x00027c10   0x00027c10   0x000000b4   Code   RO         1172    i.ble_evt_handler   ble_conn_state.o
    0x00027cc4   0x00027cc4   0x0000007a   Code   RO         1610    i.ble_nus_data_send  ble_nus.o
    0x00027d3e   0x00027d3e   0x00000002   PAD
    0x00027d40   0x00027d40   0x0000008c   Code   RO         1611    i.ble_nus_init      ble_nus.o
    0x00027dcc   0x00027dcc   0x00000044   Code   RO         1612    i.ble_nus_on_ble_evt  ble_nus.o
    0x00027e10   0x00027e10   0x00000012   Code   RO         1363    i.ble_srv_is_notification_enabled  ble_srv_common.o
    0x00027e22   0x00027e22   0x00000056   Code   RO            8    i.ble_stack_init    main.o
    0x00027e78   0x00027e78   0x0000000c   Code   RO          452    i.bsp_board_button_idx_to_pin  boards.o
    0x00027e84   0x00027e84   0x00000034   Code   RO          453    i.bsp_board_button_state_get  boards.o
    0x00027eb8   0x00027eb8   0x0000002c   Code   RO          454    i.bsp_board_buttons_init  boards.o
    0x00027ee4   0x00027ee4   0x0000001a   Code   RO          455    i.bsp_board_init    boards.o
    0x00027efe   0x00027efe   0x00000002   PAD
    0x00027f00   0x00027f00   0x00000038   Code   RO          457    i.bsp_board_led_invert  boards.o
    0x00027f38   0x00027f38   0x00000014   Code   RO          458    i.bsp_board_led_off  boards.o
    0x00027f4c   0x00027f4c   0x00000014   Code   RO          459    i.bsp_board_led_on  boards.o
    0x00027f60   0x00027f60   0x00000034   Code   RO          460    i.bsp_board_led_state_get  boards.o
    0x00027f94   0x00027f94   0x00000030   Code   RO          461    i.bsp_board_leds_init  boards.o
    0x00027fc4   0x00027fc4   0x00000014   Code   RO          462    i.bsp_board_leds_off  boards.o
    0x00027fd8   0x00027fd8   0x00000014   Code   RO          463    i.bsp_board_leds_on  boards.o
    0x00027fec   0x00027fec   0x00000024   Code   RO          464    i.bsp_board_pin_to_button_idx  boards.o
    0x00028010   0x00028010   0x0000002c   Code   RO          718    i.bsp_btn_ble_init  bsp_btn_ble.o
    0x0002803c   0x0002803c   0x00000032   Code   RO          719    i.bsp_btn_ble_sleep_mode_prepare  bsp_btn_ble.o
    0x0002806e   0x0002806e   0x00000002   PAD
    0x00028070   0x00028070   0x000000c4   Code   RO          603    i.bsp_button_event_handler  bsp.o
    0x00028134   0x00028134   0x00000014   Code   RO          604    i.bsp_button_is_pressed  bsp.o
    0x00028148   0x00028148   0x00000074   Code   RO            9    i.bsp_event_handler  main.o
    0x000281bc   0x000281bc   0x0000005c   Code   RO          607    i.bsp_event_to_button_action_assign  bsp.o
    0x00028218   0x00028218   0x00000020   Code   RO          608    i.bsp_indication_set  bsp.o
    0x00028238   0x00028238   0x000000ac   Code   RO          609    i.bsp_init          bsp.o
    0x000282e4   0x000282e4   0x0000037c   Code   RO          610    i.bsp_led_indication  bsp.o
    0x00028660   0x00028660   0x0000000e   Code   RO          612    i.bsp_wakeup_button_enable  bsp.o
    0x0002866e   0x0002866e   0x00000002   PAD
    0x00028670   0x00028670   0x000000e4   Code   RO         4643    i.buf_prealloc      nrf_log_frontend.o
    0x00028754   0x00028754   0x00000018   Code   RO         4644    i.buffer_is_empty   nrf_log_frontend.o
    0x0002876c   0x0002876c   0x0000000e   Code   RO          613    i.button_timer_handler  bsp.o
    0x0002877a   0x0002877a   0x00000002   PAD
    0x0002877c   0x0002877c   0x00000054   Code   RO           10    i.buttons_leds_init  main.o
    0x000287d0   0x000287d0   0x00000020   Code   RO         2045    i.channel_free      nrfx_gpiote.o
    0x000287f0   0x000287f0   0x00000010   Code   RO         2046    i.channel_handler_get  nrfx_gpiote.o
    0x00028800   0x00028800   0x00000080   Code   RO         2047    i.channel_port_alloc  nrfx_gpiote.o
    0x00028880   0x00028880   0x0000000c   Code   RO         2048    i.channel_port_get  nrfx_gpiote.o
    0x0002888c   0x0002888c   0x00000030   Code   RO         1680    i.clock_clk_started_notify  nrf_drv_clock.o
    0x000288bc   0x000288bc   0x00000028   Code   RO         1681    i.clock_irq_handler  nrf_drv_clock.o
    0x000288e4   0x000288e4   0x00000090   Code   RO         3237    i.compare_reg_update  app_timer.o
    0x00028974   0x00028974   0x00000018   Code   RO          911    i.config_is_valid   ble_advertising.o
    0x0002898c   0x0002898c   0x0000003c   Code   RO         1173    i.conn_handle_list_get  ble_conn_state.o
    0x000289c8   0x000289c8   0x0000005a   Code   RO          781    i.conn_int_check    ble_advdata.o
    0x00028a22   0x00028a22   0x00000068   Code   RO          782    i.conn_int_encode   ble_advdata.o
    0x00028a8a   0x00028a8a   0x00000010   Code   RO           11    i.conn_params_error_handler  main.o
    0x00028a9a   0x00028a9a   0x00000002   PAD
    0x00028a9c   0x00028a9c   0x0000005c   Code   RO           12    i.conn_params_init  main.o
    0x00028af8   0x00028af8   0x00000054   Code   RO         1061    i.conn_params_negotiation  ble_conn_params.o
    0x00028b4c   0x00028b4c   0x00000054   Code   RO          720    i.connection_buttons_configure  bsp_btn_ble.o
    0x00028ba0   0x00028ba0   0x000000d8   Code   RO         1432    i.data_length_update  nrf_ble_gatt.o
    0x00028c78   0x00028c78   0x000000e4   Code   RO         2919    i.detection_delay_timeout_handler  app_button.o
    0x00028d5c   0x00028d5c   0x00000018   Code   RO         4646    i.dropped_sat16_get  nrf_log_frontend.o
    0x00028d74   0x00028d74   0x00000064   Code   RO         3238    i.elapsed_ticks_acquire  app_timer.o
    0x00028dd8   0x00028dd8   0x00000058   Code   RO         4162    i.erase             nrf_fstorage_sd.o
    0x00028e30   0x00028e30   0x0000000e   Code   RO         4163    i.erase_execute     nrf_fstorage_sd.o
    0x00028e3e   0x00028e3e   0x00000002   PAD
    0x00028e40   0x00028e40   0x0000001c   Code   RO         5395    i.errata_103        system_nrf52840.o
    0x00028e5c   0x00028e5c   0x0000001c   Code   RO         5396    i.errata_115        system_nrf52840.o
    0x00028e78   0x00028e78   0x0000001c   Code   RO         5397    i.errata_120        system_nrf52840.o
    0x00028e94   0x00028e94   0x00000038   Code   RO         5398    i.errata_136        system_nrf52840.o
    0x00028ecc   0x00028ecc   0x00000038   Code   RO         5399    i.errata_36         system_nrf52840.o
    0x00028f04   0x00028f04   0x00000038   Code   RO         5400    i.errata_66         system_nrf52840.o
    0x00028f3c   0x00028f3c   0x0000001c   Code   RO         5401    i.errata_98         system_nrf52840.o
    0x00028f58   0x00028f58   0x00000068   Code   RO         4164    i.event_send        nrf_fstorage_sd.o
    0x00028fc0   0x00028fc0   0x00000058   Code   RO         3239    i.expired_timers_handler  app_timer.o
    0x00029018   0x00029018   0x00000018   Code   RO         3090    i.fifo_get          app_fifo.o
    0x00029030   0x00029030   0x0000000a   Code   RO         3091    i.fifo_length       app_fifo.o
    0x0002903a   0x0002903a   0x0000000a   Code   RO         3455    i.fifo_length       app_uart_fifo.o
    0x00029044   0x00029044   0x00000012   Code   RO         3092    i.fifo_peek         app_fifo.o
    0x00029056   0x00029056   0x00000012   Code   RO         3093    i.fifo_put          app_fifo.o
    0x00029068   0x00029068   0x00000036   Code   RO          783    i.flags_encode      ble_advdata.o
    0x0002909e   0x0002909e   0x0000002a   Code   RO          912    i.flags_set         ble_advertising.o
    0x000290c8   0x000290c8   0x0000000a   Code   RO          913    i.flash_access_in_progress  ble_advertising.o
    0x000290d2   0x000290d2   0x00000010   Code   RO         4524    i.fputc             retarget.o
    0x000290e2   0x000290e2   0x00000002   PAD
    0x000290e4   0x000290e4   0x00000080   Code   RO           13    i.gap_params_init   main.o
    0x00029164   0x00029164   0x00000064   Code   RO           14    i.gatt_evt_handler  main.o
    0x000291c8   0x000291c8   0x00000044   Code   RO           15    i.gatt_init         main.o
    0x0002920c   0x0002920c   0x000000a4   Code   RO         2920    i.gpiote_event_handler  app_button.o
    0x000292b0   0x000292b0   0x0000000c   Code   RO           16    i.idle_state_handle  main.o
    0x000292bc   0x000292bc   0x0000003c   Code   RO         4165    i.init              nrf_fstorage_sd.o
    0x000292f8   0x000292f8   0x0000002c   Code   RO         1062    i.instance_get      ble_conn_params.o
    0x00029324   0x00029324   0x000000a0   Code   RO         2453    i.interrupts_enable  nrfx_uart.o
    0x000293c4   0x000293c4   0x000000b4   Code   RO         2703    i.interrupts_enable  nrfx_uarte.o
    0x00029478   0x00029478   0x0000006c   Code   RO         4648    i.invalid_packets_pushed_str_omit  nrf_log_frontend.o
    0x000294e4   0x000294e4   0x00000014   Code   RO         4166    i.is_busy           nrf_fstorage_sd.o
    0x000294f8   0x000294f8   0x00000072   Code   RO         1063    i.is_conn_params_ok  ble_conn_params.o
    0x0002956a   0x0002956a   0x0000000c   Code   RO         1684    i.item_dequeue      nrf_drv_clock.o
    0x00029576   0x00029576   0x00000002   PAD
    0x00029578   0x00029578   0x00000028   Code   RO          614    i.leds_off          bsp.o
    0x000295a0   0x000295a0   0x00000020   Code   RO          615    i.leds_timer_handler  bsp.o
    0x000295c0   0x000295c0   0x00000014   Code   RO         1686    i.lfclk_stop        nrf_drv_clock.o
    0x000295d4   0x000295d4   0x00000018   Code   RO         1433    i.link_init         nrf_ble_gatt.o
    0x000295ec   0x000295ec   0x0000013c   Code   RO         3240    i.list_insertions_handler  app_timer.o
    0x00029728   0x00029728   0x00000026   Code   RO           17    i.log_init          main.o
    0x0002974e   0x0002974e   0x00000002   PAD
    0x00029750   0x00029750   0x000000c8   Code   RO         4649    i.log_skip          nrf_log_frontend.o
    0x00029818   0x00029818   0x000000ec   Code   RO           18    i.main              main.o
    0x00029904   0x00029904   0x00000076   Code   RO          784    i.manuf_specific_data_encode  ble_advdata.o
    0x0002997a   0x0002997a   0x000000ae   Code   RO         4300    i.memobj_op         nrf_memobj.o
    0x00029a28   0x00029a28   0x000000be   Code   RO          785    i.name_encode       ble_advdata.o
    0x00029ae6   0x00029ae6   0x00000016   Code   RO         3663    i.nrf_atfifo_clear  nrf_atfifo.o
    0x00029afc   0x00029afc   0x00000028   Code   RO         3665    i.nrf_atfifo_init   nrf_atfifo.o
    0x00029b24   0x00029b24   0x0000001c   Code   RO         3666    i.nrf_atfifo_item_alloc  nrf_atfifo.o
    0x00029b40   0x00029b40   0x0000001c   Code   RO         3667    i.nrf_atfifo_item_free  nrf_atfifo.o
    0x00029b5c   0x00029b5c   0x0000001c   Code   RO         3668    i.nrf_atfifo_item_get  nrf_atfifo.o
    0x00029b78   0x00029b78   0x0000001c   Code   RO         3669    i.nrf_atfifo_item_put  nrf_atfifo.o
    0x00029b94   0x00029b94   0x0000001e   Code   RO         3737    i.nrf_atflags_clear  nrf_atflags.o
    0x00029bb2   0x00029bb2   0x0000001e   Code   RO         3742    i.nrf_atflags_get   nrf_atflags.o
    0x00029bd0   0x00029bd0   0x0000001e   Code   RO         3744    i.nrf_atflags_set   nrf_atflags.o
    0x00029bee   0x00029bee   0x0000000e   Code   RO         3805    i.nrf_atomic_flag_clear_fetch  nrf_atomic.o
    0x00029bfc   0x00029bfc   0x0000000e   Code   RO         3806    i.nrf_atomic_flag_set  nrf_atomic.o
    0x00029c0a   0x00029c0a   0x0000000e   Code   RO         3807    i.nrf_atomic_flag_set_fetch  nrf_atomic.o
    0x00029c18   0x00029c18   0x00000016   Code   RO         3808    i.nrf_atomic_u32_add  nrf_atomic.o
    0x00029c2e   0x00029c2e   0x00000016   Code   RO         3809    i.nrf_atomic_u32_and  nrf_atomic.o
    0x00029c44   0x00029c44   0x00000016   Code   RO         3812    i.nrf_atomic_u32_fetch_and  nrf_atomic.o
    0x00029c5a   0x00029c5a   0x00000016   Code   RO         3813    i.nrf_atomic_u32_fetch_or  nrf_atomic.o
    0x00029c70   0x00029c70   0x00000016   Code   RO         3814    i.nrf_atomic_u32_fetch_store  nrf_atomic.o
    0x00029c86   0x00029c86   0x00000016   Code   RO         3818    i.nrf_atomic_u32_or  nrf_atomic.o
    0x00029c9c   0x00029c9c   0x00000016   Code   RO         3820    i.nrf_atomic_u32_sub  nrf_atomic.o
    0x00029cb2   0x00029cb2   0x00000052   Code   RO         3942    i.nrf_balloc_alloc  nrf_balloc.o
    0x00029d04   0x00029d04   0x00000010   Code   RO         3943    i.nrf_balloc_block2idx  nrf_balloc.o
    0x00029d14   0x00029d14   0x00000030   Code   RO         3944    i.nrf_balloc_free   nrf_balloc.o
    0x00029d44   0x00029d44   0x0000000c   Code   RO         3945    i.nrf_balloc_idx2block  nrf_balloc.o
    0x00029d50   0x00029d50   0x0000003c   Code   RO         3946    i.nrf_balloc_init   nrf_balloc.o
    0x00029d8c   0x00029d8c   0x00000016   Code   RO         2049    i.nrf_bitmask_bit_is_set  nrfx_gpiote.o
    0x00029da2   0x00029da2   0x00000016   Code   RO         2050    i.nrf_bitmask_bit_set  nrfx_gpiote.o
    0x00029db8   0x00029db8   0x0000001e   Code   RO         1435    i.nrf_ble_gatt_att_mtu_periph_set  nrf_ble_gatt.o
    0x00029dd6   0x00029dd6   0x00000034   Code   RO         1439    i.nrf_ble_gatt_init  nrf_ble_gatt.o
    0x00029e0a   0x00029e0a   0x00000002   PAD
    0x00029e0c   0x00029e0c   0x00000100   Code   RO         1440    i.nrf_ble_gatt_on_ble_evt  nrf_ble_gatt.o
    0x00029f0c   0x00029f0c   0x00000020   Code   RO         1554    i.nrf_ble_qwr_conn_handle_assign  nrf_ble_qwr.o
    0x00029f2c   0x00029f2c   0x00000032   Code   RO         1555    i.nrf_ble_qwr_init  nrf_ble_qwr.o
    0x00029f5e   0x00029f5e   0x0000007c   Code   RO         1556    i.nrf_ble_qwr_on_ble_evt  nrf_ble_qwr.o
    0x00029fda   0x00029fda   0x00000012   Code   RO         1893    i.nrf_clock_event_check  nrfx_clock.o
    0x00029fec   0x00029fec   0x00000012   Code   RO         1894    i.nrf_clock_event_clear  nrfx_clock.o
    0x00029ffe   0x00029ffe   0x00000002   PAD
    0x0002a000   0x0002a000   0x0000000c   Code   RO         1895    i.nrf_clock_int_disable  nrfx_clock.o
    0x0002a00c   0x0002a00c   0x00000008   Code   RO         1897    i.nrf_clock_task_trigger  nrfx_clock.o
    0x0002a014   0x0002a014   0x00000040   Code   RO         1692    i.nrf_drv_clock_init  nrf_drv_clock.o
    0x0002a054   0x0002a054   0x00000030   Code   RO         1696    i.nrf_drv_clock_lfclk_release  nrf_drv_clock.o
    0x0002a084   0x0002a084   0x0000008c   Code   RO         1840    i.nrf_drv_uart_init  nrf_drv_uart.o
    0x0002a110   0x0002a110   0x00000044   Code   RO         3456    i.nrf_drv_uart_rx   app_uart_fifo.o
    0x0002a154   0x0002a154   0x00000044   Code   RO         3457    i.nrf_drv_uart_tx   app_uart_fifo.o
    0x0002a198   0x0002a198   0x00000054   Code   RO         4078    i.nrf_fstorage_is_busy  nrf_fstorage.o
    0x0002a1ec   0x0002a1ec   0x0000001c   Code   RO         4167    i.nrf_fstorage_sdh_req_handler  nrf_fstorage_sd.o
    0x0002a208   0x0002a208   0x0000002c   Code   RO         4168    i.nrf_fstorage_sdh_state_handler  nrf_fstorage_sd.o
    0x0002a234   0x0002a234   0x0000008c   Code   RO         4169    i.nrf_fstorage_sys_evt_handler  nrf_fstorage_sd.o
    0x0002a2c0   0x0002a2c0   0x00000034   Code   RO          466    i.nrf_gpio_cfg      boards.o
    0x0002a2f4   0x0002a2f4   0x00000034   Code   RO         2051    i.nrf_gpio_cfg      nrfx_gpiote.o
    0x0002a328   0x0002a328   0x00000034   Code   RO         2454    i.nrf_gpio_cfg      nrfx_uart.o
    0x0002a35c   0x0002a35c   0x00000034   Code   RO         2704    i.nrf_gpio_cfg      nrfx_uarte.o
    0x0002a390   0x0002a390   0x0000001a   Code   RO         2456    i.nrf_gpio_cfg_input  nrfx_uart.o
    0x0002a3aa   0x0002a3aa   0x0000001a   Code   RO         2706    i.nrf_gpio_cfg_input  nrfx_uarte.o
    0x0002a3c4   0x0002a3c4   0x00000018   Code   RO         2457    i.nrf_gpio_cfg_output  nrfx_uart.o
    0x0002a3dc   0x0002a3dc   0x00000018   Code   RO         2707    i.nrf_gpio_cfg_output  nrfx_uarte.o
    0x0002a3f4   0x0002a3f4   0x0000003a   Code   RO         2053    i.nrf_gpio_cfg_sense_set  nrfx_gpiote.o
    0x0002a42e   0x0002a42e   0x00000002   PAD
    0x0002a430   0x0002a430   0x00000020   Code   RO          467    i.nrf_gpio_pin_port_decode  boards.o
    0x0002a450   0x0002a450   0x00000020   Code   RO         2055    i.nrf_gpio_pin_port_decode  nrfx_gpiote.o
    0x0002a470   0x0002a470   0x00000020   Code   RO         2458    i.nrf_gpio_pin_port_decode  nrfx_uart.o
    0x0002a490   0x0002a490   0x00000020   Code   RO         2708    i.nrf_gpio_pin_port_decode  nrfx_uarte.o
    0x0002a4b0   0x0002a4b0   0x0000001a   Code   RO         2056    i.nrf_gpio_pin_read  nrfx_gpiote.o
    0x0002a4ca   0x0002a4ca   0x0000001a   Code   RO         2459    i.nrf_gpio_pin_set  nrfx_uart.o
    0x0002a4e4   0x0002a4e4   0x0000001a   Code   RO         2709    i.nrf_gpio_pin_set  nrfx_uarte.o
    0x0002a4fe   0x0002a4fe   0x00000042   Code   RO          468    i.nrf_gpio_pin_write  boards.o
    0x0002a540   0x0002a540   0x0000002c   Code   RO         2058    i.nrf_gpio_ports_read  nrfx_gpiote.o
    0x0002a56c   0x0002a56c   0x0000000c   Code   RO         2059    i.nrf_gpiote_event_addr_get  nrfx_gpiote.o
    0x0002a578   0x0002a578   0x0000001c   Code   RO         2060    i.nrf_gpiote_event_clear  nrfx_gpiote.o
    0x0002a594   0x0002a594   0x00000016   Code   RO         2061    i.nrf_gpiote_event_is_set  nrfx_gpiote.o
    0x0002a5aa   0x0002a5aa   0x00000002   PAD
    0x0002a5ac   0x0002a5ac   0x0000000c   Code   RO         2062    i.nrf_gpiote_int_enable  nrfx_gpiote.o
    0x0002a5b8   0x0002a5b8   0x00000006   Code   RO         4618    i.nrf_log_default_backends_init  nrf_log_default_backends.o
    0x0002a5be   0x0002a5be   0x00000002   PAD
    0x0002a5c0   0x0002a5c0   0x00000300   Code   RO         4654    i.nrf_log_frontend_dequeue  nrf_log_frontend.o
    0x0002a8c0   0x0002a8c0   0x00000014   Code   RO         4656    i.nrf_log_frontend_std_0  nrf_log_frontend.o
    0x0002a8d4   0x0002a8d4   0x00000018   Code   RO         4657    i.nrf_log_frontend_std_1  nrf_log_frontend.o
    0x0002a8ec   0x0002a8ec   0x00000020   Code   RO         4658    i.nrf_log_frontend_std_2  nrf_log_frontend.o
    0x0002a90c   0x0002a90c   0x00000064   Code   RO         4663    i.nrf_log_init      nrf_log_frontend.o
    0x0002a970   0x0002a970   0x00000034   Code   RO         4669    i.nrf_log_panic     nrf_log_frontend.o
    0x0002a9a4   0x0002a9a4   0x0000007a   Code   RO         4301    i.nrf_memobj_alloc  nrf_memobj.o
    0x0002aa1e   0x0002aa1e   0x00000040   Code   RO         4302    i.nrf_memobj_free   nrf_memobj.o
    0x0002aa5e   0x0002aa5e   0x00000010   Code   RO         4303    i.nrf_memobj_get    nrf_memobj.o
    0x0002aa6e   0x0002aa6e   0x0000000c   Code   RO         4304    i.nrf_memobj_pool_init  nrf_memobj.o
    0x0002aa7a   0x0002aa7a   0x0000001e   Code   RO         4305    i.nrf_memobj_put    nrf_memobj.o
    0x0002aa98   0x0002aa98   0x0000001c   Code   RO         4307    i.nrf_memobj_write  nrf_memobj.o
    0x0002aab4   0x0002aab4   0x00000040   Code   RO         4380    i.nrf_pwr_mgmt_init  nrf_pwr_mgmt.o
    0x0002aaf4   0x0002aaf4   0x00000068   Code   RO         4381    i.nrf_pwr_mgmt_run  nrf_pwr_mgmt.o
    0x0002ab5c   0x0002ab5c   0x00000010   Code   RO           19    i.nrf_qwr_error_handler  main.o
    0x0002ab6c   0x0002ab6c   0x00000018   Code   RO         5299    i.nrf_sdh_ble_app_ram_start_get  nrf_sdh_ble.o
    0x0002ab84   0x0002ab84   0x00000180   Code   RO         5300    i.nrf_sdh_ble_default_cfg_set  nrf_sdh_ble.o
    0x0002ad04   0x0002ad04   0x00000138   Code   RO         5301    i.nrf_sdh_ble_enable  nrf_sdh_ble.o
    0x0002ae3c   0x0002ae3c   0x00000074   Code   RO         5302    i.nrf_sdh_ble_evts_poll  nrf_sdh_ble.o
    0x0002aeb0   0x0002aeb0   0x00000064   Code   RO         5175    i.nrf_sdh_disable_request  nrf_sdh.o
    0x0002af14   0x0002af14   0x00000084   Code   RO         5176    i.nrf_sdh_enable_request  nrf_sdh.o
    0x0002af98   0x0002af98   0x00000030   Code   RO         5177    i.nrf_sdh_evts_poll  nrf_sdh.o
    0x0002afc8   0x0002afc8   0x0000000c   Code   RO         5178    i.nrf_sdh_is_enabled  nrf_sdh.o
    0x0002afd4   0x0002afd4   0x00000028   Code   RO         5180    i.nrf_sdh_request_continue  nrf_sdh.o
    0x0002affc   0x0002affc   0x00000054   Code   RO         5355    i.nrf_sdh_soc_evts_poll  nrf_sdh_soc.o
    0x0002b050   0x0002b050   0x00000006   Code   RO         5183    i.nrf_section_iter_get  nrf_sdh.o
    0x0002b056   0x0002b056   0x00000014   Code   RO         4455    i.nrf_section_iter_init  nrf_section_iter.o
    0x0002b06a   0x0002b06a   0x0000002e   Code   RO         4456    i.nrf_section_iter_item_set  nrf_section_iter.o
    0x0002b098   0x0002b098   0x0000002e   Code   RO         4457    i.nrf_section_iter_next  nrf_section_iter.o
    0x0002b0c6   0x0002b0c6   0x00000002   PAD
    0x0002b0c8   0x0002b0c8   0x00000040   Code   RO         4490    i.nrf_strerror_find  nrf_strerror.o
    0x0002b108   0x0002b108   0x0000001c   Code   RO         4491    i.nrf_strerror_get  nrf_strerror.o
    0x0002b124   0x0002b124   0x0000000c   Code   RO         2460    i.nrf_uart_errorsrc_get_and_clear  nrfx_uart.o
    0x0002b130   0x0002b130   0x0000000e   Code   RO         2461    i.nrf_uart_event_check  nrfx_uart.o
    0x0002b13e   0x0002b13e   0x0000000e   Code   RO         2462    i.nrf_uart_event_clear  nrfx_uart.o
    0x0002b14c   0x0002b14c   0x0000000c   Code   RO         2463    i.nrf_uart_hwfc_pins_set  nrfx_uart.o
    0x0002b158   0x0002b158   0x00000006   Code   RO         2464    i.nrf_uart_int_disable  nrfx_uart.o
    0x0002b15e   0x0002b15e   0x00000006   Code   RO         2465    i.nrf_uart_int_enable  nrfx_uart.o
    0x0002b164   0x0002b164   0x00000012   Code   RO         2466    i.nrf_uart_int_enable_check  nrfx_uart.o
    0x0002b176   0x0002b176   0x00000006   Code   RO         2467    i.nrf_uart_task_trigger  nrfx_uart.o
    0x0002b17c   0x0002b17c   0x0000000e   Code   RO         2468    i.nrf_uart_txrx_pins_set  nrfx_uart.o
    0x0002b18a   0x0002b18a   0x0000000c   Code   RO         2710    i.nrf_uarte_errorsrc_get_and_clear  nrfx_uarte.o
    0x0002b196   0x0002b196   0x0000000e   Code   RO         2711    i.nrf_uarte_event_check  nrfx_uarte.o
    0x0002b1a4   0x0002b1a4   0x0000000e   Code   RO         2712    i.nrf_uarte_event_clear  nrfx_uarte.o
    0x0002b1b2   0x0002b1b2   0x0000000c   Code   RO         2713    i.nrf_uarte_hwfc_pins_set  nrfx_uarte.o
    0x0002b1be   0x0002b1be   0x00000006   Code   RO         2714    i.nrf_uarte_int_disable  nrfx_uarte.o
    0x0002b1c4   0x0002b1c4   0x00000006   Code   RO         2715    i.nrf_uarte_int_enable  nrfx_uarte.o
    0x0002b1ca   0x0002b1ca   0x0000000a   Code   RO         2716    i.nrf_uarte_rx_amount_get  nrfx_uarte.o
    0x0002b1d4   0x0002b1d4   0x00000006   Code   RO         2717    i.nrf_uarte_task_trigger  nrfx_uarte.o
    0x0002b1da   0x0002b1da   0x0000000e   Code   RO         2718    i.nrf_uarte_txrx_pins_set  nrfx_uarte.o
    0x0002b1e8   0x0002b1e8   0x00000014   Code   RO         1902    i.nrfx_clock_enable  nrfx_clock.o
    0x0002b1fc   0x0002b1fc   0x00000024   Code   RO         1905    i.nrfx_clock_init   nrfx_clock.o
    0x0002b220   0x0002b220   0x00000020   Code   RO         1908    i.nrfx_clock_lfclk_stop  nrfx_clock.o
    0x0002b240   0x0002b240   0x00000018   Code   RO         3241    i.nrfx_coredep_delay_us  app_timer.o
    0x0002b258   0x0002b258   0x0000000a   Code   RO         2469    i.nrfx_get_irq_number  nrfx_uart.o
    0x0002b262   0x0002b262   0x0000000a   Code   RO         2719    i.nrfx_get_irq_number  nrfx_uarte.o
    0x0002b26c   0x0002b26c   0x000000ac   Code   RO         2069    i.nrfx_gpiote_in_event_enable  nrfx_gpiote.o
    0x0002b318   0x0002b318   0x000000f8   Code   RO         2070    i.nrfx_gpiote_in_init  nrfx_gpiote.o
    0x0002b410   0x0002b410   0x00000014   Code   RO         2071    i.nrfx_gpiote_in_is_set  nrfx_gpiote.o
    0x0002b424   0x0002b424   0x000000c4   Code   RO         2073    i.nrfx_gpiote_init  nrfx_gpiote.o
    0x0002b4e8   0x0002b4e8   0x00000014   Code   RO         2074    i.nrfx_gpiote_is_init  nrfx_gpiote.o
    0x0002b4fc   0x0002b4fc   0x00000014   Code   RO         2720    i.nrfx_is_in_ram    nrfx_uarte.o
    0x0002b510   0x0002b510   0x00000098   Code   RO         1910    i.nrfx_power_clock_irq_init  nrfx_clock.o
    0x0002b5a8   0x0002b5a8   0x0000004e   Code   RO         2401    i.nrfx_prs_acquire  nrfx_prs.o
    0x0002b5f6   0x0002b5f6   0x00000002   PAD
    0x0002b5f8   0x0002b5f8   0x00000014   Code   RO         2470    i.nrfx_uart_0_irq_handler  nrfx_uart.o
    0x0002b60c   0x0002b60c   0x00000088   Code   RO         2472    i.nrfx_uart_init    nrfx_uart.o
    0x0002b694   0x0002b694   0x00000124   Code   RO         2473    i.nrfx_uart_rx      nrfx_uart.o
    0x0002b7b8   0x0002b7b8   0x0000008c   Code   RO         2478    i.nrfx_uart_tx      nrfx_uart.o
    0x0002b844   0x0002b844   0x00000024   Code   RO         2480    i.nrfx_uart_tx_in_progress  nrfx_uart.o
    0x0002b868   0x0002b868   0x00000014   Code   RO         2721    i.nrfx_uarte_0_irq_handler  nrfx_uarte.o
    0x0002b87c   0x0002b87c   0x00000080   Code   RO         2723    i.nrfx_uarte_init   nrfx_uarte.o
