Component: ARM Compiler 5.06 update 5 (build 528) Tool: armlink [4d35e2]

==============================================================================

Section Cross References

    main.o(i.advertising_init) refers to memseta.o(.text) for __aeabi_memclr4
    main.o(i.advertising_init) refers to ble_advdata.o(i.ble_advdata_encode) for ble_advdata_encode
    main.o(i.advertising_init) refers to app_error.o(i.app_error_handler_bare) for app_error_handler_bare
    main.o(i.advertising_init) refers to main.o(.constdata) for .constdata
    main.o(i.advertising_init) refers to main.o(.bss) for .bss
    main.o(i.advertising_init) refers to main.o(.data) for .data
    main.o(i.advertising_start) refers to app_error.o(i.app_error_handler_bare) for app_error_handler_bare
    main.o(i.advertising_start) refers to boards.o(i.bsp_board_led_on) for bsp_board_led_on
    main.o(i.advertising_start) refers to main.o(.data) for .data
    main.o(i.assert_nrf_callback) refers to app_error_handler_keil.o(.emb_text) for app_error_handler
    main.o(i.ble_evt_handler) refers to nrf_log_frontend.o(i.nrf_log_frontend_std_0) for nrf_log_frontend_std_0
    main.o(i.ble_evt_handler) refers to boards.o(i.bsp_board_led_on) for bsp_board_led_on
    main.o(i.ble_evt_handler) refers to boards.o(i.bsp_board_led_off) for bsp_board_led_off
    main.o(i.ble_evt_handler) refers to nrf_ble_qwr.o(i.nrf_ble_qwr_conn_handle_assign) for nrf_ble_qwr_conn_handle_assign
    main.o(i.ble_evt_handler) refers to app_error.o(i.app_error_handler_bare) for app_error_handler_bare
    main.o(i.ble_evt_handler) refers to app_button.o(i.app_button_enable) for app_button_enable
    main.o(i.ble_evt_handler) refers to app_button.o(i.app_button_disable) for app_button_disable
    main.o(i.ble_evt_handler) refers to main.o(i.advertising_start) for advertising_start
==============================================================================

Removing Unused input sections from the image.

    Removing main.o(.rev16_text), (4 bytes).
    Removing main.o(.revsh_text), (4 bytes).
    Removing main.o(.rrx_text), (6 bytes).
    Removing main.o(i.assert_nrf_callback), (16 bytes).
    Removing boards.o(.rev16_text), (4 bytes).
    Removing boards.o(.revsh_text), (4 bytes).
    Removing boards.o(.rrx_text), (6 bytes).
    Removing boards.o(i.bsp_board_button_idx_to_pin), (12 bytes).
    Removing boards.o(i.bsp_board_button_state_get), (40 bytes).
    Removing boards.o(i.bsp_board_led_idx_to_pin), (12 bytes).
    Removing boards.o(i.bsp_board_led_invert), (44 bytes).
    Removing boards.o(i.bsp_board_led_state_get), (40 bytes).
    Removing boards.o(i.bsp_board_leds_on), (18 bytes).
    Removing boards.o(i.bsp_board_pin_to_button_idx), (36 bytes).
    Removing boards.o(i.bsp_board_pin_to_led_idx), (36 bytes).
    Removing ble_advdata.o(.rev16_text), (4 bytes).
    Removing ble_advdata.o(.revsh_text), (4 bytes).
    Removing ble_advdata.o(.rrx_text), (6 bytes).
==============================================================================

Image Symbol Table

    Local Symbols

    Symbol Name                              Value     Ov Type        Size  Object(Section)

    ../clib/../cmprslib/zerorunl2.c          0x00000000   Number         0  __dczerorl2.o ABSOLUTE
    ../clib/microlib/ctype/ctype.c           0x00000000   Number         0  isprint_o.o ABSOLUTE
    ../clib/microlib/ctype/ctype.c           0x00000000   Number         0  isalpha_o.o ABSOLUTE
    ../clib/microlib/ctype/ctype.c           0x00000000   Number         0  isblank_o.o ABSOLUTE
    ../clib/microlib/ctype/ctype.c           0x00000000   Number         0  iscntrl_o.o ABSOLUTE
    ../clib/microlib/ctype/ctype.c           0x00000000   Number         0  isdigit_o.o ABSOLUTE
    ../clib/microlib/ctype/ctype.c           0x00000000   Number         0  isgraph_o.o ABSOLUTE
    ../clib/microlib/ctype/ctype.c           0x00000000   Number         0  islower_o.o ABSOLUTE
    ../clib/microlib/ctype/ctype.c           0x00000000   Number         0  ispunct_o.o ABSOLUTE
    ../clib/microlib/ctype/ctype.c           0x00000000   Number         0  isspace_o.o ABSOLUTE
    ../clib/microlib/ctype/ctype.c           0x00000000   Number         0  isupper_o.o ABSOLUTE
    ../clib/microlib/ctype/ctype.c           0x00000000   Number         0  isxdigit_o.o ABSOLUTE
    ../clib/microlib/ctype/ctype.c           0x00000000   Number         0  ctype_o.o ABSOLUTE
    ../clib/microlib/ctype/ctype.c           0x00000000   Number         0  isalnum_o.o ABSOLUTE
    ../clib/microlib/init/entry.s            0x00000000   Number         0  entry2.o ABSOLUTE
    ../clib/microlib/init/entry.s            0x00000000   Number         0  entry.o ABSOLUTE
    ../clib/microlib/init/entry.s            0x00000000   Number         0  entry9a.o ABSOLUTE
    ../clib/microlib/init/entry.s            0x00000000   Number         0  entry9b.o ABSOLUTE
    ../clib/microlib/init/entry.s            0x00000000   Number         0  entry8b.o ABSOLUTE
    ../clib/microlib/init/entry.s            0x00000000   Number         0  entry10a.o ABSOLUTE
    ../clib/microlib/init/entry.s            0x00000000   Number         0  entry10b.o ABSOLUTE
    ../clib/microlib/init/entry.s            0x00000000   Number         0  entry11a.o ABSOLUTE
    ../clib/microlib/init/entry.s            0x00000000   Number         0  entry11b.o ABSOLUTE
    ../clib/microlib/init/entry.s            0x00000000   Number         0  entry8a.o ABSOLUTE
    ../clib/microlib/init/entry.s            0x00000000   Number         0  entry7b.o ABSOLUTE
    ../clib/microlib/init/entry.s            0x00000000   Number         0  entry7a.o ABSOLUTE
    ../clib/microlib/init/entry.s            0x00000000   Number         0  entry5.o ABSOLUTE
    ../clib/microlib/longlong.c              0x00000000   Number         0  llshl.o ABSOLUTE
    ../clib/microlib/stdio/fflush.c          0x00000000   Number         0  fflush.o ABSOLUTE
    ../clib/microlib/stdio/fputc.c           0x00000000   Number         0  fputc.o ABSOLUTE
    ../clib/microlib/stdio/semi.s            0x00000000   Number         0  semi.o ABSOLUTE
    ../clib/microlib/stdio/streams.c         0x00000000   Number         0  stdout.o ABSOLUTE
    ../clib/microlib/string/memcmp.c         0x00000000   Number         0  memcmp.o ABSOLUTE
    ../clib/microlib/string/memcpy.c         0x00000000   Number         0  memcpya.o ABSOLUTE
    ../clib/microlib/string/memcpy.c         0x00000000   Number         0  memcpyb.o ABSOLUTE
    ../clib/microlib/string/memset.c         0x00000000   Number         0  memseta.o ABSOLUTE
    ../clib/microlib/string/strcmp.c         0x00000000   Number         0  strcmp.o ABSOLUTE
    ../clib/microlib/string/strcpy.c         0x00000000   Number         0  strcpy.o ABSOLUTE
    ../clib/microlib/string/strlen.c         0x00000000   Number         0  strlen.o ABSOLUTE
    ../clib/microlib/stubs.s                 0x00000000   Number         0  useno.o ABSOLUTE
    ../clib/microlib/stubs.s                 0x00000000   Number         0  iusesemip.o ABSOLUTE
    ..\..\..\..\..\..\components\ble\ble_services\ble_lbs\ble_lbs.c 0x00000000   Number         0  ble_lbs.o ABSOLUTE
    ..\..\..\..\..\..\components\ble\common\ble_advdata.c 0x00000000   Number         0  ble_advdata.o ABSOLUTE
    ..\..\..\..\..\..\components\ble\common\ble_conn_params.c 0x00000000   Number         0  ble_conn_params.o ABSOLUTE
    ..\..\..\..\..\..\components\ble\common\ble_conn_state.c 0x00000000   Number         0  ble_conn_state.o ABSOLUTE
    ..\..\..\..\..\..\components\ble\common\ble_srv_common.c 0x00000000   Number         0  ble_srv_common.o ABSOLUTE
    ..\..\..\..\..\..\components\ble\nrf_ble_gatt\nrf_ble_gatt.c 0x00000000   Number         0  nrf_ble_gatt.o ABSOLUTE
    ..\..\..\..\..\..\components\ble\nrf_ble_qwr\nrf_ble_qwr.c 0x00000000   Number         0  nrf_ble_qwr.o ABSOLUTE
    ..\..\..\..\..\..\components\boards\boards.c 0x00000000   Number         0  boards.o ABSOLUTE
    ..\..\..\..\..\..\components\libraries\atomic\nrf_atomic.c 0x00000000   Number         0  nrf_atomic.o ABSOLUTE
    ..\..\..\..\..\..\components\libraries\atomic_fifo\nrf_atfifo.c 0x00000000   Number         0  nrf_atfifo.o ABSOLUTE
    ..\..\..\..\..\..\components\libraries\atomic_flags\nrf_atflags.c 0x00000000   Number         0  nrf_atflags.o ABSOLUTE
    ..\..\..\..\..\..\components\libraries\balloc\nrf_balloc.c 0x00000000   Number         0  nrf_balloc.o ABSOLUTE
    ..\..\..\..\..\..\components\libraries\button\app_button.c 0x00000000   Number         0  app_button.o ABSOLUTE
    ..\..\..\..\..\..\components\libraries\experimental_log\src\nrf_log_backend_rtt.c 0x00000000   Number         0  nrf_log_backend_rtt.o ABSOLUTE
    ..\..\..\..\..\..\components\libraries\experimental_log\src\nrf_log_backend_serial.c 0x00000000   Number         0  nrf_log_backend_serial.o ABSOLUTE
    ..\..\..\..\..\..\components\libraries\experimental_log\src\nrf_log_backend_uart.c 0x00000000   Number         0  nrf_log_backend_uart.o ABSOLUTE
    ..\..\..\..\..\..\components\libraries\experimental_log\src\nrf_log_default_backends.c 0x00000000   Number         0  nrf_log_default_backends.o ABSOLUTE
    ..\..\..\..\..\..\components\libraries\experimental_log\src\nrf_log_frontend.c 0x00000000   Number         0  nrf_log_frontend.o ABSOLUTE
    ..\..\..\..\..\..\components\libraries\experimental_log\src\nrf_log_str_formatter.c 0x00000000   Number         0  nrf_log_str_formatter.o ABSOLUTE
    ..\..\..\..\..\..\components\libraries\experimental_memobj\nrf_memobj.c 0x00000000   Number         0  nrf_memobj.o ABSOLUTE
    ..\..\..\..\..\..\components\libraries\experimental_section_vars\nrf_section_iter.c 0x00000000   Number         0  nrf_section_iter.o ABSOLUTE
    ..\..\..\..\..\..\components\libraries\hardfault\hardfault_implementation.c 0x00000000   Number         0  hardfault_implementation.o ABSOLUTE
    ..\..\..\..\..\..\components\libraries\pwr_mgmt\nrf_pwr_mgmt.c 0x00000000   Number         0  nrf_pwr_mgmt.o ABSOLUTE
    ..\..\..\..\..\..\components\libraries\scheduler\app_scheduler.c 0x00000000   Number         0  app_scheduler.o ABSOLUTE
    ..\..\..\..\..\..\components\libraries\strerror\nrf_strerror.c 0x00000000   Number         0  nrf_strerror.o ABSOLUTE
    ..\..\..\..\..\..\components\libraries\timer\app_timer.c 0x00000000   Number         0  app_timer.o ABSOLUTE
    ..\..\..\..\..\..\components\libraries\util\app_error.c 0x00000000   Number         0  app_error.o ABSOLUTE
    ..\..\..\..\..\..\components\libraries\util\app_error_handler_keil.c 0x00000000   Number         0  app_error_handler_keil.o ABSOLUTE
    ..\..\..\..\..\..\components\libraries\util\app_error_weak.c 0x00000000   Number         0  app_error_weak.o ABSOLUTE
    ..\..\..\..\..\..\components\libraries\util\app_util_platform.c 0x00000000   Number         0  app_util_platform.o ABSOLUTE
    ..\..\..\..\..\..\components\libraries\util\nrf_assert.c 0x00000000   Number         0  nrf_assert.o ABSOLUTE
    ..\..\..\..\..\..\components\softdevice\common\nrf_sdh.c 0x00000000   Number         0  nrf_sdh.o ABSOLUTE
    ..\..\..\..\..\..\components\softdevice\common\nrf_sdh_ble.c 0x00000000   Number         0  nrf_sdh_ble.o ABSOLUTE
    ..\..\..\..\..\..\components\softdevice\common\nrf_sdh_soc.c 0x00000000   Number         0  nrf_sdh_soc.o ABSOLUTE
    ..\..\..\..\..\..\external\fprintf\nrf_fprintf.c 0x00000000   Number         0  nrf_fprintf.o ABSOLUTE
    ..\..\..\..\..\..\external\fprintf\nrf_fprintf_format.c 0x00000000   Number         0  nrf_fprintf_format.o ABSOLUTE
    ..\..\..\..\..\..\external\segger_rtt\SEGGER_RTT.c 0x00000000   Number         0  segger_rtt.o ABSOLUTE
    ..\..\..\..\..\..\external\segger_rtt\SEGGER_RTT_Syscalls_KEIL.c 0x00000000   Number         0  segger_rtt_syscalls_keil.o ABSOLUTE
    ..\..\..\..\..\..\external\segger_rtt\SEGGER_RTT_printf.c 0x00000000   Number         0  segger_rtt_printf.o ABSOLUTE
    ..\..\..\..\..\..\integration\nrfx\legacy\nrf_drv_clock.c 0x00000000   Number         0  nrf_drv_clock.o ABSOLUTE
    ..\..\..\..\..\..\integration\nrfx\legacy\nrf_drv_uart.c 0x00000000   Number         0  nrf_drv_uart.o ABSOLUTE
    ..\..\..\..\..\..\modules\nrfx\drivers\src\nrfx_clock.c 0x00000000   Number         0  nrfx_clock.o ABSOLUTE
    ..\..\..\..\..\..\modules\nrfx\drivers\src\nrfx_gpiote.c 0x00000000   Number         0  nrfx_gpiote.o ABSOLUTE
    ..\..\..\..\..\..\modules\nrfx\drivers\src\nrfx_power_clock.c 0x00000000   Number         0  nrfx_power_clock.o ABSOLUTE
    ..\..\..\..\..\..\modules\nrfx\drivers\src\nrfx_uart.c 0x00000000   Number         0  nrfx_uart.o ABSOLUTE
    ..\..\..\..\..\..\modules\nrfx\drivers\src\nrfx_uarte.c 0x00000000   Number         0  nrfx_uarte.o ABSOLUTE
    ..\..\..\..\..\..\modules\nrfx\drivers\src\prs\nrfx_prs.c 0x00000000   Number         0  nrfx_prs.o ABSOLUTE
    ..\..\..\main.c                          0x00000000   Number         0  main.o ABSOLUTE
    ..\\..\\..\\..\\..\\..\\components\\ble\\ble_services\\ble_lbs\\ble_lbs.c 0x00000000   Number         0  ble_lbs.o ABSOLUTE
    ..\\..\\..\\..\\..\\..\\components\\ble\\common\\ble_advdata.c 0x00000000   Number         0  ble_advdata.o ABSOLUTE
    ..\\..\\..\\..\\..\\..\\components\\ble\\common\\ble_conn_params.c 0x00000000   Number         0  ble_conn_params.o ABSOLUTE
    ..\\..\\..\\..\\..\\..\\components\\ble\\common\\ble_conn_state.c 0x00000000   Number         0  ble_conn_state.o ABSOLUTE
    ..\\..\\..\\..\\..\\..\\components\\ble\\common\\ble_srv_common.c 0x00000000   Number         0  ble_srv_common.o ABSOLUTE
    ..\\..\\..\\..\\..\\..\\components\\ble\\nrf_ble_gatt\\nrf_ble_gatt.c 0x00000000   Number         0  nrf_ble_gatt.o ABSOLUTE
    ..\\..\\..\\..\\..\\..\\components\\ble\\nrf_ble_qwr\\nrf_ble_qwr.c 0x00000000   Number         0  nrf_ble_qwr.o ABSOLUTE
    ..\\..\\..\\..\\..\\..\\components\\boards\\boards.c 0x00000000   Number         0  boards.o ABSOLUTE
    ..\\..\\..\\..\\..\\..\\components\\libraries\\atomic\\nrf_atomic.c 0x00000000   Number         0  nrf_atomic.o ABSOLUTE
    ..\\..\\..\\..\\..\\..\\components\\libraries\\atomic_fifo\\nrf_atfifo.c 0x00000000   Number         0  nrf_atfifo.o ABSOLUTE
    ..\\..\\..\\..\\..\\..\\components\\libraries\\atomic_flags\\nrf_atflags.c 0x00000000   Number         0  nrf_atflags.o ABSOLUTE
    ..\\..\\..\\..\\..\\..\\components\\libraries\\balloc\\nrf_balloc.c 0x00000000   Number         0  nrf_balloc.o ABSOLUTE
    ..\\..\\..\\..\\..\\..\\components\\libraries\\button\\app_button.c 0x00000000   Number         0  app_button.o ABSOLUTE
    ..\\..\\..\\..\\..\\..\\components\\libraries\\experimental_log\\src\\nrf_log_backend_rtt.c 0x00000000   Number         0  nrf_log_backend_rtt.o ABSOLUTE
    ..\\..\\..\\..\\..\\..\\components\\libraries\\experimental_log\\src\\nrf_log_backend_serial.c 0x00000000   Number         0  nrf_log_backend_serial.o ABSOLUTE
    ..\\..\\..\\..\\..\\..\\components\\libraries\\experimental_log\\src\\nrf_log_backend_uart.c 0x00000000   Number         0  nrf_log_backend_uart.o ABSOLUTE
    ..\\..\\..\\..\\..\\..\\components\\libraries\\experimental_log\\src\\nrf_log_default_backends.c 0x00000000   Number         0  nrf_log_default_backends.o ABSOLUTE
    ..\\..\\..\\..\\..\\..\\components\\libraries\\experimental_log\\src\\nrf_log_frontend.c 0x00000000   Number         0  nrf_log_frontend.o ABSOLUTE
    ..\\..\\..\\..\\..\\..\\components\\libraries\\experimental_log\\src\\nrf_log_str_formatter.c 0x00000000   Number         0  nrf_log_str_formatter.o ABSOLUTE
    ..\\..\\..\\..\\..\\..\\components\\libraries\\experimental_memobj\\nrf_memobj.c 0x00000000   Number         0  nrf_memobj.o ABSOLUTE
    ..\\..\\..\\..\\..\\..\\components\\libraries\\experimental_section_vars\\nrf_section_iter.c 0x00000000   Number         0  nrf_section_iter.o ABSOLUTE
    ..\\..\\..\\..\\..\\..\\components\\libraries\\hardfault\\hardfault_implementation.c 0x00000000   Number         0  hardfault_implementation.o ABSOLUTE
    ..\\..\\..\\..\\..\\..\\components\\libraries\\pwr_mgmt\\nrf_pwr_mgmt.c 0x00000000   Number         0  nrf_pwr_mgmt.o ABSOLUTE
    ..\\..\\..\\..\\..\\..\\components\\libraries\\scheduler\\app_scheduler.c 0x00000000   Number         0  app_scheduler.o ABSOLUTE
    ..\\..\\..\\..\\..\\..\\components\\libraries\\strerror\\nrf_strerror.c 0x00000000   Number         0  nrf_strerror.o ABSOLUTE
    ..\\..\\..\\..\\..\\..\\components\\libraries\\timer\\app_timer.c 0x00000000   Number         0  app_timer.o ABSOLUTE
    ..\\..\\..\\..\\..\\..\\components\\libraries\\util\\app_error.c 0x00000000   Number         0  app_error.o ABSOLUTE
    ..\\..\\..\\..\\..\\..\\components\\libraries\\util\\app_error_handler_keil.c 0x00000000   Number         0  app_error_handler_keil.o ABSOLUTE
    ..\\..\\..\\..\\..\\..\\components\\libraries\\util\\app_error_weak.c 0x00000000   Number         0  app_error_weak.o ABSOLUTE
    ..\\..\\..\\..\\..\\..\\components\\libraries\\util\\app_util_platform.c 0x00000000   Number         0  app_util_platform.o ABSOLUTE
    ..\\..\\..\\..\\..\\..\\components\\libraries\\util\\nrf_assert.c 0x00000000   Number         0  nrf_assert.o ABSOLUTE
    ..\\..\\..\\..\\..\\..\\components\\softdevice\\common\\nrf_sdh.c 0x00000000   Number         0  nrf_sdh.o ABSOLUTE
    ..\\..\\..\\..\\..\\..\\components\\softdevice\\common\\nrf_sdh_ble.c 0x00000000   Number         0  nrf_sdh_ble.o ABSOLUTE
    ..\\..\\..\\..\\..\\..\\components\\softdevice\\common\\nrf_sdh_soc.c 0x00000000   Number         0  nrf_sdh_soc.o ABSOLUTE
    ..\\..\\..\\..\\..\\..\\external\\fprintf\\nrf_fprintf.c 0x00000000   Number         0  nrf_fprintf.o ABSOLUTE
    ..\\..\\..\\..\\..\\..\\external\\fprintf\\nrf_fprintf_format.c 0x00000000   Number         0  nrf_fprintf_format.o ABSOLUTE
    ..\\..\\..\\..\\..\\..\\external\\segger_rtt\\SEGGER_RTT.c 0x00000000   Number         0  segger_rtt.o ABSOLUTE
    ..\\..\\..\\..\\..\\..\\external\\segger_rtt\\SEGGER_RTT_Syscalls_KEIL.c 0x00000000   Number         0  segger_rtt_syscalls_keil.o ABSOLUTE
    ..\\..\\..\\..\\..\\..\\external\\segger_rtt\\SEGGER_RTT_printf.c 0x00000000   Number         0  segger_rtt_printf.o ABSOLUTE
    ..\\..\\..\\..\\..\\..\\integration\\nrfx\\legacy\\nrf_drv_clock.c 0x00000000   Number         0  nrf_drv_clock.o ABSOLUTE
    ..\\..\\..\\..\\..\\..\\integration\\nrfx\\legacy\\nrf_drv_uart.c 0x00000000   Number         0  nrf_drv_uart.o ABSOLUTE
    ..\\..\\..\\..\\..\\..\\modules\\nrfx\\drivers\\src\\nrfx_clock.c 0x00000000   Number         0  nrfx_clock.o ABSOLUTE
    ..\\..\\..\\..\\..\\..\\modules\\nrfx\\drivers\\src\\nrfx_gpiote.c 0x00000000   Number         0  nrfx_gpiote.o ABSOLUTE
    ..\\..\\..\\..\\..\\..\\modules\\nrfx\\drivers\\src\\nrfx_power_clock.c 0x00000000   Number         0  nrfx_power_clock.o ABSOLUTE
    ..\\..\\..\\..\\..\\..\\modules\\nrfx\\drivers\\src\\nrfx_uart.c 0x00000000   Number         0  nrfx_uart.o ABSOLUTE
    ..\\..\\..\\..\\..\\..\\modules\\nrfx\\drivers\\src\\nrfx_uarte.c 0x00000000   Number         0  nrfx_uarte.o ABSOLUTE
    ..\\..\\..\\..\\..\\..\\modules\\nrfx\\drivers\\src\\prs\\nrfx_prs.c 0x00000000   Number         0  nrfx_prs.o ABSOLUTE
    ..\\..\\..\\main.c                       0x00000000   Number         0  main.o ABSOLUTE
    RTE\Device\nRF52840_xxAA\arm_startup_nrf52840.s 0x00000000   Number         0  arm_startup_nrf52840.o ABSOLUTE
    RTE\Device\nRF52840_xxAA\system_nrf52840.c 0x00000000   Number         0  system_nrf52840.o ABSOLUTE
    RTE\\Device\\nRF52840_xxAA\\system_nrf52840.c 0x00000000   Number         0  system_nrf52840.o ABSOLUTE
    dc.s                                     0x00000000   Number         0  dc.o ABSOLUTE
    handlers.s                               0x00000000   Number         0  handlers.o ABSOLUTE
    init.s                                   0x00000000   Number         0  init.o ABSOLUTE
    RESET                                    0x00026000   Section      512  arm_startup_nrf52840.o(RESET)
    .ARM.Collect$$$$00000000                 0x00026200   Section        0  entry.o(.ARM.Collect$$$$00000000)
    .ARM.Collect$$$$00000001                 0x00026200   Section        4  entry2.o(.ARM.Collect$$$$00000001)
    .ARM.Collect$$$$00000004                 0x00026204   Section        4  entry5.o(.ARM.Collect$$$$00000004)
    .ARM.Collect$$$$00000008                 0x00026208   Section        0  entry7b.o(.ARM.Collect$$$$00000008)
    .ARM.Collect$$$$0000000A                 0x00026208   Section        0  entry8b.o(.ARM.Collect$$$$0000000A)
    .ARM.Collect$$$$0000000B                 0x00026208   Section        8  entry9a.o(.ARM.Collect$$$$0000000B)
    .ARM.Collect$$$$0000000D                 0x00026210   Section        0  entry10a.o(.ARM.Collect$$$$0000000D)
    .ARM.Collect$$$$0000000F                 0x00026210   Section        0  entry11a.o(.ARM.Collect$$$$0000000F)
    .ARM.Collect$$$$00002712                 0x00026210   Section        4  entry2.o(.ARM.Collect$$$$00002712)
    __lit__00000000                          0x00026210   Data           4  entry2.o(.ARM.Collect$$$$00002712)
    .emb_text                                0x00026214   Section      226  nrf_atomic.o(.emb_text)
    $v0                                      0x00026214   Number         0  nrf_atomic.o(.emb_text)
    .text                                    0x000262f8   Section       36  arm_startup_nrf52840.o(.text)
    $v0                                      0x000262f8   Number         0  arm_startup_nrf52840.o(.text)
    .text                                    0x0002631c   Section        0  llshl.o(.text)
    .text                                    0x0002633c   Section        0  ctype_o.o(.text)
    .text                                    0x00026344   Section        0  memcpya.o(.text)
    .text                                    0x00026368   Section        0  memseta.o(.text)
    .text                                    0x0002638c   Section        0  strlen.o(.text)
    .text                                    0x0002639c   Section       36  init.o(.text)
    .text                                    0x000263c0   Section        0  __dczerorl2.o(.text)
    i.GPIOTE_IRQHandler                      0x00026418   Section        0  nrfx_gpiote.o(i.GPIOTE_IRQHandler)
    i.NVIC_ClearPendingIRQ                   0x000265cc   Section        0  app_timer.o(i.NVIC_ClearPendingIRQ)
    NVIC_ClearPendingIRQ                     0x000265cd   Thumb Code    22  app_timer.o(i.NVIC_ClearPendingIRQ)
    i.NVIC_EnableIRQ                         0x000265e2   Section        0  app_timer.o(i.NVIC_EnableIRQ)
    NVIC_EnableIRQ                           0x000265e3   Thumb Code    22  app_timer.o(i.NVIC_EnableIRQ)
    i.NVIC_SetPendingIRQ                     0x000265f8   Section        0  app_timer.o(i.NVIC_SetPendingIRQ)
    NVIC_SetPendingIRQ                       0x000265f9   Thumb Code    22  app_timer.o(i.NVIC_SetPendingIRQ)
    i.NVIC_SetPriority                       0x0002660e   Section        0  app_timer.o(i.NVIC_SetPriority)
    NVIC_SetPriority                         0x0002660f   Thumb Code    32  app_timer.o(i.NVIC_SetPriority)
    i.POWER_CLOCK_IRQHandler                 0x00026630   Section        0  nrfx_clock.o(i.POWER_CLOCK_IRQHandler)
    i.RTC1_IRQHandler                        0x00026688   Section        0  app_timer.o(i.RTC1_IRQHandler)
    i.SWI0_EGU0_IRQHandler                   0x000266ac   Section        0  app_timer.o(i.SWI0_EGU0_IRQHandler)
    i.SWI2_EGU2_IRQHandler                   0x000266b0   Section        0  nrf_sdh.o(i.SWI2_EGU2_IRQHandler)
    i.SystemInit                             0x000266b4   Section        0  system_nrf52840.o(i.SystemInit)
    i.UARTE0_UART0_IRQHandler                0x00026890   Section        0  nrfx_prs.o(i.UARTE0_UART0_IRQHandler)
    i.__scatterload_copy                     0x0002689c   Section       14  handlers.o(i.__scatterload_copy)
    i.__scatterload_null                     0x000268aa   Section        2  handlers.o(i.__scatterload_null)
    i.__scatterload_zeroinit                 0x000268ac   Section       14  handlers.o(i.__scatterload_zeroinit)
    i.__sd_nvic_app_accessible_irq           0x000268bc   Section        0  nrf_sdh.o(i.__sd_nvic_app_accessible_irq)
    __sd_nvic_app_accessible_irq             0x000268bd   Thumb Code    32  nrf_sdh.o(i.__sd_nvic_app_accessible_irq)
    i.advertising_init                       0x000268e0   Section        0  main.o(i.advertising_init)
    advertising_init                         0x000268e1   Thumb Code   150  main.o(i.advertising_init)
    i.advertising_start                      0x00026984   Section        0  main.o(i.advertising_start)
    advertising_start                        0x00026985   Thumb Code    26  main.o(i.advertising_start)
    i.app_button_disable                     0x000269a4   Section        0  app_button.o(i.app_button_disable)
    i.app_button_enable                      0x000269d4   Section        0  app_button.o(i.app_button_enable)
    i.app_button_init                        0x000269f8   Section        0  app_button.o(i.app_button_init)
    i.app_error_fault_handler                0x00026a70   Section        0  app_error_weak.o(i.app_error_fault_handler)
    i.app_error_handler_bare                 0x00026aec   Section        0  app_error.o(i.app_error_handler_bare)
    i.app_timer_create                       0x00026b04   Section        0  app_timer.o(i.app_timer_create)
    i.app_timer_init                         0x00026b28   Section        0  app_timer.o(i.app_timer_init)
    i.app_timer_start                        0x00026b7c   Section        0  app_timer.o(i.app_timer_start)
    i.app_timer_stop                         0x00026c04   Section        0  app_timer.o(i.app_timer_stop)
    i.app_util_critical_region_enter         0x00026c24   Section        0  app_util_platform.o(i.app_util_critical_region_enter)
    i.app_util_critical_region_exit          0x00026c6c   Section        0  app_util_platform.o(i.app_util_critical_region_exit)
    i.apply_config                           0x00026ca0   Section        0  nrfx_uart.o(i.apply_config)
    apply_config                             0x00026ca1   Thumb Code   118  nrfx_uart.o(i.apply_config)
    i.apply_config                           0x00026d16   Section        0  nrfx_uarte.o(i.apply_config)
    apply_config                             0x00026d17   Thumb Code   118  nrfx_uarte.o(i.apply_config)
    i.ble_advdata_encode                     0x00026d8c   Section        0  ble_advdata.o(i.ble_advdata_encode)
    i.ble_conn_params_init                   0x00026f10   Section        0  ble_conn_params.o(i.ble_conn_params_init)
    i.ble_device_addr_encode                 0x00026f78   Section        0  ble_advdata.o(i.ble_device_addr_encode)
    ble_device_addr_encode                   0x00026f79   Thumb Code    96  ble_advdata.o(i.ble_device_addr_encode)
    i.ble_evt_handler                        0x00026fd8   Section        0  main.o(i.ble_evt_handler)
    ble_evt_handler                          0x00026fd9   Thumb Code   198  main.o(i.ble_evt_handler)
    i.ble_evt_handler                        0x000270c8   Section        0  ble_conn_params.o(i.ble_evt_handler)
    ble_evt_handler                          0x000270c9   Thumb Code   242  ble_conn_params.o(i.ble_evt_handler)
    i.ble_evt_handler                        0x000271c4   Section        0  ble_conn_state.o(i.ble_evt_handler)
    ble_evt_handler                          0x000271c5   Thumb Code   254  ble_conn_state.o(i.ble_evt_handler)
    i.ble_lbs_init                           0x000272c8   Section        0  ble_lbs.o(i.ble_lbs_init)
    i.ble_lbs_on_ble_evt                     0x00027320   Section        0  ble_lbs.o(i.ble_lbs_on_ble_evt)
    i.ble_lbs_on_button_change               0x0002734e   Section        0  ble_lbs.o(i.ble_lbs_on_button_change)
    i.ble_srv_is_notification_enabled        0x0002737c   Section        0  ble_srv_common.o(i.ble_srv_is_notification_enabled)
    i.bsp_board_init                         0x00027384   Section        0  boards.o(i.bsp_board_init)
    i.bsp_board_led_off                      0x000273d8   Section        0  boards.o(i.bsp_board_led_off)
    i.bsp_board_led_on                       0x000273e8   Section        0  boards.o(i.bsp_board_led_on)
    i.bsp_board_leds_off                     0x000273f8   Section        0  boards.o(i.bsp_board_leds_off)
    i.buf_prealloc                           0x0002740c   Section        0  nrf_log_frontend.o(i.buf_prealloc)
    buf_prealloc                             0x0002740d   Thumb Code   138  nrf_log_frontend.o(i.buf_prealloc)
    i.buffer_add                             0x0002749c   Section        0  nrf_fprintf_format.o(i.buffer_add)
    buffer_add                               0x0002749d   Thumb Code    30  nrf_fprintf_format.o(i.buffer_add)
    i.buffer_is_empty                        0x000274bc   Section        0  nrf_log_frontend.o(i.buffer_is_empty)
    i.button_char_add                        0x000274d0   Section        0  ble_lbs.o(i.button_char_add)
    button_char_add                          0x000274d1   Thumb Code   210  ble_lbs.o(i.button_char_add)
    i.button_event_handler                   0x000275a4   Section        0  main.o(i.button_event_handler)
    button_event_handler                     0x000275a5   Thumb Code    70  main.o(i.button_event_handler)
    i.channel_free                           0x00027614   Section        0  nrfx_gpiote.o(i.channel_free)
    channel_free                             0x00027615   Thumb Code    22  nrfx_gpiote.o(i.channel_free)
    i.channel_port_alloc                     0x00027630   Section        0  nrfx_gpiote.o(i.channel_port_alloc)
    channel_port_alloc                       0x00027631   Thumb Code    66  nrfx_gpiote.o(i.channel_port_alloc)
    i.channel_port_get                       0x00027678   Section        0  nrfx_gpiote.o(i.channel_port_get)
    channel_port_get                         0x00027679   Thumb Code    10  nrfx_gpiote.o(i.channel_port_get)
    i.clock_clk_started_notify               0x00027688   Section        0  nrf_drv_clock.o(i.clock_clk_started_notify)
    clock_clk_started_notify                 0x00027689   Thumb Code    34  nrf_drv_clock.o(i.clock_clk_started_notify)
    i.clock_irq_handler                      0x000276b0   Section        0  nrf_drv_clock.o(i.clock_irq_handler)
    clock_irq_handler                        0x000276b1   Thumb Code    24  nrf_drv_clock.o(i.clock_irq_handler)
    i.compare_reg_update                     0x000276cc   Section        0  app_timer.o(i.compare_reg_update)
    compare_reg_update                       0x000276cd   Thumb Code   160  app_timer.o(i.compare_reg_update)
    i.conn_handle_list_get                   0x00027778   Section        0  ble_conn_state.o(i.conn_handle_list_get)
    i.conn_int_encode                        0x000277b6   Section        0  ble_advdata.o(i.conn_int_encode)
    conn_int_encode                          0x000277b7   Thumb Code   136  ble_advdata.o(i.conn_int_encode)
    i.conn_params_error_handler              0x0002783e   Section        0  main.o(i.conn_params_error_handler)
    conn_params_error_handler                0x0002783f   Thumb Code     4  main.o(i.conn_params_error_handler)
    i.conn_params_negotiation                0x00027844   Section        0  ble_conn_params.o(i.conn_params_negotiation)
    conn_params_negotiation                  0x00027845   Thumb Code    68  ble_conn_params.o(i.conn_params_negotiation)
    i.data_length_update                     0x0002788c   Section        0  nrf_ble_gatt.o(i.data_length_update)
    data_length_update                       0x0002788d   Thumb Code   112  nrf_ble_gatt.o(i.data_length_update)
    i.detection_delay_timeout_handler        0x00027948   Section        0  app_button.o(i.detection_delay_timeout_handler)
    detection_delay_timeout_handler          0x00027949   Thumb Code   148  app_button.o(i.detection_delay_timeout_handler)
    i.dropped_sat16_get                      0x000279e0   Section        0  nrf_log_frontend.o(i.dropped_sat16_get)
    dropped_sat16_get                        0x000279e1   Thumb Code    16  nrf_log_frontend.o(i.dropped_sat16_get)
    i.elapsed_ticks_acquire                  0x000279f4   Section        0  app_timer.o(i.elapsed_ticks_acquire)
    elapsed_ticks_acquire                    0x000279f5   Thumb Code    58  app_timer.o(i.elapsed_ticks_acquire)
    i.gpiote_event_handler                   0x00027a34   Section        0  app_button.o(i.gpiote_event_handler)
    gpiote_event_handler                     0x00027a35   Thumb Code   122  app_button.o(i.gpiote_event_handler)
    i.instance_get                           0x00027ab8   Section        0  ble_conn_params.o(i.instance_get)
    instance_get                             0x00027ab9   Thumb Code    14  ble_conn_params.o(i.instance_get)
    i.int_print                              0x00027acc   Section        0  nrf_fprintf_format.o(i.int_print)
    int_print                                0x00027acd   Thumb Code   166  nrf_fprintf_format.o(i.int_print)
    i.interrupts_enable                      0x00027b74   Section        0  nrfx_uarte.o(i.interrupts_enable)
    interrupts_enable                        0x00027b75   Thumb Code   122  nrfx_uarte.o(i.interrupts_enable)
    i.invalid_packets_pushed_str_omit        0x00027bf4   Section        0  nrf_log_frontend.o(i.invalid_packets_pushed_str_omit)
    invalid_packets_pushed_str_omit          0x00027bf5   Thumb Code    76  nrf_log_frontend.o(i.invalid_packets_pushed_str_omit)
    i.is_conn_params_ok                      0x00027c40   Section        0  ble_conn_params.o(i.is_conn_params_ok)
    is_conn_params_ok                        0x00027c41   Thumb Code    68  ble_conn_params.o(i.is_conn_params_ok)
    i.led_char_add                           0x00027c84   Section        0  ble_lbs.o(i.led_char_add)
    led_char_add                             0x00027c85   Thumb Code   158  ble_lbs.o(i.led_char_add)
    i.led_write_handler                      0x00027d24   Section        0  main.o(i.led_write_handler)
    led_write_handler                        0x00027d25   Thumb Code    46  main.o(i.led_write_handler)
    i.link_init                              0x00027d80   Section        0  nrf_ble_gatt.o(i.link_init)
    link_init                                0x00027d81   Thumb Code    20  nrf_ble_gatt.o(i.link_init)
    i.list_insertions_handler                0x00027d94   Section        0  app_timer.o(i.list_insertions_handler)
    list_insertions_handler                  0x00027d95   Thumb Code   234  app_timer.o(i.list_insertions_handler)
    i.log_skip                               0x00027e8c   Section        0  nrf_log_frontend.o(i.log_skip)
    log_skip                                 0x00027e8d   Thumb Code   148  nrf_log_frontend.o(i.log_skip)
    i.main                                   0x00027f28   Section        0  main.o(i.main)
    i.manuf_specific_data_encode             0x000280b4   Section        0  ble_advdata.o(i.manuf_specific_data_encode)
    manuf_specific_data_encode               0x000280b5   Thumb Code   100  ble_advdata.o(i.manuf_specific_data_encode)
    i.memobj_op                              0x00028118   Section        0  nrf_memobj.o(i.memobj_op)
    memobj_op                                0x00028119   Thumb Code   118  nrf_memobj.o(i.memobj_op)
    i.module_idx_get                         0x00028190   Section        0  nrf_log_frontend.o(i.module_idx_get)
    module_idx_get                           0x00028191   Thumb Code    44  nrf_log_frontend.o(i.module_idx_get)
    i.name_encode                            0x000281c0   Section        0  ble_advdata.o(i.name_encode)
    name_encode                              0x000281c1   Thumb Code   156  ble_advdata.o(i.name_encode)
    i.nrf_atflags_clear                      0x0002825c   Section        0  nrf_atflags.o(i.nrf_atflags_clear)
    i.nrf_atflags_get                        0x00028272   Section        0  nrf_atflags.o(i.nrf_atflags_get)
    i.nrf_atflags_set                        0x00028288   Section        0  nrf_atflags.o(i.nrf_atflags_set)
    i.nrf_atomic_flag_clear_fetch            0x0002829c   Section        0  nrf_atomic.o(i.nrf_atomic_flag_clear_fetch)
    i.nrf_atomic_flag_set                    0x000282a2   Section        0  nrf_atomic.o(i.nrf_atomic_flag_set)
    i.nrf_atomic_u32_add                     0x000282a8   Section        0  nrf_atomic.o(i.nrf_atomic_u32_add)
    i.nrf_atomic_u32_and                     0x000282b4   Section        0  nrf_atomic.o(i.nrf_atomic_u32_and)
    i.nrf_atomic_u32_fetch_and               0x000282c0   Section        0  nrf_atomic.o(i.nrf_atomic_u32_fetch_and)
    i.nrf_atomic_u32_fetch_store             0x000282ca   Section        0  nrf_atomic.o(i.nrf_atomic_u32_fetch_store)
    i.nrf_atomic_u32_or                      0x000282d4   Section        0  nrf_atomic.o(i.nrf_atomic_u32_or)
    i.nrf_atomic_u32_sub                     0x000282e0   Section        0  nrf_atomic.o(i.nrf_atomic_u32_sub)
    i.nrf_balloc_alloc                       0x000282ec   Section        0  nrf_balloc.o(i.nrf_balloc_alloc)
    i.nrf_balloc_free                        0x00028330   Section        0  nrf_balloc.o(i.nrf_balloc_free)
    i.nrf_balloc_init                        0x00028360   Section        0  nrf_balloc.o(i.nrf_balloc_init)
    i.nrf_bitmask_bit_is_set                 0x00028390   Section        0  nrfx_gpiote.o(i.nrf_bitmask_bit_is_set)
    nrf_bitmask_bit_is_set                   0x00028391   Thumb Code    16  nrfx_gpiote.o(i.nrf_bitmask_bit_is_set)
    i.nrf_bitmask_bit_set                    0x000283a0   Section        0  nrfx_gpiote.o(i.nrf_bitmask_bit_set)
    nrf_bitmask_bit_set                      0x000283a1   Thumb Code    20  nrfx_gpiote.o(i.nrf_bitmask_bit_set)
    i.nrf_ble_gatt_init                      0x000283b4   Section        0  nrf_ble_gatt.o(i.nrf_ble_gatt_init)
    i.nrf_ble_gatt_on_ble_evt                0x000283d8   Section        0  nrf_ble_gatt.o(i.nrf_ble_gatt_on_ble_evt)
    i.nrf_ble_qwr_conn_handle_assign         0x00028520   Section        0  nrf_ble_qwr.o(i.nrf_ble_qwr_conn_handle_assign)
    i.nrf_ble_qwr_init                       0x00028536   Section        0  nrf_ble_qwr.o(i.nrf_ble_qwr_init)
    i.nrf_ble_qwr_on_ble_evt                 0x0002855a   Section        0  nrf_ble_qwr.o(i.nrf_ble_qwr_on_ble_evt)
    i.nrf_clock_event_check                  0x00028610   Section        0  nrfx_clock.o(i.nrf_clock_event_check)
    nrf_clock_event_check                    0x00028611   Thumb Code    14  nrfx_clock.o(i.nrf_clock_event_check)
    i.nrf_clock_event_clear                  0x0002861e   Section        0  nrfx_clock.o(i.nrf_clock_event_clear)
    nrf_clock_event_clear                    0x0002861f   Thumb Code    16  nrfx_clock.o(i.nrf_clock_event_clear)
    i.nrf_drv_clock_init                     0x00028630   Section        0  nrf_drv_clock.o(i.nrf_drv_clock_init)
    i.nrf_drv_clock_lfclk_release            0x00028668   Section        0  nrf_drv_clock.o(i.nrf_drv_clock_lfclk_release)
    i.nrf_drv_uart_init                      0x00028698   Section        0  nrf_drv_uart.o(i.nrf_drv_uart_init)
    i.nrf_fprintf                            0x00028700   Section        0  nrf_fprintf.o(i.nrf_fprintf)
    i.nrf_fprintf_buffer_flush               0x0002871a   Section        0  nrf_fprintf.o(i.nrf_fprintf_buffer_flush)
    i.nrf_fprintf_fmt                        0x00028732   Section        0  nrf_fprintf_format.o(i.nrf_fprintf_fmt)
    i.nrf_gpio_cfg                           0x0002890c   Section        0  boards.o(i.nrf_gpio_cfg)
    nrf_gpio_cfg                             0x0002890d   Thumb Code    50  boards.o(i.nrf_gpio_cfg)
    i.nrf_gpio_cfg                           0x0002893e   Section        0  nrfx_gpiote.o(i.nrf_gpio_cfg)
    nrf_gpio_cfg                             0x0002893f   Thumb Code    50  nrfx_gpiote.o(i.nrf_gpio_cfg)
    i.nrf_gpio_cfg                           0x00028970   Section        0  nrfx_uart.o(i.nrf_gpio_cfg)
    nrf_gpio_cfg                             0x00028971   Thumb Code    50  nrfx_uart.o(i.nrf_gpio_cfg)
    i.nrf_gpio_cfg                           0x000289a2   Section        0  nrfx_uarte.o(i.nrf_gpio_cfg)
    nrf_gpio_cfg                             0x000289a3   Thumb Code    50  nrfx_uarte.o(i.nrf_gpio_cfg)
    i.nrf_gpio_cfg_default                   0x000289d4   Section        0  nrfx_uart.o(i.nrf_gpio_cfg_default)
    nrf_gpio_cfg_default                     0x000289d5   Thumb Code    18  nrfx_uart.o(i.nrf_gpio_cfg_default)
    i.nrf_gpio_cfg_default                   0x000289e6   Section        0  nrfx_uarte.o(i.nrf_gpio_cfg_default)
    nrf_gpio_cfg_default                     0x000289e7   Thumb Code    18  nrfx_uarte.o(i.nrf_gpio_cfg_default)
    i.nrf_gpio_cfg_input                     0x000289f8   Section        0  nrfx_uart.o(i.nrf_gpio_cfg_input)
    nrf_gpio_cfg_input                       0x000289f9   Thumb Code    18  nrfx_uart.o(i.nrf_gpio_cfg_input)
    i.nrf_gpio_cfg_input                     0x00028a0a   Section        0  nrfx_uarte.o(i.nrf_gpio_cfg_input)
    nrf_gpio_cfg_input                       0x00028a0b   Thumb Code    18  nrfx_uarte.o(i.nrf_gpio_cfg_input)
    i.nrf_gpio_cfg_output                    0x00028a1c   Section        0  nrfx_uart.o(i.nrf_gpio_cfg_output)
    nrf_gpio_cfg_output                      0x00028a1d   Thumb Code    20  nrfx_uart.o(i.nrf_gpio_cfg_output)
    i.nrf_gpio_cfg_output                    0x00028a30   Section        0  nrfx_uarte.o(i.nrf_gpio_cfg_output)
    nrf_gpio_cfg_output                      0x00028a31   Thumb Code    20  nrfx_uarte.o(i.nrf_gpio_cfg_output)
    i.nrf_gpio_cfg_sense_set                 0x00028a44   Section        0  nrfx_gpiote.o(i.nrf_gpio_cfg_sense_set)
    nrf_gpio_cfg_sense_set                   0x00028a45   Thumb Code    48  nrfx_gpiote.o(i.nrf_gpio_cfg_sense_set)
    i.nrf_gpio_pin_port_decode               0x00028a74   Section        0  boards.o(i.nrf_gpio_pin_port_decode)
    nrf_gpio_pin_port_decode                 0x00028a75   Thumb Code    22  boards.o(i.nrf_gpio_pin_port_decode)
    i.nrf_gpio_pin_port_decode               0x00028a90   Section        0  nrfx_gpiote.o(i.nrf_gpio_pin_port_decode)
    nrf_gpio_pin_port_decode                 0x00028a91   Thumb Code    22  nrfx_gpiote.o(i.nrf_gpio_pin_port_decode)
    i.nrf_gpio_pin_port_decode               0x00028aac   Section        0  nrfx_uart.o(i.nrf_gpio_pin_port_decode)
    nrf_gpio_pin_port_decode                 0x00028aad   Thumb Code    22  nrfx_uart.o(i.nrf_gpio_pin_port_decode)
    i.nrf_gpio_pin_port_decode               0x00028ac8   Section        0  nrfx_uarte.o(i.nrf_gpio_pin_port_decode)
    nrf_gpio_pin_port_decode                 0x00028ac9   Thumb Code    22  nrfx_uarte.o(i.nrf_gpio_pin_port_decode)
    i.nrf_gpio_pin_read                      0x00028ae4   Section        0  nrfx_gpiote.o(i.nrf_gpio_pin_read)
    nrf_gpio_pin_read                        0x00028ae5   Thumb Code    22  nrfx_gpiote.o(i.nrf_gpio_pin_read)
    i.nrf_gpio_pin_set                       0x00028afa   Section        0  nrfx_uart.o(i.nrf_gpio_pin_set)
    nrf_gpio_pin_set                         0x00028afb   Thumb Code    20  nrfx_uart.o(i.nrf_gpio_pin_set)
    i.nrf_gpio_pin_set                       0x00028b0e   Section        0  nrfx_uarte.o(i.nrf_gpio_pin_set)
    nrf_gpio_pin_set                         0x00028b0f   Thumb Code    20  nrfx_uarte.o(i.nrf_gpio_pin_set)
    i.nrf_gpio_pin_write                     0x00028b22   Section        0  boards.o(i.nrf_gpio_pin_write)
    nrf_gpio_pin_write                       0x00028b23   Thumb Code    38  boards.o(i.nrf_gpio_pin_write)
    i.nrf_gpio_ports_read                    0x00028b48   Section        0  nrfx_gpiote.o(i.nrf_gpio_ports_read)
    nrf_gpio_ports_read                      0x00028b49   Thumb Code    38  nrfx_gpiote.o(i.nrf_gpio_ports_read)
    i.nrf_gpiote_event_clear                 0x00028b74   Section        0  nrfx_gpiote.o(i.nrf_gpiote_event_clear)
    nrf_gpiote_event_clear                   0x00028b75   Thumb Code    16  nrfx_gpiote.o(i.nrf_gpiote_event_clear)
    i.nrf_gpiote_event_is_set                0x00028b88   Section        0  nrfx_gpiote.o(i.nrf_gpiote_event_is_set)
    nrf_gpiote_event_is_set                  0x00028b89   Thumb Code    12  nrfx_gpiote.o(i.nrf_gpiote_event_is_set)
    i.nrf_log_backend_add                    0x00028b98   Section        0  nrf_log_frontend.o(i.nrf_log_backend_add)
    i.nrf_log_backend_serial_put             0x00028be8   Section        0  nrf_log_backend_serial.o(i.nrf_log_backend_serial_put)
    i.nrf_log_backend_uart_flush             0x00028cb0   Section        0  nrf_log_backend_uart.o(i.nrf_log_backend_uart_flush)
    nrf_log_backend_uart_flush               0x00028cb1   Thumb Code     2  nrf_log_backend_uart.o(i.nrf_log_backend_uart_flush)
    i.nrf_log_backend_uart_init              0x00028cb2   Section        0  nrf_log_backend_uart.o(i.nrf_log_backend_uart_init)
    i.nrf_log_backend_uart_panic_set         0x00028cb8   Section        0  nrf_log_backend_uart.o(i.nrf_log_backend_uart_panic_set)
    nrf_log_backend_uart_panic_set           0x00028cb9   Thumb Code    36  nrf_log_backend_uart.o(i.nrf_log_backend_uart_panic_set)
    i.nrf_log_backend_uart_put               0x00028ce4   Section        0  nrf_log_backend_uart.o(i.nrf_log_backend_uart_put)
    nrf_log_backend_uart_put                 0x00028ce5   Thumb Code    16  nrf_log_backend_uart.o(i.nrf_log_backend_uart_put)
    i.nrf_log_color_id_get                   0x00028cfc   Section        0  nrf_log_frontend.o(i.nrf_log_color_id_get)
    i.nrf_log_default_backends_init          0x00028d2c   Section        0  nrf_log_default_backends.o(i.nrf_log_default_backends_init)
    i.nrf_log_frontend_dequeue               0x00028d48   Section        0  nrf_log_frontend.o(i.nrf_log_frontend_dequeue)
    i.nrf_log_frontend_std_0                 0x00028f68   Section        0  nrf_log_frontend.o(i.nrf_log_frontend_std_0)
    i.nrf_log_frontend_std_1                 0x00028f70   Section        0  nrf_log_frontend.o(i.nrf_log_frontend_std_1)
    i.nrf_log_frontend_std_2                 0x00028f7e   Section        0  nrf_log_frontend.o(i.nrf_log_frontend_std_2)
    i.nrf_log_hexdump_entry_process          0x00028f90   Section        0  nrf_log_str_formatter.o(i.nrf_log_hexdump_entry_process)
    i.nrf_log_init                           0x0002903c   Section        0  nrf_log_frontend.o(i.nrf_log_init)
    i.nrf_log_module_cnt_get                 0x00029094   Section        0  nrf_log_frontend.o(i.nrf_log_module_cnt_get)
    i.nrf_log_module_name_get                0x000290a8   Section        0  nrf_log_frontend.o(i.nrf_log_module_name_get)
    i.nrf_log_panic                          0x000290c4   Section        0  nrf_log_frontend.o(i.nrf_log_panic)
    i.nrf_log_std_entry_process              0x000290ec   Section        0  nrf_log_str_formatter.o(i.nrf_log_std_entry_process)
    i.nrf_memobj_alloc                       0x000291a2   Section        0  nrf_memobj.o(i.nrf_memobj_alloc)
    i.nrf_memobj_free                        0x00029202   Section        0  nrf_memobj.o(i.nrf_memobj_free)
    i.nrf_memobj_get                         0x00029234   Section        0  nrf_memobj.o(i.nrf_memobj_get)
    i.nrf_memobj_pool_init                   0x0002923c   Section        0  nrf_memobj.o(i.nrf_memobj_pool_init)
    i.nrf_memobj_put                         0x00029240   Section        0  nrf_memobj.o(i.nrf_memobj_put)
    i.nrf_memobj_read                        0x0002925e   Section        0  nrf_memobj.o(i.nrf_memobj_read)
    i.nrf_memobj_write                       0x0002926a   Section        0  nrf_memobj.o(i.nrf_memobj_write)
    i.nrf_pwr_mgmt_init                      0x00029278   Section        0  nrf_pwr_mgmt.o(i.nrf_pwr_mgmt_init)
    i.nrf_pwr_mgmt_run                       0x000292a0   Section        0  nrf_pwr_mgmt.o(i.nrf_pwr_mgmt_run)
    i.nrf_qwr_error_handler                  0x000292e4   Section        0  main.o(i.nrf_qwr_error_handler)
    nrf_qwr_error_handler                    0x000292e5   Thumb Code     4  main.o(i.nrf_qwr_error_handler)
    i.nrf_sdh_ble_app_ram_start_get          0x000292e8   Section        0  nrf_sdh_ble.o(i.nrf_sdh_ble_app_ram_start_get)
    i.nrf_sdh_ble_default_cfg_set            0x000292fc   Section        0  nrf_sdh_ble.o(i.nrf_sdh_ble_default_cfg_set)
    i.nrf_sdh_ble_enable                     0x00029404   Section        0  nrf_sdh_ble.o(i.nrf_sdh_ble_enable)
    i.nrf_sdh_ble_evts_poll                  0x00029530   Section        0  nrf_sdh_ble.o(i.nrf_sdh_ble_evts_poll)
    nrf_sdh_ble_evts_poll                    0x00029531   Thumb Code    82  nrf_sdh_ble.o(i.nrf_sdh_ble_evts_poll)
    i.nrf_sdh_enable_request                 0x0002958c   Section        0  nrf_sdh.o(i.nrf_sdh_enable_request)
    i.nrf_sdh_evts_poll                      0x00029600   Section        0  nrf_sdh.o(i.nrf_sdh_evts_poll)
    i.nrf_sdh_is_enabled                     0x00029624   Section        0  nrf_sdh.o(i.nrf_sdh_is_enabled)
    i.nrf_sdh_soc_evts_poll                  0x00029630   Section        0  nrf_sdh_soc.o(i.nrf_sdh_soc_evts_poll)
    nrf_sdh_soc_evts_poll                    0x00029631   Thumb Code    56  nrf_sdh_soc.o(i.nrf_sdh_soc_evts_poll)
    i.nrf_section_iter_init                  0x0002966c   Section        0  nrf_section_iter.o(i.nrf_section_iter_init)
    i.nrf_section_iter_item_set              0x00029676   Section        0  nrf_section_iter.o(i.nrf_section_iter_item_set)
    nrf_section_iter_item_set                0x00029677   Thumb Code    36  nrf_section_iter.o(i.nrf_section_iter_item_set)
    i.nrf_section_iter_next                  0x0002969a   Section        0  nrf_section_iter.o(i.nrf_section_iter_next)
    i.nrf_strerror_find                      0x000296bc   Section        0  nrf_strerror.o(i.nrf_strerror_find)
    i.nrf_strerror_get                       0x000296f4   Section        0  nrf_strerror.o(i.nrf_strerror_get)
    i.nrf_uart_event_check                   0x00029708   Section        0  nrfx_uart.o(i.nrf_uart_event_check)
    nrf_uart_event_check                     0x00029709   Thumb Code    10  nrfx_uart.o(i.nrf_uart_event_check)
    i.nrf_uart_event_clear                   0x00029712   Section        0  nrfx_uart.o(i.nrf_uart_event_clear)
    nrf_uart_event_clear                     0x00029713   Thumb Code    12  nrfx_uart.o(i.nrf_uart_event_clear)
    i.nrf_uart_int_enable_check              0x0002971e   Section        0  nrfx_uart.o(i.nrf_uart_int_enable_check)
    nrf_uart_int_enable_check                0x0002971f   Thumb Code    12  nrfx_uart.o(i.nrf_uart_int_enable_check)
    i.nrf_uarte_event_check                  0x0002972a   Section        0  nrfx_uarte.o(i.nrf_uarte_event_check)
    nrf_uarte_event_check                    0x0002972b   Thumb Code    10  nrfx_uarte.o(i.nrf_uarte_event_check)
    i.nrf_uarte_event_clear                  0x00029734   Section        0  nrfx_uarte.o(i.nrf_uarte_event_clear)
    nrf_uarte_event_clear                    0x00029735   Thumb Code    12  nrfx_uarte.o(i.nrf_uarte_event_clear)
    i.nrfx_clock_enable                      0x00029740   Section        0  nrfx_clock.o(i.nrfx_clock_enable)
    i.nrfx_clock_init                        0x0002976c   Section        0  nrfx_clock.o(i.nrfx_clock_init)
    i.nrfx_clock_lfclk_stop                  0x0002978c   Section        0  nrfx_clock.o(i.nrfx_clock_lfclk_stop)
    i.nrfx_coredep_delay_us                  0x000297a8   Section        0  app_timer.o(i.nrfx_coredep_delay_us)
    nrfx_coredep_delay_us                    0x000297a9   Thumb Code    12  app_timer.o(i.nrfx_coredep_delay_us)
    i.nrfx_gpiote_in_event_disable           0x000297b8   Section        0  nrfx_gpiote.o(i.nrfx_gpiote_in_event_disable)
    i.nrfx_gpiote_in_event_enable            0x00029800   Section        0  nrfx_gpiote.o(i.nrfx_gpiote_in_event_enable)
    i.nrfx_gpiote_in_init                    0x00029898   Section        0  nrfx_gpiote.o(i.nrfx_gpiote_in_init)
    i.nrfx_gpiote_in_is_set                  0x0002996c   Section        0  nrfx_gpiote.o(i.nrfx_gpiote_in_is_set)
    i.nrfx_gpiote_init                       0x0002997c   Section        0  nrfx_gpiote.o(i.nrfx_gpiote_init)
    i.nrfx_gpiote_is_init                    0x000299f0   Section        0  nrfx_gpiote.o(i.nrfx_gpiote_is_init)
    i.nrfx_is_in_ram                         0x00029a04   Section        0  nrfx_uarte.o(i.nrfx_is_in_ram)
    nrfx_is_in_ram                           0x00029a05   Thumb Code    16  nrfx_uarte.o(i.nrfx_is_in_ram)
    i.nrfx_prs_acquire                       0x00029a14   Section        0  nrfx_prs.o(i.nrfx_prs_acquire)
    i.nrfx_prs_release                       0x00029a4e   Section        0  nrfx_prs.o(i.nrfx_prs_release)
    i.nrfx_uart_0_irq_handler                0x00029a60   Section        0  nrfx_uart.o(i.nrfx_uart_0_irq_handler)
    i.nrfx_uart_init                         0x00029a70   Section        0  nrfx_uart.o(i.nrfx_uart_init)
    i.nrfx_uart_tx                           0x00029b44   Section        0  nrfx_uart.o(i.nrfx_uart_tx)
    i.nrfx_uart_tx_in_progress               0x00029be8   Section        0  nrfx_uart.o(i.nrfx_uart_tx_in_progress)
    i.nrfx_uart_uninit                       0x00029c08   Section        0  nrfx_uart.o(i.nrfx_uart_uninit)
    i.nrfx_uarte_0_irq_handler               0x00029cbc   Section        0  nrfx_uarte.o(i.nrfx_uarte_0_irq_handler)
    i.nrfx_uarte_init                        0x00029ccc   Section        0  nrfx_uarte.o(i.nrfx_uarte_init)
    i.nrfx_uarte_tx                          0x00029d38   Section        0  nrfx_uarte.o(i.nrfx_uarte_tx)
    i.nrfx_uarte_tx_in_progress              0x00029dc8   Section        0  nrfx_uarte.o(i.nrfx_uarte_tx_in_progress)
    i.nrfx_uarte_uninit                      0x00029de4   Section        0  nrfx_uarte.o(i.nrfx_uarte_uninit)
    i.on_conn_params_evt                     0x00029e94   Section        0  main.o(i.on_conn_params_evt)
    on_conn_params_evt                       0x00029e95   Thumb Code    24  main.o(i.on_conn_params_evt)
    i.on_connected_evt                       0x00029eb0   Section        0  nrf_ble_gatt.o(i.on_connected_evt)
    on_connected_evt                         0x00029eb1   Thumb Code   102  nrf_ble_gatt.o(i.on_connected_evt)
    i.on_exchange_mtu_request_evt            0x00029f50   Section        0  nrf_ble_gatt.o(i.on_exchange_mtu_request_evt)
    on_exchange_mtu_request_evt              0x00029f51   Thumb Code   106  nrf_ble_gatt.o(i.on_exchange_mtu_request_evt)
    i.pin_in_use_by_port                     0x00029ff4   Section        0  nrfx_gpiote.o(i.pin_in_use_by_port)
    pin_in_use_by_port                       0x00029ff5   Thumb Code    20  nrfx_gpiote.o(i.pin_in_use_by_port)
    i.pin_in_use_by_te                       0x0002a00c   Section        0  nrfx_gpiote.o(i.pin_in_use_by_te)
    pin_in_use_by_te                         0x0002a00d   Thumb Code    20  nrfx_gpiote.o(i.pin_in_use_by_te)
    i.postfix_process                        0x0002a024   Section        0  nrf_log_str_formatter.o(i.postfix_process)
    postfix_process                          0x0002a025   Thumb Code    48  nrf_log_str_formatter.o(i.postfix_process)
    i.prefix_process                         0x0002a060   Section        0  nrf_log_str_formatter.o(i.prefix_process)
    prefix_process                           0x0002a061   Thumb Code    90  nrf_log_str_formatter.o(i.prefix_process)
    i.prs_box_get                            0x0002a0f8   Section        0  nrfx_prs.o(i.prs_box_get)
    prs_box_get                              0x0002a0f9   Thumb Code    14  nrfx_prs.o(i.prs_box_get)
    i.rtc1_stop                              0x0002a110   Section        0  app_timer.o(i.rtc1_stop)
    rtc1_stop                                0x0002a111   Thumb Code    52  app_timer.o(i.rtc1_stop)
    i.rx_byte                                0x0002a14c   Section        0  nrfx_uart.o(i.rx_byte)
    rx_byte                                  0x0002a14d   Thumb Code    50  nrfx_uart.o(i.rx_byte)
    i.rx_done_event                          0x0002a17e   Section        0  nrfx_uart.o(i.rx_done_event)
    rx_done_event                            0x0002a17f   Thumb Code    22  nrfx_uart.o(i.rx_done_event)
    i.rx_done_event                          0x0002a194   Section        0  nrfx_uarte.o(i.rx_done_event)
    rx_done_event                            0x0002a195   Thumb Code    24  nrfx_uarte.o(i.rx_done_event)
    i.sd_state_evt_handler                   0x0002a1ac   Section        0  nrf_drv_clock.o(i.sd_state_evt_handler)
    sd_state_evt_handler                     0x0002a1ad   Thumb Code    76  nrf_drv_clock.o(i.sd_state_evt_handler)
    i.sdh_request_observer_notify            0x0002a1fc   Section        0  nrf_sdh.o(i.sdh_request_observer_notify)
    sdh_request_observer_notify              0x0002a1fd   Thumb Code    44  nrf_sdh.o(i.sdh_request_observer_notify)
    i.sdh_state_observer_notify              0x0002a22c   Section        0  nrf_sdh.o(i.sdh_state_observer_notify)
    sdh_state_observer_notify                0x0002a22d   Thumb Code    38  nrf_sdh.o(i.sdh_state_observer_notify)
    i.send_error_evt                         0x0002a258   Section        0  ble_conn_params.o(i.send_error_evt)
    send_error_evt                           0x0002a259   Thumb Code    12  ble_conn_params.o(i.send_error_evt)
    i.serial_tx                              0x0002a268   Section        0  nrf_log_backend_uart.o(i.serial_tx)
    serial_tx                                0x0002a269   Thumb Code    54  nrf_log_backend_uart.o(i.serial_tx)
    i.service_data_encode                    0x0002a2a8   Section        0  ble_advdata.o(i.service_data_encode)
    service_data_encode                      0x0002a2a9   Thumb Code   136  ble_advdata.o(i.service_data_encode)
    i.soc_evt_handler                        0x0002a330   Section        0  nrf_drv_clock.o(i.soc_evt_handler)
    soc_evt_handler                          0x0002a331   Thumb Code    18  nrf_drv_clock.o(i.soc_evt_handler)
    i.softdevices_evt_irq_enable             0x0002a348   Section        0  nrf_sdh.o(i.softdevices_evt_irq_enable)
    softdevices_evt_irq_enable               0x0002a349   Thumb Code    80  nrf_sdh.o(i.softdevices_evt_irq_enable)
    i.std_n                                  0x0002a3a0   Section        0  nrf_log_frontend.o(i.std_n)
    std_n                                    0x0002a3a1   Thumb Code   136  nrf_log_frontend.o(i.std_n)
    i.timer_list_handler                     0x0002a42c   Section        0  app_timer.o(i.timer_list_handler)
    timer_list_handler                       0x0002a42d   Thumb Code   122  app_timer.o(i.timer_list_handler)
    i.timer_list_insert                      0x0002a4ac   Section        0  app_timer.o(i.timer_list_insert)
    timer_list_insert                        0x0002a4ad   Thumb Code    56  app_timer.o(i.timer_list_insert)
    i.timer_list_remove                      0x0002a4e8   Section        0  app_timer.o(i.timer_list_remove)
    timer_list_remove                        0x0002a4e9   Thumb Code    88  app_timer.o(i.timer_list_remove)
    i.timer_stop_op_schedule                 0x0002a548   Section        0  app_timer.o(i.timer_stop_op_schedule)
    timer_stop_op_schedule                   0x0002a549   Thumb Code    68  app_timer.o(i.timer_stop_op_schedule)
    i.timer_timeouts_check                   0x0002a590   Section        0  app_timer.o(i.timer_timeouts_check)
    timer_timeouts_check                     0x0002a591   Thumb Code   106  app_timer.o(i.timer_timeouts_check)
    i.tx_byte                                0x0002a604   Section        0  nrfx_uart.o(i.tx_byte)
    tx_byte                                  0x0002a605   Thumb Code    32  nrfx_uart.o(i.tx_byte)
    i.tx_done_event                          0x0002a624   Section        0  nrfx_uart.o(i.tx_done_event)
    tx_done_event                            0x0002a625   Thumb Code    26  nrfx_uart.o(i.tx_done_event)
    i.uart_evt_handler                       0x0002a640   Section        0  nrf_drv_uart.o(i.uart_evt_handler)
    uart_evt_handler                         0x0002a641   Thumb Code    42  nrf_drv_uart.o(i.uart_evt_handler)
    i.uart_evt_handler                       0x0002a670   Section        0  nrf_log_backend_uart.o(i.uart_evt_handler)
    uart_evt_handler                         0x0002a671   Thumb Code     8  nrf_log_backend_uart.o(i.uart_evt_handler)
    i.uart_init                              0x0002a67c   Section        0  nrf_log_backend_uart.o(i.uart_init)
    uart_init                                0x0002a67d   Thumb Code    66  nrf_log_backend_uart.o(i.uart_init)
    i.uart_irq_handler                       0x0002a6cc   Section        0  nrfx_uart.o(i.uart_irq_handler)
    uart_irq_handler                         0x0002a6cd   Thumb Code   296  nrfx_uart.o(i.uart_irq_handler)
    i.uarte_evt_handler                      0x0002a7f4   Section        0  nrf_drv_uart.o(i.uarte_evt_handler)
    uarte_evt_handler                        0x0002a7f5   Thumb Code    42  nrf_drv_uart.o(i.uarte_evt_handler)
    i.uarte_irq_handler                      0x0002a824   Section        0  nrfx_uarte.o(i.uarte_irq_handler)
    uarte_irq_handler                        0x0002a825   Thumb Code   244  nrfx_uarte.o(i.uarte_irq_handler)
    i.uint16_encode                          0x0002a918   Section        0  ble_advdata.o(i.uint16_encode)
    uint16_encode                            0x0002a919   Thumb Code    10  ble_advdata.o(i.uint16_encode)
    i.unsigned_print                         0x0002a924   Section        0  nrf_fprintf_format.o(i.unsigned_print)
    unsigned_print                           0x0002a925   Thumb Code   176  nrf_fprintf_format.o(i.unsigned_print)
    i.update_timeout_handler                 0x0002a9d8   Section        0  ble_conn_params.o(i.update_timeout_handler)
    update_timeout_handler                   0x0002a9d9   Thumb Code    98  ble_conn_params.o(i.update_timeout_handler)
    i.user_mem_reply                         0x0002aa40   Section        0  nrf_ble_qwr.o(i.user_mem_reply)
    user_mem_reply                           0x0002aa41   Thumb Code    36  nrf_ble_qwr.o(i.user_mem_reply)
    i.user_op_alloc                          0x0002aa64   Section        0  app_timer.o(i.user_op_alloc)
    user_op_alloc                            0x0002aa65   Thumb Code    42  app_timer.o(i.user_op_alloc)
    i.uuid_list_encode                       0x0002aa94   Section        0  ble_advdata.o(i.uuid_list_encode)
    uuid_list_encode                         0x0002aa95   Thumb Code    48  ble_advdata.o(i.uuid_list_encode)
    i.uuid_list_sized_encode                 0x0002aac4   Section        0  ble_advdata.o(i.uuid_list_sized_encode)
    uuid_list_sized_encode                   0x0002aac5   Thumb Code   158  ble_advdata.o(i.uuid_list_sized_encode)
    .constdata                               0x0002ab64   Section        4  main.o(.constdata)
    .constdata                               0x0002ab68   Section        8  boards.o(.constdata)
    m_board_led_list                         0x0002ab68   Data           4  boards.o(.constdata)
    m_board_btn_list                         0x0002ab6c   Data           4  boards.o(.constdata)
    .constdata                               0x0002ab70   Section       22  nrf_ble_gatt.o(.constdata)
    .constdata                               0x0002ab88   Section       16  ble_lbs.o(.constdata)
    .constdata                               0x0002ab98   Section        8  nrfx_gpiote.o(.constdata)
    .constdata                               0x0002aba0   Section        4  nrfx_uart.o(.constdata)
    irq_handlers                             0x0002aba0   Data           4  nrfx_uart.o(.constdata)
    .constdata                               0x0002aba4   Section        4  nrfx_uarte.o(.constdata)
    irq_handlers                             0x0002aba4   Data           4  nrfx_uarte.o(.constdata)
    .constdata                               0x0002aba8   Section        8  app_button.o(.constdata)
    m_detection_delay_timer_id               0x0002abac   Data           4  app_button.o(.constdata)
    .constdata                               0x0002abb0   Section        6  app_timer.o(.constdata)
    delay_bytecode                           0x0002abb0   Data           6  app_timer.o(.constdata)
    .constdata                               0x0002abb6   Section       16  nrf_fprintf_format.o(.constdata)
    _aV2C                                    0x0002abb6   Data          16  nrf_fprintf_format.o(.constdata)
    .constdata                               0x0002abc8   Section       24  nrf_pwr_mgmt.o(.constdata)
    pwr_mgmt_data_array                      0x0002abc8   Data          24  nrf_pwr_mgmt.o(.constdata)
    .constdata                               0x0002abe0   Section       12  nrf_pwr_mgmt.o(.constdata)
    pwr_mgmt_data                            0x0002abe0   Data          12  nrf_pwr_mgmt.o(.constdata)
    .constdata                               0x0002abec   Section      316  nrf_strerror.o(.constdata)
    m_unknown_str                            0x0002abec   Data          19  nrf_strerror.o(.constdata)
    nrf_strerror_array                       0x0002ac00   Data         296  nrf_strerror.o(.constdata)
    .constdata                               0x0002ad28   Section       12  nrf_log_backend_uart.o(.constdata)
    .constdata                               0x0002ad34   Section       32  nrf_log_backend_uart.o(.constdata)
    .constdata                               0x0002ad54   Section       16  nrf_sdh.o(.constdata)
    sdh_req_observers_array                  0x0002ad54   Data          16  nrf_sdh.o(.constdata)
    .constdata                               0x0002ad64   Section       40  nrf_sdh.o(.constdata)
    sdh_req_observers                        0x0002ad68   Data          12  nrf_sdh.o(.constdata)
    sdh_state_observers                      0x0002ad74   Data          12  nrf_sdh.o(.constdata)
    sdh_stack_observers                      0x0002ad80   Data          12  nrf_sdh.o(.constdata)
    .constdata                               0x0002ad8c   Section       16  nrf_sdh.o(.constdata)
    sdh_state_observers_array                0x0002ad8c   Data          16  nrf_sdh.o(.constdata)
    .constdata                               0x0002ad9c   Section       16  nrf_sdh.o(.constdata)
    sdh_stack_observers_array                0x0002ad9c   Data          16  nrf_sdh.o(.constdata)
    .constdata                               0x0002adac   Section       32  nrf_sdh_ble.o(.constdata)
    sdh_ble_observers_array                  0x0002adac   Data          32  nrf_sdh_ble.o(.constdata)
    .constdata                               0x0002adcc   Section       16  nrf_sdh_ble.o(.constdata)
    sdh_ble_observers                        0x0002add0   Data          12  nrf_sdh_ble.o(.constdata)
    .constdata                               0x0002addc   Section       16  nrf_sdh_soc.o(.constdata)
    sdh_soc_observers_array                  0x0002addc   Data          16  nrf_sdh_soc.o(.constdata)
    .constdata                               0x0002adec   Section       12  nrf_sdh_soc.o(.constdata)
    sdh_soc_observers                        0x0002adec   Data          12  nrf_sdh_soc.o(.constdata)
    .constdata                               0x0002adf8   Section      129  ctype_o.o(.constdata)
    .constdata                               0x0002ae7c   Section        4  ctype_o.o(.constdata)
    table                                    0x0002ae7c   Data           4  ctype_o.o(.constdata)
    .conststring                             0x0002ae80   Section      162  nrf_ble_gatt.o(.conststring)
    .conststring                             0x0002af24   Section     1003  nrf_strerror.o(.conststring)
    .conststring                             0x0002b310   Section      102  nrf_log_str_formatter.o(.conststring)
    .conststring                             0x0002b378   Section      392  nrf_sdh_ble.o(.conststring)
    .conststrlit                             0x0002b500   Section       13  nrf_ble_gatt.o(.conststrlit)
    .conststrlit                             0x0002b510   Section        6  nrf_drv_clock.o(.conststrlit)
    .conststrlit                             0x0002b518   Section        6  nrfx_clock.o(.conststrlit)
    .conststrlit                             0x0002b520   Section        7  nrfx_gpiote.o(.conststrlit)
    .conststrlit                             0x0002b528   Section        4  nrfx_prs.o(.conststrlit)
    .conststrlit                             0x0002b52c   Section        5  nrfx_uart.o(.conststrlit)
    .conststrlit                             0x0002b534   Section        6  nrfx_uarte.o(.conststrlit)
    .conststrlit                             0x0002b53c   Section        9  nrf_pwr_mgmt.o(.conststrlit)
    .conststrlit                             0x0002b548   Section       24  nrf_log_frontend.o(.conststrlit)
    .conststrlit                             0x0002b560   Section        8  nrf_sdh.o(.conststrlit)
    .conststrlit                             0x0002b568   Section       12  nrf_sdh_ble.o(.conststrlit)
    .conststrlit                             0x0002b574   Section       12  nrf_sdh_soc.o(.conststrlit)
    log_const_data                           0x0002b5a0   Section        8  nrf_ble_gatt.o(log_const_data)
    __tagsym$$used                           0x0002b5a0   Number         0  nrf_ble_gatt.o(log_const_data)
    log_const_data                           0x0002b5a8   Section        8  nrf_drv_clock.o(log_const_data)
    __tagsym$$used                           0x0002b5a8   Number         0  nrf_drv_clock.o(log_const_data)
    log_const_data                           0x0002b5b0   Section        8  nrfx_clock.o(log_const_data)
    __tagsym$$used                           0x0002b5b0   Number         0  nrfx_clock.o(log_const_data)
    log_const_data                           0x0002b5b8   Section        8  nrfx_gpiote.o(log_const_data)
    __tagsym$$used                           0x0002b5b8   Number         0  nrfx_gpiote.o(log_const_data)
    log_const_data                           0x0002b5c0   Section        8  nrfx_prs.o(log_const_data)
    __tagsym$$used                           0x0002b5c0   Number         0  nrfx_prs.o(log_const_data)
    log_const_data                           0x0002b5c8   Section        8  nrfx_uart.o(log_const_data)
    __tagsym$$used                           0x0002b5c8   Number         0  nrfx_uart.o(log_const_data)
    log_const_data                           0x0002b5d0   Section        8  nrfx_uarte.o(log_const_data)
    __tagsym$$used                           0x0002b5d0   Number         0  nrfx_uarte.o(log_const_data)
    log_const_data                           0x0002b5d8   Section        8  nrf_pwr_mgmt.o(log_const_data)
    __tagsym$$used                           0x0002b5d8   Number         0  nrf_pwr_mgmt.o(log_const_data)
    log_const_data                           0x0002b5e0   Section       16  nrf_log_frontend.o(log_const_data)
    __tagsym$$used                           0x0002b5e0   Number         0  nrf_log_frontend.o(log_const_data)
    __tagsym$$used                           0x0002b5e8   Number         0  nrf_log_frontend.o(log_const_data)
    log_const_data                           0x0002b5f0   Section        8  nrf_sdh.o(log_const_data)
    __tagsym$$used                           0x0002b5f0   Number         0  nrf_sdh.o(log_const_data)
    log_const_data                           0x0002b5f8   Section        8  nrf_sdh_ble.o(log_const_data)
    __tagsym$$used                           0x0002b5f8   Number         0  nrf_sdh_ble.o(log_const_data)
    log_const_data                           0x0002b600   Section        8  nrf_sdh_soc.o(log_const_data)
    __tagsym$$used                           0x0002b600   Number         0  nrf_sdh_soc.o(log_const_data)
    nrf_balloc                               0x0002b608   Section       24  nrf_log_frontend.o(nrf_balloc)
    __tagsym$$used                           0x0002b608   Number         0  nrf_log_frontend.o(nrf_balloc)
    sdh_ble_observers0                       0x0002b620   Section        8  ble_conn_state.o(sdh_ble_observers0)
    __tagsym$$used                           0x0002b620   Number         0  ble_conn_state.o(sdh_ble_observers0)
    m_ble_evt_observer                       0x0002b620   Data           8  ble_conn_state.o(sdh_ble_observers0)
    sdh_ble_observers1                       0x0002b628   Section        8  main.o(sdh_ble_observers1)
    __tagsym$$used                           0x0002b628   Number         0  main.o(sdh_ble_observers1)
    m_gatt_obs                               0x0002b628   Data           8  main.o(sdh_ble_observers1)
    sdh_ble_observers1                       0x0002b630   Section        8  ble_conn_params.o(sdh_ble_observers1)
    __tagsym$$used                           0x0002b630   Number         0  ble_conn_params.o(sdh_ble_observers1)
    m_ble_observer                           0x0002b630   Data           8  ble_conn_params.o(sdh_ble_observers1)
    sdh_ble_observers2                       0x0002b638   Section       16  main.o(sdh_ble_observers2)
    __tagsym$$used                           0x0002b638   Number         0  main.o(sdh_ble_observers2)
    m_lbs_obs                                0x0002b638   Data           8  main.o(sdh_ble_observers2)
    __tagsym$$used                           0x0002b640   Number         0  main.o(sdh_ble_observers2)
    m_qwr_obs                                0x0002b640   Data           8  main.o(sdh_ble_observers2)
    sdh_ble_observers3                       0x0002b648   Section        8  main.o(sdh_ble_observers3)
    __tagsym$$used                           0x0002b648   Number         0  main.o(sdh_ble_observers3)
    m_ble_observer                           0x0002b648   Data           8  main.o(sdh_ble_observers3)
    sdh_soc_observers0                       0x0002b650   Section        8  nrf_drv_clock.o(sdh_soc_observers0)
    __tagsym$$used                           0x0002b650   Number         0  nrf_drv_clock.o(sdh_soc_observers0)
    m_soc_evt_observer                       0x0002b650   Data           8  nrf_drv_clock.o(sdh_soc_observers0)
    sdh_stack_observers0                     0x0002b658   Section        8  nrf_sdh_ble.o(sdh_stack_observers0)
    __tagsym$$used                           0x0002b658   Number         0  nrf_sdh_ble.o(sdh_stack_observers0)
    m_nrf_sdh_ble_evts_poll                  0x0002b658   Data           8  nrf_sdh_ble.o(sdh_stack_observers0)
    sdh_stack_observers0                     0x0002b660   Section        8  nrf_sdh_soc.o(sdh_stack_observers0)
    __tagsym$$used                           0x0002b660   Number         0  nrf_sdh_soc.o(sdh_stack_observers0)
    m_nrf_sdh_soc_evts_poll                  0x0002b660   Data           8  nrf_sdh_soc.o(sdh_stack_observers0)
    sdh_state_observers0                     0x0002b668   Section        8  nrf_drv_clock.o(sdh_state_observers0)
    __tagsym$$used                           0x0002b668   Number         0  nrf_drv_clock.o(sdh_state_observers0)
    m_sd_state_observer                      0x0002b668   Data           8  nrf_drv_clock.o(sdh_state_observers0)
    .data                                    0x200022e0   Section       28  main.o(.data)
    m_adv_handle                             0x200022e0   Data           1  main.o(.data)
    m_conn_handle                            0x200022e2   Data           2  main.o(.data)
    buttons                                  0x200022e4   Data           8  main.o(.data)
    m_adv_data                               0x200022ec   Data          16  main.o(.data)
    .data                                    0x200022fc   Section        8  ble_conn_params.o(.data)
    m_preferred_conn_params                  0x200022fc   Data           8  ble_conn_params.o(.data)
    .data                                    0x20002304   Section       20  nrf_drv_uart.o(.data)
    m_handlers                               0x20002308   Data           8  nrf_drv_uart.o(.data)
    m_contexts                               0x20002310   Data           8  nrf_drv_uart.o(.data)
    .data                                    0x20002318   Section        8  nrfx_clock.o(.data)
    m_clock_cb                               0x20002318   Data           8  nrfx_clock.o(.data)
    .data                                    0x20002320   Section        8  nrfx_prs.o(.data)
    m_prs_box_4                              0x20002320   Data           8  nrfx_prs.o(.data)
    .data                                    0x20002328   Section       32  app_button.o(.data)
    m_button_count                           0x20002328   Data           1  app_button.o(.data)
    mp_buttons                               0x2000232c   Data           4  app_button.o(.data)
    m_detection_delay                        0x20002330   Data           4  app_button.o(.data)
    m_pin_state                              0x20002338   Data           8  app_button.o(.data)
    m_pin_transition                         0x20002340   Data           8  app_button.o(.data)
    .data                                    0x20002348   Section       20  app_timer.o(.data)
    m_ticks_elapsed_q_read_ind               0x20002348   Data           1  app_timer.o(.data)
    m_ticks_elapsed_q_write_ind              0x20002349   Data           1  app_timer.o(.data)
    m_rtc1_running                           0x2000234a   Data           1  app_timer.o(.data)
    m_rtc1_reset                             0x2000234b   Data           1  app_timer.o(.data)
    mp_timer_id_head                         0x2000234c   Data           4  app_timer.o(.data)
    m_ticks_latest                           0x20002350   Data           4  app_timer.o(.data)
    m_ticks_elapsed                          0x20002354   Data           8  app_timer.o(.data)
    .data                                    0x2000235c   Section        8  nrf_pwr_mgmt.o(.data)
    m_pwr_mgmt_evt                           0x2000235c   Data           1  nrf_pwr_mgmt.o(.data)
    m_shutdown_started                       0x2000235d   Data           1  nrf_pwr_mgmt.o(.data)
    m_sysoff_mtx                             0x20002360   Data           4  nrf_pwr_mgmt.o(.data)
    .data                                    0x20002364   Section       24  nrf_log_backend_uart.o(.data)
    m_xfer_done                              0x20002364   Data           1  nrf_log_backend_uart.o(.data)
    m_async_mode                             0x20002365   Data           1  nrf_log_backend_uart.o(.data)
    .data                                    0x2000237c   Section       12  nrf_log_default_backends.o(.data)
    uart_log_backend                         0x2000237c   Data          12  nrf_log_default_backends.o(.data)
    .data                                    0x20002388   Section        8  nrf_log_frontend.o(.data)
    log_mempool_nrf_balloc_pool_stack        0x20002388   Data           8  nrf_log_frontend.o(.data)
    .data                                    0x20002390   Section        8  nrf_log_frontend.o(.data)
    log_mempool_nrf_balloc_cb                0x20002390   Data           8  nrf_log_frontend.o(.data)
    .data                                    0x20002398   Section       64  nrf_log_str_formatter.o(.data)
    m_freq                                   0x20002398   Data           4  nrf_log_str_formatter.o(.data)
    m_timestamp_div                          0x2000239c   Data           4  nrf_log_str_formatter.o(.data)
    severity_names                           0x200023a0   Data          20  nrf_log_str_formatter.o(.data)
    m_colors                                 0x200023b4   Data          36  nrf_log_str_formatter.o(.data)
    .data                                    0x200023d8   Section        3  nrf_sdh.o(.data)
    m_nrf_sdh_enabled                        0x200023d8   Data           1  nrf_sdh.o(.data)
    m_nrf_sdh_suspended                      0x200023d9   Data           1  nrf_sdh.o(.data)
    m_nrf_sdh_continue                       0x200023da   Data           1  nrf_sdh.o(.data)
    .data                                    0x200023db   Section        1  nrf_sdh_ble.o(.data)
    m_stack_is_enabled                       0x200023db   Data           1  nrf_sdh_ble.o(.data)
    .data                                    0x200023dc   Section        4  system_nrf52840.o(.data)
    __tagsym$$used                           0x200023dc   Number         0  system_nrf52840.o(.data)
    log_dynamic_data                         0x200023e0   Section        4  nrf_ble_gatt.o(log_dynamic_data)
    __tagsym$$used                           0x200023e0   Number         0  nrf_ble_gatt.o(log_dynamic_data)
    log_dynamic_data                         0x200023e4   Section        4  nrf_drv_clock.o(log_dynamic_data)
    __tagsym$$used                           0x200023e4   Number         0  nrf_drv_clock.o(log_dynamic_data)
    log_dynamic_data                         0x200023e8   Section        4  nrfx_clock.o(log_dynamic_data)
    __tagsym$$used                           0x200023e8   Number         0  nrfx_clock.o(log_dynamic_data)
    log_dynamic_data                         0x200023ec   Section        4  nrfx_gpiote.o(log_dynamic_data)
    __tagsym$$used                           0x200023ec   Number         0  nrfx_gpiote.o(log_dynamic_data)
    log_dynamic_data                         0x200023f0   Section        4  nrfx_prs.o(log_dynamic_data)
    __tagsym$$used                           0x200023f0   Number         0  nrfx_prs.o(log_dynamic_data)
    log_dynamic_data                         0x200023f4   Section        4  nrfx_uart.o(log_dynamic_data)
    __tagsym$$used                           0x200023f4   Number         0  nrfx_uart.o(log_dynamic_data)
    log_dynamic_data                         0x200023f8   Section        4  nrfx_uarte.o(log_dynamic_data)
    __tagsym$$used                           0x200023f8   Number         0  nrfx_uarte.o(log_dynamic_data)
    log_dynamic_data                         0x200023fc   Section        4  nrf_pwr_mgmt.o(log_dynamic_data)
    __tagsym$$used                           0x200023fc   Number         0  nrf_pwr_mgmt.o(log_dynamic_data)
    log_dynamic_data                         0x20002400   Section        8  nrf_log_frontend.o(log_dynamic_data)
    __tagsym$$used                           0x20002400   Number         0  nrf_log_frontend.o(log_dynamic_data)
    __tagsym$$used                           0x20002404   Number         0  nrf_log_frontend.o(log_dynamic_data)
    log_dynamic_data                         0x20002408   Section        4  nrf_sdh.o(log_dynamic_data)
    __tagsym$$used                           0x20002408   Number         0  nrf_sdh.o(log_dynamic_data)
    log_dynamic_data                         0x2000240c   Section        4  nrf_sdh_ble.o(log_dynamic_data)
    __tagsym$$used                           0x2000240c   Number         0  nrf_sdh_ble.o(log_dynamic_data)
    log_dynamic_data                         0x20002410   Section        4  nrf_sdh_soc.o(log_dynamic_data)
    __tagsym$$used                           0x20002410   Number         0  nrf_sdh_soc.o(log_dynamic_data)
    .bss                                     0x20002414   Section       56  main.o(.bss)
    m_lbs                                    0x20002414   Data          24  main.o(.bss)
    m_gatt                                   0x2000242c   Data          20  main.o(.bss)
    m_qwr                                    0x20002440   Data          12  main.o(.bss)
    .bss                                     0x2000244c   Section       31  main.o(.bss)
    m_enc_advdata                            0x2000244c   Data          31  main.o(.bss)
    .bss                                     0x2000246b   Section       31  main.o(.bss)
    m_enc_scan_response_data                 0x2000246b   Data          31  main.o(.bss)
    .bss                                     0x2000248c   Section       80  ble_conn_params.o(.bss)
    m_timer_data                             0x2000248c   Data          32  ble_conn_params.o(.bss)
    m_conn_params_instances                  0x200024ac   Data          20  ble_conn_params.o(.bss)
    m_conn_params_config                     0x200024c0   Data          28  ble_conn_params.o(.bss)
    .bss                                     0x200024dc   Section      120  ble_conn_state.o(.bss)
    m_bcs                                    0x200024dc   Data         120  ble_conn_state.o(.bss)
    .bss                                     0x20002554   Section       20  nrf_drv_clock.o(.bss)
    m_clock_cb                               0x20002554   Data          20  nrf_drv_clock.o(.bss)
    .bss                                     0x20002568   Section      108  nrfx_gpiote.o(.bss)
    m_cb                                     0x20002568   Data         108  nrfx_gpiote.o(.bss)
    .bss                                     0x200025d4   Section       44  nrfx_uart.o(.bss)
    m_cb                                     0x200025d4   Data          44  nrfx_uart.o(.bss)
    .bss                                     0x20002600   Section       36  nrfx_uarte.o(.bss)
    m_cb                                     0x20002600   Data          36  nrfx_uarte.o(.bss)
    .bss                                     0x20002624   Section       32  app_button.o(.bss)
    m_detection_delay_timer_id_data          0x20002624   Data          32  app_button.o(.bss)
    .bss                                     0x20002644   Section      268  app_timer.o(.bss)
    m_op_queue                               0x20002644   Data         268  app_timer.o(.bss)
    .bss                                     0x20002750   Section       12  app_util_platform.o(.bss)
    .bss                                     0x2000275c   Section       12  nrf_pwr_mgmt.o(.bss)
    m_handlers_iter                          0x2000275c   Data          12  nrf_pwr_mgmt.o(.bss)
    .bss                                     0x20002768   Section       64  nrf_log_backend_uart.o(.bss)
    m_string_buff                            0x20002768   Data          64  nrf_log_backend_uart.o(.bss)
    .bss                                     0x200027a8   Section      192  nrf_log_frontend.o(.bss)
    log_mempool_nrf_balloc_pool_mem          0x200027a8   Data         192  nrf_log_frontend.o(.bss)
    .bss                                     0x20002868   Section     1060  nrf_log_frontend.o(.bss)
    m_log_data                               0x20002868   Data        1060  nrf_log_frontend.o(.bss)
    STACK                                    0x20002c90   Section     8192  arm_startup_nrf52840.o(STACK)

    Global Symbols

    Symbol Name                              Value     Ov Type        Size  Object(Section)

    BuildAttributes$$THM_ISAv4$E$P$D$K$B$S$7EM$VFPi3$EXTD16$VFPS$VFMA$PE$A:L22UL41UL21$X:L11$S22US41US21$IEEE1$IW$USESV6$~STKCKD$USESV7$~SHL$OSPACE$EBA8$MICROLIB$REQ8$EABIv2 0x00000000   Number         0  anon$$obj.o ABSOLUTE
    __ARM_use_no_argv                        0x00000000   Number         0  main.o ABSOLUTE
    __use_no_errno                           0x00000000   Number         0  useno.o ABSOLUTE
    __use_no_exception_handling              0x00000000   Number         0  useno.o ABSOLUTE
    __use_no_fp                              0x00000000   Number         0  useno.o ABSOLUTE
    __use_no_heap                            0x00000000   Number         0  useno.o ABSOLUTE
    __use_no_heap_region                     0x00000000   Number         0  useno.o ABSOLUTE
    __use_no_semihosting                     0x00000000   Number         0  useno.o ABSOLUTE
    __use_no_semihosting_swi                 0x00000000   Number         0  useno.o ABSOLUTE
    __use_no_signal_handling                 0x00000000   Number         0  useno.o ABSOLUTE
    __cpp_initialize__aeabi_                  - Undefined Weak Reference
    __cxa_finalize                            - Undefined Weak Reference
    _clock_init                               - Undefined Weak Reference
    _microlib_exit                            - Undefined Weak Reference
    pwr_mgmt_data0$$Base                      - Undefined Reference
    pwr_mgmt_data0$$Limit                     - Undefined Reference
    pwr_mgmt_data1$$Base                      - Undefined Reference
    pwr_mgmt_data1$$Limit                     - Undefined Reference
    pwr_mgmt_data2$$Base                      - Undefined Reference
    pwr_mgmt_data2$$Limit                     - Undefined Reference
    sdh_req_observers0$$Base                  - Undefined Reference
    sdh_req_observers0$$Limit                 - Undefined Reference
    sdh_req_observers1$$Base                  - Undefined Reference
    sdh_req_observers1$$Limit                 - Undefined Reference
    sdh_soc_observers1$$Base                  - Undefined Reference
    sdh_soc_observers1$$Limit                 - Undefined Reference
    sdh_stack_observers1$$Base                - Undefined Reference
    sdh_stack_observers1$$Limit               - Undefined Reference
    sdh_state_observers1$$Base                - Undefined Reference
    sdh_state_observers1$$Limit               - Undefined Reference
    __Vectors_Size                           0x00000200   Number         0  arm_startup_nrf52840.o ABSOLUTE
    __Vectors                                0x00026000   Data           4  arm_startup_nrf52840.o(RESET)
    __Vectors_End                            0x00026200   Data           0  arm_startup_nrf52840.o(RESET)
    __main                                   0x00026201   Thumb Code     0  entry.o(.ARM.Collect$$$$00000000)
    _main_stk                                0x00026201   Thumb Code     0  entry2.o(.ARM.Collect$$$$00000001)
    _main_scatterload                        0x00026205   Thumb Code     0  entry5.o(.ARM.Collect$$$$00000004)
    __main_after_scatterload                 0x00026209   Thumb Code     0  entry5.o(.ARM.Collect$$$$00000004)
    _main_clock                              0x00026209   Thumb Code     0  entry7b.o(.ARM.Collect$$$$00000008)
    _main_cpp_init                           0x00026209   Thumb Code     0  entry8b.o(.ARM.Collect$$$$0000000A)
    _main_init                               0x00026209   Thumb Code     0  entry9a.o(.ARM.Collect$$$$0000000B)
    __rt_final_cpp                           0x00026211   Thumb Code     0  entry10a.o(.ARM.Collect$$$$0000000D)
    __rt_final_exit                          0x00026211   Thumb Code     0  entry11a.o(.ARM.Collect$$$$0000000F)
    __asm___12_nrf_atomic_c_85ca2469__nrf_atomic_internal_mov 0x00026215   Thumb Code    24  nrf_atomic.o(.emb_text)
    __asm___12_nrf_atomic_c_85ca2469__nrf_atomic_internal_orr 0x0002622d   Thumb Code    26  nrf_atomic.o(.emb_text)
    __asm___12_nrf_atomic_c_85ca2469__nrf_atomic_internal_and 0x00026247   Thumb Code    26  nrf_atomic.o(.emb_text)
    __asm___12_nrf_atomic_c_85ca2469__nrf_atomic_internal_eor 0x00026261   Thumb Code    26  nrf_atomic.o(.emb_text)
    __asm___12_nrf_atomic_c_85ca2469__nrf_atomic_internal_add 0x0002627b   Thumb Code    26  nrf_atomic.o(.emb_text)
    __asm___12_nrf_atomic_c_85ca2469__nrf_atomic_internal_sub 0x00026295   Thumb Code    26  nrf_atomic.o(.emb_text)
    __asm___12_nrf_atomic_c_85ca2469__nrf_atomic_internal_cmp_exch 0x000262af   Thumb Code    42  nrf_atomic.o(.emb_text)
    __asm___12_nrf_atomic_c_85ca2469__nrf_atomic_internal_sub_hs 0x000262d9   Thumb Code    30  nrf_atomic.o(.emb_text)
    Reset_Handler                            0x000262f9   Thumb Code     8  arm_startup_nrf52840.o(.text)
    NMI_Handler                              0x00026301   Thumb Code     2  arm_startup_nrf52840.o(.text)
    HardFault_Handler                        0x00026303   Thumb Code     2  arm_startup_nrf52840.o(.text)
    MemoryManagement_Handler                 0x00026305   Thumb Code     2  arm_startup_nrf52840.o(.text)
    BusFault_Handler                         0x00026307   Thumb Code     2  arm_startup_nrf52840.o(.text)
    UsageFault_Handler                       0x00026309   Thumb Code     2  arm_startup_nrf52840.o(.text)
    SVC_Handler                              0x0002630b   Thumb Code     2  arm_startup_nrf52840.o(.text)
    DebugMon_Handler                         0x0002630d   Thumb Code     2  arm_startup_nrf52840.o(.text)
    PendSV_Handler                           0x0002630f   Thumb Code     2  arm_startup_nrf52840.o(.text)
    SysTick_Handler                          0x00026311   Thumb Code     2  arm_startup_nrf52840.o(.text)
    CCM_AAR_IRQHandler                       0x00026313   Thumb Code     0  arm_startup_nrf52840.o(.text)
    COMP_LPCOMP_IRQHandler                   0x00026313   Thumb Code     0  arm_startup_nrf52840.o(.text)
    CRYPTOCELL_IRQHandler                    0x00026313   Thumb Code     0  arm_startup_nrf52840.o(.text)
    ECB_IRQHandler                           0x00026313   Thumb Code     0  arm_startup_nrf52840.o(.text)
    FPU_IRQHandler                           0x00026313   Thumb Code     0  arm_startup_nrf52840.o(.text)
    I2S_IRQHandler                           0x00026313   Thumb Code     0  arm_startup_nrf52840.o(.text)
    MWU_IRQHandler                           0x00026313   Thumb Code     0  arm_startup_nrf52840.o(.text)
    NFCT_IRQHandler                          0x00026313   Thumb Code     0  arm_startup_nrf52840.o(.text)
    PDM_IRQHandler                           0x00026313   Thumb Code     0  arm_startup_nrf52840.o(.text)
    PWM0_IRQHandler                          0x00026313   Thumb Code     0  arm_startup_nrf52840.o(.text)
    PWM1_IRQHandler                          0x00026313   Thumb Code     0  arm_startup_nrf52840.o(.text)
    PWM2_IRQHandler                          0x00026313   Thumb Code     0  arm_startup_nrf52840.o(.text)
    PWM3_IRQHandler                          0x00026313   Thumb Code     0  arm_startup_nrf52840.o(.text)
    QDEC_IRQHandler                          0x00026313   Thumb Code     0  arm_startup_nrf52840.o(.text)
    QSPI_IRQHandler                          0x00026313   Thumb Code     0  arm_startup_nrf52840.o(.text)
    RADIO_IRQHandler                         0x00026313   Thumb Code     0  arm_startup_nrf52840.o(.text)
    RNG_IRQHandler                           0x00026313   Thumb Code     0  arm_startup_nrf52840.o(.text)
    RTC0_IRQHandler                          0x00026313   Thumb Code     0  arm_startup_nrf52840.o(.text)
    RTC2_IRQHandler                          0x00026313   Thumb Code     0  arm_startup_nrf52840.o(.text)
    SAADC_IRQHandler                         0x00026313   Thumb Code     0  arm_startup_nrf52840.o(.text)
    SPIM0_SPIS0_TWIM0_TWIS0_SPI0_TWI0_IRQHandler 0x00026313   Thumb Code     0  arm_startup_nrf52840.o(.text)
    SPIM1_SPIS1_TWIM1_TWIS1_SPI1_TWI1_IRQHandler 0x00026313   Thumb Code     0  arm_startup_nrf52840.o(.text)
    SPIM2_SPIS2_SPI2_IRQHandler              0x00026313   Thumb Code     0  arm_startup_nrf52840.o(.text)
    SPIM3_IRQHandler                         0x00026313   Thumb Code     0  arm_startup_nrf52840.o(.text)
    SWI1_EGU1_IRQHandler                     0x00026313   Thumb Code     0  arm_startup_nrf52840.o(.text)
    SWI3_EGU3_IRQHandler                     0x00026313   Thumb Code     0  arm_startup_nrf52840.o(.text)
    SWI4_EGU4_IRQHandler                     0x00026313   Thumb Code     0  arm_startup_nrf52840.o(.text)
    SWI5_EGU5_IRQHandler                     0x00026313   Thumb Code     0  arm_startup_nrf52840.o(.text)
    TEMP_IRQHandler                          0x00026313   Thumb Code     0  arm_startup_nrf52840.o(.text)
    TIMER0_IRQHandler                        0x00026313   Thumb Code     0  arm_startup_nrf52840.o(.text)
    TIMER1_IRQHandler                        0x00026313   Thumb Code     0  arm_startup_nrf52840.o(.text)
    TIMER2_IRQHandler                        0x00026313   Thumb Code     0  arm_startup_nrf52840.o(.text)
    TIMER3_IRQHandler                        0x00026313   Thumb Code     0  arm_startup_nrf52840.o(.text)
    TIMER4_IRQHandler                        0x00026313   Thumb Code     0  arm_startup_nrf52840.o(.text)
    UARTE1_IRQHandler                        0x00026313   Thumb Code     0  arm_startup_nrf52840.o(.text)
    USBD_IRQHandler                          0x00026313   Thumb Code     0  arm_startup_nrf52840.o(.text)
    WDT_IRQHandler                           0x00026313   Thumb Code     0  arm_startup_nrf52840.o(.text)
    __aeabi_llsl                             0x0002631d   Thumb Code    30  llshl.o(.text)
    _ll_shift_l                              0x0002631d   Thumb Code     0  llshl.o(.text)
    __rt_ctype_table                         0x0002633d   Thumb Code     4  ctype_o.o(.text)
    __aeabi_memcpy                           0x00026345   Thumb Code    36  memcpya.o(.text)
    __aeabi_memcpy4                          0x00026345   Thumb Code     0  memcpya.o(.text)
    __aeabi_memcpy8                          0x00026345   Thumb Code     0  memcpya.o(.text)
    __aeabi_memset                           0x00026369   Thumb Code    14  memseta.o(.text)
    __aeabi_memset4                          0x00026369   Thumb Code     0  memseta.o(.text)
    __aeabi_memset8                          0x00026369   Thumb Code     0  memseta.o(.text)
    __aeabi_memclr                           0x00026377   Thumb Code     4  memseta.o(.text)
    __aeabi_memclr4                          0x00026377   Thumb Code     0  memseta.o(.text)
    __aeabi_memclr8                          0x00026377   Thumb Code     0  memseta.o(.text)
    _memset$wrapper                          0x0002637b   Thumb Code    18  memseta.o(.text)
    strlen                                   0x0002638d   Thumb Code    14  strlen.o(.text)
    __scatterload                            0x0002639d   Thumb Code    28  init.o(.text)
    __scatterload_rt2                        0x0002639d   Thumb Code     0  init.o(.text)
    __decompress                             0x000263c1   Thumb Code     0  __dczerorl2.o(.text)
    __decompress1                            0x000263c1   Thumb Code    86  __dczerorl2.o(.text)
    GPIOTE_IRQHandler                        0x00026419   Thumb Code   428  nrfx_gpiote.o(i.GPIOTE_IRQHandler)
    POWER_CLOCK_IRQHandler                   0x00026631   Thumb Code    82  nrfx_clock.o(i.POWER_CLOCK_IRQHandler)
    RTC1_IRQHandler                          0x00026689   Thumb Code    32  app_timer.o(i.RTC1_IRQHandler)
    SWI0_EGU0_IRQHandler                     0x000266ad   Thumb Code     4  app_timer.o(i.SWI0_EGU0_IRQHandler)
    SWI2_EGU2_IRQHandler                     0x000266b1   Thumb Code     4  nrf_sdh.o(i.SWI2_EGU2_IRQHandler)
    SystemInit                               0x000266b5   Thumb Code   416  system_nrf52840.o(i.SystemInit)
    UARTE0_UART0_IRQHandler                  0x00026891   Thumb Code     6  nrfx_prs.o(i.UARTE0_UART0_IRQHandler)
    __scatterload_copy                       0x0002689d   Thumb Code    14  handlers.o(i.__scatterload_copy)
    __scatterload_null                       0x000268ab   Thumb Code     2  handlers.o(i.__scatterload_null)
    __scatterload_zeroinit                   0x000268ad   Thumb Code    14  handlers.o(i.__scatterload_zeroinit)
    app_button_disable                       0x000269a5   Thumb Code    38  app_button.o(i.app_button_disable)
    app_button_enable                        0x000269d5   Thumb Code    32  app_button.o(i.app_button_enable)
    app_button_init                          0x000269f9   Thumb Code   102  app_button.o(i.app_button_init)
    app_error_fault_handler                  0x00026a71   Thumb Code    84  app_error_weak.o(i.app_error_fault_handler)
    app_error_handler_bare                   0x00026aed   Thumb Code    22  app_error.o(i.app_error_handler_bare)
    app_timer_create                         0x00026b05   Thumb Code    32  app_timer.o(i.app_timer_create)
    app_timer_init                           0x00026b29   Thumb Code    70  app_timer.o(i.app_timer_init)
    app_timer_start                          0x00026b7d   Thumb Code   128  app_timer.o(i.app_timer_start)
    app_timer_stop                           0x00026c05   Thumb Code    26  app_timer.o(i.app_timer_stop)
    app_util_critical_region_enter           0x00026c25   Thumb Code    64  app_util_platform.o(i.app_util_critical_region_enter)
    app_util_critical_region_exit            0x00026c6d   Thumb Code    46  app_util_platform.o(i.app_util_critical_region_exit)
    ble_advdata_encode                       0x00026d8d   Thumb Code   386  ble_advdata.o(i.ble_advdata_encode)
    ble_conn_params_init                     0x00026f11   Thumb Code    90  ble_conn_params.o(i.ble_conn_params_init)
    ble_lbs_init                             0x000272c9   Thumb Code    82  ble_lbs.o(i.ble_lbs_init)
    ble_lbs_on_ble_evt                       0x00027321   Thumb Code    46  ble_lbs.o(i.ble_lbs_on_ble_evt)
    ble_lbs_on_button_change                 0x0002734f   Thumb Code    46  ble_lbs.o(i.ble_lbs_on_button_change)
    ble_srv_is_notification_enabled          0x0002737d   Thumb Code     8  ble_srv_common.o(i.ble_srv_is_notification_enabled)
    bsp_board_init                           0x00027385   Thumb Code    80  boards.o(i.bsp_board_init)
    bsp_board_led_off                        0x000273d9   Thumb Code    10  boards.o(i.bsp_board_led_off)
    bsp_board_led_on                         0x000273e9   Thumb Code    10  boards.o(i.bsp_board_led_on)
    bsp_board_leds_off                       0x000273f9   Thumb Code    18  boards.o(i.bsp_board_leds_off)
    buffer_is_empty                          0x000274bd   Thumb Code    16  nrf_log_frontend.o(i.buffer_is_empty)
    conn_handle_list_get                     0x00027779   Thumb Code    62  ble_conn_state.o(i.conn_handle_list_get)
    main                                     0x00027f29   Thumb Code   326  main.o(i.main)
    nrf_atflags_clear                        0x0002825d   Thumb Code    22  nrf_atflags.o(i.nrf_atflags_clear)
    nrf_atflags_get                          0x00028273   Thumb Code    22  nrf_atflags.o(i.nrf_atflags_get)
    nrf_atflags_set                          0x00028289   Thumb Code    20  nrf_atflags.o(i.nrf_atflags_set)
    nrf_atomic_flag_clear_fetch              0x0002829d   Thumb Code     6  nrf_atomic.o(i.nrf_atomic_flag_clear_fetch)
    nrf_atomic_flag_set                      0x000282a3   Thumb Code     6  nrf_atomic.o(i.nrf_atomic_flag_set)
    nrf_atomic_u32_add                       0x000282a9   Thumb Code    12  nrf_atomic.o(i.nrf_atomic_u32_add)
    nrf_atomic_u32_and                       0x000282b5   Thumb Code    12  nrf_atomic.o(i.nrf_atomic_u32_and)
    nrf_atomic_u32_fetch_and                 0x000282c1   Thumb Code    10  nrf_atomic.o(i.nrf_atomic_u32_fetch_and)
    nrf_atomic_u32_fetch_store               0x000282cb   Thumb Code    10  nrf_atomic.o(i.nrf_atomic_u32_fetch_store)
    nrf_atomic_u32_or                        0x000282d5   Thumb Code    12  nrf_atomic.o(i.nrf_atomic_u32_or)
    nrf_atomic_u32_sub                       0x000282e1   Thumb Code    12  nrf_atomic.o(i.nrf_atomic_u32_sub)
    nrf_balloc_alloc                         0x000282ed   Thumb Code    68  nrf_balloc.o(i.nrf_balloc_alloc)
    nrf_balloc_free                          0x00028331   Thumb Code    48  nrf_balloc.o(i.nrf_balloc_free)
    nrf_balloc_init                          0x00028361   Thumb Code    48  nrf_balloc.o(i.nrf_balloc_init)
    nrf_ble_gatt_init                        0x000283b5   Thumb Code    34  nrf_ble_gatt.o(i.nrf_ble_gatt_init)
    nrf_ble_gatt_on_ble_evt                  0x000283d9   Thumb Code   266  nrf_ble_gatt.o(i.nrf_ble_gatt_on_ble_evt)
    nrf_ble_qwr_conn_handle_assign           0x00028521   Thumb Code    22  nrf_ble_qwr.o(i.nrf_ble_qwr_conn_handle_assign)
    nrf_ble_qwr_init                         0x00028537   Thumb Code    36  nrf_ble_qwr.o(i.nrf_ble_qwr_init)
    nrf_ble_qwr_on_ble_evt                   0x0002855b   Thumb Code   182  nrf_ble_qwr.o(i.nrf_ble_qwr_on_ble_evt)
    nrf_drv_clock_init                       0x00028631   Thumb Code    48  nrf_drv_clock.o(i.nrf_drv_clock_init)
    nrf_drv_clock_lfclk_release              0x00028669   Thumb Code    42  nrf_drv_clock.o(i.nrf_drv_clock_lfclk_release)
    nrf_drv_uart_init                        0x00028699   Thumb Code    90  nrf_drv_uart.o(i.nrf_drv_uart_init)
    nrf_fprintf                              0x00028701   Thumb Code    26  nrf_fprintf.o(i.nrf_fprintf)
    nrf_fprintf_buffer_flush                 0x0002871b   Thumb Code    24  nrf_fprintf.o(i.nrf_fprintf_buffer_flush)
    nrf_fprintf_fmt                          0x00028733   Thumb Code   474  nrf_fprintf_format.o(i.nrf_fprintf_fmt)
    nrf_log_backend_add                      0x00028b99   Thumb Code    74  nrf_log_frontend.o(i.nrf_log_backend_add)
    nrf_log_backend_serial_put               0x00028be9   Thumb Code   200  nrf_log_backend_serial.o(i.nrf_log_backend_serial_put)
    nrf_log_backend_uart_init                0x00028cb3   Thumb Code     6  nrf_log_backend_uart.o(i.nrf_log_backend_uart_init)
    nrf_log_color_id_get                     0x00028cfd   Thumb Code    42  nrf_log_frontend.o(i.nrf_log_color_id_get)
    nrf_log_default_backends_init            0x00028d2d   Thumb Code    22  nrf_log_default_backends.o(i.nrf_log_default_backends_init)
    nrf_log_frontend_dequeue                 0x00028d49   Thumb Code   510  nrf_log_frontend.o(i.nrf_log_frontend_dequeue)
    nrf_log_frontend_std_0                   0x00028f69   Thumb Code     8  nrf_log_frontend.o(i.nrf_log_frontend_std_0)
    nrf_log_frontend_std_1                   0x00028f71   Thumb Code    14  nrf_log_frontend.o(i.nrf_log_frontend_std_1)
    nrf_log_frontend_std_2                   0x00028f7f   Thumb Code    16  nrf_log_frontend.o(i.nrf_log_frontend_std_2)
    nrf_log_hexdump_entry_process            0x00028f91   Thumb Code   146  nrf_log_str_formatter.o(i.nrf_log_hexdump_entry_process)
    nrf_log_init                             0x0002903d   Thumb Code    66  nrf_log_frontend.o(i.nrf_log_init)
    nrf_log_module_cnt_get                   0x00029095   Thumb Code    10  nrf_log_frontend.o(i.nrf_log_module_cnt_get)
    nrf_log_module_name_get                  0x000290a9   Thumb Code    24  nrf_log_frontend.o(i.nrf_log_module_name_get)
    nrf_log_panic                            0x000290c5   Thumb Code    34  nrf_log_frontend.o(i.nrf_log_panic)
    nrf_log_std_entry_process                0x000290ed   Thumb Code   182  nrf_log_str_formatter.o(i.nrf_log_std_entry_process)
    nrf_memobj_alloc                         0x000291a3   Thumb Code    96  nrf_memobj.o(i.nrf_memobj_alloc)
    nrf_memobj_free                          0x00029203   Thumb Code    50  nrf_memobj.o(i.nrf_memobj_free)
    nrf_memobj_get                           0x00029235   Thumb Code     8  nrf_memobj.o(i.nrf_memobj_get)
    nrf_memobj_pool_init                     0x0002923d   Thumb Code     4  nrf_memobj.o(i.nrf_memobj_pool_init)
    nrf_memobj_put                           0x00029241   Thumb Code    30  nrf_memobj.o(i.nrf_memobj_put)
    nrf_memobj_read                          0x0002925f   Thumb Code    12  nrf_memobj.o(i.nrf_memobj_read)
    nrf_memobj_write                         0x0002926b   Thumb Code    12  nrf_memobj.o(i.nrf_memobj_write)
    nrf_pwr_mgmt_init                        0x00029279   Thumb Code    28  nrf_pwr_mgmt.o(i.nrf_pwr_mgmt_init)
    nrf_pwr_mgmt_run                         0x000292a1   Thumb Code    64  nrf_pwr_mgmt.o(i.nrf_pwr_mgmt_run)
    nrf_sdh_ble_app_ram_start_get            0x000292e9   Thumb Code    16  nrf_sdh_ble.o(i.nrf_sdh_ble_app_ram_start_get)
    nrf_sdh_ble_default_cfg_set              0x000292fd   Thumb Code   240  nrf_sdh_ble.o(i.nrf_sdh_ble_default_cfg_set)
    nrf_sdh_ble_enable                       0x00029405   Thumb Code   116  nrf_sdh_ble.o(i.nrf_sdh_ble_enable)
    nrf_sdh_enable_request                   0x0002958d   Thumb Code   102  nrf_sdh.o(i.nrf_sdh_enable_request)
    nrf_sdh_evts_poll                        0x00029601   Thumb Code    32  nrf_sdh.o(i.nrf_sdh_evts_poll)
    nrf_sdh_is_enabled                       0x00029625   Thumb Code     6  nrf_sdh.o(i.nrf_sdh_is_enabled)
    nrf_section_iter_init                    0x0002966d   Thumb Code    10  nrf_section_iter.o(i.nrf_section_iter_init)
    nrf_section_iter_next                    0x0002969b   Thumb Code    32  nrf_section_iter.o(i.nrf_section_iter_next)
    nrf_strerror_find                        0x000296bd   Thumb Code    52  nrf_strerror.o(i.nrf_strerror_find)
    nrf_strerror_get                         0x000296f5   Thumb Code    14  nrf_strerror.o(i.nrf_strerror_get)
    nrfx_clock_enable                        0x00029741   Thumb Code    36  nrfx_clock.o(i.nrfx_clock_enable)
    nrfx_clock_init                          0x0002976d   Thumb Code    26  nrfx_clock.o(i.nrfx_clock_init)
    nrfx_clock_lfclk_stop                    0x0002978d   Thumb Code    20  nrfx_clock.o(i.nrfx_clock_lfclk_stop)
    nrfx_gpiote_in_event_disable             0x000297b9   Thumb Code    66  nrfx_gpiote.o(i.nrfx_gpiote_in_event_disable)
    nrfx_gpiote_in_event_enable              0x00029801   Thumb Code   144  nrfx_gpiote.o(i.nrfx_gpiote_in_event_enable)
    nrfx_gpiote_in_init                      0x00029899   Thumb Code   200  nrfx_gpiote.o(i.nrfx_gpiote_in_init)
    nrfx_gpiote_in_is_set                    0x0002996d   Thumb Code    14  nrfx_gpiote.o(i.nrfx_gpiote_in_is_set)
    nrfx_gpiote_init                         0x0002997d   Thumb Code   104  nrfx_gpiote.o(i.nrfx_gpiote_init)
    nrfx_gpiote_is_init                      0x000299f1   Thumb Code    14  nrfx_gpiote.o(i.nrfx_gpiote_is_init)
    nrfx_prs_acquire                         0x00029a15   Thumb Code    58  nrfx_prs.o(i.nrfx_prs_acquire)
    nrfx_prs_release                         0x00029a4f   Thumb Code    18  nrfx_prs.o(i.nrfx_prs_release)
    nrfx_uart_0_irq_handler                  0x00029a61   Thumb Code     8  nrfx_uart.o(i.nrfx_uart_0_irq_handler)
    nrfx_uart_init                           0x00029a71   Thumb Code   200  nrfx_uart.o(i.nrfx_uart_init)
    nrfx_uart_tx                             0x00029b45   Thumb Code   160  nrfx_uart.o(i.nrfx_uart_tx)
    nrfx_uart_tx_in_progress                 0x00029be9   Thumb Code    26  nrfx_uart.o(i.nrfx_uart_tx_in_progress)
    nrfx_uart_uninit                         0x00029c09   Thumb Code   170  nrfx_uart.o(i.nrfx_uart_uninit)
    nrfx_uarte_0_irq_handler                 0x00029cbd   Thumb Code     8  nrfx_uarte.o(i.nrfx_uarte_0_irq_handler)
    nrfx_uarte_init                          0x00029ccd   Thumb Code   100  nrfx_uarte.o(i.nrfx_uarte_init)
    nrfx_uarte_tx                            0x00029d39   Thumb Code   138  nrfx_uarte.o(i.nrfx_uarte_tx)
    nrfx_uarte_tx_in_progress                0x00029dc9   Thumb Code    22  nrfx_uarte.o(i.nrfx_uarte_tx_in_progress)
    nrfx_uarte_uninit                        0x00029de5   Thumb Code   166  nrfx_uarte.o(i.nrfx_uarte_uninit)
    nrf_log_backend_uart_api                 0x0002ad28   Data          12  nrf_log_backend_uart.o(.constdata)
    m_ram_start                              0x0002adcc   Data           4  nrf_sdh_ble.o(.constdata)
    __ctype_table                            0x0002adf8   Data         129  ctype_o.o(.constdata)
    Region$$Table$$Base                      0x0002b580   Number         0  anon$$obj.o(Region$$Table)
    Region$$Table$$Limit                     0x0002b5a0   Number         0  anon$$obj.o(Region$$Table)
    log_const_data$$Base                     0x0002b5a0   Number         0  nrf_ble_gatt.o(log_const_data)
    m_nrf_log_nrf_ble_gatt_logs_data_const   0x0002b5a0   Data           8  nrf_ble_gatt.o(log_const_data)
    m_nrf_log_clock_logs_data_const          0x0002b5a8   Data           8  nrf_drv_clock.o(log_const_data)
    m_nrf_log_CLOCK_logs_data_const          0x0002b5b0   Data           8  nrfx_clock.o(log_const_data)
    m_nrf_log_GPIOTE_logs_data_const         0x0002b5b8   Data           8  nrfx_gpiote.o(log_const_data)
    m_nrf_log_PRS_logs_data_const            0x0002b5c0   Data           8  nrfx_prs.o(log_const_data)
    m_nrf_log_UART_logs_data_const           0x0002b5c8   Data           8  nrfx_uart.o(log_const_data)
    m_nrf_log_UARTE_logs_data_const          0x0002b5d0   Data           8  nrfx_uarte.o(log_const_data)
    m_nrf_log_pwr_mgmt_logs_data_const       0x0002b5d8   Data           8  nrf_pwr_mgmt.o(log_const_data)
    m_nrf_log_balloc_log_mempool_logs_data_const 0x0002b5e0   Data           8  nrf_log_frontend.o(log_const_data)
    m_nrf_log_app_logs_data_const            0x0002b5e8   Data           8  nrf_log_frontend.o(log_const_data)
    m_nrf_log_nrf_sdh_logs_data_const        0x0002b5f0   Data           8  nrf_sdh.o(log_const_data)
    m_nrf_log_nrf_sdh_ble_logs_data_const    0x0002b5f8   Data           8  nrf_sdh_ble.o(log_const_data)
    m_nrf_log_nrf_sdh_soc_logs_data_const    0x0002b600   Data           8  nrf_sdh_soc.o(log_const_data)
    log_const_data$$Limit                    0x0002b608   Number         0  nrf_sdh_soc.o(log_const_data)
    log_mempool                              0x0002b608   Data          24  nrf_log_frontend.o(nrf_balloc)
    sdh_ble_observers0$$Base                 0x0002b620   Number         0  ble_conn_state.o(sdh_ble_observers0)
    sdh_ble_observers0$$Limit                0x0002b628   Number         0  ble_conn_state.o(sdh_ble_observers0)
    sdh_ble_observers1$$Base                 0x0002b628   Number         0  main.o(sdh_ble_observers1)
    sdh_ble_observers1$$Limit                0x0002b638   Number         0  ble_conn_params.o(sdh_ble_observers1)
    sdh_ble_observers2$$Base                 0x0002b638   Number         0  main.o(sdh_ble_observers2)
    sdh_ble_observers2$$Limit                0x0002b648   Number         0  main.o(sdh_ble_observers2)
    sdh_ble_observers3$$Base                 0x0002b648   Number         0  main.o(sdh_ble_observers3)
    sdh_ble_observers3$$Limit                0x0002b650   Number         0  main.o(sdh_ble_observers3)
    sdh_soc_observers0$$Base                 0x0002b650   Number         0  nrf_drv_clock.o(sdh_soc_observers0)
    sdh_soc_observers0$$Limit                0x0002b658   Number         0  nrf_drv_clock.o(sdh_soc_observers0)
    sdh_stack_observers0$$Base               0x0002b658   Number         0  nrf_sdh_ble.o(sdh_stack_observers0)
    sdh_stack_observers0$$Limit              0x0002b668   Number         0  nrf_sdh_soc.o(sdh_stack_observers0)
    sdh_state_observers0$$Base               0x0002b668   Number         0  nrf_drv_clock.o(sdh_state_observers0)
    sdh_state_observers0$$Limit              0x0002b670   Number         0  nrf_drv_clock.o(sdh_state_observers0)
    Image$$RW_IRAM1$$Base                    0x200022e0   Number         0  anon$$obj.o ABSOLUTE
    nrf_drv_uart_use_easy_dma                0x20002304   Data           2  nrf_drv_uart.o(.data)
    m_uart                                   0x20002368   Data          20  nrf_log_backend_uart.o(.data)
    SystemCoreClock                          0x200023dc   Data           4  system_nrf52840.o(.data)
    log_dynamic_data$$Base                   0x200023e0   Number         0  nrf_ble_gatt.o(log_dynamic_data)
    m_nrf_log_nrf_ble_gatt_logs_data_dynamic 0x200023e0   Data           4  nrf_ble_gatt.o(log_dynamic_data)
    m_nrf_log_clock_logs_data_dynamic        0x200023e4   Data           4  nrf_drv_clock.o(log_dynamic_data)
    m_nrf_log_CLOCK_logs_data_dynamic        0x200023e8   Data           4  nrfx_clock.o(log_dynamic_data)
    m_nrf_log_GPIOTE_logs_data_dynamic       0x200023ec   Data           4  nrfx_gpiote.o(log_dynamic_data)
    m_nrf_log_PRS_logs_data_dynamic          0x200023f0   Data           4  nrfx_prs.o(log_dynamic_data)
    m_nrf_log_UART_logs_data_dynamic         0x200023f4   Data           4  nrfx_uart.o(log_dynamic_data)
    m_nrf_log_UARTE_logs_data_dynamic        0x200023f8   Data           4  nrfx_uarte.o(log_dynamic_data)
    m_nrf_log_pwr_mgmt_logs_data_dynamic     0x200023fc   Data           4  nrf_pwr_mgmt.o(log_dynamic_data)
    m_nrf_log_balloc_log_mempool_logs_data_dynamic 0x20002400   Data           4  nrf_log_frontend.o(log_dynamic_data)
    m_nrf_log_app_logs_data_dynamic          0x20002404   Data           4  nrf_log_frontend.o(log_dynamic_data)
    m_nrf_log_nrf_sdh_logs_data_dynamic      0x20002408   Data           4  nrf_sdh.o(log_dynamic_data)
    m_nrf_log_nrf_sdh_ble_logs_data_dynamic  0x2000240c   Data           4  nrf_sdh_ble.o(log_dynamic_data)
    m_nrf_log_nrf_sdh_soc_logs_data_dynamic  0x20002410   Data           4  nrf_sdh_soc.o(log_dynamic_data)
    nrf_nvic_state                           0x20002750   Data          12  app_util_platform.o(.bss)
    __initial_sp                             0x20004c90   Data           0  arm_startup_nrf52840.o(STACK)



==============================================================================

Memory Map of the image

  Image Entry point : 0x00026201

  Load Region LR_IROM1 (Base: 0x00026000, Size: 0x000057a4, Max: 0x000da000, ABSOLUTE, COMPRESSED[0x000056c0])

    Execution Region ER_IROM1 (Exec base: 0x00026000, Load base: 0x00026000, Size: 0x00005670, Max: 0x000da000, ABSOLUTE)

    Exec Addr    Load Addr    Size         Type   Attr      Idx    E Section Name        Object

    0x00026000   0x00026000   0x00000200   Data   RO         4268    RESET               arm_startup_nrf52840.o
    0x00026200   0x00026200   0x00000000   Code   RO         4309  * .ARM.Collect$$$$00000000  mc_w.l(entry.o)
    0x00026200   0x00026200   0x00000004   Code   RO         4361    .ARM.Collect$$$$00000001  mc_w.l(entry2.o)
    0x00026204   0x00026204   0x00000004   Code   RO         4364    .ARM.Collect$$$$00000004  mc_w.l(entry5.o)
    0x00026208   0x00026208   0x00000000   Code   RO         4366    .ARM.Collect$$$$00000008  mc_w.l(entry7b.o)
    0x00026208   0x00026208   0x00000000   Code   RO         4368    .ARM.Collect$$$$0000000A  mc_w.l(entry8b.o)
    0x00026208   0x00026208   0x00000008   Code   RO         4369    .ARM.Collect$$$$0000000B  mc_w.l(entry9a.o)
    0x00026210   0x00026210   0x00000000   Code   RO         4371    .ARM.Collect$$$$0000000D  mc_w.l(entry10a.o)
    0x00026210   0x00026210   0x00000000   Code   RO         4373    .ARM.Collect$$$$0000000F  mc_w.l(entry11a.o)
    0x00026210   0x00026210   0x00000004   Code   RO         4362    .ARM.Collect$$$$00002712  mc_w.l(entry2.o)
    0x00026214   0x00026214   0x000000e2   Code   RO         2826    .emb_text           nrf_atomic.o
    0x000262f6   0x000262f6   0x00000002   PAD
    0x000262f8   0x000262f8   0x00000024   Code   RO         4269    .text               arm_startup_nrf52840.o
    0x0002631c   0x0002631c   0x0000001e   Code   RO         4317    .text               mc_w.l(llshl.o)
    0x0002633a   0x0002633a   0x00000002   PAD
    0x0002633c   0x0002633c   0x00000008   Code   RO         4319    .text               mc_w.l(ctype_o.o)
    0x00026344   0x00026344   0x00000024   Code   RO         4347    .text               mc_w.l(memcpya.o)
    0x00026368   0x00026368   0x00000024   Code   RO         4349    .text               mc_w.l(memseta.o)
    0x0002638c   0x0002638c   0x0000000e   Code   RO         4351    .text               mc_w.l(strlen.o)
    0x0002639a   0x0002639a   0x00000002   PAD
    0x0002639c   0x0002639c   0x00000024   Code   RO         4377    .text               mc_w.l(init.o)
    0x000263c0   0x000263c0   0x00000056   Code   RO         4387    .text               mc_w.l(__dczerorl2.o)
    0x00026416   0x00026416   0x00000002   PAD
    0x00026418   0x00026418   0x000001b4   Code   RO         1452    i.GPIOTE_IRQHandler  nrfx_gpiote.o
    0x000265cc   0x000265cc   0x00000016   Code   RO         2401    i.NVIC_ClearPendingIRQ  app_timer.o
    0x000265e2   0x000265e2   0x00000016   Code   RO         2402    i.NVIC_EnableIRQ    app_timer.o
    0x000265f8   0x000265f8   0x00000016   Code   RO         2403    i.NVIC_SetPendingIRQ  app_timer.o
    0x0002660e   0x0002660e   0x00000020   Code   RO         2404    i.NVIC_SetPriority  app_timer.o
    0x0002662e   0x0002662e   0x00000002   PAD
    0x00026630   0x00026630   0x00000058   Code   RO         1320    i.POWER_CLOCK_IRQHandler  nrfx_clock.o
    0x00026688   0x00026688   0x00000024   Code   RO         2405    i.RTC1_IRQHandler   app_timer.o
    0x000266ac   0x000266ac   0x00000004   Code   RO         2406    i.SWI0_EGU0_IRQHandler  app_timer.o
    0x000266b0   0x000266b0   0x00000004   Code   RO         4065    i.SWI2_EGU2_IRQHandler  nrf_sdh.o
    0x000266b4   0x000266b4   0x000001dc   Code   RO         4277    i.SystemInit        system_nrf52840.o
    0x00026890   0x00026890   0x0000000c   Code   RO         1771    i.UARTE0_UART0_IRQHandler  nrfx_prs.o
    0x0002689c   0x0002689c   0x0000000e   Code   RO         4381    i.__scatterload_copy  mc_w.l(handlers.o)
    0x000268aa   0x000268aa   0x00000002   Code   RO         4382    i.__scatterload_null  mc_w.l(handlers.o)
    0x000268ac   0x000268ac   0x0000000e   Code   RO         4383    i.__scatterload_zeroinit  mc_w.l(handlers.o)
    0x000268ba   0x000268ba   0x00000002   PAD
    0x000268bc   0x000268bc   0x00000024   Code   RO         4066    i.__sd_nvic_app_accessible_irq  nrf_sdh.o
    0x000268e0   0x000268e0   0x000000a4   Code   RO            4    i.advertising_init  main.o
    0x00026984   0x00026984   0x00000020   Code   RO            5    i.advertising_start  main.o
    0x000269a4   0x000269a4   0x00000030   Code   RO         2182    i.app_button_disable  app_button.o
    0x000269d4   0x000269d4   0x00000024   Code   RO         2183    i.app_button_enable  app_button.o
    0x000269f8   0x000269f8   0x00000078   Code   RO         2184    i.app_button_init   app_button.o
    0x00026a70   0x00026a70   0x0000007c   Code   RO         2307    i.app_error_fault_handler  app_error_weak.o
    0x00026aec   0x00026aec   0x00000016   Code   RO         2247    i.app_error_handler_bare  app_error.o
    0x00026b02   0x00026b02   0x00000002   PAD
    0x00026b04   0x00026b04   0x00000024   Code   RO         2409    i.app_timer_create  app_timer.o
    0x00026b28   0x00026b28   0x00000054   Code   RO         2410    i.app_timer_init    app_timer.o
    0x00026b7c   0x00026b7c   0x00000088   Code   RO         2413    i.app_timer_start   app_timer.o
    0x00026c04   0x00026c04   0x00000020   Code   RO         2414    i.app_timer_stop    app_timer.o
    0x00026c24   0x00026c24   0x00000048   Code   RO         2574    i.app_util_critical_region_enter  app_util_platform.o
    0x00026c6c   0x00026c6c   0x00000034   Code   RO         2575    i.app_util_critical_region_exit  app_util_platform.o
    0x00026ca0   0x00026ca0   0x00000076   Code   RO         1822    i.apply_config      nrfx_uart.o
    0x00026d16   0x00026d16   0x00000076   Code   RO         2020    i.apply_config      nrfx_uarte.o
    0x00026d8c   0x00026d8c   0x00000182   Code   RO          483    i.ble_advdata_encode  ble_advdata.o
    0x00026f0e   0x00026f0e   0x00000002   PAD
    0x00026f10   0x00026f10   0x00000068   Code   RO          611    i.ble_conn_params_init  ble_conn_params.o
    0x00026f78   0x00026f78   0x00000060   Code   RO          489    i.ble_device_addr_encode  ble_advdata.o
    0x00026fd8   0x00026fd8   0x000000f0   Code   RO            7    i.ble_evt_handler   main.o
    0x000270c8   0x000270c8   0x000000fc   Code   RO          613    i.ble_evt_handler   ble_conn_params.o
    0x000271c4   0x000271c4   0x00000104   Code   RO          715    i.ble_evt_handler   ble_conn_state.o
    0x000272c8   0x000272c8   0x00000058   Code   RO         1066    i.ble_lbs_init      ble_lbs.o
    0x00027320   0x00027320   0x0000002e   Code   RO         1067    i.ble_lbs_on_ble_evt  ble_lbs.o
    0x0002734e   0x0002734e   0x0000002e   Code   RO         1068    i.ble_lbs_on_button_change  ble_lbs.o
    0x0002737c   0x0002737c   0x00000008   Code   RO          860    i.ble_srv_is_notification_enabled  ble_srv_common.o
    0x00027384   0x00027384   0x00000054   Code   RO          346    i.bsp_board_init    boards.o
    0x000273d8   0x000273d8   0x00000010   Code   RO          349    i.bsp_board_led_off  boards.o
    0x000273e8   0x000273e8   0x00000010   Code   RO          350    i.bsp_board_led_on  boards.o
    0x000273f8   0x000273f8   0x00000012   Code   RO          352    i.bsp_board_leds_off  boards.o
    0x0002740a   0x0002740a   0x00000002   PAD
    0x0002740c   0x0002740c   0x00000090   Code   RO         3464    i.buf_prealloc      nrf_log_frontend.o
    0x0002749c   0x0002749c   0x0000001e   Code   RO         3038    i.buffer_add        nrf_fprintf_format.o
    0x000274ba   0x000274ba   0x00000002   PAD
    0x000274bc   0x000274bc   0x00000014   Code   RO         3465    i.buffer_is_empty   nrf_log_frontend.o
    0x000274d0   0x000274d0   0x000000d2   Code   RO         1069    i.button_char_add   ble_lbs.o
    0x000275a2   0x000275a2   0x00000002   PAD
    0x000275a4   0x000275a4   0x00000070   Code   RO            8    i.button_event_handler  main.o
    0x00027614   0x00027614   0x0000001c   Code   RO         1453    i.channel_free      nrfx_gpiote.o
    0x00027630   0x00027630   0x00000048   Code   RO         1454    i.channel_port_alloc  nrfx_gpiote.o
    0x00027678   0x00027678   0x00000010   Code   RO         1455    i.channel_port_get  nrfx_gpiote.o
    0x00027688   0x00027688   0x00000028   Code   RO         1116    i.clock_clk_started_notify  nrf_drv_clock.o
    0x000276b0   0x000276b0   0x0000001c   Code   RO         1117    i.clock_irq_handler  nrf_drv_clock.o
    0x000276cc   0x000276cc   0x000000ac   Code   RO         2416    i.compare_reg_update  app_timer.o
    0x00027778   0x00027778   0x0000003e   Code   RO          716    i.conn_handle_list_get  ble_conn_state.o
    0x000277b6   0x000277b6   0x00000088   Code   RO          490    i.conn_int_encode   ble_advdata.o
    0x0002783e   0x0002783e   0x00000004   Code   RO            9    i.conn_params_error_handler  main.o
    0x00027842   0x00027842   0x00000002   PAD
    0x00027844   0x00027844   0x00000048   Code   RO          614    i.conn_params_negotiation  ble_conn_params.o
    0x0002788c   0x0002788c   0x000000bc   Code   RO          920    i.data_length_update  nrf_ble_gatt.o
    0x00027948   0x00027948   0x00000098   Code   RO         2186    i.detection_delay_timeout_handler  app_button.o
    0x000279e0   0x000279e0   0x00000014   Code   RO         3467    i.dropped_sat16_get  nrf_log_frontend.o
    0x000279f4   0x000279f4   0x00000040   Code   RO         2417    i.elapsed_ticks_acquire  app_timer.o
    0x00027a34   0x00027a34   0x00000084   Code   RO         2187    i.gpiote_event_handler  app_button.o
    0x00027ab8   0x00027ab8   0x00000014   Code   RO          615    i.instance_get      ble_conn_params.o
    0x00027acc   0x00027acc   0x000000a6   Code   RO         3039    i.int_print         nrf_fprintf_format.o
    0x00027b72   0x00027b72   0x00000002   PAD
    0x00027b74   0x00027b74   0x00000080   Code   RO         2021    i.interrupts_enable  nrfx_uarte.o
    0x00027bf4   0x00027bf4   0x0000004c   Code   RO         3468    i.invalid_packets_pushed_str_omit  nrf_log_frontend.o
    0x00027c40   0x00027c40   0x00000044   Code   RO          616    i.is_conn_params_ok  ble_conn_params.o
    0x00027c84   0x00027c84   0x0000009e   Code   RO         1070    i.led_char_add      ble_lbs.o
    0x00027d22   0x00027d22   0x00000002   PAD
    0x00027d24   0x00027d24   0x0000005c   Code   RO           10    i.led_write_handler  main.o
    0x00027d80   0x00027d80   0x00000014   Code   RO          921    i.link_init         nrf_ble_gatt.o
    0x00027d94   0x00027d94   0x000000f8   Code   RO         2418    i.list_insertions_handler  app_timer.o
    0x00027e8c   0x00027e8c   0x0000009c   Code   RO         3469    i.log_skip          nrf_log_frontend.o
    0x00027f28   0x00027f28   0x0000018c   Code   RO           11    i.main              main.o
    0x000280b4   0x000280b4   0x00000064   Code   RO          491    i.manuf_specific_data_encode  ble_advdata.o
    0x00028118   0x00028118   0x00000076   Code   RO         3078    i.memobj_op         nrf_memobj.o
    0x0002818e   0x0002818e   0x00000002   PAD
    0x00028190   0x00028190   0x00000030   Code   RO         3470    i.module_idx_get    nrf_log_frontend.o
    0x000281c0   0x000281c0   0x0000009c   Code   RO          492    i.name_encode       ble_advdata.o
    0x0002825c   0x0002825c   0x00000016   Code   RO         2760    i.nrf_atflags_clear  nrf_atflags.o
    0x00028272   0x00028272   0x00000016   Code   RO         2765    i.nrf_atflags_get   nrf_atflags.o
    0x00028288   0x00028288   0x00000014   Code   RO         2767    i.nrf_atflags_set   nrf_atflags.o
    0x0002829c   0x0002829c   0x00000006   Code   RO         2828    i.nrf_atomic_flag_clear_fetch  nrf_atomic.o
    0x000282a2   0x000282a2   0x00000006   Code   RO         2829    i.nrf_atomic_flag_set  nrf_atomic.o
    0x000282a8   0x000282a8   0x0000000c   Code   RO         2831    i.nrf_atomic_u32_add  nrf_atomic.o
    0x000282b4   0x000282b4   0x0000000c   Code   RO         2832    i.nrf_atomic_u32_and  nrf_atomic.o
    0x000282c0   0x000282c0   0x0000000a   Code   RO         2835    i.nrf_atomic_u32_fetch_and  nrf_atomic.o
    0x000282ca   0x000282ca   0x0000000a   Code   RO         2837    i.nrf_atomic_u32_fetch_store  nrf_atomic.o
    0x000282d4   0x000282d4   0x0000000c   Code   RO         2841    i.nrf_atomic_u32_or  nrf_atomic.o
    0x000282e0   0x000282e0   0x0000000c   Code   RO         2843    i.nrf_atomic_u32_sub  nrf_atomic.o
    0x000282ec   0x000282ec   0x00000044   Code   RO         2962    i.nrf_balloc_alloc  nrf_balloc.o
    0x00028330   0x00028330   0x00000030   Code   RO         2963    i.nrf_balloc_free   nrf_balloc.o
    0x00028360   0x00028360   0x00000030   Code   RO         2964    i.nrf_balloc_init   nrf_balloc.o
    0x00028390   0x00028390   0x00000010   Code   RO         1456    i.nrf_bitmask_bit_is_set  nrfx_gpiote.o
    0x000283a0   0x000283a0   0x00000014   Code   RO         1457    i.nrf_bitmask_bit_set  nrfx_gpiote.o
    0x000283b4   0x000283b4   0x00000022   Code   RO          927    i.nrf_ble_gatt_init  nrf_ble_gatt.o
    0x000283d6   0x000283d6   0x00000002   PAD
    0x000283d8   0x000283d8   0x00000148   Code   RO          928    i.nrf_ble_gatt_on_ble_evt  nrf_ble_gatt.o
    0x00028520   0x00028520   0x00000016   Code   RO         1022    i.nrf_ble_qwr_conn_handle_assign  nrf_ble_qwr.o
    0x00028536   0x00028536   0x00000024   Code   RO         1023    i.nrf_ble_qwr_init  nrf_ble_qwr.o
    0x0002855a   0x0002855a   0x000000b6   Code   RO         1024    i.nrf_ble_qwr_on_ble_evt  nrf_ble_qwr.o
    0x00028610   0x00028610   0x0000000e   Code   RO         1321    i.nrf_clock_event_check  nrfx_clock.o
    0x0002861e   0x0002861e   0x00000010   Code   RO         1322    i.nrf_clock_event_clear  nrfx_clock.o
    0x0002862e   0x0002862e   0x00000002   PAD
    0x00028630   0x00028630   0x00000038   Code   RO         1124    i.nrf_drv_clock_init  nrf_drv_clock.o
    0x00028668   0x00028668   0x00000030   Code   RO         1128    i.nrf_drv_clock_lfclk_release  nrf_drv_clock.o
    0x00028698   0x00028698   0x00000068   Code   RO         1268    i.nrf_drv_uart_init  nrf_drv_uart.o
    0x00028700   0x00028700   0x0000001a   Code   RO         2999    i.nrf_fprintf       nrf_fprintf.o
    0x0002871a   0x0002871a   0x00000018   Code   RO         3000    i.nrf_fprintf_buffer_flush  nrf_fprintf.o
    0x00028732   0x00028732   0x000001da   Code   RO         3040    i.nrf_fprintf_fmt   nrf_fprintf_format.o
    0x0002890c   0x0002890c   0x00000032   Code   RO          356    i.nrf_gpio_cfg      boards.o
    0x0002893e   0x0002893e   0x00000032   Code   RO         1458    i.nrf_gpio_cfg      nrfx_gpiote.o
    0x00028970   0x00028970   0x00000032   Code   RO         1823    i.nrf_gpio_cfg      nrfx_uart.o
    0x000289a2   0x000289a2   0x00000032   Code   RO         2022    i.nrf_gpio_cfg      nrfx_uarte.o
    0x000289d4   0x000289d4   0x00000012   Code   RO         1824    i.nrf_gpio_cfg_default  nrfx_uart.o
    0x000289e6   0x000289e6   0x00000012   Code   RO         2023    i.nrf_gpio_cfg_default  nrfx_uarte.o
    0x000289f8   0x000289f8   0x00000012   Code   RO         1825    i.nrf_gpio_cfg_input  nrfx_uart.o
    0x00028a0a   0x00028a0a   0x00000012   Code   RO         2024    i.nrf_gpio_cfg_input  nrfx_uarte.o
    0x00028a1c   0x00028a1c   0x00000014   Code   RO         1826    i.nrf_gpio_cfg_output  nrfx_uart.o
    0x00028a30   0x00028a30   0x00000014   Code   RO         2025    i.nrf_gpio_cfg_output  nrfx_uarte.o
    0x00028a44   0x00028a44   0x00000030   Code   RO         1460    i.nrf_gpio_cfg_sense_set  nrfx_gpiote.o
    0x00028a74   0x00028a74   0x0000001c   Code   RO          357    i.nrf_gpio_pin_port_decode  boards.o
    0x00028a90   0x00028a90   0x0000001c   Code   RO         1462    i.nrf_gpio_pin_port_decode  nrfx_gpiote.o
    0x00028aac   0x00028aac   0x0000001c   Code   RO         1827    i.nrf_gpio_pin_port_decode  nrfx_uart.o
    0x00028ac8   0x00028ac8   0x0000001c   Code   RO         2026    i.nrf_gpio_pin_port_decode  nrfx_uarte.o
    0x00028ae4   0x00028ae4   0x00000016   Code   RO         1463    i.nrf_gpio_pin_read  nrfx_gpiote.o
    0x00028afa   0x00028afa   0x00000014   Code   RO         1828    i.nrf_gpio_pin_set  nrfx_uart.o
    0x00028b0e   0x00028b0e   0x00000014   Code   RO         2027    i.nrf_gpio_pin_set  nrfx_uarte.o
    0x00028b22   0x00028b22   0x00000026   Code   RO          358    i.nrf_gpio_pin_write  boards.o
    0x00028b48   0x00028b48   0x0000002c   Code   RO         1465    i.nrf_gpio_ports_read  nrfx_gpiote.o
    0x00028b74   0x00028b74   0x00000014   Code   RO         1466    i.nrf_gpiote_event_clear  nrfx_gpiote.o
    0x00028b88   0x00028b88   0x00000010   Code   RO         1467    i.nrf_gpiote_event_is_set  nrfx_gpiote.o
    0x00028b98   0x00028b98   0x00000050   Code   RO         3471    i.nrf_log_backend_add  nrf_log_frontend.o
    0x00028be8   0x00028be8   0x000000c8   Code   RO         3312    i.nrf_log_backend_serial_put  nrf_log_backend_serial.o
    0x00028cb0   0x00028cb0   0x00000002   Code   RO         3352    i.nrf_log_backend_uart_flush  nrf_log_backend_uart.o
    0x00028cb2   0x00028cb2   0x00000006   Code   RO         3353    i.nrf_log_backend_uart_init  nrf_log_backend_uart.o
    0x00028cb8   0x00028cb8   0x0000002c   Code   RO         3354    i.nrf_log_backend_uart_panic_set  nrf_log_backend_uart.o
    0x00028ce4   0x00028ce4   0x00000018   Code   RO         3355    i.nrf_log_backend_uart_put  nrf_log_backend_uart.o
    0x00028cfc   0x00028cfc   0x00000030   Code   RO         3473    i.nrf_log_color_id_get  nrf_log_frontend.o
    0x00028d2c   0x00028d2c   0x0000001c   Code   RO         3431    i.nrf_log_default_backends_init  nrf_log_default_backends.o
    0x00028d48   0x00028d48   0x00000220   Code   RO         3474    i.nrf_log_frontend_dequeue  nrf_log_frontend.o
    0x00028f68   0x00028f68   0x00000008   Code   RO         3476    i.nrf_log_frontend_std_0  nrf_log_frontend.o
    0x00028f70   0x00028f70   0x0000000e   Code   RO         3477    i.nrf_log_frontend_std_1  nrf_log_frontend.o
    0x00028f7e   0x00028f7e   0x00000010   Code   RO         3478    i.nrf_log_frontend_std_2  nrf_log_frontend.o
    0x00028f8e   0x00028f8e   0x00000002   PAD
    0x00028f90   0x00028f90   0x000000ac   Code   RO         3651    i.nrf_log_hexdump_entry_process  nrf_log_str_formatter.o
    0x0002903c   0x0002903c   0x00000058   Code   RO         3483    i.nrf_log_init      nrf_log_frontend.o
    0x00029094   0x00029094   0x00000014   Code   RO         3484    i.nrf_log_module_cnt_get  nrf_log_frontend.o
    0x000290a8   0x000290a8   0x0000001c   Code   RO         3487    i.nrf_log_module_name_get  nrf_log_frontend.o
    0x000290c4   0x000290c4   0x00000028   Code   RO         3488    i.nrf_log_panic     nrf_log_frontend.o
    0x000290ec   0x000290ec   0x000000b6   Code   RO         3652    i.nrf_log_std_entry_process  nrf_log_str_formatter.o
    0x000291a2   0x000291a2   0x00000060   Code   RO         3079    i.nrf_memobj_alloc  nrf_memobj.o
    0x00029202   0x00029202   0x00000032   Code   RO         3080    i.nrf_memobj_free   nrf_memobj.o
    0x00029234   0x00029234   0x00000008   Code   RO         3081    i.nrf_memobj_get    nrf_memobj.o
    0x0002923c   0x0002923c   0x00000004   Code   RO         3082    i.nrf_memobj_pool_init  nrf_memobj.o
    0x00029240   0x00029240   0x0000001e   Code   RO         3083    i.nrf_memobj_put    nrf_memobj.o
    0x0002925e   0x0002925e   0x0000000c   Code   RO         3084    i.nrf_memobj_read   nrf_memobj.o
    0x0002926a   0x0002926a   0x0000000c   Code   RO         3085    i.nrf_memobj_write  nrf_memobj.o
    0x00029276   0x00029276   0x00000002   PAD
    0x00029278   0x00029278   0x00000028   Code   RO         3157    i.nrf_pwr_mgmt_init  nrf_pwr_mgmt.o
    0x000292a0   0x000292a0   0x00000044   Code   RO         3158    i.nrf_pwr_mgmt_run  nrf_pwr_mgmt.o
    0x000292e4   0x000292e4   0x00000004   Code   RO           12    i.nrf_qwr_error_handler  main.o
    0x000292e8   0x000292e8   0x00000014   Code   RO         4186    i.nrf_sdh_ble_app_ram_start_get  nrf_sdh_ble.o
    0x000292fc   0x000292fc   0x00000108   Code   RO         4187    i.nrf_sdh_ble_default_cfg_set  nrf_sdh_ble.o
    0x00029404   0x00029404   0x0000012c   Code   RO         4188    i.nrf_sdh_ble_enable  nrf_sdh_ble.o
    0x00029530   0x00029530   0x0000005c   Code   RO         4189    i.nrf_sdh_ble_evts_poll  nrf_sdh_ble.o
    0x0002958c   0x0002958c   0x00000074   Code   RO         4068    i.nrf_sdh_enable_request  nrf_sdh.o
    0x00029600   0x00029600   0x00000024   Code   RO         4069    i.nrf_sdh_evts_poll  nrf_sdh.o
    0x00029624   0x00029624   0x0000000c   Code   RO         4070    i.nrf_sdh_is_enabled  nrf_sdh.o
    0x00029630   0x00029630   0x0000003c   Code   RO         4237    i.nrf_sdh_soc_evts_poll  nrf_sdh_soc.o
    0x0002966c   0x0002966c   0x0000000a   Code   RO         3226    i.nrf_section_iter_init  nrf_section_iter.o
    0x00029676   0x00029676   0x00000024   Code   RO         3227    i.nrf_section_iter_item_set  nrf_section_iter.o
    0x0002969a   0x0002969a   0x00000020   Code   RO         3228    i.nrf_section_iter_next  nrf_section_iter.o
    0x000296ba   0x000296ba   0x00000002   PAD
    0x000296bc   0x000296bc   0x00000038   Code   RO         3261    i.nrf_strerror_find  nrf_strerror.o
    0x000296f4   0x000296f4   0x00000014   Code   RO         3262    i.nrf_strerror_get  nrf_strerror.o
    0x00029708   0x00029708   0x0000000a   Code   RO         1829    i.nrf_uart_event_check  nrfx_uart.o
    0x00029712   0x00029712   0x0000000c   Code   RO         1830    i.nrf_uart_event_clear  nrfx_uart.o
    0x0002971e   0x0002971e   0x0000000c   Code   RO         1831    i.nrf_uart_int_enable_check  nrfx_uart.o
    0x0002972a   0x0002972a   0x0000000a   Code   RO         2028    i.nrf_uarte_event_check  nrfx_uarte.o
    0x00029734   0x00029734   0x0000000c   Code   RO         2029    i.nrf_uarte_event_clear  nrfx_uarte.o
    0x00029740   0x00029740   0x0000002c   Code   RO         1327    i.nrfx_clock_enable  nrfx_clock.o
    0x0002976c   0x0002976c   0x00000020   Code   RO         1330    i.nrfx_clock_init   nrfx_clock.o
    0x0002978c   0x0002978c   0x0000001c   Code   RO         1333    i.nrfx_clock_lfclk_stop  nrfx_clock.o
    0x000297a8   0x000297a8   0x00000010   Code   RO         2419    i.nrfx_coredep_delay_us  app_timer.o
    0x000297b8   0x000297b8   0x00000048   Code   RO         1471    i.nrfx_gpiote_in_event_disable  nrfx_gpiote.o
    0x00029800   0x00029800   0x00000098   Code   RO         1472    i.nrfx_gpiote_in_event_enable  nrfx_gpiote.o
    0x00029898   0x00029898   0x000000d4   Code   RO         1473    i.nrfx_gpiote_in_init  nrfx_gpiote.o
    0x0002996c   0x0002996c   0x0000000e   Code   RO         1474    i.nrfx_gpiote_in_is_set  nrfx_gpiote.o
    0x0002997a   0x0002997a   0x00000002   PAD
    0x0002997c   0x0002997c   0x00000074   Code   RO         1476    i.nrfx_gpiote_init  nrfx_gpiote.o
    0x000299f0   0x000299f0   0x00000014   Code   RO         1477    i.nrfx_gpiote_is_init  nrfx_gpiote.o
    0x00029a04   0x00029a04   0x00000010   Code   RO         2030    i.nrfx_is_in_ram    nrfx_uarte.o
    0x00029a14   0x00029a14   0x0000003a   Code   RO         1772    i.nrfx_prs_acquire  nrfx_prs.o
    0x00029a4e   0x00029a4e   0x00000012   Code   RO         1773    i.nrfx_prs_release  nrfx_prs.o
    0x00029a60   0x00029a60   0x00000010   Code   RO         1832    i.nrfx_uart_0_irq_handler  nrfx_uart.o
    0x00029a70   0x00029a70   0x000000d4   Code   RO         1834    i.nrfx_uart_init    nrfx_uart.o
    0x00029b44   0x00029b44   0x000000a4   Code   RO         1840    i.nrfx_uart_tx      nrfx_uart.o
    0x00029be8   0x00029be8   0x00000020   Code   RO         1842    i.nrfx_uart_tx_in_progress  nrfx_uart.o
    0x00029c08   0x00029c08   0x000000b4   Code   RO         1843    i.nrfx_uart_uninit  nrfx_uart.o
    0x00029cbc   0x00029cbc   0x00000010   Code   RO         2031    i.nrfx_uarte_0_irq_handler  nrfx_uarte.o
    0x00029ccc   0x00029ccc   0x0000006c   Code   RO         2033    i.nrfx_uarte_init   nrfx_uarte.o
    0x00029d38   0x00029d38   0x00000090   Code   RO         2037    i.nrfx_uarte_tx     nrfx_uarte.o
    0x00029dc8   0x00029dc8   0x0000001c   Code   RO         2039    i.nrfx_uarte_tx_in_progress  nrfx_uarte.o
    0x00029de4   0x00029de4   0x000000b0   Code   RO         2040    i.nrfx_uarte_uninit  nrfx_uarte.o
    0x00029e94   0x00029e94   0x0000001c   Code   RO           13    i.on_conn_params_evt  main.o
    0x00029eb0   0x00029eb0   0x000000a0   Code   RO          929    i.on_connected_evt  nrf_ble_gatt.o
    0x00029f50   0x00029f50   0x000000a4   Code   RO          930    i.on_exchange_mtu_request_evt  nrf_ble_gatt.o
    0x00029ff4   0x00029ff4   0x00000018   Code   RO         1493    i.pin_in_use_by_port  nrfx_gpiote.o
    0x0002a00c   0x0002a00c   0x00000018   Code   RO         1494    i.pin_in_use_by_te  nrfx_gpiote.o
    0x0002a024   0x0002a024   0x0000003c   Code   RO         3654    i.postfix_process   nrf_log_str_formatter.o
    0x0002a060   0x0002a060   0x00000098   Code   RO         3655    i.prefix_process    nrf_log_str_formatter.o
    0x0002a0f8   0x0002a0f8   0x00000018   Code   RO         1774    i.prs_box_get       nrfx_prs.o
    0x0002a110   0x0002a110   0x0000003c   Code   RO         2420    i.rtc1_stop         app_timer.o
    0x0002a14c   0x0002a14c   0x00000032   Code   RO         1844    i.rx_byte           nrfx_uart.o
    0x0002a17e   0x0002a17e   0x00000016   Code   RO         1845    i.rx_done_event     nrfx_uart.o
    0x0002a194   0x0002a194   0x00000018   Code   RO         2041    i.rx_done_event     nrfx_uarte.o
    0x0002a1ac   0x0002a1ac   0x00000050   Code   RO         1131    i.sd_state_evt_handler  nrf_drv_clock.o
    0x0002a1fc   0x0002a1fc   0x00000030   Code   RO         4075    i.sdh_request_observer_notify  nrf_sdh.o
    0x0002a22c   0x0002a22c   0x0000002c   Code   RO         4076    i.sdh_state_observer_notify  nrf_sdh.o
    0x0002a258   0x0002a258   0x00000010   Code   RO          617    i.send_error_evt    ble_conn_params.o
    0x0002a268   0x0002a268   0x00000040   Code   RO         3356    i.serial_tx         nrf_log_backend_uart.o
    0x0002a2a8   0x0002a2a8   0x00000088   Code   RO          493    i.service_data_encode  ble_advdata.o
    0x0002a330   0x0002a330   0x00000018   Code   RO         1132    i.soc_evt_handler   nrf_drv_clock.o
    0x0002a348   0x0002a348   0x00000058   Code   RO         4078    i.softdevices_evt_irq_enable  nrf_sdh.o
    0x0002a3a0   0x0002a3a0   0x0000008c   Code   RO         3490    i.std_n             nrf_log_frontend.o
    0x0002a42c   0x0002a42c   0x00000080   Code   RO         2421    i.timer_list_handler  app_timer.o
    0x0002a4ac   0x0002a4ac   0x0000003c   Code   RO         2422    i.timer_list_insert  app_timer.o
    0x0002a4e8   0x0002a4e8   0x00000060   Code   RO         2423    i.timer_list_remove  app_timer.o
    0x0002a548   0x0002a548   0x00000048   Code   RO         2424    i.timer_stop_op_schedule  app_timer.o
    0x0002a590   0x0002a590   0x00000074   Code   RO         2425    i.timer_timeouts_check  app_timer.o
    0x0002a604   0x0002a604   0x00000020   Code   RO         1847    i.tx_byte           nrfx_uart.o
    0x0002a624   0x0002a624   0x0000001a   Code   RO         1848    i.tx_done_event     nrfx_uart.o
    0x0002a63e   0x0002a63e   0x00000002   PAD
    0x0002a640   0x0002a640   0x00000030   Code   RO         1269    i.uart_evt_handler  nrf_drv_uart.o
    0x0002a670   0x0002a670   0x0000000c   Code   RO         3357    i.uart_evt_handler  nrf_log_backend_uart.o
    0x0002a67c   0x0002a67c   0x00000050   Code   RO         3358    i.uart_init         nrf_log_backend_uart.o
    0x0002a6cc   0x0002a6cc   0x00000128   Code   RO         1849    i.uart_irq_handler  nrfx_uart.o
    0x0002a7f4   0x0002a7f4   0x00000030   Code   RO         1270    i.uarte_evt_handler  nrf_drv_uart.o
    0x0002a824   0x0002a824   0x000000f4   Code   RO         2042    i.uarte_irq_handler  nrfx_uarte.o
    0x0002a918   0x0002a918   0x0000000a   Code   RO          494    i.uint16_encode     ble_advdata.o
    0x0002a922   0x0002a922   0x00000002   PAD
    0x0002a924   0x0002a924   0x000000b4   Code   RO         3041    i.unsigned_print    nrf_fprintf_format.o
    0x0002a9d8   0x0002a9d8   0x00000068   Code   RO          618    i.update_timeout_handler  ble_conn_params.o
    0x0002aa40   0x0002aa40   0x00000024   Code   RO         1025    i.user_mem_reply    nrf_ble_qwr.o
    0x0002aa64   0x0002aa64   0x00000030   Code   RO         2426    i.user_op_alloc     app_timer.o
    0x0002aa94   0x0002aa94   0x00000030   Code   RO          495    i.uuid_list_encode  ble_advdata.o
    0x0002aac4   0x0002aac4   0x0000009e   Code   RO          496    i.uuid_list_sized_encode  ble_advdata.o
    0x0002ab62   0x0002ab62   0x00000002   PAD
    0x0002ab64   0x0002ab64   0x00000004   Data   RO           17    .constdata          main.o
    0x0002ab68   0x0002ab68   0x00000008   Data   RO          359    .constdata          boards.o
    0x0002ab70   0x0002ab70   0x00000016   Data   RO          931    .constdata          nrf_ble_gatt.o
    0x0002ab86   0x0002ab86   0x00000002   PAD
    0x0002ab88   0x0002ab88   0x00000010   Data   RO         1071    .constdata          ble_lbs.o
    0x0002ab98   0x0002ab98   0x00000008   Data   RO         1496    .constdata          nrfx_gpiote.o
    0x0002aba0   0x0002aba0   0x00000004   Data   RO         1852    .constdata          nrfx_uart.o
    0x0002aba4   0x0002aba4   0x00000004   Data   RO         2045    .constdata          nrfx_uarte.o
    0x0002aba8   0x0002aba8   0x00000008   Data   RO         2189    .constdata          app_button.o
    0x0002abb0   0x0002abb0   0x00000006   Data   RO         2428    .constdata          app_timer.o
    0x0002abb6   0x0002abb6   0x00000010   Data   RO         3042    .constdata          nrf_fprintf_format.o
    0x0002abc6   0x0002abc6   0x00000002   PAD
    0x0002abc8   0x0002abc8   0x00000018   Data   RO         3162    .constdata          nrf_pwr_mgmt.o
    0x0002abe0   0x0002abe0   0x0000000c   Data   RO         3163    .constdata          nrf_pwr_mgmt.o
    0x0002abec   0x0002abec   0x0000013c   Data   RO         3263    .constdata          nrf_strerror.o
    0x0002ad28   0x0002ad28   0x0000000c   Data   RO         3360    .constdata          nrf_log_backend_uart.o
    0x0002ad34   0x0002ad34   0x00000020   Data   RO         3361    .constdata          nrf_log_backend_uart.o
    0x0002ad54   0x0002ad54   0x00000010   Data   RO         4079    .constdata          nrf_sdh.o
    0x0002ad64   0x0002ad64   0x00000028   Data   RO         4080    .constdata          nrf_sdh.o
    0x0002ad8c   0x0002ad8c   0x00000010   Data   RO         4081    .constdata          nrf_sdh.o
    0x0002ad9c   0x0002ad9c   0x00000010   Data   RO         4082    .constdata          nrf_sdh.o
    0x0002adac   0x0002adac   0x00000020   Data   RO         4190    .constdata          nrf_sdh_ble.o
    0x0002adcc   0x0002adcc   0x00000010   Data   RO         4191    .constdata          nrf_sdh_ble.o
    0x0002addc   0x0002addc   0x00000010   Data   RO         4238    .constdata          nrf_sdh_soc.o
    0x0002adec   0x0002adec   0x0000000c   Data   RO         4239    .constdata          nrf_sdh_soc.o
    0x0002adf8   0x0002adf8   0x00000081   Data   RO         4320    .constdata          mc_w.l(ctype_o.o)
    0x0002ae79   0x0002ae79   0x00000003   PAD
    0x0002ae7c   0x0002ae7c   0x00000004   Data   RO         4321    .constdata          mc_w.l(ctype_o.o)
    0x0002ae80   0x0002ae80   0x000000a2   Data   RO          932    .conststring        nrf_ble_gatt.o
    0x0002af22   0x0002af22   0x00000002   PAD
    0x0002af24   0x0002af24   0x000003eb   Data   RO         3264    .conststring        nrf_strerror.o
    0x0002b30f   0x0002b30f   0x00000001   PAD
    0x0002b310   0x0002b310   0x00000066   Data   RO         3656    .conststring        nrf_log_str_formatter.o
    0x0002b376   0x0002b376   0x00000002   PAD
    0x0002b378   0x0002b378   0x00000188   Data   RO         4192    .conststring        nrf_sdh_ble.o
    0x0002b500   0x0002b500   0x0000000d   Data   RO          933    .conststrlit        nrf_ble_gatt.o
    0x0002b50d   0x0002b50d   0x00000003   PAD
    0x0002b510   0x0002b510   0x00000006   Data   RO         1138    .conststrlit        nrf_drv_clock.o
    0x0002b516   0x0002b516   0x00000002   PAD
    0x0002b518   0x0002b518   0x00000006   Data   RO         1337    .conststrlit        nrfx_clock.o
    0x0002b51e   0x0002b51e   0x00000002   PAD
    0x0002b520   0x0002b520   0x00000007   Data   RO         1500    .conststrlit        nrfx_gpiote.o
    0x0002b527   0x0002b527   0x00000001   PAD
    0x0002b528   0x0002b528   0x00000004   Data   RO         1776    .conststrlit        nrfx_prs.o
    0x0002b52c   0x0002b52c   0x00000005   Data   RO         1855    .conststrlit        nrfx_uart.o
    0x0002b531   0x0002b531   0x00000003   PAD
    0x0002b534   0x0002b534   0x00000006   Data   RO         2048    .conststrlit        nrfx_uarte.o
    0x0002b53a   0x0002b53a   0x00000002   PAD
    0x0002b53c   0x0002b53c   0x00000009   Data   RO         3164    .conststrlit        nrf_pwr_mgmt.o
    0x0002b545   0x0002b545   0x00000003   PAD
    0x0002b548   0x0002b548   0x00000018   Data   RO         3493    .conststrlit        nrf_log_frontend.o
    0x0002b560   0x0002b560   0x00000008   Data   RO         4083    .conststrlit        nrf_sdh.o
    0x0002b568   0x0002b568   0x0000000c   Data   RO         4193    .conststrlit        nrf_sdh_ble.o
    0x0002b574   0x0002b574   0x0000000c   Data   RO         4240    .conststrlit        nrf_sdh_soc.o
    0x0002b580   0x0002b580   0x00000020   Data   RO         4379    Region$$Table       anon$$obj.o
    0x0002b5a0   0x0002b5a0   0x00000008   Data   RO          934    log_const_data      nrf_ble_gatt.o
    0x0002b5a8   0x0002b5a8   0x00000008   Data   RO         1139    log_const_data      nrf_drv_clock.o
    0x0002b5b0   0x0002b5b0   0x00000008   Data   RO         1339    log_const_data      nrfx_clock.o
    0x0002b5b8   0x0002b5b8   0x00000008   Data   RO         1501    log_const_data      nrfx_gpiote.o
    0x0002b5c0   0x0002b5c0   0x00000008   Data   RO         1778    log_const_data      nrfx_prs.o
    0x0002b5c8   0x0002b5c8   0x00000008   Data   RO         1856    log_const_data      nrfx_uart.o
    0x0002b5d0   0x0002b5d0   0x00000008   Data   RO         2049    log_const_data      nrfx_uarte.o
    0x0002b5d8   0x0002b5d8   0x00000008   Data   RO         3166    log_const_data      nrf_pwr_mgmt.o
    0x0002b5e0   0x0002b5e0   0x00000010   Data   RO         3496    log_const_data      nrf_log_frontend.o
    0x0002b5f0   0x0002b5f0   0x00000008   Data   RO         4085    log_const_data      nrf_sdh.o
    0x0002b5f8   0x0002b5f8   0x00000008   Data   RO         4195    log_const_data      nrf_sdh_ble.o
    0x0002b600   0x0002b600   0x00000008   Data   RO         4241    log_const_data      nrf_sdh_soc.o
    0x0002b608   0x0002b608   0x00000018   Data   RO         3498    nrf_balloc          nrf_log_frontend.o
    0x0002b620   0x0002b620   0x00000008   Data   RO          720    sdh_ble_observers0  ble_conn_state.o
    0x0002b628   0x0002b628   0x00000008   Data   RO           19    sdh_ble_observers1  main.o
    0x0002b630   0x0002b630   0x00000008   Data   RO          621    sdh_ble_observers1  ble_conn_params.o
    0x0002b638   0x0002b638   0x00000010   Data   RO           20    sdh_ble_observers2  main.o
    0x0002b648   0x0002b648   0x00000008   Data   RO           21    sdh_ble_observers3  main.o
    0x0002b650   0x0002b650   0x00000008   Data   RO         1141    sdh_soc_observers0  nrf_drv_clock.o
    0x0002b658   0x0002b658   0x00000008   Data   RO         4197    sdh_stack_observers0  nrf_sdh_ble.o
    0x0002b660   0x0002b660   0x00000008   Data   RO         4243    sdh_stack_observers0  nrf_sdh_soc.o
    0x0002b668   0x0002b668   0x00000008   Data   RO         1142    sdh_state_observers0  nrf_drv_clock.o


    Execution Region RW_IRAM1 (Exec base: 0x200022e0, Load base: 0x0002b670, Size: 0x000029b0, Max: 0x0003dd20, ABSOLUTE, COMPRESSED[0x00000050])

    Exec Addr    Load Addr    Size         Type   Attr      Idx    E Section Name        Object

    0x200022e0   COMPRESSED   0x0000001c   Data   RW           18    .data               main.o
    0x200022fc   COMPRESSED   0x00000008   Data   RW          620    .data               ble_conn_params.o
    0x20002304   COMPRESSED   0x00000014   Data   RW         1271    .data               nrf_drv_uart.o
    0x20002318   COMPRESSED   0x00000008   Data   RW         1338    .data               nrfx_clock.o
    0x20002320   COMPRESSED   0x00000008   Data   RW         1777    .data               nrfx_prs.o
    0x20002328   COMPRESSED   0x00000020   Data   RW         2190    .data               app_button.o
    0x20002348   COMPRESSED   0x00000014   Data   RW         2429    .data               app_timer.o
    0x2000235c   COMPRESSED   0x00000008   Data   RW         3165    .data               nrf_pwr_mgmt.o
    0x20002364   COMPRESSED   0x00000018   Data   RW         3362    .data               nrf_log_backend_uart.o
    0x2000237c   COMPRESSED   0x0000000c   Data   RW         3432    .data               nrf_log_default_backends.o
    0x20002388   COMPRESSED   0x00000008   Data   RW         3494    .data               nrf_log_frontend.o
    0x20002390   COMPRESSED   0x00000008   Data   RW         3495    .data               nrf_log_frontend.o
    0x20002398   COMPRESSED   0x00000040   Data   RW         3657    .data               nrf_log_str_formatter.o
    0x200023d8   COMPRESSED   0x00000003   Data   RW         4084    .data               nrf_sdh.o
    0x200023db   COMPRESSED   0x00000001   Data   RW         4194    .data               nrf_sdh_ble.o
    0x200023dc   COMPRESSED   0x00000004   Data   RW         4278    .data               system_nrf52840.o
    0x200023e0   COMPRESSED   0x00000004   Data   RW          935    log_dynamic_data    nrf_ble_gatt.o
    0x200023e4   COMPRESSED   0x00000004   Data   RW         1140    log_dynamic_data    nrf_drv_clock.o
    0x200023e8   COMPRESSED   0x00000004   Data   RW         1340    log_dynamic_data    nrfx_clock.o
    0x200023ec   COMPRESSED   0x00000004   Data   RW         1502    log_dynamic_data    nrfx_gpiote.o
    0x200023f0   COMPRESSED   0x00000004   Data   RW         1779    log_dynamic_data    nrfx_prs.o
    0x200023f4   COMPRESSED   0x00000004   Data   RW         1857    log_dynamic_data    nrfx_uart.o
    0x200023f8   COMPRESSED   0x00000004   Data   RW         2050    log_dynamic_data    nrfx_uarte.o
    0x200023fc   COMPRESSED   0x00000004   Data   RW         3167    log_dynamic_data    nrf_pwr_mgmt.o
    0x20002400   COMPRESSED   0x00000008   Data   RW         3497    log_dynamic_data    nrf_log_frontend.o
    0x20002408   COMPRESSED   0x00000004   Data   RW         4086    log_dynamic_data    nrf_sdh.o
    0x2000240c   COMPRESSED   0x00000004   Data   RW         4196    log_dynamic_data    nrf_sdh_ble.o
    0x20002410   COMPRESSED   0x00000004   Data   RW         4242    log_dynamic_data    nrf_sdh_soc.o
    0x20002414        -       0x00000038   Zero   RW           14    .bss                main.o
    0x2000244c        -       0x0000001f   Zero   RW           15    .bss                main.o
    0x2000246b        -       0x0000001f   Zero   RW           16    .bss                main.o
    0x2000248a   COMPRESSED   0x00000002   PAD
    0x2000248c        -       0x00000050   Zero   RW          619    .bss                ble_conn_params.o
    0x200024dc        -       0x00000078   Zero   RW          719    .bss                ble_conn_state.o
    0x20002554        -       0x00000014   Zero   RW         1133    .bss                nrf_drv_clock.o
    0x20002568        -       0x0000006c   Zero   RW         1495    .bss                nrfx_gpiote.o
    0x200025d4        -       0x0000002c   Zero   RW         1850    .bss                nrfx_uart.o
    0x20002600        -       0x00000024   Zero   RW         2043    .bss                nrfx_uarte.o
    0x20002624        -       0x00000020   Zero   RW         2188    .bss                app_button.o
    0x20002644        -       0x0000010c   Zero   RW         2427    .bss                app_timer.o
    0x20002750        -       0x0000000c   Zero   RW         2580    .bss                app_util_platform.o
    0x2000275c        -       0x0000000c   Zero   RW         3161    .bss                nrf_pwr_mgmt.o
    0x20002768        -       0x00000040   Zero   RW         3359    .bss                nrf_log_backend_uart.o
    0x200027a8        -       0x000000c0   Zero   RW         3491    .bss                nrf_log_frontend.o
    0x20002868        -       0x00000424   Zero   RW         3492    .bss                nrf_log_frontend.o
    0x20002c8c   COMPRESSED   0x00000004   PAD
    0x20002c90        -       0x00002000   Zero   RW         4266    STACK               arm_startup_nrf52840.o


==============================================================================

Image component sizes


      Code (inc. data)   RO Data    RW Data    ZI Data      Debug   Object Name

       488         46          8         32         32      14223   app_button.o
        22          0          0          0          0       2541   app_error.o
       124         40          0          0          0      30617   app_error_weak.o
      1506        118          6         20        268      49491   app_timer.o
       124         14          0          0         12       9666   app_util_platform.o
        36          8        512          0       8192        976   arm_startup_nrf52840.o
      1226          0          0          0          0      82331   ble_advdata.o
       636         44          8          8         80      14979   ble_conn_params.o
       322          6          8          0        120       5665   ble_conn_state.o
       548          6         16          0          0       6999   ble_lbs.o
         8          0          0          0          0       1542   ble_srv_common.o
       250         22          8          0          0      49733   boards.o
      1072        224         36         28        118     155045   main.o
        64          0          0          0          0       3132   nrf_atflags.o
       306          0          0          0          0       8455   nrf_atomic.o
       164          0          0          0          0       3812   nrf_balloc.o
       894        254        205          4          0      36768   nrf_ble_gatt.o
       276          0          0          0          0       6461   nrf_ble_qwr.o
       276         34         30          4         20      39810   nrf_drv_clock.o
       200         26          0         20          0      18116   nrf_drv_uart.o
        50          0          0          0          0       3701   nrf_fprintf.o
       850          4         16          0          0       5698   nrf_fprintf_format.o
       200          0          0          0          0      11727   nrf_log_backend_serial.o
       232         44         44         24         64      21750   nrf_log_backend_uart.o
        28          6          0         12          0       3375   nrf_log_default_backends.o
      1490        118         64         24       1252      30861   nrf_log_frontend.o
       566        108        102         64          0       6056   nrf_log_str_formatter.o
       330          0          0          0          0      10007   nrf_memobj.o
       108         16         53         12         12      36667   nrf_pwr_mgmt.o
       384         46        104          7          0      39711   nrf_sdh.o
       676        222        468          5          0       6201   nrf_sdh_ble.o
        60          4         56          4          0       2708   nrf_sdh_soc.o
        78          0          0          0          0       2948   nrf_section_iter.o
        76         10       1319          0          0       2915   nrf_strerror.o
       222         28         14         12          0      41648   nrfx_clock.o
      1450         98         23          4        108      61789   nrfx_gpiote.o
       112         16         12         12          0       4832   nrfx_prs.o
      1336         46         17          4         44      33450   nrfx_uart.o
      1178         50         18          4         36      26397   nrfx_uarte.o
       476         60          0          4          0       2479   system_nrf52840.o

    ----------------------------------------------------------------------
     18484       1718       3204        308      10364     895282   Object Totals
         0          0         32          0          0          0   (incl. Generated)
        40          0         25          0          6          0   (incl. Padding)

    ----------------------------------------------------------------------

      Code (inc. data)   RO Data    RW Data    ZI Data      Debug   Library Member Name

        86          0          0          0          0          0   __dczerorl2.o
         8          4        133          0          0         68   ctype_o.o
         0          0          0          0          0          0   entry.o
         0          0          0          0          0          0   entry10a.o
         0          0          0          0          0          0   entry11a.o
         8          4          0          0          0          0   entry2.o
         4          0          0          0          0          0   entry5.o
         0          0          0          0          0          0   entry7b.o
         0          0          0          0          0          0   entry8b.o
         8          4          0          0          0          0   entry9a.o
        30          0          0          0          0          0   handlers.o
        36          8          0          0          0         68   init.o
        30          0          0          0          0         68   llshl.o
        36          0          0          0          0         68   memcpya.o
        36          0          0          0          0        108   memseta.o
        14          0          0          0          0         68   strlen.o

    ----------------------------------------------------------------------
       304         20        136          0          0        448   Library Totals
         8          0          3          0          0          0   (incl. Padding)

    ----------------------------------------------------------------------

      Code (inc. data)   RO Data    RW Data    ZI Data      Debug   Library Name

       296         20        133          0          0        448   mc_w.l

    ----------------------------------------------------------------------
       304         20        136          0          0        448   Library Totals

    ----------------------------------------------------------------------

==============================================================================


      Code (inc. data)   RO Data    RW Data    ZI Data      Debug   

     18788       1738       3340        308      10364     872710   Grand Totals
     18788       1738       3340         80      10364     872710   ELF Image Totals (compressed)
     18788       1738       3340         80          0          0   ROM Totals

==============================================================================

    Total RO  Size (Code + RO Data)                22128 (  21.61kB)
    Total RW  Size (RW Data + ZI Data)             10672 (  10.42kB)
    Total ROM Size (Code + RO Data + RW Data)      22208 (  21.69kB)

==============================================================================

