Component: ARM Compiler 5.06 update 5 (build 528) Tool: armlink [4d35e2]

==============================================================================

Section Cross References

    main.o(.text) refers to nrf_log_frontend.o(.text) for nrf_log_frontend_std_0
    main.o(.text) refers to nrf_drv_saadc.o(.text) for nrf_drv_saadc_buffer_convert
    main.o(.text) refers to app_error.o(.text) for app_error_handler
    main.o(.text) refers to dflti.o(.text) for __aeabi_i2d
    main.o(.text) refers to round.o(i.__hardfp_round) for __hardfp_round
    main.o(.text) refers to dfixui.o(.text) for __aeabi_d2uiz
    main.o(.text) refers to eartag_adv.o(.text) for eartag_adv_set_batt_lv
    main.o(.text) refers to memseta.o(.text) for __aeabi_memclr4
    main.o(.text) refers to ble_conn_params.o(.text) for ble_conn_params_init
    main.o(.text) refers to system_nrf52840.o(.data) for SystemCoreClock
    main.o(.text) refers to nrf_log_frontend.o(log_dynamic_data) for m_nrf_log_app_logs_data_dynamic
    main.o(.text) refers to main.o(.data) for voltage
    main.o(.text) refers to main.o(.bss) for m_adv
    main.o(.text) refers to main.o(.constdata) for .constdata
    main.o(.text) refers to bsp.o(.text) for bsp_indication_set
    main.o(.text) refers to memcpya.o(.text) for __aeabi_memcpy
    main.o(.text) refers to nrf_sdh.o(.text) for nrf_sdh_enable_request
    main.o(.text) refers to nrf_sdh_ble.o(.text) for nrf_sdh_ble_default_cfg_set
==============================================================================

Removing Unused input sections from the image.

    Removing main.o(.rev16_text), (4 bytes).
    Removing main.o(.revsh_text), (4 bytes).
    Removing main.o(.rrx_text), (6 bytes).
    Removing eartag_adv.o(.rev16_text), (4 bytes).
    Removing eartag_adv.o(.revsh_text), (4 bytes).
    Removing eartag_adv.o(.rrx_text), (6 bytes).
    Removing eartag_scan.o(.rev16_text), (4 bytes).
    Removing eartag_scan.o(.revsh_text), (4 bytes).
    Removing eartag_scan.o(.rrx_text), (6 bytes).
    Removing boards.o(.rev16_text), (4 bytes).
    Removing boards.o(.revsh_text), (4 bytes).
    Removing boards.o(.rrx_text), (6 bytes).
    Removing bsp.o(.rev16_text), (4 bytes).
    Removing bsp.o(.revsh_text), (4 bytes).
    Removing bsp.o(.rrx_text), (6 bytes).
    Removing bsp_btn_ble.o(.rev16_text), (4 bytes).
    Removing bsp_btn_ble.o(.revsh_text), (4 bytes).
    Removing bsp_btn_ble.o(.rrx_text), (6 bytes).
==============================================================================

Image Symbol Table

    Local Symbols

    Symbol Name                              Value     Ov Type        Size  Object(Section)

    ../clib/../cmprslib/zerorunl2.c          0x00000000   Number         0  __dczerorl2.o ABSOLUTE
    ../clib/microlib/ctype/ctype.c           0x00000000   Number         0  isprint_o.o ABSOLUTE
    ../clib/microlib/ctype/ctype.c           0x00000000   Number         0  isalpha_o.o ABSOLUTE
    ../clib/microlib/ctype/ctype.c           0x00000000   Number         0  iscntrl_o.o ABSOLUTE
    ../clib/microlib/ctype/ctype.c           0x00000000   Number         0  isblank_o.o ABSOLUTE
    ../clib/microlib/ctype/ctype.c           0x00000000   Number         0  isdigit_o.o ABSOLUTE
    ../clib/microlib/ctype/ctype.c           0x00000000   Number         0  isgraph_o.o ABSOLUTE
    ../clib/microlib/ctype/ctype.c           0x00000000   Number         0  islower_o.o ABSOLUTE
    ../clib/microlib/ctype/ctype.c           0x00000000   Number         0  ispunct_o.o ABSOLUTE
    ../clib/microlib/ctype/ctype.c           0x00000000   Number         0  isalnum_o.o ABSOLUTE
    ../clib/microlib/ctype/ctype.c           0x00000000   Number         0  isspace_o.o ABSOLUTE
    ../clib/microlib/ctype/ctype.c           0x00000000   Number         0  isupper_o.o ABSOLUTE
    ../clib/microlib/ctype/ctype.c           0x00000000   Number         0  isxdigit_o.o ABSOLUTE
    ../clib/microlib/ctype/ctype.c           0x00000000   Number         0  ctype_o.o ABSOLUTE
    ../clib/microlib/division.c              0x00000000   Number         0  uidiv.o ABSOLUTE
    ../clib/microlib/division.c              0x00000000   Number         0  uldiv.o ABSOLUTE
    ../clib/microlib/init/entry.s            0x00000000   Number         0  entry8a.o ABSOLUTE
    ../clib/microlib/init/entry.s            0x00000000   Number         0  entry8b.o ABSOLUTE
    ../clib/microlib/init/entry.s            0x00000000   Number         0  entry7a.o ABSOLUTE
    ../clib/microlib/init/entry.s            0x00000000   Number         0  entry7b.o ABSOLUTE
    ../clib/microlib/init/entry.s            0x00000000   Number         0  entry5.o ABSOLUTE
    ../clib/microlib/init/entry.s            0x00000000   Number         0  entry2.o ABSOLUTE
    ../clib/microlib/init/entry.s            0x00000000   Number         0  entry9a.o ABSOLUTE
    ../clib/microlib/init/entry.s            0x00000000   Number         0  entry9b.o ABSOLUTE
    ../clib/microlib/init/entry.s            0x00000000   Number         0  entry10a.o ABSOLUTE
    ../clib/microlib/init/entry.s            0x00000000   Number         0  entry10b.o ABSOLUTE
    ../clib/microlib/init/entry.s            0x00000000   Number         0  entry11a.o ABSOLUTE
    ../clib/microlib/init/entry.s            0x00000000   Number         0  entry11b.o ABSOLUTE
    ../clib/microlib/init/entry.s            0x00000000   Number         0  entry.o ABSOLUTE
    ../clib/microlib/longlong.c              0x00000000   Number         0  llushr.o ABSOLUTE
    ../clib/microlib/longlong.c              0x00000000   Number         0  llsshr.o ABSOLUTE
    ../clib/microlib/longlong.c              0x00000000   Number         0  llshl.o ABSOLUTE
    ../clib/microlib/printf/printf.c         0x00000000   Number         0  printfa.o ABSOLUTE
    ../clib/microlib/printf/printf.c         0x00000000   Number         0  printfb.o ABSOLUTE
    ../clib/microlib/printf/printf.c         0x00000000   Number         0  printf8.o ABSOLUTE
    ../clib/microlib/printf/printf.c         0x00000000   Number         0  printf7.o ABSOLUTE
    ../clib/microlib/printf/printf.c         0x00000000   Number         0  printf6.o ABSOLUTE
    ../clib/microlib/printf/printf.c         0x00000000   Number         0  printf5.o ABSOLUTE
    ../clib/microlib/printf/printf.c         0x00000000   Number         0  printf3.o ABSOLUTE
    ../clib/microlib/printf/printf.c         0x00000000   Number         0  printf2.o ABSOLUTE
    ../clib/microlib/printf/printf.c         0x00000000   Number         0  printf1.o ABSOLUTE
    ../clib/microlib/printf/printf.c         0x00000000   Number         0  printf0.o ABSOLUTE
    ../clib/microlib/printf/printf.c         0x00000000   Number         0  printf4.o ABSOLUTE
    ../clib/microlib/printf/stubs.s          0x00000000   Number         0  stubs.o ABSOLUTE
    ../clib/microlib/stdio/fputc.c           0x00000000   Number         0  fputc.o ABSOLUTE
    ../clib/microlib/stdio/semi.s            0x00000000   Number         0  semi.o ABSOLUTE
    ../clib/microlib/stdio/streams.c         0x00000000   Number         0  stdout.o ABSOLUTE
    ../clib/microlib/stdlib/qsort.c          0x00000000   Number         0  qsort.o ABSOLUTE
    ../clib/microlib/string/memcmp.c         0x00000000   Number         0  memcmp.o ABSOLUTE
    ../clib/microlib/string/memcpy.c         0x00000000   Number         0  memcpya.o ABSOLUTE
    ../clib/microlib/string/memcpy.c         0x00000000   Number         0  memcpyb.o ABSOLUTE
    ../clib/microlib/string/memset.c         0x00000000   Number         0  memseta.o ABSOLUTE
    ../clib/microlib/string/strcpy.c         0x00000000   Number         0  strcpy.o ABSOLUTE
    ../clib/microlib/string/strlen.c         0x00000000   Number         0  strlen.o ABSOLUTE
    ../clib/microlib/stubs.s                 0x00000000   Number         0  iusefp.o ABSOLUTE
    ../clib/microlib/stubs.s                 0x00000000   Number         0  iusesemip.o ABSOLUTE
    ../fplib/microlib/fpadd.c                0x00000000   Number         0  dadd.o ABSOLUTE
    ../fplib/microlib/fpdiv.c                0x00000000   Number         0  ddiv.o ABSOLUTE
    ../fplib/microlib/fpepilogue.c           0x00000000   Number         0  depilogue.o ABSOLUTE
    ../fplib/microlib/fpfix.c                0x00000000   Number         0  dfixui.o ABSOLUTE
    ../fplib/microlib/fpfix.c                0x00000000   Number         0  dfixul.o ABSOLUTE
    ../fplib/microlib/fpflt.c                0x00000000   Number         0  dflti.o ABSOLUTE
    ../fplib/microlib/fpmul.c                0x00000000   Number         0  dmul.o ABSOLUTE
    ../fplib/microlib/fprnd.c                0x00000000   Number         0  drnd.o ABSOLUTE
    ../mathlib/round.c                       0x00000000   Number         0  round.o ABSOLUTE
    ..\..\..\..\..\..\components\ble\ble_services\ble_nus\ble_nus.c 0x00000000   Number         0  ble_nus.o ABSOLUTE
    ..\..\..\..\..\..\components\ble\common\ble_advdata.c 0x00000000   Number         0  ble_advdata.o ABSOLUTE
    ..\..\..\..\..\..\components\ble\common\ble_conn_params.c 0x00000000   Number         0  ble_conn_params.o ABSOLUTE
    ..\..\..\..\..\..\components\ble\common\ble_conn_state.c 0x00000000   Number         0  ble_conn_state.o ABSOLUTE
    ..\..\..\..\..\..\components\ble\common\ble_srv_common.c 0x00000000   Number         0  ble_srv_common.o ABSOLUTE
    ..\..\..\..\..\..\components\ble\nrf_ble_gatt\nrf_ble_gatt.c 0x00000000   Number         0  nrf_ble_gatt.o ABSOLUTE
    ..\..\..\..\..\..\components\boards\boards.c 0x00000000   Number         0  boards.o ABSOLUTE
    ..\..\..\..\..\..\components\custom\eartag_adv\eartag_adv.c 0x00000000   Number         0  eartag_adv.o ABSOLUTE
    ..\..\..\..\..\..\components\custom\eartag_scan\eartag_scan.c 0x00000000   Number         0  eartag_scan.o ABSOLUTE
    ..\..\..\..\..\..\components\drivers_nrf\clock\nrf_drv_clock.c 0x00000000   Number         0  nrf_drv_clock.o ABSOLUTE
    ..\..\..\..\..\..\components\drivers_nrf\common\nrf_drv_common.c 0x00000000   Number         0  nrf_drv_common.o ABSOLUTE
    ..\..\..\..\..\..\components\drivers_nrf\gpiote\nrf_drv_gpiote.c 0x00000000   Number         0  nrf_drv_gpiote.o ABSOLUTE
    ..\..\..\..\..\..\components\drivers_nrf\hal\nrf_saadc.c 0x00000000   Number         0  nrf_saadc.o ABSOLUTE
    ..\..\..\..\..\..\components\drivers_nrf\ppi\nrf_drv_ppi.c 0x00000000   Number         0  nrf_drv_ppi.o ABSOLUTE
    ..\..\..\..\..\..\components\drivers_nrf\rtc\nrf_drv_rtc.c 0x00000000   Number         0  nrf_drv_rtc.o ABSOLUTE
    ..\..\..\..\..\..\components\drivers_nrf\saadc\nrf_drv_saadc.c 0x00000000   Number         0  nrf_drv_saadc.o ABSOLUTE
    ..\..\..\..\..\..\components\drivers_nrf\timer\nrf_drv_timer.c 0x00000000   Number         0  nrf_drv_timer.o ABSOLUTE
    ..\..\..\..\..\..\components\drivers_nrf\uart\nrf_drv_uart.c 0x00000000   Number         0  nrf_drv_uart.o ABSOLUTE
    ..\..\..\..\..\..\components\libraries\atomic_fifo\nrf_atfifo.c 0x00000000   Number         0  nrf_atfifo.o ABSOLUTE
    ..\..\..\..\..\..\components\libraries\balloc\nrf_balloc.c 0x00000000   Number         0  nrf_balloc.o ABSOLUTE
    ..\..\..\..\..\..\components\libraries\bsp\bsp.c 0x00000000   Number         0  bsp.o ABSOLUTE
    ..\..\..\..\..\..\components\libraries\bsp\bsp_btn_ble.c 0x00000000   Number         0  bsp_btn_ble.o ABSOLUTE
    ..\..\..\..\..\..\components\libraries\bsp\bsp_nfc.c 0x00000000   Number         0  bsp_nfc.o ABSOLUTE
    ..\..\..\..\..\..\components\libraries\button\app_button.c 0x00000000   Number         0  app_button.o ABSOLUTE
    ..\..\..\..\..\..\components\libraries\experimental_log\src\nrf_log_backend_rtt.c 0x00000000   Number         0  nrf_log_backend_rtt.o ABSOLUTE
    ..\..\..\..\..\..\components\libraries\experimental_log\src\nrf_log_backend_serial.c 0x00000000   Number         0  nrf_log_backend_serial.o ABSOLUTE
    ..\..\..\..\..\..\components\libraries\experimental_log\src\nrf_log_default_backends.c 0x00000000   Number         0  nrf_log_default_backends.o ABSOLUTE
    ..\..\..\..\..\..\components\libraries\experimental_log\src\nrf_log_frontend.c 0x00000000   Number         0  nrf_log_frontend.o ABSOLUTE
    ..\..\..\..\..\..\components\libraries\experimental_log\src\nrf_log_str_formatter.c 0x00000000   Number         0  nrf_log_str_formatter.o ABSOLUTE
    ..\..\..\..\..\..\components\libraries\experimental_memobj\nrf_memobj.c 0x00000000   Number         0  nrf_memobj.o ABSOLUTE
    ..\..\..\..\..\..\components\libraries\experimental_section_vars\nrf_section_iter.c 0x00000000   Number         0  nrf_section_iter.o ABSOLUTE
    ..\..\..\..\..\..\components\libraries\fds\fds.c 0x00000000   Number         0  fds.o ABSOLUTE
    ..\..\..\..\..\..\components\libraries\fifo\app_fifo.c 0x00000000   Number         0  app_fifo.o ABSOLUTE
    ..\..\..\..\..\..\components\libraries\fstorage\nrf_fstorage.c 0x00000000   Number         0  nrf_fstorage.o ABSOLUTE
    ..\..\..\..\..\..\components\libraries\fstorage\nrf_fstorage_sd.c 0x00000000   Number         0  nrf_fstorage_sd.o ABSOLUTE
    ..\..\..\..\..\..\components\libraries\hardfault\hardfault_implementation.c 0x00000000   Number         0  hardfault_implementation.o ABSOLUTE
    ..\..\..\..\..\..\components\libraries\pwr_mgmt\nrf_pwr_mgmt.c 0x00000000   Number         0  nrf_pwr_mgmt.o ABSOLUTE
    ..\..\..\..\..\..\components\libraries\scheduler\app_scheduler.c 0x00000000   Number         0  app_scheduler.o ABSOLUTE
    ..\..\..\..\..\..\components\libraries\strerror\nrf_strerror.c 0x00000000   Number         0  nrf_strerror.o ABSOLUTE
    ..\..\..\..\..\..\components\libraries\timer\app_timer.c 0x00000000   Number         0  app_timer.o ABSOLUTE
    ..\..\..\..\..\..\components\libraries\uart\app_uart_fifo.c 0x00000000   Number         0  app_uart_fifo.o ABSOLUTE
    ..\..\..\..\..\..\components\libraries\util\app_error.c 0x00000000   Number         0  app_error.o ABSOLUTE
    ..\..\..\..\..\..\components\libraries\util\app_error_weak.c 0x00000000   Number         0  app_error_weak.o ABSOLUTE
    ..\..\..\..\..\..\components\libraries\util\app_util_platform.c 0x00000000   Number         0  app_util_platform.o ABSOLUTE
    ..\..\..\..\..\..\components\libraries\util\nrf_assert.c 0x00000000   Number         0  nrf_assert.o ABSOLUTE
    ..\..\..\..\..\..\components\libraries\util\sdk_mapped_flags.c 0x00000000   Number         0  sdk_mapped_flags.o ABSOLUTE
    ..\..\..\..\..\..\components\softdevice\common\nrf_sdh.c 0x00000000   Number         0  nrf_sdh.o ABSOLUTE
    ..\..\..\..\..\..\components\softdevice\common\nrf_sdh_ble.c 0x00000000   Number         0  nrf_sdh_ble.o ABSOLUTE
    ..\..\..\..\..\..\components\softdevice\common\nrf_sdh_soc.c 0x00000000   Number         0  nrf_sdh_soc.o ABSOLUTE
    ..\..\..\..\..\..\external\fprintf\nrf_fprintf.c 0x00000000   Number         0  nrf_fprintf.o ABSOLUTE
    ..\..\..\..\..\..\external\fprintf\nrf_fprintf_format.c 0x00000000   Number         0  nrf_fprintf_format.o ABSOLUTE
    ..\..\..\..\..\..\external\segger_rtt\SEGGER_RTT.c 0x00000000   Number         0  segger_rtt.o ABSOLUTE
    ..\..\..\..\..\..\external\segger_rtt\SEGGER_RTT_Syscalls_KEIL.c 0x00000000   Number         0  segger_rtt_syscalls_keil.o ABSOLUTE
    ..\..\..\..\..\..\external\segger_rtt\SEGGER_RTT_printf.c 0x00000000   Number         0  segger_rtt_printf.o ABSOLUTE
    ..\..\..\main.c                          0x00000000   Number         0  main.o ABSOLUTE
    ..\\..\\..\\..\\..\\..\\components\\ble\\ble_services\\ble_nus\\ble_nus.c 0x00000000   Number         0  ble_nus.o ABSOLUTE
    ..\\..\\..\\..\\..\\..\\components\\ble\\common\\ble_advdata.c 0x00000000   Number         0  ble_advdata.o ABSOLUTE
    ..\\..\\..\\..\\..\\..\\components\\ble\\common\\ble_conn_params.c 0x00000000   Number         0  ble_conn_params.o ABSOLUTE
    ..\\..\\..\\..\\..\\..\\components\\ble\\common\\ble_conn_state.c 0x00000000   Number         0  ble_conn_state.o ABSOLUTE
    ..\\..\\..\\..\\..\\..\\components\\ble\\common\\ble_srv_common.c 0x00000000   Number         0  ble_srv_common.o ABSOLUTE
    ..\\..\\..\\..\\..\\..\\components\\ble\\nrf_ble_gatt\\nrf_ble_gatt.c 0x00000000   Number         0  nrf_ble_gatt.o ABSOLUTE
    ..\\..\\..\\..\\..\\..\\components\\boards\\boards.c 0x00000000   Number         0  boards.o ABSOLUTE
    ..\\..\\..\\..\\..\\..\\components\\custom\\eartag_adv\\eartag_adv.c 0x00000000   Number         0  eartag_adv.o ABSOLUTE
    ..\\..\\..\\..\\..\\..\\components\\custom\\eartag_scan\\eartag_scan.c 0x00000000   Number         0  eartag_scan.o ABSOLUTE
    ..\\..\\..\\..\\..\\..\\components\\drivers_nrf\\clock\\nrf_drv_clock.c 0x00000000   Number         0  nrf_drv_clock.o ABSOLUTE
    ..\\..\\..\\..\\..\\..\\components\\drivers_nrf\\common\\nrf_drv_common.c 0x00000000   Number         0  nrf_drv_common.o ABSOLUTE
    ..\\..\\..\\..\\..\\..\\components\\drivers_nrf\\gpiote\\nrf_drv_gpiote.c 0x00000000   Number         0  nrf_drv_gpiote.o ABSOLUTE
    ..\\..\\..\\..\\..\\..\\components\\drivers_nrf\\hal\\nrf_saadc.c 0x00000000   Number         0  nrf_saadc.o ABSOLUTE
    ..\\..\\..\\..\\..\\..\\components\\drivers_nrf\\ppi\\nrf_drv_ppi.c 0x00000000   Number         0  nrf_drv_ppi.o ABSOLUTE
    ..\\..\\..\\..\\..\\..\\components\\drivers_nrf\\rtc\\nrf_drv_rtc.c 0x00000000   Number         0  nrf_drv_rtc.o ABSOLUTE
    ..\\..\\..\\..\\..\\..\\components\\drivers_nrf\\saadc\\nrf_drv_saadc.c 0x00000000   Number         0  nrf_drv_saadc.o ABSOLUTE
    ..\\..\\..\\..\\..\\..\\components\\drivers_nrf\\timer\\nrf_drv_timer.c 0x00000000   Number         0  nrf_drv_timer.o ABSOLUTE
    ..\\..\\..\\..\\..\\..\\components\\drivers_nrf\\uart\\nrf_drv_uart.c 0x00000000   Number         0  nrf_drv_uart.o ABSOLUTE
    ..\\..\\..\\..\\..\\..\\components\\libraries\\atomic_fifo\\nrf_atfifo.c 0x00000000   Number         0  nrf_atfifo.o ABSOLUTE
    ..\\..\\..\\..\\..\\..\\components\\libraries\\balloc\\nrf_balloc.c 0x00000000   Number         0  nrf_balloc.o ABSOLUTE
    ..\\..\\..\\..\\..\\..\\components\\libraries\\bsp\\bsp.c 0x00000000   Number         0  bsp.o ABSOLUTE
    ..\\..\\..\\..\\..\\..\\components\\libraries\\bsp\\bsp_btn_ble.c 0x00000000   Number         0  bsp_btn_ble.o ABSOLUTE
    ..\\..\\..\\..\\..\\..\\components\\libraries\\bsp\\bsp_nfc.c 0x00000000   Number         0  bsp_nfc.o ABSOLUTE
    ..\\..\\..\\..\\..\\..\\components\\libraries\\button\\app_button.c 0x00000000   Number         0  app_button.o ABSOLUTE
    ..\\..\\..\\..\\..\\..\\components\\libraries\\experimental_log\\src\\nrf_log_backend_rtt.c 0x00000000   Number         0  nrf_log_backend_rtt.o ABSOLUTE
    ..\\..\\..\\..\\..\\..\\components\\libraries\\experimental_log\\src\\nrf_log_backend_serial.c 0x00000000   Number         0  nrf_log_backend_serial.o ABSOLUTE
    ..\\..\\..\\..\\..\\..\\components\\libraries\\experimental_log\\src\\nrf_log_default_backends.c 0x00000000   Number         0  nrf_log_default_backends.o ABSOLUTE
    ..\\..\\..\\..\\..\\..\\components\\libraries\\experimental_log\\src\\nrf_log_frontend.c 0x00000000   Number         0  nrf_log_frontend.o ABSOLUTE
    ..\\..\\..\\..\\..\\..\\components\\libraries\\experimental_log\\src\\nrf_log_str_formatter.c 0x00000000   Number         0  nrf_log_str_formatter.o ABSOLUTE
    ..\\..\\..\\..\\..\\..\\components\\libraries\\experimental_memobj\\nrf_memobj.c 0x00000000   Number         0  nrf_memobj.o ABSOLUTE
    ..\\..\\..\\..\\..\\..\\components\\libraries\\experimental_section_vars\\nrf_section_iter.c 0x00000000   Number         0  nrf_section_iter.o ABSOLUTE
    ..\\..\\..\\..\\..\\..\\components\\libraries\\fds\\fds.c 0x00000000   Number         0  fds.o ABSOLUTE
    ..\\..\\..\\..\\..\\..\\components\\libraries\\fifo\\app_fifo.c 0x00000000   Number         0  app_fifo.o ABSOLUTE
    ..\\..\\..\\..\\..\\..\\components\\libraries\\fstorage\\nrf_fstorage_sd.c 0x00000000   Number         0  nrf_fstorage_sd.o ABSOLUTE
    ..\\..\\..\\..\\..\\..\\components\\libraries\\hardfault\\hardfault_implementation.c 0x00000000   Number         0  hardfault_implementation.o ABSOLUTE
    ..\\..\\..\\..\\..\\..\\components\\libraries\\pwr_mgmt\\nrf_pwr_mgmt.c 0x00000000   Number         0  nrf_pwr_mgmt.o ABSOLUTE
    ..\\..\\..\\..\\..\\..\\components\\libraries\\scheduler\\app_scheduler.c 0x00000000   Number         0  app_scheduler.o ABSOLUTE
    ..\\..\\..\\..\\..\\..\\components\\libraries\\strerror\\nrf_strerror.c 0x00000000   Number         0  nrf_strerror.o ABSOLUTE
    ..\\..\\..\\..\\..\\..\\components\\libraries\\timer\\app_timer.c 0x00000000   Number         0  app_timer.o ABSOLUTE
    ..\\..\\..\\..\\..\\..\\components\\libraries\\uart\\app_uart_fifo.c 0x00000000   Number         0  app_uart_fifo.o ABSOLUTE
    ..\\..\\..\\..\\..\\..\\components\\libraries\\util\\app_error.c 0x00000000   Number         0  app_error.o ABSOLUTE
    ..\\..\\..\\..\\..\\..\\components\\libraries\\util\\app_error_weak.c 0x00000000   Number         0  app_error_weak.o ABSOLUTE
    ..\\..\\..\\..\\..\\..\\components\\libraries\\util\\app_util_platform.c 0x00000000   Number         0  app_util_platform.o ABSOLUTE
    ..\\..\\..\\..\\..\\..\\components\\libraries\\util\\nrf_assert.c 0x00000000   Number         0  nrf_assert.o ABSOLUTE
    ..\\..\\..\\..\\..\\..\\components\\libraries\\util\\sdk_mapped_flags.c 0x00000000   Number         0  sdk_mapped_flags.o ABSOLUTE
    ..\\..\\..\\..\\..\\..\\components\\softdevice\\common\\nrf_sdh.c 0x00000000   Number         0  nrf_sdh.o ABSOLUTE
    ..\\..\\..\\..\\..\\..\\components\\softdevice\\common\\nrf_sdh_ble.c 0x00000000   Number         0  nrf_sdh_ble.o ABSOLUTE
    ..\\..\\..\\..\\..\\..\\components\\softdevice\\common\\nrf_sdh_soc.c 0x00000000   Number         0  nrf_sdh_soc.o ABSOLUTE
    ..\\..\\..\\..\\..\\..\\external\\fprintf\\nrf_fprintf.c 0x00000000   Number         0  nrf_fprintf.o ABSOLUTE
    ..\\..\\..\\..\\..\\..\\external\\fprintf\\nrf_fprintf_format.c 0x00000000   Number         0  nrf_fprintf_format.o ABSOLUTE
    ..\\..\\..\\..\\..\\..\\external\\segger_rtt\\SEGGER_RTT.c 0x00000000   Number         0  segger_rtt.o ABSOLUTE
    ..\\..\\..\\..\\..\\..\\external\\segger_rtt\\SEGGER_RTT_printf.c 0x00000000   Number         0  segger_rtt_printf.o ABSOLUTE
    ..\\..\\..\\main.c                       0x00000000   Number         0  main.o ABSOLUTE
    RTE\Device\nRF52840_xxAA\arm_startup_nrf52840.s 0x00000000   Number         0  arm_startup_nrf52840.o ABSOLUTE
    RTE\Device\nRF52840_xxAA\system_nrf52840.c 0x00000000   Number         0  system_nrf52840.o ABSOLUTE
    RTE\\Device\\nRF52840_xxAA\\system_nrf52840.c 0x00000000   Number         0  system_nrf52840.o ABSOLUTE
    cdcmple.s                                0x00000000   Number         0  cdcmple.o ABSOLUTE
    cdrcmple.s                               0x00000000   Number         0  cdrcmple.o ABSOLUTE
    dc.s                                     0x00000000   Number         0  dc.o ABSOLUTE
    handlers.s                               0x00000000   Number         0  handlers.o ABSOLUTE
    init.s                                   0x00000000   Number         0  init.o ABSOLUTE
    RESET                                    0x00025000   Section      512  arm_startup_nrf52840.o(RESET)
    .ARM.Collect$$$$00000000                 0x00025200   Section        0  entry.o(.ARM.Collect$$$$00000000)
    .ARM.Collect$$$$00000001                 0x00025200   Section        4  entry2.o(.ARM.Collect$$$$00000001)
    .ARM.Collect$$$$00000004                 0x00025204   Section        4  entry5.o(.ARM.Collect$$$$00000004)
    .ARM.Collect$$$$00000008                 0x00025208   Section        0  entry7b.o(.ARM.Collect$$$$00000008)
    .ARM.Collect$$$$0000000A                 0x00025208   Section        0  entry8b.o(.ARM.Collect$$$$0000000A)
    .ARM.Collect$$$$0000000B                 0x00025208   Section        8  entry9a.o(.ARM.Collect$$$$0000000B)
    .ARM.Collect$$$$0000000D                 0x00025210   Section        0  entry10a.o(.ARM.Collect$$$$0000000D)
    .ARM.Collect$$$$0000000F                 0x00025210   Section        0  entry11a.o(.ARM.Collect$$$$0000000F)
    .ARM.Collect$$$$00002712                 0x00025210   Section        4  entry2.o(.ARM.Collect$$$$00002712)
    __lit__00000000                          0x00025210   Data           4  entry2.o(.ARM.Collect$$$$00002712)
    .emb_text                                0x00025214   Section      154  nrf_memobj.o(.emb_text)
    $v0                                      0x00025214   Number         0  nrf_memobj.o(.emb_text)
    .emb_text                                0x000252b0   Section      154  nrf_log_frontend.o(.emb_text)
    $v0                                      0x000252b0   Number         0  nrf_log_frontend.o(.emb_text)
    .text                                    0x0002534c   Section        0  main.o(.text)
    nrf_delay_us                             0x0002534d   Thumb Code   146  main.o(.text)
    __sd_nvic_app_accessible_irq             0x000253df   Thumb Code    52  main.o(.text)
    __sd_nvic_is_app_accessible_priority     0x00025413   Thumb Code    28  main.o(.text)
    nrf_gpio_cfg_output                      0x0002542f   Thumb Code    60  main.o(.text)
    gap_params_init                          0x0002565b   Thumb Code   128  main.o(.text)
    services_init                            0x000256db   Thumb Code     2  main.o(.text)
    on_conn_params_evt                       0x000256dd   Thumb Code    44  main.o(.text)
    conn_params_error_handler                0x00025709   Thumb Code    22  main.o(.text)
    conn_params_init                         0x0002571f   Thumb Code   252  main.o(.text)
    ble_evt_handler                          0x0002581b   Thumb Code   492  main.o(.text)
    ble_stack_init                           0x00025a07   Thumb Code   110  main.o(.text)
    advertising_init                         0x00025b69   Thumb Code   144  main.o(.text)
    buttons_leds_init                        0x00025ce5   Thumb Code    14  main.o(.text)
    log_init                                 0x00025cf3   Thumb Code    42  main.o(.text)
    power_manage                             0x00025d1d   Thumb Code    34  main.o(.text)
    sd_nvic_EnableIRQ                        0x00025fd5   Thumb Code   124  main.o(.text)
    nrf_gpio_pin_port_decode                 0x00026051   Thumb Code    26  main.o(.text)
    nrf_gpio_pin_set                         0x0002606b   Thumb Code    26  main.o(.text)
    nrf_gpio_pin_clear                       0x00026085   Thumb Code    26  main.o(.text)
    .text                                    0x0002612c   Section        0  eartag_adv.o(.text)
    build_manufacturer_specific_data         0x0002612d   Thumb Code   106  eartag_adv.o(.text)
    notify_event                             0x00026197   Thumb Code    24  eartag_adv.o(.text)
    notify_error                             0x000261af   Thumb Code    22  eartag_adv.o(.text)
    set_coded_nonconnectable_advertising_data 0x000261c5   Thumb Code    74  eartag_adv.o(.text)
    start_coded_nonconnectable_advertising   0x0002620f   Thumb Code    34  eartag_adv.o(.text)
    set_legacy_connectable_advertising_data  0x00026231   Thumb Code    16  eartag_adv.o(.text)
    start_legacy_connectable_advertising     0x00026241   Thumb Code    34  eartag_adv.o(.text)
    apply_manu_spec_data                     0x00026263   Thumb Code    36  eartag_adv.o(.text)
    on_connected                             0x00026287   Thumb Code    20  eartag_adv.o(.text)
    on_disconnected                          0x0002629b   Thumb Code    40  eartag_adv.o(.text)
    on_timeout                               0x000262c3   Thumb Code    48  eartag_adv.o(.text)
    .text                                    0x00026614   Section        0  eartag_scan.o(.text)
    find_eartag_data                         0x00026615   Thumb Code   104  eartag_scan.o(.text)
    sort_init                                0x0002667d   Thumb Code    54  eartag_scan.o(.text)
    comp_fn                                  0x000266b3   Thumb Code    40  eartag_scan.o(.text)
    insert_entry                             0x000266db   Thumb Code   132  eartag_scan.o(.text)
    notify_results                           0x0002675f   Thumb Code    48  eartag_scan.o(.text)
    handle_error                             0x0002678f   Thumb Code    24  eartag_scan.o(.text)
    on_connected                             0x000267a7   Thumb Code     8  eartag_scan.o(.text)
    on_disconnected                          0x000267af   Thumb Code     8  eartag_scan.o(.text)
    on_adv_report                            0x000267b7   Thumb Code    56  eartag_scan.o(.text)
    scan_period_timeout_handler              0x000267ef   Thumb Code    74  eartag_scan.o(.text)
    scan_duration_timeout_handler            0x00026839   Thumb Code    40  eartag_scan.o(.text)
    .text                                    0x00026a74   Section        0  boards.o(.text)
    nrf_gpio_cfg                             0x00026a75   Thumb Code    52  boards.o(.text)
    nrf_gpio_pin_write                       0x00026aa9   Thumb Code    66  boards.o(.text)
    nrf_gpio_pin_port_decode                 0x00026c67   Thumb Code    26  boards.o(.text)
    .text                                    0x00026c8c   Section        0  bsp.o(.text)
    nrf_gpio_cfg_sense_set                   0x00026c8d   Thumb Code    62  bsp.o(.text)
    bsp_button_event_handler                 0x00026cd7   Thumb Code   176  bsp.o(.text)
    button_timer_handler                     0x00026d87   Thumb Code    14  bsp.o(.text)
    leds_off                                 0x00026d95   Thumb Code    36  bsp.o(.text)
    bsp_led_indication                       0x00026db9   Thumb Code   920  bsp.o(.text)
    leds_timer_handler                       0x00027151   Thumb Code    24  bsp.o(.text)
    alert_timer_handler                      0x00027169   Thumb Code    12  bsp.o(.text)
    .text                                    0x000272d8   Section        0  bsp_btn_ble.o(.text)
    connection_buttons_configure             0x000272d9   Thumb Code    84  bsp_btn_ble.o(.text)
    advertising_buttons_configure            0x0002732d   Thumb Code    84  bsp_btn_ble.o(.text)
    startup_event_extract                    0x00027381   Thumb Code    38  bsp_btn_ble.o(.text)
    ble_evt_handler                          0x000273d9   Thumb Code   112  bsp_btn_ble.o(.text)
    .text                                    0x00027474   Section        0  ble_conn_params.o(.text)
    instance_get                             0x00027475   Thumb Code    40  ble_conn_params.o(.text)
    is_conn_params_ok                        0x0002749d   Thumb Code   114  ble_conn_params.o(.text)
    send_error_evt                           0x0002750f   Thumb Code    20  ble_conn_params.o(.text)
    send_update_request                      0x00027523   Thumb Code    36  ble_conn_params.o(.text)
    update_timeout_handler                   0x00027547   Thumb Code   110  ble_conn_params.o(.text)
    conn_params_negotiation                  0x0002767f   Thumb Code    78  ble_conn_params.o(.text)
    on_connect                               0x000276cd   Thumb Code   102  ble_conn_params.o(.text)
    on_disconnect                            0x00027733   Thumb Code    50  ble_conn_params.o(.text)
    on_write                                 0x00027765   Thumb Code    82  ble_conn_params.o(.text)
    on_conn_params_update                    0x000277b7   Thumb Code    48  ble_conn_params.o(.text)
    ble_evt_handler                          0x000277e7   Thumb Code    64  ble_conn_params.o(.text)
    .text                                    0x00027878   Section        0  ble_conn_state.o(.text)
    record_activate                          0x00027885   Thumb Code    68  ble_conn_state.o(.text)
    record_invalidate                        0x000278c9   Thumb Code    26  ble_conn_state.o(.text)
    record_set_disconnected                  0x000278e3   Thumb Code    22  ble_conn_state.o(.text)
    record_purge_disconnected                0x000278f9   Thumb Code    62  ble_conn_state.o(.text)
    user_flag_is_acquired                    0x00027937   Thumb Code    22  ble_conn_state.o(.text)
    user_flag_acquire                        0x0002794d   Thumb Code    16  ble_conn_state.o(.text)
    ble_evt_handler                          0x00027965   Thumb Code   160  ble_conn_state.o(.text)
    .text                                    0x00027c08   Section        0  ble_srv_common.o(.text)
    set_security_req                         0x00027c7f   Thumb Code   190  ble_srv_common.o(.text)
    uint16_decode                            0x00027fc3   Thumb Code    12  ble_srv_common.o(.text)
    .text                                    0x0002800c   Section        0  nrf_ble_gatt.o(.text)
    link_init                                0x0002800d   Thumb Code    24  nrf_ble_gatt.o(.text)
    data_length_update                       0x00028025   Thumb Code    70  nrf_ble_gatt.o(.text)
    on_connected_evt                         0x0002806b   Thumb Code   122  nrf_ble_gatt.o(.text)
    on_disconnected_evt                      0x000280e5   Thumb Code    20  nrf_ble_gatt.o(.text)
    on_exchange_mtu_rsp_evt                  0x000280f9   Thumb Code    94  nrf_ble_gatt.o(.text)
    on_exchange_mtu_request_evt              0x00028157   Thumb Code   128  nrf_ble_gatt.o(.text)
    on_data_length_update_evt                0x000281d7   Thumb Code    80  nrf_ble_gatt.o(.text)
    on_data_length_update_request_evt        0x00028227   Thumb Code    88  nrf_ble_gatt.o(.text)
    .text                                    0x00028460   Section        0  ble_advdata.o(.text)
    ble_device_addr_encode                   0x00028461   Thumb Code   118  ble_advdata.o(.text)
    name_encode                              0x000284d7   Thumb Code   194  ble_advdata.o(.text)
    appearance_encode                        0x00028599   Thumb Code    82  ble_advdata.o(.text)
    flags_encode                             0x000285eb   Thumb Code    54  ble_advdata.o(.text)
    tx_power_level_encode                    0x00028621   Thumb Code    54  ble_advdata.o(.text)
    uuid_list_sized_encode                   0x00028657   Thumb Code   220  ble_advdata.o(.text)
    uuid_list_encode                         0x00028733   Thumb Code    78  ble_advdata.o(.text)
    conn_int_check                           0x00028781   Thumb Code    90  ble_advdata.o(.text)
    conn_int_encode                          0x000287db   Thumb Code   104  ble_advdata.o(.text)
    manuf_specific_data_encode               0x00028843   Thumb Code   118  ble_advdata.o(.text)
    service_data_encode                      0x000288b9   Thumb Code   150  ble_advdata.o(.text)
    advdata_check                            0x00028abb   Thumb Code    18  ble_advdata.o(.text)
    srdata_check                             0x00028acd   Thumb Code    14  ble_advdata.o(.text)
    uint16_encode                            0x00028b97   Thumb Code    12  ble_advdata.o(.text)
    .text                                    0x00028ba4   Section        0  ble_nus.o(.text)
    on_connect                               0x00028ba5   Thumb Code     6  ble_nus.o(.text)
    on_disconnect                            0x00028bab   Thumb Code     8  ble_nus.o(.text)
    on_write                                 0x00028bb3   Thumb Code   102  ble_nus.o(.text)
    tx_char_add                              0x00028c19   Thumb Code   308  ble_nus.o(.text)
    rx_char_add                              0x00028d4d   Thumb Code   238  ble_nus.o(.text)
    .text                                    0x00028f7c   Section        0  nrf_drv_clock.o(.text)
    lfclk_start                              0x00028f7d   Thumb Code    24  nrf_drv_clock.o(.text)
    lfclk_stop                               0x00028f95   Thumb Code    24  nrf_drv_clock.o(.text)
    hfclk_start                              0x00028fad   Thumb Code    36  nrf_drv_clock.o(.text)
    hfclk_stop                               0x00028fd1   Thumb Code    38  nrf_drv_clock.o(.text)
    item_enqueue                             0x00029079   Thumb Code    34  nrf_drv_clock.o(.text)
    item_dequeue                             0x0002909b   Thumb Code    12  nrf_drv_clock.o(.text)
    clock_clk_started_notify                 0x0002920f   Thumb Code    44  nrf_drv_clock.o(.text)
    soc_evt_handler                          0x00029285   Thumb Code    16  nrf_drv_clock.o(.text)
    sd_state_evt_handler                     0x00029295   Thumb Code   100  nrf_drv_clock.o(.text)
    nrf_clock_int_enable                     0x000292f9   Thumb Code     6  nrf_drv_clock.o(.text)
    nrf_clock_int_disable                    0x000292ff   Thumb Code     8  nrf_drv_clock.o(.text)
    nrf_clock_task_trigger                   0x00029307   Thumb Code     8  nrf_drv_clock.o(.text)
    nrf_clock_event_clear                    0x0002930f   Thumb Code    18  nrf_drv_clock.o(.text)
    nrf_clock_event_check                    0x00029321   Thumb Code    18  nrf_drv_clock.o(.text)
    nrf_clock_lf_is_running                  0x00029333   Thumb Code    10  nrf_drv_clock.o(.text)
    nrf_clock_hf_is_running                  0x0002933d   Thumb Code    28  nrf_drv_clock.o(.text)
    .text                                    0x0002936c   Section        0  nrf_drv_common.o(.text)
    .text                                    0x000293e8   Section        0  nrf_drv_gpiote.o(.text)
    nrf_gpio_cfg                             0x000293e9   Thumb Code    52  nrf_drv_gpiote.o(.text)
    nrf_gpio_cfg_sense_set                   0x0002941d   Thumb Code    58  nrf_drv_gpiote.o(.text)
    nrf_gpio_ports_read                      0x00029457   Thumb Code    38  nrf_drv_gpiote.o(.text)
    nrf_bitmask_bit_is_set                   0x0002947d   Thumb Code    22  nrf_drv_gpiote.o(.text)
    pin_in_use_by_te                         0x00029493   Thumb Code    26  nrf_drv_gpiote.o(.text)
    channel_port_alloc                       0x000294ad   Thumb Code   120  nrf_drv_gpiote.o(.text)
    channel_free                             0x00029525   Thumb Code    28  nrf_drv_gpiote.o(.text)
    nrf_gpiote_task_addr_get                 0x00029cc3   Thumb Code     8  nrf_drv_gpiote.o(.text)
    nrf_gpiote_event_addr_get                0x00029ccb   Thumb Code     8  nrf_drv_gpiote.o(.text)
    nrf_gpiote_event_is_set                  0x00029cd3   Thumb Code    22  nrf_drv_gpiote.o(.text)
    nrf_gpiote_event_clear                   0x00029ce9   Thumb Code    28  nrf_drv_gpiote.o(.text)
    nrf_gpiote_int_enable                    0x00029d05   Thumb Code     6  nrf_drv_gpiote.o(.text)
    nrf_gpiote_te_default                    0x00029d0b   Thumb Code    10  nrf_drv_gpiote.o(.text)
    nrf_gpio_pin_port_decode                 0x00029d15   Thumb Code    26  nrf_drv_gpiote.o(.text)
    nrf_gpio_cfg_default                     0x00029d2f   Thumb Code    24  nrf_drv_gpiote.o(.text)
    nrf_gpio_pin_set                         0x00029d47   Thumb Code    26  nrf_drv_gpiote.o(.text)
    nrf_gpio_pin_clear                       0x00029d61   Thumb Code    26  nrf_drv_gpiote.o(.text)
    nrf_gpio_pin_read                        0x00029d7b   Thumb Code    26  nrf_drv_gpiote.o(.text)
    pin_in_use_by_port                       0x00029d95   Thumb Code    18  nrf_drv_gpiote.o(.text)
    pin_in_use_by_gpiote                     0x00029da7   Thumb Code    22  nrf_drv_gpiote.o(.text)
    pin_in_use_clear                         0x00029dbd   Thumb Code     8  nrf_drv_gpiote.o(.text)
    channel_port_get                         0x00029dc5   Thumb Code     8  nrf_drv_gpiote.o(.text)
    channel_handler_get                      0x00029dcd   Thumb Code    12  nrf_drv_gpiote.o(.text)
    .text                                    0x00029dec   Section        0  nrf_saadc.o(.text)
    .text                                    0x00029e5c   Section        0  nrf_drv_saadc.o(.text)
    nrf_saadc_limit_int_get                  0x00029e5d   Thumb Code    20  nrf_drv_saadc.o(.text)
    nrf_saadc_task_trigger                   0x0002a4fd   Thumb Code     8  nrf_drv_saadc.o(.text)
    nrf_saadc_event_check                    0x0002a505   Thumb Code    16  nrf_drv_saadc.o(.text)
    nrf_saadc_event_clear                    0x0002a515   Thumb Code    18  nrf_drv_saadc.o(.text)
    nrf_saadc_channel_input_set              0x0002a527   Thumb Code    18  nrf_drv_saadc.o(.text)
    nrf_saadc_int_enable                     0x0002a539   Thumb Code     6  nrf_drv_saadc.o(.text)
    nrf_saadc_int_disable                    0x0002a53f   Thumb Code     8  nrf_drv_saadc.o(.text)
    nrf_saadc_buffer_init                    0x0002a547   Thumb Code    10  nrf_drv_saadc.o(.text)
    .text                                    0x0002a564   Section        0  app_button.o(.text)
    detection_delay_timeout_handler          0x0002a565   Thumb Code   124  app_button.o(.text)
    gpiote_event_handler                     0x0002a5e1   Thumb Code   110  app_button.o(.text)
    .text                                    0x0002a764   Section        0  app_error.o(.text)
    .text                                    0x0002a828   Section        0  app_error_weak.o(.text)
    .text                                    0x0002a998   Section        0  app_timer.o(.text)
    NVIC_SetPriority                         0x0002a999   Thumb Code    32  app_timer.o(.text)
    nrf_delay_us                             0x0002a9b9   Thumb Code   146  app_timer.o(.text)
    rtc1_init                                0x0002aa4b   Thumb Code    18  app_timer.o(.text)
    rtc1_start                               0x0002aa5d   Thumb Code    48  app_timer.o(.text)
    rtc1_stop                                0x0002aa8d   Thumb Code    70  app_timer.o(.text)
    timer_list_insert                        0x0002aad3   Thumb Code    98  app_timer.o(.text)
    timer_list_remove                        0x0002ab35   Thumb Code   118  app_timer.o(.text)
    timer_timeouts_check_sched               0x0002abab   Thumb Code    10  app_timer.o(.text)
    timer_list_handler_sched                 0x0002abb5   Thumb Code    10  app_timer.o(.text)
    timeout_handler_exec                     0x0002abbf   Thumb Code    12  app_timer.o(.text)
    timer_timeouts_check                     0x0002abcb   Thumb Code   130  app_timer.o(.text)
    elapsed_ticks_acquire                    0x0002ac4d   Thumb Code    82  app_timer.o(.text)
    expired_timers_handler                   0x0002ac9f   Thumb Code    84  app_timer.o(.text)
    list_insertions_handler                  0x0002acf3   Thumb Code   362  app_timer.o(.text)
    compare_reg_update                       0x0002ae5d   Thumb Code   132  app_timer.o(.text)
    timer_list_handler                       0x0002aee1   Thumb Code    68  app_timer.o(.text)
    user_op_enque                            0x0002af25   Thumb Code     6  app_timer.o(.text)
    user_op_alloc                            0x0002af2b   Thumb Code    56  app_timer.o(.text)
    timer_start_op_schedule                  0x0002af63   Thumb Code    94  app_timer.o(.text)
    timer_stop_op_schedule                   0x0002afc1   Thumb Code    66  app_timer.o(.text)
    NVIC_EnableIRQ                           0x0002b171   Thumb Code    22  app_timer.o(.text)
    NVIC_SetPendingIRQ                       0x0002b187   Thumb Code    18  app_timer.o(.text)
    NVIC_ClearPendingIRQ                     0x0002b199   Thumb Code    64  app_timer.o(.text)
    rtc1_counter_get                         0x0002b1d9   Thumb Code     6  app_timer.o(.text)
    ticks_diff_get                           0x0002b1df   Thumb Code    10  app_timer.o(.text)
    rtc1_compare0_set                        0x0002b1e9   Thumb Code     8  app_timer.o(.text)
    .text                                    0x0002b1f4   Section        0  app_util_platform.o(.text)
    __sd_nvic_irq_disable                    0x0002b2b7   Thumb Code    12  app_util_platform.o(.text)
    sd_nvic_critical_region_enter            0x0002b2c3   Thumb Code    90  app_util_platform.o(.text)
    .text                                    0x0002b334   Section        0  nrf_balloc.o(.text)
    nrf_balloc_idx2block                     0x0002b335   Thumb Code    12  nrf_balloc.o(.text)
    nrf_balloc_block2idx                     0x0002b341   Thumb Code    16  nrf_balloc.o(.text)
    .text                                    0x0002b40e   Section        0  nrf_fprintf.o(.text)
    .text                                    0x0002b454   Section        0  nrf_fprintf_format.o(.text)
    buffer_add                               0x0002b455   Thumb Code    32  nrf_fprintf_format.o(.text)
    string_print                             0x0002b475   Thumb Code   116  nrf_fprintf_format.o(.text)
    unsigned_print                           0x0002b4e9   Thumb Code   178  nrf_fprintf_format.o(.text)
    int_print                                0x0002b59b   Thumb Code   190  nrf_fprintf_format.o(.text)
    .text                                    0x0002b84c   Section        0  nrf_memobj.o(.text)
    memobj_op                                0x0002b961   Thumb Code   174  nrf_memobj.o(.text)
    .text                                    0x0002ba46   Section        0  nrf_section_iter.o(.text)
    nrf_section_iter_item_set                0x0002ba47   Thumb Code    46  nrf_section_iter.o(.text)
    .text                                    0x0002bab8   Section        0  nrf_strerror.o(.text)
    .text                                    0x0002bb14   Section        0  sdk_mapped_flags.o(.text)
    sdk_mapped_flags_get_by_index            0x0002bc99   Thumb Code    18  sdk_mapped_flags.o(.text)
    .text                                    0x0002bcac   Section        0  nrf_log_backend_rtt.o(.text)
    serial_tx                                0x0002bcb5   Thumb Code    62  nrf_log_backend_rtt.o(.text)
    nrf_log_backend_rtt_put                  0x0002bcf3   Thumb Code    24  nrf_log_backend_rtt.o(.text)
    nrf_log_backend_rtt_flush                0x0002bd0b   Thumb Code     2  nrf_log_backend_rtt.o(.text)
    nrf_log_backend_rtt_panic_set            0x0002bd0d   Thumb Code     2  nrf_log_backend_rtt.o(.text)
    .text                                    0x0002bd18   Section        0  nrf_log_backend_serial.o(.text)
    .text                                    0x0002be18   Section        0  nrf_log_default_backends.o(.text)
    .text                                    0x0002be3c   Section        0  nrf_log_frontend.o(.text)
    module_idx_get                           0x0002be9b   Thumb Code    56  nrf_log_frontend.o(.text)
    higher_lvl_get                           0x0002bf25   Thumb Code    34  nrf_log_frontend.o(.text)
    log_skip                                 0x0002bf77   Thumb Code   196  nrf_log_frontend.o(.text)
    buf_prealloc                             0x0002c03b   Thumb Code   140  nrf_log_frontend.o(.text)
    cont_buf_prealloc                        0x0002c0c7   Thumb Code   166  nrf_log_frontend.o(.text)
    std_n                                    0x0002c4c1   Thumb Code   106  nrf_log_frontend.o(.text)
    backend_id_assign                        0x0002c725   Thumb Code    52  nrf_log_frontend.o(.text)
    nrf_atomic_flag_set                      0x0002c7f1   Thumb Code    22  nrf_log_frontend.o(.text)
    std_header_set                           0x0002c807   Thumb Code    80  nrf_log_frontend.o(.text)
    .text                                    0x0002c85c   Section        0  nrf_log_str_formatter.o(.text)
    prefix_process                           0x0002c85d   Thumb Code    68  nrf_log_str_formatter.o(.text)
    postfix_process                          0x0002c8a1   Thumb Code    56  nrf_log_str_formatter.o(.text)
    .text                                    0x0002ca70   Section        0  segger_rtt.o(.text)
    _DoInit                                  0x0002ca71   Thumb Code    74  segger_rtt.o(.text)
    _WriteBlocking                           0x0002cabb   Thumb Code   114  segger_rtt.o(.text)
    _WriteNoCheck                            0x0002cb2d   Thumb Code    76  segger_rtt.o(.text)
    _PostTerminalSwitch                      0x0002cb79   Thumb Code    32  segger_rtt.o(.text)
    _GetAvailWriteSpace                      0x0002cb99   Thumb Code    28  segger_rtt.o(.text)
    .text                                    0x0002d574   Section        0  nrf_sdh_ble.o(.text)
    ram_end_address_get                      0x0002d6eb   Thumb Code    12  nrf_sdh_ble.o(.text)
    nrf_sdh_ble_evts_poll                    0x0002d75b   Thumb Code   100  nrf_sdh_ble.o(.text)
    .text                                    0x0002d89c   Section        0  nrf_sdh_soc.o(.text)
    nrf_sdh_soc_evts_poll                    0x0002d89d   Thumb Code    84  nrf_sdh_soc.o(.text)
    .text                                    0x0002d934   Section        0  nrf_sdh.o(.text)
    __sd_nvic_app_accessible_irq             0x0002d935   Thumb Code    52  nrf_sdh.o(.text)
    sdh_request_observer_notify              0x0002d969   Thumb Code    56  nrf_sdh.o(.text)
    sdh_state_observer_notify                0x0002d9a1   Thumb Code    48  nrf_sdh.o(.text)
    softdevices_evt_irq_enable               0x0002d9d1   Thumb Code    34  nrf_sdh.o(.text)
    softdevice_evt_irq_disable               0x0002d9f3   Thumb Code   102  nrf_sdh.o(.text)
    nrf_section_iter_get                     0x0002dbdb   Thumb Code     6  nrf_sdh.o(.text)
    sd_nvic_EnableIRQ                        0x0002dbe1   Thumb Code   142  nrf_sdh.o(.text)
    .text                                    0x0002dce0   Section       36  arm_startup_nrf52840.o(.text)
    $v0                                      0x0002dce0   Number         0  arm_startup_nrf52840.o(.text)
    .text                                    0x0002dd04   Section        0  system_nrf52840.o(.text)
    errata_136                               0x0002dd0d   Thumb Code    24  system_nrf52840.o(.text)
    errata_120                               0x0002dd25   Thumb Code    24  system_nrf52840.o(.text)
    errata_115                               0x0002dd3d   Thumb Code    24  system_nrf52840.o(.text)
    errata_103                               0x0002dd55   Thumb Code    24  system_nrf52840.o(.text)
    errata_98                                0x0002dd6d   Thumb Code    24  system_nrf52840.o(.text)
    errata_66                                0x0002dd85   Thumb Code    24  system_nrf52840.o(.text)
    errata_36                                0x0002dd9d   Thumb Code    24  system_nrf52840.o(.text)
    .text                                    0x0002dff0   Section        0  uldiv.o(.text)
    .text                                    0x0002e054   Section        0  ctype_o.o(.text)
    .text                                    0x0002e05c   Section        0  qsort.o(.text)
    .text                                    0x0002e0f8   Section        0  memcpya.o(.text)
    .text                                    0x0002e11c   Section        0  memseta.o(.text)
    .text                                    0x0002e140   Section        0  strlen.o(.text)
    .text                                    0x0002e14e   Section        0  memcmp.o(.text)
    .text                                    0x0002e168   Section        0  strcpy.o(.text)
    .text                                    0x0002e17a   Section        0  dflti.o(.text)
    .text                                    0x0002e19c   Section        0  dfixui.o(.text)
    .text                                    0x0002e1ce   Section        0  llshl.o(.text)
    .text                                    0x0002e1ec   Section        0  llushr.o(.text)
    .text                                    0x0002e20c   Section        0  depilogue.o(.text)
    .text                                    0x0002e20c   Section        0  iusefp.o(.text)
    .text                                    0x0002e2c6   Section        0  dadd.o(.text)
    .text                                    0x0002e414   Section        0  drnd.o(.text)
    .text                                    0x0002e49c   Section       48  cdcmple.o(.text)
    .text                                    0x0002e4cc   Section       48  cdrcmple.o(.text)
    .text                                    0x0002e4fc   Section       36  init.o(.text)
    .text                                    0x0002e520   Section        0  llsshr.o(.text)
    .text                                    0x0002e544   Section        0  __dczerorl2.o(.text)
    i.__0sprintf$8                           0x0002e59c   Section        0  printf8.o(i.__0sprintf$8)
    i.__hardfp_round                         0x0002e5c8   Section        0  round.o(i.__hardfp_round)
    i.__scatterload_copy                     0x0002e6a8   Section       14  handlers.o(i.__scatterload_copy)
    i.__scatterload_null                     0x0002e6b6   Section        2  handlers.o(i.__scatterload_null)
    i.__scatterload_zeroinit                 0x0002e6b8   Section       14  handlers.o(i.__scatterload_zeroinit)
    i._printf_core                           0x0002e6c8   Section        0  printf8.o(i._printf_core)
    _printf_core                             0x0002e6c9   Thumb Code   996  printf8.o(i._printf_core)
    i._printf_post_padding                   0x0002ead8   Section        0  printf8.o(i._printf_post_padding)
    _printf_post_padding                     0x0002ead9   Thumb Code    36  printf8.o(i._printf_post_padding)
    i._printf_pre_padding                    0x0002eafc   Section        0  printf8.o(i._printf_pre_padding)
    _printf_pre_padding                      0x0002eafd   Thumb Code    46  printf8.o(i._printf_pre_padding)
    i._sputc                                 0x0002eb2a   Section        0  printf8.o(i._sputc)
    _sputc                                   0x0002eb2b   Thumb Code    10  printf8.o(i._sputc)
    .constdata                               0x0002eb34   Section        9  main.o(.constdata)
    .constdata                               0x0002eb3d   Section        8  boards.o(.constdata)
    m_board_led_list                         0x0002eb3d   Data           4  boards.o(.constdata)
    m_board_btn_list                         0x0002eb41   Data           4  boards.o(.constdata)
    .constdata                               0x0002eb48   Section       44  bsp.o(.constdata)
    m_leds_timer_id                          0x0002eb48   Data           4  bsp.o(.constdata)
    m_alert_timer_id                         0x0002eb4c   Data           4  bsp.o(.constdata)
    m_button_timer_id                        0x0002eb50   Data           4  bsp.o(.constdata)
    app_buttons                              0x0002eb54   Data          32  bsp.o(.constdata)
    .constdata                               0x0002eb74   Section       22  nrf_ble_gatt.o(.constdata)
    .constdata                               0x0002eb8c   Section       32  ble_nus.o(.constdata)
    .constdata                               0x0002ebac   Section       75  nrf_drv_gpiote.o(.constdata)
    __func__                                 0x0002ebb4   Data          20  nrf_drv_gpiote.o(.constdata)
    __func__                                 0x0002ebc8   Data          24  nrf_drv_gpiote.o(.constdata)
    __func__                                 0x0002ebe0   Data          23  nrf_drv_gpiote.o(.constdata)
    .constdata                               0x0002ebf7   Section      189  nrf_drv_saadc.o(.constdata)
    m_default_config                         0x0002ebf7   Data           4  nrf_drv_saadc.o(.constdata)
    __func__                                 0x0002ebfb   Data          19  nrf_drv_saadc.o(.constdata)
    __func__                                 0x0002ec0e   Data          27  nrf_drv_saadc.o(.constdata)
    __func__                                 0x0002ec29   Data          29  nrf_drv_saadc.o(.constdata)
    __func__                                 0x0002ec46   Data          29  nrf_drv_saadc.o(.constdata)
    __func__                                 0x0002ec63   Data          29  nrf_drv_saadc.o(.constdata)
    __func__                                 0x0002ec80   Data          21  nrf_drv_saadc.o(.constdata)
    __func__                                 0x0002ec95   Data          31  nrf_drv_saadc.o(.constdata)
    .constdata                               0x0002ecb4   Section        8  app_button.o(.constdata)
    m_detection_delay_timer_id               0x0002ecb4   Data           4  app_button.o(.constdata)
    .constdata                               0x0002ecbc   Section       16  nrf_fprintf_format.o(.constdata)
    _aV2C                                    0x0002ecbc   Data          16  nrf_fprintf_format.o(.constdata)
    .constdata                               0x0002eccc   Section      260  nrf_strerror.o(.constdata)
    m_unknown_str                            0x0002eccc   Data          19  nrf_strerror.o(.constdata)
    nrf_strerror_array                       0x0002ece0   Data         240  nrf_strerror.o(.constdata)
    .constdata                               0x0002edd0   Section       12  nrf_log_backend_rtt.o(.constdata)
    .constdata                               0x0002eddc   Section       20  nrf_log_frontend.o(.constdata)
    mempool                                  0x0002eddc   Data          20  nrf_log_frontend.o(.constdata)
    .constdata                               0x0002edf0   Section       48  nrf_sdh_ble.o(.constdata)
    sdh_ble_observers_array                  0x0002edf0   Data          32  nrf_sdh_ble.o(.constdata)
    sdh_ble_observers                        0x0002ee10   Data          12  nrf_sdh_ble.o(.constdata)
    .constdata                               0x0002ee20   Section       28  nrf_sdh_soc.o(.constdata)
    sdh_soc_observers_array                  0x0002ee20   Data          16  nrf_sdh_soc.o(.constdata)
    sdh_soc_observers                        0x0002ee30   Data          12  nrf_sdh_soc.o(.constdata)
    .constdata                               0x0002ee3c   Section       88  nrf_sdh.o(.constdata)
    sdh_req_observers_array                  0x0002ee3c   Data          16  nrf_sdh.o(.constdata)
    sdh_req_observers                        0x0002ee4c   Data          12  nrf_sdh.o(.constdata)
    sdh_state_observers_array                0x0002ee58   Data          16  nrf_sdh.o(.constdata)
    sdh_state_observers                      0x0002ee68   Data          12  nrf_sdh.o(.constdata)
    sdh_stack_observers_array                0x0002ee74   Data          16  nrf_sdh.o(.constdata)
    sdh_stack_observers                      0x0002ee84   Data          12  nrf_sdh.o(.constdata)
    .constdata                               0x0002ee94   Section      129  ctype_o.o(.constdata)
    .constdata                               0x0002ef18   Section        4  ctype_o.o(.constdata)
    table                                    0x0002ef18   Data           4  ctype_o.o(.constdata)
    .conststring                             0x0002ef1c   Section      301  nrf_ble_gatt.o(.conststring)
    .conststring                             0x0002f04c   Section      775  nrf_strerror.o(.conststring)
    .conststring                             0x0002f354   Section        9  nrf_log_frontend.o(.conststring)
    .conststring                             0x0002f360   Section      102  nrf_log_str_formatter.o(.conststring)
    .conststring                             0x0002f3c8   Section      463  nrf_sdh_ble.o(.conststring)
    .conststrlit                             0x0002f598   Section        9  nrf_ble_gatt.o(.conststrlit)
    .conststrlit                             0x0002f5a4   Section        6  nrf_drv_clock.o(.conststrlit)
    .conststrlit                             0x0002f5ac   Section        7  nrf_drv_gpiote.o(.conststrlit)
    .conststrlit                             0x0002f5b4   Section        6  nrf_drv_saadc.o(.conststrlit)
    .conststrlit                             0x0002f5bc   Section        4  nrf_drv_ppi.o(.conststrlit)
    .conststrlit                             0x0002f5c0   Section        7  nrf_balloc.o(.conststrlit)
    .conststrlit                             0x0002f5c8   Section        9  nrf_pwr_mgmt.o(.conststrlit)
    .conststrlit                             0x0002f5d4   Section        4  nrf_log_frontend.o(.conststrlit)
    .conststrlit                             0x0002f5d8   Section       12  nrf_sdh_ble.o(.conststrlit)
    .conststrlit                             0x0002f5e4   Section       12  nrf_sdh_soc.o(.conststrlit)
    .conststrlit                             0x0002f5f0   Section        8  nrf_sdh.o(.conststrlit)
    log_const_data                           0x0002f618   Section        8  nrf_ble_gatt.o(log_const_data)
    __tagsym$$used                           0x0002f618   Number         0  nrf_ble_gatt.o(log_const_data)
    log_const_data                           0x0002f620   Section        8  nrf_drv_clock.o(log_const_data)
    __tagsym$$used                           0x0002f620   Number         0  nrf_drv_clock.o(log_const_data)
    log_const_data                           0x0002f628   Section        8  nrf_drv_gpiote.o(log_const_data)
    __tagsym$$used                           0x0002f628   Number         0  nrf_drv_gpiote.o(log_const_data)
    log_const_data                           0x0002f630   Section        8  nrf_drv_saadc.o(log_const_data)
    __tagsym$$used                           0x0002f630   Number         0  nrf_drv_saadc.o(log_const_data)
    log_const_data                           0x0002f638   Section        8  nrf_drv_ppi.o(log_const_data)
    __tagsym$$used                           0x0002f638   Number         0  nrf_drv_ppi.o(log_const_data)
    log_const_data                           0x0002f640   Section        8  nrf_balloc.o(log_const_data)
    __tagsym$$used                           0x0002f640   Number         0  nrf_balloc.o(log_const_data)
    log_const_data                           0x0002f648   Section        8  nrf_pwr_mgmt.o(log_const_data)
    __tagsym$$used                           0x0002f648   Number         0  nrf_pwr_mgmt.o(log_const_data)
    log_const_data                           0x0002f650   Section        8  nrf_log_frontend.o(log_const_data)
    __tagsym$$used                           0x0002f650   Number         0  nrf_log_frontend.o(log_const_data)
    log_const_data                           0x0002f658   Section        8  nrf_sdh_ble.o(log_const_data)
    __tagsym$$used                           0x0002f658   Number         0  nrf_sdh_ble.o(log_const_data)
    log_const_data                           0x0002f660   Section        8  nrf_sdh_soc.o(log_const_data)
    __tagsym$$used                           0x0002f660   Number         0  nrf_sdh_soc.o(log_const_data)
    log_const_data                           0x0002f668   Section        8  nrf_sdh.o(log_const_data)
    __tagsym$$used                           0x0002f668   Number         0  nrf_sdh.o(log_const_data)
    sdh_ble_observers0                       0x0002f670   Section        8  ble_conn_state.o(sdh_ble_observers0)
    __tagsym$$used                           0x0002f670   Number         0  ble_conn_state.o(sdh_ble_observers0)
    m_ble_evt_observer                       0x0002f670   Data           8  ble_conn_state.o(sdh_ble_observers0)
    sdh_ble_observers1                       0x0002f678   Section       24  main.o(sdh_ble_observers1)
    __tagsym$$used                           0x0002f678   Number         0  main.o(sdh_ble_observers1)
    m_gatt_obs                               0x0002f678   Data           8  main.o(sdh_ble_observers1)
    __tagsym$$used                           0x0002f680   Number         0  main.o(sdh_ble_observers1)
    m_adv_ble_obs                            0x0002f680   Data           8  main.o(sdh_ble_observers1)
    __tagsym$$used                           0x0002f688   Number         0  main.o(sdh_ble_observers1)
    m_scan_ble_obs                           0x0002f688   Data           8  main.o(sdh_ble_observers1)
    sdh_ble_observers1                       0x0002f690   Section        8  bsp_btn_ble.o(sdh_ble_observers1)
    __tagsym$$used                           0x0002f690   Number         0  bsp_btn_ble.o(sdh_ble_observers1)
    m_ble_observer                           0x0002f690   Data           8  bsp_btn_ble.o(sdh_ble_observers1)
    sdh_ble_observers1                       0x0002f698   Section        8  ble_conn_params.o(sdh_ble_observers1)
    __tagsym$$used                           0x0002f698   Number         0  ble_conn_params.o(sdh_ble_observers1)
    m_ble_observer                           0x0002f698   Data           8  ble_conn_params.o(sdh_ble_observers1)
    sdh_ble_observers2                       0x0002f6a0   Section        8  main.o(sdh_ble_observers2)
    __tagsym$$used                           0x0002f6a0   Number         0  main.o(sdh_ble_observers2)
    m_nus_obs                                0x0002f6a0   Data           8  main.o(sdh_ble_observers2)
    sdh_ble_observers3                       0x0002f6a8   Section        8  main.o(sdh_ble_observers3)
    __tagsym$$used                           0x0002f6a8   Number         0  main.o(sdh_ble_observers3)
    m_ble_observer                           0x0002f6a8   Data           8  main.o(sdh_ble_observers3)
    sdh_soc_observers0                       0x0002f6b0   Section        8  nrf_drv_clock.o(sdh_soc_observers0)
    __tagsym$$used                           0x0002f6b0   Number         0  nrf_drv_clock.o(sdh_soc_observers0)
    m_soc_evt_observer                       0x0002f6b0   Data           8  nrf_drv_clock.o(sdh_soc_observers0)
    sdh_soc_observers1                       0x0002f6b8   Section        8  main.o(sdh_soc_observers1)
    __tagsym$$used                           0x0002f6b8   Number         0  main.o(sdh_soc_observers1)
    m_adv_soc_obs                            0x0002f6b8   Data           8  main.o(sdh_soc_observers1)
    sdh_stack_observers0                     0x0002f6c0   Section        8  nrf_sdh_ble.o(sdh_stack_observers0)
    __tagsym$$used                           0x0002f6c0   Number         0  nrf_sdh_ble.o(sdh_stack_observers0)
    m_nrf_sdh_ble_evts_poll                  0x0002f6c0   Data           8  nrf_sdh_ble.o(sdh_stack_observers0)
    sdh_stack_observers0                     0x0002f6c8   Section        8  nrf_sdh_soc.o(sdh_stack_observers0)
    __tagsym$$used                           0x0002f6c8   Number         0  nrf_sdh_soc.o(sdh_stack_observers0)
    m_nrf_sdh_soc_evts_poll                  0x0002f6c8   Data           8  nrf_sdh_soc.o(sdh_stack_observers0)
    sdh_state_observers0                     0x0002f6d0   Section        8  nrf_drv_clock.o(sdh_state_observers0)
    __tagsym$$used                           0x0002f6d0   Number         0  nrf_drv_clock.o(sdh_state_observers0)
    m_sd_state_observer                      0x0002f6d0   Data           8  nrf_drv_clock.o(sdh_state_observers0)
    .data                                    0x20002a18   Section       16  main.o(.data)
    m_conn_handle                            0x20002a18   Data           2  main.o(.data)
    m_ble_nus_max_data_len                   0x20002a1a   Data           2  main.o(.data)
    m_adv_uuids                              0x20002a1c   Data           4  main.o(.data)
    battcount                                0x20002a20   Data           1  main.o(.data)
    m_buffer_pool                            0x20002a22   Data           4  main.o(.data)
    voltage                                  0x20002a26   Data           1  main.o(.data)
    .data                                    0x20002a28   Section       21  bsp.o(.data)
    m_stable_state                           0x20002a28   Data           1  bsp.o(.data)
    m_leds_clear                             0x20002a29   Data           1  bsp.o(.data)
    m_indication_type                        0x20002a2c   Data           4  bsp.o(.data)
    m_alert_on                               0x20002a30   Data           1  bsp.o(.data)
    m_registered_callback                    0x20002a34   Data           4  bsp.o(.data)
    current_long_push_pin_no                 0x20002a38   Data           1  bsp.o(.data)
    release_event_at_push                    0x20002a39   Data           4  bsp.o(.data)
    .data                                    0x20002a40   Section        8  bsp_btn_ble.o(.data)
    m_error_handler                          0x20002a40   Data           4  bsp_btn_ble.o(.data)
    m_num_connections                        0x20002a44   Data           4  bsp_btn_ble.o(.data)
    .data                                    0x20002a48   Section        8  ble_conn_params.o(.data)
    m_preferred_conn_params                  0x20002a48   Data           8  ble_conn_params.o(.data)
    .data                                    0x20002a50   Section       20  app_button.o(.data)
    mp_buttons                               0x20002a50   Data           4  app_button.o(.data)
    m_button_count                           0x20002a54   Data           1  app_button.o(.data)
    m_detection_delay                        0x20002a58   Data           4  app_button.o(.data)
    m_pin_state                              0x20002a5c   Data           4  app_button.o(.data)
    m_pin_transition                         0x20002a60   Data           4  app_button.o(.data)
    .data                                    0x20002a64   Section       20  app_timer.o(.data)
    mp_timer_id_head                         0x20002a64   Data           4  app_timer.o(.data)
    m_ticks_latest                           0x20002a68   Data           4  app_timer.o(.data)
    m_ticks_elapsed                          0x20002a6c   Data           8  app_timer.o(.data)
    m_ticks_elapsed_q_read_ind               0x20002a74   Data           1  app_timer.o(.data)
    m_ticks_elapsed_q_write_ind              0x20002a75   Data           1  app_timer.o(.data)
    m_rtc1_running                           0x20002a76   Data           1  app_timer.o(.data)
    m_rtc1_reset                             0x20002a77   Data           1  app_timer.o(.data)
    .data                                    0x20002a78   Section        4  app_util_platform.o(.data)
    m_in_critical_region                     0x20002a78   Data           4  app_util_platform.o(.data)
    .data                                    0x20002a7c   Section       12  nrf_log_default_backends.o(.data)
    rtt_log_backend                          0x20002a7c   Data          12  nrf_log_default_backends.o(.data)
    .data                                    0x20002a88   Section       20  nrf_log_frontend.o(.data)
    mempool_nrf_balloc_pool_stack            0x20002a88   Data           8  nrf_log_frontend.o(.data)
    mempool_nrf_balloc_cb                    0x20002a90   Data           8  nrf_log_frontend.o(.data)
    m_overflow_info                          0x20002a98   Data           4  nrf_log_frontend.o(.data)
    .data                                    0x20002a9c   Section       56  nrf_log_str_formatter.o(.data)
    severity_names                           0x20002a9c   Data          20  nrf_log_str_formatter.o(.data)
    m_colors                                 0x20002ab0   Data          36  nrf_log_str_formatter.o(.data)
    .data                                    0x20002ad4   Section       17  segger_rtt.o(.data)
    _aTerminalId                             0x20002ad4   Data          16  segger_rtt.o(.data)
    _ActiveTerminal                          0x20002ae4   Data           1  segger_rtt.o(.data)
    .data                                    0x20002ae5   Section        3  nrf_sdh.o(.data)
    m_nrf_sdh_enabled                        0x20002ae5   Data           1  nrf_sdh.o(.data)
    m_nrf_sdh_suspended                      0x20002ae6   Data           1  nrf_sdh.o(.data)
    m_nrf_sdh_continue                       0x20002ae7   Data           1  nrf_sdh.o(.data)
    .data                                    0x20002ae8   Section        4  system_nrf52840.o(.data)
    __tagsym$$used                           0x20002ae8   Number         0  system_nrf52840.o(.data)
    log_dynamic_data                         0x20002aec   Section       12  nrf_ble_gatt.o(log_dynamic_data)
    __tagsym$$used                           0x20002aec   Number         0  nrf_ble_gatt.o(log_dynamic_data)
    log_dynamic_data                         0x20002af8   Section       12  nrf_drv_clock.o(log_dynamic_data)
    __tagsym$$used                           0x20002af8   Number         0  nrf_drv_clock.o(log_dynamic_data)
    log_dynamic_data                         0x20002b04   Section       12  nrf_drv_gpiote.o(log_dynamic_data)
    __tagsym$$used                           0x20002b04   Number         0  nrf_drv_gpiote.o(log_dynamic_data)
    log_dynamic_data                         0x20002b10   Section       12  nrf_drv_saadc.o(log_dynamic_data)
    __tagsym$$used                           0x20002b10   Number         0  nrf_drv_saadc.o(log_dynamic_data)
    log_dynamic_data                         0x20002b1c   Section       12  nrf_drv_ppi.o(log_dynamic_data)
    __tagsym$$used                           0x20002b1c   Number         0  nrf_drv_ppi.o(log_dynamic_data)
    log_dynamic_data                         0x20002b28   Section       12  nrf_balloc.o(log_dynamic_data)
    __tagsym$$used                           0x20002b28   Number         0  nrf_balloc.o(log_dynamic_data)
    log_dynamic_data                         0x20002b34   Section       12  nrf_pwr_mgmt.o(log_dynamic_data)
    __tagsym$$used                           0x20002b34   Number         0  nrf_pwr_mgmt.o(log_dynamic_data)
    log_dynamic_data                         0x20002b40   Section       12  nrf_log_frontend.o(log_dynamic_data)
    __tagsym$$used                           0x20002b40   Number         0  nrf_log_frontend.o(log_dynamic_data)
    log_dynamic_data                         0x20002b4c   Section       12  nrf_sdh_ble.o(log_dynamic_data)
    __tagsym$$used                           0x20002b4c   Number         0  nrf_sdh_ble.o(log_dynamic_data)
    log_dynamic_data                         0x20002b58   Section       12  nrf_sdh_soc.o(log_dynamic_data)
    __tagsym$$used                           0x20002b58   Number         0  nrf_sdh_soc.o(log_dynamic_data)
    log_dynamic_data                         0x20002b64   Section       12  nrf_sdh.o(log_dynamic_data)
    __tagsym$$used                           0x20002b64   Number         0  nrf_sdh.o(log_dynamic_data)
    .bss                                     0x20002b70   Section     3000  main.o(.bss)
    m_nus                                    0x20002b70   Data          28  main.o(.bss)
    m_gatt                                   0x20002b8c   Data          20  main.o(.bss)
    m_adv                                    0x20002ba0   Data         228  main.o(.bss)
    m_scan                                   0x20002c84   Data         276  main.o(.bss)
    .bss                                     0x20003728   Section      108  bsp.o(.bss)
    m_leds_timer_id_data                     0x20003728   Data          32  bsp.o(.bss)
    m_alert_timer_id_data                    0x20003748   Data          32  bsp.o(.bss)
    m_events_list                            0x20003768   Data          12  bsp.o(.bss)
    m_button_timer_id_data                   0x20003774   Data          32  bsp.o(.bss)
    .bss                                     0x20003794   Section       80  ble_conn_params.o(.bss)
    m_timer_data                             0x20003794   Data          32  ble_conn_params.o(.bss)
    m_conn_params_instances                  0x200037b4   Data          20  ble_conn_params.o(.bss)
    m_conn_params_config                     0x200037c8   Data          28  ble_conn_params.o(.bss)
    .bss                                     0x200037e4   Section      184  ble_conn_state.o(.bss)
    m_bcs                                    0x200037e4   Data         184  ble_conn_state.o(.bss)
    .bss                                     0x2000389c   Section       20  nrf_drv_clock.o(.bss)
    m_clock_cb                               0x2000389c   Data          20  nrf_drv_clock.o(.bss)
    .bss                                     0x200038b0   Section      104  nrf_drv_gpiote.o(.bss)
    m_cb                                     0x200038b0   Data         104  nrf_drv_gpiote.o(.bss)
    .bss                                     0x20003918   Section       48  nrf_drv_saadc.o(.bss)
    m_cb                                     0x20003918   Data          48  nrf_drv_saadc.o(.bss)
    .bss                                     0x20003948   Section       32  app_button.o(.bss)
    m_detection_delay_timer_id_data          0x20003948   Data          32  app_button.o(.bss)
    .bss                                     0x20003968   Section       32  app_error.o(.bss)
    m_error_data                             0x20003968   Data          32  app_error.o(.bss)
    .bss                                     0x20003988   Section      268  app_timer.o(.bss)
    m_op_queue                               0x20003988   Data         268  app_timer.o(.bss)
    .bss                                     0x20003a94   Section       12  app_util_platform.o(.bss)
    .bss                                     0x20003aa0   Section       64  nrf_log_backend_rtt.o(.bss)
    m_string_buff                            0x20003aa0   Data          64  nrf_log_backend_rtt.o(.bss)
    .bss                                     0x20003ae0   Section     1248  nrf_log_frontend.o(.bss)
    mempool_nrf_balloc_pool_mem              0x20003ae0   Data         192  nrf_log_frontend.o(.bss)
    m_log_data                               0x20003ba0   Data        1056  nrf_log_frontend.o(.bss)
    .bss                                     0x20003fc0   Section     2184  segger_rtt.o(.bss)
    _acUpBuffer                              0x20004038   Data        2048  segger_rtt.o(.bss)
    _acDownBuffer                            0x20004838   Data          16  segger_rtt.o(.bss)
    STACK                                    0x20004848   Section     8192  arm_startup_nrf52840.o(STACK)

    Global Symbols

    Symbol Name                              Value     Ov Type        Size  Object(Section)

    BuildAttributes$$THM_ISAv4$E$P$D$K$B$S$7EM$VFPi3$EXTD16$VFPS$VFMA$PE$A:L22UL41UL21$X:L11$S22US41US21$IEEE1$IW$USESV6$~STKCKD$USESV7$~SHL$OTIME$ROPI$IEEEJ$EBA8$MICROLIB$REQ8$PRES8$EABIv2 0x00000000   Number         0  anon$$obj.o ABSOLUTE
    __ARM_use_no_argv                        0x00000000   Number         0  main.o ABSOLUTE
    _printf_a                                0x00000000   Number         0  stubs.o ABSOLUTE
    _printf_c                                0x00000000   Number         0  stubs.o ABSOLUTE
    _printf_charcount                        0x00000000   Number         0  stubs.o ABSOLUTE
    _printf_d                                0x00000000   Number         0  stubs.o ABSOLUTE
    _printf_e                                0x00000000   Number         0  stubs.o ABSOLUTE
    _printf_f                                0x00000000   Number         0  stubs.o ABSOLUTE
    _printf_flags                            0x00000000   Number         0  stubs.o ABSOLUTE
    _printf_fp_dec                           0x00000000   Number         0  stubs.o ABSOLUTE
    _printf_fp_hex                           0x00000000   Number         0  stubs.o ABSOLUTE
    _printf_g                                0x00000000   Number         0  stubs.o ABSOLUTE
    _printf_i                                0x00000000   Number         0  stubs.o ABSOLUTE
    _printf_int_dec                          0x00000000   Number         0  stubs.o ABSOLUTE
    _printf_l                                0x00000000   Number         0  stubs.o ABSOLUTE
    _printf_lc                               0x00000000   Number         0  stubs.o ABSOLUTE
    _printf_ll                               0x00000000   Number         0  stubs.o ABSOLUTE
    _printf_lld                              0x00000000   Number         0  stubs.o ABSOLUTE
    _printf_lli                              0x00000000   Number         0  stubs.o ABSOLUTE
    _printf_llo                              0x00000000   Number         0  stubs.o ABSOLUTE
    _printf_llu                              0x00000000   Number         0  stubs.o ABSOLUTE
    _printf_llx                              0x00000000   Number         0  stubs.o ABSOLUTE
    _printf_longlong_dec                     0x00000000   Number         0  stubs.o ABSOLUTE
    _printf_longlong_hex                     0x00000000   Number         0  stubs.o ABSOLUTE
    _printf_longlong_oct                     0x00000000   Number         0  stubs.o ABSOLUTE
    _printf_ls                               0x00000000   Number         0  stubs.o ABSOLUTE
    _printf_mbtowc                           0x00000000   Number         0  stubs.o ABSOLUTE
    _printf_n                                0x00000000   Number         0  stubs.o ABSOLUTE
    _printf_o                                0x00000000   Number         0  stubs.o ABSOLUTE
    _printf_p                                0x00000000   Number         0  stubs.o ABSOLUTE
    _printf_percent                          0x00000000   Number         0  stubs.o ABSOLUTE
    _printf_pre_padding                      0x00000000   Number         0  stubs.o ABSOLUTE
    _printf_return_value                     0x00000000   Number         0  stubs.o ABSOLUTE
    _printf_s                                0x00000000   Number         0  stubs.o ABSOLUTE
    _printf_sizespec                         0x00000000   Number         0  stubs.o ABSOLUTE
    _printf_str                              0x00000000   Number         0  stubs.o ABSOLUTE
    _printf_truncate_signed                  0x00000000   Number         0  stubs.o ABSOLUTE
    _printf_truncate_unsigned                0x00000000   Number         0  stubs.o ABSOLUTE
    _printf_u                                0x00000000   Number         0  stubs.o ABSOLUTE
    _printf_wc                               0x00000000   Number         0  stubs.o ABSOLUTE
    _printf_wctomb                           0x00000000   Number         0  stubs.o ABSOLUTE
    _printf_widthprec                        0x00000000   Number         0  stubs.o ABSOLUTE
    _printf_x                                0x00000000   Number         0  stubs.o ABSOLUTE
    __cpp_initialize__aeabi_                  - Undefined Weak Reference
    __cxa_finalize                            - Undefined Weak Reference
    _clock_init                               - Undefined Weak Reference
    _microlib_exit                            - Undefined Weak Reference
    pwr_mgmt_data0$$Base                      - Undefined Reference
    pwr_mgmt_data0$$Limit                     - Undefined Reference
    pwr_mgmt_data1$$Base                      - Undefined Reference
    pwr_mgmt_data1$$Limit                     - Undefined Reference
    pwr_mgmt_data2$$Base                      - Undefined Reference
    pwr_mgmt_data2$$Limit                     - Undefined Reference
    sdh_req_observers0$$Base                  - Undefined Reference
    sdh_req_observers0$$Limit                 - Undefined Reference
    sdh_req_observers1$$Base                  - Undefined Reference
    sdh_req_observers1$$Limit                 - Undefined Reference
    sdh_stack_observers1$$Base                - Undefined Reference
    sdh_stack_observers1$$Limit               - Undefined Reference
    sdh_state_observers1$$Base                - Undefined Reference
    sdh_state_observers1$$Limit               - Undefined Reference
    __Vectors_Size                           0x00000200   Number         0  arm_startup_nrf52840.o ABSOLUTE
    __Vectors                                0x00025000   Data           4  arm_startup_nrf52840.o(RESET)
    __Vectors_End                            0x00025200   Data           0  arm_startup_nrf52840.o(RESET)
    __main                                   0x00025201   Thumb Code     0  entry.o(.ARM.Collect$$$$00000000)
    _main_stk                                0x00025201   Thumb Code     0  entry2.o(.ARM.Collect$$$$00000001)
    _main_scatterload                        0x00025205   Thumb Code     0  entry5.o(.ARM.Collect$$$$00000004)
    __main_after_scatterload                 0x00025209   Thumb Code     0  entry5.o(.ARM.Collect$$$$00000004)
    _main_clock                              0x00025209   Thumb Code     0  entry7b.o(.ARM.Collect$$$$00000008)
    _main_cpp_init                           0x00025209   Thumb Code     0  entry8b.o(.ARM.Collect$$$$0000000A)
    _main_init                               0x00025209   Thumb Code     0  entry9a.o(.ARM.Collect$$$$0000000B)
    __rt_final_cpp                           0x00025211   Thumb Code     0  entry10a.o(.ARM.Collect$$$$0000000D)
    __rt_final_exit                          0x00025211   Thumb Code     0  entry11a.o(.ARM.Collect$$$$0000000F)
    __asm___12_nrf_memobj_c_9bb9f865__nrf_atomic_internal_mov 0x00025215   Thumb Code    24  nrf_memobj.o(.emb_text)
    __asm___12_nrf_memobj_c_9bb9f865__nrf_atomic_internal_orr 0x0002522d   Thumb Code    26  nrf_memobj.o(.emb_text)
    __asm___12_nrf_memobj_c_9bb9f865__nrf_atomic_internal_and 0x00025247   Thumb Code    26  nrf_memobj.o(.emb_text)
    __asm___12_nrf_memobj_c_9bb9f865__nrf_atomic_internal_eor 0x00025261   Thumb Code    26  nrf_memobj.o(.emb_text)
    __asm___12_nrf_memobj_c_9bb9f865__nrf_atomic_internal_add 0x0002527b   Thumb Code    26  nrf_memobj.o(.emb_text)
    __asm___12_nrf_memobj_c_9bb9f865__nrf_atomic_internal_sub 0x00025295   Thumb Code    26  nrf_memobj.o(.emb_text)
    __asm___18_nrf_log_frontend_c_bc460776__nrf_atomic_internal_mov 0x000252b1   Thumb Code    24  nrf_log_frontend.o(.emb_text)
    __asm___18_nrf_log_frontend_c_bc460776__nrf_atomic_internal_orr 0x000252c9   Thumb Code    26  nrf_log_frontend.o(.emb_text)
    __asm___18_nrf_log_frontend_c_bc460776__nrf_atomic_internal_and 0x000252e3   Thumb Code    26  nrf_log_frontend.o(.emb_text)
    __asm___18_nrf_log_frontend_c_bc460776__nrf_atomic_internal_eor 0x000252fd   Thumb Code    26  nrf_log_frontend.o(.emb_text)
    __asm___18_nrf_log_frontend_c_bc460776__nrf_atomic_internal_add 0x00025317   Thumb Code    26  nrf_log_frontend.o(.emb_text)
    __asm___18_nrf_log_frontend_c_bc460776__nrf_atomic_internal_sub 0x00025331   Thumb Code    26  nrf_log_frontend.o(.emb_text)
    saadc_callback                           0x0002546b   Thumb Code   248  main.o(.text)
    saadc_init                               0x00025563   Thumb Code   230  main.o(.text)
    assert_nrf_callback                      0x00025649   Thumb Code    18  main.o(.text)
    gatt_evt_handler                         0x00025a75   Thumb Code    58  main.o(.text)
    gatt_init                                0x00025aaf   Thumb Code    78  main.o(.text)
    eartag_adv_evt_handler                   0x00025afd   Thumb Code    76  main.o(.text)
    eartag_adv_error_handler                 0x00025b49   Thumb Code    32  main.o(.text)
    eartag_scan_error_handler                0x00025bf9   Thumb Code    32  main.o(.text)
    eartag_file_error_handler                0x00025c19   Thumb Code   204  main.o(.text)
    sky66114_ctrl                            0x00025d3f   Thumb Code    74  main.o(.text)
    radio_notification_init                  0x00025d89   Thumb Code   160  main.o(.text)
    SWI1_EGU1_IRQHandler                     0x00025e29   Thumb Code   110  main.o(.text)
    main                                     0x00025e97   Thumb Code   318  main.o(.text)
    eartag_adv_conn_cfg_tag_set              0x000262f3   Thumb Code    24  eartag_adv.o(.text)
    eartag_adv_init                          0x0002630b   Thumb Code   232  eartag_adv.o(.text)
    eartag_adv_start_coded_nonconnectable    0x000263f3   Thumb Code   118  eartag_adv.o(.text)
    eartag_adv_start_legacy                  0x00026469   Thumb Code   118  eartag_adv.o(.text)
    eartag_adv_on_ble_evt                    0x000264df   Thumb Code    88  eartag_adv.o(.text)
    eartag_adv_on_sys_evt                    0x00026537   Thumb Code   134  eartag_adv.o(.text)
    eartag_adv_set_batt_lv                   0x000265bd   Thumb Code    48  eartag_adv.o(.text)
    eartag_adv_set_temperature               0x000265ed   Thumb Code    40  eartag_adv.o(.text)
    eartag_scan_init                         0x00026861   Thumb Code   178  eartag_scan.o(.text)
    eartag_scan_start                        0x00026913   Thumb Code   126  eartag_scan.o(.text)
    eartag_scan_stop                         0x00026991   Thumb Code   128  eartag_scan.o(.text)
    eartag_scan_on_ble_evt                   0x00026a11   Thumb Code    88  eartag_scan.o(.text)
    bsp_board_led_state_get                  0x00026aeb   Thumb Code    48  boards.o(.text)
    bsp_board_led_on                         0x00026b1b   Thumb Code    16  boards.o(.text)
    bsp_board_led_off                        0x00026b2b   Thumb Code    16  boards.o(.text)
    bsp_board_leds_off                       0x00026b3b   Thumb Code    20  boards.o(.text)
    bsp_board_leds_on                        0x00026b4f   Thumb Code    20  boards.o(.text)
    bsp_board_led_invert                     0x00026b63   Thumb Code    50  boards.o(.text)
    bsp_board_leds_init                      0x00026b95   Thumb Code    42  boards.o(.text)
    bsp_board_led_idx_to_pin                 0x00026bbf   Thumb Code     8  boards.o(.text)
    bsp_board_pin_to_led_idx                 0x00026bc7   Thumb Code    32  boards.o(.text)
    bsp_board_button_state_get               0x00026be7   Thumb Code    48  boards.o(.text)
    bsp_board_buttons_init                   0x00026c17   Thumb Code    40  boards.o(.text)
    bsp_board_pin_to_button_idx              0x00026c3f   Thumb Code    32  boards.o(.text)
    bsp_board_button_idx_to_pin              0x00026c5f   Thumb Code     8  boards.o(.text)
    bsp_button_is_pressed                    0x00026ccb   Thumb Code    12  bsp.o(.text)
    bsp_indication_set                       0x00027175   Thumb Code    28  bsp.o(.text)
    bsp_event_to_button_action_assign        0x00027191   Thumb Code    86  bsp.o(.text)
    bsp_init                                 0x000271e7   Thumb Code   134  bsp.o(.text)
    bsp_buttons_enable                       0x0002726d   Thumb Code     8  bsp.o(.text)
    bsp_buttons_disable                      0x00027275   Thumb Code     8  bsp.o(.text)
    bsp_wakeup_button_enable                 0x0002727d   Thumb Code    22  bsp.o(.text)
    bsp_wakeup_button_disable                0x00027293   Thumb Code    22  bsp.o(.text)
    bsp_btn_ble_sleep_mode_prepare           0x000273a7   Thumb Code    50  bsp_btn_ble.o(.text)
    bsp_btn_ble_init                         0x00027449   Thumb Code    36  bsp_btn_ble.o(.text)
    ble_conn_params_init                     0x000275b5   Thumb Code   136  ble_conn_params.o(.text)
    ble_conn_params_stop                     0x0002763d   Thumb Code    66  ble_conn_params.o(.text)
    ble_conn_params_change_conn_params       0x00027827   Thumb Code    82  ble_conn_params.o(.text)
    bcs_internal_state_reset                 0x00027879   Thumb Code    12  ble_conn_state.o(.text)
    ble_conn_state_init                      0x0002795d   Thumb Code     8  ble_conn_state.o(.text)
    ble_conn_state_valid                     0x00027a05   Thumb Code    18  ble_conn_state.o(.text)
    ble_conn_state_role                      0x00027a17   Thumb Code    50  ble_conn_state.o(.text)
    ble_conn_state_status                    0x00027a49   Thumb Code    56  ble_conn_state.o(.text)
    ble_conn_state_encrypted                 0x00027a81   Thumb Code    18  ble_conn_state.o(.text)
    ble_conn_state_mitm_protected            0x00027a93   Thumb Code    18  ble_conn_state.o(.text)
    ble_conn_state_n_connections             0x00027aa5   Thumb Code    12  ble_conn_state.o(.text)
    ble_conn_state_n_centrals                0x00027ab1   Thumb Code    20  ble_conn_state.o(.text)
    ble_conn_state_n_peripherals             0x00027ac5   Thumb Code    20  ble_conn_state.o(.text)
    ble_conn_state_conn_handles              0x00027ad9   Thumb Code    18  ble_conn_state.o(.text)
    ble_conn_state_central_handles           0x00027aeb   Thumb Code    28  ble_conn_state.o(.text)
    ble_conn_state_periph_handles            0x00027b07   Thumb Code    28  ble_conn_state.o(.text)
    ble_conn_state_conn_idx                  0x00027b23   Thumb Code    30  ble_conn_state.o(.text)
    ble_conn_state_user_flag_acquire         0x00027b41   Thumb Code    36  ble_conn_state.o(.text)
    ble_conn_state_user_flag_get             0x00027b65   Thumb Code    36  ble_conn_state.o(.text)
    ble_conn_state_user_flag_set             0x00027b89   Thumb Code    36  ble_conn_state.o(.text)
    ble_conn_state_user_flag_collection      0x00027bad   Thumb Code    26  ble_conn_state.o(.text)
    ble_srv_is_notification_enabled          0x00027c09   Thumb Code    18  ble_srv_common.o(.text)
    ble_srv_is_indication_enabled            0x00027c1b   Thumb Code    18  ble_srv_common.o(.text)
    ble_srv_report_ref_encode                0x00027c2d   Thumb Code    64  ble_srv_common.o(.text)
    ble_srv_ascii_to_utf8                    0x00027c6d   Thumb Code    18  ble_srv_common.o(.text)
    characteristic_add                       0x00027d3d   Thumb Code   456  ble_srv_common.o(.text)
    descriptor_add                           0x00027f05   Thumb Code   190  ble_srv_common.o(.text)
    nrf_ble_gatt_init                        0x0002827f   Thumb Code    52  nrf_ble_gatt.o(.text)
    nrf_ble_gatt_att_mtu_periph_set          0x000282b3   Thumb Code    30  nrf_ble_gatt.o(.text)
    nrf_ble_gatt_att_mtu_central_set         0x000282d1   Thumb Code    30  nrf_ble_gatt.o(.text)
    nrf_ble_gatt_eff_mtu_get                 0x000282ef   Thumb Code    22  nrf_ble_gatt.o(.text)
    nrf_ble_gatt_data_length_set             0x00028305   Thumb Code    86  nrf_ble_gatt.o(.text)
    nrf_ble_gatt_data_length_get             0x0002835b   Thumb Code    48  nrf_ble_gatt.o(.text)
    nrf_ble_gatt_on_ble_evt                  0x0002838b   Thumb Code   214  nrf_ble_gatt.o(.text)
    ble_advdata_encode                       0x0002894f   Thumb Code   364  ble_advdata.o(.text)
    ble_advdata_set                          0x00028adb   Thumb Code   188  ble_advdata.o(.text)
    ble_nus_on_ble_evt                       0x00028e3b   Thumb Code    90  ble_nus.o(.text)
    ble_nus_init                             0x00028e95   Thumb Code   146  ble_nus.o(.text)
    ble_nus_string_send                      0x00028f27   Thumb Code    82  ble_nus.o(.text)
    nrf_drv_clock_init_check                 0x00028ff7   Thumb Code     6  nrf_drv_clock.o(.text)
    nrf_drv_clock_init                       0x00028ffd   Thumb Code    94  nrf_drv_clock.o(.text)
    nrf_drv_clock_uninit                     0x0002905b   Thumb Code    30  nrf_drv_clock.o(.text)
    nrf_drv_clock_lfclk_request              0x000290a7   Thumb Code   102  nrf_drv_clock.o(.text)
    nrf_drv_clock_lfclk_release              0x0002910d   Thumb Code    42  nrf_drv_clock.o(.text)
    nrf_drv_clock_lfclk_is_running           0x00029137   Thumb Code    18  nrf_drv_clock.o(.text)
    nrf_drv_clock_hfclk_request              0x00029149   Thumb Code   102  nrf_drv_clock.o(.text)
    nrf_drv_clock_hfclk_release              0x000291af   Thumb Code    42  nrf_drv_clock.o(.text)
    nrf_drv_clock_hfclk_is_running           0x000291d9   Thumb Code    32  nrf_drv_clock.o(.text)
    nrf_drv_clock_calibration_start          0x000291f9   Thumb Code     8  nrf_drv_clock.o(.text)
    nrf_drv_clock_calibration_abort          0x00029201   Thumb Code     6  nrf_drv_clock.o(.text)
    nrf_drv_clock_is_calibrating             0x00029207   Thumb Code     8  nrf_drv_clock.o(.text)
    POWER_CLOCK_IRQHandler                   0x0002923b   Thumb Code    74  nrf_drv_clock.o(.text)
    nrf_drv_common_clock_irq_disable         0x0002936d   Thumb Code    22  nrf_drv_common.o(.text)
    nrf_drv_common_irq_enable                0x00029383   Thumb Code    84  nrf_drv_common.o(.text)
    nrf_drv_gpiote_init                      0x00029541   Thumb Code    94  nrf_drv_gpiote.o(.text)
    nrf_drv_gpiote_is_init                   0x0002959f   Thumb Code    18  nrf_drv_gpiote.o(.text)
    nrf_drv_gpiote_in_event_disable          0x000295b1   Thumb Code    74  nrf_drv_gpiote.o(.text)
    nrf_drv_gpiote_in_uninit                 0x000295fb   Thumb Code    58  nrf_drv_gpiote.o(.text)
    nrf_drv_gpiote_out_uninit                0x00029635   Thumb Code    52  nrf_drv_gpiote.o(.text)
    nrf_drv_gpiote_uninit                    0x00029669   Thumb Code    64  nrf_drv_gpiote.o(.text)
    nrf_drv_gpiote_out_init                  0x000296a9   Thumb Code   190  nrf_drv_gpiote.o(.text)
    nrf_drv_gpiote_out_set                   0x00029767   Thumb Code    12  nrf_drv_gpiote.o(.text)
    nrf_drv_gpiote_out_clear                 0x00029773   Thumb Code    12  nrf_drv_gpiote.o(.text)
    nrf_drv_gpiote_out_toggle                0x0002977f   Thumb Code    46  nrf_drv_gpiote.o(.text)
    nrf_drv_gpiote_out_task_enable           0x000297ad   Thumb Code    32  nrf_drv_gpiote.o(.text)
    nrf_drv_gpiote_out_task_disable          0x000297cd   Thumb Code    26  nrf_drv_gpiote.o(.text)
    nrf_drv_gpiote_out_task_addr_get         0x000297e7   Thumb Code    22  nrf_drv_gpiote.o(.text)
    nrf_drv_gpiote_set_task_addr_get         0x000297fd   Thumb Code    24  nrf_drv_gpiote.o(.text)
    nrf_drv_gpiote_clr_task_addr_get         0x00029815   Thumb Code    24  nrf_drv_gpiote.o(.text)
    nrf_drv_gpiote_out_task_force            0x0002982d   Thumb Code    64  nrf_drv_gpiote.o(.text)
    nrf_drv_gpiote_out_task_trigger          0x0002986d   Thumb Code    26  nrf_drv_gpiote.o(.text)
    nrf_drv_gpiote_set_task_trigger          0x00029887   Thumb Code    28  nrf_drv_gpiote.o(.text)
    nrf_drv_gpiote_clr_task_trigger          0x000298a3   Thumb Code    28  nrf_drv_gpiote.o(.text)
    nrf_drv_gpiote_in_init                   0x000298bf   Thumb Code   214  nrf_drv_gpiote.o(.text)
    nrf_drv_gpiote_in_event_enable           0x00029995   Thumb Code   166  nrf_drv_gpiote.o(.text)
    nrf_drv_gpiote_in_is_set                 0x00029a3b   Thumb Code    20  nrf_drv_gpiote.o(.text)
    nrf_drv_gpiote_in_event_addr_get         0x00029a4f   Thumb Code    38  nrf_drv_gpiote.o(.text)
    GPIOTE_IRQHandler                        0x00029a75   Thumb Code   590  nrf_drv_gpiote.o(.text)
    nrf_saadc_channel_init                   0x00029ded   Thumb Code   108  nrf_saadc.o(.text)
    SAADC_IRQHandler                         0x00029e71   Thumb Code   456  nrf_drv_saadc.o(.text)
    nrf_drv_saadc_init                       0x0002a039   Thumb Code   150  nrf_drv_saadc.o(.text)
    nrf_drv_saadc_limits_set                 0x0002a0cf   Thumb Code   170  nrf_drv_saadc.o(.text)
    nrf_drv_saadc_channel_uninit             0x0002a179   Thumb Code    84  nrf_drv_saadc.o(.text)
    nrf_drv_saadc_uninit                     0x0002a1cd   Thumb Code   110  nrf_drv_saadc.o(.text)
    nrf_drv_saadc_channel_init               0x0002a23b   Thumb Code   102  nrf_drv_saadc.o(.text)
    nrf_drv_saadc_sample_task_get            0x0002a2a1   Thumb Code    24  nrf_drv_saadc.o(.text)
    nrf_drv_saadc_sample_convert             0x0002a2b9   Thumb Code   224  nrf_drv_saadc.o(.text)
    nrf_drv_saadc_buffer_convert             0x0002a399   Thumb Code   186  nrf_drv_saadc.o(.text)
    nrf_drv_saadc_sample                     0x0002a453   Thumb Code    42  nrf_drv_saadc.o(.text)
    nrf_drv_saadc_calibrate_offset           0x0002a47d   Thumb Code    46  nrf_drv_saadc.o(.text)
    nrf_drv_saadc_is_busy                    0x0002a4ab   Thumb Code    14  nrf_drv_saadc.o(.text)
    nrf_drv_saadc_abort                      0x0002a4b9   Thumb Code    68  nrf_drv_saadc.o(.text)
    app_button_init                          0x0002a64f   Thumb Code   132  app_button.o(.text)
    app_button_enable                        0x0002a6d3   Thumb Code    34  app_button.o(.text)
    app_button_disable                       0x0002a6f5   Thumb Code    38  app_button.o(.text)
    app_button_is_pushed                     0x0002a71b   Thumb Code    38  app_button.o(.text)
    app_error_handler                        0x0002a765   Thumb Code    32  app_error.o(.text)
    app_error_handler_bare                   0x0002a785   Thumb Code    28  app_error.o(.text)
    app_error_save_and_stop                  0x0002a7a1   Thumb Code   132  app_error.o(.text)
    app_error_fault_handler                  0x0002a829   Thumb Code   216  app_error_weak.o(.text)
    RTC1_IRQHandler                          0x0002b003   Thumb Code    44  app_timer.o(.text)
    SWI0_EGU0_IRQHandler                     0x0002b02f   Thumb Code     8  app_timer.o(.text)
    app_timer_init                           0x0002b037   Thumb Code    70  app_timer.o(.text)
    app_timer_create                         0x0002b07d   Thumb Code    56  app_timer.o(.text)
    app_timer_start                          0x0002b0b5   Thumb Code    78  app_timer.o(.text)
    app_timer_stop                           0x0002b103   Thumb Code    44  app_timer.o(.text)
    app_timer_stop_all                       0x0002b12f   Thumb Code    26  app_timer.o(.text)
    app_timer_cnt_get                        0x0002b149   Thumb Code     8  app_timer.o(.text)
    app_timer_cnt_diff_compute               0x0002b151   Thumb Code    16  app_timer.o(.text)
    app_timer_pause                          0x0002b161   Thumb Code     8  app_timer.o(.text)
    app_timer_resume                         0x0002b169   Thumb Code     8  app_timer.o(.text)
    app_util_disable_irq                     0x0002b1f5   Thumb Code    14  app_util_platform.o(.text)
    app_util_enable_irq                      0x0002b203   Thumb Code    20  app_util_platform.o(.text)
    app_util_critical_region_enter           0x0002b217   Thumb Code    12  app_util_platform.o(.text)
    app_util_critical_region_exit            0x0002b223   Thumb Code    62  app_util_platform.o(.text)
    privilege_level_get                      0x0002b261   Thumb Code    34  app_util_platform.o(.text)
    current_int_priority_get                 0x0002b283   Thumb Code    52  app_util_platform.o(.text)
    nrf_balloc_init                          0x0002b351   Thumb Code    60  nrf_balloc.o(.text)
    nrf_balloc_alloc                         0x0002b38d   Thumb Code    82  nrf_balloc.o(.text)
    nrf_balloc_free                          0x0002b3df   Thumb Code    48  nrf_balloc.o(.text)
    nrf_fprintf_buffer_flush                 0x0002b40f   Thumb Code    28  nrf_fprintf.o(.text)
    nrf_fprintf                              0x0002b42b   Thumb Code    42  nrf_fprintf.o(.text)
    nrf_fprintf_fmt                          0x0002b659   Thumb Code   496  nrf_fprintf_format.o(.text)
    nrf_memobj_pool_init                     0x0002b84d   Thumb Code    12  nrf_memobj.o(.text)
    nrf_memobj_free                          0x0002b859   Thumb Code    64  nrf_memobj.o(.text)
    nrf_memobj_alloc                         0x0002b899   Thumb Code   122  nrf_memobj.o(.text)
    nrf_memobj_get                           0x0002b913   Thumb Code    30  nrf_memobj.o(.text)
    nrf_memobj_put                           0x0002b931   Thumb Code    48  nrf_memobj.o(.text)
    nrf_memobj_write                         0x0002ba0f   Thumb Code    28  nrf_memobj.o(.text)
    nrf_memobj_read                          0x0002ba2b   Thumb Code    28  nrf_memobj.o(.text)
    nrf_section_iter_init                    0x0002ba75   Thumb Code    20  nrf_section_iter.o(.text)
    nrf_section_iter_next                    0x0002ba89   Thumb Code    46  nrf_section_iter.o(.text)
    nrf_strerror_find                        0x0002bab9   Thumb Code    60  nrf_strerror.o(.text)
    nrf_strerror_get                         0x0002baf5   Thumb Code    22  nrf_strerror.o(.text)
    sdk_mapped_flags_first_key_index_get     0x0002bb15   Thumb Code    36  sdk_mapped_flags.o(.text)
    sdk_mapped_flags_bulk_update_by_key      0x0002bb39   Thumb Code   124  sdk_mapped_flags.o(.text)
    sdk_mapped_flags_update_by_key           0x0002bbb5   Thumb Code    26  sdk_mapped_flags.o(.text)
    sdk_mapped_flags_get_by_key_w_idx        0x0002bbcf   Thumb Code    58  sdk_mapped_flags.o(.text)
    sdk_mapped_flags_get_by_key              0x0002bc09   Thumb Code    46  sdk_mapped_flags.o(.text)
    sdk_mapped_flags_key_list_get            0x0002bc37   Thumb Code    66  sdk_mapped_flags.o(.text)
    sdk_mapped_flags_n_flags_set             0x0002bc79   Thumb Code    32  sdk_mapped_flags.o(.text)
    nrf_log_backend_rtt_init                 0x0002bcad   Thumb Code     8  nrf_log_backend_rtt.o(.text)
    nrf_log_backend_serial_put               0x0002bd19   Thumb Code   254  nrf_log_backend_serial.o(.text)
    nrf_log_default_backends_init            0x0002be19   Thumb Code    32  nrf_log_default_backends.o(.text)
    nrf_log_init                             0x0002be3d   Thumb Code    84  nrf_log_frontend.o(.text)
    nrf_log_module_cnt_get                   0x0002be91   Thumb Code    10  nrf_log_frontend.o(.text)
    nrf_log_module_name_get                  0x0002bed3   Thumb Code    30  nrf_log_frontend.o(.text)
    nrf_log_color_id_get                     0x0002bef1   Thumb Code    52  nrf_log_frontend.o(.text)
    nrf_log_module_filter_set                0x0002bf47   Thumb Code     2  nrf_log_frontend.o(.text)
    nrf_log_module_filter_get                0x0002bf49   Thumb Code    46  nrf_log_frontend.o(.text)
    nrf_log_push                             0x0002c16d   Thumb Code   116  nrf_log_frontend.o(.text)
    buffer_is_empty                          0x0002c1e1   Thumb Code    20  nrf_log_frontend.o(.text)
    nrf_log_frontend_dequeue                 0x0002c1f5   Thumb Code   716  nrf_log_frontend.o(.text)
    nrf_log_frontend_std_0                   0x0002c52b   Thumb Code    20  nrf_log_frontend.o(.text)
    nrf_log_frontend_std_1                   0x0002c53f   Thumb Code    24  nrf_log_frontend.o(.text)
    nrf_log_frontend_std_2                   0x0002c557   Thumb Code    32  nrf_log_frontend.o(.text)
    nrf_log_frontend_std_3                   0x0002c577   Thumb Code    40  nrf_log_frontend.o(.text)
    nrf_log_frontend_std_4                   0x0002c59f   Thumb Code    44  nrf_log_frontend.o(.text)
    nrf_log_frontend_std_5                   0x0002c5cb   Thumb Code    56  nrf_log_frontend.o(.text)
    nrf_log_frontend_std_6                   0x0002c603   Thumb Code    60  nrf_log_frontend.o(.text)
    nrf_log_frontend_hexdump                 0x0002c63f   Thumb Code   230  nrf_log_frontend.o(.text)
    nrf_log_backend_add                      0x0002c759   Thumb Code    68  nrf_log_frontend.o(.text)
    nrf_log_backend_remove                   0x0002c79d   Thumb Code    38  nrf_log_frontend.o(.text)
    nrf_log_panic                            0x0002c7c3   Thumb Code    46  nrf_log_frontend.o(.text)
    nrf_log_std_entry_process                0x0002c8d9   Thumb Code   200  nrf_log_str_formatter.o(.text)
    nrf_log_hexdump_entry_process            0x0002c9a1   Thumb Code   158  nrf_log_str_formatter.o(.text)
    SEGGER_RTT_ReadNoLock                    0x0002cbb5   Thumb Code   148  segger_rtt.o(.text)
    SEGGER_RTT_Read                          0x0002cc49   Thumb Code    42  segger_rtt.o(.text)
    SEGGER_RTT_WriteWithOverwriteNoLock      0x0002cc73   Thumb Code   168  segger_rtt.o(.text)
    SEGGER_RTT_WriteSkipNoLock               0x0002cd1b   Thumb Code   174  segger_rtt.o(.text)
    SEGGER_RTT_WriteNoLock                   0x0002cdc9   Thumb Code   168  segger_rtt.o(.text)
    SEGGER_RTT_Write                         0x0002ce71   Thumb Code    56  segger_rtt.o(.text)
    SEGGER_RTT_WriteString                   0x0002cea9   Thumb Code    26  segger_rtt.o(.text)
    SEGGER_RTT_PutCharSkipNoLock             0x0002cec3   Thumb Code    52  segger_rtt.o(.text)
    SEGGER_RTT_PutCharSkip                   0x0002cef7   Thumb Code    92  segger_rtt.o(.text)
    SEGGER_RTT_PutChar                       0x0002cf53   Thumb Code   106  segger_rtt.o(.text)
    SEGGER_RTT_GetKey                        0x0002cfbd   Thumb Code    32  segger_rtt.o(.text)
    SEGGER_RTT_WaitKey                       0x0002cfdd   Thumb Code    14  segger_rtt.o(.text)
    SEGGER_RTT_HasKey                        0x0002cfeb   Thumb Code    36  segger_rtt.o(.text)
    SEGGER_RTT_HasData                       0x0002d00f   Thumb Code    24  segger_rtt.o(.text)
    SEGGER_RTT_AllocDownBuffer               0x0002d027   Thumb Code   180  segger_rtt.o(.text)
    SEGGER_RTT_AllocUpBuffer                 0x0002d0db   Thumb Code   180  segger_rtt.o(.text)
    SEGGER_RTT_ConfigUpBuffer                0x0002d18f   Thumb Code   156  segger_rtt.o(.text)
    SEGGER_RTT_ConfigDownBuffer              0x0002d22b   Thumb Code   154  segger_rtt.o(.text)
    SEGGER_RTT_SetNameUpBuffer               0x0002d2c5   Thumb Code    74  segger_rtt.o(.text)
    SEGGER_RTT_SetNameDownBuffer             0x0002d30f   Thumb Code    72  segger_rtt.o(.text)
    SEGGER_RTT_SetFlagsUpBuffer              0x0002d357   Thumb Code    76  segger_rtt.o(.text)
    SEGGER_RTT_SetFlagsDownBuffer            0x0002d3a3   Thumb Code    74  segger_rtt.o(.text)
    SEGGER_RTT_Init                          0x0002d3ed   Thumb Code     8  segger_rtt.o(.text)
    SEGGER_RTT_SetTerminal                   0x0002d3f5   Thumb Code   134  segger_rtt.o(.text)
    SEGGER_RTT_TerminalOut                   0x0002d47b   Thumb Code   238  segger_rtt.o(.text)
    nrf_sdh_ble_app_ram_start_get            0x0002d575   Thumb Code    18  nrf_sdh_ble.o(.text)
    nrf_sdh_ble_default_cfg_set              0x0002d587   Thumb Code   356  nrf_sdh_ble.o(.text)
    nrf_sdh_ble_enable                       0x0002d6f7   Thumb Code   100  nrf_sdh_ble.o(.text)
    nrf_sdh_enable_request                   0x0002da59   Thumb Code    88  nrf_sdh.o(.text)
    nrf_sdh_disable_request                  0x0002dab1   Thumb Code    70  nrf_sdh.o(.text)
    nrf_sdh_request_continue                 0x0002daf7   Thumb Code    30  nrf_sdh.o(.text)
    nrf_sdh_is_enabled                       0x0002db15   Thumb Code     6  nrf_sdh.o(.text)
    nrf_sdh_suspend                          0x0002db1b   Thumb Code    24  nrf_sdh.o(.text)
    nrf_sdh_resume                           0x0002db33   Thumb Code    96  nrf_sdh.o(.text)
    nrf_sdh_is_suspended                     0x0002db93   Thumb Code    20  nrf_sdh.o(.text)
    nrf_sdh_evts_poll                        0x0002dba7   Thumb Code    44  nrf_sdh.o(.text)
    SWI2_EGU2_IRQHandler                     0x0002dbd3   Thumb Code     8  nrf_sdh.o(.text)
    Reset_Handler                            0x0002dce1   Thumb Code     8  arm_startup_nrf52840.o(.text)
    NMI_Handler                              0x0002dce9   Thumb Code     2  arm_startup_nrf52840.o(.text)
    HardFault_Handler                        0x0002dceb   Thumb Code     2  arm_startup_nrf52840.o(.text)
    MemoryManagement_Handler                 0x0002dced   Thumb Code     2  arm_startup_nrf52840.o(.text)
    BusFault_Handler                         0x0002dcef   Thumb Code     2  arm_startup_nrf52840.o(.text)
    UsageFault_Handler                       0x0002dcf1   Thumb Code     2  arm_startup_nrf52840.o(.text)
    SVC_Handler                              0x0002dcf3   Thumb Code     2  arm_startup_nrf52840.o(.text)
    DebugMon_Handler                         0x0002dcf5   Thumb Code     2  arm_startup_nrf52840.o(.text)
    PendSV_Handler                           0x0002dcf7   Thumb Code     2  arm_startup_nrf52840.o(.text)
    SysTick_Handler                          0x0002dcf9   Thumb Code     2  arm_startup_nrf52840.o(.text)
    CCM_AAR_IRQHandler                       0x0002dcfb   Thumb Code     0  arm_startup_nrf52840.o(.text)
    COMP_LPCOMP_IRQHandler                   0x0002dcfb   Thumb Code     0  arm_startup_nrf52840.o(.text)
    CRYPTOCELL_IRQHandler                    0x0002dcfb   Thumb Code     0  arm_startup_nrf52840.o(.text)
    ECB_IRQHandler                           0x0002dcfb   Thumb Code     0  arm_startup_nrf52840.o(.text)
    FPU_IRQHandler                           0x0002dcfb   Thumb Code     0  arm_startup_nrf52840.o(.text)
    I2S_IRQHandler                           0x0002dcfb   Thumb Code     0  arm_startup_nrf52840.o(.text)
    MWU_IRQHandler                           0x0002dcfb   Thumb Code     0  arm_startup_nrf52840.o(.text)
    NFCT_IRQHandler                          0x0002dcfb   Thumb Code     0  arm_startup_nrf52840.o(.text)
    PDM_IRQHandler                           0x0002dcfb   Thumb Code     0  arm_startup_nrf52840.o(.text)
    PWM0_IRQHandler                          0x0002dcfb   Thumb Code     0  arm_startup_nrf52840.o(.text)
    PWM1_IRQHandler                          0x0002dcfb   Thumb Code     0  arm_startup_nrf52840.o(.text)
    PWM2_IRQHandler                          0x0002dcfb   Thumb Code     0  arm_startup_nrf52840.o(.text)
    PWM3_IRQHandler                          0x0002dcfb   Thumb Code     0  arm_startup_nrf52840.o(.text)
    QDEC_IRQHandler                          0x0002dcfb   Thumb Code     0  arm_startup_nrf52840.o(.text)
    QSPI_IRQHandler                          0x0002dcfb   Thumb Code     0  arm_startup_nrf52840.o(.text)
    RADIO_IRQHandler                         0x0002dcfb   Thumb Code     0  arm_startup_nrf52840.o(.text)
    RNG_IRQHandler                           0x0002dcfb   Thumb Code     0  arm_startup_nrf52840.o(.text)
    RTC0_IRQHandler                          0x0002dcfb   Thumb Code     0  arm_startup_nrf52840.o(.text)
    RTC2_IRQHandler                          0x0002dcfb   Thumb Code     0  arm_startup_nrf52840.o(.text)
    SPIM0_SPIS0_TWIM0_TWIS0_SPI0_TWI0_IRQHandler 0x0002dcfb   Thumb Code     0  arm_startup_nrf52840.o(.text)
    SPIM1_SPIS1_TWIM1_TWIS1_SPI1_TWI1_IRQHandler 0x0002dcfb   Thumb Code     0  arm_startup_nrf52840.o(.text)
    SPIM2_SPIS2_SPI2_IRQHandler              0x0002dcfb   Thumb Code     0  arm_startup_nrf52840.o(.text)
    SPIM3_IRQHandler                         0x0002dcfb   Thumb Code     0  arm_startup_nrf52840.o(.text)
    SWI3_EGU3_IRQHandler                     0x0002dcfb   Thumb Code     0  arm_startup_nrf52840.o(.text)
    SWI4_EGU4_IRQHandler                     0x0002dcfb   Thumb Code     0  arm_startup_nrf52840.o(.text)
    SWI5_EGU5_IRQHandler                     0x0002dcfb   Thumb Code     0  arm_startup_nrf52840.o(.text)
    TEMP_IRQHandler                          0x0002dcfb   Thumb Code     0  arm_startup_nrf52840.o(.text)
    TIMER0_IRQHandler                        0x0002dcfb   Thumb Code     0  arm_startup_nrf52840.o(.text)
    TIMER1_IRQHandler                        0x0002dcfb   Thumb Code     0  arm_startup_nrf52840.o(.text)
    TIMER2_IRQHandler                        0x0002dcfb   Thumb Code     0  arm_startup_nrf52840.o(.text)
    TIMER3_IRQHandler                        0x0002dcfb   Thumb Code     0  arm_startup_nrf52840.o(.text)
    TIMER4_IRQHandler                        0x0002dcfb   Thumb Code     0  arm_startup_nrf52840.o(.text)
    UARTE0_UART0_IRQHandler                  0x0002dcfb   Thumb Code     0  arm_startup_nrf52840.o(.text)
    UARTE1_IRQHandler                        0x0002dcfb   Thumb Code     0  arm_startup_nrf52840.o(.text)
    USBD_IRQHandler                          0x0002dcfb   Thumb Code     0  arm_startup_nrf52840.o(.text)
    WDT_IRQHandler                           0x0002dcfb   Thumb Code     0  arm_startup_nrf52840.o(.text)
    SystemCoreClockUpdate                    0x0002dd05   Thumb Code     8  system_nrf52840.o(.text)
    SystemInit                               0x0002ddb5   Thumb Code   494  system_nrf52840.o(.text)
    __aeabi_uldivmod                         0x0002dff1   Thumb Code    98  uldiv.o(.text)
    __rt_ctype_table                         0x0002e055   Thumb Code     4  ctype_o.o(.text)
    qsort                                    0x0002e05d   Thumb Code   156  qsort.o(.text)
    __aeabi_memcpy                           0x0002e0f9   Thumb Code    36  memcpya.o(.text)
    __aeabi_memcpy4                          0x0002e0f9   Thumb Code     0  memcpya.o(.text)
    __aeabi_memcpy8                          0x0002e0f9   Thumb Code     0  memcpya.o(.text)
    __aeabi_memset                           0x0002e11d   Thumb Code    14  memseta.o(.text)
    __aeabi_memset4                          0x0002e11d   Thumb Code     0  memseta.o(.text)
    __aeabi_memset8                          0x0002e11d   Thumb Code     0  memseta.o(.text)
    __aeabi_memclr                           0x0002e12b   Thumb Code     4  memseta.o(.text)
    __aeabi_memclr4                          0x0002e12b   Thumb Code     0  memseta.o(.text)
    __aeabi_memclr8                          0x0002e12b   Thumb Code     0  memseta.o(.text)
    _memset$wrapper                          0x0002e12f   Thumb Code    18  memseta.o(.text)
    strlen                                   0x0002e141   Thumb Code    14  strlen.o(.text)
    memcmp                                   0x0002e14f   Thumb Code    26  memcmp.o(.text)
    strcpy                                   0x0002e169   Thumb Code    18  strcpy.o(.text)
    __aeabi_i2d                              0x0002e17b   Thumb Code    34  dflti.o(.text)
    __aeabi_d2uiz                            0x0002e19d   Thumb Code    50  dfixui.o(.text)
    __aeabi_llsl                             0x0002e1cf   Thumb Code    30  llshl.o(.text)
    _ll_shift_l                              0x0002e1cf   Thumb Code     0  llshl.o(.text)
    __aeabi_llsr                             0x0002e1ed   Thumb Code    32  llushr.o(.text)
    _ll_ushift_r                             0x0002e1ed   Thumb Code     0  llushr.o(.text)
    __I$use$fp                               0x0002e20d   Thumb Code     0  iusefp.o(.text)
    _double_round                            0x0002e20d   Thumb Code    30  depilogue.o(.text)
    _double_epilogue                         0x0002e22b   Thumb Code   156  depilogue.o(.text)
    __aeabi_dadd                             0x0002e2c7   Thumb Code   322  dadd.o(.text)
    __aeabi_dsub                             0x0002e409   Thumb Code     6  dadd.o(.text)
    __aeabi_drsub                            0x0002e40f   Thumb Code     6  dadd.o(.text)
    _drnd                                    0x0002e415   Thumb Code   132  drnd.o(.text)
    __aeabi_cdcmpeq                          0x0002e49d   Thumb Code     0  cdcmple.o(.text)
    __aeabi_cdcmple                          0x0002e49d   Thumb Code    48  cdcmple.o(.text)
    __aeabi_cdrcmple                         0x0002e4cd   Thumb Code    48  cdrcmple.o(.text)
    __scatterload                            0x0002e4fd   Thumb Code    28  init.o(.text)
    __scatterload_rt2                        0x0002e4fd   Thumb Code     0  init.o(.text)
    __aeabi_lasr                             0x0002e521   Thumb Code    36  llsshr.o(.text)
    _ll_sshift_r                             0x0002e521   Thumb Code     0  llsshr.o(.text)
    __decompress                             0x0002e545   Thumb Code     0  __dczerorl2.o(.text)
    __decompress1                            0x0002e545   Thumb Code    86  __dczerorl2.o(.text)
    __0sprintf$8                             0x0002e59d   Thumb Code    34  printf8.o(i.__0sprintf$8)
    __1sprintf$8                             0x0002e59d   Thumb Code     0  printf8.o(i.__0sprintf$8)
    __2sprintf                               0x0002e59d   Thumb Code     0  printf8.o(i.__0sprintf$8)
    __hardfp_round                           0x0002e5c9   Thumb Code   194  round.o(i.__hardfp_round)
    __scatterload_copy                       0x0002e6a9   Thumb Code    14  handlers.o(i.__scatterload_copy)
    __scatterload_null                       0x0002e6b7   Thumb Code     2  handlers.o(i.__scatterload_null)
    __scatterload_zeroinit                   0x0002e6b9   Thumb Code    14  handlers.o(i.__scatterload_zeroinit)
    nrf_log_backend_rtt_api                  0x0002edd0   Data          12  nrf_log_backend_rtt.o(.constdata)
    m_ram_start                              0x0002ee1c   Data           4  nrf_sdh_ble.o(.constdata)
    __ctype_table                            0x0002ee94   Data         129  ctype_o.o(.constdata)
    Region$$Table$$Base                      0x0002f5f8   Number         0  anon$$obj.o(Region$$Table)
    Region$$Table$$Limit                     0x0002f618   Number         0  anon$$obj.o(Region$$Table)
    log_const_data$$Base                     0x0002f618   Number         0  nrf_ble_gatt.o(log_const_data)
    m_nrf_log_ble_gatt_logs_data_const       0x0002f618   Data           8  nrf_ble_gatt.o(log_const_data)
    m_nrf_log_clock_logs_data_const          0x0002f620   Data           8  nrf_drv_clock.o(log_const_data)
    m_nrf_log_gpiote_logs_data_const         0x0002f628   Data           8  nrf_drv_gpiote.o(log_const_data)
    m_nrf_log_saadc_logs_data_const          0x0002f630   Data           8  nrf_drv_saadc.o(log_const_data)
    m_nrf_log_ppi_logs_data_const            0x0002f638   Data           8  nrf_drv_ppi.o(log_const_data)
    m_nrf_log_balloc_logs_data_const         0x0002f640   Data           8  nrf_balloc.o(log_const_data)
    m_nrf_log_pwr_mgmt_logs_data_const       0x0002f648   Data           8  nrf_pwr_mgmt.o(log_const_data)
    m_nrf_log_app_logs_data_const            0x0002f650   Data           8  nrf_log_frontend.o(log_const_data)
    m_nrf_log_nrf_sdh_ble_logs_data_const    0x0002f658   Data           8  nrf_sdh_ble.o(log_const_data)
    m_nrf_log_nrf_sdh_soc_logs_data_const    0x0002f660   Data           8  nrf_sdh_soc.o(log_const_data)
    m_nrf_log_nrf_sdh_logs_data_const        0x0002f668   Data           8  nrf_sdh.o(log_const_data)
    log_const_data$$Limit                    0x0002f670   Number         0  nrf_sdh.o(log_const_data)
    sdh_ble_observers0$$Base                 0x0002f670   Number         0  ble_conn_state.o(sdh_ble_observers0)
    sdh_ble_observers0$$Limit                0x0002f678   Number         0  ble_conn_state.o(sdh_ble_observers0)
    sdh_ble_observers1$$Base                 0x0002f678   Number         0  main.o(sdh_ble_observers1)
    sdh_ble_observers1$$Limit                0x0002f6a0   Number         0  ble_conn_params.o(sdh_ble_observers1)
    sdh_ble_observers2$$Base                 0x0002f6a0   Number         0  main.o(sdh_ble_observers2)
    sdh_ble_observers2$$Limit                0x0002f6a8   Number         0  main.o(sdh_ble_observers2)
    sdh_ble_observers3$$Base                 0x0002f6a8   Number         0  main.o(sdh_ble_observers3)
    sdh_ble_observers3$$Limit                0x0002f6b0   Number         0  main.o(sdh_ble_observers3)
    sdh_soc_observers0$$Base                 0x0002f6b0   Number         0  nrf_drv_clock.o(sdh_soc_observers0)
    sdh_soc_observers0$$Limit                0x0002f6b8   Number         0  nrf_drv_clock.o(sdh_soc_observers0)
    sdh_soc_observers1$$Base                 0x0002f6b8   Number         0  main.o(sdh_soc_observers1)
    sdh_soc_observers1$$Limit                0x0002f6c0   Number         0  main.o(sdh_soc_observers1)
    sdh_stack_observers0$$Base               0x0002f6c0   Number         0  nrf_sdh_ble.o(sdh_stack_observers0)
    sdh_stack_observers0$$Limit              0x0002f6d0   Number         0  nrf_sdh_soc.o(sdh_stack_observers0)
    sdh_state_observers0$$Base               0x0002f6d0   Number         0  nrf_drv_clock.o(sdh_state_observers0)
    sdh_state_observers0$$Limit              0x0002f6d8   Number         0  nrf_drv_clock.o(sdh_state_observers0)
    Image$$RW_IRAM1$$Base                    0x20002a18   Number         0  anon$$obj.o ABSOLUTE
    state                                    0x20002a21   Data           1  main.o(.data)
    txcount                                  0x20002a27   Data           1  main.o(.data)
    SystemCoreClock                          0x20002ae8   Data           4  system_nrf52840.o(.data)
    log_dynamic_data$$Base                   0x20002aec   Number         0  nrf_ble_gatt.o(log_dynamic_data)
    m_nrf_log_ble_gatt_logs_data_dynamic     0x20002aec   Data          12  nrf_ble_gatt.o(log_dynamic_data)
    m_nrf_log_clock_logs_data_dynamic        0x20002af8   Data          12  nrf_drv_clock.o(log_dynamic_data)
    m_nrf_log_gpiote_logs_data_dynamic       0x20002b04   Data          12  nrf_drv_gpiote.o(log_dynamic_data)
    m_nrf_log_saadc_logs_data_dynamic        0x20002b10   Data          12  nrf_drv_saadc.o(log_dynamic_data)
    m_nrf_log_ppi_logs_data_dynamic          0x20002b1c   Data          12  nrf_drv_ppi.o(log_dynamic_data)
    m_nrf_log_balloc_logs_data_dynamic       0x20002b28   Data          12  nrf_balloc.o(log_dynamic_data)
    m_nrf_log_pwr_mgmt_logs_data_dynamic     0x20002b34   Data          12  nrf_pwr_mgmt.o(log_dynamic_data)
    m_nrf_log_app_logs_data_dynamic          0x20002b40   Data          12  nrf_log_frontend.o(log_dynamic_data)
    m_nrf_log_nrf_sdh_ble_logs_data_dynamic  0x20002b4c   Data          12  nrf_sdh_ble.o(log_dynamic_data)
    m_nrf_log_nrf_sdh_soc_logs_data_dynamic  0x20002b58   Data          12  nrf_sdh_soc.o(log_dynamic_data)
    m_nrf_log_nrf_sdh_logs_data_dynamic      0x20002b64   Data          12  nrf_sdh.o(log_dynamic_data)
    NRF_POWER_Type_t                         0x20002d98   Data        2448  main.o(.bss)
    nrf_nvic_state                           0x20003a94   Data          12  app_util_platform.o(.bss)
    _SEGGER_RTT                              0x20003fc0   Data         120  segger_rtt.o(.bss)
    __initial_sp                             0x20006848   Data           0  arm_startup_nrf52840.o(STACK)



==============================================================================

Memory Map of the image

  Image Entry point : 0x00025201

  Load Region LR_IROM1 (Base: 0x00025000, Size: 0x0000a830, Max: 0x000db000, ABSOLUTE, COMPRESSED[0x0000a72c])

    Execution Region ER_IROM1 (Exec base: 0x00025000, Load base: 0x00025000, Size: 0x0000a6d8, Max: 0x000db000, ABSOLUTE)

    Exec Addr    Load Addr    Size         Type   Attr      Idx    E Section Name        Object

    0x00025000   0x00025000   0x00000200   Data   RO         1971    RESET               arm_startup_nrf52840.o
    0x00025200   0x00025200   0x00000000   Code   RO         2010  * .ARM.Collect$$$$00000000  mc_w.l(entry.o)
    0x00025200   0x00025200   0x00000004   Code   RO         2322    .ARM.Collect$$$$00000001  mc_w.l(entry2.o)
    0x00025204   0x00025204   0x00000004   Code   RO         2325    .ARM.Collect$$$$00000004  mc_w.l(entry5.o)
    0x00025208   0x00025208   0x00000000   Code   RO         2327    .ARM.Collect$$$$00000008  mc_w.l(entry7b.o)
    0x00025208   0x00025208   0x00000000   Code   RO         2329    .ARM.Collect$$$$0000000A  mc_w.l(entry8b.o)
    0x00025208   0x00025208   0x00000008   Code   RO         2330    .ARM.Collect$$$$0000000B  mc_w.l(entry9a.o)
    0x00025210   0x00025210   0x00000000   Code   RO         2332    .ARM.Collect$$$$0000000D  mc_w.l(entry10a.o)
    0x00025210   0x00025210   0x00000000   Code   RO         2334    .ARM.Collect$$$$0000000F  mc_w.l(entry11a.o)
    0x00025210   0x00025210   0x00000004   Code   RO         2323    .ARM.Collect$$$$00002712  mc_w.l(entry2.o)
    0x00025214   0x00025214   0x0000009a   Code   RO         1433    .emb_text           nrf_memobj.o
    0x000252ae   0x000252ae   0x00000002   PAD
    0x000252b0   0x000252b0   0x0000009a   Code   RO         1722    .emb_text           nrf_log_frontend.o
    0x0002534a   0x0002534a   0x00000002   PAD
    0x0002534c   0x0002534c   0x00000de0   Code   RO            4    .text               main.o
    0x0002612c   0x0002612c   0x000004e8   Code   RO          302    .text               eartag_adv.o
    0x00026614   0x00026614   0x00000460   Code   RO          336    .text               eartag_scan.o
    0x00026a74   0x00026a74   0x00000218   Code   RO          360    .text               boards.o
    0x00026c8c   0x00026c8c   0x0000064c   Code   RO          396    .text               bsp.o
    0x000272d8   0x000272d8   0x0000019c   Code   RO          436    .text               bsp_btn_ble.o
    0x00027474   0x00027474   0x00000404   Code   RO          503    .text               ble_conn_params.o
    0x00027878   0x00027878   0x00000390   Code   RO          537    .text               ble_conn_state.o
    0x00027c08   0x00027c08   0x00000404   Code   RO          577    .text               ble_srv_common.o
    0x0002800c   0x0002800c   0x00000454   Code   RO          605    .text               nrf_ble_gatt.o
    0x00028460   0x00028460   0x00000742   Code   RO          651    .text               ble_advdata.o
    0x00028ba2   0x00028ba2   0x00000002   PAD
    0x00028ba4   0x00028ba4   0x000003d8   Code   RO          682    .text               ble_nus.o
    0x00028f7c   0x00028f7c   0x000003f0   Code   RO          710    .text               nrf_drv_clock.o
    0x0002936c   0x0002936c   0x0000007c   Code   RO          759    .text               nrf_drv_common.o
    0x000293e8   0x000293e8   0x00000a04   Code   RO          790    .text               nrf_drv_gpiote.o
    0x00029dec   0x00029dec   0x00000070   Code   RO          851    .text               nrf_saadc.o
    0x00029e5c   0x00029e5c   0x00000708   Code   RO          878    .text               nrf_drv_saadc.o
    0x0002a564   0x0002a564   0x00000200   Code   RO          988    .text               app_button.o
    0x0002a764   0x0002a764   0x000000c4   Code   RO         1019    .text               app_error.o
    0x0002a828   0x0002a828   0x00000170   Code   RO         1047    .text               app_error_weak.o
    0x0002a998   0x0002a998   0x0000085c   Code   RO         1149    .text               app_timer.o
    0x0002b1f4   0x0002b1f4   0x00000140   Code   RO         1201    .text               app_util_platform.o
    0x0002b334   0x0002b334   0x000000da   Code   RO         1318    .text               nrf_balloc.o
    0x0002b40e   0x0002b40e   0x00000046   Code   RO         1347    .text               nrf_fprintf.o
    0x0002b454   0x0002b454   0x000003f8   Code   RO         1384    .text               nrf_fprintf_format.o
    0x0002b84c   0x0002b84c   0x000001fa   Code   RO         1434    .text               nrf_memobj.o
    0x0002ba46   0x0002ba46   0x00000070   Code   RO         1536    .text               nrf_section_iter.o
    0x0002bab6   0x0002bab6   0x00000002   PAD
    0x0002bab8   0x0002bab8   0x0000005c   Code   RO         1560    .text               nrf_strerror.o
    0x0002bb14   0x0002bb14   0x00000196   Code   RO         1587    .text               sdk_mapped_flags.o
    0x0002bcaa   0x0002bcaa   0x00000002   PAD
    0x0002bcac   0x0002bcac   0x0000006c   Code   RO         1611    .text               nrf_log_backend_rtt.o
    0x0002bd18   0x0002bd18   0x000000fe   Code   RO         1655    .text               nrf_log_backend_serial.o
    0x0002be16   0x0002be16   0x00000002   PAD
    0x0002be18   0x0002be18   0x00000024   Code   RO         1689    .text               nrf_log_default_backends.o
    0x0002be3c   0x0002be3c   0x00000a20   Code   RO         1723    .text               nrf_log_frontend.o
    0x0002c85c   0x0002c85c   0x00000214   Code   RO         1769    .text               nrf_log_str_formatter.o
    0x0002ca70   0x0002ca70   0x00000b04   Code   RO         1799    .text               segger_rtt.o
    0x0002d574   0x0002d574   0x00000328   Code   RO         1865    .text               nrf_sdh_ble.o
    0x0002d89c   0x0002d89c   0x00000098   Code   RO         1901    .text               nrf_sdh_soc.o
    0x0002d934   0x0002d934   0x000003ac   Code   RO         1932    .text               nrf_sdh.o
    0x0002dce0   0x0002dce0   0x00000024   Code   RO         1972    .text               arm_startup_nrf52840.o
    0x0002dd04   0x0002dd04   0x000002ec   Code   RO         1979    .text               system_nrf52840.o
    0x0002dff0   0x0002dff0   0x00000062   Code   RO         2013    .text               mc_w.l(uldiv.o)
    0x0002e052   0x0002e052   0x00000002   PAD
    0x0002e054   0x0002e054   0x00000008   Code   RO         2015    .text               mc_w.l(ctype_o.o)
    0x0002e05c   0x0002e05c   0x0000009c   Code   RO         2043    .text               mc_w.l(qsort.o)
    0x0002e0f8   0x0002e0f8   0x00000024   Code   RO         2045    .text               mc_w.l(memcpya.o)
    0x0002e11c   0x0002e11c   0x00000024   Code   RO         2047    .text               mc_w.l(memseta.o)
    0x0002e140   0x0002e140   0x0000000e   Code   RO         2049    .text               mc_w.l(strlen.o)
    0x0002e14e   0x0002e14e   0x0000001a   Code   RO         2051    .text               mc_w.l(memcmp.o)
    0x0002e168   0x0002e168   0x00000012   Code   RO         2053    .text               mc_w.l(strcpy.o)
    0x0002e17a   0x0002e17a   0x00000022   Code   RO         2318    .text               mf_w.l(dflti.o)
    0x0002e19c   0x0002e19c   0x00000032   Code   RO         2320    .text               mf_w.l(dfixui.o)
    0x0002e1ce   0x0002e1ce   0x0000001e   Code   RO         2341    .text               mc_w.l(llshl.o)
    0x0002e1ec   0x0002e1ec   0x00000020   Code   RO         2343    .text               mc_w.l(llushr.o)
    0x0002e20c   0x0002e20c   0x00000000   Code   RO         2345    .text               mc_w.l(iusefp.o)
    0x0002e20c   0x0002e20c   0x000000ba   Code   RO         2346    .text               mf_w.l(depilogue.o)
    0x0002e2c6   0x0002e2c6   0x0000014e   Code   RO         2348    .text               mf_w.l(dadd.o)
    0x0002e414   0x0002e414   0x00000088   Code   RO         2354    .text               mf_w.l(drnd.o)
    0x0002e49c   0x0002e49c   0x00000030   Code   RO         2358    .text               mf_w.l(cdcmple.o)
    0x0002e4cc   0x0002e4cc   0x00000030   Code   RO         2360    .text               mf_w.l(cdrcmple.o)
    0x0002e4fc   0x0002e4fc   0x00000024   Code   RO         2362    .text               mc_w.l(init.o)
    0x0002e520   0x0002e520   0x00000024   Code   RO         2365    .text               mc_w.l(llsshr.o)
    0x0002e544   0x0002e544   0x00000056   Code   RO         2376    .text               mc_w.l(__dczerorl2.o)
    0x0002e59a   0x0002e59a   0x00000002   PAD
    0x0002e59c   0x0002e59c   0x00000028   Code   RO         2266    i.__0sprintf$8      mc_w.l(printf8.o)
    0x0002e5c4   0x0002e5c4   0x00000004   PAD
    0x0002e5c8   0x0002e5c8   0x000000e0   Code   RO         2006    i.__hardfp_round    m_wm.l(round.o)
    0x0002e6a8   0x0002e6a8   0x0000000e   Code   RO         2370    i.__scatterload_copy  mc_w.l(handlers.o)
    0x0002e6b6   0x0002e6b6   0x00000002   Code   RO         2371    i.__scatterload_null  mc_w.l(handlers.o)
    0x0002e6b8   0x0002e6b8   0x0000000e   Code   RO         2372    i.__scatterload_zeroinit  mc_w.l(handlers.o)
    0x0002e6c6   0x0002e6c6   0x00000002   PAD
    0x0002e6c8   0x0002e6c8   0x00000410   Code   RO         2271    i._printf_core      mc_w.l(printf8.o)
    0x0002ead8   0x0002ead8   0x00000024   Code   RO         2272    i._printf_post_padding  mc_w.l(printf8.o)
    0x0002eafc   0x0002eafc   0x0000002e   Code   RO         2273    i._printf_pre_padding  mc_w.l(printf8.o)
    0x0002eb2a   0x0002eb2a   0x0000000a   Code   RO         2275    i._sputc            mc_w.l(printf8.o)
    0x0002eb34   0x0002eb34   0x00000009   Data   RO            6    .constdata          main.o
    0x0002eb3d   0x0002eb3d   0x00000008   Data   RO          361    .constdata          boards.o
    0x0002eb45   0x0002eb45   0x00000003   PAD
    0x0002eb48   0x0002eb48   0x0000002c   Data   RO          398    .constdata          bsp.o
    0x0002eb74   0x0002eb74   0x00000016   Data   RO          606    .constdata          nrf_ble_gatt.o
    0x0002eb8a   0x0002eb8a   0x00000002   PAD
    0x0002eb8c   0x0002eb8c   0x00000020   Data   RO          683    .constdata          ble_nus.o
    0x0002ebac   0x0002ebac   0x0000004b   Data   RO          792    .constdata          nrf_drv_gpiote.o
    0x0002ebf7   0x0002ebf7   0x000000bd   Data   RO          880    .constdata          nrf_drv_saadc.o
    0x0002ecb4   0x0002ecb4   0x00000008   Data   RO          990    .constdata          app_button.o
    0x0002ecbc   0x0002ecbc   0x00000010   Data   RO         1385    .constdata          nrf_fprintf_format.o
    0x0002eccc   0x0002eccc   0x00000104   Data   RO         1561    .constdata          nrf_strerror.o
    0x0002edd0   0x0002edd0   0x0000000c   Data   RO         1613    .constdata          nrf_log_backend_rtt.o
    0x0002eddc   0x0002eddc   0x00000014   Data   RO         1725    .constdata          nrf_log_frontend.o
    0x0002edf0   0x0002edf0   0x00000030   Data   RO         1866    .constdata          nrf_sdh_ble.o
    0x0002ee20   0x0002ee20   0x0000001c   Data   RO         1902    .constdata          nrf_sdh_soc.o
    0x0002ee3c   0x0002ee3c   0x00000058   Data   RO         1933    .constdata          nrf_sdh.o
    0x0002ee94   0x0002ee94   0x00000081   Data   RO         2016    .constdata          mc_w.l(ctype_o.o)
    0x0002ef15   0x0002ef15   0x00000003   PAD
    0x0002ef18   0x0002ef18   0x00000004   Data   RO         2017    .constdata          mc_w.l(ctype_o.o)
    0x0002ef1c   0x0002ef1c   0x0000012d   Data   RO          607    .conststring        nrf_ble_gatt.o
    0x0002f049   0x0002f049   0x00000003   PAD
    0x0002f04c   0x0002f04c   0x00000307   Data   RO         1562    .conststring        nrf_strerror.o
    0x0002f353   0x0002f353   0x00000001   PAD
    0x0002f354   0x0002f354   0x00000009   Data   RO         1726    .conststring        nrf_log_frontend.o
    0x0002f35d   0x0002f35d   0x00000003   PAD
    0x0002f360   0x0002f360   0x00000066   Data   RO         1770    .conststring        nrf_log_str_formatter.o
    0x0002f3c6   0x0002f3c6   0x00000002   PAD
    0x0002f3c8   0x0002f3c8   0x000001cf   Data   RO         1867    .conststring        nrf_sdh_ble.o
    0x0002f597   0x0002f597   0x00000001   PAD
    0x0002f598   0x0002f598   0x00000009   Data   RO          608    .conststrlit        nrf_ble_gatt.o
    0x0002f5a1   0x0002f5a1   0x00000003   PAD
    0x0002f5a4   0x0002f5a4   0x00000006   Data   RO          713    .conststrlit        nrf_drv_clock.o
    0x0002f5aa   0x0002f5aa   0x00000002   PAD
    0x0002f5ac   0x0002f5ac   0x00000007   Data   RO          793    .conststrlit        nrf_drv_gpiote.o
    0x0002f5b3   0x0002f5b3   0x00000001   PAD
    0x0002f5b4   0x0002f5b4   0x00000006   Data   RO          881    .conststrlit        nrf_drv_saadc.o
    0x0002f5ba   0x0002f5ba   0x00000002   PAD
    0x0002f5bc   0x0002f5bc   0x00000004   Data   RO          935    .conststrlit        nrf_drv_ppi.o
    0x0002f5c0   0x0002f5c0   0x00000007   Data   RO         1319    .conststrlit        nrf_balloc.o
    0x0002f5c7   0x0002f5c7   0x00000001   PAD
    0x0002f5c8   0x0002f5c8   0x00000009   Data   RO         1484    .conststrlit        nrf_pwr_mgmt.o
    0x0002f5d1   0x0002f5d1   0x00000003   PAD
    0x0002f5d4   0x0002f5d4   0x00000004   Data   RO         1727    .conststrlit        nrf_log_frontend.o
    0x0002f5d8   0x0002f5d8   0x0000000c   Data   RO         1868    .conststrlit        nrf_sdh_ble.o
    0x0002f5e4   0x0002f5e4   0x0000000c   Data   RO         1903    .conststrlit        nrf_sdh_soc.o
    0x0002f5f0   0x0002f5f0   0x00000008   Data   RO         1934    .conststrlit        nrf_sdh.o
    0x0002f5f8   0x0002f5f8   0x00000020   Data   RO         2368    Region$$Table       anon$$obj.o
    0x0002f618   0x0002f618   0x00000008   Data   RO          609    log_const_data      nrf_ble_gatt.o
    0x0002f620   0x0002f620   0x00000008   Data   RO          714    log_const_data      nrf_drv_clock.o
    0x0002f628   0x0002f628   0x00000008   Data   RO          794    log_const_data      nrf_drv_gpiote.o
    0x0002f630   0x0002f630   0x00000008   Data   RO          882    log_const_data      nrf_drv_saadc.o
    0x0002f638   0x0002f638   0x00000008   Data   RO          937    log_const_data      nrf_drv_ppi.o
    0x0002f640   0x0002f640   0x00000008   Data   RO         1320    log_const_data      nrf_balloc.o
    0x0002f648   0x0002f648   0x00000008   Data   RO         1486    log_const_data      nrf_pwr_mgmt.o
    0x0002f650   0x0002f650   0x00000008   Data   RO         1729    log_const_data      nrf_log_frontend.o
    0x0002f658   0x0002f658   0x00000008   Data   RO         1869    log_const_data      nrf_sdh_ble.o
    0x0002f660   0x0002f660   0x00000008   Data   RO         1904    log_const_data      nrf_sdh_soc.o
    0x0002f668   0x0002f668   0x00000008   Data   RO         1936    log_const_data      nrf_sdh.o
    0x0002f670   0x0002f670   0x00000008   Data   RO          539    sdh_ble_observers0  ble_conn_state.o
    0x0002f678   0x0002f678   0x00000018   Data   RO            8    sdh_ble_observers1  main.o
    0x0002f690   0x0002f690   0x00000008   Data   RO          438    sdh_ble_observers1  bsp_btn_ble.o
    0x0002f698   0x0002f698   0x00000008   Data   RO          506    sdh_ble_observers1  ble_conn_params.o
    0x0002f6a0   0x0002f6a0   0x00000008   Data   RO            9    sdh_ble_observers2  main.o
    0x0002f6a8   0x0002f6a8   0x00000008   Data   RO           10    sdh_ble_observers3  main.o
    0x0002f6b0   0x0002f6b0   0x00000008   Data   RO          716    sdh_soc_observers0  nrf_drv_clock.o
    0x0002f6b8   0x0002f6b8   0x00000008   Data   RO           11    sdh_soc_observers1  main.o
    0x0002f6c0   0x0002f6c0   0x00000008   Data   RO         1871    sdh_stack_observers0  nrf_sdh_ble.o
    0x0002f6c8   0x0002f6c8   0x00000008   Data   RO         1906    sdh_stack_observers0  nrf_sdh_soc.o
    0x0002f6d0   0x0002f6d0   0x00000008   Data   RO          717    sdh_state_observers0  nrf_drv_clock.o


    Execution Region RW_IRAM1 (Exec base: 0x20002a18, Load base: 0x0002f6d8, Size: 0x00003e30, Max: 0x0003d5e8, ABSOLUTE, COMPRESSED[0x00000054])

    Exec Addr    Load Addr    Size         Type   Attr      Idx    E Section Name        Object

    0x20002a18   COMPRESSED   0x00000010   Data   RW            7    .data               main.o
    0x20002a28   COMPRESSED   0x00000015   Data   RW          399    .data               bsp.o
    0x20002a3d   COMPRESSED   0x00000003   PAD
    0x20002a40   COMPRESSED   0x00000008   Data   RW          437    .data               bsp_btn_ble.o
    0x20002a48   COMPRESSED   0x00000008   Data   RW          505    .data               ble_conn_params.o
    0x20002a50   COMPRESSED   0x00000014   Data   RW          991    .data               app_button.o
    0x20002a64   COMPRESSED   0x00000014   Data   RW         1151    .data               app_timer.o
    0x20002a78   COMPRESSED   0x00000004   Data   RW         1203    .data               app_util_platform.o
    0x20002a7c   COMPRESSED   0x0000000c   Data   RW         1690    .data               nrf_log_default_backends.o
    0x20002a88   COMPRESSED   0x00000014   Data   RW         1728    .data               nrf_log_frontend.o
    0x20002a9c   COMPRESSED   0x00000038   Data   RW         1771    .data               nrf_log_str_formatter.o
    0x20002ad4   COMPRESSED   0x00000011   Data   RW         1801    .data               segger_rtt.o
    0x20002ae5   COMPRESSED   0x00000003   Data   RW         1935    .data               nrf_sdh.o
    0x20002ae8   COMPRESSED   0x00000004   Data   RW         1980    .data               system_nrf52840.o
    0x20002aec   COMPRESSED   0x0000000c   Data   RW          610    log_dynamic_data    nrf_ble_gatt.o
    0x20002af8   COMPRESSED   0x0000000c   Data   RW          715    log_dynamic_data    nrf_drv_clock.o
    0x20002b04   COMPRESSED   0x0000000c   Data   RW          795    log_dynamic_data    nrf_drv_gpiote.o
    0x20002b10   COMPRESSED   0x0000000c   Data   RW          883    log_dynamic_data    nrf_drv_saadc.o
    0x20002b1c   COMPRESSED   0x0000000c   Data   RW          938    log_dynamic_data    nrf_drv_ppi.o
    0x20002b28   COMPRESSED   0x0000000c   Data   RW         1321    log_dynamic_data    nrf_balloc.o
    0x20002b34   COMPRESSED   0x0000000c   Data   RW         1487    log_dynamic_data    nrf_pwr_mgmt.o
    0x20002b40   COMPRESSED   0x0000000c   Data   RW         1730    log_dynamic_data    nrf_log_frontend.o
    0x20002b4c   COMPRESSED   0x0000000c   Data   RW         1870    log_dynamic_data    nrf_sdh_ble.o
    0x20002b58   COMPRESSED   0x0000000c   Data   RW         1905    log_dynamic_data    nrf_sdh_soc.o
    0x20002b64   COMPRESSED   0x0000000c   Data   RW         1937    log_dynamic_data    nrf_sdh.o
    0x20002b70        -       0x00000bb8   Zero   RW            5    .bss                main.o
    0x20003728        -       0x0000006c   Zero   RW          397    .bss                bsp.o
    0x20003794        -       0x00000050   Zero   RW          504    .bss                ble_conn_params.o
    0x200037e4        -       0x000000b8   Zero   RW          538    .bss                ble_conn_state.o
    0x2000389c        -       0x00000014   Zero   RW          711    .bss                nrf_drv_clock.o
    0x200038b0        -       0x00000068   Zero   RW          791    .bss                nrf_drv_gpiote.o
    0x20003918        -       0x00000030   Zero   RW          879    .bss                nrf_drv_saadc.o
    0x20003948        -       0x00000020   Zero   RW          989    .bss                app_button.o
    0x20003968        -       0x00000020   Zero   RW         1020    .bss                app_error.o
    0x20003988        -       0x0000010c   Zero   RW         1150    .bss                app_timer.o
    0x20003a94        -       0x0000000c   Zero   RW         1202    .bss                app_util_platform.o
    0x20003aa0        -       0x00000040   Zero   RW         1612    .bss                nrf_log_backend_rtt.o
    0x20003ae0        -       0x000004e0   Zero   RW         1724    .bss                nrf_log_frontend.o
    0x20003fc0        -       0x00000888   Zero   RW         1800    .bss                segger_rtt.o
    0x20004848        -       0x00002000   Zero   RW         1969    STACK               arm_startup_nrf52840.o


==============================================================================

Image component sizes


      Code (inc. data)   RO Data    RW Data    ZI Data      Debug   Object Name

       512         36          8         20         32       5920   app_button.o
       196          4          0          0         32       3919   app_error.o
       368        152          0          0          0       4978   app_error_weak.o
      2140        112          0         20        268      39410   app_timer.o
       320         24          0          4         12      37017   app_util_platform.o
        36          8        512          0       8192        988   arm_startup_nrf52840.o
      1858          0          0          0          0      33557   ble_advdata.o
      1028         20          8          8         80      10207   ble_conn_params.o
       912         66          8          0        184       7965   ble_conn_state.o
       984          4         32          0          0       6126   ble_nus.o
      1028         68          0          0          0      25350   ble_srv_common.o
       536         12          8          0          0       9327   boards.o
      1612        116         44         21        108      11344   bsp.o
       412          8          8          8          0       8518   bsp_btn_ble.o
      1256         44          0          0          0       7466   eartag_adv.o
      1120         12          0          0          0       6561   eartag_scan.o
      3552        474         57         16       3000     203764   main.o
       218          0         15         12          0       3369   nrf_balloc.o
      1108         24        340         12          0      41802   nrf_ble_gatt.o
      1008         20         30         12         20      41144   nrf_drv_clock.o
       124         18          0          0          0      29792   nrf_drv_common.o
      2564         66         90         12        104      27704   nrf_drv_gpiote.o
         0          0         12         12          0       5484   nrf_drv_ppi.o
      1800         36        203         12         48      17526   nrf_drv_saadc.o
        70          0          0          0          0       3279   nrf_fprintf.o
      1016          4         16          0          0       4314   nrf_fprintf_format.o
       108         10         12          0         64       3773   nrf_log_backend_rtt.o
       254          0          0          0          0      10743   nrf_log_backend_serial.o
        36          4          0         12          0       3410   nrf_log_default_backends.o
      2746         40         41         32       1248      29088   nrf_log_frontend.o
       532         58        102         56          0       3906   nrf_log_str_formatter.o
       660          0          0          0          0       9843   nrf_memobj.o
         0          0         17         12          0      35712   nrf_pwr_mgmt.o
       112          4          0          0          0       6869   nrf_saadc.o
       940        114        104         15          0      36500   nrf_sdh.o
       808        222        539         12          0      11967   nrf_sdh_ble.o
       152         68         56         12          0       3012   nrf_sdh_soc.o
       112          0          0          0          0       1866   nrf_section_iter.o
        92         10       1035          0          0       2413   nrf_strerror.o
       406          0          0          0          0       4951   sdk_mapped_flags.o
      2820         56          0         17       2184      15843   segger_rtt.o
       748         78          0          4          0       2565   system_nrf52840.o

    ----------------------------------------------------------------------
     36316       1992       3356        344      15576     779292   Object Totals
         0          0         32          0          0          0   (incl. Generated)
        12          0         27          3          0          0   (incl. Padding)

    ----------------------------------------------------------------------

      Code (inc. data)   RO Data    RW Data    ZI Data      Debug   Library Member Name

       224         30          0          0          0        172   round.o
        86          0          0          0          0          0   __dczerorl2.o
         8          4        133          0          0         68   ctype_o.o
         0          0          0          0          0          0   entry.o
         0          0          0          0          0          0   entry10a.o
         0          0          0          0          0          0   entry11a.o
         8          4          0          0          0          0   entry2.o
         4          0          0          0          0          0   entry5.o
         0          0          0          0          0          0   entry7b.o
         0          0          0          0          0          0   entry8b.o
         8          4          0          0          0          0   entry9a.o
        30          0          0          0          0          0   handlers.o
        36          8          0          0          0         68   init.o
         0          0          0          0          0          0   iusefp.o
        30          0          0          0          0         68   llshl.o
        36          0          0          0          0         68   llsshr.o
        32          0          0          0          0         68   llushr.o
        26          0          0          0          0         80   memcmp.o
        36          0          0          0          0         68   memcpya.o
        36          0          0          0          0        108   memseta.o
      1172         50          0          0          0        420   printf8.o
       156          0          0          0          0         88   qsort.o
        18          0          0          0          0         68   strcpy.o
        14          0          0          0          0         68   strlen.o
        98          0          0          0          0         92   uldiv.o
        48          0          0          0          0         68   cdcmple.o
        48          0          0          0          0         68   cdrcmple.o
       334          0          0          0          0        148   dadd.o
       186          0          0          0          0        176   depilogue.o
        50          0          0          0          0         76   dfixui.o
        34          0          0          0          0         76   dflti.o
       136          4          0          0          0         92   drnd.o

    ----------------------------------------------------------------------
      2904        108        136          0          0       2208   Library Totals
        10          4          3          0          0          0   (incl. Padding)

    ----------------------------------------------------------------------

      Code (inc. data)   RO Data    RW Data    ZI Data      Debug   Library Name

       224         30          0          0          0        172   m_wm.l
      1834         70        133          0          0       1332   mc_w.l
       836          4          0          0          0        704   mf_w.l

    ----------------------------------------------------------------------
      2904        108        136          0          0       2208   Library Totals

    ----------------------------------------------------------------------

==============================================================================


      Code (inc. data)   RO Data    RW Data    ZI Data      Debug   

     39220       2100       3492        344      15576     774144   Grand Totals
     39220       2100       3492         84      15576     774144   ELF Image Totals (compressed)
     39220       2100       3492         84          0          0   ROM Totals

==============================================================================

    Total RO  Size (Code + RO Data)                42712 (  41.71kB)
    Total RW  Size (RW Data + ZI Data)             15920 (  15.55kB)
    Total ROM Size (Code + RO Data + RW Data)      42796 (  41.79kB)

==============================================================================

