Component: ARM Compiler 5.06 update 5 (build 528) Tool: armlink [4d35e2]

==============================================================================

Section Cross References

    main.o(i.advertising_init) refers to memseta.o(.text) for __aeabi_memclr4
    main.o(i.advertising_init) refers to eartag_adv.o(i.eartag_adv_init) for eartag_adv_init
    main.o(i.advertising_init) refers to app_error.o(i.app_error_handler) for app_error_handler
    main.o(i.advertising_init) refers to main.o(.data) for m_adv_uuids
    main.o(i.advertising_init) refers to main.o(i.eartag_adv_evt_handler) for eartag_adv_evt_handler
    main.o(i.advertising_init) refers to main.o(i.eartag_adv_error_handler) for eartag_adv_error_handler
    main.o(i.advertising_init) refers to main.o(.bss) for m_adv
    main.o(i.assert_nrf_callback) refers to app_error.o(i.app_error_handler) for app_error_handler
    main.o(i.ble_evt_handler) refers to nrf_log_frontend.o(i.nrf_log_frontend_std_0) for nrf_log_frontend_std_0
    main.o(i.ble_evt_handler) refers to bsp.o(i.bsp_indication_set) for bsp_indication_set
    main.o(i.ble_evt_handler) refers to app_error.o(i.app_error_handler) for app_error_handler
    main.o(i.ble_evt_handler) refers to memcpya.o(.text) for __aeabi_memcpy
    main.o(i.ble_evt_handler) refers to nrf_log_frontend.o(log_dynamic_data) for m_nrf_log_app_logs_data_dynamic
    main.o(i.ble_evt_handler) refers to main.o(.data) for m_conn_handle
    main.o(i.ble_stack_init) refers to nrf_sdh.o(i.nrf_sdh_enable_request) for nrf_sdh_enable_request
    main.o(i.ble_stack_init) refers to app_error.o(i.app_error_handler) for app_error_handler
    main.o(i.ble_stack_init) refers to nrf_sdh_ble.o(i.nrf_sdh_ble_default_cfg_set) for nrf_sdh_ble_default_cfg_set
    main.o(i.ble_stack_init) refers to nrf_sdh_ble.o(i.nrf_sdh_ble_enable) for nrf_sdh_ble_enable
==============================================================================

Removing Unused input sections from the image.

    Removing main.o(.rev16_text), (4 bytes).
    Removing main.o(.revsh_text), (4 bytes).
    Removing main.o(.rrx_text), (6 bytes).
    Removing main.o(i.assert_nrf_callback), (24 bytes).
    Removing main.o(i.saadc_callback), (164 bytes).
    Removing main.o(i.saadc_init), (172 bytes).
    Removing main.o(i.saadc_sampling_event_enable), (56 bytes).
    Removing main.o(i.timer_handler), (36 bytes).
    Removing main.o(.constdata), (9 bytes).
    Removing eartag_adv.o(.rev16_text), (4 bytes).
    Removing eartag_adv.o(.revsh_text), (4 bytes).
    Removing eartag_adv.o(.rrx_text), (6 bytes).
    Removing eartag_adv.o(i.eartag_adv_conn_cfg_tag_set), (24 bytes).
    Removing eartag_file.o(.rev16_text), (4 bytes).
    Removing eartag_file.o(.revsh_text), (4 bytes).
    Removing eartag_file.o(.rrx_text), (6 bytes).
    Removing eartag_file.o(i.eartag_file_db_clear), (68 bytes).
    Removing eartag_scan.o(.rev16_text), (4 bytes).
==============================================================================

Image Symbol Table

    Local Symbols

    Symbol Name                              Value     Ov Type        Size  Object(Section)

    ../clib/../cmprslib/zerorunl2.c          0x00000000   Number         0  __dczerorl2.o ABSOLUTE
    ../clib/microlib/ctype/ctype.c           0x00000000   Number         0  ctype_o.o ABSOLUTE
    ../clib/microlib/ctype/ctype.c           0x00000000   Number         0  ispunct_o.o ABSOLUTE
    ../clib/microlib/ctype/ctype.c           0x00000000   Number         0  isprint_o.o ABSOLUTE
    ../clib/microlib/ctype/ctype.c           0x00000000   Number         0  isgraph_o.o ABSOLUTE
    ../clib/microlib/ctype/ctype.c           0x00000000   Number         0  isspace_o.o ABSOLUTE
    ../clib/microlib/ctype/ctype.c           0x00000000   Number         0  isxdigit_o.o ABSOLUTE
    ../clib/microlib/ctype/ctype.c           0x00000000   Number         0  iscntrl_o.o ABSOLUTE
    ../clib/microlib/ctype/ctype.c           0x00000000   Number         0  isalnum_o.o ABSOLUTE
    ../clib/microlib/ctype/ctype.c           0x00000000   Number         0  isblank_o.o ABSOLUTE
    ../clib/microlib/ctype/ctype.c           0x00000000   Number         0  isalpha_o.o ABSOLUTE
    ../clib/microlib/ctype/ctype.c           0x00000000   Number         0  isupper_o.o ABSOLUTE
    ../clib/microlib/ctype/ctype.c           0x00000000   Number         0  islower_o.o ABSOLUTE
    ../clib/microlib/ctype/ctype.c           0x00000000   Number         0  isdigit_o.o ABSOLUTE
    ../clib/microlib/division.c              0x00000000   Number         0  uldiv.o ABSOLUTE
    ../clib/microlib/division.c              0x00000000   Number         0  uidiv.o ABSOLUTE
    ../clib/microlib/init/entry.s            0x00000000   Number         0  entry2.o ABSOLUTE
    ../clib/microlib/init/entry.s            0x00000000   Number         0  entry11b.o ABSOLUTE
    ../clib/microlib/init/entry.s            0x00000000   Number         0  entry11a.o ABSOLUTE
    ../clib/microlib/init/entry.s            0x00000000   Number         0  entry8a.o ABSOLUTE
    ../clib/microlib/init/entry.s            0x00000000   Number         0  entry.o ABSOLUTE
    ../clib/microlib/init/entry.s            0x00000000   Number         0  entry10a.o ABSOLUTE
    ../clib/microlib/init/entry.s            0x00000000   Number         0  entry10b.o ABSOLUTE
    ../clib/microlib/init/entry.s            0x00000000   Number         0  entry9b.o ABSOLUTE
    ../clib/microlib/init/entry.s            0x00000000   Number         0  entry9a.o ABSOLUTE
    ../clib/microlib/init/entry.s            0x00000000   Number         0  entry8b.o ABSOLUTE
    ../clib/microlib/init/entry.s            0x00000000   Number         0  entry7b.o ABSOLUTE
    ../clib/microlib/init/entry.s            0x00000000   Number         0  entry7a.o ABSOLUTE
    ../clib/microlib/init/entry.s            0x00000000   Number         0  entry5.o ABSOLUTE
    ../clib/microlib/longlong.c              0x00000000   Number         0  llsshr.o ABSOLUTE
    ../clib/microlib/longlong.c              0x00000000   Number         0  llshl.o ABSOLUTE
    ../clib/microlib/longlong.c              0x00000000   Number         0  llushr.o ABSOLUTE
    ../clib/microlib/malloc/malloc.c         0x00000000   Number         0  malloc.o ABSOLUTE
    ../clib/microlib/malloc/malloc.c         0x00000000   Number         0  mallocr.o ABSOLUTE
    ../clib/microlib/malloc/malloc.c         0x00000000   Number         0  mallocra.o ABSOLUTE
    ../clib/microlib/malloc/malloc.c         0x00000000   Number         0  malloca.o ABSOLUTE
    ../clib/microlib/malloc/mvars.c          0x00000000   Number         0  mvars.o ABSOLUTE
    ../clib/microlib/printf/printf.c         0x00000000   Number         0  printf3.o ABSOLUTE
    ../clib/microlib/printf/printf.c         0x00000000   Number         0  printf2.o ABSOLUTE
    ../clib/microlib/printf/printf.c         0x00000000   Number         0  printf1.o ABSOLUTE
    ../clib/microlib/printf/printf.c         0x00000000   Number         0  printfb.o ABSOLUTE
    ../clib/microlib/printf/printf.c         0x00000000   Number         0  printf0.o ABSOLUTE
    ../clib/microlib/printf/printf.c         0x00000000   Number         0  printfa.o ABSOLUTE
    ../clib/microlib/printf/printf.c         0x00000000   Number         0  printf8.o ABSOLUTE
    ../clib/microlib/printf/printf.c         0x00000000   Number         0  printf7.o ABSOLUTE
    ../clib/microlib/printf/printf.c         0x00000000   Number         0  printf6.o ABSOLUTE
    ../clib/microlib/printf/printf.c         0x00000000   Number         0  printf5.o ABSOLUTE
    ../clib/microlib/printf/printf.c         0x00000000   Number         0  printf4.o ABSOLUTE
    ../clib/microlib/printf/stubs.s          0x00000000   Number         0  stubs.o ABSOLUTE
    ../clib/microlib/stdio/fputc.c           0x00000000   Number         0  fputc.o ABSOLUTE
    ../clib/microlib/stdio/semi.s            0x00000000   Number         0  semi.o ABSOLUTE
    ../clib/microlib/stdio/streams.c         0x00000000   Number         0  stdout.o ABSOLUTE
    ../clib/microlib/stdlib/qsort.c          0x00000000   Number         0  qsort.o ABSOLUTE
    ../clib/microlib/string/memcmp.c         0x00000000   Number         0  memcmp.o ABSOLUTE
    ../clib/microlib/string/memcpy.c         0x00000000   Number         0  memcpya.o ABSOLUTE
    ../clib/microlib/string/memcpy.c         0x00000000   Number         0  memcpyb.o ABSOLUTE
    ../clib/microlib/string/memset.c         0x00000000   Number         0  memseta.o ABSOLUTE
    ../clib/microlib/string/strcpy.c         0x00000000   Number         0  strcpy.o ABSOLUTE
    ../clib/microlib/string/strlen.c         0x00000000   Number         0  strlen.o ABSOLUTE
    ../clib/microlib/stubs.s                 0x00000000   Number         0  iusefp.o ABSOLUTE
    ../clib/microlib/stubs.s                 0x00000000   Number         0  iusesemip.o ABSOLUTE
    ../fplib/microlib/fpadd.c                0x00000000   Number         0  dadd.o ABSOLUTE
    ../fplib/microlib/fpdiv.c                0x00000000   Number         0  ddiv.o ABSOLUTE
    ../fplib/microlib/fpepilogue.c           0x00000000   Number         0  depilogue.o ABSOLUTE
    ../fplib/microlib/fpfix.c                0x00000000   Number         0  dfixul.o ABSOLUTE
    ../fplib/microlib/fpmul.c                0x00000000   Number         0  dmul.o ABSOLUTE
    ..\..\..\..\..\..\components\ble\ble_services\ble_nus\ble_nus.c 0x00000000   Number         0  ble_nus.o ABSOLUTE
    ..\..\..\..\..\..\components\ble\common\ble_advdata.c 0x00000000   Number         0  ble_advdata.o ABSOLUTE
    ..\..\..\..\..\..\components\ble\common\ble_conn_params.c 0x00000000   Number         0  ble_conn_params.o ABSOLUTE
    ..\..\..\..\..\..\components\ble\common\ble_conn_state.c 0x00000000   Number         0  ble_conn_state.o ABSOLUTE
    ..\..\..\..\..\..\components\ble\common\ble_srv_common.c 0x00000000   Number         0  ble_srv_common.o ABSOLUTE
    ..\..\..\..\..\..\components\ble\nrf_ble_gatt\nrf_ble_gatt.c 0x00000000   Number         0  nrf_ble_gatt.o ABSOLUTE
    ..\..\..\..\..\..\components\boards\boards.c 0x00000000   Number         0  boards.o ABSOLUTE
    ..\..\..\..\..\..\components\custom\eartag_adv\eartag_adv.c 0x00000000   Number         0  eartag_adv.o ABSOLUTE
    ..\..\..\..\..\..\components\custom\eartag_file\eartag_file.c 0x00000000   Number         0  eartag_file.o ABSOLUTE
    ..\..\..\..\..\..\components\custom\eartag_scan\eartag_scan.c 0x00000000   Number         0  eartag_scan.o ABSOLUTE
    ..\..\..\..\..\..\components\drivers_nrf\clock\nrf_drv_clock.c 0x00000000   Number         0  nrf_drv_clock.o ABSOLUTE
    ..\..\..\..\..\..\components\drivers_nrf\common\nrf_drv_common.c 0x00000000   Number         0  nrf_drv_common.o ABSOLUTE
    ..\..\..\..\..\..\components\drivers_nrf\gpiote\nrf_drv_gpiote.c 0x00000000   Number         0  nrf_drv_gpiote.o ABSOLUTE
    ..\..\..\..\..\..\components\drivers_nrf\hal\nrf_saadc.c 0x00000000   Number         0  nrf_saadc.o ABSOLUTE
    ..\..\..\..\..\..\components\drivers_nrf\ppi\nrf_drv_ppi.c 0x00000000   Number         0  nrf_drv_ppi.o ABSOLUTE
    ..\..\..\..\..\..\components\drivers_nrf\saadc\nrf_drv_saadc.c 0x00000000   Number         0  nrf_drv_saadc.o ABSOLUTE
    ..\..\..\..\..\..\components\drivers_nrf\timer\nrf_drv_timer.c 0x00000000   Number         0  nrf_drv_timer.o ABSOLUTE
    ..\..\..\..\..\..\components\drivers_nrf\uart\nrf_drv_uart.c 0x00000000   Number         0  nrf_drv_uart.o ABSOLUTE
    ..\..\..\..\..\..\components\libraries\atomic_fifo\nrf_atfifo.c 0x00000000   Number         0  nrf_atfifo.o ABSOLUTE
    ..\..\..\..\..\..\components\libraries\balloc\nrf_balloc.c 0x00000000   Number         0  nrf_balloc.o ABSOLUTE
    ..\..\..\..\..\..\components\libraries\bsp\bsp.c 0x00000000   Number         0  bsp.o ABSOLUTE
    ..\..\..\..\..\..\components\libraries\bsp\bsp_btn_ble.c 0x00000000   Number         0  bsp_btn_ble.o ABSOLUTE
    ..\..\..\..\..\..\components\libraries\bsp\bsp_nfc.c 0x00000000   Number         0  bsp_nfc.o ABSOLUTE
    ..\..\..\..\..\..\components\libraries\button\app_button.c 0x00000000   Number         0  app_button.o ABSOLUTE
    ..\..\..\..\..\..\components\libraries\experimental_log\src\nrf_log_backend_rtt.c 0x00000000   Number         0  nrf_log_backend_rtt.o ABSOLUTE
    ..\..\..\..\..\..\components\libraries\experimental_log\src\nrf_log_backend_serial.c 0x00000000   Number         0  nrf_log_backend_serial.o ABSOLUTE
    ..\..\..\..\..\..\components\libraries\experimental_log\src\nrf_log_default_backends.c 0x00000000   Number         0  nrf_log_default_backends.o ABSOLUTE
    ..\..\..\..\..\..\components\libraries\experimental_log\src\nrf_log_frontend.c 0x00000000   Number         0  nrf_log_frontend.o ABSOLUTE
    ..\..\..\..\..\..\components\libraries\experimental_log\src\nrf_log_str_formatter.c 0x00000000   Number         0  nrf_log_str_formatter.o ABSOLUTE
    ..\..\..\..\..\..\components\libraries\experimental_memobj\nrf_memobj.c 0x00000000   Number         0  nrf_memobj.o ABSOLUTE
    ..\..\..\..\..\..\components\libraries\experimental_section_vars\nrf_section_iter.c 0x00000000   Number         0  nrf_section_iter.o ABSOLUTE
    ..\..\..\..\..\..\components\libraries\fds\fds.c 0x00000000   Number         0  fds.o ABSOLUTE
    ..\..\..\..\..\..\components\libraries\fifo\app_fifo.c 0x00000000   Number         0  app_fifo.o ABSOLUTE
    ..\..\..\..\..\..\components\libraries\fstorage\nrf_fstorage.c 0x00000000   Number         0  nrf_fstorage.o ABSOLUTE
    ..\..\..\..\..\..\components\libraries\fstorage\nrf_fstorage_sd.c 0x00000000   Number         0  nrf_fstorage_sd.o ABSOLUTE
    ..\..\..\..\..\..\components\libraries\hardfault\hardfault_implementation.c 0x00000000   Number         0  hardfault_implementation.o ABSOLUTE
    ..\..\..\..\..\..\components\libraries\pwr_mgmt\nrf_pwr_mgmt.c 0x00000000   Number         0  nrf_pwr_mgmt.o ABSOLUTE
    ..\..\..\..\..\..\components\libraries\scheduler\app_scheduler.c 0x00000000   Number         0  app_scheduler.o ABSOLUTE
    ..\..\..\..\..\..\components\libraries\strerror\nrf_strerror.c 0x00000000   Number         0  nrf_strerror.o ABSOLUTE
    ..\..\..\..\..\..\components\libraries\timer\app_timer.c 0x00000000   Number         0  app_timer.o ABSOLUTE
    ..\..\..\..\..\..\components\libraries\uart\app_uart_fifo.c 0x00000000   Number         0  app_uart_fifo.o ABSOLUTE
    ..\..\..\..\..\..\components\libraries\util\app_error.c 0x00000000   Number         0  app_error.o ABSOLUTE
    ..\..\..\..\..\..\components\libraries\util\app_error_weak.c 0x00000000   Number         0  app_error_weak.o ABSOLUTE
    ..\..\..\..\..\..\components\libraries\util\app_util_platform.c 0x00000000   Number         0  app_util_platform.o ABSOLUTE
    ..\..\..\..\..\..\components\libraries\util\nrf_assert.c 0x00000000   Number         0  nrf_assert.o ABSOLUTE
    ..\..\..\..\..\..\components\libraries\util\sdk_mapped_flags.c 0x00000000   Number         0  sdk_mapped_flags.o ABSOLUTE
    ..\..\..\..\..\..\components\softdevice\common\nrf_sdh.c 0x00000000   Number         0  nrf_sdh.o ABSOLUTE
    ..\..\..\..\..\..\components\softdevice\common\nrf_sdh_ble.c 0x00000000   Number         0  nrf_sdh_ble.o ABSOLUTE
    ..\..\..\..\..\..\components\softdevice\common\nrf_sdh_soc.c 0x00000000   Number         0  nrf_sdh_soc.o ABSOLUTE
    ..\..\..\..\..\..\external\fprintf\nrf_fprintf.c 0x00000000   Number         0  nrf_fprintf.o ABSOLUTE
    ..\..\..\..\..\..\external\fprintf\nrf_fprintf_format.c 0x00000000   Number         0  nrf_fprintf_format.o ABSOLUTE
    ..\..\..\..\..\..\external\segger_rtt\SEGGER_RTT.c 0x00000000   Number         0  segger_rtt.o ABSOLUTE
    ..\..\..\..\..\..\external\segger_rtt\SEGGER_RTT_Syscalls_KEIL.c 0x00000000   Number         0  segger_rtt_syscalls_keil.o ABSOLUTE
    ..\..\..\..\..\..\external\segger_rtt\SEGGER_RTT_printf.c 0x00000000   Number         0  segger_rtt_printf.o ABSOLUTE
    ..\..\..\main.c                          0x00000000   Number         0  main.o ABSOLUTE
    ..\\..\\..\\..\\..\\..\\components\\ble\\ble_services\\ble_nus\\ble_nus.c 0x00000000   Number         0  ble_nus.o ABSOLUTE
    ..\\..\\..\\..\\..\\..\\components\\ble\\common\\ble_advdata.c 0x00000000   Number         0  ble_advdata.o ABSOLUTE
    ..\\..\\..\\..\\..\\..\\components\\ble\\common\\ble_conn_params.c 0x00000000   Number         0  ble_conn_params.o ABSOLUTE
    ..\\..\\..\\..\\..\\..\\components\\ble\\common\\ble_conn_state.c 0x00000000   Number         0  ble_conn_state.o ABSOLUTE
    ..\\..\\..\\..\\..\\..\\components\\ble\\common\\ble_srv_common.c 0x00000000   Number         0  ble_srv_common.o ABSOLUTE
    ..\\..\\..\\..\\..\\..\\components\\ble\\nrf_ble_gatt\\nrf_ble_gatt.c 0x00000000   Number         0  nrf_ble_gatt.o ABSOLUTE
    ..\\..\\..\\..\\..\\..\\components\\boards\\boards.c 0x00000000   Number         0  boards.o ABSOLUTE
    ..\\..\\..\\..\\..\\..\\components\\custom\\eartag_adv\\eartag_adv.c 0x00000000   Number         0  eartag_adv.o ABSOLUTE
    ..\\..\\..\\..\\..\\..\\components\\custom\\eartag_file\\eartag_file.c 0x00000000   Number         0  eartag_file.o ABSOLUTE
    ..\\..\\..\\..\\..\\..\\components\\custom\\eartag_scan\\eartag_scan.c 0x00000000   Number         0  eartag_scan.o ABSOLUTE
    ..\\..\\..\\..\\..\\..\\components\\drivers_nrf\\clock\\nrf_drv_clock.c 0x00000000   Number         0  nrf_drv_clock.o ABSOLUTE
    ..\\..\\..\\..\\..\\..\\components\\drivers_nrf\\common\\nrf_drv_common.c 0x00000000   Number         0  nrf_drv_common.o ABSOLUTE
    ..\\..\\..\\..\\..\\..\\components\\drivers_nrf\\gpiote\\nrf_drv_gpiote.c 0x00000000   Number         0  nrf_drv_gpiote.o ABSOLUTE
    ..\\..\\..\\..\\..\\..\\components\\drivers_nrf\\hal\\nrf_saadc.c 0x00000000   Number         0  nrf_saadc.o ABSOLUTE
    ..\\..\\..\\..\\..\\..\\components\\drivers_nrf\\ppi\\nrf_drv_ppi.c 0x00000000   Number         0  nrf_drv_ppi.o ABSOLUTE
    ..\\..\\..\\..\\..\\..\\components\\drivers_nrf\\saadc\\nrf_drv_saadc.c 0x00000000   Number         0  nrf_drv_saadc.o ABSOLUTE
    ..\\..\\..\\..\\..\\..\\components\\drivers_nrf\\timer\\nrf_drv_timer.c 0x00000000   Number         0  nrf_drv_timer.o ABSOLUTE
    ..\\..\\..\\..\\..\\..\\components\\drivers_nrf\\uart\\nrf_drv_uart.c 0x00000000   Number         0  nrf_drv_uart.o ABSOLUTE
    ..\\..\\..\\..\\..\\..\\components\\libraries\\atomic_fifo\\nrf_atfifo.c 0x00000000   Number         0  nrf_atfifo.o ABSOLUTE
    ..\\..\\..\\..\\..\\..\\components\\libraries\\balloc\\nrf_balloc.c 0x00000000   Number         0  nrf_balloc.o ABSOLUTE
    ..\\..\\..\\..\\..\\..\\components\\libraries\\bsp\\bsp.c 0x00000000   Number         0  bsp.o ABSOLUTE
    ..\\..\\..\\..\\..\\..\\components\\libraries\\bsp\\bsp_btn_ble.c 0x00000000   Number         0  bsp_btn_ble.o ABSOLUTE
    ..\\..\\..\\..\\..\\..\\components\\libraries\\bsp\\bsp_nfc.c 0x00000000   Number         0  bsp_nfc.o ABSOLUTE
    ..\\..\\..\\..\\..\\..\\components\\libraries\\button\\app_button.c 0x00000000   Number         0  app_button.o ABSOLUTE
    ..\\..\\..\\..\\..\\..\\components\\libraries\\experimental_log\\src\\nrf_log_backend_rtt.c 0x00000000   Number         0  nrf_log_backend_rtt.o ABSOLUTE
    ..\\..\\..\\..\\..\\..\\components\\libraries\\experimental_log\\src\\nrf_log_backend_serial.c 0x00000000   Number         0  nrf_log_backend_serial.o ABSOLUTE
    ..\\..\\..\\..\\..\\..\\components\\libraries\\experimental_log\\src\\nrf_log_default_backends.c 0x00000000   Number         0  nrf_log_default_backends.o ABSOLUTE
    ..\\..\\..\\..\\..\\..\\components\\libraries\\experimental_log\\src\\nrf_log_frontend.c 0x00000000   Number         0  nrf_log_frontend.o ABSOLUTE
    ..\\..\\..\\..\\..\\..\\components\\libraries\\experimental_log\\src\\nrf_log_str_formatter.c 0x00000000   Number         0  nrf_log_str_formatter.o ABSOLUTE
    ..\\..\\..\\..\\..\\..\\components\\libraries\\experimental_memobj\\nrf_memobj.c 0x00000000   Number         0  nrf_memobj.o ABSOLUTE
    ..\\..\\..\\..\\..\\..\\components\\libraries\\experimental_section_vars\\nrf_section_iter.c 0x00000000   Number         0  nrf_section_iter.o ABSOLUTE
    ..\\..\\..\\..\\..\\..\\components\\libraries\\fds\\fds.c 0x00000000   Number         0  fds.o ABSOLUTE
    ..\\..\\..\\..\\..\\..\\components\\libraries\\fifo\\app_fifo.c 0x00000000   Number         0  app_fifo.o ABSOLUTE
    ..\\..\\..\\..\\..\\..\\components\\libraries\\fstorage\\nrf_fstorage_sd.c 0x00000000   Number         0  nrf_fstorage_sd.o ABSOLUTE
    ..\\..\\..\\..\\..\\..\\components\\libraries\\hardfault\\hardfault_implementation.c 0x00000000   Number         0  hardfault_implementation.o ABSOLUTE
    ..\\..\\..\\..\\..\\..\\components\\libraries\\pwr_mgmt\\nrf_pwr_mgmt.c 0x00000000   Number         0  nrf_pwr_mgmt.o ABSOLUTE
    ..\\..\\..\\..\\..\\..\\components\\libraries\\scheduler\\app_scheduler.c 0x00000000   Number         0  app_scheduler.o ABSOLUTE
    ..\\..\\..\\..\\..\\..\\components\\libraries\\strerror\\nrf_strerror.c 0x00000000   Number         0  nrf_strerror.o ABSOLUTE
    ..\\..\\..\\..\\..\\..\\components\\libraries\\timer\\app_timer.c 0x00000000   Number         0  app_timer.o ABSOLUTE
    ..\\..\\..\\..\\..\\..\\components\\libraries\\uart\\app_uart_fifo.c 0x00000000   Number         0  app_uart_fifo.o ABSOLUTE
    ..\\..\\..\\..\\..\\..\\components\\libraries\\util\\app_error.c 0x00000000   Number         0  app_error.o ABSOLUTE
    ..\\..\\..\\..\\..\\..\\components\\libraries\\util\\app_error_weak.c 0x00000000   Number         0  app_error_weak.o ABSOLUTE
    ..\\..\\..\\..\\..\\..\\components\\libraries\\util\\app_util_platform.c 0x00000000   Number         0  app_util_platform.o ABSOLUTE
    ..\\..\\..\\..\\..\\..\\components\\libraries\\util\\nrf_assert.c 0x00000000   Number         0  nrf_assert.o ABSOLUTE
    ..\\..\\..\\..\\..\\..\\components\\libraries\\util\\sdk_mapped_flags.c 0x00000000   Number         0  sdk_mapped_flags.o ABSOLUTE
    ..\\..\\..\\..\\..\\..\\components\\softdevice\\common\\nrf_sdh.c 0x00000000   Number         0  nrf_sdh.o ABSOLUTE
    ..\\..\\..\\..\\..\\..\\components\\softdevice\\common\\nrf_sdh_ble.c 0x00000000   Number         0  nrf_sdh_ble.o ABSOLUTE
    ..\\..\\..\\..\\..\\..\\components\\softdevice\\common\\nrf_sdh_soc.c 0x00000000   Number         0  nrf_sdh_soc.o ABSOLUTE
    ..\\..\\..\\..\\..\\..\\external\\fprintf\\nrf_fprintf.c 0x00000000   Number         0  nrf_fprintf.o ABSOLUTE
    ..\\..\\..\\..\\..\\..\\external\\fprintf\\nrf_fprintf_format.c 0x00000000   Number         0  nrf_fprintf_format.o ABSOLUTE
    ..\\..\\..\\..\\..\\..\\external\\segger_rtt\\SEGGER_RTT.c 0x00000000   Number         0  segger_rtt.o ABSOLUTE
    ..\\..\\..\\..\\..\\..\\external\\segger_rtt\\SEGGER_RTT_printf.c 0x00000000   Number         0  segger_rtt_printf.o ABSOLUTE
    ..\\..\\..\\main.c                       0x00000000   Number         0  main.o ABSOLUTE
    RTE\Device\nRF52840_xxAA\arm_startup_nrf52840.s 0x00000000   Number         0  arm_startup_nrf52840.o ABSOLUTE
    RTE\Device\nRF52840_xxAA\system_nrf52840.c 0x00000000   Number         0  system_nrf52840.o ABSOLUTE
    RTE\\Device\\nRF52840_xxAA\\system_nrf52840.c 0x00000000   Number         0  system_nrf52840.o ABSOLUTE
    cdrcmple.s                               0x00000000   Number         0  cdrcmple.o ABSOLUTE
    dc.s                                     0x00000000   Number         0  dc.o ABSOLUTE
    handlers.s                               0x00000000   Number         0  handlers.o ABSOLUTE
    init.s                                   0x00000000   Number         0  init.o ABSOLUTE
    RESET                                    0x00025000   Section      512  arm_startup_nrf52840.o(RESET)
    .ARM.Collect$$$$00000000                 0x00025200   Section        0  entry.o(.ARM.Collect$$$$00000000)
    .ARM.Collect$$$$00000001                 0x00025200   Section        4  entry2.o(.ARM.Collect$$$$00000001)
    .ARM.Collect$$$$00000004                 0x00025204   Section        4  entry5.o(.ARM.Collect$$$$00000004)
    .ARM.Collect$$$$00000008                 0x00025208   Section        0  entry7b.o(.ARM.Collect$$$$00000008)
    .ARM.Collect$$$$0000000A                 0x00025208   Section        0  entry8b.o(.ARM.Collect$$$$0000000A)
    .ARM.Collect$$$$0000000B                 0x00025208   Section        8  entry9a.o(.ARM.Collect$$$$0000000B)
    .ARM.Collect$$$$0000000D                 0x00025210   Section        0  entry10a.o(.ARM.Collect$$$$0000000D)
    .ARM.Collect$$$$0000000F                 0x00025210   Section        0  entry11a.o(.ARM.Collect$$$$0000000F)
    .ARM.Collect$$$$00002712                 0x00025210   Section        4  entry2.o(.ARM.Collect$$$$00002712)
    __lit__00000000                          0x00025210   Data           4  entry2.o(.ARM.Collect$$$$00002712)
    .emb_text                                0x00025214   Section      154  fds.o(.emb_text)
    $v0                                      0x00025214   Number         0  fds.o(.emb_text)
    .emb_text                                0x000252b0   Section      200  nrf_atfifo.o(.emb_text)
    $v0                                      0x000252b0   Number         0  nrf_atfifo.o(.emb_text)
    .emb_text                                0x00025378   Section      154  nrf_fstorage_sd.o(.emb_text)
    $v0                                      0x00025378   Number         0  nrf_fstorage_sd.o(.emb_text)
    .emb_text                                0x00025414   Section      154  nrf_memobj.o(.emb_text)
    $v0                                      0x00025414   Number         0  nrf_memobj.o(.emb_text)
    .emb_text                                0x000254b0   Section      154  nrf_log_frontend.o(.emb_text)
    $v0                                      0x000254b0   Number         0  nrf_log_frontend.o(.emb_text)
    .text                                    0x0002554c   Section       36  arm_startup_nrf52840.o(.text)
    $v0                                      0x0002554c   Number         0  arm_startup_nrf52840.o(.text)
    .text                                    0x00025570   Section        0  uldiv.o(.text)
    .text                                    0x000255d4   Section        0  ctype_o.o(.text)
    .text                                    0x000255dc   Section        0  qsort.o(.text)
    .text                                    0x00025678   Section        0  memcpya.o(.text)
    .text                                    0x0002569c   Section        0  memseta.o(.text)
    .text                                    0x000256c0   Section        0  strlen.o(.text)
    .text                                    0x000256ce   Section        0  memcmp.o(.text)
    .text                                    0x000256e8   Section        0  strcpy.o(.text)
    .text                                    0x000256fa   Section        0  llshl.o(.text)
    .text                                    0x00025718   Section        0  llushr.o(.text)
    .text                                    0x00025738   Section       36  init.o(.text)
    .text                                    0x0002575c   Section        0  __dczerorl2.o(.text)
    i.GPIOTE_IRQHandler                      0x000257b4   Section        0  nrf_drv_gpiote.o(i.GPIOTE_IRQHandler)
    i.NVIC_ClearPendingIRQ                   0x000259f4   Section        0  app_timer.o(i.NVIC_ClearPendingIRQ)
    NVIC_ClearPendingIRQ                     0x000259f5   Thumb Code    18  app_timer.o(i.NVIC_ClearPendingIRQ)
    i.NVIC_EnableIRQ                         0x00025a0c   Section        0  app_timer.o(i.NVIC_EnableIRQ)
    NVIC_EnableIRQ                           0x00025a0d   Thumb Code    22  app_timer.o(i.NVIC_EnableIRQ)
    i.NVIC_SetPendingIRQ                     0x00025a24   Section        0  app_timer.o(i.NVIC_SetPendingIRQ)
    NVIC_SetPendingIRQ                       0x00025a25   Thumb Code    18  app_timer.o(i.NVIC_SetPendingIRQ)
    i.NVIC_SetPriority                       0x00025a3c   Section        0  app_timer.o(i.NVIC_SetPriority)
    NVIC_SetPriority                         0x00025a3d   Thumb Code    32  app_timer.o(i.NVIC_SetPriority)
    i.POWER_CLOCK_IRQHandler                 0x00025a64   Section        0  nrf_drv_clock.o(i.POWER_CLOCK_IRQHandler)
    i.RTC1_IRQHandler                        0x00025ab4   Section        0  app_timer.o(i.RTC1_IRQHandler)
    i.SAADC_IRQHandler                       0x00025ae8   Section        0  nrf_drv_saadc.o(i.SAADC_IRQHandler)
    i.SEGGER_RTT_Init                        0x00025cb4   Section        0  segger_rtt.o(i.SEGGER_RTT_Init)
    i.SEGGER_RTT_WriteNoLock                 0x00025cbc   Section        0  segger_rtt.o(i.SEGGER_RTT_WriteNoLock)
    i.SWI0_EGU0_IRQHandler                   0x00025d40   Section        0  app_timer.o(i.SWI0_EGU0_IRQHandler)
    i.SWI2_EGU2_IRQHandler                   0x00025d48   Section        0  nrf_sdh.o(i.SWI2_EGU2_IRQHandler)
    i.SystemCoreClockUpdate                  0x00025d50   Section        0  system_nrf52840.o(i.SystemCoreClockUpdate)
    i.SystemInit                             0x00025d60   Section        0  system_nrf52840.o(i.SystemInit)
    i._DoInit                                0x00025f90   Section        0  segger_rtt.o(i._DoInit)
    _DoInit                                  0x00025f91   Thumb Code    74  segger_rtt.o(i._DoInit)
    i._GetAvailWriteSpace                    0x00026000   Section        0  segger_rtt.o(i._GetAvailWriteSpace)
    _GetAvailWriteSpace                      0x00026001   Thumb Code    28  segger_rtt.o(i._GetAvailWriteSpace)
    i._WriteBlocking                         0x0002601c   Section        0  segger_rtt.o(i._WriteBlocking)
    _WriteBlocking                           0x0002601d   Thumb Code   114  segger_rtt.o(i._WriteBlocking)
    i._WriteNoCheck                          0x0002608e   Section        0  segger_rtt.o(i._WriteNoCheck)
    _WriteNoCheck                            0x0002608f   Thumb Code    76  segger_rtt.o(i._WriteNoCheck)
    i.__0sprintf$8                           0x000260dc   Section        0  printf8.o(i.__0sprintf$8)
    i.__scatterload_copy                     0x00026104   Section       14  handlers.o(i.__scatterload_copy)
    i.__scatterload_null                     0x00026112   Section        2  handlers.o(i.__scatterload_null)
    i.__scatterload_zeroinit                 0x00026114   Section       14  handlers.o(i.__scatterload_zeroinit)
    i.__sd_nvic_app_accessible_irq           0x00026124   Section        0  nrf_sdh.o(i.__sd_nvic_app_accessible_irq)
    __sd_nvic_app_accessible_irq             0x00026125   Thumb Code    52  nrf_sdh.o(i.__sd_nvic_app_accessible_irq)
    i.__sd_nvic_irq_disable                  0x0002615c   Section        0  app_util_platform.o(i.__sd_nvic_irq_disable)
    __sd_nvic_irq_disable                    0x0002615d   Thumb Code    12  app_util_platform.o(i.__sd_nvic_irq_disable)
    i._printf_core                           0x00026168   Section        0  printf8.o(i._printf_core)
    _printf_core                             0x00026169   Thumb Code   996  printf8.o(i._printf_core)
    i._printf_post_padding                   0x00026578   Section        0  printf8.o(i._printf_post_padding)
    _printf_post_padding                     0x00026579   Thumb Code    36  printf8.o(i._printf_post_padding)
    i._printf_pre_padding                    0x0002659c   Section        0  printf8.o(i._printf_pre_padding)
    _printf_pre_padding                      0x0002659d   Thumb Code    46  printf8.o(i._printf_pre_padding)
    i._sputc                                 0x000265ca   Section        0  printf8.o(i._sputc)
    _sputc                                   0x000265cb   Thumb Code    10  printf8.o(i._sputc)
    i.add_entry                              0x000265d4   Section        0  eartag_file.o(i.add_entry)
    add_entry                                0x000265d5   Thumb Code    78  eartag_file.o(i.add_entry)
    i.addr_is_aligned32                      0x00026622   Section        0  nrf_fstorage.o(i.addr_is_aligned32)
    addr_is_aligned32                        0x00026623   Thumb Code    16  nrf_fstorage.o(i.addr_is_aligned32)
    i.addr_within_bounds                     0x00026632   Section        0  nrf_fstorage.o(i.addr_within_bounds)
    addr_within_bounds                       0x00026633   Thumb Code    28  nrf_fstorage.o(i.addr_within_bounds)
    i.address_is_valid                       0x00026650   Section        0  fds.o(i.address_is_valid)
    address_is_valid                         0x00026651   Thumb Code    38  fds.o(i.address_is_valid)
    i.advdata_check                          0x0002667c   Section        0  ble_advdata.o(i.advdata_check)
    advdata_check                            0x0002667d   Thumb Code    18  ble_advdata.o(i.advdata_check)
    i.advertising_buttons_configure          0x0002668e   Section        0  bsp_btn_ble.o(i.advertising_buttons_configure)
    advertising_buttons_configure            0x0002668f   Thumb Code    84  bsp_btn_ble.o(i.advertising_buttons_configure)
    i.advertising_init                       0x000266e4   Section        0  main.o(i.advertising_init)
    advertising_init                         0x000266e5   Thumb Code   126  main.o(i.advertising_init)
    i.alert_timer_handler                    0x00026784   Section        0  bsp.o(i.alert_timer_handler)
    alert_timer_handler                      0x00026785   Thumb Code    12  bsp.o(i.alert_timer_handler)
    i.app_button_enable                      0x00026790   Section        0  app_button.o(i.app_button_enable)
    i.app_button_init                        0x000267bc   Section        0  app_button.o(i.app_button_init)
    i.app_error_fault_handler                0x00026864   Section        0  app_error_weak.o(i.app_error_fault_handler)
    i.app_error_handler                      0x000269d4   Section        0  app_error.o(i.app_error_handler)
    i.app_error_save_and_stop                0x000269f4   Section        0  app_error.o(i.app_error_save_and_stop)
    i.app_timer_create                       0x00026a7c   Section        0  app_timer.o(i.app_timer_create)
    i.app_timer_init                         0x00026ab8   Section        0  app_timer.o(i.app_timer_init)
    i.app_timer_start                        0x00026b14   Section        0  app_timer.o(i.app_timer_start)
    i.app_timer_stop                         0x00026b68   Section        0  app_timer.o(i.app_timer_stop)
    i.app_util_critical_region_enter         0x00026b98   Section        0  app_util_platform.o(i.app_util_critical_region_enter)
    i.app_util_critical_region_exit          0x00026ba4   Section        0  app_util_platform.o(i.app_util_critical_region_exit)
    i.appearance_encode                      0x00026bec   Section        0  ble_advdata.o(i.appearance_encode)
    appearance_encode                        0x00026bed   Thumb Code    82  ble_advdata.o(i.appearance_encode)
    i.apply_manu_spec_data                   0x00026c3e   Section        0  eartag_adv.o(i.apply_manu_spec_data)
    apply_manu_spec_data                     0x00026c3f   Thumb Code    36  eartag_adv.o(i.apply_manu_spec_data)
    i.backend_id_assign                      0x00026c64   Section        0  nrf_log_frontend.o(i.backend_id_assign)
    backend_id_assign                        0x00026c65   Thumb Code    52  nrf_log_frontend.o(i.backend_id_assign)
    i.ble_advdata_encode                     0x00026c9c   Section        0  ble_advdata.o(i.ble_advdata_encode)
    i.ble_advdata_set                        0x00026e08   Section        0  ble_advdata.o(i.ble_advdata_set)
    i.ble_conn_params_init                   0x00026ec4   Section        0  ble_conn_params.o(i.ble_conn_params_init)
    i.ble_device_addr_encode                 0x00026f60   Section        0  ble_advdata.o(i.ble_device_addr_encode)
    ble_device_addr_encode                   0x00026f61   Thumb Code   118  ble_advdata.o(i.ble_device_addr_encode)
    i.ble_evt_handler                        0x00026fd8   Section        0  main.o(i.ble_evt_handler)
    ble_evt_handler                          0x00026fd9   Thumb Code   476  main.o(i.ble_evt_handler)
    i.ble_evt_handler                        0x000271e8   Section        0  bsp_btn_ble.o(i.ble_evt_handler)
    ble_evt_handler                          0x000271e9   Thumb Code   112  bsp_btn_ble.o(i.ble_evt_handler)
    i.ble_evt_handler                        0x00027260   Section        0  ble_conn_params.o(i.ble_evt_handler)
    ble_evt_handler                          0x00027261   Thumb Code    64  ble_conn_params.o(i.ble_evt_handler)
    i.ble_evt_handler                        0x000272a0   Section        0  ble_conn_state.o(i.ble_evt_handler)
    ble_evt_handler                          0x000272a1   Thumb Code   158  ble_conn_state.o(i.ble_evt_handler)
    i.ble_nus_init                           0x00027380   Section        0  ble_nus.o(i.ble_nus_init)
    i.ble_nus_on_ble_evt                     0x00027414   Section        0  ble_nus.o(i.ble_nus_on_ble_evt)
    i.ble_nus_string_send                    0x00027474   Section        0  ble_nus.o(i.ble_nus_string_send)
    i.ble_srv_is_notification_enabled        0x000274c6   Section        0  ble_srv_common.o(i.ble_srv_is_notification_enabled)
    i.ble_stack_init                         0x000274d8   Section        0  main.o(i.ble_stack_init)
    ble_stack_init                           0x000274d9   Thumb Code   104  main.o(i.ble_stack_init)
    i.bsp_board_button_state_get             0x00027550   Section        0  boards.o(i.bsp_board_button_state_get)
    i.bsp_board_led_invert                   0x00027584   Section        0  boards.o(i.bsp_board_led_invert)
    i.bsp_board_led_off                      0x000275bc   Section        0  boards.o(i.bsp_board_led_off)
    i.bsp_board_led_on                       0x000275d0   Section        0  boards.o(i.bsp_board_led_on)
    i.bsp_board_led_state_get                0x000275e4   Section        0  boards.o(i.bsp_board_led_state_get)
    i.bsp_board_leds_init                    0x00027618   Section        0  boards.o(i.bsp_board_leds_init)
    i.bsp_board_leds_off                     0x00027648   Section        0  boards.o(i.bsp_board_leds_off)
    i.bsp_board_leds_on                      0x0002765c   Section        0  boards.o(i.bsp_board_leds_on)
    i.bsp_board_pin_to_button_idx            0x00027670   Section        0  boards.o(i.bsp_board_pin_to_button_idx)
    i.bsp_btn_ble_init                       0x00027694   Section        0  bsp_btn_ble.o(i.bsp_btn_ble_init)
    i.bsp_button_event_handler               0x000276c0   Section        0  bsp.o(i.bsp_button_event_handler)
    bsp_button_event_handler                 0x000276c1   Thumb Code   176  bsp.o(i.bsp_button_event_handler)
    i.bsp_button_is_pressed                  0x00027784   Section        0  bsp.o(i.bsp_button_is_pressed)
    i.bsp_event_handler                      0x00027790   Section        0  main.o(i.bsp_event_handler)
    i.bsp_event_to_button_action_assign      0x00027a34   Section        0  bsp.o(i.bsp_event_to_button_action_assign)
    i.bsp_indication_set                     0x00027a90   Section        0  bsp.o(i.bsp_indication_set)
    i.bsp_init                               0x00027ab0   Section        0  bsp.o(i.bsp_init)
    i.bsp_led_indication                     0x00027b5c   Section        0  bsp.o(i.bsp_led_indication)
    bsp_led_indication                       0x00027b5d   Thumb Code   872  bsp.o(i.bsp_led_indication)
    i.buf_prealloc                           0x00027ed8   Section        0  nrf_log_frontend.o(i.buf_prealloc)
    buf_prealloc                             0x00027ed9   Thumb Code   140  nrf_log_frontend.o(i.buf_prealloc)
    i.buffer_add                             0x00027f68   Section        0  nrf_fprintf_format.o(i.buffer_add)
    buffer_add                               0x00027f69   Thumb Code    32  nrf_fprintf_format.o(i.buffer_add)
    i.buffer_is_empty                        0x00027f88   Section        0  nrf_log_frontend.o(i.buffer_is_empty)
    i.build_manufacturer_specific_data       0x00027fa0   Section        0  eartag_adv.o(i.build_manufacturer_specific_data)
    build_manufacturer_specific_data         0x00027fa1   Thumb Code   106  eartag_adv.o(i.build_manufacturer_specific_data)
    i.button_timer_handler                   0x00028038   Section        0  bsp.o(i.button_timer_handler)
    button_timer_handler                     0x00028039   Thumb Code    14  bsp.o(i.button_timer_handler)
    i.buttons_leds_init                      0x00028048   Section        0  main.o(i.buttons_leds_init)
    buttons_leds_init                        0x00028049   Thumb Code    90  main.o(i.buttons_leds_init)
    i.channel_free                           0x000280b8   Section        0  nrf_drv_gpiote.o(i.channel_free)
    channel_free                             0x000280b9   Thumb Code    26  nrf_drv_gpiote.o(i.channel_free)
    i.channel_handler_get                    0x000280d8   Section        0  nrf_drv_gpiote.o(i.channel_handler_get)
    channel_handler_get                      0x000280d9   Thumb Code    10  nrf_drv_gpiote.o(i.channel_handler_get)
    i.channel_port_alloc                     0x000280e8   Section        0  nrf_drv_gpiote.o(i.channel_port_alloc)
    channel_port_alloc                       0x000280e9   Thumb Code   122  nrf_drv_gpiote.o(i.channel_port_alloc)
    i.channel_port_get                       0x00028168   Section        0  nrf_drv_gpiote.o(i.channel_port_get)
    channel_port_get                         0x00028169   Thumb Code     8  nrf_drv_gpiote.o(i.channel_port_get)
    i.clock_clk_started_notify               0x00028174   Section        0  nrf_drv_clock.o(i.clock_clk_started_notify)
    clock_clk_started_notify                 0x00028175   Thumb Code    42  nrf_drv_clock.o(i.clock_clk_started_notify)
    i.comp_fn                                0x000281a4   Section        0  eartag_scan.o(i.comp_fn)
    comp_fn                                  0x000281a5   Thumb Code    40  eartag_scan.o(i.comp_fn)
    i.compare_reg_update                     0x000281cc   Section        0  app_timer.o(i.compare_reg_update)
    compare_reg_update                       0x000281cd   Thumb Code   132  app_timer.o(i.compare_reg_update)
    i.conn_int_check                         0x0002825c   Section        0  ble_advdata.o(i.conn_int_check)
    conn_int_check                           0x0002825d   Thumb Code    90  ble_advdata.o(i.conn_int_check)
    i.conn_int_encode                        0x000282b6   Section        0  ble_advdata.o(i.conn_int_encode)
    conn_int_encode                          0x000282b7   Thumb Code   104  ble_advdata.o(i.conn_int_encode)
    i.conn_params_error_handler              0x00028320   Section        0  main.o(i.conn_params_error_handler)
    conn_params_error_handler                0x00028321   Thumb Code    22  main.o(i.conn_params_error_handler)
    i.conn_params_init                       0x00028348   Section        0  main.o(i.conn_params_init)
    conn_params_init                         0x00028349   Thumb Code    88  main.o(i.conn_params_init)
    i.conn_params_negotiation                0x000283b8   Section        0  ble_conn_params.o(i.conn_params_negotiation)
    conn_params_negotiation                  0x000283b9   Thumb Code    78  ble_conn_params.o(i.conn_params_negotiation)
    i.connection_buttons_configure           0x0002840c   Section        0  bsp_btn_ble.o(i.connection_buttons_configure)
    connection_buttons_configure             0x0002840d   Thumb Code    84  bsp_btn_ble.o(i.connection_buttons_configure)
    i.data_length_update                     0x00028460   Section        0  nrf_ble_gatt.o(i.data_length_update)
    data_length_update                       0x00028461   Thumb Code    70  nrf_ble_gatt.o(i.data_length_update)
    i.db_write_process                       0x000284b0   Section        0  eartag_file.o(i.db_write_process)
    db_write_process                         0x000284b1   Thumb Code   248  eartag_file.o(i.db_write_process)
    i.delete_execute                         0x000285b0   Section        0  fds.o(i.delete_execute)
    delete_execute                           0x000285b1   Thumb Code    74  fds.o(i.delete_execute)
    i.detection_delay_timeout_handler        0x000285fc   Section        0  app_button.o(i.detection_delay_timeout_handler)
    detection_delay_timeout_handler          0x000285fd   Thumb Code   124  app_button.o(i.detection_delay_timeout_handler)
    i.disp_db                                0x00028688   Section        0  main.o(i.disp_db)
    disp_db                                  0x00028689   Thumb Code   128  main.o(i.disp_db)
    i.disp_help                              0x0002873c   Section        0  main.o(i.disp_help)
    disp_help                                0x0002873d   Thumb Code   192  main.o(i.disp_help)
    i.eartag_adv_error_handler               0x00028978   Section        0  main.o(i.eartag_adv_error_handler)
    i.eartag_adv_evt_handler                 0x000289a8   Section        0  main.o(i.eartag_adv_evt_handler)
    i.eartag_adv_init                        0x00028a50   Section        0  eartag_adv.o(i.eartag_adv_init)
    i.eartag_adv_on_ble_evt                  0x00028b38   Section        0  eartag_adv.o(i.eartag_adv_on_ble_evt)
    i.eartag_adv_on_sys_evt                  0x00028b90   Section        0  eartag_adv.o(i.eartag_adv_on_sys_evt)
    i.eartag_adv_set_batt_lv                 0x00028bea   Section        0  eartag_adv.o(i.eartag_adv_set_batt_lv)
    i.eartag_adv_set_temperature             0x00028c1a   Section        0  eartag_adv.o(i.eartag_adv_set_temperature)
    i.eartag_adv_start_coded_nonconnectable  0x00028c42   Section        0  eartag_adv.o(i.eartag_adv_start_coded_nonconnectable)
    i.eartag_adv_start_legacy                0x00028cb8   Section        0  eartag_adv.o(i.eartag_adv_start_legacy)
    i.eartag_file_config_write               0x00028d30   Section        0  eartag_file.o(i.eartag_file_config_write)
    i.eartag_file_db_put                     0x00028dc8   Section        0  eartag_file.o(i.eartag_file_db_put)
    i.eartag_file_db_write                   0x00028e5a   Section        0  eartag_file.o(i.eartag_file_db_write)
    i.eartag_file_error_handler              0x00028e94   Section        0  main.o(i.eartag_file_error_handler)
    i.eartag_file_evt_handler                0x00028ec4   Section        0  main.o(i.eartag_file_evt_handler)
    i.eartag_file_get_config                 0x000290cc   Section        0  eartag_file.o(i.eartag_file_get_config)
    i.eartag_file_get_db                     0x000290f8   Section        0  eartag_file.o(i.eartag_file_get_db)
    i.eartag_file_init                       0x00029134   Section        0  eartag_file.o(i.eartag_file_init)
    i.eartag_file_on_fds_evt                 0x00029298   Section        0  eartag_file.o(i.eartag_file_on_fds_evt)
    i.eartag_scan_error_handler              0x000293c4   Section        0  main.o(i.eartag_scan_error_handler)
    i.eartag_scan_evt_handler                0x000293f4   Section        0  main.o(i.eartag_scan_evt_handler)
    i.eartag_scan_init                       0x000295ac   Section        0  eartag_scan.o(i.eartag_scan_init)
    i.eartag_scan_on_ble_evt                 0x00029668   Section        0  eartag_scan.o(i.eartag_scan_on_ble_evt)
    i.eartag_scan_start                      0x000296c0   Section        0  eartag_scan.o(i.eartag_scan_start)
    i.elapsed_ticks_acquire                  0x00029740   Section        0  app_timer.o(i.elapsed_ticks_acquire)
    elapsed_ticks_acquire                    0x00029741   Thumb Code    82  app_timer.o(i.elapsed_ticks_acquire)
    i.erase                                  0x000297a4   Section        0  nrf_fstorage_sd.o(i.erase)
    erase                                    0x000297a5   Thumb Code    80  nrf_fstorage_sd.o(i.erase)
    i.erase_execute                          0x000297fc   Section        0  nrf_fstorage_sd.o(i.erase_execute)
    erase_execute                            0x000297fd   Thumb Code    14  nrf_fstorage_sd.o(i.erase_execute)
    i.errata_103                             0x0002980c   Section        0  system_nrf52840.o(i.errata_103)
    errata_103                               0x0002980d   Thumb Code    24  system_nrf52840.o(i.errata_103)
    i.errata_115                             0x00029828   Section        0  system_nrf52840.o(i.errata_115)
    errata_115                               0x00029829   Thumb Code    24  system_nrf52840.o(i.errata_115)
    i.errata_120                             0x00029844   Section        0  system_nrf52840.o(i.errata_120)
    errata_120                               0x00029845   Thumb Code    24  system_nrf52840.o(i.errata_120)
    i.errata_136                             0x00029860   Section        0  system_nrf52840.o(i.errata_136)
    errata_136                               0x00029861   Thumb Code    24  system_nrf52840.o(i.errata_136)
    i.errata_36                              0x0002987c   Section        0  system_nrf52840.o(i.errata_36)
    errata_36                                0x0002987d   Thumb Code    24  system_nrf52840.o(i.errata_36)
    i.errata_66                              0x00029898   Section        0  system_nrf52840.o(i.errata_66)
    errata_66                                0x00029899   Thumb Code    24  system_nrf52840.o(i.errata_66)
    i.errata_98                              0x000298b4   Section        0  system_nrf52840.o(i.errata_98)
    errata_98                                0x000298b5   Thumb Code    24  system_nrf52840.o(i.errata_98)
    i.event_prepare                          0x000298d0   Section        0  fds.o(i.event_prepare)
    event_prepare                            0x000298d1   Thumb Code   126  fds.o(i.event_prepare)
    i.event_send                             0x00029950   Section        0  fds.o(i.event_send)
    event_send                               0x00029951   Thumb Code    34  fds.o(i.event_send)
    i.event_send                             0x00029978   Section        0  nrf_fstorage_sd.o(i.event_send)
    event_send                               0x00029979   Thumb Code    96  nrf_fstorage_sd.o(i.event_send)
    i.expired_timers_handler                 0x000299dc   Section        0  app_timer.o(i.expired_timers_handler)
    expired_timers_handler                   0x000299dd   Thumb Code    84  app_timer.o(i.expired_timers_handler)
    i.fds_evt_handler                        0x00029a34   Section        0  main.o(i.fds_evt_handler)
    fds_evt_handler                          0x00029a35   Thumb Code   112  main.o(i.fds_evt_handler)
    i.fds_gc                                 0x00029ae0   Section        0  fds.o(i.fds_gc)
    i.fds_init                               0x00029b24   Section        0  fds.o(i.fds_init)
    i.fds_record_find                        0x00029c04   Section        0  fds.o(i.fds_record_find)
    i.fds_record_open                        0x00029c1c   Section        0  fds.o(i.fds_record_open)
    i.fds_record_update                      0x00029c68   Section        0  fds.o(i.fds_record_update)
    i.fds_record_write                       0x00029c82   Section        0  fds.o(i.fds_record_write)
    i.fds_register                           0x00029c98   Section        0  fds.o(i.fds_register)
    i.file_find_and_delete                   0x00029cc8   Section        0  fds.o(i.file_find_and_delete)
    file_find_and_delete                     0x00029cc9   Thumb Code    46  fds.o(i.file_find_and_delete)
    i.file_init                              0x00029cfc   Section        0  main.o(i.file_init)
    file_init                                0x00029cfd   Thumb Code    66  main.o(i.file_init)
    i.find_eartag_data                       0x00029d54   Section        0  eartag_scan.o(i.find_eartag_data)
    find_eartag_data                         0x00029d55   Thumb Code   104  eartag_scan.o(i.find_eartag_data)
    i.find_entry                             0x00029dbc   Section        0  eartag_file.o(i.find_entry)
    find_entry                               0x00029dbd   Thumb Code    56  eartag_file.o(i.find_entry)
    i.flags_encode                           0x00029df4   Section        0  ble_advdata.o(i.flags_encode)
    flags_encode                             0x00029df5   Thumb Code    54  ble_advdata.o(i.flags_encode)
    i.flash_bounds_set                       0x00029e2c   Section        0  fds.o(i.flash_bounds_set)
    flash_bounds_set                         0x00029e2d   Thumb Code    24  fds.o(i.flash_bounds_set)
    i.flash_end_addr                         0x00029e48   Section        0  fds.o(i.flash_end_addr)
    flash_end_addr                           0x00029e49   Thumb Code    26  fds.o(i.flash_end_addr)
    i.flash_subsystem_init                   0x00029e64   Section        0  fds.o(i.flash_subsystem_init)
    flash_subsystem_init                     0x00029e65   Thumb Code    18  fds.o(i.flash_subsystem_init)
    i.free                                   0x00029e80   Section        0  malloc.o(i.free)
    i.fs_event_handler                       0x00029ed0   Section        0  fds.o(i.fs_event_handler)
    fs_event_handler                         0x00029ed1   Thumb Code    12  fds.o(i.fs_event_handler)
    i.gap_params_init                        0x00029edc   Section        0  main.o(i.gap_params_init)
    gap_params_init                          0x00029edd   Thumb Code   128  main.o(i.gap_params_init)
    i.gatt_evt_handler                       0x00029f74   Section        0  main.o(i.gatt_evt_handler)
    i.gatt_init                              0x00029fd8   Section        0  main.o(i.gatt_init)
    i.gc_execute                             0x0002a038   Section        0  fds.o(i.gc_execute)
    gc_execute                               0x0002a039   Thumb Code   110  fds.o(i.gc_execute)
    i.gc_init                                0x0002a0ac   Section        0  fds.o(i.gc_init)
    gc_init                                  0x0002a0ad   Thumb Code    56  fds.o(i.gc_init)
    i.gc_next_page                           0x0002a0ec   Section        0  fds.o(i.gc_next_page)
    gc_next_page                             0x0002a0ed   Thumb Code    34  fds.o(i.gc_next_page)
    i.gc_page_erase                          0x0002a114   Section        0  fds.o(i.gc_page_erase)
    gc_page_erase                            0x0002a115   Thumb Code    62  fds.o(i.gc_page_erase)
    i.gc_page_next                           0x0002a160   Section        0  fds.o(i.gc_page_next)
    gc_page_next                             0x0002a161   Thumb Code    70  fds.o(i.gc_page_next)
    i.gc_record_copy                         0x0002a1b0   Section        0  fds.o(i.gc_record_copy)
    gc_record_copy                           0x0002a1b1   Thumb Code    50  fds.o(i.gc_record_copy)
    i.gc_record_find_next                    0x0002a1f0   Section        0  fds.o(i.gc_record_find_next)
    gc_record_find_next                      0x0002a1f1   Thumb Code    32  fds.o(i.gc_record_find_next)
    i.gc_state_advance                       0x0002a214   Section        0  fds.o(i.gc_state_advance)
    gc_state_advance                         0x0002a215   Thumb Code    82  fds.o(i.gc_state_advance)
    i.gc_swap_erase                          0x0002a26c   Section        0  fds.o(i.gc_swap_erase)
    gc_swap_erase                            0x0002a26d   Thumb Code    30  fds.o(i.gc_swap_erase)
    i.gc_swap_pages                          0x0002a298   Section        0  fds.o(i.gc_swap_pages)
    gc_swap_pages                            0x0002a299   Thumb Code    68  fds.o(i.gc_swap_pages)
    i.gc_swap_promote                        0x0002a2e8   Section        0  fds.o(i.gc_swap_promote)
    gc_swap_promote                          0x0002a2e9   Thumb Code    28  fds.o(i.gc_swap_promote)
    i.gc_tag_new_swap                        0x0002a30c   Section        0  fds.o(i.gc_tag_new_swap)
    gc_tag_new_swap                          0x0002a30d   Thumb Code    18  fds.o(i.gc_tag_new_swap)
    i.gc_update_swap_offset                  0x0002a324   Section        0  fds.o(i.gc_update_swap_offset)
    gc_update_swap_offset                    0x0002a325   Thumb Code    22  fds.o(i.gc_update_swap_offset)
    i.gpiote_event_handler                   0x0002a344   Section        0  app_button.o(i.gpiote_event_handler)
    gpiote_event_handler                     0x0002a345   Thumb Code   110  app_button.o(i.gpiote_event_handler)
    i.handle_error                           0x0002a3c4   Section        0  eartag_file.o(i.handle_error)
    handle_error                             0x0002a3c5   Thumb Code    24  eartag_file.o(i.handle_error)
    i.handle_error                           0x0002a3dc   Section        0  eartag_scan.o(i.handle_error)
    handle_error                             0x0002a3dd   Thumb Code    24  eartag_scan.o(i.handle_error)
    i.header_check                           0x0002a3f4   Section        0  fds.o(i.header_check)
    header_check                             0x0002a3f5   Thumb Code    42  fds.o(i.header_check)
    i.header_has_next                        0x0002a41e   Section        0  fds.o(i.header_has_next)
    header_has_next                          0x0002a41f   Thumb Code    22  fds.o(i.header_has_next)
    i.header_jump                            0x0002a434   Section        0  fds.o(i.header_jump)
    header_jump                              0x0002a435   Thumb Code    14  fds.o(i.header_jump)
    i.init                                   0x0002a444   Section        0  nrf_fstorage_sd.o(i.init)
    init                                     0x0002a445   Thumb Code    62  nrf_fstorage_sd.o(i.init)
    i.init_execute                           0x0002a494   Section        0  fds.o(i.init_execute)
    init_execute                             0x0002a495   Thumb Code   280  fds.o(i.init_execute)
    i.insert_entry                           0x0002a5c0   Section        0  eartag_scan.o(i.insert_entry)
    insert_entry                             0x0002a5c1   Thumb Code   132  eartag_scan.o(i.insert_entry)
    i.instance_get                           0x0002a644   Section        0  ble_conn_params.o(i.instance_get)
    instance_get                             0x0002a645   Thumb Code    40  ble_conn_params.o(i.instance_get)
    i.int_print                              0x0002a670   Section        0  nrf_fprintf_format.o(i.int_print)
    int_print                                0x0002a671   Thumb Code   190  nrf_fprintf_format.o(i.int_print)
    i.is_busy                                0x0002a730   Section        0  nrf_fstorage_sd.o(i.is_busy)
    is_busy                                  0x0002a731   Thumb Code    16  nrf_fstorage_sd.o(i.is_busy)
    i.is_conn_params_ok                      0x0002a744   Section        0  ble_conn_params.o(i.is_conn_params_ok)
    is_conn_params_ok                        0x0002a745   Thumb Code   114  ble_conn_params.o(i.is_conn_params_ok)
    i.is_word_aligned                        0x0002a7b6   Section        0  fds.o(i.is_word_aligned)
    is_word_aligned                          0x0002a7b7   Thumb Code    16  fds.o(i.is_word_aligned)
    i.item_dequeue                           0x0002a7c6   Section        0  nrf_drv_clock.o(i.item_dequeue)
    item_dequeue                             0x0002a7c7   Thumb Code    12  nrf_drv_clock.o(i.item_dequeue)
    i.leds_off                               0x0002a7d4   Section        0  bsp.o(i.leds_off)
    leds_off                                 0x0002a7d5   Thumb Code    36  bsp.o(i.leds_off)
    i.leds_timer_handler                     0x0002a7fc   Section        0  bsp.o(i.leds_timer_handler)
    leds_timer_handler                       0x0002a7fd   Thumb Code    24  bsp.o(i.leds_timer_handler)
    i.lfclk_stop                             0x0002a81c   Section        0  nrf_drv_clock.o(i.lfclk_stop)
    lfclk_stop                               0x0002a81d   Thumb Code    24  nrf_drv_clock.o(i.lfclk_stop)
    i.link_init                              0x0002a838   Section        0  nrf_ble_gatt.o(i.link_init)
    link_init                                0x0002a839   Thumb Code    24  nrf_ble_gatt.o(i.link_init)
    i.list_insertions_handler                0x0002a850   Section        0  app_timer.o(i.list_insertions_handler)
    list_insertions_handler                  0x0002a851   Thumb Code   294  app_timer.o(i.list_insertions_handler)
    i.log_init                               0x0002a98c   Section        0  main.o(i.log_init)
    log_init                                 0x0002a98d   Thumb Code    40  main.o(i.log_init)
    i.log_skip                               0x0002a9c4   Section        0  nrf_log_frontend.o(i.log_skip)
    log_skip                                 0x0002a9c5   Thumb Code   196  nrf_log_frontend.o(i.log_skip)
    i.main                                   0x0002aa90   Section        0  main.o(i.main)
    i.manuf_specific_data_encode             0x0002ab58   Section        0  ble_advdata.o(i.manuf_specific_data_encode)
    manuf_specific_data_encode               0x0002ab59   Thumb Code   118  ble_advdata.o(i.manuf_specific_data_encode)
    i.mark_dirty                             0x0002abce   Section        0  eartag_file.o(i.mark_dirty)
    mark_dirty                               0x0002abcf   Thumb Code    32  eartag_file.o(i.mark_dirty)
    i.memobj_op                              0x0002abee   Section        0  nrf_memobj.o(i.memobj_op)
    memobj_op                                0x0002abef   Thumb Code   174  nrf_memobj.o(i.memobj_op)
    i.module_idx_get                         0x0002ac9c   Section        0  nrf_log_frontend.o(i.module_idx_get)
    module_idx_get                           0x0002ac9d   Thumb Code    56  nrf_log_frontend.o(i.module_idx_get)
    i.name_encode                            0x0002acd8   Section        0  ble_advdata.o(i.name_encode)
    name_encode                              0x0002acd9   Thumb Code   194  ble_advdata.o(i.name_encode)
    i.notify_error                           0x0002ad9a   Section        0  eartag_adv.o(i.notify_error)
    notify_error                             0x0002ad9b   Thumb Code    22  eartag_adv.o(i.notify_error)
    i.notify_event                           0x0002adb0   Section        0  eartag_adv.o(i.notify_event)
    notify_event                             0x0002adb1   Thumb Code    24  eartag_adv.o(i.notify_event)
    i.notify_event                           0x0002adc8   Section        0  eartag_file.o(i.notify_event)
    notify_event                             0x0002adc9   Thumb Code    18  eartag_file.o(i.notify_event)
    i.notify_results                         0x0002adda   Section        0  eartag_scan.o(i.notify_results)
    notify_results                           0x0002addb   Thumb Code    48  eartag_scan.o(i.notify_results)
    i.nrf_atfifo_clear                       0x0002ae0a   Section        0  nrf_atfifo.o(i.nrf_atfifo_clear)
    i.nrf_atfifo_init                        0x0002ae20   Section        0  nrf_atfifo.o(i.nrf_atfifo_init)
    i.nrf_atfifo_item_alloc                  0x0002ae48   Section        0  nrf_atfifo.o(i.nrf_atfifo_item_alloc)
    i.nrf_atfifo_item_free                   0x0002ae64   Section        0  nrf_atfifo.o(i.nrf_atfifo_item_free)
    i.nrf_atfifo_item_get                    0x0002ae80   Section        0  nrf_atfifo.o(i.nrf_atfifo_item_get)
    i.nrf_atfifo_item_put                    0x0002ae9c   Section        0  nrf_atfifo.o(i.nrf_atfifo_item_put)
    i.nrf_atomic_flag_set                    0x0002aeb8   Section        0  nrf_log_frontend.o(i.nrf_atomic_flag_set)
    nrf_atomic_flag_set                      0x0002aeb9   Thumb Code    22  nrf_log_frontend.o(i.nrf_atomic_flag_set)
    i.nrf_atomic_u32_add                     0x0002aece   Section        0  fds.o(i.nrf_atomic_u32_add)
    nrf_atomic_u32_add                       0x0002aecf   Thumb Code    22  fds.o(i.nrf_atomic_u32_add)
    i.nrf_balloc_alloc                       0x0002aee4   Section        0  nrf_balloc.o(i.nrf_balloc_alloc)
    i.nrf_balloc_block2idx                   0x0002af36   Section        0  nrf_balloc.o(i.nrf_balloc_block2idx)
    nrf_balloc_block2idx                     0x0002af37   Thumb Code    16  nrf_balloc.o(i.nrf_balloc_block2idx)
    i.nrf_balloc_free                        0x0002af46   Section        0  nrf_balloc.o(i.nrf_balloc_free)
    i.nrf_balloc_idx2block                   0x0002af76   Section        0  nrf_balloc.o(i.nrf_balloc_idx2block)
    nrf_balloc_idx2block                     0x0002af77   Thumb Code    12  nrf_balloc.o(i.nrf_balloc_idx2block)
    i.nrf_balloc_init                        0x0002af82   Section        0  nrf_balloc.o(i.nrf_balloc_init)
    i.nrf_bitmask_bit_is_set                 0x0002afbe   Section        0  nrf_drv_gpiote.o(i.nrf_bitmask_bit_is_set)
    nrf_bitmask_bit_is_set                   0x0002afbf   Thumb Code    22  nrf_drv_gpiote.o(i.nrf_bitmask_bit_is_set)
    i.nrf_ble_gatt_att_mtu_periph_set        0x0002afd4   Section        0  nrf_ble_gatt.o(i.nrf_ble_gatt_att_mtu_periph_set)
    i.nrf_ble_gatt_init                      0x0002aff2   Section        0  nrf_ble_gatt.o(i.nrf_ble_gatt_init)
    i.nrf_ble_gatt_on_ble_evt                0x0002b028   Section        0  nrf_ble_gatt.o(i.nrf_ble_gatt_on_ble_evt)
    i.nrf_clock_event_check                  0x0002b0f0   Section        0  nrf_drv_clock.o(i.nrf_clock_event_check)
    nrf_clock_event_check                    0x0002b0f1   Thumb Code    18  nrf_drv_clock.o(i.nrf_clock_event_check)
    i.nrf_clock_event_clear                  0x0002b102   Section        0  nrf_drv_clock.o(i.nrf_clock_event_clear)
    nrf_clock_event_clear                    0x0002b103   Thumb Code    18  nrf_drv_clock.o(i.nrf_clock_event_clear)
    i.nrf_clock_int_disable                  0x0002b114   Section        0  nrf_drv_clock.o(i.nrf_clock_int_disable)
    nrf_clock_int_disable                    0x0002b115   Thumb Code     6  nrf_drv_clock.o(i.nrf_clock_int_disable)
    i.nrf_clock_lf_is_running                0x0002b120   Section        0  nrf_drv_clock.o(i.nrf_clock_lf_is_running)
    nrf_clock_lf_is_running                  0x0002b121   Thumb Code    10  nrf_drv_clock.o(i.nrf_clock_lf_is_running)
    i.nrf_clock_task_trigger                 0x0002b130   Section        0  nrf_drv_clock.o(i.nrf_clock_task_trigger)
    nrf_clock_task_trigger                   0x0002b131   Thumb Code     8  nrf_drv_clock.o(i.nrf_clock_task_trigger)
    i.nrf_delay_us                           0x0002b138   Section        0  main.o(i.nrf_delay_us)
    nrf_delay_us                             0x0002b139   Thumb Code   146  main.o(i.nrf_delay_us)
    i.nrf_delay_us                           0x0002b1d4   Section        0  app_timer.o(i.nrf_delay_us)
    nrf_delay_us                             0x0002b1d5   Thumb Code   146  app_timer.o(i.nrf_delay_us)
    i.nrf_drv_clock_init                     0x0002b270   Section        0  nrf_drv_clock.o(i.nrf_drv_clock_init)
    i.nrf_drv_clock_lfclk_release            0x0002b2d8   Section        0  nrf_drv_clock.o(i.nrf_drv_clock_lfclk_release)
    i.nrf_drv_common_irq_enable              0x0002b308   Section        0  nrf_drv_common.o(i.nrf_drv_common_irq_enable)
    i.nrf_drv_gpiote_in_event_enable         0x0002b368   Section        0  nrf_drv_gpiote.o(i.nrf_drv_gpiote_in_event_enable)
    i.nrf_drv_gpiote_in_init                 0x0002b414   Section        0  nrf_drv_gpiote.o(i.nrf_drv_gpiote_in_init)
    i.nrf_drv_gpiote_in_is_set               0x0002b4f4   Section        0  nrf_drv_gpiote.o(i.nrf_drv_gpiote_in_is_set)
    i.nrf_drv_gpiote_init                    0x0002b508   Section        0  nrf_drv_gpiote.o(i.nrf_drv_gpiote_init)
    i.nrf_drv_gpiote_is_init                 0x0002b568   Section        0  nrf_drv_gpiote.o(i.nrf_drv_gpiote_is_init)
    i.nrf_fprintf                            0x0002b57c   Section        0  nrf_fprintf.o(i.nrf_fprintf)
    i.nrf_fprintf_buffer_flush               0x0002b5a6   Section        0  nrf_fprintf.o(i.nrf_fprintf_buffer_flush)
    i.nrf_fprintf_fmt                        0x0002b5c2   Section        0  nrf_fprintf_format.o(i.nrf_fprintf_fmt)
    i.nrf_fstorage_erase                     0x0002b7b2   Section        0  nrf_fstorage.o(i.nrf_fstorage_erase)
    i.nrf_fstorage_init                      0x0002b806   Section        0  nrf_fstorage.o(i.nrf_fstorage_init)
    i.nrf_fstorage_sdh_req_handler           0x0002b824   Section        0  nrf_fstorage_sd.o(i.nrf_fstorage_sdh_req_handler)
    i.nrf_fstorage_sdh_state_handler         0x0002b840   Section        0  nrf_fstorage_sd.o(i.nrf_fstorage_sdh_state_handler)
    i.nrf_fstorage_sys_evt_handler           0x0002b86c   Section        0  nrf_fstorage_sd.o(i.nrf_fstorage_sys_evt_handler)
    i.nrf_fstorage_write                     0x0002b8e8   Section        0  nrf_fstorage.o(i.nrf_fstorage_write)
    i.nrf_gpio_cfg                           0x0002b954   Section        0  boards.o(i.nrf_gpio_cfg)
    nrf_gpio_cfg                             0x0002b955   Thumb Code    52  boards.o(i.nrf_gpio_cfg)
    i.nrf_gpio_cfg                           0x0002b988   Section        0  nrf_drv_gpiote.o(i.nrf_gpio_cfg)
    nrf_gpio_cfg                             0x0002b989   Thumb Code    52  nrf_drv_gpiote.o(i.nrf_gpio_cfg)
    i.nrf_gpio_cfg_output                    0x0002b9bc   Section        0  main.o(i.nrf_gpio_cfg_output)
    nrf_gpio_cfg_output                      0x0002b9bd   Thumb Code    60  main.o(i.nrf_gpio_cfg_output)
    i.nrf_gpio_cfg_sense_set                 0x0002b9f8   Section        0  nrf_drv_gpiote.o(i.nrf_gpio_cfg_sense_set)
    nrf_gpio_cfg_sense_set                   0x0002b9f9   Thumb Code    58  nrf_drv_gpiote.o(i.nrf_gpio_cfg_sense_set)
    i.nrf_gpio_pin_clear                     0x0002ba32   Section        0  main.o(i.nrf_gpio_pin_clear)
    nrf_gpio_pin_clear                       0x0002ba33   Thumb Code    26  main.o(i.nrf_gpio_pin_clear)
    i.nrf_gpio_pin_port_decode               0x0002ba4c   Section        0  main.o(i.nrf_gpio_pin_port_decode)
    nrf_gpio_pin_port_decode                 0x0002ba4d   Thumb Code    26  main.o(i.nrf_gpio_pin_port_decode)
    i.nrf_gpio_pin_port_decode               0x0002ba6c   Section        0  boards.o(i.nrf_gpio_pin_port_decode)
    nrf_gpio_pin_port_decode                 0x0002ba6d   Thumb Code    26  boards.o(i.nrf_gpio_pin_port_decode)
    i.nrf_gpio_pin_port_decode               0x0002ba8c   Section        0  nrf_drv_gpiote.o(i.nrf_gpio_pin_port_decode)
    nrf_gpio_pin_port_decode                 0x0002ba8d   Thumb Code    26  nrf_drv_gpiote.o(i.nrf_gpio_pin_port_decode)
    i.nrf_gpio_pin_read                      0x0002baac   Section        0  nrf_drv_gpiote.o(i.nrf_gpio_pin_read)
    nrf_gpio_pin_read                        0x0002baad   Thumb Code    26  nrf_drv_gpiote.o(i.nrf_gpio_pin_read)
    i.nrf_gpio_pin_write                     0x0002bac6   Section        0  boards.o(i.nrf_gpio_pin_write)
    nrf_gpio_pin_write                       0x0002bac7   Thumb Code    66  boards.o(i.nrf_gpio_pin_write)
    i.nrf_gpio_ports_read                    0x0002bb08   Section        0  nrf_drv_gpiote.o(i.nrf_gpio_ports_read)
    nrf_gpio_ports_read                      0x0002bb09   Thumb Code    38  nrf_drv_gpiote.o(i.nrf_gpio_ports_read)
    i.nrf_gpiote_event_addr_get              0x0002bb34   Section        0  nrf_drv_gpiote.o(i.nrf_gpiote_event_addr_get)
    nrf_gpiote_event_addr_get                0x0002bb35   Thumb Code     8  nrf_drv_gpiote.o(i.nrf_gpiote_event_addr_get)
    i.nrf_gpiote_event_clear                 0x0002bb40   Section        0  nrf_drv_gpiote.o(i.nrf_gpiote_event_clear)
    nrf_gpiote_event_clear                   0x0002bb41   Thumb Code    28  nrf_drv_gpiote.o(i.nrf_gpiote_event_clear)
    i.nrf_gpiote_event_is_set                0x0002bb5c   Section        0  nrf_drv_gpiote.o(i.nrf_gpiote_event_is_set)
    nrf_gpiote_event_is_set                  0x0002bb5d   Thumb Code    22  nrf_drv_gpiote.o(i.nrf_gpiote_event_is_set)
    i.nrf_gpiote_int_enable                  0x0002bb74   Section        0  nrf_drv_gpiote.o(i.nrf_gpiote_int_enable)
    nrf_gpiote_int_enable                    0x0002bb75   Thumb Code     6  nrf_drv_gpiote.o(i.nrf_gpiote_int_enable)
    i.nrf_log_backend_add                    0x0002bb80   Section        0  nrf_log_frontend.o(i.nrf_log_backend_add)
    i.nrf_log_backend_rtt_flush              0x0002bbc8   Section        0  nrf_log_backend_rtt.o(i.nrf_log_backend_rtt_flush)
    nrf_log_backend_rtt_flush                0x0002bbc9   Thumb Code     2  nrf_log_backend_rtt.o(i.nrf_log_backend_rtt_flush)
    i.nrf_log_backend_rtt_init               0x0002bbca   Section        0  nrf_log_backend_rtt.o(i.nrf_log_backend_rtt_init)
    i.nrf_log_backend_rtt_panic_set          0x0002bbd2   Section        0  nrf_log_backend_rtt.o(i.nrf_log_backend_rtt_panic_set)
    nrf_log_backend_rtt_panic_set            0x0002bbd3   Thumb Code     2  nrf_log_backend_rtt.o(i.nrf_log_backend_rtt_panic_set)
    i.nrf_log_backend_rtt_put                0x0002bbd4   Section        0  nrf_log_backend_rtt.o(i.nrf_log_backend_rtt_put)
    nrf_log_backend_rtt_put                  0x0002bbd5   Thumb Code    24  nrf_log_backend_rtt.o(i.nrf_log_backend_rtt_put)
    i.nrf_log_backend_serial_put             0x0002bbf4   Section        0  nrf_log_backend_serial.o(i.nrf_log_backend_serial_put)
    i.nrf_log_color_id_get                   0x0002bcf4   Section        0  nrf_log_frontend.o(i.nrf_log_color_id_get)
    i.nrf_log_default_backends_init          0x0002bd2c   Section        0  nrf_log_default_backends.o(i.nrf_log_default_backends_init)
    i.nrf_log_frontend_dequeue               0x0002bd50   Section        0  nrf_log_frontend.o(i.nrf_log_frontend_dequeue)
    i.nrf_log_frontend_std_0                 0x0002c010   Section        0  nrf_log_frontend.o(i.nrf_log_frontend_std_0)
    i.nrf_log_frontend_std_1                 0x0002c024   Section        0  nrf_log_frontend.o(i.nrf_log_frontend_std_1)
    i.nrf_log_frontend_std_2                 0x0002c03c   Section        0  nrf_log_frontend.o(i.nrf_log_frontend_std_2)
    i.nrf_log_frontend_std_3                 0x0002c05c   Section        0  nrf_log_frontend.o(i.nrf_log_frontend_std_3)
    i.nrf_log_frontend_std_4                 0x0002c084   Section        0  nrf_log_frontend.o(i.nrf_log_frontend_std_4)
    i.nrf_log_hexdump_entry_process          0x0002c0b0   Section        0  nrf_log_str_formatter.o(i.nrf_log_hexdump_entry_process)
    i.nrf_log_init                           0x0002c168   Section        0  nrf_log_frontend.o(i.nrf_log_init)
    i.nrf_log_module_cnt_get                 0x0002c1d0   Section        0  nrf_log_frontend.o(i.nrf_log_module_cnt_get)
    i.nrf_log_module_name_get                0x0002c1e4   Section        0  nrf_log_frontend.o(i.nrf_log_module_name_get)
    i.nrf_log_panic                          0x0002c208   Section        0  nrf_log_frontend.o(i.nrf_log_panic)
    i.nrf_log_std_entry_process              0x0002c23c   Section        0  nrf_log_str_formatter.o(i.nrf_log_std_entry_process)
    i.nrf_memobj_alloc                       0x0002c304   Section        0  nrf_memobj.o(i.nrf_memobj_alloc)
    i.nrf_memobj_free                        0x0002c37e   Section        0  nrf_memobj.o(i.nrf_memobj_free)
    i.nrf_memobj_get                         0x0002c3be   Section        0  nrf_memobj.o(i.nrf_memobj_get)
    i.nrf_memobj_pool_init                   0x0002c3dc   Section        0  nrf_memobj.o(i.nrf_memobj_pool_init)
    i.nrf_memobj_put                         0x0002c3e8   Section        0  nrf_memobj.o(i.nrf_memobj_put)
    i.nrf_memobj_read                        0x0002c418   Section        0  nrf_memobj.o(i.nrf_memobj_read)
    i.nrf_memobj_write                       0x0002c434   Section        0  nrf_memobj.o(i.nrf_memobj_write)
    i.nrf_saadc_buffer_init                  0x0002c450   Section        0  nrf_drv_saadc.o(i.nrf_saadc_buffer_init)
    nrf_saadc_buffer_init                    0x0002c451   Thumb Code    10  nrf_drv_saadc.o(i.nrf_saadc_buffer_init)
    i.nrf_saadc_event_check                  0x0002c460   Section        0  nrf_drv_saadc.o(i.nrf_saadc_event_check)
    nrf_saadc_event_check                    0x0002c461   Thumb Code    16  nrf_drv_saadc.o(i.nrf_saadc_event_check)
    i.nrf_saadc_event_clear                  0x0002c474   Section        0  nrf_drv_saadc.o(i.nrf_saadc_event_clear)
    nrf_saadc_event_clear                    0x0002c475   Thumb Code    18  nrf_drv_saadc.o(i.nrf_saadc_event_clear)
    i.nrf_saadc_task_trigger                 0x0002c48c   Section        0  nrf_drv_saadc.o(i.nrf_saadc_task_trigger)
    nrf_saadc_task_trigger                   0x0002c48d   Thumb Code     8  nrf_drv_saadc.o(i.nrf_saadc_task_trigger)
    i.nrf_sdh_ble_app_ram_start_get          0x0002c498   Section        0  nrf_sdh_ble.o(i.nrf_sdh_ble_app_ram_start_get)
    i.nrf_sdh_ble_default_cfg_set            0x0002c4b0   Section        0  nrf_sdh_ble.o(i.nrf_sdh_ble_default_cfg_set)
    i.nrf_sdh_ble_enable                     0x0002c630   Section        0  nrf_sdh_ble.o(i.nrf_sdh_ble_enable)
    i.nrf_sdh_ble_evts_poll                  0x0002c70c   Section        0  nrf_sdh_ble.o(i.nrf_sdh_ble_evts_poll)
    nrf_sdh_ble_evts_poll                    0x0002c70d   Thumb Code   100  nrf_sdh_ble.o(i.nrf_sdh_ble_evts_poll)
    i.nrf_sdh_disable_request                0x0002c7b4   Section        0  nrf_sdh.o(i.nrf_sdh_disable_request)
    i.nrf_sdh_enable_request                 0x0002c804   Section        0  nrf_sdh.o(i.nrf_sdh_enable_request)
    i.nrf_sdh_evts_poll                      0x0002c870   Section        0  nrf_sdh.o(i.nrf_sdh_evts_poll)
    i.nrf_sdh_is_enabled                     0x0002c8a0   Section        0  nrf_sdh.o(i.nrf_sdh_is_enabled)
    i.nrf_sdh_request_continue               0x0002c8ac   Section        0  nrf_sdh.o(i.nrf_sdh_request_continue)
    i.nrf_sdh_soc_evts_poll                  0x0002c8d4   Section        0  nrf_sdh_soc.o(i.nrf_sdh_soc_evts_poll)
    nrf_sdh_soc_evts_poll                    0x0002c8d5   Thumb Code    84  nrf_sdh_soc.o(i.nrf_sdh_soc_evts_poll)
    i.nrf_section_iter_get                   0x0002c96c   Section        0  nrf_sdh.o(i.nrf_section_iter_get)
    nrf_section_iter_get                     0x0002c96d   Thumb Code     6  nrf_sdh.o(i.nrf_section_iter_get)
    i.nrf_section_iter_init                  0x0002c972   Section        0  nrf_section_iter.o(i.nrf_section_iter_init)
    i.nrf_section_iter_item_set              0x0002c986   Section        0  nrf_section_iter.o(i.nrf_section_iter_item_set)
    nrf_section_iter_item_set                0x0002c987   Thumb Code    46  nrf_section_iter.o(i.nrf_section_iter_item_set)
    i.nrf_section_iter_next                  0x0002c9b4   Section        0  nrf_section_iter.o(i.nrf_section_iter_next)
    i.nrf_strerror_find                      0x0002c9e4   Section        0  nrf_strerror.o(i.nrf_strerror_find)
    i.nrf_strerror_get                       0x0002ca24   Section        0  nrf_strerror.o(i.nrf_strerror_get)
    i.nus_data_handler                       0x0002ca40   Section        0  main.o(i.nus_data_handler)
    nus_data_handler                         0x0002ca41   Thumb Code    70  main.o(i.nus_data_handler)
    i.on_adv_report                          0x0002ca98   Section        0  eartag_scan.o(i.on_adv_report)
    on_adv_report                            0x0002ca99   Thumb Code    56  eartag_scan.o(i.on_adv_report)
    i.on_conn_params_evt                     0x0002cad4   Section        0  main.o(i.on_conn_params_evt)
    on_conn_params_evt                       0x0002cad5   Thumb Code    44  main.o(i.on_conn_params_evt)
    i.on_conn_params_update                  0x0002cb14   Section        0  ble_conn_params.o(i.on_conn_params_update)
    on_conn_params_update                    0x0002cb15   Thumb Code    48  ble_conn_params.o(i.on_conn_params_update)
    i.on_connect                             0x0002cb44   Section        0  ble_conn_params.o(i.on_connect)
    on_connect                               0x0002cb45   Thumb Code   102  ble_conn_params.o(i.on_connect)
    i.on_connect                             0x0002cbb4   Section        0  ble_nus.o(i.on_connect)
    on_connect                               0x0002cbb5   Thumb Code     6  ble_nus.o(i.on_connect)
    i.on_connected                           0x0002cbba   Section        0  eartag_adv.o(i.on_connected)
    on_connected                             0x0002cbbb   Thumb Code    20  eartag_adv.o(i.on_connected)
    i.on_connected                           0x0002cbce   Section        0  eartag_scan.o(i.on_connected)
    on_connected                             0x0002cbcf   Thumb Code     8  eartag_scan.o(i.on_connected)
    i.on_connected_evt                       0x0002cbd8   Section        0  nrf_ble_gatt.o(i.on_connected_evt)
    on_connected_evt                         0x0002cbd9   Thumb Code   122  nrf_ble_gatt.o(i.on_connected_evt)
    i.on_data_length_update_evt              0x0002cc5c   Section        0  nrf_ble_gatt.o(i.on_data_length_update_evt)
    on_data_length_update_evt                0x0002cc5d   Thumb Code    78  nrf_ble_gatt.o(i.on_data_length_update_evt)
    i.on_data_length_update_request_evt      0x0002ccb0   Section        0  nrf_ble_gatt.o(i.on_data_length_update_request_evt)
    on_data_length_update_request_evt        0x0002ccb1   Thumb Code    88  nrf_ble_gatt.o(i.on_data_length_update_request_evt)
    i.on_disconnect                          0x0002cd10   Section        0  ble_conn_params.o(i.on_disconnect)
    on_disconnect                            0x0002cd11   Thumb Code    50  ble_conn_params.o(i.on_disconnect)
    i.on_disconnect                          0x0002cd42   Section        0  ble_nus.o(i.on_disconnect)
    on_disconnect                            0x0002cd43   Thumb Code     8  ble_nus.o(i.on_disconnect)
    i.on_disconnected                        0x0002cd4a   Section        0  eartag_adv.o(i.on_disconnected)
    on_disconnected                          0x0002cd4b   Thumb Code    28  eartag_adv.o(i.on_disconnected)
    i.on_disconnected                        0x0002cd66   Section        0  eartag_scan.o(i.on_disconnected)
    on_disconnected                          0x0002cd67   Thumb Code     8  eartag_scan.o(i.on_disconnected)
    i.on_disconnected_evt                    0x0002cd6e   Section        0  nrf_ble_gatt.o(i.on_disconnected_evt)
    on_disconnected_evt                      0x0002cd6f   Thumb Code    20  nrf_ble_gatt.o(i.on_disconnected_evt)
    i.on_exchange_mtu_request_evt            0x0002cd84   Section        0  nrf_ble_gatt.o(i.on_exchange_mtu_request_evt)
    on_exchange_mtu_request_evt              0x0002cd85   Thumb Code   126  nrf_ble_gatt.o(i.on_exchange_mtu_request_evt)
    i.on_exchange_mtu_rsp_evt                0x0002ce10   Section        0  nrf_ble_gatt.o(i.on_exchange_mtu_rsp_evt)
    on_exchange_mtu_rsp_evt                  0x0002ce11   Thumb Code    94  nrf_ble_gatt.o(i.on_exchange_mtu_rsp_evt)
    i.on_operation_failure                   0x0002ce74   Section        0  nrf_fstorage_sd.o(i.on_operation_failure)
    on_operation_failure                     0x0002ce75   Thumb Code    32  nrf_fstorage_sd.o(i.on_operation_failure)
    i.on_operation_success                   0x0002ce98   Section        0  nrf_fstorage_sd.o(i.on_operation_success)
    on_operation_success                     0x0002ce99   Thumb Code    92  nrf_fstorage_sd.o(i.on_operation_success)
    i.on_timeout                             0x0002cef8   Section        0  eartag_adv.o(i.on_timeout)
    on_timeout                               0x0002cef9   Thumb Code    36  eartag_adv.o(i.on_timeout)
    i.on_write                               0x0002cf1c   Section        0  ble_conn_params.o(i.on_write)
    on_write                                 0x0002cf1d   Thumb Code    82  ble_conn_params.o(i.on_write)
    i.on_write                               0x0002cf74   Section        0  ble_nus.o(i.on_write)
    on_write                                 0x0002cf75   Thumb Code   102  ble_nus.o(i.on_write)
    i.page_from_record                       0x0002cfdc   Section        0  fds.o(i.page_from_record)
    page_from_record                         0x0002cfdd   Thumb Code    64  fds.o(i.page_from_record)
    i.page_has_space                         0x0002d020   Section        0  fds.o(i.page_has_space)
    page_has_space                           0x0002d021   Thumb Code    46  fds.o(i.page_has_space)
    i.page_identify                          0x0002d054   Section        0  fds.o(i.page_identify)
    page_identify                            0x0002d055   Thumb Code    38  fds.o(i.page_identify)
    i.page_is_erased                         0x0002d084   Section        0  fds.o(i.page_is_erased)
    page_is_erased                           0x0002d085   Thumb Code    30  fds.o(i.page_is_erased)
    i.page_offsets_update                    0x0002d0a2   Section        0  fds.o(i.page_offsets_update)
    page_offsets_update                      0x0002d0a3   Thumb Code    18  fds.o(i.page_offsets_update)
    i.page_scan                              0x0002d0b4   Section        0  fds.o(i.page_scan)
    page_scan                                0x0002d0b5   Thumb Code   116  fds.o(i.page_scan)
    i.page_tag_write_data                    0x0002d12c   Section        0  fds.o(i.page_tag_write_data)
    page_tag_write_data                      0x0002d12d   Thumb Code    22  fds.o(i.page_tag_write_data)
    i.page_tag_write_swap                    0x0002d14c   Section        0  fds.o(i.page_tag_write_swap)
    page_tag_write_swap                      0x0002d14d   Thumb Code    22  fds.o(i.page_tag_write_swap)
    i.pages_init                             0x0002d170   Section        0  fds.o(i.pages_init)
    pages_init                               0x0002d171   Thumb Code   348  fds.o(i.pages_init)
    i.pin_in_use_by_gpiote                   0x0002d2dc   Section        0  nrf_drv_gpiote.o(i.pin_in_use_by_gpiote)
    pin_in_use_by_gpiote                     0x0002d2dd   Thumb Code    22  nrf_drv_gpiote.o(i.pin_in_use_by_gpiote)
    i.pin_in_use_by_port                     0x0002d2f8   Section        0  nrf_drv_gpiote.o(i.pin_in_use_by_port)
    pin_in_use_by_port                       0x0002d2f9   Thumb Code    18  nrf_drv_gpiote.o(i.pin_in_use_by_port)
    i.pin_in_use_by_te                       0x0002d310   Section        0  nrf_drv_gpiote.o(i.pin_in_use_by_te)
    pin_in_use_by_te                         0x0002d311   Thumb Code    26  nrf_drv_gpiote.o(i.pin_in_use_by_te)
    i.pin_in_use_clear                       0x0002d330   Section        0  nrf_drv_gpiote.o(i.pin_in_use_clear)
    pin_in_use_clear                         0x0002d331   Thumb Code     8  nrf_drv_gpiote.o(i.pin_in_use_clear)
    i.postfix_process                        0x0002d33c   Section        0  nrf_log_str_formatter.o(i.postfix_process)
    postfix_process                          0x0002d33d   Thumb Code    56  nrf_log_str_formatter.o(i.postfix_process)
    i.power_manage                           0x0002d380   Section        0  main.o(i.power_manage)
    power_manage                             0x0002d381   Thumb Code    32  main.o(i.power_manage)
    i.prefix_process                         0x0002d3b0   Section        0  nrf_log_str_formatter.o(i.prefix_process)
    prefix_process                           0x0002d3b1   Thumb Code    68  nrf_log_str_formatter.o(i.prefix_process)
    i.queue_buf_get                          0x0002d40c   Section        0  fds.o(i.queue_buf_get)
    queue_buf_get                            0x0002d40d   Thumb Code    28  fds.o(i.queue_buf_get)
    i.queue_buf_store                        0x0002d42c   Section        0  fds.o(i.queue_buf_store)
    queue_buf_store                          0x0002d42d   Thumb Code    16  fds.o(i.queue_buf_store)
    i.queue_free                             0x0002d440   Section        0  fds.o(i.queue_free)
    queue_free                               0x0002d441   Thumb Code    16  fds.o(i.queue_free)
    i.queue_free                             0x0002d454   Section        0  nrf_fstorage_sd.o(i.queue_free)
    queue_free                               0x0002d455   Thumb Code    14  nrf_fstorage_sd.o(i.queue_free)
    i.queue_has_next                         0x0002d46c   Section        0  fds.o(i.queue_has_next)
    queue_has_next                           0x0002d46d   Thumb Code    30  fds.o(i.queue_has_next)
    i.queue_init                             0x0002d490   Section        0  fds.o(i.queue_init)
    queue_init                               0x0002d491   Thumb Code    20  fds.o(i.queue_init)
    i.queue_load                             0x0002d4ac   Section        0  fds.o(i.queue_load)
    queue_load                               0x0002d4ad   Thumb Code    16  fds.o(i.queue_load)
    i.queue_load_next                        0x0002d4c0   Section        0  nrf_fstorage_sd.o(i.queue_load_next)
    queue_load_next                          0x0002d4c1   Thumb Code    30  nrf_fstorage_sd.o(i.queue_load_next)
    i.queue_process                          0x0002d4ec   Section        0  fds.o(i.queue_process)
    queue_process                            0x0002d4ed   Thumb Code   184  fds.o(i.queue_process)
    i.queue_process                          0x0002d5ac   Section        0  nrf_fstorage_sd.o(i.queue_process)
    queue_process                            0x0002d5ad   Thumb Code   130  nrf_fstorage_sd.o(i.queue_process)
    i.queue_start                            0x0002d638   Section        0  fds.o(i.queue_start)
    queue_start                              0x0002d639   Thumb Code    30  fds.o(i.queue_start)
    i.queue_start                            0x0002d65c   Section        0  nrf_fstorage_sd.o(i.queue_start)
    queue_start                              0x0002d65d   Thumb Code    38  nrf_fstorage_sd.o(i.queue_start)
    i.ram_end_address_get                    0x0002d688   Section        0  nrf_sdh_ble.o(i.ram_end_address_get)
    ram_end_address_get                      0x0002d689   Thumb Code    12  nrf_sdh_ble.o(i.ram_end_address_get)
    i.read                                   0x0002d698   Section        0  nrf_fstorage_sd.o(i.read)
    read                                     0x0002d699   Thumb Code    28  nrf_fstorage_sd.o(i.read)
    i.record_activate                        0x0002d6b4   Section        0  ble_conn_state.o(i.record_activate)
    record_activate                          0x0002d6b5   Thumb Code    68  ble_conn_state.o(i.record_activate)
    i.record_find                            0x0002d6fc   Section        0  fds.o(i.record_find)
    record_find                              0x0002d6fd   Thumb Code   128  fds.o(i.record_find)
    i.record_find_and_delete                 0x0002d788   Section        0  fds.o(i.record_find_and_delete)
    record_find_and_delete                   0x0002d789   Thumb Code    58  fds.o(i.record_find_and_delete)
    i.record_find_by_desc                    0x0002d7c4   Section        0  fds.o(i.record_find_by_desc)
    record_find_by_desc                      0x0002d7c5   Thumb Code   118  fds.o(i.record_find_by_desc)
    i.record_find_next                       0x0002d840   Section        0  fds.o(i.record_find_next)
    record_find_next                         0x0002d841   Thumb Code   116  fds.o(i.record_find_next)
    i.record_header_flag_dirty               0x0002d8b8   Section        0  fds.o(i.record_header_flag_dirty)
    record_header_flag_dirty                 0x0002d8b9   Thumb Code    48  fds.o(i.record_header_flag_dirty)
    i.record_header_write_begin              0x0002d8f4   Section        0  fds.o(i.record_header_write_begin)
    record_header_write_begin                0x0002d8f5   Thumb Code    38  fds.o(i.record_header_write_begin)
    i.record_header_write_finalize           0x0002d920   Section        0  fds.o(i.record_header_write_finalize)
    record_header_write_finalize             0x0002d921   Thumb Code    50  fds.o(i.record_header_write_finalize)
    i.record_header_write_id                 0x0002d958   Section        0  fds.o(i.record_header_write_id)
    record_header_write_id                   0x0002d959   Thumb Code    50  fds.o(i.record_header_write_id)
    i.record_id_new                          0x0002d990   Section        0  fds.o(i.record_id_new)
    record_id_new                            0x0002d991   Thumb Code    12  fds.o(i.record_id_new)
    i.record_invalidate                      0x0002d9a0   Section        0  ble_conn_state.o(i.record_invalidate)
    record_invalidate                        0x0002d9a1   Thumb Code    24  ble_conn_state.o(i.record_invalidate)
    i.record_purge_disconnected              0x0002d9bc   Section        0  ble_conn_state.o(i.record_purge_disconnected)
    record_purge_disconnected                0x0002d9bd   Thumb Code    62  ble_conn_state.o(i.record_purge_disconnected)
    i.record_set_disconnected                0x0002da00   Section        0  ble_conn_state.o(i.record_set_disconnected)
    record_set_disconnected                  0x0002da01   Thumb Code    20  ble_conn_state.o(i.record_set_disconnected)
    i.record_write_data                      0x0002da18   Section        0  fds.o(i.record_write_data)
    record_write_data                        0x0002da19   Thumb Code    42  fds.o(i.record_write_data)
    i.rmap                                   0x0002da48   Section        0  nrf_fstorage_sd.o(i.rmap)
    rmap                                     0x0002da49   Thumb Code     6  nrf_fstorage_sd.o(i.rmap)
    i.rtc1_compare0_set                      0x0002da50   Section        0  app_timer.o(i.rtc1_compare0_set)
    rtc1_compare0_set                        0x0002da51   Thumb Code     6  app_timer.o(i.rtc1_compare0_set)
    i.rtc1_counter_get                       0x0002da5c   Section        0  app_timer.o(i.rtc1_counter_get)
    rtc1_counter_get                         0x0002da5d   Thumb Code     6  app_timer.o(i.rtc1_counter_get)
    i.rtc1_init                              0x0002da68   Section        0  app_timer.o(i.rtc1_init)
    rtc1_init                                0x0002da69   Thumb Code    18  app_timer.o(i.rtc1_init)
    i.rtc1_start                             0x0002da80   Section        0  app_timer.o(i.rtc1_start)
    rtc1_start                               0x0002da81   Thumb Code    48  app_timer.o(i.rtc1_start)
    i.rtc1_stop                              0x0002dabc   Section        0  app_timer.o(i.rtc1_stop)
    rtc1_stop                                0x0002dabd   Thumb Code    68  app_timer.o(i.rtc1_stop)
    i.rx_char_add                            0x0002db14   Section        0  ble_nus.o(i.rx_char_add)
    rx_char_add                              0x0002db15   Thumb Code   238  ble_nus.o(i.rx_char_add)
    i.scan_duration_timeout_handler          0x0002dc02   Section        0  eartag_scan.o(i.scan_duration_timeout_handler)
    scan_duration_timeout_handler            0x0002dc03   Thumb Code    40  eartag_scan.o(i.scan_duration_timeout_handler)
    i.scan_init                              0x0002dc2c   Section        0  main.o(i.scan_init)
    scan_init                                0x0002dc2d   Thumb Code    68  main.o(i.scan_init)
    i.scan_period_timeout_handler            0x0002dc8c   Section        0  eartag_scan.o(i.scan_period_timeout_handler)
    scan_period_timeout_handler              0x0002dc8d   Thumb Code    74  eartag_scan.o(i.scan_period_timeout_handler)
    i.sd_nvic_EnableIRQ                      0x0002dcd8   Section        0  nrf_sdh.o(i.sd_nvic_EnableIRQ)
    sd_nvic_EnableIRQ                        0x0002dcd9   Thumb Code   142  nrf_sdh.o(i.sd_nvic_EnableIRQ)
    i.sd_nvic_critical_region_enter          0x0002dd74   Section        0  app_util_platform.o(i.sd_nvic_critical_region_enter)
    sd_nvic_critical_region_enter            0x0002dd75   Thumb Code    90  app_util_platform.o(i.sd_nvic_critical_region_enter)
    i.sd_state_evt_handler                   0x0002dddc   Section        0  nrf_drv_clock.o(i.sd_state_evt_handler)
    sd_state_evt_handler                     0x0002dddd   Thumb Code   100  nrf_drv_clock.o(i.sd_state_evt_handler)
    i.sdh_request_observer_notify            0x0002de48   Section        0  nrf_sdh.o(i.sdh_request_observer_notify)
    sdh_request_observer_notify              0x0002de49   Thumb Code    56  nrf_sdh.o(i.sdh_request_observer_notify)
    i.sdh_state_observer_notify              0x0002de84   Section        0  nrf_sdh.o(i.sdh_state_observer_notify)
    sdh_state_observer_notify                0x0002de85   Thumb Code    48  nrf_sdh.o(i.sdh_state_observer_notify)
    i.sdk_mapped_flags_bulk_update_by_key    0x0002deb8   Section        0  sdk_mapped_flags.o(i.sdk_mapped_flags_bulk_update_by_key)
    i.sdk_mapped_flags_first_key_index_get   0x0002df34   Section        0  sdk_mapped_flags.o(i.sdk_mapped_flags_first_key_index_get)
    i.sdk_mapped_flags_get_by_index          0x0002df58   Section        0  sdk_mapped_flags.o(i.sdk_mapped_flags_get_by_index)
    sdk_mapped_flags_get_by_index            0x0002df59   Thumb Code    18  sdk_mapped_flags.o(i.sdk_mapped_flags_get_by_index)
    i.sdk_mapped_flags_key_list_get          0x0002df6a   Section        0  sdk_mapped_flags.o(i.sdk_mapped_flags_key_list_get)
    i.sdk_mapped_flags_update_by_key         0x0002dfac   Section        0  sdk_mapped_flags.o(i.sdk_mapped_flags_update_by_key)
    i.send_database_data                     0x0002dfc8   Section        0  main.o(i.send_database_data)
    send_database_data                       0x0002dfc9   Thumb Code   308  main.o(i.send_database_data)
    i.send_error_evt                         0x0002e144   Section        0  ble_conn_params.o(i.send_error_evt)
    send_error_evt                           0x0002e145   Thumb Code    20  ble_conn_params.o(i.send_error_evt)
    i.send_update_request                    0x0002e15c   Section        0  ble_conn_params.o(i.send_update_request)
    send_update_request                      0x0002e15d   Thumb Code    36  ble_conn_params.o(i.send_update_request)
    i.serial_tx                              0x0002e180   Section        0  nrf_log_backend_rtt.o(i.serial_tx)
    serial_tx                                0x0002e181   Thumb Code    62  nrf_log_backend_rtt.o(i.serial_tx)
    i.service_data_encode                    0x0002e1be   Section        0  ble_advdata.o(i.service_data_encode)
    service_data_encode                      0x0002e1bf   Thumb Code   150  ble_advdata.o(i.service_data_encode)
    i.services_init                          0x0002e254   Section        0  main.o(i.services_init)
    services_init                            0x0002e255   Thumb Code    46  main.o(i.services_init)
    i.set_coded_nonconnectable_advertising_data 0x0002e29c   Section        0  eartag_adv.o(i.set_coded_nonconnectable_advertising_data)
    set_coded_nonconnectable_advertising_data 0x0002e29d   Thumb Code    74  eartag_adv.o(i.set_coded_nonconnectable_advertising_data)
    i.set_legacy_connectable_advertising_data 0x0002e2e6   Section        0  eartag_adv.o(i.set_legacy_connectable_advertising_data)
    set_legacy_connectable_advertising_data  0x0002e2e7   Thumb Code    16  eartag_adv.o(i.set_legacy_connectable_advertising_data)
    i.soc_evt_handler                        0x0002e2f6   Section        0  nrf_drv_clock.o(i.soc_evt_handler)
    soc_evt_handler                          0x0002e2f7   Thumb Code    16  nrf_drv_clock.o(i.soc_evt_handler)
    i.softdevice_evt_irq_disable             0x0002e308   Section        0  nrf_sdh.o(i.softdevice_evt_irq_disable)
    softdevice_evt_irq_disable               0x0002e309   Thumb Code   102  nrf_sdh.o(i.softdevice_evt_irq_disable)
    i.softdevices_evt_irq_enable             0x0002e3b4   Section        0  nrf_sdh.o(i.softdevices_evt_irq_enable)
    softdevices_evt_irq_enable               0x0002e3b5   Thumb Code    34  nrf_sdh.o(i.softdevices_evt_irq_enable)
    i.sort_init                              0x0002e414   Section        0  eartag_scan.o(i.sort_init)
    sort_init                                0x0002e415   Thumb Code    54  eartag_scan.o(i.sort_init)
    i.srdata_check                           0x0002e44a   Section        0  ble_advdata.o(i.srdata_check)
    srdata_check                             0x0002e44b   Thumb Code    14  ble_advdata.o(i.srdata_check)
    i.start_coded_nonconnectable_advertising 0x0002e458   Section        0  eartag_adv.o(i.start_coded_nonconnectable_advertising)
    start_coded_nonconnectable_advertising   0x0002e459   Thumb Code    34  eartag_adv.o(i.start_coded_nonconnectable_advertising)
    i.start_legacy_connectable_advertising   0x0002e47a   Section        0  eartag_adv.o(i.start_legacy_connectable_advertising)
    start_legacy_connectable_advertising     0x0002e47b   Thumb Code    34  eartag_adv.o(i.start_legacy_connectable_advertising)
    i.startup_event_extract                  0x0002e49c   Section        0  bsp_btn_ble.o(i.startup_event_extract)
    startup_event_extract                    0x0002e49d   Thumb Code    38  bsp_btn_ble.o(i.startup_event_extract)
    i.std_header_set                         0x0002e4c4   Section        0  nrf_log_frontend.o(i.std_header_set)
    std_header_set                           0x0002e4c5   Thumb Code    76  nrf_log_frontend.o(i.std_header_set)
    i.std_n                                  0x0002e514   Section        0  nrf_log_frontend.o(i.std_n)
    std_n                                    0x0002e515   Thumb Code   104  nrf_log_frontend.o(i.std_n)
    i.string_print                           0x0002e580   Section        0  nrf_fprintf_format.o(i.string_print)
    string_print                             0x0002e581   Thumb Code   116  nrf_fprintf_format.o(i.string_print)
    i.ticks_diff_get                         0x0002e5f4   Section        0  app_timer.o(i.ticks_diff_get)
    ticks_diff_get                           0x0002e5f5   Thumb Code    10  app_timer.o(i.ticks_diff_get)
    i.timeout_handler_exec                   0x0002e5fe   Section        0  app_timer.o(i.timeout_handler_exec)
    timeout_handler_exec                     0x0002e5ff   Thumb Code    12  app_timer.o(i.timeout_handler_exec)
    i.timer_list_handler                     0x0002e60c   Section        0  app_timer.o(i.timer_list_handler)
    timer_list_handler                       0x0002e60d   Thumb Code    68  app_timer.o(i.timer_list_handler)
    i.timer_list_handler_sched               0x0002e65c   Section        0  app_timer.o(i.timer_list_handler_sched)
    timer_list_handler_sched                 0x0002e65d   Thumb Code    10  app_timer.o(i.timer_list_handler_sched)
    i.timer_list_insert                      0x0002e668   Section        0  app_timer.o(i.timer_list_insert)
    timer_list_insert                        0x0002e669   Thumb Code    98  app_timer.o(i.timer_list_insert)
    i.timer_list_remove                      0x0002e6d0   Section        0  app_timer.o(i.timer_list_remove)
    timer_list_remove                        0x0002e6d1   Thumb Code   118  app_timer.o(i.timer_list_remove)
    i.timer_start_op_schedule                0x0002e758   Section        0  app_timer.o(i.timer_start_op_schedule)
    timer_start_op_schedule                  0x0002e759   Thumb Code    94  app_timer.o(i.timer_start_op_schedule)
    i.timer_stop_op_schedule                 0x0002e7b6   Section        0  app_timer.o(i.timer_stop_op_schedule)
    timer_stop_op_schedule                   0x0002e7b7   Thumb Code    66  app_timer.o(i.timer_stop_op_schedule)
    i.timer_timeouts_check                   0x0002e7f8   Section        0  app_timer.o(i.timer_timeouts_check)
    timer_timeouts_check                     0x0002e7f9   Thumb Code   130  app_timer.o(i.timer_timeouts_check)
    i.timer_timeouts_check_sched             0x0002e890   Section        0  app_timer.o(i.timer_timeouts_check_sched)
    timer_timeouts_check_sched               0x0002e891   Thumb Code    10  app_timer.o(i.timer_timeouts_check_sched)
    i.touch_config                           0x0002e89c   Section        0  eartag_file.o(i.touch_config)
    touch_config                             0x0002e89d   Thumb Code    72  eartag_file.o(i.touch_config)
    i.tx_char_add                            0x0002e8e8   Section        0  ble_nus.o(i.tx_char_add)
    tx_char_add                              0x0002e8e9   Thumb Code   308  ble_nus.o(i.tx_char_add)
    i.tx_power_level_encode                  0x0002ea1c   Section        0  ble_advdata.o(i.tx_power_level_encode)
    tx_power_level_encode                    0x0002ea1d   Thumb Code    54  ble_advdata.o(i.tx_power_level_encode)
    i.uint16_decode                          0x0002ea52   Section        0  ble_srv_common.o(i.uint16_decode)
    uint16_decode                            0x0002ea53   Thumb Code    12  ble_srv_common.o(i.uint16_decode)
    i.uint16_encode                          0x0002ea5e   Section        0  ble_advdata.o(i.uint16_encode)
    uint16_encode                            0x0002ea5f   Thumb Code    12  ble_advdata.o(i.uint16_encode)
    i.uninit                                 0x0002ea6c   Section        0  nrf_fstorage_sd.o(i.uninit)
    uninit                                   0x0002ea6d   Thumb Code    26  nrf_fstorage_sd.o(i.uninit)
    i.unsigned_print                         0x0002ea90   Section        0  nrf_fprintf_format.o(i.unsigned_print)
    unsigned_print                           0x0002ea91   Thumb Code   178  nrf_fprintf_format.o(i.unsigned_print)
    i.update_timeout_handler                 0x0002eb48   Section        0  ble_conn_params.o(i.update_timeout_handler)
    update_timeout_handler                   0x0002eb49   Thumb Code   110  ble_conn_params.o(i.update_timeout_handler)
    i.user_op_alloc                          0x0002ebbc   Section        0  app_timer.o(i.user_op_alloc)
    user_op_alloc                            0x0002ebbd   Thumb Code    56  app_timer.o(i.user_op_alloc)
    i.user_op_enque                          0x0002ebf8   Section        0  app_timer.o(i.user_op_enque)
    user_op_enque                            0x0002ebf9   Thumb Code     6  app_timer.o(i.user_op_enque)
    i.uuid_list_encode                       0x0002ec04   Section        0  ble_advdata.o(i.uuid_list_encode)
    uuid_list_encode                         0x0002ec05   Thumb Code    78  ble_advdata.o(i.uuid_list_encode)
    i.uuid_list_sized_encode                 0x0002ec52   Section        0  ble_advdata.o(i.uuid_list_sized_encode)
    uuid_list_sized_encode                   0x0002ec53   Thumb Code   220  ble_advdata.o(i.uuid_list_sized_encode)
    i.wmap                                   0x0002ed2e   Section        0  nrf_fstorage_sd.o(i.wmap)
    wmap                                     0x0002ed2f   Thumb Code     6  nrf_fstorage_sd.o(i.wmap)
    i.write                                  0x0002ed34   Section        0  nrf_fstorage_sd.o(i.write)
    write                                    0x0002ed35   Thumb Code    80  nrf_fstorage_sd.o(i.write)
    i.write_enqueue                          0x0002ed88   Section        0  fds.o(i.write_enqueue)
    write_enqueue                            0x0002ed89   Thumb Code   214  fds.o(i.write_enqueue)
    i.write_execute                          0x0002ee68   Section        0  fds.o(i.write_execute)
    write_execute                            0x0002ee69   Thumb Code   182  fds.o(i.write_execute)
    i.write_execute                          0x0002ef2c   Section        0  nrf_fstorage_sd.o(i.write_execute)
    write_execute                            0x0002ef2d   Thumb Code    82  nrf_fstorage_sd.o(i.write_execute)
    i.write_space_free                       0x0002ef84   Section        0  fds.o(i.write_space_free)
    write_space_free                         0x0002ef85   Thumb Code    32  fds.o(i.write_space_free)
    i.write_space_reserve                    0x0002efa8   Section        0  fds.o(i.write_space_reserve)
    write_space_reserve                      0x0002efa9   Thumb Code   114  fds.o(i.write_space_reserve)
    .constdata                               0x0002f020   Section        8  boards.o(.constdata)
    m_board_led_list                         0x0002f020   Data           4  boards.o(.constdata)
    m_board_btn_list                         0x0002f024   Data           4  boards.o(.constdata)
    .constdata                               0x0002f028   Section       44  bsp.o(.constdata)
    m_leds_timer_id                          0x0002f028   Data           4  bsp.o(.constdata)
    m_alert_timer_id                         0x0002f02c   Data           4  bsp.o(.constdata)
    m_button_timer_id                        0x0002f030   Data           4  bsp.o(.constdata)
    app_buttons                              0x0002f034   Data          32  bsp.o(.constdata)
    .constdata                               0x0002f054   Section       22  nrf_ble_gatt.o(.constdata)
    .constdata                               0x0002f06c   Section       32  ble_nus.o(.constdata)
    .constdata                               0x0002f08c   Section       75  nrf_drv_gpiote.o(.constdata)
    __func__                                 0x0002f094   Data          20  nrf_drv_gpiote.o(.constdata)
    __func__                                 0x0002f0a8   Data          24  nrf_drv_gpiote.o(.constdata)
    __func__                                 0x0002f0c0   Data          23  nrf_drv_gpiote.o(.constdata)
    .constdata                               0x0002f0d8   Section        8  app_button.o(.constdata)
    m_detection_delay_timer_id               0x0002f0d8   Data           4  app_button.o(.constdata)
    .constdata                               0x0002f0e0   Section       24  fds.o(.constdata)
    m_queue                                  0x0002f0e0   Data           4  fds.o(.constdata)
    page_tag_swap                            0x0002f0e4   Data           8  fds.o(.constdata)
    page_tag_data                            0x0002f0ec   Data           8  fds.o(.constdata)
    dirty_header                             0x0002f0f4   Data           4  fds.o(.constdata)
    .constdata                               0x0002f0f8   Section       16  nrf_fprintf_format.o(.constdata)
    _aV2C                                    0x0002f0f8   Data          16  nrf_fprintf_format.o(.constdata)
    .constdata                               0x0002f108   Section       48  nrf_fstorage_sd.o(.constdata)
    m_flash_info                             0x0002f108   Data          12  nrf_fstorage_sd.o(.constdata)
    m_fifo                                   0x0002f114   Data           4  nrf_fstorage_sd.o(.constdata)
    .constdata                               0x0002f138   Section      260  nrf_strerror.o(.constdata)
    m_unknown_str                            0x0002f138   Data          19  nrf_strerror.o(.constdata)
    nrf_strerror_array                       0x0002f14c   Data         240  nrf_strerror.o(.constdata)
    .constdata                               0x0002f23c   Section       12  nrf_log_backend_rtt.o(.constdata)
    .constdata                               0x0002f248   Section       20  nrf_log_frontend.o(.constdata)
    mempool                                  0x0002f248   Data          20  nrf_log_frontend.o(.constdata)
    .constdata                               0x0002f25c   Section       48  nrf_sdh_ble.o(.constdata)
    sdh_ble_observers_array                  0x0002f25c   Data          32  nrf_sdh_ble.o(.constdata)
    sdh_ble_observers                        0x0002f27c   Data          12  nrf_sdh_ble.o(.constdata)
    .constdata                               0x0002f28c   Section       28  nrf_sdh_soc.o(.constdata)
    sdh_soc_observers_array                  0x0002f28c   Data          16  nrf_sdh_soc.o(.constdata)
    sdh_soc_observers                        0x0002f29c   Data          12  nrf_sdh_soc.o(.constdata)
    .constdata                               0x0002f2a8   Section       88  nrf_sdh.o(.constdata)
    sdh_req_observers_array                  0x0002f2a8   Data          16  nrf_sdh.o(.constdata)
    sdh_req_observers                        0x0002f2b8   Data          12  nrf_sdh.o(.constdata)
    sdh_state_observers_array                0x0002f2c4   Data          16  nrf_sdh.o(.constdata)
    sdh_state_observers                      0x0002f2d4   Data          12  nrf_sdh.o(.constdata)
    sdh_stack_observers_array                0x0002f2e0   Data          16  nrf_sdh.o(.constdata)
    sdh_stack_observers                      0x0002f2f0   Data          12  nrf_sdh.o(.constdata)
    .constdata                               0x0002f300   Section      129  ctype_o.o(.constdata)
    .constdata                               0x0002f384   Section        4  ctype_o.o(.constdata)
    table                                    0x0002f384   Data           4  ctype_o.o(.constdata)
    .conststring                             0x0002f388   Section       77  main.o(.conststring)
    .conststring                             0x0002f3d8   Section      301  nrf_ble_gatt.o(.conststring)
    .conststring                             0x0002f508   Section      775  nrf_strerror.o(.conststring)
    .conststring                             0x0002f810   Section        9  nrf_log_frontend.o(.conststring)
    .conststring                             0x0002f81c   Section      102  nrf_log_str_formatter.o(.conststring)
    .conststring                             0x0002f884   Section      463  nrf_sdh_ble.o(.conststring)
    .conststrlit                             0x0002fa54   Section        9  nrf_ble_gatt.o(.conststrlit)
    .conststrlit                             0x0002fa60   Section        6  nrf_drv_clock.o(.conststrlit)
    .conststrlit                             0x0002fa68   Section        7  nrf_drv_gpiote.o(.conststrlit)
    .conststrlit                             0x0002fa70   Section        6  nrf_drv_saadc.o(.conststrlit)
    .conststrlit                             0x0002fa78   Section        4  nrf_drv_ppi.o(.conststrlit)
    .conststrlit                             0x0002fa7c   Section        7  nrf_balloc.o(.conststrlit)
    .conststrlit                             0x0002fa84   Section        9  nrf_pwr_mgmt.o(.conststrlit)
    .conststrlit                             0x0002fa90   Section        4  nrf_log_frontend.o(.conststrlit)
    .conststrlit                             0x0002fa94   Section       12  nrf_sdh_ble.o(.conststrlit)
    .conststrlit                             0x0002faa0   Section       12  nrf_sdh_soc.o(.conststrlit)
    .conststrlit                             0x0002faac   Section        8  nrf_sdh.o(.conststrlit)
    log_const_data                           0x0002fad4   Section        8  nrf_ble_gatt.o(log_const_data)
    __tagsym$$used                           0x0002fad4   Number         0  nrf_ble_gatt.o(log_const_data)
    log_const_data                           0x0002fadc   Section        8  nrf_drv_clock.o(log_const_data)
    __tagsym$$used                           0x0002fadc   Number         0  nrf_drv_clock.o(log_const_data)
    log_const_data                           0x0002fae4   Section        8  nrf_drv_gpiote.o(log_const_data)
    __tagsym$$used                           0x0002fae4   Number         0  nrf_drv_gpiote.o(log_const_data)
    log_const_data                           0x0002faec   Section        8  nrf_drv_saadc.o(log_const_data)
    __tagsym$$used                           0x0002faec   Number         0  nrf_drv_saadc.o(log_const_data)
    log_const_data                           0x0002faf4   Section        8  nrf_drv_ppi.o(log_const_data)
    __tagsym$$used                           0x0002faf4   Number         0  nrf_drv_ppi.o(log_const_data)
    log_const_data                           0x0002fafc   Section        8  nrf_balloc.o(log_const_data)
    __tagsym$$used                           0x0002fafc   Number         0  nrf_balloc.o(log_const_data)
    log_const_data                           0x0002fb04   Section        8  nrf_pwr_mgmt.o(log_const_data)
    __tagsym$$used                           0x0002fb04   Number         0  nrf_pwr_mgmt.o(log_const_data)
    log_const_data                           0x0002fb0c   Section        8  nrf_log_frontend.o(log_const_data)
    __tagsym$$used                           0x0002fb0c   Number         0  nrf_log_frontend.o(log_const_data)
    log_const_data                           0x0002fb14   Section        8  nrf_sdh_ble.o(log_const_data)
    __tagsym$$used                           0x0002fb14   Number         0  nrf_sdh_ble.o(log_const_data)
    log_const_data                           0x0002fb1c   Section        8  nrf_sdh_soc.o(log_const_data)
    __tagsym$$used                           0x0002fb1c   Number         0  nrf_sdh_soc.o(log_const_data)
    log_const_data                           0x0002fb24   Section        8  nrf_sdh.o(log_const_data)
    __tagsym$$used                           0x0002fb24   Number         0  nrf_sdh.o(log_const_data)
    sdh_ble_observers0                       0x0002fb2c   Section        8  ble_conn_state.o(sdh_ble_observers0)
    __tagsym$$used                           0x0002fb2c   Number         0  ble_conn_state.o(sdh_ble_observers0)
    m_ble_evt_observer                       0x0002fb2c   Data           8  ble_conn_state.o(sdh_ble_observers0)
    sdh_ble_observers1                       0x0002fb34   Section       24  main.o(sdh_ble_observers1)
    __tagsym$$used                           0x0002fb34   Number         0  main.o(sdh_ble_observers1)
    m_gatt_obs                               0x0002fb34   Data           8  main.o(sdh_ble_observers1)
    __tagsym$$used                           0x0002fb3c   Number         0  main.o(sdh_ble_observers1)
    m_adv_ble_obs                            0x0002fb3c   Data           8  main.o(sdh_ble_observers1)
    __tagsym$$used                           0x0002fb44   Number         0  main.o(sdh_ble_observers1)
    m_scan_ble_obs                           0x0002fb44   Data           8  main.o(sdh_ble_observers1)
    sdh_ble_observers1                       0x0002fb4c   Section        8  bsp_btn_ble.o(sdh_ble_observers1)
    __tagsym$$used                           0x0002fb4c   Number         0  bsp_btn_ble.o(sdh_ble_observers1)
    m_ble_observer                           0x0002fb4c   Data           8  bsp_btn_ble.o(sdh_ble_observers1)
    sdh_ble_observers1                       0x0002fb54   Section        8  ble_conn_params.o(sdh_ble_observers1)
    __tagsym$$used                           0x0002fb54   Number         0  ble_conn_params.o(sdh_ble_observers1)
    m_ble_observer                           0x0002fb54   Data           8  ble_conn_params.o(sdh_ble_observers1)
    sdh_ble_observers2                       0x0002fb5c   Section        8  main.o(sdh_ble_observers2)
    __tagsym$$used                           0x0002fb5c   Number         0  main.o(sdh_ble_observers2)
    m_nus_obs                                0x0002fb5c   Data           8  main.o(sdh_ble_observers2)
    sdh_ble_observers3                       0x0002fb64   Section        8  main.o(sdh_ble_observers3)
    __tagsym$$used                           0x0002fb64   Number         0  main.o(sdh_ble_observers3)
    m_ble_observer                           0x0002fb64   Data           8  main.o(sdh_ble_observers3)
    sdh_req_observers0                       0x0002fb6c   Section        8  nrf_fstorage_sd.o(sdh_req_observers0)
    __tagsym$$used                           0x0002fb6c   Number         0  nrf_fstorage_sd.o(sdh_req_observers0)
    sdh_soc_observers0                       0x0002fb74   Section        8  nrf_drv_clock.o(sdh_soc_observers0)
    __tagsym$$used                           0x0002fb74   Number         0  nrf_drv_clock.o(sdh_soc_observers0)
    m_soc_evt_observer                       0x0002fb74   Data           8  nrf_drv_clock.o(sdh_soc_observers0)
    sdh_soc_observers0                       0x0002fb7c   Section        8  nrf_fstorage_sd.o(sdh_soc_observers0)
    __tagsym$$used                           0x0002fb7c   Number         0  nrf_fstorage_sd.o(sdh_soc_observers0)
    m_sys_obs                                0x0002fb7c   Data           8  nrf_fstorage_sd.o(sdh_soc_observers0)
    sdh_soc_observers1                       0x0002fb84   Section        8  main.o(sdh_soc_observers1)
    __tagsym$$used                           0x0002fb84   Number         0  main.o(sdh_soc_observers1)
    m_adv_soc_obs                            0x0002fb84   Data           8  main.o(sdh_soc_observers1)
    sdh_stack_observers0                     0x0002fb8c   Section        8  nrf_sdh_ble.o(sdh_stack_observers0)
    __tagsym$$used                           0x0002fb8c   Number         0  nrf_sdh_ble.o(sdh_stack_observers0)
    m_nrf_sdh_ble_evts_poll                  0x0002fb8c   Data           8  nrf_sdh_ble.o(sdh_stack_observers0)
    sdh_stack_observers0                     0x0002fb94   Section        8  nrf_sdh_soc.o(sdh_stack_observers0)
    __tagsym$$used                           0x0002fb94   Number         0  nrf_sdh_soc.o(sdh_stack_observers0)
    m_nrf_sdh_soc_evts_poll                  0x0002fb94   Data           8  nrf_sdh_soc.o(sdh_stack_observers0)
    sdh_state_observers0                     0x0002fb9c   Section        8  nrf_drv_clock.o(sdh_state_observers0)
    __tagsym$$used                           0x0002fb9c   Number         0  nrf_drv_clock.o(sdh_state_observers0)
    m_sd_state_observer                      0x0002fb9c   Data           8  nrf_drv_clock.o(sdh_state_observers0)
    sdh_state_observers0                     0x0002fba4   Section        8  nrf_fstorage_sd.o(sdh_state_observers0)
    __tagsym$$used                           0x0002fba4   Number         0  nrf_fstorage_sd.o(sdh_state_observers0)
    m_state_obs                              0x0002fba4   Data           8  nrf_fstorage_sd.o(sdh_state_observers0)
    .data                                    0x20002a18   Section       20  main.o(.data)
    m_conn_handle                            0x20002a18   Data           2  main.o(.data)
    m_ble_nus_max_data_len                   0x20002a1a   Data           2  main.o(.data)
    m_adv_uuids                              0x20002a1c   Data           4  main.o(.data)
    m_batt_lv                                0x20002a20   Data           1  main.o(.data)
    m_temperature                            0x20002a21   Data           1  main.o(.data)
    m_cnt                                    0x20002a22   Data           1  main.o(.data)
    m_reset_pending                          0x20002a23   Data           1  main.o(.data)
    m_ppi_channel                            0x20002a25   Data           1  main.o(.data)
    m_adc_evt_counter                        0x20002a28   Data           4  main.o(.data)
    .data                                    0x20002a2c   Section       21  bsp.o(.data)
    m_stable_state                           0x20002a2c   Data           1  bsp.o(.data)
    m_leds_clear                             0x20002a2d   Data           1  bsp.o(.data)
    m_indication_type                        0x20002a30   Data           4  bsp.o(.data)
    m_alert_on                               0x20002a34   Data           1  bsp.o(.data)
    m_registered_callback                    0x20002a38   Data           4  bsp.o(.data)
    current_long_push_pin_no                 0x20002a3c   Data           1  bsp.o(.data)
    release_event_at_push                    0x20002a3d   Data           4  bsp.o(.data)
    .data                                    0x20002a44   Section        8  bsp_btn_ble.o(.data)
    m_error_handler                          0x20002a44   Data           4  bsp_btn_ble.o(.data)
    m_num_connections                        0x20002a48   Data           4  bsp_btn_ble.o(.data)
    .data                                    0x20002a4c   Section        8  ble_conn_params.o(.data)
    m_preferred_conn_params                  0x20002a4c   Data           8  ble_conn_params.o(.data)
    .data                                    0x20002a54   Section       20  app_button.o(.data)
    mp_buttons                               0x20002a54   Data           4  app_button.o(.data)
    m_button_count                           0x20002a58   Data           1  app_button.o(.data)
    m_detection_delay                        0x20002a5c   Data           4  app_button.o(.data)
    m_pin_state                              0x20002a60   Data           4  app_button.o(.data)
    m_pin_transition                         0x20002a64   Data           4  app_button.o(.data)
    .data                                    0x20002a68   Section       48  fds.o(.data)
    m_flags                                  0x20002a68   Data           8  fds.o(.data)
    m_queued_op_cnt                          0x20002a70   Data           4  fds.o(.data)
    m_users                                  0x20002a74   Data           4  fds.o(.data)
    m_latest_rec_id                          0x20002a78   Data           4  fds.o(.data)
    m_swap_page                              0x20002a7c   Data           8  fds.o(.data)
    tok                                      0x20002a84   Data           8  fds.o(.data)
    page                                     0x20002a8c   Data           2  fds.o(.data)
    m_p_cur_op                               0x20002a90   Data           4  fds.o(.data)
    m_iget_ctx                               0x20002a94   Data           4  fds.o(.data)
    .data                                    0x20002a98   Section       20  app_timer.o(.data)
    mp_timer_id_head                         0x20002a98   Data           4  app_timer.o(.data)
    m_ticks_latest                           0x20002a9c   Data           4  app_timer.o(.data)
    m_ticks_elapsed                          0x20002aa0   Data           8  app_timer.o(.data)
    m_ticks_elapsed_q_read_ind               0x20002aa8   Data           1  app_timer.o(.data)
    m_ticks_elapsed_q_write_ind              0x20002aa9   Data           1  app_timer.o(.data)
    m_rtc1_running                           0x20002aaa   Data           1  app_timer.o(.data)
    m_rtc1_reset                             0x20002aab   Data           1  app_timer.o(.data)
    .data                                    0x20002aac   Section        8  nrf_fstorage_sd.o(.data)
    m_p_cur_op                               0x20002aac   Data           4  nrf_fstorage_sd.o(.data)
    m_iget_ctx                               0x20002ab0   Data           4  nrf_fstorage_sd.o(.data)
    .data                                    0x20002ab4   Section       12  nrf_log_default_backends.o(.data)
    rtt_log_backend                          0x20002ab4   Data          12  nrf_log_default_backends.o(.data)
    .data                                    0x20002ac0   Section       20  nrf_log_frontend.o(.data)
    mempool_nrf_balloc_pool_stack            0x20002ac0   Data           8  nrf_log_frontend.o(.data)
    mempool_nrf_balloc_cb                    0x20002ac8   Data           8  nrf_log_frontend.o(.data)
    m_overflow_info                          0x20002ad0   Data           4  nrf_log_frontend.o(.data)
    .data                                    0x20002ad4   Section       56  nrf_log_str_formatter.o(.data)
    severity_names                           0x20002ad4   Data          20  nrf_log_str_formatter.o(.data)
    m_colors                                 0x20002ae8   Data          36  nrf_log_str_formatter.o(.data)
    .data                                    0x20002b0c   Section        3  nrf_sdh.o(.data)
    m_nrf_sdh_enabled                        0x20002b0c   Data           1  nrf_sdh.o(.data)
    m_nrf_sdh_suspended                      0x20002b0d   Data           1  nrf_sdh.o(.data)
    m_nrf_sdh_continue                       0x20002b0e   Data           1  nrf_sdh.o(.data)
    .data                                    0x20002b10   Section        4  system_nrf52840.o(.data)
    __tagsym$$used                           0x20002b10   Number         0  system_nrf52840.o(.data)
    .data                                    0x20002b14   Section        4  mvars.o(.data)
    fs_data                                  0x20002b18   Section       20  fds.o(fs_data)
    __tagsym$$used                           0x20002b18   Number         0  fds.o(fs_data)
    log_dynamic_data                         0x20002b2c   Section       12  nrf_ble_gatt.o(log_dynamic_data)
    __tagsym$$used                           0x20002b2c   Number         0  nrf_ble_gatt.o(log_dynamic_data)
    log_dynamic_data                         0x20002b38   Section       12  nrf_drv_clock.o(log_dynamic_data)
    __tagsym$$used                           0x20002b38   Number         0  nrf_drv_clock.o(log_dynamic_data)
    log_dynamic_data                         0x20002b44   Section       12  nrf_drv_gpiote.o(log_dynamic_data)
    __tagsym$$used                           0x20002b44   Number         0  nrf_drv_gpiote.o(log_dynamic_data)
    log_dynamic_data                         0x20002b50   Section       12  nrf_drv_saadc.o(log_dynamic_data)
    __tagsym$$used                           0x20002b50   Number         0  nrf_drv_saadc.o(log_dynamic_data)
    log_dynamic_data                         0x20002b5c   Section       12  nrf_drv_ppi.o(log_dynamic_data)
    __tagsym$$used                           0x20002b5c   Number         0  nrf_drv_ppi.o(log_dynamic_data)
    log_dynamic_data                         0x20002b68   Section       12  nrf_balloc.o(log_dynamic_data)
    __tagsym$$used                           0x20002b68   Number         0  nrf_balloc.o(log_dynamic_data)
    log_dynamic_data                         0x20002b74   Section       12  nrf_pwr_mgmt.o(log_dynamic_data)
    __tagsym$$used                           0x20002b74   Number         0  nrf_pwr_mgmt.o(log_dynamic_data)
    log_dynamic_data                         0x20002b80   Section       12  nrf_log_frontend.o(log_dynamic_data)
    __tagsym$$used                           0x20002b80   Number         0  nrf_log_frontend.o(log_dynamic_data)
    log_dynamic_data                         0x20002b8c   Section       12  nrf_sdh_ble.o(log_dynamic_data)
    __tagsym$$used                           0x20002b8c   Number         0  nrf_sdh_ble.o(log_dynamic_data)
    log_dynamic_data                         0x20002b98   Section       12  nrf_sdh_soc.o(log_dynamic_data)
    __tagsym$$used                           0x20002b98   Number         0  nrf_sdh_soc.o(log_dynamic_data)
    log_dynamic_data                         0x20002ba4   Section       12  nrf_sdh.o(log_dynamic_data)
    __tagsym$$used                           0x20002ba4   Number         0  nrf_sdh.o(log_dynamic_data)
    .bss                                     0x20002bb0   Section    32760  main.o(.bss)
    m_nus                                    0x20002bb0   Data          28  main.o(.bss)
    m_gatt                                   0x20002bcc   Data          20  main.o(.bss)
    m_adv                                    0x20002be0   Data         228  main.o(.bss)
    m_scan                                   0x20002cc4   Data         276  main.o(.bss)
    m_file                                   0x20002dd8   Data       32068  main.o(.bss)
    m_udid_candidates                        0x2000ab1c   Data         120  main.o(.bss)
    m_buffer_pool                            0x2000ab94   Data          20  main.o(.bss)
    .bss                                     0x2000aba8   Section      108  bsp.o(.bss)
    m_leds_timer_id_data                     0x2000aba8   Data          32  bsp.o(.bss)
    m_alert_timer_id_data                    0x2000abc8   Data          32  bsp.o(.bss)
    m_events_list                            0x2000abe8   Data          12  bsp.o(.bss)
    m_button_timer_id_data                   0x2000abf4   Data          32  bsp.o(.bss)
    .bss                                     0x2000ac14   Section       80  ble_conn_params.o(.bss)
    m_timer_data                             0x2000ac14   Data          32  ble_conn_params.o(.bss)
    m_conn_params_instances                  0x2000ac34   Data          20  ble_conn_params.o(.bss)
    m_conn_params_config                     0x2000ac48   Data          28  ble_conn_params.o(.bss)
    .bss                                     0x2000ac64   Section      184  ble_conn_state.o(.bss)
    m_bcs                                    0x2000ac64   Data         184  ble_conn_state.o(.bss)
    .bss                                     0x2000ad1c   Section       20  nrf_drv_clock.o(.bss)
    m_clock_cb                               0x2000ad1c   Data          20  nrf_drv_clock.o(.bss)
    .bss                                     0x2000ad30   Section      104  nrf_drv_gpiote.o(.bss)
    m_cb                                     0x2000ad30   Data         104  nrf_drv_gpiote.o(.bss)
    .bss                                     0x2000ad98   Section       48  nrf_drv_saadc.o(.bss)
    m_cb                                     0x2000ad98   Data          48  nrf_drv_saadc.o(.bss)
    .bss                                     0x2000adc8   Section       32  app_button.o(.bss)
    m_detection_delay_timer_id_data          0x2000adc8   Data          32  app_button.o(.bss)
    .bss                                     0x2000ade8   Section       32  app_error.o(.bss)
    m_error_data                             0x2000ade8   Data          32  app_error.o(.bss)
    .bss                                     0x2000ae08   Section     4180  fds.o(.bss)
    m_cb_table                               0x2000ae08   Data          16  fds.o(.bss)
    m_queue_data                             0x2000ae18   Data         364  fds.o(.bss)
    m_queue_inst                             0x2000af84   Data          16  fds.o(.bss)
    m_pages                                  0x2000af94   Data        3580  fds.o(.bss)
    m_gc                                     0x2000bd90   Data         192  fds.o(.bss)
    desc                                     0x2000be50   Data          12  fds.o(.bss)
    .bss                                     0x2000be5c   Section      268  app_timer.o(.bss)
    m_op_queue                               0x2000be5c   Data         268  app_timer.o(.bss)
    .bss                                     0x2000bf68   Section       12  app_util_platform.o(.bss)
    .bss                                     0x2000bf74   Section      176  nrf_fstorage_sd.o(.bss)
    m_fifo_data                              0x2000bf74   Data         140  nrf_fstorage_sd.o(.bss)
    m_fifo_inst                              0x2000c000   Data          16  nrf_fstorage_sd.o(.bss)
    m_flags                                  0x2000c010   Data          20  nrf_fstorage_sd.o(.bss)
    .bss                                     0x2000c024   Section       64  nrf_log_backend_rtt.o(.bss)
    m_string_buff                            0x2000c024   Data          64  nrf_log_backend_rtt.o(.bss)
    .bss                                     0x2000c064   Section     1248  nrf_log_frontend.o(.bss)
    mempool_nrf_balloc_pool_mem              0x2000c064   Data         192  nrf_log_frontend.o(.bss)
    m_log_data                               0x2000c124   Data        1056  nrf_log_frontend.o(.bss)
    .bss                                     0x2000c544   Section     2184  segger_rtt.o(.bss)
    _acUpBuffer                              0x2000c5bc   Data        2048  segger_rtt.o(.bss)
    _acDownBuffer                            0x2000cdbc   Data          16  segger_rtt.o(.bss)
    STACK                                    0x2000cdd0   Section     8192  arm_startup_nrf52840.o(STACK)

    Global Symbols

    Symbol Name                              Value     Ov Type        Size  Object(Section)

    BuildAttributes$$THM_ISAv4$E$P$D$K$B$S$7EM$VFPi3$EXTD16$VFPS$VFMA$PE$A:L22UL41UL21$X:L11$S22US41US21$IEEE1$IW$USESV6$~STKCKD$USESV7$~SHL$OSPACE$ROPI$EBA8$MICROLIB$REQ8$PRES8$EABIv2 0x00000000   Number         0  anon$$obj.o ABSOLUTE
    __ARM_use_no_argv                        0x00000000   Number         0  main.o ABSOLUTE
    _printf_a                                0x00000000   Number         0  stubs.o ABSOLUTE
    _printf_c                                0x00000000   Number         0  stubs.o ABSOLUTE
    _printf_charcount                        0x00000000   Number         0  stubs.o ABSOLUTE
    _printf_d                                0x00000000   Number         0  stubs.o ABSOLUTE
    _printf_e                                0x00000000   Number         0  stubs.o ABSOLUTE
    _printf_f                                0x00000000   Number         0  stubs.o ABSOLUTE
    _printf_flags                            0x00000000   Number         0  stubs.o ABSOLUTE
    _printf_fp_dec                           0x00000000   Number         0  stubs.o ABSOLUTE
    _printf_fp_hex                           0x00000000   Number         0  stubs.o ABSOLUTE
    _printf_g                                0x00000000   Number         0  stubs.o ABSOLUTE
    _printf_i                                0x00000000   Number         0  stubs.o ABSOLUTE
    _printf_int_dec                          0x00000000   Number         0  stubs.o ABSOLUTE
    _printf_l                                0x00000000   Number         0  stubs.o ABSOLUTE
    _printf_lc                               0x00000000   Number         0  stubs.o ABSOLUTE
    _printf_ll                               0x00000000   Number         0  stubs.o ABSOLUTE
    _printf_lld                              0x00000000   Number         0  stubs.o ABSOLUTE
    _printf_lli                              0x00000000   Number         0  stubs.o ABSOLUTE
    _printf_llo                              0x00000000   Number         0  stubs.o ABSOLUTE
    _printf_llu                              0x00000000   Number         0  stubs.o ABSOLUTE
    _printf_llx                              0x00000000   Number         0  stubs.o ABSOLUTE
    _printf_longlong_dec                     0x00000000   Number         0  stubs.o ABSOLUTE
    _printf_longlong_hex                     0x00000000   Number         0  stubs.o ABSOLUTE
    _printf_longlong_oct                     0x00000000   Number         0  stubs.o ABSOLUTE
    _printf_ls                               0x00000000   Number         0  stubs.o ABSOLUTE
    _printf_mbtowc                           0x00000000   Number         0  stubs.o ABSOLUTE
    _printf_n                                0x00000000   Number         0  stubs.o ABSOLUTE
    _printf_o                                0x00000000   Number         0  stubs.o ABSOLUTE
    _printf_p                                0x00000000   Number         0  stubs.o ABSOLUTE
    _printf_percent                          0x00000000   Number         0  stubs.o ABSOLUTE
    _printf_pre_padding                      0x00000000   Number         0  stubs.o ABSOLUTE
    _printf_return_value                     0x00000000   Number         0  stubs.o ABSOLUTE
    _printf_s                                0x00000000   Number         0  stubs.o ABSOLUTE
    _printf_sizespec                         0x00000000   Number         0  stubs.o ABSOLUTE
    _printf_str                              0x00000000   Number         0  stubs.o ABSOLUTE
    _printf_truncate_signed                  0x00000000   Number         0  stubs.o ABSOLUTE
    _printf_truncate_unsigned                0x00000000   Number         0  stubs.o ABSOLUTE
    _printf_u                                0x00000000   Number         0  stubs.o ABSOLUTE
    _printf_wc                               0x00000000   Number         0  stubs.o ABSOLUTE
    _printf_wctomb                           0x00000000   Number         0  stubs.o ABSOLUTE
    _printf_widthprec                        0x00000000   Number         0  stubs.o ABSOLUTE
    _printf_x                                0x00000000   Number         0  stubs.o ABSOLUTE
    __cpp_initialize__aeabi_                  - Undefined Weak Reference
    __cxa_finalize                            - Undefined Weak Reference
    _clock_init                               - Undefined Weak Reference
    _microlib_exit                            - Undefined Weak Reference
    pwr_mgmt_data0$$Base                      - Undefined Reference
    pwr_mgmt_data0$$Limit                     - Undefined Reference
    pwr_mgmt_data1$$Base                      - Undefined Reference
    pwr_mgmt_data1$$Limit                     - Undefined Reference
    pwr_mgmt_data2$$Base                      - Undefined Reference
    pwr_mgmt_data2$$Limit                     - Undefined Reference
    sdh_req_observers1$$Base                  - Undefined Reference
    sdh_req_observers1$$Limit                 - Undefined Reference
    sdh_stack_observers1$$Base                - Undefined Reference
    sdh_stack_observers1$$Limit               - Undefined Reference
    sdh_state_observers1$$Base                - Undefined Reference
    sdh_state_observers1$$Limit               - Undefined Reference
    __Vectors_Size                           0x00000200   Number         0  arm_startup_nrf52840.o ABSOLUTE
    __Vectors                                0x00025000   Data           4  arm_startup_nrf52840.o(RESET)
    __Vectors_End                            0x00025200   Data           0  arm_startup_nrf52840.o(RESET)
    __main                                   0x00025201   Thumb Code     0  entry.o(.ARM.Collect$$$$00000000)
    _main_stk                                0x00025201   Thumb Code     0  entry2.o(.ARM.Collect$$$$00000001)
    _main_scatterload                        0x00025205   Thumb Code     0  entry5.o(.ARM.Collect$$$$00000004)
    __main_after_scatterload                 0x00025209   Thumb Code     0  entry5.o(.ARM.Collect$$$$00000004)
    _main_clock                              0x00025209   Thumb Code     0  entry7b.o(.ARM.Collect$$$$00000008)
    _main_cpp_init                           0x00025209   Thumb Code     0  entry8b.o(.ARM.Collect$$$$0000000A)
    _main_init                               0x00025209   Thumb Code     0  entry9a.o(.ARM.Collect$$$$0000000B)
    __rt_final_cpp                           0x00025211   Thumb Code     0  entry10a.o(.ARM.Collect$$$$0000000D)
    __rt_final_exit                          0x00025211   Thumb Code     0  entry11a.o(.ARM.Collect$$$$0000000F)
    __asm___5_fds_c_m_fs__nrf_atomic_internal_mov 0x00025215   Thumb Code    24  fds.o(.emb_text)
    __asm___5_fds_c_m_fs__nrf_atomic_internal_orr 0x0002522d   Thumb Code    26  fds.o(.emb_text)
    __asm___5_fds_c_m_fs__nrf_atomic_internal_and 0x00025247   Thumb Code    26  fds.o(.emb_text)
    __asm___5_fds_c_m_fs__nrf_atomic_internal_eor 0x00025261   Thumb Code    26  fds.o(.emb_text)
    __asm___5_fds_c_m_fs__nrf_atomic_internal_add 0x0002527b   Thumb Code    26  fds.o(.emb_text)
    __asm___5_fds_c_m_fs__nrf_atomic_internal_sub 0x00025295   Thumb Code    26  fds.o(.emb_text)
    __asm___12_nrf_atfifo_c_51f461e1__nrf_atfifo_wspace_req 0x000252b1   Thumb Code    56  nrf_atfifo.o(.emb_text)
    __asm___12_nrf_atfifo_c_51f461e1__nrf_atfifo_wspace_close 0x000252e9   Thumb Code    18  nrf_atfifo.o(.emb_text)
    __asm___12_nrf_atfifo_c_51f461e1__nrf_atfifo_rspace_req 0x000252fb   Thumb Code    58  nrf_atfifo.o(.emb_text)
    __asm___12_nrf_atfifo_c_51f461e1__nrf_atfifo_rspace_close 0x00025335   Thumb Code    18  nrf_atfifo.o(.emb_text)
    __asm___12_nrf_atfifo_c_51f461e1__nrf_atfifo_space_clear 0x00025347   Thumb Code    50  nrf_atfifo.o(.emb_text)
    __asm___17_nrf_fstorage_sd_c_6e7dbfe9__nrf_atomic_internal_mov 0x00025379   Thumb Code    24  nrf_fstorage_sd.o(.emb_text)
    __asm___17_nrf_fstorage_sd_c_6e7dbfe9__nrf_atomic_internal_orr 0x00025391   Thumb Code    26  nrf_fstorage_sd.o(.emb_text)
    __asm___17_nrf_fstorage_sd_c_6e7dbfe9__nrf_atomic_internal_and 0x000253ab   Thumb Code    26  nrf_fstorage_sd.o(.emb_text)
    __asm___17_nrf_fstorage_sd_c_6e7dbfe9__nrf_atomic_internal_eor 0x000253c5   Thumb Code    26  nrf_fstorage_sd.o(.emb_text)
    __asm___17_nrf_fstorage_sd_c_6e7dbfe9__nrf_atomic_internal_add 0x000253df   Thumb Code    26  nrf_fstorage_sd.o(.emb_text)
    __asm___17_nrf_fstorage_sd_c_6e7dbfe9__nrf_atomic_internal_sub 0x000253f9   Thumb Code    26  nrf_fstorage_sd.o(.emb_text)
    __asm___12_nrf_memobj_c_9bb9f865__nrf_atomic_internal_mov 0x00025415   Thumb Code    24  nrf_memobj.o(.emb_text)
    __asm___12_nrf_memobj_c_9bb9f865__nrf_atomic_internal_orr 0x0002542d   Thumb Code    26  nrf_memobj.o(.emb_text)
    __asm___12_nrf_memobj_c_9bb9f865__nrf_atomic_internal_and 0x00025447   Thumb Code    26  nrf_memobj.o(.emb_text)
    __asm___12_nrf_memobj_c_9bb9f865__nrf_atomic_internal_eor 0x00025461   Thumb Code    26  nrf_memobj.o(.emb_text)
    __asm___12_nrf_memobj_c_9bb9f865__nrf_atomic_internal_add 0x0002547b   Thumb Code    26  nrf_memobj.o(.emb_text)
    __asm___12_nrf_memobj_c_9bb9f865__nrf_atomic_internal_sub 0x00025495   Thumb Code    26  nrf_memobj.o(.emb_text)
    __asm___18_nrf_log_frontend_c_bc460776__nrf_atomic_internal_mov 0x000254b1   Thumb Code    24  nrf_log_frontend.o(.emb_text)
    __asm___18_nrf_log_frontend_c_bc460776__nrf_atomic_internal_orr 0x000254c9   Thumb Code    26  nrf_log_frontend.o(.emb_text)
    __asm___18_nrf_log_frontend_c_bc460776__nrf_atomic_internal_and 0x000254e3   Thumb Code    26  nrf_log_frontend.o(.emb_text)
    __asm___18_nrf_log_frontend_c_bc460776__nrf_atomic_internal_eor 0x000254fd   Thumb Code    26  nrf_log_frontend.o(.emb_text)
    __asm___18_nrf_log_frontend_c_bc460776__nrf_atomic_internal_add 0x00025517   Thumb Code    26  nrf_log_frontend.o(.emb_text)
    __asm___18_nrf_log_frontend_c_bc460776__nrf_atomic_internal_sub 0x00025531   Thumb Code    26  nrf_log_frontend.o(.emb_text)
    Reset_Handler                            0x0002554d   Thumb Code     8  arm_startup_nrf52840.o(.text)
    NMI_Handler                              0x00025555   Thumb Code     2  arm_startup_nrf52840.o(.text)
    HardFault_Handler                        0x00025557   Thumb Code     2  arm_startup_nrf52840.o(.text)
    MemoryManagement_Handler                 0x00025559   Thumb Code     2  arm_startup_nrf52840.o(.text)
    BusFault_Handler                         0x0002555b   Thumb Code     2  arm_startup_nrf52840.o(.text)
    UsageFault_Handler                       0x0002555d   Thumb Code     2  arm_startup_nrf52840.o(.text)
    SVC_Handler                              0x0002555f   Thumb Code     2  arm_startup_nrf52840.o(.text)
    DebugMon_Handler                         0x00025561   Thumb Code     2  arm_startup_nrf52840.o(.text)
    PendSV_Handler                           0x00025563   Thumb Code     2  arm_startup_nrf52840.o(.text)
    SysTick_Handler                          0x00025565   Thumb Code     2  arm_startup_nrf52840.o(.text)
    CCM_AAR_IRQHandler                       0x00025567   Thumb Code     0  arm_startup_nrf52840.o(.text)
    COMP_LPCOMP_IRQHandler                   0x00025567   Thumb Code     0  arm_startup_nrf52840.o(.text)
    CRYPTOCELL_IRQHandler                    0x00025567   Thumb Code     0  arm_startup_nrf52840.o(.text)
    ECB_IRQHandler                           0x00025567   Thumb Code     0  arm_startup_nrf52840.o(.text)
    FPU_IRQHandler                           0x00025567   Thumb Code     0  arm_startup_nrf52840.o(.text)
    I2S_IRQHandler                           0x00025567   Thumb Code     0  arm_startup_nrf52840.o(.text)
    MWU_IRQHandler                           0x00025567   Thumb Code     0  arm_startup_nrf52840.o(.text)
    NFCT_IRQHandler                          0x00025567   Thumb Code     0  arm_startup_nrf52840.o(.text)
    PDM_IRQHandler                           0x00025567   Thumb Code     0  arm_startup_nrf52840.o(.text)
    PWM0_IRQHandler                          0x00025567   Thumb Code     0  arm_startup_nrf52840.o(.text)
    PWM1_IRQHandler                          0x00025567   Thumb Code     0  arm_startup_nrf52840.o(.text)
    PWM2_IRQHandler                          0x00025567   Thumb Code     0  arm_startup_nrf52840.o(.text)
    PWM3_IRQHandler                          0x00025567   Thumb Code     0  arm_startup_nrf52840.o(.text)
    QDEC_IRQHandler                          0x00025567   Thumb Code     0  arm_startup_nrf52840.o(.text)
    QSPI_IRQHandler                          0x00025567   Thumb Code     0  arm_startup_nrf52840.o(.text)
    RADIO_IRQHandler                         0x00025567   Thumb Code     0  arm_startup_nrf52840.o(.text)
    RNG_IRQHandler                           0x00025567   Thumb Code     0  arm_startup_nrf52840.o(.text)
    RTC0_IRQHandler                          0x00025567   Thumb Code     0  arm_startup_nrf52840.o(.text)
    RTC2_IRQHandler                          0x00025567   Thumb Code     0  arm_startup_nrf52840.o(.text)
    SPIM0_SPIS0_TWIM0_TWIS0_SPI0_TWI0_IRQHandler 0x00025567   Thumb Code     0  arm_startup_nrf52840.o(.text)
    SPIM1_SPIS1_TWIM1_TWIS1_SPI1_TWI1_IRQHandler 0x00025567   Thumb Code     0  arm_startup_nrf52840.o(.text)
    SPIM2_SPIS2_SPI2_IRQHandler              0x00025567   Thumb Code     0  arm_startup_nrf52840.o(.text)
    SPIM3_IRQHandler                         0x00025567   Thumb Code     0  arm_startup_nrf52840.o(.text)
    SWI1_EGU1_IRQHandler                     0x00025567   Thumb Code     0  arm_startup_nrf52840.o(.text)
    SWI3_EGU3_IRQHandler                     0x00025567   Thumb Code     0  arm_startup_nrf52840.o(.text)
    SWI4_EGU4_IRQHandler                     0x00025567   Thumb Code     0  arm_startup_nrf52840.o(.text)
    SWI5_EGU5_IRQHandler                     0x00025567   Thumb Code     0  arm_startup_nrf52840.o(.text)
    TEMP_IRQHandler                          0x00025567   Thumb Code     0  arm_startup_nrf52840.o(.text)
    TIMER0_IRQHandler                        0x00025567   Thumb Code     0  arm_startup_nrf52840.o(.text)
    TIMER1_IRQHandler                        0x00025567   Thumb Code     0  arm_startup_nrf52840.o(.text)
    TIMER2_IRQHandler                        0x00025567   Thumb Code     0  arm_startup_nrf52840.o(.text)
    TIMER3_IRQHandler                        0x00025567   Thumb Code     0  arm_startup_nrf52840.o(.text)
    TIMER4_IRQHandler                        0x00025567   Thumb Code     0  arm_startup_nrf52840.o(.text)
    UARTE0_UART0_IRQHandler                  0x00025567   Thumb Code     0  arm_startup_nrf52840.o(.text)
    UARTE1_IRQHandler                        0x00025567   Thumb Code     0  arm_startup_nrf52840.o(.text)
    USBD_IRQHandler                          0x00025567   Thumb Code     0  arm_startup_nrf52840.o(.text)
    WDT_IRQHandler                           0x00025567   Thumb Code     0  arm_startup_nrf52840.o(.text)
    __aeabi_uldivmod                         0x00025571   Thumb Code    98  uldiv.o(.text)
    __rt_ctype_table                         0x000255d5   Thumb Code     4  ctype_o.o(.text)
    qsort                                    0x000255dd   Thumb Code   156  qsort.o(.text)
    __aeabi_memcpy                           0x00025679   Thumb Code    36  memcpya.o(.text)
    __aeabi_memcpy4                          0x00025679   Thumb Code     0  memcpya.o(.text)
    __aeabi_memcpy8                          0x00025679   Thumb Code     0  memcpya.o(.text)
    __aeabi_memset                           0x0002569d   Thumb Code    14  memseta.o(.text)
    __aeabi_memset4                          0x0002569d   Thumb Code     0  memseta.o(.text)
    __aeabi_memset8                          0x0002569d   Thumb Code     0  memseta.o(.text)
    __aeabi_memclr                           0x000256ab   Thumb Code     4  memseta.o(.text)
    __aeabi_memclr4                          0x000256ab   Thumb Code     0  memseta.o(.text)
    __aeabi_memclr8                          0x000256ab   Thumb Code     0  memseta.o(.text)
    _memset$wrapper                          0x000256af   Thumb Code    18  memseta.o(.text)
    strlen                                   0x000256c1   Thumb Code    14  strlen.o(.text)
    memcmp                                   0x000256cf   Thumb Code    26  memcmp.o(.text)
    strcpy                                   0x000256e9   Thumb Code    18  strcpy.o(.text)
    __aeabi_llsl                             0x000256fb   Thumb Code    30  llshl.o(.text)
    _ll_shift_l                              0x000256fb   Thumb Code     0  llshl.o(.text)
    __aeabi_llsr                             0x00025719   Thumb Code    32  llushr.o(.text)
    _ll_ushift_r                             0x00025719   Thumb Code     0  llushr.o(.text)
    __scatterload                            0x00025739   Thumb Code    28  init.o(.text)
    __scatterload_rt2                        0x00025739   Thumb Code     0  init.o(.text)
    __decompress                             0x0002575d   Thumb Code     0  __dczerorl2.o(.text)
    __decompress1                            0x0002575d   Thumb Code    86  __dczerorl2.o(.text)
    GPIOTE_IRQHandler                        0x000257b5   Thumb Code   564  nrf_drv_gpiote.o(i.GPIOTE_IRQHandler)
    POWER_CLOCK_IRQHandler                   0x00025a65   Thumb Code    74  nrf_drv_clock.o(i.POWER_CLOCK_IRQHandler)
    RTC1_IRQHandler                          0x00025ab5   Thumb Code    44  app_timer.o(i.RTC1_IRQHandler)
    SAADC_IRQHandler                         0x00025ae9   Thumb Code   456  nrf_drv_saadc.o(i.SAADC_IRQHandler)
    SEGGER_RTT_Init                          0x00025cb5   Thumb Code     8  segger_rtt.o(i.SEGGER_RTT_Init)
    SEGGER_RTT_WriteNoLock                   0x00025cbd   Thumb Code   126  segger_rtt.o(i.SEGGER_RTT_WriteNoLock)
    SWI0_EGU0_IRQHandler                     0x00025d41   Thumb Code     8  app_timer.o(i.SWI0_EGU0_IRQHandler)
    SWI2_EGU2_IRQHandler                     0x00025d49   Thumb Code     8  nrf_sdh.o(i.SWI2_EGU2_IRQHandler)
    SystemCoreClockUpdate                    0x00025d51   Thumb Code     8  system_nrf52840.o(i.SystemCoreClockUpdate)
    SystemInit                               0x00025d61   Thumb Code   494  system_nrf52840.o(i.SystemInit)
    __0sprintf$8                             0x000260dd   Thumb Code    34  printf8.o(i.__0sprintf$8)
    __1sprintf$8                             0x000260dd   Thumb Code     0  printf8.o(i.__0sprintf$8)
    __2sprintf                               0x000260dd   Thumb Code     0  printf8.o(i.__0sprintf$8)
    __scatterload_copy                       0x00026105   Thumb Code    14  handlers.o(i.__scatterload_copy)
    __scatterload_null                       0x00026113   Thumb Code     2  handlers.o(i.__scatterload_null)
    __scatterload_zeroinit                   0x00026115   Thumb Code    14  handlers.o(i.__scatterload_zeroinit)
    app_button_enable                        0x00026791   Thumb Code    34  app_button.o(i.app_button_enable)
    app_button_init                          0x000267bd   Thumb Code   132  app_button.o(i.app_button_init)
    app_error_fault_handler                  0x00026865   Thumb Code   216  app_error_weak.o(i.app_error_fault_handler)
    app_error_handler                        0x000269d5   Thumb Code    32  app_error.o(i.app_error_handler)
    app_error_save_and_stop                  0x000269f5   Thumb Code   132  app_error.o(i.app_error_save_and_stop)
    app_timer_create                         0x00026a7d   Thumb Code    56  app_timer.o(i.app_timer_create)
    app_timer_init                           0x00026ab9   Thumb Code    70  app_timer.o(i.app_timer_init)
    app_timer_start                          0x00026b15   Thumb Code    78  app_timer.o(i.app_timer_start)
    app_timer_stop                           0x00026b69   Thumb Code    44  app_timer.o(i.app_timer_stop)
    app_util_critical_region_enter           0x00026b99   Thumb Code    12  app_util_platform.o(i.app_util_critical_region_enter)
    app_util_critical_region_exit            0x00026ba5   Thumb Code    62  app_util_platform.o(i.app_util_critical_region_exit)
    ble_advdata_encode                       0x00026c9d   Thumb Code   364  ble_advdata.o(i.ble_advdata_encode)
    ble_advdata_set                          0x00026e09   Thumb Code   188  ble_advdata.o(i.ble_advdata_set)
    ble_conn_params_init                     0x00026ec5   Thumb Code   136  ble_conn_params.o(i.ble_conn_params_init)
    ble_nus_init                             0x00027381   Thumb Code   144  ble_nus.o(i.ble_nus_init)
    ble_nus_on_ble_evt                       0x00027415   Thumb Code    90  ble_nus.o(i.ble_nus_on_ble_evt)
    ble_nus_string_send                      0x00027475   Thumb Code    82  ble_nus.o(i.ble_nus_string_send)
    ble_srv_is_notification_enabled          0x000274c7   Thumb Code    18  ble_srv_common.o(i.ble_srv_is_notification_enabled)
    bsp_board_button_state_get               0x00027551   Thumb Code    48  boards.o(i.bsp_board_button_state_get)
    bsp_board_led_invert                     0x00027585   Thumb Code    50  boards.o(i.bsp_board_led_invert)
    bsp_board_led_off                        0x000275bd   Thumb Code    16  boards.o(i.bsp_board_led_off)
    bsp_board_led_on                         0x000275d1   Thumb Code    16  boards.o(i.bsp_board_led_on)
    bsp_board_led_state_get                  0x000275e5   Thumb Code    48  boards.o(i.bsp_board_led_state_get)
    bsp_board_leds_init                      0x00027619   Thumb Code    42  boards.o(i.bsp_board_leds_init)
    bsp_board_leds_off                       0x00027649   Thumb Code    20  boards.o(i.bsp_board_leds_off)
    bsp_board_leds_on                        0x0002765d   Thumb Code    20  boards.o(i.bsp_board_leds_on)
    bsp_board_pin_to_button_idx              0x00027671   Thumb Code    32  boards.o(i.bsp_board_pin_to_button_idx)
    bsp_btn_ble_init                         0x00027695   Thumb Code    36  bsp_btn_ble.o(i.bsp_btn_ble_init)
    bsp_button_is_pressed                    0x00027785   Thumb Code    12  bsp.o(i.bsp_button_is_pressed)
    bsp_event_handler                        0x00027791   Thumb Code   474  main.o(i.bsp_event_handler)
    bsp_event_to_button_action_assign        0x00027a35   Thumb Code    86  bsp.o(i.bsp_event_to_button_action_assign)
    bsp_indication_set                       0x00027a91   Thumb Code    28  bsp.o(i.bsp_indication_set)
    bsp_init                                 0x00027ab1   Thumb Code   134  bsp.o(i.bsp_init)
    buffer_is_empty                          0x00027f89   Thumb Code    20  nrf_log_frontend.o(i.buffer_is_empty)
    eartag_adv_error_handler                 0x00028979   Thumb Code    30  main.o(i.eartag_adv_error_handler)
    eartag_adv_evt_handler                   0x000289a9   Thumb Code    76  main.o(i.eartag_adv_evt_handler)
    eartag_adv_init                          0x00028a51   Thumb Code   232  eartag_adv.o(i.eartag_adv_init)
    eartag_adv_on_ble_evt                    0x00028b39   Thumb Code    88  eartag_adv.o(i.eartag_adv_on_ble_evt)
    eartag_adv_on_sys_evt                    0x00028b91   Thumb Code    90  eartag_adv.o(i.eartag_adv_on_sys_evt)
    eartag_adv_set_batt_lv                   0x00028beb   Thumb Code    48  eartag_adv.o(i.eartag_adv_set_batt_lv)
    eartag_adv_set_temperature               0x00028c1b   Thumb Code    40  eartag_adv.o(i.eartag_adv_set_temperature)
    eartag_adv_start_coded_nonconnectable    0x00028c43   Thumb Code   118  eartag_adv.o(i.eartag_adv_start_coded_nonconnectable)
    eartag_adv_start_legacy                  0x00028cb9   Thumb Code   118  eartag_adv.o(i.eartag_adv_start_legacy)
    eartag_file_config_write                 0x00028d31   Thumb Code   148  eartag_file.o(i.eartag_file_config_write)
    eartag_file_db_put                       0x00028dc9   Thumb Code   146  eartag_file.o(i.eartag_file_db_put)
    eartag_file_db_write                     0x00028e5b   Thumb Code    58  eartag_file.o(i.eartag_file_db_write)
    eartag_file_error_handler                0x00028e95   Thumb Code    30  main.o(i.eartag_file_error_handler)
    eartag_file_evt_handler                  0x00028ec5   Thumb Code   306  main.o(i.eartag_file_evt_handler)
    eartag_file_get_config                   0x000290cd   Thumb Code    44  eartag_file.o(i.eartag_file_get_config)
    eartag_file_get_db                       0x000290f9   Thumb Code    60  eartag_file.o(i.eartag_file_get_db)
    eartag_file_init                         0x00029135   Thumb Code   356  eartag_file.o(i.eartag_file_init)
    eartag_file_on_fds_evt                   0x00029299   Thumb Code   298  eartag_file.o(i.eartag_file_on_fds_evt)
    eartag_scan_error_handler                0x000293c5   Thumb Code    30  main.o(i.eartag_scan_error_handler)
    eartag_scan_evt_handler                  0x000293f5   Thumb Code   282  main.o(i.eartag_scan_evt_handler)
    eartag_scan_init                         0x000295ad   Thumb Code   178  eartag_scan.o(i.eartag_scan_init)
    eartag_scan_on_ble_evt                   0x00029669   Thumb Code    88  eartag_scan.o(i.eartag_scan_on_ble_evt)
    eartag_scan_start                        0x000296c1   Thumb Code   126  eartag_scan.o(i.eartag_scan_start)
    fds_gc                                   0x00029ae1   Thumb Code    58  fds.o(i.fds_gc)
    fds_init                                 0x00029b25   Thumb Code   220  fds.o(i.fds_init)
    fds_record_find                          0x00029c05   Thumb Code    22  fds.o(i.fds_record_find)
    fds_record_open                          0x00029c1d   Thumb Code    70  fds.o(i.fds_record_open)
    fds_record_update                        0x00029c69   Thumb Code    26  fds.o(i.fds_record_update)
    fds_record_write                         0x00029c83   Thumb Code    20  fds.o(i.fds_record_write)
    fds_register                             0x00029c99   Thumb Code    40  fds.o(i.fds_register)
    free                                     0x00029e81   Thumb Code    76  malloc.o(i.free)
    gatt_evt_handler                         0x00029f75   Thumb Code    58  main.o(i.gatt_evt_handler)
    gatt_init                                0x00029fd9   Thumb Code    72  main.o(i.gatt_init)
    main                                     0x0002aa91   Thumb Code   180  main.o(i.main)
    nrf_atfifo_clear                         0x0002ae0b   Thumb Code    22  nrf_atfifo.o(i.nrf_atfifo_clear)
    nrf_atfifo_init                          0x0002ae21   Thumb Code    40  nrf_atfifo.o(i.nrf_atfifo_init)
    nrf_atfifo_item_alloc                    0x0002ae49   Thumb Code    28  nrf_atfifo.o(i.nrf_atfifo_item_alloc)
    nrf_atfifo_item_free                     0x0002ae65   Thumb Code    28  nrf_atfifo.o(i.nrf_atfifo_item_free)
    nrf_atfifo_item_get                      0x0002ae81   Thumb Code    28  nrf_atfifo.o(i.nrf_atfifo_item_get)
    nrf_atfifo_item_put                      0x0002ae9d   Thumb Code    28  nrf_atfifo.o(i.nrf_atfifo_item_put)
    nrf_balloc_alloc                         0x0002aee5   Thumb Code    82  nrf_balloc.o(i.nrf_balloc_alloc)
    nrf_balloc_free                          0x0002af47   Thumb Code    48  nrf_balloc.o(i.nrf_balloc_free)
    nrf_balloc_init                          0x0002af83   Thumb Code    60  nrf_balloc.o(i.nrf_balloc_init)
    nrf_ble_gatt_att_mtu_periph_set          0x0002afd5   Thumb Code    30  nrf_ble_gatt.o(i.nrf_ble_gatt_att_mtu_periph_set)
    nrf_ble_gatt_init                        0x0002aff3   Thumb Code    52  nrf_ble_gatt.o(i.nrf_ble_gatt_init)
    nrf_ble_gatt_on_ble_evt                  0x0002b029   Thumb Code   190  nrf_ble_gatt.o(i.nrf_ble_gatt_on_ble_evt)
    nrf_drv_clock_init                       0x0002b271   Thumb Code    94  nrf_drv_clock.o(i.nrf_drv_clock_init)
    nrf_drv_clock_lfclk_release              0x0002b2d9   Thumb Code    42  nrf_drv_clock.o(i.nrf_drv_clock_lfclk_release)
    nrf_drv_common_irq_enable                0x0002b309   Thumb Code    84  nrf_drv_common.o(i.nrf_drv_common_irq_enable)
    nrf_drv_gpiote_in_event_enable           0x0002b369   Thumb Code   164  nrf_drv_gpiote.o(i.nrf_drv_gpiote_in_event_enable)
    nrf_drv_gpiote_in_init                   0x0002b415   Thumb Code   210  nrf_drv_gpiote.o(i.nrf_drv_gpiote_in_init)
    nrf_drv_gpiote_in_is_set                 0x0002b4f5   Thumb Code    20  nrf_drv_gpiote.o(i.nrf_drv_gpiote_in_is_set)
    nrf_drv_gpiote_init                      0x0002b509   Thumb Code    90  nrf_drv_gpiote.o(i.nrf_drv_gpiote_init)
    nrf_drv_gpiote_is_init                   0x0002b569   Thumb Code    16  nrf_drv_gpiote.o(i.nrf_drv_gpiote_is_init)
    nrf_fprintf                              0x0002b57d   Thumb Code    42  nrf_fprintf.o(i.nrf_fprintf)
    nrf_fprintf_buffer_flush                 0x0002b5a7   Thumb Code    28  nrf_fprintf.o(i.nrf_fprintf_buffer_flush)
    nrf_fprintf_fmt                          0x0002b5c3   Thumb Code   496  nrf_fprintf_format.o(i.nrf_fprintf_fmt)
    nrf_fstorage_erase                       0x0002b7b3   Thumb Code    84  nrf_fstorage.o(i.nrf_fstorage_erase)
    nrf_fstorage_init                        0x0002b807   Thumb Code    30  nrf_fstorage.o(i.nrf_fstorage_init)
    nrf_fstorage_sdh_req_handler             0x0002b825   Thumb Code    22  nrf_fstorage_sd.o(i.nrf_fstorage_sdh_req_handler)
    nrf_fstorage_sdh_state_handler           0x0002b841   Thumb Code    40  nrf_fstorage_sd.o(i.nrf_fstorage_sdh_state_handler)
    nrf_fstorage_sys_evt_handler             0x0002b86d   Thumb Code   116  nrf_fstorage_sd.o(i.nrf_fstorage_sys_evt_handler)
    nrf_fstorage_write                       0x0002b8e9   Thumb Code   108  nrf_fstorage.o(i.nrf_fstorage_write)
    nrf_log_backend_add                      0x0002bb81   Thumb Code    68  nrf_log_frontend.o(i.nrf_log_backend_add)
    nrf_log_backend_rtt_init                 0x0002bbcb   Thumb Code     8  nrf_log_backend_rtt.o(i.nrf_log_backend_rtt_init)
    nrf_log_backend_serial_put               0x0002bbf5   Thumb Code   254  nrf_log_backend_serial.o(i.nrf_log_backend_serial_put)
    nrf_log_color_id_get                     0x0002bcf5   Thumb Code    52  nrf_log_frontend.o(i.nrf_log_color_id_get)
    nrf_log_default_backends_init            0x0002bd2d   Thumb Code    32  nrf_log_default_backends.o(i.nrf_log_default_backends_init)
    nrf_log_frontend_dequeue                 0x0002bd51   Thumb Code   696  nrf_log_frontend.o(i.nrf_log_frontend_dequeue)
    nrf_log_frontend_std_0                   0x0002c011   Thumb Code    20  nrf_log_frontend.o(i.nrf_log_frontend_std_0)
    nrf_log_frontend_std_1                   0x0002c025   Thumb Code    24  nrf_log_frontend.o(i.nrf_log_frontend_std_1)
    nrf_log_frontend_std_2                   0x0002c03d   Thumb Code    32  nrf_log_frontend.o(i.nrf_log_frontend_std_2)
    nrf_log_frontend_std_3                   0x0002c05d   Thumb Code    40  nrf_log_frontend.o(i.nrf_log_frontend_std_3)
    nrf_log_frontend_std_4                   0x0002c085   Thumb Code    44  nrf_log_frontend.o(i.nrf_log_frontend_std_4)
    nrf_log_hexdump_entry_process            0x0002c0b1   Thumb Code   158  nrf_log_str_formatter.o(i.nrf_log_hexdump_entry_process)
    nrf_log_init                             0x0002c169   Thumb Code    84  nrf_log_frontend.o(i.nrf_log_init)
    nrf_log_module_cnt_get                   0x0002c1d1   Thumb Code    10  nrf_log_frontend.o(i.nrf_log_module_cnt_get)
    nrf_log_module_name_get                  0x0002c1e5   Thumb Code    30  nrf_log_frontend.o(i.nrf_log_module_name_get)
    nrf_log_panic                            0x0002c209   Thumb Code    46  nrf_log_frontend.o(i.nrf_log_panic)
    nrf_log_std_entry_process                0x0002c23d   Thumb Code   200  nrf_log_str_formatter.o(i.nrf_log_std_entry_process)
    nrf_memobj_alloc                         0x0002c305   Thumb Code   122  nrf_memobj.o(i.nrf_memobj_alloc)
    nrf_memobj_free                          0x0002c37f   Thumb Code    64  nrf_memobj.o(i.nrf_memobj_free)
    nrf_memobj_get                           0x0002c3bf   Thumb Code    30  nrf_memobj.o(i.nrf_memobj_get)
    nrf_memobj_pool_init                     0x0002c3dd   Thumb Code    12  nrf_memobj.o(i.nrf_memobj_pool_init)
    nrf_memobj_put                           0x0002c3e9   Thumb Code    48  nrf_memobj.o(i.nrf_memobj_put)
    nrf_memobj_read                          0x0002c419   Thumb Code    28  nrf_memobj.o(i.nrf_memobj_read)
    nrf_memobj_write                         0x0002c435   Thumb Code    28  nrf_memobj.o(i.nrf_memobj_write)
    nrf_sdh_ble_app_ram_start_get            0x0002c499   Thumb Code    18  nrf_sdh_ble.o(i.nrf_sdh_ble_app_ram_start_get)
    nrf_sdh_ble_default_cfg_set              0x0002c4b1   Thumb Code   356  nrf_sdh_ble.o(i.nrf_sdh_ble_default_cfg_set)
    nrf_sdh_ble_enable                       0x0002c631   Thumb Code   100  nrf_sdh_ble.o(i.nrf_sdh_ble_enable)
    nrf_sdh_disable_request                  0x0002c7b5   Thumb Code    70  nrf_sdh.o(i.nrf_sdh_disable_request)
    nrf_sdh_enable_request                   0x0002c805   Thumb Code    88  nrf_sdh.o(i.nrf_sdh_enable_request)
    nrf_sdh_evts_poll                        0x0002c871   Thumb Code    44  nrf_sdh.o(i.nrf_sdh_evts_poll)
    nrf_sdh_is_enabled                       0x0002c8a1   Thumb Code     6  nrf_sdh.o(i.nrf_sdh_is_enabled)
    nrf_sdh_request_continue                 0x0002c8ad   Thumb Code    30  nrf_sdh.o(i.nrf_sdh_request_continue)
    nrf_section_iter_init                    0x0002c973   Thumb Code    20  nrf_section_iter.o(i.nrf_section_iter_init)
    nrf_section_iter_next                    0x0002c9b5   Thumb Code    46  nrf_section_iter.o(i.nrf_section_iter_next)
    nrf_strerror_find                        0x0002c9e5   Thumb Code    60  nrf_strerror.o(i.nrf_strerror_find)
    nrf_strerror_get                         0x0002ca25   Thumb Code    22  nrf_strerror.o(i.nrf_strerror_get)
    sdk_mapped_flags_bulk_update_by_key      0x0002deb9   Thumb Code   124  sdk_mapped_flags.o(i.sdk_mapped_flags_bulk_update_by_key)
    sdk_mapped_flags_first_key_index_get     0x0002df35   Thumb Code    36  sdk_mapped_flags.o(i.sdk_mapped_flags_first_key_index_get)
    sdk_mapped_flags_key_list_get            0x0002df6b   Thumb Code    66  sdk_mapped_flags.o(i.sdk_mapped_flags_key_list_get)
    sdk_mapped_flags_update_by_key           0x0002dfad   Thumb Code    26  sdk_mapped_flags.o(i.sdk_mapped_flags_update_by_key)
    nrf_fstorage_sd                          0x0002f118   Data          32  nrf_fstorage_sd.o(.constdata)
    nrf_log_backend_rtt_api                  0x0002f23c   Data          12  nrf_log_backend_rtt.o(.constdata)
    m_ram_start                              0x0002f288   Data           4  nrf_sdh_ble.o(.constdata)
    __ctype_table                            0x0002f300   Data         129  ctype_o.o(.constdata)
    Region$$Table$$Base                      0x0002fab4   Number         0  anon$$obj.o(Region$$Table)
    Region$$Table$$Limit                     0x0002fad4   Number         0  anon$$obj.o(Region$$Table)
    log_const_data$$Base                     0x0002fad4   Number         0  nrf_ble_gatt.o(log_const_data)
    m_nrf_log_ble_gatt_logs_data_const       0x0002fad4   Data           8  nrf_ble_gatt.o(log_const_data)
    m_nrf_log_clock_logs_data_const          0x0002fadc   Data           8  nrf_drv_clock.o(log_const_data)
    m_nrf_log_gpiote_logs_data_const         0x0002fae4   Data           8  nrf_drv_gpiote.o(log_const_data)
    m_nrf_log_saadc_logs_data_const          0x0002faec   Data           8  nrf_drv_saadc.o(log_const_data)
    m_nrf_log_ppi_logs_data_const            0x0002faf4   Data           8  nrf_drv_ppi.o(log_const_data)
    m_nrf_log_balloc_logs_data_const         0x0002fafc   Data           8  nrf_balloc.o(log_const_data)
    m_nrf_log_pwr_mgmt_logs_data_const       0x0002fb04   Data           8  nrf_pwr_mgmt.o(log_const_data)
    m_nrf_log_app_logs_data_const            0x0002fb0c   Data           8  nrf_log_frontend.o(log_const_data)
    m_nrf_log_nrf_sdh_ble_logs_data_const    0x0002fb14   Data           8  nrf_sdh_ble.o(log_const_data)
    m_nrf_log_nrf_sdh_soc_logs_data_const    0x0002fb1c   Data           8  nrf_sdh_soc.o(log_const_data)
    m_nrf_log_nrf_sdh_logs_data_const        0x0002fb24   Data           8  nrf_sdh.o(log_const_data)
    log_const_data$$Limit                    0x0002fb2c   Number         0  nrf_sdh.o(log_const_data)
    sdh_ble_observers0$$Base                 0x0002fb2c   Number         0  ble_conn_state.o(sdh_ble_observers0)
    sdh_ble_observers0$$Limit                0x0002fb34   Number         0  ble_conn_state.o(sdh_ble_observers0)
    sdh_ble_observers1$$Base                 0x0002fb34   Number         0  main.o(sdh_ble_observers1)
    sdh_ble_observers1$$Limit                0x0002fb5c   Number         0  ble_conn_params.o(sdh_ble_observers1)
    sdh_ble_observers2$$Base                 0x0002fb5c   Number         0  main.o(sdh_ble_observers2)
    sdh_ble_observers2$$Limit                0x0002fb64   Number         0  main.o(sdh_ble_observers2)
    sdh_ble_observers3$$Base                 0x0002fb64   Number         0  main.o(sdh_ble_observers3)
    m_req_obs                                0x0002fb6c   Data           8  nrf_fstorage_sd.o(sdh_req_observers0)
    sdh_ble_observers3$$Limit                0x0002fb6c   Number         0  main.o(sdh_ble_observers3)
    sdh_req_observers0$$Base                 0x0002fb6c   Number         0  nrf_fstorage_sd.o(sdh_req_observers0)
    sdh_req_observers0$$Limit                0x0002fb74   Number         0  nrf_fstorage_sd.o(sdh_req_observers0)
    sdh_soc_observers0$$Base                 0x0002fb74   Number         0  nrf_drv_clock.o(sdh_soc_observers0)
    sdh_soc_observers0$$Limit                0x0002fb84   Number         0  nrf_fstorage_sd.o(sdh_soc_observers0)
    sdh_soc_observers1$$Base                 0x0002fb84   Number         0  main.o(sdh_soc_observers1)
    sdh_soc_observers1$$Limit                0x0002fb8c   Number         0  main.o(sdh_soc_observers1)
    sdh_stack_observers0$$Base               0x0002fb8c   Number         0  nrf_sdh_ble.o(sdh_stack_observers0)
    sdh_stack_observers0$$Limit              0x0002fb9c   Number         0  nrf_sdh_soc.o(sdh_stack_observers0)
    sdh_state_observers0$$Base               0x0002fb9c   Number         0  nrf_drv_clock.o(sdh_state_observers0)
    sdh_state_observers0$$Limit              0x0002fbac   Number         0  nrf_fstorage_sd.o(sdh_state_observers0)
    Image$$RW_IRAM1$$Base                    0x20002a18   Number         0  anon$$obj.o ABSOLUTE
    state                                    0x20002a24   Data           1  main.o(.data)
    SystemCoreClock                          0x20002b10   Data           4  system_nrf52840.o(.data)
    __microlib_freelist                      0x20002b14   Data           4  mvars.o(.data)
    fs_data$$Base                            0x20002b18   Number         0  fds.o(fs_data)
    m_fs                                     0x20002b18   Data          20  fds.o(fs_data)
    fs_data$$Limit                           0x20002b2c   Number         0  fds.o(fs_data)
    log_dynamic_data$$Base                   0x20002b2c   Number         0  nrf_ble_gatt.o(log_dynamic_data)
    m_nrf_log_ble_gatt_logs_data_dynamic     0x20002b2c   Data          12  nrf_ble_gatt.o(log_dynamic_data)
    m_nrf_log_clock_logs_data_dynamic        0x20002b38   Data          12  nrf_drv_clock.o(log_dynamic_data)
    m_nrf_log_gpiote_logs_data_dynamic       0x20002b44   Data          12  nrf_drv_gpiote.o(log_dynamic_data)
    m_nrf_log_saadc_logs_data_dynamic        0x20002b50   Data          12  nrf_drv_saadc.o(log_dynamic_data)
    m_nrf_log_ppi_logs_data_dynamic          0x20002b5c   Data          12  nrf_drv_ppi.o(log_dynamic_data)
    m_nrf_log_balloc_logs_data_dynamic       0x20002b68   Data          12  nrf_balloc.o(log_dynamic_data)
    m_nrf_log_pwr_mgmt_logs_data_dynamic     0x20002b74   Data          12  nrf_pwr_mgmt.o(log_dynamic_data)
    m_nrf_log_app_logs_data_dynamic          0x20002b80   Data          12  nrf_log_frontend.o(log_dynamic_data)
    m_nrf_log_nrf_sdh_ble_logs_data_dynamic  0x20002b8c   Data          12  nrf_sdh_ble.o(log_dynamic_data)
    m_nrf_log_nrf_sdh_soc_logs_data_dynamic  0x20002b98   Data          12  nrf_sdh_soc.o(log_dynamic_data)
    m_nrf_log_nrf_sdh_logs_data_dynamic      0x20002ba4   Data          12  nrf_sdh.o(log_dynamic_data)
    nrf_nvic_state                           0x2000bf68   Data          12  app_util_platform.o(.bss)
    _SEGGER_RTT                              0x2000c544   Data         120  segger_rtt.o(.bss)
    __initial_sp                             0x2000edd0   Data           0  arm_startup_nrf52840.o(STACK)



==============================================================================

Memory Map of the image

  Image Entry point : 0x00025201

  Load Region LR_IROM1 (Base: 0x00025000, Size: 0x0000ad44, Max: 0x000db000, ABSOLUTE, COMPRESSED[0x0000abf8])

    Execution Region ER_IROM1 (Exec base: 0x00025000, Load base: 0x00025000, Size: 0x0000abac, Max: 0x000db000, ABSOLUTE)

    Exec Addr    Load Addr    Size         Type   Attr      Idx    E Section Name        Object

    0x00025000   0x00025000   0x00000200   Data   RO         5573    RESET               arm_startup_nrf52840.o
    0x00025200   0x00025200   0x00000000   Code   RO         5649  * .ARM.Collect$$$$00000000  mc_w.l(entry.o)
    0x00025200   0x00025200   0x00000004   Code   RO         5985    .ARM.Collect$$$$00000001  mc_w.l(entry2.o)
    0x00025204   0x00025204   0x00000004   Code   RO         5988    .ARM.Collect$$$$00000004  mc_w.l(entry5.o)
    0x00025208   0x00025208   0x00000000   Code   RO         5990    .ARM.Collect$$$$00000008  mc_w.l(entry7b.o)
    0x00025208   0x00025208   0x00000000   Code   RO         5992    .ARM.Collect$$$$0000000A  mc_w.l(entry8b.o)
    0x00025208   0x00025208   0x00000008   Code   RO         5993    .ARM.Collect$$$$0000000B  mc_w.l(entry9a.o)
    0x00025210   0x00025210   0x00000000   Code   RO         5995    .ARM.Collect$$$$0000000D  mc_w.l(entry10a.o)
    0x00025210   0x00025210   0x00000000   Code   RO         5997    .ARM.Collect$$$$0000000F  mc_w.l(entry11a.o)
    0x00025210   0x00025210   0x00000004   Code   RO         5986    .ARM.Collect$$$$00002712  mc_w.l(entry2.o)
    0x00025214   0x00025214   0x0000009a   Code   RO         3107    .emb_text           fds.o
    0x000252ae   0x000252ae   0x00000002   PAD
    0x000252b0   0x000252b0   0x000000c8   Code   RO         3990    .emb_text           nrf_atfifo.o
    0x00025378   0x00025378   0x0000009a   Code   RO         4270    .emb_text           nrf_fstorage_sd.o
    0x00025412   0x00025412   0x00000002   PAD
    0x00025414   0x00025414   0x0000009a   Code   RO         4412    .emb_text           nrf_memobj.o
    0x000254ae   0x000254ae   0x00000002   PAD
    0x000254b0   0x000254b0   0x0000009a   Code   RO         4854    .emb_text           nrf_log_frontend.o
    0x0002554a   0x0002554a   0x00000002   PAD
    0x0002554c   0x0002554c   0x00000024   Code   RO         5574    .text               arm_startup_nrf52840.o
    0x00025570   0x00025570   0x00000062   Code   RO         5652    .text               mc_w.l(uldiv.o)
    0x000255d2   0x000255d2   0x00000002   PAD
    0x000255d4   0x000255d4   0x00000008   Code   RO         5654    .text               mc_w.l(ctype_o.o)
    0x000255dc   0x000255dc   0x0000009c   Code   RO         5682    .text               mc_w.l(qsort.o)
    0x00025678   0x00025678   0x00000024   Code   RO         5684    .text               mc_w.l(memcpya.o)
    0x0002569c   0x0002569c   0x00000024   Code   RO         5686    .text               mc_w.l(memseta.o)
    0x000256c0   0x000256c0   0x0000000e   Code   RO         5688    .text               mc_w.l(strlen.o)
    0x000256ce   0x000256ce   0x0000001a   Code   RO         5690    .text               mc_w.l(memcmp.o)
    0x000256e8   0x000256e8   0x00000012   Code   RO         5692    .text               mc_w.l(strcpy.o)
    0x000256fa   0x000256fa   0x0000001e   Code   RO         6004    .text               mc_w.l(llshl.o)
    0x00025718   0x00025718   0x00000020   Code   RO         6006    .text               mc_w.l(llushr.o)
    0x00025738   0x00025738   0x00000024   Code   RO         6021    .text               mc_w.l(init.o)
    0x0002575c   0x0002575c   0x00000056   Code   RO         6037    .text               mc_w.l(__dczerorl2.o)
    0x000257b2   0x000257b2   0x00000002   PAD
    0x000257b4   0x000257b4   0x00000240   Code   RO         2180    i.GPIOTE_IRQHandler  nrf_drv_gpiote.o
    0x000259f4   0x000259f4   0x00000018   Code   RO         3625    i.NVIC_ClearPendingIRQ  app_timer.o
    0x00025a0c   0x00025a0c   0x00000016   Code   RO         3626    i.NVIC_EnableIRQ    app_timer.o
    0x00025a22   0x00025a22   0x00000002   PAD
    0x00025a24   0x00025a24   0x00000018   Code   RO         3627    i.NVIC_SetPendingIRQ  app_timer.o
    0x00025a3c   0x00025a3c   0x00000028   Code   RO         3628    i.NVIC_SetPriority  app_timer.o
    0x00025a64   0x00025a64   0x00000050   Code   RO         1933    i.POWER_CLOCK_IRQHandler  nrf_drv_clock.o
    0x00025ab4   0x00025ab4   0x00000034   Code   RO         3629    i.RTC1_IRQHandler   app_timer.o
    0x00025ae8   0x00025ae8   0x000001cc   Code   RO         2524    i.SAADC_IRQHandler  nrf_drv_saadc.o
    0x00025cb4   0x00025cb4   0x00000008   Code   RO         5113    i.SEGGER_RTT_Init   segger_rtt.o
    0x00025cbc   0x00025cbc   0x00000084   Code   RO         5127    i.SEGGER_RTT_WriteNoLock  segger_rtt.o
    0x00025d40   0x00025d40   0x00000008   Code   RO         3630    i.SWI0_EGU0_IRQHandler  app_timer.o
    0x00025d48   0x00025d48   0x00000008   Code   RO         5451    i.SWI2_EGU2_IRQHandler  nrf_sdh.o
    0x00025d50   0x00025d50   0x00000010   Code   RO         5581    i.SystemCoreClockUpdate  system_nrf52840.o
    0x00025d60   0x00025d60   0x00000230   Code   RO         5582    i.SystemInit        system_nrf52840.o
    0x00025f90   0x00025f90   0x00000070   Code   RO         5131    i._DoInit           segger_rtt.o
    0x00026000   0x00026000   0x0000001c   Code   RO         5132    i._GetAvailWriteSpace  segger_rtt.o
    0x0002601c   0x0002601c   0x00000072   Code   RO         5134    i._WriteBlocking    segger_rtt.o
    0x0002608e   0x0002608e   0x0000004c   Code   RO         5135    i._WriteNoCheck     segger_rtt.o
    0x000260da   0x000260da   0x00000002   PAD
    0x000260dc   0x000260dc   0x00000028   Code   RO         5905    i.__0sprintf$8      mc_w.l(printf8.o)
    0x00026104   0x00026104   0x0000000e   Code   RO         6031    i.__scatterload_copy  mc_w.l(handlers.o)
    0x00026112   0x00026112   0x00000002   Code   RO         6032    i.__scatterload_null  mc_w.l(handlers.o)
    0x00026114   0x00026114   0x0000000e   Code   RO         6033    i.__scatterload_zeroinit  mc_w.l(handlers.o)
    0x00026122   0x00026122   0x00000002   PAD
    0x00026124   0x00026124   0x00000038   Code   RO         5452    i.__sd_nvic_app_accessible_irq  nrf_sdh.o
    0x0002615c   0x0002615c   0x0000000c   Code   RO         3867    i.__sd_nvic_irq_disable  app_util_platform.o
    0x00026168   0x00026168   0x00000410   Code   RO         5910    i._printf_core      mc_w.l(printf8.o)
    0x00026578   0x00026578   0x00000024   Code   RO         5911    i._printf_post_padding  mc_w.l(printf8.o)
    0x0002659c   0x0002659c   0x0000002e   Code   RO         5912    i._printf_pre_padding  mc_w.l(printf8.o)
    0x000265ca   0x000265ca   0x0000000a   Code   RO         5914    i._sputc            mc_w.l(printf8.o)
    0x000265d4   0x000265d4   0x0000004e   Code   RO          630    i.add_entry         eartag_file.o
    0x00026622   0x00026622   0x00000010   Code   RO         4202    i.addr_is_aligned32  nrf_fstorage.o
    0x00026632   0x00026632   0x0000001c   Code   RO         4203    i.addr_within_bounds  nrf_fstorage.o
    0x0002664e   0x0002664e   0x00000002   PAD
    0x00026650   0x00026650   0x0000002c   Code   RO         3108    i.address_is_valid  fds.o
    0x0002667c   0x0002667c   0x00000012   Code   RO         1761    i.advdata_check     ble_advdata.o
    0x0002668e   0x0002668e   0x00000054   Code   RO         1173    i.advertising_buttons_configure  bsp_btn_ble.o
    0x000266e2   0x000266e2   0x00000002   PAD
    0x000266e4   0x000266e4   0x000000a0   Code   RO            4    i.advertising_init  main.o
    0x00026784   0x00026784   0x0000000c   Code   RO         1056    i.alert_timer_handler  bsp.o
    0x00026790   0x00026790   0x0000002c   Code   RO         2863    i.app_button_enable  app_button.o
    0x000267bc   0x000267bc   0x000000a8   Code   RO         2864    i.app_button_init   app_button.o
    0x00026864   0x00026864   0x00000170   Code   RO         2970    i.app_error_fault_handler  app_error_weak.o
    0x000269d4   0x000269d4   0x00000020   Code   RO         2930    i.app_error_handler  app_error.o
    0x000269f4   0x000269f4   0x00000088   Code   RO         2932    i.app_error_save_and_stop  app_error.o
    0x00026a7c   0x00026a7c   0x0000003c   Code   RO         3633    i.app_timer_create  app_timer.o
    0x00026ab8   0x00026ab8   0x0000005c   Code   RO         3634    i.app_timer_init    app_timer.o
    0x00026b14   0x00026b14   0x00000054   Code   RO         3637    i.app_timer_start   app_timer.o
    0x00026b68   0x00026b68   0x00000030   Code   RO         3638    i.app_timer_stop    app_timer.o
    0x00026b98   0x00026b98   0x0000000c   Code   RO         3868    i.app_util_critical_region_enter  app_util_platform.o
    0x00026ba4   0x00026ba4   0x00000048   Code   RO         3869    i.app_util_critical_region_exit  app_util_platform.o
    0x00026bec   0x00026bec   0x00000052   Code   RO         1762    i.appearance_encode  ble_advdata.o
    0x00026c3e   0x00026c3e   0x00000024   Code   RO          499    i.apply_manu_spec_data  eartag_adv.o
    0x00026c62   0x00026c62   0x00000002   PAD
    0x00026c64   0x00026c64   0x00000038   Code   RO         4855    i.backend_id_assign  nrf_log_frontend.o
    0x00026c9c   0x00026c9c   0x0000016c   Code   RO         1763    i.ble_advdata_encode  ble_advdata.o
    0x00026e08   0x00026e08   0x000000bc   Code   RO         1764    i.ble_advdata_set   ble_advdata.o
    0x00026ec4   0x00026ec4   0x0000009c   Code   RO         1279    i.ble_conn_params_init  ble_conn_params.o
    0x00026f60   0x00026f60   0x00000076   Code   RO         1765    i.ble_device_addr_encode  ble_advdata.o
    0x00026fd6   0x00026fd6   0x00000002   PAD
    0x00026fd8   0x00026fd8   0x00000210   Code   RO            6    i.ble_evt_handler   main.o
    0x000271e8   0x000271e8   0x00000078   Code   RO         1174    i.ble_evt_handler   bsp_btn_ble.o
    0x00027260   0x00027260   0x00000040   Code   RO         1281    i.ble_evt_handler   ble_conn_params.o
    0x000272a0   0x000272a0   0x000000e0   Code   RO         1412    i.ble_evt_handler   ble_conn_state.o
    0x00027380   0x00027380   0x00000094   Code   RO         1868    i.ble_nus_init      ble_nus.o
    0x00027414   0x00027414   0x00000060   Code   RO         1869    i.ble_nus_on_ble_evt  ble_nus.o
    0x00027474   0x00027474   0x00000052   Code   RO         1870    i.ble_nus_string_send  ble_nus.o
    0x000274c6   0x000274c6   0x00000012   Code   RO         1573    i.ble_srv_is_notification_enabled  ble_srv_common.o
    0x000274d8   0x000274d8   0x00000078   Code   RO            7    i.ble_stack_init    main.o
    0x00027550   0x00027550   0x00000034   Code   RO          934    i.bsp_board_button_state_get  boards.o
    0x00027584   0x00027584   0x00000038   Code   RO          937    i.bsp_board_led_invert  boards.o
    0x000275bc   0x000275bc   0x00000014   Code   RO          938    i.bsp_board_led_off  boards.o
    0x000275d0   0x000275d0   0x00000014   Code   RO          939    i.bsp_board_led_on  boards.o
    0x000275e4   0x000275e4   0x00000034   Code   RO          940    i.bsp_board_led_state_get  boards.o
    0x00027618   0x00027618   0x00000030   Code   RO          941    i.bsp_board_leds_init  boards.o
    0x00027648   0x00027648   0x00000014   Code   RO          942    i.bsp_board_leds_off  boards.o
    0x0002765c   0x0002765c   0x00000014   Code   RO          943    i.bsp_board_leds_on  boards.o
    0x00027670   0x00027670   0x00000024   Code   RO          944    i.bsp_board_pin_to_button_idx  boards.o
    0x00027694   0x00027694   0x0000002c   Code   RO         1175    i.bsp_btn_ble_init  bsp_btn_ble.o
    0x000276c0   0x000276c0   0x000000c4   Code   RO         1057    i.bsp_button_event_handler  bsp.o
    0x00027784   0x00027784   0x0000000c   Code   RO         1058    i.bsp_button_is_pressed  bsp.o
    0x00027790   0x00027790   0x000002a4   Code   RO            8    i.bsp_event_handler  main.o
    0x00027a34   0x00027a34   0x0000005c   Code   RO         1061    i.bsp_event_to_button_action_assign  bsp.o
    0x00027a90   0x00027a90   0x00000020   Code   RO         1062    i.bsp_indication_set  bsp.o
    0x00027ab0   0x00027ab0   0x000000ac   Code   RO         1063    i.bsp_init          bsp.o
    0x00027b5c   0x00027b5c   0x0000037c   Code   RO         1064    i.bsp_led_indication  bsp.o
    0x00027ed8   0x00027ed8   0x00000090   Code   RO         4856    i.buf_prealloc      nrf_log_frontend.o
    0x00027f68   0x00027f68   0x00000020   Code   RO         4160    i.buffer_add        nrf_fprintf_format.o
    0x00027f88   0x00027f88   0x00000018   Code   RO         4857    i.buffer_is_empty   nrf_log_frontend.o
    0x00027fa0   0x00027fa0   0x00000098   Code   RO          500    i.build_manufacturer_specific_data  eartag_adv.o
    0x00028038   0x00028038   0x0000000e   Code   RO         1067    i.button_timer_handler  bsp.o
    0x00028046   0x00028046   0x00000002   PAD
    0x00028048   0x00028048   0x00000070   Code   RO            9    i.buttons_leds_init  main.o
    0x000280b8   0x000280b8   0x00000020   Code   RO         2181    i.channel_free      nrf_drv_gpiote.o
    0x000280d8   0x000280d8   0x00000010   Code   RO         2182    i.channel_handler_get  nrf_drv_gpiote.o
    0x000280e8   0x000280e8   0x00000080   Code   RO         2183    i.channel_port_alloc  nrf_drv_gpiote.o
    0x00028168   0x00028168   0x0000000c   Code   RO         2184    i.channel_port_get  nrf_drv_gpiote.o
    0x00028174   0x00028174   0x00000030   Code   RO         1934    i.clock_clk_started_notify  nrf_drv_clock.o
    0x000281a4   0x000281a4   0x00000028   Code   RO          836    i.comp_fn           eartag_scan.o
    0x000281cc   0x000281cc   0x00000090   Code   RO         3640    i.compare_reg_update  app_timer.o
    0x0002825c   0x0002825c   0x0000005a   Code   RO         1766    i.conn_int_check    ble_advdata.o
    0x000282b6   0x000282b6   0x00000068   Code   RO         1767    i.conn_int_encode   ble_advdata.o
    0x0002831e   0x0002831e   0x00000002   PAD
    0x00028320   0x00028320   0x00000028   Code   RO           10    i.conn_params_error_handler  main.o
    0x00028348   0x00028348   0x00000070   Code   RO           11    i.conn_params_init  main.o
    0x000283b8   0x000283b8   0x00000054   Code   RO         1282    i.conn_params_negotiation  ble_conn_params.o
    0x0002840c   0x0002840c   0x00000054   Code   RO         1177    i.connection_buttons_configure  bsp_btn_ble.o
    0x00028460   0x00028460   0x00000050   Code   RO         1639    i.data_length_update  nrf_ble_gatt.o
    0x000284b0   0x000284b0   0x00000100   Code   RO          631    i.db_write_process  eartag_file.o
    0x000285b0   0x000285b0   0x0000004a   Code   RO         3109    i.delete_execute    fds.o
    0x000285fa   0x000285fa   0x00000002   PAD
    0x000285fc   0x000285fc   0x0000008c   Code   RO         2866    i.detection_delay_timeout_handler  app_button.o
    0x00028688   0x00028688   0x000000b4   Code   RO           12    i.disp_db           main.o
    0x0002873c   0x0002873c   0x0000023c   Code   RO           13    i.disp_help         main.o
    0x00028978   0x00028978   0x00000030   Code   RO           14    i.eartag_adv_error_handler  main.o
    0x000289a8   0x000289a8   0x000000a8   Code   RO           15    i.eartag_adv_evt_handler  main.o
    0x00028a50   0x00028a50   0x000000e8   Code   RO          502    i.eartag_adv_init   eartag_adv.o
    0x00028b38   0x00028b38   0x00000058   Code   RO          503    i.eartag_adv_on_ble_evt  eartag_adv.o
    0x00028b90   0x00028b90   0x0000005a   Code   RO          504    i.eartag_adv_on_sys_evt  eartag_adv.o
    0x00028bea   0x00028bea   0x00000030   Code   RO          505    i.eartag_adv_set_batt_lv  eartag_adv.o
    0x00028c1a   0x00028c1a   0x00000028   Code   RO          506    i.eartag_adv_set_temperature  eartag_adv.o
    0x00028c42   0x00028c42   0x00000076   Code   RO          507    i.eartag_adv_start_coded_nonconnectable  eartag_adv.o
    0x00028cb8   0x00028cb8   0x00000076   Code   RO          508    i.eartag_adv_start_legacy  eartag_adv.o
    0x00028d2e   0x00028d2e   0x00000002   PAD
    0x00028d30   0x00028d30   0x00000098   Code   RO          632    i.eartag_file_config_write  eartag_file.o
    0x00028dc8   0x00028dc8   0x00000092   Code   RO          634    i.eartag_file_db_put  eartag_file.o
    0x00028e5a   0x00028e5a   0x0000003a   Code   RO          635    i.eartag_file_db_write  eartag_file.o
    0x00028e94   0x00028e94   0x00000030   Code   RO           16    i.eartag_file_error_handler  main.o
    0x00028ec4   0x00028ec4   0x00000208   Code   RO           17    i.eartag_file_evt_handler  main.o
    0x000290cc   0x000290cc   0x0000002c   Code   RO          636    i.eartag_file_get_config  eartag_file.o
    0x000290f8   0x000290f8   0x0000003c   Code   RO          637    i.eartag_file_get_db  eartag_file.o
    0x00029134   0x00029134   0x00000164   Code   RO          638    i.eartag_file_init  eartag_file.o
    0x00029298   0x00029298   0x0000012a   Code   RO          639    i.eartag_file_on_fds_evt  eartag_file.o
    0x000293c2   0x000293c2   0x00000002   PAD
    0x000293c4   0x000293c4   0x00000030   Code   RO           18    i.eartag_scan_error_handler  main.o
    0x000293f4   0x000293f4   0x000001b8   Code   RO           19    i.eartag_scan_evt_handler  main.o
    0x000295ac   0x000295ac   0x000000bc   Code   RO          837    i.eartag_scan_init  eartag_scan.o
    0x00029668   0x00029668   0x00000058   Code   RO          838    i.eartag_scan_on_ble_evt  eartag_scan.o
    0x000296c0   0x000296c0   0x0000007e   Code   RO          839    i.eartag_scan_start  eartag_scan.o
    0x0002973e   0x0002973e   0x00000002   PAD
    0x00029740   0x00029740   0x00000064   Code   RO         3641    i.elapsed_ticks_acquire  app_timer.o
    0x000297a4   0x000297a4   0x00000058   Code   RO         4271    i.erase             nrf_fstorage_sd.o
    0x000297fc   0x000297fc   0x0000000e   Code   RO         4272    i.erase_execute     nrf_fstorage_sd.o
    0x0002980a   0x0002980a   0x00000002   PAD
    0x0002980c   0x0002980c   0x0000001c   Code   RO         5583    i.errata_103        system_nrf52840.o
    0x00029828   0x00029828   0x0000001c   Code   RO         5584    i.errata_115        system_nrf52840.o
    0x00029844   0x00029844   0x0000001c   Code   RO         5585    i.errata_120        system_nrf52840.o
    0x00029860   0x00029860   0x0000001c   Code   RO         5586    i.errata_136        system_nrf52840.o
    0x0002987c   0x0002987c   0x0000001c   Code   RO         5587    i.errata_36         system_nrf52840.o
    0x00029898   0x00029898   0x0000001c   Code   RO         5588    i.errata_66         system_nrf52840.o
    0x000298b4   0x000298b4   0x0000001c   Code   RO         5589    i.errata_98         system_nrf52840.o
    0x000298d0   0x000298d0   0x0000007e   Code   RO         3110    i.event_prepare     fds.o
    0x0002994e   0x0002994e   0x00000002   PAD
    0x00029950   0x00029950   0x00000028   Code   RO         3111    i.event_send        fds.o
    0x00029978   0x00029978   0x00000064   Code   RO         4273    i.event_send        nrf_fstorage_sd.o
    0x000299dc   0x000299dc   0x00000058   Code   RO         3642    i.expired_timers_handler  app_timer.o
    0x00029a34   0x00029a34   0x000000ac   Code   RO           20    i.fds_evt_handler   main.o
    0x00029ae0   0x00029ae0   0x00000044   Code   RO         3114    i.fds_gc            fds.o
    0x00029b24   0x00029b24   0x000000e0   Code   RO         3115    i.fds_init          fds.o
    0x00029c04   0x00029c04   0x00000016   Code   RO         3118    i.fds_record_find   fds.o
    0x00029c1a   0x00029c1a   0x00000002   PAD
    0x00029c1c   0x00029c1c   0x0000004c   Code   RO         3123    i.fds_record_open   fds.o
    0x00029c68   0x00029c68   0x0000001a   Code   RO         3124    i.fds_record_update  fds.o
    0x00029c82   0x00029c82   0x00000014   Code   RO         3125    i.fds_record_write  fds.o
    0x00029c96   0x00029c96   0x00000002   PAD
    0x00029c98   0x00029c98   0x00000030   Code   RO         3127    i.fds_register      fds.o
    0x00029cc8   0x00029cc8   0x00000034   Code   RO         3131    i.file_find_and_delete  fds.o
    0x00029cfc   0x00029cfc   0x00000058   Code   RO           21    i.file_init         main.o
    0x00029d54   0x00029d54   0x00000068   Code   RO          841    i.find_eartag_data  eartag_scan.o
    0x00029dbc   0x00029dbc   0x00000038   Code   RO          640    i.find_entry        eartag_file.o
    0x00029df4   0x00029df4   0x00000036   Code   RO         1768    i.flags_encode      ble_advdata.o
    0x00029e2a   0x00029e2a   0x00000002   PAD
    0x00029e2c   0x00029e2c   0x0000001c   Code   RO         3132    i.flash_bounds_set  fds.o
    0x00029e48   0x00029e48   0x0000001a   Code   RO         3133    i.flash_end_addr    fds.o
    0x00029e62   0x00029e62   0x00000002   PAD
    0x00029e64   0x00029e64   0x0000001c   Code   RO         3134    i.flash_subsystem_init  fds.o
    0x00029e80   0x00029e80   0x00000050   Code   RO         5957    i.free              mc_w.l(malloc.o)
    0x00029ed0   0x00029ed0   0x0000000c   Code   RO         3135    i.fs_event_handler  fds.o
    0x00029edc   0x00029edc   0x00000098   Code   RO           22    i.gap_params_init   main.o
    0x00029f74   0x00029f74   0x00000064   Code   RO           23    i.gatt_evt_handler  main.o
    0x00029fd8   0x00029fd8   0x00000060   Code   RO           24    i.gatt_init         main.o
    0x0002a038   0x0002a038   0x00000074   Code   RO         3136    i.gc_execute        fds.o
    0x0002a0ac   0x0002a0ac   0x00000040   Code   RO         3137    i.gc_init           fds.o
    0x0002a0ec   0x0002a0ec   0x00000028   Code   RO         3138    i.gc_next_page      fds.o
    0x0002a114   0x0002a114   0x0000004c   Code   RO         3139    i.gc_page_erase     fds.o
    0x0002a160   0x0002a160   0x00000050   Code   RO         3140    i.gc_page_next      fds.o
    0x0002a1b0   0x0002a1b0   0x00000040   Code   RO         3141    i.gc_record_copy    fds.o
    0x0002a1f0   0x0002a1f0   0x00000024   Code   RO         3142    i.gc_record_find_next  fds.o
    0x0002a214   0x0002a214   0x00000058   Code   RO         3143    i.gc_state_advance  fds.o
    0x0002a26c   0x0002a26c   0x0000002c   Code   RO         3144    i.gc_swap_erase     fds.o
    0x0002a298   0x0002a298   0x00000050   Code   RO         3145    i.gc_swap_pages     fds.o
    0x0002a2e8   0x0002a2e8   0x00000024   Code   RO         3146    i.gc_swap_promote   fds.o
