Component: ARM Compiler 5.06 update 5 (build 528) Tool: armlink [4d35e2]

==============================================================================

Section Cross References

    main.o(i.main) refers to nrf_log_frontend.o(i.nrf_log_init) for nrf_log_init
    main.o(i.main) refers to app_error.o(i.app_error_handler_bare) for app_error_handler_bare
    main.o(i.main) refers to nrf_log_default_backends.o(i.nrf_log_default_backends_init) for nrf_log_default_backends_init
    main.o(i.main) refers to nrf_drv_power.o(i.nrf_drv_power_init) for nrf_drv_power_init
    main.o(i.main) refers to nrf_pwr_mgmt.o(i.nrf_pwr_mgmt_init) for nrf_pwr_mgmt_init
    main.o(i.main) refers to main.o(i.nrf_gpio_pin_port_decode) for nrf_gpio_pin_port_decode
    main.o(i.main) refers to nrf_log_frontend.o(i.nrf_log_frontend_std_0) for nrf_log_frontend_std_0
    main.o(i.main) refers to main.o(i.saadc_init) for saadc_init
    main.o(i.main) refers to main.o(i.saadc_sampling_event_init) for saadc_sampling_event_init
    main.o(i.main) refers to main.o(i.saadc_sampling_event_enable) for saadc_sampling_event_enable
    main.o(i.main) refers to nrf_pwr_mgmt.o(i.nrf_pwr_mgmt_run) for nrf_pwr_mgmt_run
    main.o(i.main) refers to nrf_log_frontend.o(i.nrf_log_frontend_dequeue) for nrf_log_frontend_dequeue
    main.o(i.main) refers to nrf_log_frontend.o(log_dynamic_data) for m_nrf_log_app_logs_data_dynamic
    main.o(i.saadc_callback) refers to nrf_drv_saadc.o(i.nrf_drv_saadc_buffer_convert) for nrf_drv_saadc_buffer_convert
    main.o(i.saadc_callback) refers to app_error.o(i.app_error_handler_bare) for app_error_handler_bare
    main.o(i.saadc_callback) refers to nrf_log_frontend.o(i.nrf_log_frontend_std_1) for nrf_log_frontend_std_1
    main.o(i.saadc_callback) refers to dflti.o(.text) for __aeabi_i2d
    main.o(i.saadc_callback) refers to round.o(i.__hardfp_round) for __hardfp_round
==============================================================================

Removing Unused input sections from the image.

    Removing main.o(.rev16_text), (4 bytes).
    Removing main.o(.revsh_text), (4 bytes).
    Removing main.o(.rrx_text), (6 bytes).
    Removing main.o(.data), (1 bytes).
    Removing boards.o(.rev16_text), (4 bytes).
    Removing boards.o(.revsh_text), (4 bytes).
    Removing boards.o(.rrx_text), (6 bytes).
    Removing boards.o(i.bsp_board_button_idx_to_pin), (12 bytes).
    Removing boards.o(i.bsp_board_button_state_get), (40 bytes).
    Removing boards.o(i.bsp_board_buttons_init), (36 bytes).
    Removing boards.o(i.bsp_board_led_idx_to_pin), (12 bytes).
    Removing boards.o(i.bsp_board_led_invert), (44 bytes).
    Removing boards.o(i.bsp_board_led_off), (16 bytes).
    Removing boards.o(i.bsp_board_led_on), (16 bytes).
    Removing boards.o(i.bsp_board_led_state_get), (40 bytes).
    Removing boards.o(i.bsp_board_leds_init), (44 bytes).
    Removing boards.o(i.bsp_board_leds_off), (18 bytes).
    Removing boards.o(i.bsp_board_leds_on), (18 bytes).
==============================================================================

Image Symbol Table

    Local Symbols

    Symbol Name                              Value     Ov Type        Size  Object(Section)

    RESET                                    0x00000000   Section      512  arm_startup_nrf52840.o(RESET)
    ../clib/microlib/ctype/ctype.c           0x00000000   Number         0  isalpha_o.o ABSOLUTE
    ../clib/microlib/ctype/ctype.c           0x00000000   Number         0  ctype_o.o ABSOLUTE
    ../clib/microlib/ctype/ctype.c           0x00000000   Number         0  isalnum_o.o ABSOLUTE
    ../clib/microlib/ctype/ctype.c           0x00000000   Number         0  isxdigit_o.o ABSOLUTE
    ../clib/microlib/ctype/ctype.c           0x00000000   Number         0  isupper_o.o ABSOLUTE
    ../clib/microlib/ctype/ctype.c           0x00000000   Number         0  isspace_o.o ABSOLUTE
    ../clib/microlib/ctype/ctype.c           0x00000000   Number         0  ispunct_o.o ABSOLUTE
    ../clib/microlib/ctype/ctype.c           0x00000000   Number         0  isprint_o.o ABSOLUTE
    ../clib/microlib/ctype/ctype.c           0x00000000   Number         0  islower_o.o ABSOLUTE
    ../clib/microlib/ctype/ctype.c           0x00000000   Number         0  isgraph_o.o ABSOLUTE
    ../clib/microlib/ctype/ctype.c           0x00000000   Number         0  isdigit_o.o ABSOLUTE
    ../clib/microlib/ctype/ctype.c           0x00000000   Number         0  iscntrl_o.o ABSOLUTE
    ../clib/microlib/ctype/ctype.c           0x00000000   Number         0  isblank_o.o ABSOLUTE
    ../clib/microlib/init/entry.s            0x00000000   Number         0  entry2.o ABSOLUTE
    ../clib/microlib/init/entry.s            0x00000000   Number         0  entry5.o ABSOLUTE
    ../clib/microlib/init/entry.s            0x00000000   Number         0  entry11b.o ABSOLUTE
    ../clib/microlib/init/entry.s            0x00000000   Number         0  entry7a.o ABSOLUTE
    ../clib/microlib/init/entry.s            0x00000000   Number         0  entry9b.o ABSOLUTE
    ../clib/microlib/init/entry.s            0x00000000   Number         0  entry7b.o ABSOLUTE
    ../clib/microlib/init/entry.s            0x00000000   Number         0  entry10b.o ABSOLUTE
    ../clib/microlib/init/entry.s            0x00000000   Number         0  entry.o ABSOLUTE
    ../clib/microlib/init/entry.s            0x00000000   Number         0  entry8a.o ABSOLUTE
    ../clib/microlib/init/entry.s            0x00000000   Number         0  entry8b.o ABSOLUTE
    ../clib/microlib/init/entry.s            0x00000000   Number         0  entry9a.o ABSOLUTE
    ../clib/microlib/init/entry.s            0x00000000   Number         0  entry10a.o ABSOLUTE
    ../clib/microlib/init/entry.s            0x00000000   Number         0  entry11a.o ABSOLUTE
    ../clib/microlib/longlong.c              0x00000000   Number         0  llshl.o ABSOLUTE
    ../clib/microlib/longlong.c              0x00000000   Number         0  llushr.o ABSOLUTE
    ../clib/microlib/longlong.c              0x00000000   Number         0  llsshr.o ABSOLUTE
    ../clib/microlib/stdio/fflush.c          0x00000000   Number         0  fflush.o ABSOLUTE
    ../clib/microlib/stdio/fputc.c           0x00000000   Number         0  fputc.o ABSOLUTE
    ../clib/microlib/stdio/semi.s            0x00000000   Number         0  semi.o ABSOLUTE
    ../clib/microlib/stdio/streams.c         0x00000000   Number         0  stdout.o ABSOLUTE
    ../clib/microlib/string/memcpy.c         0x00000000   Number         0  memcpya.o ABSOLUTE
    ../clib/microlib/string/memcpy.c         0x00000000   Number         0  memcpyb.o ABSOLUTE
    ../clib/microlib/string/memset.c         0x00000000   Number         0  memseta.o ABSOLUTE
    ../clib/microlib/string/strcmp.c         0x00000000   Number         0  strcmp.o ABSOLUTE
    ../clib/microlib/string/strcpy.c         0x00000000   Number         0  strcpy.o ABSOLUTE
    ../clib/microlib/string/strlen.c         0x00000000   Number         0  strlen.o ABSOLUTE
    ../clib/microlib/stubs.s                 0x00000000   Number         0  useno.o ABSOLUTE
    ../clib/microlib/stubs.s                 0x00000000   Number         0  iusesemip.o ABSOLUTE
    ../clib/microlib/stubs.s                 0x00000000   Number         0  iusefp.o ABSOLUTE
    ../fplib/microlib/fpadd.c                0x00000000   Number         0  dadd.o ABSOLUTE
    ../fplib/microlib/fpepilogue.c           0x00000000   Number         0  depilogue.o ABSOLUTE
    ../fplib/microlib/fpfix.c                0x00000000   Number         0  dfixui.o ABSOLUTE
    ../fplib/microlib/fpflt.c                0x00000000   Number         0  dflti.o ABSOLUTE
    ../fplib/microlib/fprnd.c                0x00000000   Number         0  drnd.o ABSOLUTE
    ../mathlib/round.c                       0x00000000   Number         0  round.o ABSOLUTE
    ..\..\..\..\..\..\components\boards\boards.c 0x00000000   Number         0  boards.o ABSOLUTE
    ..\..\..\..\..\..\components\drivers_nrf\common\nrf_drv_common.c 0x00000000   Number         0  nrf_drv_common.o ABSOLUTE
    ..\..\..\..\..\..\components\drivers_nrf\hal\nrf_saadc.c 0x00000000   Number         0  nrf_saadc.o ABSOLUTE
    ..\..\..\..\..\..\components\drivers_nrf\power\nrf_drv_power.c 0x00000000   Number         0  nrf_drv_power.o ABSOLUTE
    ..\..\..\..\..\..\components\drivers_nrf\ppi\nrf_drv_ppi.c 0x00000000   Number         0  nrf_drv_ppi.o ABSOLUTE
    ..\..\..\..\..\..\components\drivers_nrf\saadc\nrf_drv_saadc.c 0x00000000   Number         0  nrf_drv_saadc.o ABSOLUTE
    ..\..\..\..\..\..\components\drivers_nrf\timer\nrf_drv_timer.c 0x00000000   Number         0  nrf_drv_timer.o ABSOLUTE
    ..\..\..\..\..\..\components\drivers_nrf\uart\nrf_drv_uart.c 0x00000000   Number         0  nrf_drv_uart.o ABSOLUTE
    ..\..\..\..\..\..\components\libraries\balloc\nrf_balloc.c 0x00000000   Number         0  nrf_balloc.o ABSOLUTE
    ..\..\..\..\..\..\components\libraries\experimental_log\src\nrf_log_backend_rtt.c 0x00000000   Number         0  nrf_log_backend_rtt.o ABSOLUTE
    ..\..\..\..\..\..\components\libraries\experimental_log\src\nrf_log_backend_serial.c 0x00000000   Number         0  nrf_log_backend_serial.o ABSOLUTE
    ..\..\..\..\..\..\components\libraries\experimental_log\src\nrf_log_backend_uart.c 0x00000000   Number         0  nrf_log_backend_uart.o ABSOLUTE
    ..\..\..\..\..\..\components\libraries\experimental_log\src\nrf_log_default_backends.c 0x00000000   Number         0  nrf_log_default_backends.o ABSOLUTE
    ..\..\..\..\..\..\components\libraries\experimental_log\src\nrf_log_frontend.c 0x00000000   Number         0  nrf_log_frontend.o ABSOLUTE
    ..\..\..\..\..\..\components\libraries\experimental_log\src\nrf_log_str_formatter.c 0x00000000   Number         0  nrf_log_str_formatter.o ABSOLUTE
    ..\..\..\..\..\..\components\libraries\experimental_memobj\nrf_memobj.c 0x00000000   Number         0  nrf_memobj.o ABSOLUTE
    ..\..\..\..\..\..\components\libraries\experimental_section_vars\nrf_section_iter.c 0x00000000   Number         0  nrf_section_iter.o ABSOLUTE
    ..\..\..\..\..\..\components\libraries\pwr_mgmt\nrf_pwr_mgmt.c 0x00000000   Number         0  nrf_pwr_mgmt.o ABSOLUTE
    ..\..\..\..\..\..\components\libraries\strerror\nrf_strerror.c 0x00000000   Number         0  nrf_strerror.o ABSOLUTE
    ..\..\..\..\..\..\components\libraries\util\app_error.c 0x00000000   Number         0  app_error.o ABSOLUTE
    ..\..\..\..\..\..\components\libraries\util\app_error_weak.c 0x00000000   Number         0  app_error_weak.o ABSOLUTE
    ..\..\..\..\..\..\components\libraries\util\app_util_platform.c 0x00000000   Number         0  app_util_platform.o ABSOLUTE
    ..\..\..\..\..\..\components\libraries\util\nrf_assert.c 0x00000000   Number         0  nrf_assert.o ABSOLUTE
    ..\..\..\..\..\..\external\fprintf\nrf_fprintf.c 0x00000000   Number         0  nrf_fprintf.o ABSOLUTE
    ..\..\..\..\..\..\external\fprintf\nrf_fprintf_format.c 0x00000000   Number         0  nrf_fprintf_format.o ABSOLUTE
    ..\..\..\..\..\..\external\segger_rtt\SEGGER_RTT.c 0x00000000   Number         0  segger_rtt.o ABSOLUTE
    ..\..\..\..\..\..\external\segger_rtt\SEGGER_RTT_Syscalls_KEIL.c 0x00000000   Number         0  segger_rtt_syscalls_keil.o ABSOLUTE
    ..\..\..\..\..\..\external\segger_rtt\SEGGER_RTT_printf.c 0x00000000   Number         0  segger_rtt_printf.o ABSOLUTE
    ..\..\..\main.c                          0x00000000   Number         0  main.o ABSOLUTE
    ..\\..\\..\\..\\..\\..\\components\\boards\\boards.c 0x00000000   Number         0  boards.o ABSOLUTE
    ..\\..\\..\\..\\..\\..\\components\\drivers_nrf\\common\\nrf_drv_common.c 0x00000000   Number         0  nrf_drv_common.o ABSOLUTE
    ..\\..\\..\\..\\..\\..\\components\\drivers_nrf\\hal\\nrf_saadc.c 0x00000000   Number         0  nrf_saadc.o ABSOLUTE
    ..\\..\\..\\..\\..\\..\\components\\drivers_nrf\\power\\nrf_drv_power.c 0x00000000   Number         0  nrf_drv_power.o ABSOLUTE
    ..\\..\\..\\..\\..\\..\\components\\drivers_nrf\\ppi\\nrf_drv_ppi.c 0x00000000   Number         0  nrf_drv_ppi.o ABSOLUTE
    ..\\..\\..\\..\\..\\..\\components\\drivers_nrf\\saadc\\nrf_drv_saadc.c 0x00000000   Number         0  nrf_drv_saadc.o ABSOLUTE
    ..\\..\\..\\..\\..\\..\\components\\drivers_nrf\\timer\\nrf_drv_timer.c 0x00000000   Number         0  nrf_drv_timer.o ABSOLUTE
    ..\\..\\..\\..\\..\\..\\components\\drivers_nrf\\uart\\nrf_drv_uart.c 0x00000000   Number         0  nrf_drv_uart.o ABSOLUTE
    ..\\..\\..\\..\\..\\..\\components\\libraries\\balloc\\nrf_balloc.c 0x00000000   Number         0  nrf_balloc.o ABSOLUTE
    ..\\..\\..\\..\\..\\..\\components\\libraries\\experimental_log\\src\\nrf_log_backend_rtt.c 0x00000000   Number         0  nrf_log_backend_rtt.o ABSOLUTE
    ..\\..\\..\\..\\..\\..\\components\\libraries\\experimental_log\\src\\nrf_log_backend_serial.c 0x00000000   Number         0  nrf_log_backend_serial.o ABSOLUTE
    ..\\..\\..\\..\\..\\..\\components\\libraries\\experimental_log\\src\\nrf_log_backend_uart.c 0x00000000   Number         0  nrf_log_backend_uart.o ABSOLUTE
    ..\\..\\..\\..\\..\\..\\components\\libraries\\experimental_log\\src\\nrf_log_default_backends.c 0x00000000   Number         0  nrf_log_default_backends.o ABSOLUTE
    ..\\..\\..\\..\\..\\..\\components\\libraries\\experimental_log\\src\\nrf_log_frontend.c 0x00000000   Number         0  nrf_log_frontend.o ABSOLUTE
    ..\\..\\..\\..\\..\\..\\components\\libraries\\experimental_log\\src\\nrf_log_str_formatter.c 0x00000000   Number         0  nrf_log_str_formatter.o ABSOLUTE
    ..\\..\\..\\..\\..\\..\\components\\libraries\\experimental_memobj\\nrf_memobj.c 0x00000000   Number         0  nrf_memobj.o ABSOLUTE
    ..\\..\\..\\..\\..\\..\\components\\libraries\\experimental_section_vars\\nrf_section_iter.c 0x00000000   Number         0  nrf_section_iter.o ABSOLUTE
    ..\\..\\..\\..\\..\\..\\components\\libraries\\pwr_mgmt\\nrf_pwr_mgmt.c 0x00000000   Number         0  nrf_pwr_mgmt.o ABSOLUTE
    ..\\..\\..\\..\\..\\..\\components\\libraries\\strerror\\nrf_strerror.c 0x00000000   Number         0  nrf_strerror.o ABSOLUTE
    ..\\..\\..\\..\\..\\..\\components\\libraries\\util\\app_error.c 0x00000000   Number         0  app_error.o ABSOLUTE
    ..\\..\\..\\..\\..\\..\\components\\libraries\\util\\app_error_weak.c 0x00000000   Number         0  app_error_weak.o ABSOLUTE
    ..\\..\\..\\..\\..\\..\\components\\libraries\\util\\app_util_platform.c 0x00000000   Number         0  app_util_platform.o ABSOLUTE
    ..\\..\\..\\..\\..\\..\\components\\libraries\\util\\nrf_assert.c 0x00000000   Number         0  nrf_assert.o ABSOLUTE
    ..\\..\\..\\..\\..\\..\\external\\fprintf\\nrf_fprintf.c 0x00000000   Number         0  nrf_fprintf.o ABSOLUTE
    ..\\..\\..\\..\\..\\..\\external\\fprintf\\nrf_fprintf_format.c 0x00000000   Number         0  nrf_fprintf_format.o ABSOLUTE
    ..\\..\\..\\..\\..\\..\\external\\segger_rtt\\SEGGER_RTT.c 0x00000000   Number         0  segger_rtt.o ABSOLUTE
    ..\\..\\..\\..\\..\\..\\external\\segger_rtt\\SEGGER_RTT_Syscalls_KEIL.c 0x00000000   Number         0  segger_rtt_syscalls_keil.o ABSOLUTE
    ..\\..\\..\\..\\..\\..\\external\\segger_rtt\\SEGGER_RTT_printf.c 0x00000000   Number         0  segger_rtt_printf.o ABSOLUTE
    ..\\..\\..\\main.c                       0x00000000   Number         0  main.o ABSOLUTE
    RTE\Device\nRF52840_xxAA\arm_startup_nrf52840.s 0x00000000   Number         0  arm_startup_nrf52840.o ABSOLUTE
    RTE\Device\nRF52840_xxAA\system_nrf52840.c 0x00000000   Number         0  system_nrf52840.o ABSOLUTE
    RTE\\Device\\nRF52840_xxAA\\system_nrf52840.c 0x00000000   Number         0  system_nrf52840.o ABSOLUTE
    cdcmple.s                                0x00000000   Number         0  cdcmple.o ABSOLUTE
    cdrcmple.s                               0x00000000   Number         0  cdrcmple.o ABSOLUTE
    dc.s                                     0x00000000   Number         0  dc.o ABSOLUTE
    handlers.s                               0x00000000   Number         0  handlers.o ABSOLUTE
    init.s                                   0x00000000   Number         0  init.o ABSOLUTE
    .ARM.Collect$$$$00000000                 0x00000200   Section        0  entry.o(.ARM.Collect$$$$00000000)
    .ARM.Collect$$$$00000001                 0x00000200   Section        4  entry2.o(.ARM.Collect$$$$00000001)
    .ARM.Collect$$$$00000004                 0x00000204   Section        4  entry5.o(.ARM.Collect$$$$00000004)
    .ARM.Collect$$$$00000008                 0x00000208   Section        0  entry7b.o(.ARM.Collect$$$$00000008)
    .ARM.Collect$$$$0000000A                 0x00000208   Section        0  entry8b.o(.ARM.Collect$$$$0000000A)
    .ARM.Collect$$$$0000000B                 0x00000208   Section        8  entry9a.o(.ARM.Collect$$$$0000000B)
    .ARM.Collect$$$$0000000D                 0x00000210   Section        0  entry10a.o(.ARM.Collect$$$$0000000D)
    .ARM.Collect$$$$0000000F                 0x00000210   Section        0  entry11a.o(.ARM.Collect$$$$0000000F)
    .ARM.Collect$$$$00002712                 0x00000210   Section        4  entry2.o(.ARM.Collect$$$$00002712)
    __lit__00000000                          0x00000210   Data           4  entry2.o(.ARM.Collect$$$$00002712)
    .emb_text                                0x00000214   Section      154  nrf_memobj.o(.emb_text)
    $v0                                      0x00000214   Number         0  nrf_memobj.o(.emb_text)
    .emb_text                                0x000002b0   Section      154  nrf_log_frontend.o(.emb_text)
    $v0                                      0x000002b0   Number         0  nrf_log_frontend.o(.emb_text)
    .text                                    0x0000034c   Section       36  arm_startup_nrf52840.o(.text)
    $v0                                      0x0000034c   Number         0  arm_startup_nrf52840.o(.text)
    .text                                    0x00000370   Section        0  ctype_o.o(.text)
    .text                                    0x00000378   Section        0  memcpya.o(.text)
    .text                                    0x0000039c   Section        0  memseta.o(.text)
    .text                                    0x000003c0   Section        0  strlen.o(.text)
    .text                                    0x000003ce   Section        0  strcpy.o(.text)
    .text                                    0x000003e0   Section        0  dflti.o(.text)
    .text                                    0x00000402   Section        0  dfixui.o(.text)
    .text                                    0x00000434   Section        0  llushr.o(.text)
    .text                                    0x00000454   Section        0  depilogue.o(.text)
    .text                                    0x00000454   Section        0  iusefp.o(.text)
    .text                                    0x0000050e   Section        0  dadd.o(.text)
    .text                                    0x0000065c   Section        0  drnd.o(.text)
    .text                                    0x000006e4   Section       48  cdcmple.o(.text)
    .text                                    0x00000714   Section       48  cdrcmple.o(.text)
    .text                                    0x00000744   Section       36  init.o(.text)
    .text                                    0x00000768   Section        0  llshl.o(.text)
    .text                                    0x00000786   Section        0  llsshr.o(.text)
    i.POWER_CLOCK_IRQHandler                 0x000007ac   Section        0  nrf_drv_power.o(i.POWER_CLOCK_IRQHandler)
    i.SAADC_IRQHandler                       0x0000083c   Section        0  nrf_drv_saadc.o(i.SAADC_IRQHandler)
    i.SEGGER_RTT_Init                        0x00000984   Section        0  segger_rtt.o(i.SEGGER_RTT_Init)
    i.SEGGER_RTT_WriteNoLock                 0x00000988   Section        0  segger_rtt.o(i.SEGGER_RTT_WriteNoLock)
    i.SystemInit                             0x000009e4   Section        0  system_nrf52840.o(i.SystemInit)
    i.TIMER0_IRQHandler                      0x00000bec   Section        0  nrf_drv_timer.o(i.TIMER0_IRQHandler)
    i.UARTE0_UART0_IRQHandler                0x00000c38   Section        0  nrf_drv_uart.o(i.UARTE0_UART0_IRQHandler)
    i._DoInit                                0x00000c54   Section        0  segger_rtt.o(i._DoInit)
    _DoInit                                  0x00000c55   Thumb Code    76  segger_rtt.o(i._DoInit)
    i._GetAvailWriteSpace                    0x00000cbc   Section        0  segger_rtt.o(i._GetAvailWriteSpace)
    _GetAvailWriteSpace                      0x00000cbd   Thumb Code    22  segger_rtt.o(i._GetAvailWriteSpace)
    i._WriteBlocking                         0x00000cd2   Section        0  segger_rtt.o(i._WriteBlocking)
    _WriteBlocking                           0x00000cd3   Thumb Code    90  segger_rtt.o(i._WriteBlocking)
    i._WriteNoCheck                          0x00000d2c   Section        0  segger_rtt.o(i._WriteNoCheck)
    _WriteNoCheck                            0x00000d2d   Thumb Code    66  segger_rtt.o(i._WriteNoCheck)
    i.__hardfp_round                         0x00000d70   Section        0  round.o(i.__hardfp_round)
    i.__scatterload_copy                     0x00000e50   Section       14  handlers.o(i.__scatterload_copy)
    i.__scatterload_null                     0x00000e5e   Section        2  handlers.o(i.__scatterload_null)
    i.__scatterload_zeroinit                 0x00000e60   Section       14  handlers.o(i.__scatterload_zeroinit)
    i.app_error_fault_handler                0x00000e70   Section        0  app_error_weak.o(i.app_error_fault_handler)
    i.app_error_handler_bare                 0x00000ee8   Section        0  app_error.o(i.app_error_handler_bare)
    i.app_util_critical_region_enter         0x00000efe   Section        0  app_util_platform.o(i.app_util_critical_region_enter)
    i.app_util_critical_region_exit          0x00000f02   Section        0  app_util_platform.o(i.app_util_critical_region_exit)
    i.app_util_disable_irq                   0x00000f08   Section        0  app_util_platform.o(i.app_util_disable_irq)
    i.app_util_enable_irq                    0x00000f18   Section        0  app_util_platform.o(i.app_util_enable_irq)
    i.buf_prealloc                           0x00000f2c   Section        0  nrf_log_frontend.o(i.buf_prealloc)
    buf_prealloc                             0x00000f2d   Thumb Code    92  nrf_log_frontend.o(i.buf_prealloc)
    i.buffer_add                             0x00000f8c   Section        0  nrf_fprintf_format.o(i.buffer_add)
    buffer_add                               0x00000f8d   Thumb Code    30  nrf_fprintf_format.o(i.buffer_add)
    i.buffer_is_empty                        0x00000fac   Section        0  nrf_log_frontend.o(i.buffer_is_empty)
    i.int_print                              0x00000fc0   Section        0  nrf_fprintf_format.o(i.int_print)
    int_print                                0x00000fc1   Thumb Code   166  nrf_fprintf_format.o(i.int_print)
    i.is_allocated_channel                   0x00001068   Section        0  nrf_drv_ppi.o(i.is_allocated_channel)
    is_allocated_channel                     0x00001069   Thumb Code    20  nrf_drv_ppi.o(i.is_allocated_channel)
    i.is_programmable_app_channel            0x00001080   Section        0  nrf_drv_ppi.o(i.is_programmable_app_channel)
    is_programmable_app_channel              0x00001081   Thumb Code    12  nrf_drv_ppi.o(i.is_programmable_app_channel)
    i.log_skip                               0x0000108c   Section        0  nrf_log_frontend.o(i.log_skip)
    log_skip                                 0x0000108d   Thumb Code   138  nrf_log_frontend.o(i.log_skip)
    i.main                                   0x00001120   Section        0  main.o(i.main)
    i.memobj_op                              0x000011bc   Section        0  nrf_memobj.o(i.memobj_op)
    memobj_op                                0x000011bd   Thumb Code   118  nrf_memobj.o(i.memobj_op)
    i.module_idx_get                         0x00001234   Section        0  nrf_log_frontend.o(i.module_idx_get)
    module_idx_get                           0x00001235   Thumb Code    48  nrf_log_frontend.o(i.module_idx_get)
    i.nrf_atomic_flag_set                    0x00001268   Section        0  nrf_log_frontend.o(i.nrf_atomic_flag_set)
    nrf_atomic_flag_set                      0x00001269   Thumb Code    14  nrf_log_frontend.o(i.nrf_atomic_flag_set)
    i.nrf_balloc_alloc                       0x00001276   Section        0  nrf_balloc.o(i.nrf_balloc_alloc)
    i.nrf_balloc_free                        0x000012b4   Section        0  nrf_balloc.o(i.nrf_balloc_free)
    i.nrf_balloc_init                        0x000012de   Section        0  nrf_balloc.o(i.nrf_balloc_init)
    i.nrf_drv_common_irq_enable              0x0000130e   Section        0  nrf_drv_common.o(i.nrf_drv_common_irq_enable)
    i.nrf_drv_power_init                     0x00001348   Section        0  nrf_drv_power.o(i.nrf_drv_power_init)
    i.nrf_drv_ppi_channel_alloc              0x00001398   Section        0  nrf_drv_ppi.o(i.nrf_drv_ppi_channel_alloc)
    i.nrf_drv_ppi_channel_assign             0x000013f8   Section        0  nrf_drv_ppi.o(i.nrf_drv_ppi_channel_assign)
    i.nrf_drv_ppi_channel_enable             0x0000143c   Section        0  nrf_drv_ppi.o(i.nrf_drv_ppi_channel_enable)
    i.nrf_drv_ppi_init                       0x00001464   Section        0  nrf_drv_ppi.o(i.nrf_drv_ppi_init)
    i.nrf_drv_saadc_buffer_convert           0x0000147c   Section        0  nrf_drv_saadc.o(i.nrf_drv_saadc_buffer_convert)
    i.nrf_drv_saadc_channel_init             0x00001520   Section        0  nrf_drv_saadc.o(i.nrf_drv_saadc_channel_init)
    i.nrf_drv_saadc_init                     0x00001564   Section        0  nrf_drv_saadc.o(i.nrf_drv_saadc_init)
    i.nrf_drv_saadc_sample_task_get          0x000015f0   Section        0  nrf_drv_saadc.o(i.nrf_drv_saadc_sample_task_get)
    i.nrf_drv_timer_compare                  0x0000160c   Section        0  nrf_drv_timer.o(i.nrf_drv_timer_compare)
    i.nrf_drv_timer_enable                   0x00001630   Section        0  nrf_drv_timer.o(i.nrf_drv_timer_enable)
    i.nrf_drv_timer_extended_compare         0x0000164c   Section        0  nrf_drv_timer.o(i.nrf_drv_timer_extended_compare)
    i.nrf_drv_timer_init                     0x00001678   Section        0  nrf_drv_timer.o(i.nrf_drv_timer_init)
    i.nrf_fprintf                            0x00001708   Section        0  nrf_fprintf.o(i.nrf_fprintf)
    i.nrf_fprintf_buffer_flush               0x00001722   Section        0  nrf_fprintf.o(i.nrf_fprintf_buffer_flush)
    i.nrf_fprintf_fmt                        0x0000173a   Section        0  nrf_fprintf_format.o(i.nrf_fprintf_fmt)
    i.nrf_gpio_pin_port_decode               0x00001914   Section        0  main.o(i.nrf_gpio_pin_port_decode)
    nrf_gpio_pin_port_decode                 0x00001915   Thumb Code    22  main.o(i.nrf_gpio_pin_port_decode)
    i.nrf_log_backend_add                    0x00001930   Section        0  nrf_log_frontend.o(i.nrf_log_backend_add)
    i.nrf_log_backend_rtt_flush              0x00001980   Section        0  nrf_log_backend_rtt.o(i.nrf_log_backend_rtt_flush)
    nrf_log_backend_rtt_flush                0x00001981   Thumb Code     2  nrf_log_backend_rtt.o(i.nrf_log_backend_rtt_flush)
    i.nrf_log_backend_rtt_init               0x00001982   Section        0  nrf_log_backend_rtt.o(i.nrf_log_backend_rtt_init)
    i.nrf_log_backend_rtt_panic_set          0x00001986   Section        0  nrf_log_backend_rtt.o(i.nrf_log_backend_rtt_panic_set)
    nrf_log_backend_rtt_panic_set            0x00001987   Thumb Code     2  nrf_log_backend_rtt.o(i.nrf_log_backend_rtt_panic_set)
    i.nrf_log_backend_rtt_put                0x00001988   Section        0  nrf_log_backend_rtt.o(i.nrf_log_backend_rtt_put)
    nrf_log_backend_rtt_put                  0x00001989   Thumb Code    16  nrf_log_backend_rtt.o(i.nrf_log_backend_rtt_put)
    i.nrf_log_backend_serial_put             0x000019a0   Section        0  nrf_log_backend_serial.o(i.nrf_log_backend_serial_put)
    i.nrf_log_color_id_get                   0x00001a74   Section        0  nrf_log_frontend.o(i.nrf_log_color_id_get)
    i.nrf_log_default_backends_init          0x00001aa4   Section        0  nrf_log_default_backends.o(i.nrf_log_default_backends_init)
    i.nrf_log_frontend_dequeue               0x00001ac0   Section        0  nrf_log_frontend.o(i.nrf_log_frontend_dequeue)
    i.nrf_log_frontend_std_0                 0x00001ca4   Section        0  nrf_log_frontend.o(i.nrf_log_frontend_std_0)
    i.nrf_log_frontend_std_1                 0x00001cac   Section        0  nrf_log_frontend.o(i.nrf_log_frontend_std_1)
    i.nrf_log_hexdump_entry_process          0x00001cbc   Section        0  nrf_log_str_formatter.o(i.nrf_log_hexdump_entry_process)
    i.nrf_log_init                           0x00001d68   Section        0  nrf_log_frontend.o(i.nrf_log_init)
    i.nrf_log_module_cnt_get                 0x00001dc4   Section        0  nrf_log_frontend.o(i.nrf_log_module_cnt_get)
    i.nrf_log_module_name_get                0x00001dd8   Section        0  nrf_log_frontend.o(i.nrf_log_module_name_get)
    i.nrf_log_panic                          0x00001df4   Section        0  nrf_log_frontend.o(i.nrf_log_panic)
    i.nrf_log_std_entry_process              0x00001e1c   Section        0  nrf_log_str_formatter.o(i.nrf_log_std_entry_process)
    i.nrf_memobj_alloc                       0x00001ed2   Section        0  nrf_memobj.o(i.nrf_memobj_alloc)
    i.nrf_memobj_free                        0x00001f32   Section        0  nrf_memobj.o(i.nrf_memobj_free)
    i.nrf_memobj_get                         0x00001f64   Section        0  nrf_memobj.o(i.nrf_memobj_get)
    i.nrf_memobj_pool_init                   0x00001f72   Section        0  nrf_memobj.o(i.nrf_memobj_pool_init)
    i.nrf_memobj_put                         0x00001f76   Section        0  nrf_memobj.o(i.nrf_memobj_put)
    i.nrf_memobj_read                        0x00001f98   Section        0  nrf_memobj.o(i.nrf_memobj_read)
    i.nrf_memobj_write                       0x00001fa4   Section        0  nrf_memobj.o(i.nrf_memobj_write)
    i.nrf_power_event_get_and_clear          0x00001fb0   Section        0  nrf_drv_power.o(i.nrf_power_event_get_and_clear)
    nrf_power_event_get_and_clear            0x00001fb1   Thumb Code    20  nrf_drv_power.o(i.nrf_power_event_get_and_clear)
    i.nrf_pwr_mgmt_init                      0x00001fc4   Section        0  nrf_pwr_mgmt.o(i.nrf_pwr_mgmt_init)
    i.nrf_pwr_mgmt_run                       0x00001fec   Section        0  nrf_pwr_mgmt.o(i.nrf_pwr_mgmt_run)
    i.nrf_saadc_buffer_init                  0x00002020   Section        0  nrf_drv_saadc.o(i.nrf_saadc_buffer_init)
    nrf_saadc_buffer_init                    0x00002021   Thumb Code    10  nrf_drv_saadc.o(i.nrf_saadc_buffer_init)
    i.nrf_saadc_channel_init                 0x00002030   Section        0  nrf_saadc.o(i.nrf_saadc_channel_init)
    i.nrf_saadc_channel_input_set            0x00002098   Section        0  nrf_drv_saadc.o(i.nrf_saadc_channel_input_set)
    nrf_saadc_channel_input_set              0x00002099   Thumb Code    16  nrf_drv_saadc.o(i.nrf_saadc_channel_input_set)
    i.nrf_saadc_event_check                  0x000020ac   Section        0  nrf_drv_saadc.o(i.nrf_saadc_event_check)
    nrf_saadc_event_check                    0x000020ad   Thumb Code    12  nrf_drv_saadc.o(i.nrf_saadc_event_check)
    i.nrf_saadc_event_clear                  0x000020bc   Section        0  nrf_drv_saadc.o(i.nrf_saadc_event_clear)
    nrf_saadc_event_clear                    0x000020bd   Thumb Code    16  nrf_drv_saadc.o(i.nrf_saadc_event_clear)
    i.nrf_section_iter_init                  0x000020d0   Section        0  nrf_section_iter.o(i.nrf_section_iter_init)
    i.nrf_section_iter_item_set              0x000020da   Section        0  nrf_section_iter.o(i.nrf_section_iter_item_set)
    nrf_section_iter_item_set                0x000020db   Thumb Code    36  nrf_section_iter.o(i.nrf_section_iter_item_set)
    i.nrf_uart_event_check                   0x000020fe   Section        0  nrf_drv_uart.o(i.nrf_uart_event_check)
    nrf_uart_event_check                     0x000020ff   Thumb Code    10  nrf_drv_uart.o(i.nrf_uart_event_check)
    i.nrf_uart_event_clear                   0x00002108   Section        0  nrf_drv_uart.o(i.nrf_uart_event_clear)
    nrf_uart_event_clear                     0x00002109   Thumb Code    12  nrf_drv_uart.o(i.nrf_uart_event_clear)
    i.nrf_uart_int_enable_check              0x00002114   Section        0  nrf_drv_uart.o(i.nrf_uart_int_enable_check)
    nrf_uart_int_enable_check                0x00002115   Thumb Code    12  nrf_drv_uart.o(i.nrf_uart_int_enable_check)
    i.nrf_uarte_event_check                  0x00002120   Section        0  nrf_drv_uart.o(i.nrf_uarte_event_check)
    nrf_uarte_event_check                    0x00002121   Thumb Code    10  nrf_drv_uart.o(i.nrf_uarte_event_check)
    i.nrf_uarte_event_clear                  0x0000212a   Section        0  nrf_drv_uart.o(i.nrf_uarte_event_clear)
    nrf_uarte_event_clear                    0x0000212b   Thumb Code    12  nrf_drv_uart.o(i.nrf_uarte_event_clear)
    i.postfix_process                        0x00002138   Section        0  nrf_log_str_formatter.o(i.postfix_process)
    postfix_process                          0x00002139   Thumb Code    48  nrf_log_str_formatter.o(i.postfix_process)
    i.prefix_process                         0x00002174   Section        0  nrf_log_str_formatter.o(i.prefix_process)
    prefix_process                           0x00002175   Thumb Code    72  nrf_log_str_formatter.o(i.prefix_process)
    i.rx_byte                                0x000021d0   Section        0  nrf_drv_uart.o(i.rx_byte)
    rx_byte                                  0x000021d1   Thumb Code    50  nrf_drv_uart.o(i.rx_byte)
    i.rx_done_event                          0x00002202   Section        0  nrf_drv_uart.o(i.rx_done_event)
    rx_done_event                            0x00002203   Thumb Code    24  nrf_drv_uart.o(i.rx_done_event)
    i.saadc_callback                         0x0000221c   Section        0  main.o(i.saadc_callback)
    i.saadc_init                             0x00002330   Section        0  main.o(i.saadc_init)
    i.saadc_sampling_event_enable            0x0000238c   Section        0  main.o(i.saadc_sampling_event_enable)
    i.saadc_sampling_event_init              0x000023a8   Section        0  main.o(i.saadc_sampling_event_init)
    i.serial_tx                              0x00002434   Section        0  nrf_log_backend_rtt.o(i.serial_tx)
    serial_tx                                0x00002435   Thumb Code    42  nrf_log_backend_rtt.o(i.serial_tx)
    i.std_n                                  0x00002460   Section        0  nrf_log_frontend.o(i.std_n)
    std_n                                    0x00002461   Thumb Code   140  nrf_log_frontend.o(i.std_n)
    i.timer_handler                          0x000024f0   Section        0  main.o(i.timer_handler)
    i.tx_byte                                0x000024f2   Section        0  nrf_drv_uart.o(i.tx_byte)
    tx_byte                                  0x000024f3   Thumb Code    32  nrf_drv_uart.o(i.tx_byte)
    i.tx_done_event                          0x00002512   Section        0  nrf_drv_uart.o(i.tx_done_event)
    tx_done_event                            0x00002513   Thumb Code    28  nrf_drv_uart.o(i.tx_done_event)
    i.uart_irq_handler                       0x0000252e   Section        0  nrf_drv_uart.o(i.uart_irq_handler)
    uart_irq_handler                         0x0000252f   Thumb Code   286  nrf_drv_uart.o(i.uart_irq_handler)
    i.uarte_irq_handler                      0x0000264c   Section        0  nrf_drv_uart.o(i.uarte_irq_handler)
    uarte_irq_handler                        0x0000264d   Thumb Code   240  nrf_drv_uart.o(i.uarte_irq_handler)
    i.unsigned_print                         0x0000273c   Section        0  nrf_fprintf_format.o(i.unsigned_print)
    unsigned_print                           0x0000273d   Thumb Code   176  nrf_fprintf_format.o(i.unsigned_print)
    .constdata                               0x000027f0   Section       25  main.o(.constdata)
    m_timer                                  0x000027f0   Data           8  main.o(.constdata)
    .constdata                               0x00002809   Section        1  nrf_drv_power.o(.constdata)
    m_drv_power_config_default               0x00002809   Data           1  nrf_drv_power.o(.constdata)
    .constdata                               0x0000280a   Section        4  nrf_drv_saadc.o(.constdata)
    m_default_config                         0x0000280a   Data           4  nrf_drv_saadc.o(.constdata)
    .constdata                               0x0000280e   Section       16  nrf_fprintf_format.o(.constdata)
    _aV2C                                    0x0000280e   Data          16  nrf_fprintf_format.o(.constdata)
    .constdata                               0x00002820   Section       24  nrf_pwr_mgmt.o(.constdata)
    pwr_mgmt_data_array                      0x00002820   Data          24  nrf_pwr_mgmt.o(.constdata)
    .constdata                               0x00002838   Section       12  nrf_pwr_mgmt.o(.constdata)
    pwr_mgmt_data                            0x00002838   Data          12  nrf_pwr_mgmt.o(.constdata)
    .constdata                               0x00002844   Section       12  nrf_log_backend_rtt.o(.constdata)
    .constdata                               0x00002850   Section       20  nrf_log_frontend.o(.constdata)
    mempool                                  0x00002850   Data          20  nrf_log_frontend.o(.constdata)
    .constdata                               0x00002864   Section      129  ctype_o.o(.constdata)
    .constdata                               0x000028e8   Section        4  ctype_o.o(.constdata)
    table                                    0x000028e8   Data           4  ctype_o.o(.constdata)
    .conststring                             0x000028ec   Section      102  nrf_log_str_formatter.o(.conststring)
    .conststrlit                             0x00002954   Section        4  nrf_drv_ppi.o(.conststrlit)
    .conststrlit                             0x00002958   Section        6  nrf_drv_saadc.o(.conststrlit)
    .conststrlit                             0x00002960   Section        6  nrf_drv_timer.o(.conststrlit)
    .conststrlit                             0x00002968   Section        5  nrf_drv_uart.o(.conststrlit)
    .conststrlit                             0x00002970   Section        7  nrf_balloc.o(.conststrlit)
    .conststrlit                             0x00002978   Section        9  nrf_pwr_mgmt.o(.conststrlit)
    .conststrlit                             0x00002984   Section        4  nrf_log_frontend.o(.conststrlit)
    log_const_data                           0x000029a8   Section        8  nrf_drv_ppi.o(log_const_data)
    __tagsym$$used                           0x000029a8   Number         0  nrf_drv_ppi.o(log_const_data)
    log_const_data                           0x000029b0   Section        8  nrf_drv_saadc.o(log_const_data)
    __tagsym$$used                           0x000029b0   Number         0  nrf_drv_saadc.o(log_const_data)
    log_const_data                           0x000029b8   Section        8  nrf_drv_timer.o(log_const_data)
    __tagsym$$used                           0x000029b8   Number         0  nrf_drv_timer.o(log_const_data)
    log_const_data                           0x000029c0   Section        8  nrf_drv_uart.o(log_const_data)
    __tagsym$$used                           0x000029c0   Number         0  nrf_drv_uart.o(log_const_data)
    log_const_data                           0x000029c8   Section        8  nrf_balloc.o(log_const_data)
    __tagsym$$used                           0x000029c8   Number         0  nrf_balloc.o(log_const_data)
    log_const_data                           0x000029d0   Section        8  nrf_pwr_mgmt.o(log_const_data)
    __tagsym$$used                           0x000029d0   Number         0  nrf_pwr_mgmt.o(log_const_data)
    log_const_data                           0x000029d8   Section        8  nrf_log_frontend.o(log_const_data)
    __tagsym$$used                           0x000029d8   Number         0  nrf_log_frontend.o(log_const_data)
    .data                                    0x20000000   Section        8  main.o(.data)
    m_ppi_channel                            0x20000000   Data           1  main.o(.data)
    m_adc_evt_counter                        0x20000004   Data           4  main.o(.data)
    .data                                    0x20000008   Section       16  nrf_drv_power.o(.data)
    m_initialized                            0x20000008   Data           1  nrf_drv_power.o(.data)
    m_pofwarn_handler                        0x2000000c   Data           4  nrf_drv_power.o(.data)
    m_sleepevt_handler                       0x20000010   Data           4  nrf_drv_power.o(.data)
    m_usbevt_handler                         0x20000014   Data           4  nrf_drv_power.o(.data)
    .data                                    0x20000018   Section        8  nrf_drv_ppi.o(.data)
    m_drv_state                              0x20000018   Data           1  nrf_drv_ppi.o(.data)
    m_groups_allocated                       0x20000019   Data           1  nrf_drv_ppi.o(.data)
    m_channels_allocated                     0x2000001c   Data           4  nrf_drv_ppi.o(.data)
    .data                                    0x20000020   Section        4  app_util_platform.o(.data)
    m_in_critical_region                     0x20000020   Data           4  app_util_platform.o(.data)
    .data                                    0x20000024   Section        8  nrf_pwr_mgmt.o(.data)
    m_pwr_mgmt_evt                           0x20000024   Data           1  nrf_pwr_mgmt.o(.data)
    m_shutdown_started                       0x20000025   Data           1  nrf_pwr_mgmt.o(.data)
    m_sysoff_mtx                             0x20000028   Data           4  nrf_pwr_mgmt.o(.data)
    .data                                    0x2000002c   Section       12  nrf_log_default_backends.o(.data)
    rtt_log_backend                          0x2000002c   Data          12  nrf_log_default_backends.o(.data)
    .data                                    0x20000038   Section        8  nrf_log_frontend.o(.data)
    mempool_nrf_balloc_pool_stack            0x20000038   Data           8  nrf_log_frontend.o(.data)
    .data                                    0x20000040   Section        8  nrf_log_frontend.o(.data)
    mempool_nrf_balloc_cb                    0x20000040   Data           8  nrf_log_frontend.o(.data)
    .data                                    0x20000048   Section       56  nrf_log_str_formatter.o(.data)
    severity_names                           0x20000048   Data          20  nrf_log_str_formatter.o(.data)
    m_colors                                 0x2000005c   Data          36  nrf_log_str_formatter.o(.data)
    .data                                    0x20000080   Section        4  system_nrf52840.o(.data)
    __tagsym$$used                           0x20000080   Number         0  system_nrf52840.o(.data)
    log_dynamic_data                         0x20000084   Section       12  nrf_drv_ppi.o(log_dynamic_data)
    __tagsym$$used                           0x20000084   Number         0  nrf_drv_ppi.o(log_dynamic_data)
    log_dynamic_data                         0x20000090   Section       12  nrf_drv_saadc.o(log_dynamic_data)
    __tagsym$$used                           0x20000090   Number         0  nrf_drv_saadc.o(log_dynamic_data)
    log_dynamic_data                         0x2000009c   Section       12  nrf_drv_timer.o(log_dynamic_data)
    __tagsym$$used                           0x2000009c   Number         0  nrf_drv_timer.o(log_dynamic_data)
    log_dynamic_data                         0x200000a8   Section       12  nrf_drv_uart.o(log_dynamic_data)
    __tagsym$$used                           0x200000a8   Number         0  nrf_drv_uart.o(log_dynamic_data)
    log_dynamic_data                         0x200000b4   Section       12  nrf_balloc.o(log_dynamic_data)
    __tagsym$$used                           0x200000b4   Number         0  nrf_balloc.o(log_dynamic_data)
    log_dynamic_data                         0x200000c0   Section       12  nrf_pwr_mgmt.o(log_dynamic_data)
    __tagsym$$used                           0x200000c0   Number         0  nrf_pwr_mgmt.o(log_dynamic_data)
    log_dynamic_data                         0x200000cc   Section       12  nrf_log_frontend.o(log_dynamic_data)
    __tagsym$$used                           0x200000cc   Number         0  nrf_log_frontend.o(log_dynamic_data)
    .bss                                     0x200000d8   Section       20  main.o(.bss)
    m_buffer_pool                            0x200000d8   Data          20  main.o(.bss)
    .bss                                     0x200000ec   Section       48  nrf_drv_saadc.o(.bss)
    m_cb                                     0x200000ec   Data          48  nrf_drv_saadc.o(.bss)
    .bss                                     0x2000011c   Section       12  nrf_drv_timer.o(.bss)
    m_cb                                     0x2000011c   Data          12  nrf_drv_timer.o(.bss)
    .bss                                     0x20000128   Section       32  nrf_drv_uart.o(.bss)
    m_cb                                     0x20000128   Data          32  nrf_drv_uart.o(.bss)
    .bss                                     0x20000148   Section       12  nrf_pwr_mgmt.o(.bss)
    m_handlers_iter                          0x20000148   Data          12  nrf_pwr_mgmt.o(.bss)
    .bss                                     0x20000154   Section       64  nrf_log_backend_rtt.o(.bss)
    m_string_buff                            0x20000154   Data          64  nrf_log_backend_rtt.o(.bss)
    .bss                                     0x20000194   Section      192  nrf_log_frontend.o(.bss)
    mempool_nrf_balloc_pool_mem              0x20000194   Data         192  nrf_log_frontend.o(.bss)
    .bss                                     0x20000254   Section     1056  nrf_log_frontend.o(.bss)
    m_log_data                               0x20000254   Data        1056  nrf_log_frontend.o(.bss)
    .bss                                     0x20000674   Section      648  segger_rtt.o(.bss)
    _acUpBuffer                              0x200006ec   Data         512  segger_rtt.o(.bss)
    _acDownBuffer                            0x200008ec   Data          16  segger_rtt.o(.bss)
    STACK                                    0x20000900   Section     8192  arm_startup_nrf52840.o(STACK)

    Global Symbols

    Symbol Name                              Value     Ov Type        Size  Object(Section)

    BuildAttributes$$THM_ISAv4$E$P$D$K$B$S$7EM$VFPi3$EXTD16$VFPS$VFMA$PE$A:L22UL41UL21$X:L11$S22US41US21$IEEE1$IW$USESV6$~STKCKD$USESV7$~SHL$OTIME$ROPI$IEEEJ$EBA8$MICROLIB$REQ8$PRES8$EABIv2 0x00000000   Number         0  anon$$obj.o ABSOLUTE
    __ARM_use_no_argv                        0x00000000   Number         0  main.o ABSOLUTE
    __Vectors                                0x00000000   Data           4  arm_startup_nrf52840.o(RESET)
    __use_no_errno                           0x00000000   Number         0  useno.o ABSOLUTE
    __use_no_exception_handling              0x00000000   Number         0  useno.o ABSOLUTE
    __use_no_fp                              0x00000000   Number         0  useno.o ABSOLUTE
    __use_no_heap                            0x00000000   Number         0  useno.o ABSOLUTE
    __use_no_heap_region                     0x00000000   Number         0  useno.o ABSOLUTE
    __use_no_semihosting                     0x00000000   Number         0  useno.o ABSOLUTE
    __use_no_semihosting_swi                 0x00000000   Number         0  useno.o ABSOLUTE
    __use_no_signal_handling                 0x00000000   Number         0  useno.o ABSOLUTE
    __cpp_initialize__aeabi_                  - Undefined Weak Reference
    __cxa_finalize                            - Undefined Weak Reference
    __decompress                              - Undefined Weak Reference
    _clock_init                               - Undefined Weak Reference
    _microlib_exit                            - Undefined Weak Reference
    pwr_mgmt_data0$$Base                      - Undefined Reference
    pwr_mgmt_data0$$Limit                     - Undefined Reference
    pwr_mgmt_data1$$Base                      - Undefined Reference
    pwr_mgmt_data1$$Limit                     - Undefined Reference
    pwr_mgmt_data2$$Base                      - Undefined Reference
    pwr_mgmt_data2$$Limit                     - Undefined Reference
    __Vectors_End                            0x00000200   Data           0  arm_startup_nrf52840.o(RESET)
    __Vectors_Size                           0x00000200   Number         0  arm_startup_nrf52840.o ABSOLUTE
    __main                                   0x00000201   Thumb Code     0  entry.o(.ARM.Collect$$$$00000000)
    _main_stk                                0x00000201   Thumb Code     0  entry2.o(.ARM.Collect$$$$00000001)
    _main_scatterload                        0x00000205   Thumb Code     0  entry5.o(.ARM.Collect$$$$00000004)
    __main_after_scatterload                 0x00000209   Thumb Code     0  entry5.o(.ARM.Collect$$$$00000004)
    _main_clock                              0x00000209   Thumb Code     0  entry7b.o(.ARM.Collect$$$$00000008)
    _main_cpp_init                           0x00000209   Thumb Code     0  entry8b.o(.ARM.Collect$$$$0000000A)
    _main_init                               0x00000209   Thumb Code     0  entry9a.o(.ARM.Collect$$$$0000000B)
    __rt_final_cpp                           0x00000211   Thumb Code     0  entry10a.o(.ARM.Collect$$$$0000000D)
    __rt_final_exit                          0x00000211   Thumb Code     0  entry11a.o(.ARM.Collect$$$$0000000F)
    __asm___12_nrf_memobj_c_9bb9f865__nrf_atomic_internal_mov 0x00000215   Thumb Code    24  nrf_memobj.o(.emb_text)
    __asm___12_nrf_memobj_c_9bb9f865__nrf_atomic_internal_orr 0x0000022d   Thumb Code    26  nrf_memobj.o(.emb_text)
    __asm___12_nrf_memobj_c_9bb9f865__nrf_atomic_internal_and 0x00000247   Thumb Code    26  nrf_memobj.o(.emb_text)
    __asm___12_nrf_memobj_c_9bb9f865__nrf_atomic_internal_eor 0x00000261   Thumb Code    26  nrf_memobj.o(.emb_text)
    __asm___12_nrf_memobj_c_9bb9f865__nrf_atomic_internal_add 0x0000027b   Thumb Code    26  nrf_memobj.o(.emb_text)
    __asm___12_nrf_memobj_c_9bb9f865__nrf_atomic_internal_sub 0x00000295   Thumb Code    26  nrf_memobj.o(.emb_text)
    __asm___18_nrf_log_frontend_c_bc460776__nrf_atomic_internal_mov 0x000002b1   Thumb Code    24  nrf_log_frontend.o(.emb_text)
    __asm___18_nrf_log_frontend_c_bc460776__nrf_atomic_internal_orr 0x000002c9   Thumb Code    26  nrf_log_frontend.o(.emb_text)
    __asm___18_nrf_log_frontend_c_bc460776__nrf_atomic_internal_and 0x000002e3   Thumb Code    26  nrf_log_frontend.o(.emb_text)
    __asm___18_nrf_log_frontend_c_bc460776__nrf_atomic_internal_eor 0x000002fd   Thumb Code    26  nrf_log_frontend.o(.emb_text)
    __asm___18_nrf_log_frontend_c_bc460776__nrf_atomic_internal_add 0x00000317   Thumb Code    26  nrf_log_frontend.o(.emb_text)
    __asm___18_nrf_log_frontend_c_bc460776__nrf_atomic_internal_sub 0x00000331   Thumb Code    26  nrf_log_frontend.o(.emb_text)
    Reset_Handler                            0x0000034d   Thumb Code     8  arm_startup_nrf52840.o(.text)
    NMI_Handler                              0x00000355   Thumb Code     2  arm_startup_nrf52840.o(.text)
    HardFault_Handler                        0x00000357   Thumb Code     2  arm_startup_nrf52840.o(.text)
    MemoryManagement_Handler                 0x00000359   Thumb Code     2  arm_startup_nrf52840.o(.text)
    BusFault_Handler                         0x0000035b   Thumb Code     2  arm_startup_nrf52840.o(.text)
    UsageFault_Handler                       0x0000035d   Thumb Code     2  arm_startup_nrf52840.o(.text)
    SVC_Handler                              0x0000035f   Thumb Code     2  arm_startup_nrf52840.o(.text)
    DebugMon_Handler                         0x00000361   Thumb Code     2  arm_startup_nrf52840.o(.text)
    PendSV_Handler                           0x00000363   Thumb Code     2  arm_startup_nrf52840.o(.text)
    SysTick_Handler                          0x00000365   Thumb Code     2  arm_startup_nrf52840.o(.text)
    CCM_AAR_IRQHandler                       0x00000367   Thumb Code     0  arm_startup_nrf52840.o(.text)
    COMP_LPCOMP_IRQHandler                   0x00000367   Thumb Code     0  arm_startup_nrf52840.o(.text)
    CRYPTOCELL_IRQHandler                    0x00000367   Thumb Code     0  arm_startup_nrf52840.o(.text)
    ECB_IRQHandler                           0x00000367   Thumb Code     0  arm_startup_nrf52840.o(.text)
    FPU_IRQHandler                           0x00000367   Thumb Code     0  arm_startup_nrf52840.o(.text)
    GPIOTE_IRQHandler                        0x00000367   Thumb Code     0  arm_startup_nrf52840.o(.text)
    I2S_IRQHandler                           0x00000367   Thumb Code     0  arm_startup_nrf52840.o(.text)
    MWU_IRQHandler                           0x00000367   Thumb Code     0  arm_startup_nrf52840.o(.text)
    NFCT_IRQHandler                          0x00000367   Thumb Code     0  arm_startup_nrf52840.o(.text)
    PDM_IRQHandler                           0x00000367   Thumb Code     0  arm_startup_nrf52840.o(.text)
    PWM0_IRQHandler                          0x00000367   Thumb Code     0  arm_startup_nrf52840.o(.text)
    PWM1_IRQHandler                          0x00000367   Thumb Code     0  arm_startup_nrf52840.o(.text)
    PWM2_IRQHandler                          0x00000367   Thumb Code     0  arm_startup_nrf52840.o(.text)
    PWM3_IRQHandler                          0x00000367   Thumb Code     0  arm_startup_nrf52840.o(.text)
    QDEC_IRQHandler                          0x00000367   Thumb Code     0  arm_startup_nrf52840.o(.text)
    QSPI_IRQHandler                          0x00000367   Thumb Code     0  arm_startup_nrf52840.o(.text)
    RADIO_IRQHandler                         0x00000367   Thumb Code     0  arm_startup_nrf52840.o(.text)
    RNG_IRQHandler                           0x00000367   Thumb Code     0  arm_startup_nrf52840.o(.text)
    RTC0_IRQHandler                          0x00000367   Thumb Code     0  arm_startup_nrf52840.o(.text)
    RTC1_IRQHandler                          0x00000367   Thumb Code     0  arm_startup_nrf52840.o(.text)
    RTC2_IRQHandler                          0x00000367   Thumb Code     0  arm_startup_nrf52840.o(.text)
    SPIM0_SPIS0_TWIM0_TWIS0_SPI0_TWI0_IRQHandler 0x00000367   Thumb Code     0  arm_startup_nrf52840.o(.text)
    SPIM1_SPIS1_TWIM1_TWIS1_SPI1_TWI1_IRQHandler 0x00000367   Thumb Code     0  arm_startup_nrf52840.o(.text)
    SPIM2_SPIS2_SPI2_IRQHandler              0x00000367   Thumb Code     0  arm_startup_nrf52840.o(.text)
    SPIM3_IRQHandler                         0x00000367   Thumb Code     0  arm_startup_nrf52840.o(.text)
    SWI0_EGU0_IRQHandler                     0x00000367   Thumb Code     0  arm_startup_nrf52840.o(.text)
    SWI1_EGU1_IRQHandler                     0x00000367   Thumb Code     0  arm_startup_nrf52840.o(.text)
    SWI2_EGU2_IRQHandler                     0x00000367   Thumb Code     0  arm_startup_nrf52840.o(.text)
    SWI3_EGU3_IRQHandler                     0x00000367   Thumb Code     0  arm_startup_nrf52840.o(.text)
    SWI4_EGU4_IRQHandler                     0x00000367   Thumb Code     0  arm_startup_nrf52840.o(.text)
    SWI5_EGU5_IRQHandler                     0x00000367   Thumb Code     0  arm_startup_nrf52840.o(.text)
    TEMP_IRQHandler                          0x00000367   Thumb Code     0  arm_startup_nrf52840.o(.text)
    TIMER1_IRQHandler                        0x00000367   Thumb Code     0  arm_startup_nrf52840.o(.text)
    TIMER2_IRQHandler                        0x00000367   Thumb Code     0  arm_startup_nrf52840.o(.text)
    TIMER3_IRQHandler                        0x00000367   Thumb Code     0  arm_startup_nrf52840.o(.text)
    TIMER4_IRQHandler                        0x00000367   Thumb Code     0  arm_startup_nrf52840.o(.text)
    UARTE1_IRQHandler                        0x00000367   Thumb Code     0  arm_startup_nrf52840.o(.text)
    USBD_IRQHandler                          0x00000367   Thumb Code     0  arm_startup_nrf52840.o(.text)
    WDT_IRQHandler                           0x00000367   Thumb Code     0  arm_startup_nrf52840.o(.text)
    __rt_ctype_table                         0x00000371   Thumb Code     4  ctype_o.o(.text)
    __aeabi_memcpy                           0x00000379   Thumb Code    36  memcpya.o(.text)
    __aeabi_memcpy4                          0x00000379   Thumb Code     0  memcpya.o(.text)
    __aeabi_memcpy8                          0x00000379   Thumb Code     0  memcpya.o(.text)
    __aeabi_memset                           0x0000039d   Thumb Code    14  memseta.o(.text)
    __aeabi_memset4                          0x0000039d   Thumb Code     0  memseta.o(.text)
    __aeabi_memset8                          0x0000039d   Thumb Code     0  memseta.o(.text)
    __aeabi_memclr                           0x000003ab   Thumb Code     4  memseta.o(.text)
    __aeabi_memclr4                          0x000003ab   Thumb Code     0  memseta.o(.text)
    __aeabi_memclr8                          0x000003ab   Thumb Code     0  memseta.o(.text)
    _memset$wrapper                          0x000003af   Thumb Code    18  memseta.o(.text)
    strlen                                   0x000003c1   Thumb Code    14  strlen.o(.text)
    strcpy                                   0x000003cf   Thumb Code    18  strcpy.o(.text)
    __aeabi_i2d                              0x000003e1   Thumb Code    34  dflti.o(.text)
    __aeabi_d2uiz                            0x00000403   Thumb Code    50  dfixui.o(.text)
    __aeabi_llsr                             0x00000435   Thumb Code    32  llushr.o(.text)
    _ll_ushift_r                             0x00000435   Thumb Code     0  llushr.o(.text)
    __I$use$fp                               0x00000455   Thumb Code     0  iusefp.o(.text)
    _double_round                            0x00000455   Thumb Code    30  depilogue.o(.text)
    _double_epilogue                         0x00000473   Thumb Code   156  depilogue.o(.text)
    __aeabi_dadd                             0x0000050f   Thumb Code   322  dadd.o(.text)
    __aeabi_dsub                             0x00000651   Thumb Code     6  dadd.o(.text)
    __aeabi_drsub                            0x00000657   Thumb Code     6  dadd.o(.text)
    _drnd                                    0x0000065d   Thumb Code   132  drnd.o(.text)
    __aeabi_cdcmpeq                          0x000006e5   Thumb Code     0  cdcmple.o(.text)
    __aeabi_cdcmple                          0x000006e5   Thumb Code    48  cdcmple.o(.text)
    __aeabi_cdrcmple                         0x00000715   Thumb Code    48  cdrcmple.o(.text)
    __scatterload                            0x00000745   Thumb Code    28  init.o(.text)
    __scatterload_rt2                        0x00000745   Thumb Code     0  init.o(.text)
    __aeabi_llsl                             0x00000769   Thumb Code    30  llshl.o(.text)
    _ll_shift_l                              0x00000769   Thumb Code     0  llshl.o(.text)
    __aeabi_lasr                             0x00000787   Thumb Code    36  llsshr.o(.text)
    _ll_sshift_r                             0x00000787   Thumb Code     0  llsshr.o(.text)
    POWER_CLOCK_IRQHandler                   0x000007ad   Thumb Code   138  nrf_drv_power.o(i.POWER_CLOCK_IRQHandler)
    SAADC_IRQHandler                         0x0000083d   Thumb Code   320  nrf_drv_saadc.o(i.SAADC_IRQHandler)
    SEGGER_RTT_Init                          0x00000985   Thumb Code     4  segger_rtt.o(i.SEGGER_RTT_Init)
    SEGGER_RTT_WriteNoLock                   0x00000989   Thumb Code    86  segger_rtt.o(i.SEGGER_RTT_WriteNoLock)
    SystemInit                               0x000009e5   Thumb Code   460  system_nrf52840.o(i.SystemInit)
    TIMER0_IRQHandler                        0x00000bed   Thumb Code    68  nrf_drv_timer.o(i.TIMER0_IRQHandler)
    UARTE0_UART0_IRQHandler                  0x00000c39   Thumb Code    20  nrf_drv_uart.o(i.UARTE0_UART0_IRQHandler)
    __hardfp_round                           0x00000d71   Thumb Code   194  round.o(i.__hardfp_round)
    __scatterload_copy                       0x00000e51   Thumb Code    14  handlers.o(i.__scatterload_copy)
    __scatterload_null                       0x00000e5f   Thumb Code     2  handlers.o(i.__scatterload_null)
    __scatterload_zeroinit                   0x00000e61   Thumb Code    14  handlers.o(i.__scatterload_zeroinit)
    app_error_fault_handler                  0x00000e71   Thumb Code    80  app_error_weak.o(i.app_error_fault_handler)
    app_error_handler_bare                   0x00000ee9   Thumb Code    22  app_error.o(i.app_error_handler_bare)
    app_util_critical_region_enter           0x00000eff   Thumb Code     4  app_util_platform.o(i.app_util_critical_region_enter)
    app_util_critical_region_exit            0x00000f03   Thumb Code     4  app_util_platform.o(i.app_util_critical_region_exit)
    app_util_disable_irq                     0x00000f09   Thumb Code    12  app_util_platform.o(i.app_util_disable_irq)
    app_util_enable_irq                      0x00000f19   Thumb Code    14  app_util_platform.o(i.app_util_enable_irq)
    buffer_is_empty                          0x00000fad   Thumb Code    16  nrf_log_frontend.o(i.buffer_is_empty)
    main                                     0x00001121   Thumb Code   122  main.o(i.main)
    nrf_balloc_alloc                         0x00001277   Thumb Code    62  nrf_balloc.o(i.nrf_balloc_alloc)
    nrf_balloc_free                          0x000012b5   Thumb Code    42  nrf_balloc.o(i.nrf_balloc_free)
    nrf_balloc_init                          0x000012df   Thumb Code    48  nrf_balloc.o(i.nrf_balloc_init)
    nrf_drv_common_irq_enable                0x0000130f   Thumb Code    56  nrf_drv_common.o(i.nrf_drv_common_irq_enable)
    nrf_drv_power_init                       0x00001349   Thumb Code    68  nrf_drv_power.o(i.nrf_drv_power_init)
    nrf_drv_ppi_channel_alloc                0x00001399   Thumb Code    88  nrf_drv_ppi.o(i.nrf_drv_ppi_channel_alloc)
    nrf_drv_ppi_channel_assign               0x000013f9   Thumb Code    62  nrf_drv_ppi.o(i.nrf_drv_ppi_channel_assign)
    nrf_drv_ppi_channel_enable               0x0000143d   Thumb Code    36  nrf_drv_ppi.o(i.nrf_drv_ppi_channel_enable)
    nrf_drv_ppi_init                         0x00001465   Thumb Code    18  nrf_drv_ppi.o(i.nrf_drv_ppi_init)
    nrf_drv_saadc_buffer_convert             0x0000147d   Thumb Code   154  nrf_drv_saadc.o(i.nrf_drv_saadc_buffer_convert)
    nrf_drv_saadc_channel_init               0x00001521   Thumb Code    62  nrf_drv_saadc.o(i.nrf_drv_saadc_channel_init)
    nrf_drv_saadc_init                       0x00001565   Thumb Code   124  nrf_drv_saadc.o(i.nrf_drv_saadc_init)
    nrf_drv_saadc_sample_task_get            0x000015f1   Thumb Code    20  nrf_drv_saadc.o(i.nrf_drv_saadc_sample_task_get)
    nrf_drv_timer_compare                    0x0000160d   Thumb Code    34  nrf_drv_timer.o(i.nrf_drv_timer_compare)
    nrf_drv_timer_enable                     0x00001631   Thumb Code    24  nrf_drv_timer.o(i.nrf_drv_timer_enable)
    nrf_drv_timer_extended_compare           0x0000164d   Thumb Code    42  nrf_drv_timer.o(i.nrf_drv_timer_extended_compare)
    nrf_drv_timer_init                       0x00001679   Thumb Code   138  nrf_drv_timer.o(i.nrf_drv_timer_init)
    nrf_fprintf                              0x00001709   Thumb Code    26  nrf_fprintf.o(i.nrf_fprintf)
    nrf_fprintf_buffer_flush                 0x00001723   Thumb Code    24  nrf_fprintf.o(i.nrf_fprintf_buffer_flush)
    nrf_fprintf_fmt                          0x0000173b   Thumb Code   474  nrf_fprintf_format.o(i.nrf_fprintf_fmt)
    nrf_log_backend_add                      0x00001931   Thumb Code    74  nrf_log_frontend.o(i.nrf_log_backend_add)
    nrf_log_backend_rtt_init                 0x00001983   Thumb Code     4  nrf_log_backend_rtt.o(i.nrf_log_backend_rtt_init)
    nrf_log_backend_serial_put               0x000019a1   Thumb Code   210  nrf_log_backend_serial.o(i.nrf_log_backend_serial_put)
    nrf_log_color_id_get                     0x00001a75   Thumb Code    42  nrf_log_frontend.o(i.nrf_log_color_id_get)
    nrf_log_default_backends_init            0x00001aa5   Thumb Code    22  nrf_log_default_backends.o(i.nrf_log_default_backends_init)
    nrf_log_frontend_dequeue                 0x00001ac1   Thumb Code   476  nrf_log_frontend.o(i.nrf_log_frontend_dequeue)
    nrf_log_frontend_std_0                   0x00001ca5   Thumb Code     8  nrf_log_frontend.o(i.nrf_log_frontend_std_0)
    nrf_log_frontend_std_1                   0x00001cad   Thumb Code    14  nrf_log_frontend.o(i.nrf_log_frontend_std_1)
    nrf_log_hexdump_entry_process            0x00001cbd   Thumb Code   146  nrf_log_str_formatter.o(i.nrf_log_hexdump_entry_process)
    nrf_log_init                             0x00001d69   Thumb Code    70  nrf_log_frontend.o(i.nrf_log_init)
    nrf_log_module_cnt_get                   0x00001dc5   Thumb Code    10  nrf_log_frontend.o(i.nrf_log_module_cnt_get)
    nrf_log_module_name_get                  0x00001dd9   Thumb Code    24  nrf_log_frontend.o(i.nrf_log_module_name_get)
    nrf_log_panic                            0x00001df5   Thumb Code    34  nrf_log_frontend.o(i.nrf_log_panic)
    nrf_log_std_entry_process                0x00001e1d   Thumb Code   182  nrf_log_str_formatter.o(i.nrf_log_std_entry_process)
    nrf_memobj_alloc                         0x00001ed3   Thumb Code    96  nrf_memobj.o(i.nrf_memobj_alloc)
    nrf_memobj_free                          0x00001f33   Thumb Code    50  nrf_memobj.o(i.nrf_memobj_free)
    nrf_memobj_get                           0x00001f65   Thumb Code    14  nrf_memobj.o(i.nrf_memobj_get)
    nrf_memobj_pool_init                     0x00001f73   Thumb Code     4  nrf_memobj.o(i.nrf_memobj_pool_init)
    nrf_memobj_put                           0x00001f77   Thumb Code    34  nrf_memobj.o(i.nrf_memobj_put)
    nrf_memobj_read                          0x00001f99   Thumb Code    12  nrf_memobj.o(i.nrf_memobj_read)
    nrf_memobj_write                         0x00001fa5   Thumb Code    12  nrf_memobj.o(i.nrf_memobj_write)
    nrf_pwr_mgmt_init                        0x00001fc5   Thumb Code    28  nrf_pwr_mgmt.o(i.nrf_pwr_mgmt_init)
    nrf_pwr_mgmt_run                         0x00001fed   Thumb Code    46  nrf_pwr_mgmt.o(i.nrf_pwr_mgmt_run)
    nrf_saadc_channel_init                   0x00002031   Thumb Code   100  nrf_saadc.o(i.nrf_saadc_channel_init)
    nrf_section_iter_init                    0x000020d1   Thumb Code    10  nrf_section_iter.o(i.nrf_section_iter_init)
    saadc_callback                           0x0000221d   Thumb Code   222  main.o(i.saadc_callback)
    saadc_init                               0x00002331   Thumb Code    78  main.o(i.saadc_init)
    saadc_sampling_event_enable              0x0000238d   Thumb Code    24  main.o(i.saadc_sampling_event_enable)
    saadc_sampling_event_init                0x000023a9   Thumb Code   122  main.o(i.saadc_sampling_event_init)
    timer_handler                            0x000024f1   Thumb Code     2  main.o(i.timer_handler)
    nrf_log_backend_rtt_api                  0x00002844   Data          12  nrf_log_backend_rtt.o(.constdata)
    __ctype_table                            0x00002864   Data         129  ctype_o.o(.constdata)
    Region$$Table$$Base                      0x00002988   Number         0  anon$$obj.o(Region$$Table)
    Region$$Table$$Limit                     0x000029a8   Number         0  anon$$obj.o(Region$$Table)
    log_const_data$$Base                     0x000029a8   Number         0  nrf_drv_ppi.o(log_const_data)
    m_nrf_log_ppi_logs_data_const            0x000029a8   Data           8  nrf_drv_ppi.o(log_const_data)
    m_nrf_log_saadc_logs_data_const          0x000029b0   Data           8  nrf_drv_saadc.o(log_const_data)
    m_nrf_log_timer_logs_data_const          0x000029b8   Data           8  nrf_drv_timer.o(log_const_data)
    m_nrf_log_uart_logs_data_const           0x000029c0   Data           8  nrf_drv_uart.o(log_const_data)
    m_nrf_log_balloc_logs_data_const         0x000029c8   Data           8  nrf_balloc.o(log_const_data)
    m_nrf_log_pwr_mgmt_logs_data_const       0x000029d0   Data           8  nrf_pwr_mgmt.o(log_const_data)
    m_nrf_log_app_logs_data_const            0x000029d8   Data           8  nrf_log_frontend.o(log_const_data)
    log_const_data$$Limit                    0x000029e0   Number         0  nrf_log_frontend.o(log_const_data)
    SystemCoreClock                          0x20000080   Data           4  system_nrf52840.o(.data)
    log_dynamic_data$$Base                   0x20000084   Number         0  nrf_drv_ppi.o(log_dynamic_data)
    m_nrf_log_ppi_logs_data_dynamic          0x20000084   Data          12  nrf_drv_ppi.o(log_dynamic_data)
    m_nrf_log_saadc_logs_data_dynamic        0x20000090   Data          12  nrf_drv_saadc.o(log_dynamic_data)
    m_nrf_log_timer_logs_data_dynamic        0x2000009c   Data          12  nrf_drv_timer.o(log_dynamic_data)
    m_nrf_log_uart_logs_data_dynamic         0x200000a8   Data          12  nrf_drv_uart.o(log_dynamic_data)
    m_nrf_log_balloc_logs_data_dynamic       0x200000b4   Data          12  nrf_balloc.o(log_dynamic_data)
    m_nrf_log_pwr_mgmt_logs_data_dynamic     0x200000c0   Data          12  nrf_pwr_mgmt.o(log_dynamic_data)
    m_nrf_log_app_logs_data_dynamic          0x200000cc   Data          12  nrf_log_frontend.o(log_dynamic_data)
    _SEGGER_RTT                              0x20000674   Data         120  segger_rtt.o(.bss)
    __initial_sp                             0x20002900   Data           0  arm_startup_nrf52840.o(STACK)



==============================================================================

Memory Map of the image

  Image Entry point : 0x00000201

  Load Region LR_IROM1 (Base: 0x00000000, Size: 0x00002ab8, Max: 0x00100000, ABSOLUTE)

    Execution Region ER_IROM1 (Exec base: 0x00000000, Load base: 0x00000000, Size: 0x000029e0, Max: 0x00100000, ABSOLUTE)

    Exec Addr    Load Addr    Size         Type   Attr      Idx    E Section Name        Object

    0x00000000   0x00000000   0x00000200   Data   RO         2466    RESET               arm_startup_nrf52840.o
    0x00000200   0x00000200   0x00000000   Code   RO         2511  * .ARM.Collect$$$$00000000  mc_w.l(entry.o)
    0x00000200   0x00000200   0x00000004   Code   RO         2563    .ARM.Collect$$$$00000001  mc_w.l(entry2.o)
    0x00000204   0x00000204   0x00000004   Code   RO         2566    .ARM.Collect$$$$00000004  mc_w.l(entry5.o)
    0x00000208   0x00000208   0x00000000   Code   RO         2568    .ARM.Collect$$$$00000008  mc_w.l(entry7b.o)
    0x00000208   0x00000208   0x00000000   Code   RO         2570    .ARM.Collect$$$$0000000A  mc_w.l(entry8b.o)
    0x00000208   0x00000208   0x00000008   Code   RO         2571    .ARM.Collect$$$$0000000B  mc_w.l(entry9a.o)
    0x00000210   0x00000210   0x00000000   Code   RO         2573    .ARM.Collect$$$$0000000D  mc_w.l(entry10a.o)
    0x00000210   0x00000210   0x00000000   Code   RO         2575    .ARM.Collect$$$$0000000F  mc_w.l(entry11a.o)
    0x00000210   0x00000210   0x00000004   Code   RO         2564    .ARM.Collect$$$$00002712  mc_w.l(entry2.o)
    0x00000214   0x00000214   0x0000009a   Code   RO         1493    .emb_text           nrf_memobj.o
    0x000002ae   0x000002ae   0x00000002   PAD
    0x000002b0   0x000002b0   0x0000009a   Code   RO         1878    .emb_text           nrf_log_frontend.o
    0x0000034a   0x0000034a   0x00000002   PAD
    0x0000034c   0x0000034c   0x00000024   Code   RO         2467    .text               arm_startup_nrf52840.o
    0x00000370   0x00000370   0x00000008   Code   RO         2519    .text               mc_w.l(ctype_o.o)
    0x00000378   0x00000378   0x00000024   Code   RO         2547    .text               mc_w.l(memcpya.o)
    0x0000039c   0x0000039c   0x00000024   Code   RO         2549    .text               mc_w.l(memseta.o)
    0x000003c0   0x000003c0   0x0000000e   Code   RO         2551    .text               mc_w.l(strlen.o)
    0x000003ce   0x000003ce   0x00000012   Code   RO         2555    .text               mc_w.l(strcpy.o)
    0x000003e0   0x000003e0   0x00000022   Code   RO         2559    .text               mf_w.l(dflti.o)
    0x00000402   0x00000402   0x00000032   Code   RO         2561    .text               mf_w.l(dfixui.o)
    0x00000434   0x00000434   0x00000020   Code   RO         2578    .text               mc_w.l(llushr.o)
    0x00000454   0x00000454   0x00000000   Code   RO         2580    .text               mc_w.l(iusefp.o)
    0x00000454   0x00000454   0x000000ba   Code   RO         2582    .text               mf_w.l(depilogue.o)
    0x0000050e   0x0000050e   0x0000014e   Code   RO         2584    .text               mf_w.l(dadd.o)
    0x0000065c   0x0000065c   0x00000088   Code   RO         2586    .text               mf_w.l(drnd.o)
    0x000006e4   0x000006e4   0x00000030   Code   RO         2588    .text               mf_w.l(cdcmple.o)
    0x00000714   0x00000714   0x00000030   Code   RO         2590    .text               mf_w.l(cdrcmple.o)
    0x00000744   0x00000744   0x00000024   Code   RO         2592    .text               mc_w.l(init.o)
    0x00000768   0x00000768   0x0000001e   Code   RO         2594    .text               mc_w.l(llshl.o)
    0x00000786   0x00000786   0x00000024   Code   RO         2596    .text               mc_w.l(llsshr.o)
    0x000007aa   0x000007aa   0x00000002   PAD
    0x000007ac   0x000007ac   0x00000090   Code   RO          419    i.POWER_CLOCK_IRQHandler  nrf_drv_power.o
    0x0000083c   0x0000083c   0x00000148   Code   RO          682    i.SAADC_IRQHandler  nrf_drv_saadc.o
    0x00000984   0x00000984   0x00000004   Code   RO         2123    i.SEGGER_RTT_Init   segger_rtt.o
    0x00000988   0x00000988   0x0000005c   Code   RO         2137    i.SEGGER_RTT_WriteNoLock  segger_rtt.o
    0x000009e4   0x000009e4   0x00000208   Code   RO         2475    i.SystemInit        system_nrf52840.o
    0x00000bec   0x00000bec   0x0000004c   Code   RO          827    i.TIMER0_IRQHandler  nrf_drv_timer.o
    0x00000c38   0x00000c38   0x0000001c   Code   RO          944    i.UARTE0_UART0_IRQHandler  nrf_drv_uart.o
    0x00000c54   0x00000c54   0x00000068   Code   RO         2141    i._DoInit           segger_rtt.o
    0x00000cbc   0x00000cbc   0x00000016   Code   RO         2142    i._GetAvailWriteSpace  segger_rtt.o
    0x00000cd2   0x00000cd2   0x0000005a   Code   RO         2144    i._WriteBlocking    segger_rtt.o
    0x00000d2c   0x00000d2c   0x00000042   Code   RO         2145    i._WriteNoCheck     segger_rtt.o
    0x00000d6e   0x00000d6e   0x00000002   PAD
    0x00000d70   0x00000d70   0x000000e0   Code   RO         2507    i.__hardfp_round    m_wm.l(round.o)
    0x00000e50   0x00000e50   0x0000000e   Code   RO         2600    i.__scatterload_copy  mc_w.l(handlers.o)
    0x00000e5e   0x00000e5e   0x00000002   Code   RO         2601    i.__scatterload_null  mc_w.l(handlers.o)
    0x00000e60   0x00000e60   0x0000000e   Code   RO         2602    i.__scatterload_zeroinit  mc_w.l(handlers.o)
    0x00000e6e   0x00000e6e   0x00000002   PAD
    0x00000e70   0x00000e70   0x00000078   Code   RO         1252    i.app_error_fault_handler  app_error_weak.o
    0x00000ee8   0x00000ee8   0x00000016   Code   RO         1213    i.app_error_handler_bare  app_error.o
    0x00000efe   0x00000efe   0x00000004   Code   RO         1280    i.app_util_critical_region_enter  app_util_platform.o
    0x00000f02   0x00000f02   0x00000004   Code   RO         1281    i.app_util_critical_region_exit  app_util_platform.o
    0x00000f06   0x00000f06   0x00000002   PAD
    0x00000f08   0x00000f08   0x00000010   Code   RO         1282    i.app_util_disable_irq  app_util_platform.o
    0x00000f18   0x00000f18   0x00000014   Code   RO         1283    i.app_util_enable_irq  app_util_platform.o
    0x00000f2c   0x00000f2c   0x00000060   Code   RO         1879    i.buf_prealloc      nrf_log_frontend.o
    0x00000f8c   0x00000f8c   0x0000001e   Code   RO         1453    i.buffer_add        nrf_fprintf_format.o
    0x00000faa   0x00000faa   0x00000002   PAD
    0x00000fac   0x00000fac   0x00000014   Code   RO         1880    i.buffer_is_empty   nrf_log_frontend.o
    0x00000fc0   0x00000fc0   0x000000a6   Code   RO         1454    i.int_print         nrf_fprintf_format.o
    0x00001066   0x00001066   0x00000002   PAD
    0x00001068   0x00001068   0x00000018   Code   RO          525    i.is_allocated_channel  nrf_drv_ppi.o
    0x00001080   0x00001080   0x0000000c   Code   RO          528    i.is_programmable_app_channel  nrf_drv_ppi.o
    0x0000108c   0x0000108c   0x00000094   Code   RO         1882    i.log_skip          nrf_log_frontend.o
    0x00001120   0x00001120   0x0000009c   Code   RO            4    i.main              main.o
    0x000011bc   0x000011bc   0x00000076   Code   RO         1494    i.memobj_op         nrf_memobj.o
    0x00001232   0x00001232   0x00000002   PAD
    0x00001234   0x00001234   0x00000034   Code   RO         1883    i.module_idx_get    nrf_log_frontend.o
    0x00001268   0x00001268   0x0000000e   Code   RO         1884    i.nrf_atomic_flag_set  nrf_log_frontend.o
    0x00001276   0x00001276   0x0000003e   Code   RO         1369    i.nrf_balloc_alloc  nrf_balloc.o
    0x000012b4   0x000012b4   0x0000002a   Code   RO         1370    i.nrf_balloc_free   nrf_balloc.o
    0x000012de   0x000012de   0x00000030   Code   RO         1371    i.nrf_balloc_init   nrf_balloc.o
    0x0000130e   0x0000130e   0x00000038   Code   RO          372    i.nrf_drv_common_irq_enable  nrf_drv_common.o
    0x00001346   0x00001346   0x00000002   PAD
    0x00001348   0x00001348   0x00000050   Code   RO          420    i.nrf_drv_power_init  nrf_drv_power.o
    0x00001398   0x00001398   0x00000060   Code   RO          529    i.nrf_drv_ppi_channel_alloc  nrf_drv_ppi.o
    0x000013f8   0x000013f8   0x00000044   Code   RO          530    i.nrf_drv_ppi_channel_assign  nrf_drv_ppi.o
    0x0000143c   0x0000143c   0x00000028   Code   RO          532    i.nrf_drv_ppi_channel_enable  nrf_drv_ppi.o
    0x00001464   0x00001464   0x00000018   Code   RO          541    i.nrf_drv_ppi_init  nrf_drv_ppi.o
    0x0000147c   0x0000147c   0x000000a4   Code   RO          684    i.nrf_drv_saadc_buffer_convert  nrf_drv_saadc.o
    0x00001520   0x00001520   0x00000044   Code   RO          686    i.nrf_drv_saadc_channel_init  nrf_drv_saadc.o
    0x00001564   0x00001564   0x0000008c   Code   RO          688    i.nrf_drv_saadc_init  nrf_drv_saadc.o
    0x000015f0   0x000015f0   0x0000001c   Code   RO          693    i.nrf_drv_saadc_sample_task_get  nrf_drv_saadc.o
    0x0000160c   0x0000160c   0x00000022   Code   RO          830    i.nrf_drv_timer_compare  nrf_drv_timer.o
    0x0000162e   0x0000162e   0x00000002   PAD
    0x00001630   0x00001630   0x0000001c   Code   RO          834    i.nrf_drv_timer_enable  nrf_drv_timer.o
    0x0000164c   0x0000164c   0x0000002a   Code   RO          835    i.nrf_drv_timer_extended_compare  nrf_drv_timer.o
    0x00001676   0x00001676   0x00000002   PAD
    0x00001678   0x00001678   0x00000090   Code   RO          837    i.nrf_drv_timer_init  nrf_drv_timer.o
    0x00001708   0x00001708   0x0000001a   Code   RO         1410    i.nrf_fprintf       nrf_fprintf.o
    0x00001722   0x00001722   0x00000018   Code   RO         1411    i.nrf_fprintf_buffer_flush  nrf_fprintf.o
    0x0000173a   0x0000173a   0x000001da   Code   RO         1455    i.nrf_fprintf_fmt   nrf_fprintf_format.o
    0x00001914   0x00001914   0x0000001c   Code   RO            5    i.nrf_gpio_pin_port_decode  main.o
    0x00001930   0x00001930   0x00000050   Code   RO         1885    i.nrf_log_backend_add  nrf_log_frontend.o
    0x00001980   0x00001980   0x00000002   Code   RO         1729    i.nrf_log_backend_rtt_flush  nrf_log_backend_rtt.o
    0x00001982   0x00001982   0x00000004   Code   RO         1730    i.nrf_log_backend_rtt_init  nrf_log_backend_rtt.o
    0x00001986   0x00001986   0x00000002   Code   RO         1731    i.nrf_log_backend_rtt_panic_set  nrf_log_backend_rtt.o
    0x00001988   0x00001988   0x00000018   Code   RO         1732    i.nrf_log_backend_rtt_put  nrf_log_backend_rtt.o
    0x000019a0   0x000019a0   0x000000d2   Code   RO         1793    i.nrf_log_backend_serial_put  nrf_log_backend_serial.o
    0x00001a72   0x00001a72   0x00000002   PAD
    0x00001a74   0x00001a74   0x00000030   Code   RO         1887    i.nrf_log_color_id_get  nrf_log_frontend.o
    0x00001aa4   0x00001aa4   0x0000001c   Code   RO         1845    i.nrf_log_default_backends_init  nrf_log_default_backends.o
    0x00001ac0   0x00001ac0   0x000001e4   Code   RO         1888    i.nrf_log_frontend_dequeue  nrf_log_frontend.o
    0x00001ca4   0x00001ca4   0x00000008   Code   RO         1890    i.nrf_log_frontend_std_0  nrf_log_frontend.o
    0x00001cac   0x00001cac   0x0000000e   Code   RO         1891    i.nrf_log_frontend_std_1  nrf_log_frontend.o
    0x00001cba   0x00001cba   0x00000002   PAD
    0x00001cbc   0x00001cbc   0x000000ac   Code   RO         2070    i.nrf_log_hexdump_entry_process  nrf_log_str_formatter.o
    0x00001d68   0x00001d68   0x0000005c   Code   RO         1897    i.nrf_log_init      nrf_log_frontend.o
    0x00001dc4   0x00001dc4   0x00000014   Code   RO         1898    i.nrf_log_module_cnt_get  nrf_log_frontend.o
    0x00001dd8   0x00001dd8   0x0000001c   Code   RO         1901    i.nrf_log_module_name_get  nrf_log_frontend.o
    0x00001df4   0x00001df4   0x00000028   Code   RO         1902    i.nrf_log_panic     nrf_log_frontend.o
    0x00001e1c   0x00001e1c   0x000000b6   Code   RO         2071    i.nrf_log_std_entry_process  nrf_log_str_formatter.o
    0x00001ed2   0x00001ed2   0x00000060   Code   RO         1495    i.nrf_memobj_alloc  nrf_memobj.o
    0x00001f32   0x00001f32   0x00000032   Code   RO         1496    i.nrf_memobj_free   nrf_memobj.o
    0x00001f64   0x00001f64   0x0000000e   Code   RO         1497    i.nrf_memobj_get    nrf_memobj.o
    0x00001f72   0x00001f72   0x00000004   Code   RO         1498    i.nrf_memobj_pool_init  nrf_memobj.o
    0x00001f76   0x00001f76   0x00000022   Code   RO         1499    i.nrf_memobj_put    nrf_memobj.o
    0x00001f98   0x00001f98   0x0000000c   Code   RO         1500    i.nrf_memobj_read   nrf_memobj.o
    0x00001fa4   0x00001fa4   0x0000000c   Code   RO         1501    i.nrf_memobj_write  nrf_memobj.o
    0x00001fb0   0x00001fb0   0x00000014   Code   RO          429    i.nrf_power_event_get_and_clear  nrf_drv_power.o
    0x00001fc4   0x00001fc4   0x00000028   Code   RO         1583    i.nrf_pwr_mgmt_init  nrf_pwr_mgmt.o
    0x00001fec   0x00001fec   0x00000034   Code   RO         1584    i.nrf_pwr_mgmt_run  nrf_pwr_mgmt.o
    0x00002020   0x00002020   0x00000010   Code   RO          695    i.nrf_saadc_buffer_init  nrf_drv_saadc.o
    0x00002030   0x00002030   0x00000068   Code   RO         1185    i.nrf_saadc_channel_init  nrf_saadc.o
    0x00002098   0x00002098   0x00000014   Code   RO          696    i.nrf_saadc_channel_input_set  nrf_drv_saadc.o
    0x000020ac   0x000020ac   0x00000010   Code   RO          697    i.nrf_saadc_event_check  nrf_drv_saadc.o
    0x000020bc   0x000020bc   0x00000014   Code   RO          698    i.nrf_saadc_event_clear  nrf_drv_saadc.o
    0x000020d0   0x000020d0   0x0000000a   Code   RO         1661    i.nrf_section_iter_init  nrf_section_iter.o
    0x000020da   0x000020da   0x00000024   Code   RO         1662    i.nrf_section_iter_item_set  nrf_section_iter.o
    0x000020fe   0x000020fe   0x0000000a   Code   RO          969    i.nrf_uart_event_check  nrf_drv_uart.o
    0x00002108   0x00002108   0x0000000c   Code   RO          970    i.nrf_uart_event_clear  nrf_drv_uart.o
    0x00002114   0x00002114   0x0000000c   Code   RO          971    i.nrf_uart_int_enable_check  nrf_drv_uart.o
    0x00002120   0x00002120   0x0000000a   Code   RO          972    i.nrf_uarte_event_check  nrf_drv_uart.o
    0x0000212a   0x0000212a   0x0000000c   Code   RO          973    i.nrf_uarte_event_clear  nrf_drv_uart.o
    0x00002136   0x00002136   0x00000002   PAD
    0x00002138   0x00002138   0x0000003c   Code   RO         2072    i.postfix_process   nrf_log_str_formatter.o
    0x00002174   0x00002174   0x0000005c   Code   RO         2073    i.prefix_process    nrf_log_str_formatter.o
    0x000021d0   0x000021d0   0x00000032   Code   RO          975    i.rx_byte           nrf_drv_uart.o
    0x00002202   0x00002202   0x00000018   Code   RO          976    i.rx_done_event     nrf_drv_uart.o
    0x0000221a   0x0000221a   0x00000002   PAD
    0x0000221c   0x0000221c   0x00000114   Code   RO            6    i.saadc_callback    main.o
    0x00002330   0x00002330   0x0000005c   Code   RO            7    i.saadc_init        main.o
    0x0000238c   0x0000238c   0x0000001c   Code   RO            8    i.saadc_sampling_event_enable  main.o
    0x000023a8   0x000023a8   0x0000008c   Code   RO            9    i.saadc_sampling_event_init  main.o
    0x00002434   0x00002434   0x0000002a   Code   RO         1733    i.serial_tx         nrf_log_backend_rtt.o
    0x0000245e   0x0000245e   0x00000002   PAD
    0x00002460   0x00002460   0x00000090   Code   RO         1904    i.std_n             nrf_log_frontend.o
    0x000024f0   0x000024f0   0x00000002   Code   RO           10    i.timer_handler     main.o
    0x000024f2   0x000024f2   0x00000020   Code   RO          978    i.tx_byte           nrf_drv_uart.o
    0x00002512   0x00002512   0x0000001c   Code   RO          979    i.tx_done_event     nrf_drv_uart.o
    0x0000252e   0x0000252e   0x0000011e   Code   RO          980    i.uart_irq_handler  nrf_drv_uart.o
    0x0000264c   0x0000264c   0x000000f0   Code   RO          981    i.uarte_irq_handler  nrf_drv_uart.o
    0x0000273c   0x0000273c   0x000000b4   Code   RO         1456    i.unsigned_print    nrf_fprintf_format.o
    0x000027f0   0x000027f0   0x00000019   Data   RO           12    .constdata          main.o
    0x00002809   0x00002809   0x00000001   Data   RO          430    .constdata          nrf_drv_power.o
    0x0000280a   0x0000280a   0x00000004   Data   RO          701    .constdata          nrf_drv_saadc.o
    0x0000280e   0x0000280e   0x00000010   Data   RO         1457    .constdata          nrf_fprintf_format.o
    0x0000281e   0x0000281e   0x00000002   PAD
    0x00002820   0x00002820   0x00000018   Data   RO         1588    .constdata          nrf_pwr_mgmt.o
    0x00002838   0x00002838   0x0000000c   Data   RO         1589    .constdata          nrf_pwr_mgmt.o
    0x00002844   0x00002844   0x0000000c   Data   RO         1735    .constdata          nrf_log_backend_rtt.o
    0x00002850   0x00002850   0x00000014   Data   RO         1907    .constdata          nrf_log_frontend.o
    0x00002864   0x00002864   0x00000081   Data   RO         2520    .constdata          mc_w.l(ctype_o.o)
    0x000028e5   0x000028e5   0x00000003   PAD
    0x000028e8   0x000028e8   0x00000004   Data   RO         2521    .constdata          mc_w.l(ctype_o.o)
    0x000028ec   0x000028ec   0x00000066   Data   RO         2074    .conststring        nrf_log_str_formatter.o
    0x00002952   0x00002952   0x00000002   PAD
    0x00002954   0x00002954   0x00000004   Data   RO          557    .conststrlit        nrf_drv_ppi.o
    0x00002958   0x00002958   0x00000006   Data   RO          709    .conststrlit        nrf_drv_saadc.o
    0x0000295e   0x0000295e   0x00000002   PAD
    0x00002960   0x00002960   0x00000006   Data   RO          843    .conststrlit        nrf_drv_timer.o
    0x00002966   0x00002966   0x00000002   PAD
    0x00002968   0x00002968   0x00000005   Data   RO          983    .conststrlit        nrf_drv_uart.o
    0x0000296d   0x0000296d   0x00000003   PAD
    0x00002970   0x00002970   0x00000007   Data   RO         1372    .conststrlit        nrf_balloc.o
    0x00002977   0x00002977   0x00000001   PAD
    0x00002978   0x00002978   0x00000009   Data   RO         1590    .conststrlit        nrf_pwr_mgmt.o
    0x00002981   0x00002981   0x00000003   PAD
    0x00002984   0x00002984   0x00000004   Data   RO         1909    .conststrlit        nrf_log_frontend.o
    0x00002988   0x00002988   0x00000020   Data   RO         2598    Region$$Table       anon$$obj.o
    0x000029a8   0x000029a8   0x00000008   Data   RO          559    log_const_data      nrf_drv_ppi.o
    0x000029b0   0x000029b0   0x00000008   Data   RO          710    log_const_data      nrf_drv_saadc.o
    0x000029b8   0x000029b8   0x00000008   Data   RO          844    log_const_data      nrf_drv_timer.o
    0x000029c0   0x000029c0   0x00000008   Data   RO          984    log_const_data      nrf_drv_uart.o
    0x000029c8   0x000029c8   0x00000008   Data   RO         1373    log_const_data      nrf_balloc.o
    0x000029d0   0x000029d0   0x00000008   Data   RO         1592    log_const_data      nrf_pwr_mgmt.o
    0x000029d8   0x000029d8   0x00000008   Data   RO         1913    log_const_data      nrf_log_frontend.o


    Execution Region RW_IRAM1 (Exec base: 0x20000000, Load base: 0x000029e0, Size: 0x00002900, Max: 0x00040000, ABSOLUTE)

    Exec Addr    Load Addr    Size         Type   Attr      Idx    E Section Name        Object

    0x20000000   0x000029e0   0x00000008   Data   RW           14    .data               main.o
    0x20000008   0x000029e8   0x00000010   Data   RW          431    .data               nrf_drv_power.o
    0x20000018   0x000029f8   0x00000008   Data   RW          558    .data               nrf_drv_ppi.o
    0x20000020   0x00002a00   0x00000004   Data   RW         1286    .data               app_util_platform.o
    0x20000024   0x00002a04   0x00000008   Data   RW         1591    .data               nrf_pwr_mgmt.o
    0x2000002c   0x00002a0c   0x0000000c   Data   RW         1846    .data               nrf_log_default_backends.o
    0x20000038   0x00002a18   0x00000008   Data   RW         1911    .data               nrf_log_frontend.o
    0x20000040   0x00002a20   0x00000008   Data   RW         1912    .data               nrf_log_frontend.o
    0x20000048   0x00002a28   0x00000038   Data   RW         2075    .data               nrf_log_str_formatter.o
    0x20000080   0x00002a60   0x00000004   Data   RW         2476    .data               system_nrf52840.o
    0x20000084   0x00002a64   0x0000000c   Data   RW          560    log_dynamic_data    nrf_drv_ppi.o
    0x20000090   0x00002a70   0x0000000c   Data   RW          711    log_dynamic_data    nrf_drv_saadc.o
    0x2000009c   0x00002a7c   0x0000000c   Data   RW          845    log_dynamic_data    nrf_drv_timer.o
    0x200000a8   0x00002a88   0x0000000c   Data   RW          985    log_dynamic_data    nrf_drv_uart.o
    0x200000b4   0x00002a94   0x0000000c   Data   RW         1374    log_dynamic_data    nrf_balloc.o
    0x200000c0   0x00002aa0   0x0000000c   Data   RW         1593    log_dynamic_data    nrf_pwr_mgmt.o
    0x200000cc   0x00002aac   0x0000000c   Data   RW         1914    log_dynamic_data    nrf_log_frontend.o
    0x200000d8        -       0x00000014   Zero   RW           11    .bss                main.o
    0x200000ec        -       0x00000030   Zero   RW          700    .bss                nrf_drv_saadc.o
    0x2000011c        -       0x0000000c   Zero   RW          841    .bss                nrf_drv_timer.o
    0x20000128        -       0x00000020   Zero   RW          982    .bss                nrf_drv_uart.o
    0x20000148        -       0x0000000c   Zero   RW         1587    .bss                nrf_pwr_mgmt.o
    0x20000154        -       0x00000040   Zero   RW         1734    .bss                nrf_log_backend_rtt.o
    0x20000194        -       0x000000c0   Zero   RW         1905    .bss                nrf_log_frontend.o
    0x20000254        -       0x00000420   Zero   RW         1906    .bss                nrf_log_frontend.o
    0x20000674        -       0x00000288   Zero   RW         2146    .bss                segger_rtt.o
    0x200008fc   0x00002ab8   0x00000004   PAD
    0x20000900        -       0x00002000   Zero   RW         2464    STACK               arm_startup_nrf52840.o


==============================================================================

Image component sizes


      Code (inc. data)   RO Data    RW Data    ZI Data      Debug   Object Name

        22          0          0          0          0       2189   app_error.o
       120         40          0          0          0      27425   app_error_weak.o
        44         10          0          4          0       3560   app_util_platform.o
        36          8        512          0       8192        972   arm_startup_nrf52840.o
       722        130         25          8         20      81291   main.o
       152          0         15         12          0       4041   nrf_balloc.o
        56          0          0          0          0      29315   nrf_drv_common.o
       244         18          1         16          0      15891   nrf_drv_power.o
       264         28         12         20          0      19549   nrf_drv_ppi.o
       800         66         18         12         48      18456   nrf_drv_saadc.o
       324         18         14         12         12      17007   nrf_drv_timer.o
       744          8         13         12         32      25162   nrf_drv_uart.o
        50          0          0          0          0       3673   nrf_fprintf.o
       850          4         16          0          0       5658   nrf_fprintf_format.o
        74          8         12          0         64       5777   nrf_log_backend_rtt.o
       210          0          0          0          0      10547   nrf_log_backend_serial.o
        28          6          0         12          0       3334   nrf_log_default_backends.o
      1442         88         32         28       1248      31006   nrf_log_frontend.o
       506         66        102         56          0       5820   nrf_log_str_formatter.o
       494          0          0          0          0      13535   nrf_memobj.o
        92         18         53         20         12      40339   nrf_pwr_mgmt.o
       104          4          0          0          0       6773   nrf_saadc.o
        46          0          0          0          0       2164   nrf_section_iter.o
       378         34          0          0        648       9410   segger_rtt.o
       520         60          0          4          0       2675   system_nrf52840.o

    ----------------------------------------------------------------------
      8352        614        872        216      10280     385569   Object Totals
         0          0         32          0          0          0   (incl. Generated)
        30          0         15          0          4          0   (incl. Padding)

    ----------------------------------------------------------------------

      Code (inc. data)   RO Data    RW Data    ZI Data      Debug   Library Member Name

       224         30          0          0          0        172   round.o
         8          4        133          0          0         68   ctype_o.o
         0          0          0          0          0          0   entry.o
         0          0          0          0          0          0   entry10a.o
         0          0          0          0          0          0   entry11a.o
         8          4          0          0          0          0   entry2.o
         4          0          0          0          0          0   entry5.o
         0          0          0          0          0          0   entry7b.o
         0          0          0          0          0          0   entry8b.o
         8          4          0          0          0          0   entry9a.o
        30          0          0          0          0          0   handlers.o
        36          8          0          0          0         68   init.o
         0          0          0          0          0          0   iusefp.o
        30          0          0          0          0         68   llshl.o
        36          0          0          0          0         68   llsshr.o
        32          0          0          0          0         68   llushr.o
        36          0          0          0          0         68   memcpya.o
        36          0          0          0          0        108   memseta.o
        18          0          0          0          0         68   strcpy.o
        14          0          0          0          0         68   strlen.o
        48          0          0          0          0         68   cdcmple.o
        48          0          0          0          0         68   cdrcmple.o
       334          0          0          0          0        148   dadd.o
       186          0          0          0          0        176   depilogue.o
        50          0          0          0          0         76   dfixui.o
        34          0          0          0          0         76   dflti.o
       136          4          0          0          0         92   drnd.o

    ----------------------------------------------------------------------
      1360         54        136          0          0       1528   Library Totals
         4          0          3          0          0          0   (incl. Padding)

    ----------------------------------------------------------------------

      Code (inc. data)   RO Data    RW Data    ZI Data      Debug   Library Name

       224         30          0          0          0        172   m_wm.l
       296         20        133          0          0        652   mc_w.l
       836          4          0          0          0        704   mf_w.l

    ----------------------------------------------------------------------
      1360         54        136          0          0       1528   Library Totals

    ----------------------------------------------------------------------

==============================================================================


      Code (inc. data)   RO Data    RW Data    ZI Data      Debug   

      9712        668       1008        216      10280     376577   Grand Totals
      9712        668       1008        216      10280     376577   ELF Image Totals
      9712        668       1008        216          0          0   ROM Totals

==============================================================================

    Total RO  Size (Code + RO Data)                10720 (  10.47kB)
    Total RW  Size (RW Data + ZI Data)             10496 (  10.25kB)
    Total ROM Size (Code + RO Data + RW Data)      10936 (  10.68kB)

==============================================================================

